{
	"contracts/CollegeTracker.sol": {
		"COllegeTracker": {
			"abi": [
				{
					"inputs": [
						{
							"internalType": "string",
							"name": "_collegeName",
							"type": "string"
						},
						{
							"internalType": "string",
							"name": "_regNo",
							"type": "string"
						},
						{
							"internalType": "address",
							"name": "_collegeAddress",
							"type": "address"
						}
					],
					"name": "addNewCollege",
					"outputs": [],
					"stateMutability": "nonpayable",
					"type": "function"
				},
				{
					"inputs": [
						{
							"internalType": "address",
							"name": "_collegeAddress",
							"type": "address"
						},
						{
							"internalType": "string",
							"name": "_studentName",
							"type": "string"
						},
						{
							"internalType": "string",
							"name": "_phoneNo",
							"type": "string"
						},
						{
							"internalType": "string",
							"name": "_courseName",
							"type": "string"
						}
					],
					"name": "addNewStudent",
					"outputs": [],
					"stateMutability": "nonpayable",
					"type": "function"
				},
				{
					"inputs": [
						{
							"internalType": "address",
							"name": "_collegeAddress",
							"type": "address"
						}
					],
					"name": "allowCollegeAddingNewStudents",
					"outputs": [],
					"stateMutability": "nonpayable",
					"type": "function"
				},
				{
					"inputs": [
						{
							"internalType": "address",
							"name": "_collegeAddress",
							"type": "address"
						}
					],
					"name": "blockCollegeAddingNewStudents",
					"outputs": [],
					"stateMutability": "nonpayable",
					"type": "function"
				},
				{
					"inputs": [
						{
							"internalType": "address",
							"name": "_collegeAddress",
							"type": "address"
						},
						{
							"internalType": "string",
							"name": "_studentName",
							"type": "string"
						},
						{
							"internalType": "string",
							"name": "_newCourseName",
							"type": "string"
						}
					],
					"name": "changeStudentCourse",
					"outputs": [],
					"stateMutability": "nonpayable",
					"type": "function"
				},
				{
					"inputs": [
						{
							"internalType": "address",
							"name": "_collegeAddress",
							"type": "address"
						}
					],
					"name": "getCollegeDetails",
					"outputs": [
						{
							"internalType": "string",
							"name": "",
							"type": "string"
						},
						{
							"internalType": "string",
							"name": "",
							"type": "string"
						},
						{
							"internalType": "bool",
							"name": "",
							"type": "bool"
						},
						{
							"internalType": "uint8",
							"name": "",
							"type": "uint8"
						}
					],
					"stateMutability": "view",
					"type": "function"
				},
				{
					"inputs": [
						{
							"internalType": "string",
							"name": "_studentName",
							"type": "string"
						}
					],
					"name": "getStudentDetails",
					"outputs": [
						{
							"internalType": "string",
							"name": "",
							"type": "string"
						},
						{
							"internalType": "string",
							"name": "",
							"type": "string"
						},
						{
							"internalType": "string",
							"name": "",
							"type": "string"
						}
					],
					"stateMutability": "view",
					"type": "function"
				}
			],
			"devdoc": {
				"kind": "dev",
				"methods": {},
				"version": 1
			},
			"evm": {
				"assembly": "    /* \"contracts/CollegeTracker.sol\":57:2724  contract COllegeTracker{... */\n  mstore(0x40, 0x80)\n  callvalue\n  dup1\n  iszero\n  tag_1\n  jumpi\n  0x00\n  dup1\n  revert\ntag_1:\n  pop\n  dataSize(sub_0)\n  dup1\n  dataOffset(sub_0)\n  0x00\n  codecopy\n  0x00\n  return\nstop\n\nsub_0: assembly {\n        /* \"contracts/CollegeTracker.sol\":57:2724  contract COllegeTracker{... */\n      mstore(0x40, 0x80)\n      callvalue\n      dup1\n      iszero\n      tag_1\n      jumpi\n      0x00\n      dup1\n      revert\n    tag_1:\n      pop\n      jumpi(tag_2, lt(calldatasize, 0x04))\n      shr(0xe0, calldataload(0x00))\n      dup1\n      0x8805f0f4\n      gt\n      tag_10\n      jumpi\n      dup1\n      0x8805f0f4\n      eq\n      tag_6\n      jumpi\n      dup1\n      0xb6b8ab99\n      eq\n      tag_7\n      jumpi\n      dup1\n      0xe05cd31c\n      eq\n      tag_8\n      jumpi\n      dup1\n      0xf86b0b76\n      eq\n      tag_9\n      jumpi\n      jump(tag_2)\n    tag_10:\n      dup1\n      0x18ab022f\n      eq\n      tag_3\n      jumpi\n      dup1\n      0x52dc8f7c\n      eq\n      tag_4\n      jumpi\n      dup1\n      0x7f3e1e82\n      eq\n      tag_5\n      jumpi\n    tag_2:\n      0x00\n      dup1\n      revert\n        /* \"contracts/CollegeTracker.sol\":1205:1345  function blockCollegeAddingNewStudents(address _collegeAddress) public{... */\n    tag_3:\n      tag_11\n      0x04\n      dup1\n      calldatasize\n      sub\n      dup2\n      add\n      swap1\n      tag_12\n      swap2\n      swap1\n      tag_13\n      jump\t// in\n    tag_12:\n      tag_14\n      jump\t// in\n    tag_11:\n      stop\n        /* \"contracts/CollegeTracker.sol\":847:1195  function getCollegeDetails(address _collegeAddress) public view returns(string memory, string memory, bool, uint8){... */\n    tag_4:\n      tag_15\n      0x04\n      dup1\n      calldatasize\n      sub\n      dup2\n      add\n      swap1\n      tag_16\n      swap2\n      swap1\n      tag_13\n      jump\t// in\n    tag_16:\n      tag_17\n      jump\t// in\n    tag_15:\n      mload(0x40)\n      tag_18\n      swap5\n      swap4\n      swap3\n      swap2\n      swap1\n      tag_19\n      jump\t// in\n    tag_18:\n      mload(0x40)\n      dup1\n      swap2\n      sub\n      swap1\n      return\n        /* \"contracts/CollegeTracker.sol\":1497:2084  function addNewStudent(address _collegeAddress, string memory _studentName, string memory _phoneNo, string memory _courseName) public{... */\n    tag_5:\n      tag_20\n      0x04\n      dup1\n      calldatasize\n      sub\n      dup2\n      add\n      swap1\n      tag_21\n      swap2\n      swap1\n      tag_22\n      jump\t// in\n    tag_21:\n      tag_23\n      jump\t// in\n    tag_20:\n      stop\n        /* \"contracts/CollegeTracker.sol\":2437:2722  function getStudentDetails(string memory _studentName) public view returns(string memory, string memory, string memory){... */\n    tag_6:\n      tag_24\n      0x04\n      dup1\n      calldatasize\n      sub\n      dup2\n      add\n      swap1\n      tag_25\n      swap2\n      swap1\n      tag_26\n      jump\t// in\n    tag_25:\n      tag_27\n      jump\t// in\n    tag_24:\n      mload(0x40)\n      tag_28\n      swap4\n      swap3\n      swap2\n      swap1\n      tag_29\n      jump\t// in\n    tag_28:\n      mload(0x40)\n      dup1\n      swap2\n      sub\n      swap1\n      return\n        /* \"contracts/CollegeTracker.sol\":1352:1491  function allowCollegeAddingNewStudents(address _collegeAddress) public{... */\n    tag_7:\n      tag_30\n      0x04\n      dup1\n      calldatasize\n      sub\n      dup2\n      add\n      swap1\n      tag_31\n      swap2\n      swap1\n      tag_13\n      jump\t// in\n    tag_31:\n      tag_32\n      jump\t// in\n    tag_30:\n      stop\n        /* \"contracts/CollegeTracker.sol\":496:841  function addNewCollege(string memory _collegeName, string memory _regNo, address _collegeAddress) public{... */\n    tag_8:\n      tag_33\n      0x04\n      dup1\n      calldatasize\n      sub\n      dup2\n      add\n      swap1\n      tag_34\n      swap2\n      swap1\n      tag_35\n      jump\t// in\n    tag_34:\n      tag_36\n      jump\t// in\n    tag_33:\n      stop\n        /* \"contracts/CollegeTracker.sol\":2090:2431  function changeStudentCourse(address _collegeAddress, string memory _studentName, string memory _newCourseName) public{... */\n    tag_9:\n      tag_37\n      0x04\n      dup1\n      calldatasize\n      sub\n      dup2\n      add\n      swap1\n      tag_38\n      swap2\n      swap1\n      tag_39\n      jump\t// in\n    tag_38:\n      tag_40\n      jump\t// in\n    tag_37:\n      stop\n        /* \"contracts/CollegeTracker.sol\":1205:1345  function blockCollegeAddingNewStudents(address _collegeAddress) public{... */\n    tag_14:\n        /* \"contracts/CollegeTracker.sol\":1333:1338  false */\n      0x00\n        /* \"contracts/CollegeTracker.sol\":1285:1293  colleges */\n      dup1\n        /* \"contracts/CollegeTracker.sol\":1285:1310  colleges[_collegeAddress] */\n      0x00\n        /* \"contracts/CollegeTracker.sol\":1294:1309  _collegeAddress */\n      dup4\n        /* \"contracts/CollegeTracker.sol\":1285:1310  colleges[_collegeAddress] */\n      0xffffffffffffffffffffffffffffffffffffffff\n      and\n      0xffffffffffffffffffffffffffffffffffffffff\n      and\n      dup2\n      mstore\n      0x20\n      add\n      swap1\n      dup2\n      mstore\n      0x20\n      add\n      0x00\n      keccak256\n        /* \"contracts/CollegeTracker.sol\":1285:1330  colleges[_collegeAddress].addStudentPrivilege */\n      0x04\n      add\n      0x00\n        /* \"contracts/CollegeTracker.sol\":1285:1338  colleges[_collegeAddress].addStudentPrivilege = false */\n      0x0100\n      exp\n      dup2\n      sload\n      dup2\n      0xff\n      mul\n      not\n      and\n      swap1\n      dup4\n      iszero\n      iszero\n      mul\n      or\n      swap1\n      sstore\n      pop\n        /* \"contracts/CollegeTracker.sol\":1205:1345  function blockCollegeAddingNewStudents(address _collegeAddress) public{... */\n      pop\n      jump\t// out\n        /* \"contracts/CollegeTracker.sol\":847:1195  function getCollegeDetails(address _collegeAddress) public view returns(string memory, string memory, bool, uint8){... */\n    tag_17:\n        /* \"contracts/CollegeTracker.sol\":919:932  string memory */\n      0x60\n        /* \"contracts/CollegeTracker.sol\":934:947  string memory */\n      dup1\n        /* \"contracts/CollegeTracker.sol\":949:953  bool */\n      0x00\n        /* \"contracts/CollegeTracker.sol\":955:960  uint8 */\n      dup1\n        /* \"contracts/CollegeTracker.sol\":992:1000  colleges */\n      0x00\n        /* \"contracts/CollegeTracker.sol\":992:1017  colleges[_collegeAddress] */\n      dup1\n        /* \"contracts/CollegeTracker.sol\":1001:1016  _collegeAddress */\n      dup7\n        /* \"contracts/CollegeTracker.sol\":992:1017  colleges[_collegeAddress] */\n      0xffffffffffffffffffffffffffffffffffffffff\n      and\n      0xffffffffffffffffffffffffffffffffffffffff\n      and\n      dup2\n      mstore\n      0x20\n      add\n      swap1\n      dup2\n      mstore\n      0x20\n      add\n      0x00\n      keccak256\n        /* \"contracts/CollegeTracker.sol\":992:1022  colleges[_collegeAddress].name */\n      0x00\n      add\n        /* \"contracts/CollegeTracker.sol\":1036:1044  colleges */\n      0x00\n        /* \"contracts/CollegeTracker.sol\":1036:1061  colleges[_collegeAddress] */\n      dup1\n        /* \"contracts/CollegeTracker.sol\":1045:1060  _collegeAddress */\n      dup8\n        /* \"contracts/CollegeTracker.sol\":1036:1061  colleges[_collegeAddress] */\n      0xffffffffffffffffffffffffffffffffffffffff\n      and\n      0xffffffffffffffffffffffffffffffffffffffff\n      and\n      dup2\n      mstore\n      0x20\n      add\n      swap1\n      dup2\n      mstore\n      0x20\n      add\n      0x00\n      keccak256\n        /* \"contracts/CollegeTracker.sol\":1036:1067  colleges[_collegeAddress].regNo */\n      0x03\n      add\n        /* \"contracts/CollegeTracker.sol\":1081:1089  colleges */\n      0x00\n        /* \"contracts/CollegeTracker.sol\":1081:1106  colleges[_collegeAddress] */\n      dup1\n        /* \"contracts/CollegeTracker.sol\":1090:1105  _collegeAddress */\n      dup9\n        /* \"contracts/CollegeTracker.sol\":1081:1106  colleges[_collegeAddress] */\n      0xffffffffffffffffffffffffffffffffffffffff\n      and\n      0xffffffffffffffffffffffffffffffffffffffff\n      and\n      dup2\n      mstore\n      0x20\n      add\n      swap1\n      dup2\n      mstore\n      0x20\n      add\n      0x00\n      keccak256\n        /* \"contracts/CollegeTracker.sol\":1081:1126  colleges[_collegeAddress].addStudentPrivilege */\n      0x04\n      add\n      0x00\n      swap1\n      sload\n      swap1\n      0x0100\n      exp\n      swap1\n      div\n      0xff\n      and\n        /* \"contracts/CollegeTracker.sol\":1140:1148  colleges */\n      0x00\n        /* \"contracts/CollegeTracker.sol\":1140:1165  colleges[_collegeAddress] */\n      dup1\n        /* \"contracts/CollegeTracker.sol\":1149:1164  _collegeAddress */\n      dup10\n        /* \"contracts/CollegeTracker.sol\":1140:1165  colleges[_collegeAddress] */\n      0xffffffffffffffffffffffffffffffffffffffff\n      and\n      0xffffffffffffffffffffffffffffffffffffffff\n      and\n      dup2\n      mstore\n      0x20\n      add\n      swap1\n      dup2\n      mstore\n      0x20\n      add\n      0x00\n      keccak256\n        /* \"contracts/CollegeTracker.sol\":1140:1178  colleges[_collegeAddress].noOfStudents */\n      0x04\n      add\n      0x01\n      swap1\n      sload\n      swap1\n      0x0100\n      exp\n      swap1\n      div\n      0xff\n      and\n        /* \"contracts/CollegeTracker.sol\":971:1188  return (... */\n      dup4\n      dup1\n      sload\n      tag_43\n      swap1\n      tag_44\n      jump\t// in\n    tag_43:\n      dup1\n      0x1f\n      add\n      0x20\n      dup1\n      swap2\n      div\n      mul\n      0x20\n      add\n      mload(0x40)\n      swap1\n      dup2\n      add\n      0x40\n      mstore\n      dup1\n      swap3\n      swap2\n      swap1\n      dup2\n      dup2\n      mstore\n      0x20\n      add\n      dup3\n      dup1\n      sload\n      tag_45\n      swap1\n      tag_44\n      jump\t// in\n    tag_45:\n      dup1\n      iszero\n      tag_46\n      jumpi\n      dup1\n      0x1f\n      lt\n      tag_47\n      jumpi\n      0x0100\n      dup1\n      dup4\n      sload\n      div\n      mul\n      dup4\n      mstore\n      swap2\n      0x20\n      add\n      swap2\n      jump(tag_46)\n    tag_47:\n      dup3\n      add\n      swap2\n      swap1\n      0x00\n      mstore\n      keccak256(0x00, 0x20)\n      swap1\n    tag_48:\n      dup2\n      sload\n      dup2\n      mstore\n      swap1\n      0x01\n      add\n      swap1\n      0x20\n      add\n      dup1\n      dup4\n      gt\n      tag_48\n      jumpi\n      dup3\n      swap1\n      sub\n      0x1f\n      and\n      dup3\n      add\n      swap2\n    tag_46:\n      pop\n      pop\n      pop\n      pop\n      pop\n      swap4\n      pop\n      dup3\n      dup1\n      sload\n      tag_49\n      swap1\n      tag_44\n      jump\t// in\n    tag_49:\n      dup1\n      0x1f\n      add\n      0x20\n      dup1\n      swap2\n      div\n      mul\n      0x20\n      add\n      mload(0x40)\n      swap1\n      dup2\n      add\n      0x40\n      mstore\n      dup1\n      swap3\n      swap2\n      swap1\n      dup2\n      dup2\n      mstore\n      0x20\n      add\n      dup3\n      dup1\n      sload\n      tag_50\n      swap1\n      tag_44\n      jump\t// in\n    tag_50:\n      dup1\n      iszero\n      tag_51\n      jumpi\n      dup1\n      0x1f\n      lt\n      tag_52\n      jumpi\n      0x0100\n      dup1\n      dup4\n      sload\n      div\n      mul\n      dup4\n      mstore\n      swap2\n      0x20\n      add\n      swap2\n      jump(tag_51)\n    tag_52:\n      dup3\n      add\n      swap2\n      swap1\n      0x00\n      mstore\n      keccak256(0x00, 0x20)\n      swap1\n    tag_53:\n      dup2\n      sload\n      dup2\n      mstore\n      swap1\n      0x01\n      add\n      swap1\n      0x20\n      add\n      dup1\n      dup4\n      gt\n      tag_53\n      jumpi\n      dup3\n      swap1\n      sub\n      0x1f\n      and\n      dup3\n      add\n      swap2\n    tag_51:\n      pop\n      pop\n      pop\n      pop\n      pop\n      swap3\n      pop\n      swap4\n      pop\n      swap4\n      pop\n      swap4\n      pop\n      swap4\n      pop\n        /* \"contracts/CollegeTracker.sol\":847:1195  function getCollegeDetails(address _collegeAddress) public view returns(string memory, string memory, bool, uint8){... */\n      swap2\n      swap4\n      pop\n      swap2\n      swap4\n      jump\t// out\n        /* \"contracts/CollegeTracker.sol\":1497:2084  function addNewStudent(address _collegeAddress, string memory _studentName, string memory _phoneNo, string memory _courseName) public{... */\n    tag_23:\n        /* \"contracts/CollegeTracker.sol\":1648:1656  colleges */\n      0x00\n        /* \"contracts/CollegeTracker.sol\":1648:1673  colleges[_collegeAddress] */\n      dup1\n        /* \"contracts/CollegeTracker.sol\":1657:1672  _collegeAddress */\n      dup6\n        /* \"contracts/CollegeTracker.sol\":1648:1673  colleges[_collegeAddress] */\n      0xffffffffffffffffffffffffffffffffffffffff\n      and\n      0xffffffffffffffffffffffffffffffffffffffff\n      and\n      dup2\n      mstore\n      0x20\n      add\n      swap1\n      dup2\n      mstore\n      0x20\n      add\n      0x00\n      keccak256\n        /* \"contracts/CollegeTracker.sol\":1648:1693  colleges[_collegeAddress].addStudentPrivilege */\n      0x04\n      add\n      0x00\n      swap1\n      sload\n      swap1\n      0x0100\n      exp\n      swap1\n      div\n      0xff\n      and\n        /* \"contracts/CollegeTracker.sol\":1640:1751  require(colleges[_collegeAddress].addStudentPrivilege, \"Student registration not allowed in selected college!\") */\n      tag_55\n      jumpi\n      mload(0x40)\n      0x08c379a000000000000000000000000000000000000000000000000000000000\n      dup2\n      mstore\n      0x04\n      add\n      tag_56\n      swap1\n      tag_57\n      jump\t// in\n    tag_56:\n      mload(0x40)\n      dup1\n      swap2\n      sub\n      swap1\n      revert\n    tag_55:\n        /* \"contracts/CollegeTracker.sol\":1800:1812  _studentName */\n      dup3\n        /* \"contracts/CollegeTracker.sol\":1770:1778  students */\n      0x01\n        /* \"contracts/CollegeTracker.sol\":1779:1791  _studentName */\n      dup5\n        /* \"contracts/CollegeTracker.sol\":1770:1792  students[_studentName] */\n      mload(0x40)\n      tag_58\n      swap2\n      swap1\n      tag_59\n      jump\t// in\n    tag_58:\n      swap1\n      dup2\n      mstore\n      0x20\n      add\n      mload(0x40)\n      dup1\n      swap2\n      sub\n      swap1\n      keccak256\n        /* \"contracts/CollegeTracker.sol\":1770:1797  students[_studentName].name */\n      0x01\n      add\n        /* \"contracts/CollegeTracker.sol\":1770:1812  students[_studentName].name = _studentName */\n      swap1\n      dup2\n      tag_60\n      swap2\n      swap1\n      tag_61\n      jump\t// in\n    tag_60:\n      pop\n        /* \"contracts/CollegeTracker.sol\":1862:1877  _collegeAddress */\n      dup4\n        /* \"contracts/CollegeTracker.sol\":1822:1830  students */\n      0x01\n        /* \"contracts/CollegeTracker.sol\":1831:1843  _studentName */\n      dup5\n        /* \"contracts/CollegeTracker.sol\":1822:1844  students[_studentName] */\n      mload(0x40)\n      tag_62\n      swap2\n      swap1\n      tag_59\n      jump\t// in\n    tag_62:\n      swap1\n      dup2\n      mstore\n      0x20\n      add\n      mload(0x40)\n      dup1\n      swap2\n      sub\n      swap1\n      keccak256\n        /* \"contracts/CollegeTracker.sol\":1822:1859  students[_studentName].collegeAddress */\n      0x00\n      add\n      0x00\n        /* \"contracts/CollegeTracker.sol\":1822:1877  students[_studentName].collegeAddress = _collegeAddress */\n      0x0100\n      exp\n      dup2\n      sload\n      dup2\n      0xffffffffffffffffffffffffffffffffffffffff\n      mul\n      not\n      and\n      swap1\n      dup4\n      0xffffffffffffffffffffffffffffffffffffffff\n      and\n      mul\n      or\n      swap1\n      sstore\n      pop\n        /* \"contracts/CollegeTracker.sol\":1920:1928  _phoneNo */\n      dup2\n        /* \"contracts/CollegeTracker.sol\":1887:1895  students */\n      0x01\n        /* \"contracts/CollegeTracker.sol\":1896:1908  _studentName */\n      dup5\n        /* \"contracts/CollegeTracker.sol\":1887:1909  students[_studentName] */\n      mload(0x40)\n      tag_63\n      swap2\n      swap1\n      tag_59\n      jump\t// in\n    tag_63:\n      swap1\n      dup2\n      mstore\n      0x20\n      add\n      mload(0x40)\n      dup1\n      swap2\n      sub\n      swap1\n      keccak256\n        /* \"contracts/CollegeTracker.sol\":1887:1917  students[_studentName].phoneNo */\n      0x02\n      add\n        /* \"contracts/CollegeTracker.sol\":1887:1928  students[_studentName].phoneNo = _phoneNo */\n      swap1\n      dup2\n      tag_64\n      swap2\n      swap1\n      tag_61\n      jump\t// in\n    tag_64:\n      pop\n        /* \"contracts/CollegeTracker.sol\":1974:1985  _courseName */\n      dup1\n        /* \"contracts/CollegeTracker.sol\":1938:1946  students */\n      0x01\n        /* \"contracts/CollegeTracker.sol\":1947:1959  _studentName */\n      dup5\n        /* \"contracts/CollegeTracker.sol\":1938:1960  students[_studentName] */\n      mload(0x40)\n      tag_65\n      swap2\n      swap1\n      tag_59\n      jump\t// in\n    tag_65:\n      swap1\n      dup2\n      mstore\n      0x20\n      add\n      mload(0x40)\n      dup1\n      swap2\n      sub\n      swap1\n      keccak256\n        /* \"contracts/CollegeTracker.sol\":1938:1971  students[_studentName].courseName */\n      0x03\n      add\n        /* \"contracts/CollegeTracker.sol\":1938:1985  students[_studentName].courseName = _courseName */\n      swap1\n      dup2\n      tag_66\n      swap2\n      swap1\n      tag_61\n      jump\t// in\n    tag_66:\n      pop\n        /* \"contracts/CollegeTracker.sol\":2076:2077  1 */\n      0x01\n        /* \"contracts/CollegeTracker.sol\":2037:2045  colleges */\n      0x00\n        /* \"contracts/CollegeTracker.sol\":2037:2062  colleges[_collegeAddress] */\n      dup1\n        /* \"contracts/CollegeTracker.sol\":2046:2061  _collegeAddress */\n      dup7\n        /* \"contracts/CollegeTracker.sol\":2037:2062  colleges[_collegeAddress] */\n      0xffffffffffffffffffffffffffffffffffffffff\n      and\n      0xffffffffffffffffffffffffffffffffffffffff\n      and\n      dup2\n      mstore\n      0x20\n      add\n      swap1\n      dup2\n      mstore\n      0x20\n      add\n      0x00\n      keccak256\n        /* \"contracts/CollegeTracker.sol\":2037:2075  colleges[_collegeAddress].noOfStudents */\n      0x04\n      add\n      0x01\n      swap1\n      sload\n      swap1\n      0x0100\n      exp\n      swap1\n      div\n      0xff\n      and\n        /* \"contracts/CollegeTracker.sol\":2037:2077  colleges[_collegeAddress].noOfStudents+1 */\n      tag_67\n      swap2\n      swap1\n      tag_68\n      jump\t// in\n    tag_67:\n        /* \"contracts/CollegeTracker.sol\":1996:2004  colleges */\n      0x00\n        /* \"contracts/CollegeTracker.sol\":1996:2021  colleges[_collegeAddress] */\n      dup1\n        /* \"contracts/CollegeTracker.sol\":2005:2020  _collegeAddress */\n      dup7\n        /* \"contracts/CollegeTracker.sol\":1996:2021  colleges[_collegeAddress] */\n      0xffffffffffffffffffffffffffffffffffffffff\n      and\n      0xffffffffffffffffffffffffffffffffffffffff\n      and\n      dup2\n      mstore\n      0x20\n      add\n      swap1\n      dup2\n      mstore\n      0x20\n      add\n      0x00\n      keccak256\n        /* \"contracts/CollegeTracker.sol\":1996:2034  colleges[_collegeAddress].noOfStudents */\n      0x04\n      add\n      0x01\n        /* \"contracts/CollegeTracker.sol\":1996:2077  colleges[_collegeAddress].noOfStudents = colleges[_collegeAddress].noOfStudents+1 */\n      0x0100\n      exp\n      dup2\n      sload\n      dup2\n      0xff\n      mul\n      not\n      and\n      swap1\n      dup4\n      0xff\n      and\n      mul\n      or\n      swap1\n      sstore\n      pop\n        /* \"contracts/CollegeTracker.sol\":1497:2084  function addNewStudent(address _collegeAddress, string memory _studentName, string memory _phoneNo, string memory _courseName) public{... */\n      pop\n      pop\n      pop\n      pop\n      jump\t// out\n        /* \"contracts/CollegeTracker.sol\":2437:2722  function getStudentDetails(string memory _studentName) public view returns(string memory, string memory, string memory){... */\n    tag_27:\n        /* \"contracts/CollegeTracker.sol\":2512:2525  string memory */\n      0x60\n        /* \"contracts/CollegeTracker.sol\":2527:2540  string memory */\n      dup1\n        /* \"contracts/CollegeTracker.sol\":2542:2555  string memory */\n      0x60\n        /* \"contracts/CollegeTracker.sol\":2587:2595  students */\n      0x01\n        /* \"contracts/CollegeTracker.sol\":2596:2608  _studentName */\n      dup5\n        /* \"contracts/CollegeTracker.sol\":2587:2609  students[_studentName] */\n      mload(0x40)\n      tag_70\n      swap2\n      swap1\n      tag_59\n      jump\t// in\n    tag_70:\n      swap1\n      dup2\n      mstore\n      0x20\n      add\n      mload(0x40)\n      dup1\n      swap2\n      sub\n      swap1\n      keccak256\n        /* \"contracts/CollegeTracker.sol\":2587:2614  students[_studentName].name */\n      0x01\n      add\n        /* \"contracts/CollegeTracker.sol\":2628:2636  students */\n      0x01\n        /* \"contracts/CollegeTracker.sol\":2637:2649  _studentName */\n      dup6\n        /* \"contracts/CollegeTracker.sol\":2628:2650  students[_studentName] */\n      mload(0x40)\n      tag_71\n      swap2\n      swap1\n      tag_59\n      jump\t// in\n    tag_71:\n      swap1\n      dup2\n      mstore\n      0x20\n      add\n      mload(0x40)\n      dup1\n      swap2\n      sub\n      swap1\n      keccak256\n        /* \"contracts/CollegeTracker.sol\":2628:2661  students[_studentName].courseName */\n      0x03\n      add\n        /* \"contracts/CollegeTracker.sol\":2675:2683  students */\n      0x01\n        /* \"contracts/CollegeTracker.sol\":2684:2696  _studentName */\n      dup7\n        /* \"contracts/CollegeTracker.sol\":2675:2697  students[_studentName] */\n      mload(0x40)\n      tag_72\n      swap2\n      swap1\n      tag_59\n      jump\t// in\n    tag_72:\n      swap1\n      dup2\n      mstore\n      0x20\n      add\n      mload(0x40)\n      dup1\n      swap2\n      sub\n      swap1\n      keccak256\n        /* \"contracts/CollegeTracker.sol\":2675:2705  students[_studentName].phoneNo */\n      0x02\n      add\n        /* \"contracts/CollegeTracker.sol\":2566:2715  return (... */\n      dup3\n      dup1\n      sload\n      tag_73\n      swap1\n      tag_44\n      jump\t// in\n    tag_73:\n      dup1\n      0x1f\n      add\n      0x20\n      dup1\n      swap2\n      div\n      mul\n      0x20\n      add\n      mload(0x40)\n      swap1\n      dup2\n      add\n      0x40\n      mstore\n      dup1\n      swap3\n      swap2\n      swap1\n      dup2\n      dup2\n      mstore\n      0x20\n      add\n      dup3\n      dup1\n      sload\n      tag_74\n      swap1\n      tag_44\n      jump\t// in\n    tag_74:\n      dup1\n      iszero\n      tag_75\n      jumpi\n      dup1\n      0x1f\n      lt\n      tag_76\n      jumpi\n      0x0100\n      dup1\n      dup4\n      sload\n      div\n      mul\n      dup4\n      mstore\n      swap2\n      0x20\n      add\n      swap2\n      jump(tag_75)\n    tag_76:\n      dup3\n      add\n      swap2\n      swap1\n      0x00\n      mstore\n      keccak256(0x00, 0x20)\n      swap1\n    tag_77:\n      dup2\n      sload\n      dup2\n      mstore\n      swap1\n      0x01\n      add\n      swap1\n      0x20\n      add\n      dup1\n      dup4\n      gt\n      tag_77\n      jumpi\n      dup3\n      swap1\n      sub\n      0x1f\n      and\n      dup3\n      add\n      swap2\n    tag_75:\n      pop\n      pop\n      pop\n      pop\n      pop\n      swap3\n      pop\n      dup2\n      dup1\n      sload\n      tag_78\n      swap1\n      tag_44\n      jump\t// in\n    tag_78:\n      dup1\n      0x1f\n      add\n      0x20\n      dup1\n      swap2\n      div\n      mul\n      0x20\n      add\n      mload(0x40)\n      swap1\n      dup2\n      add\n      0x40\n      mstore\n      dup1\n      swap3\n      swap2\n      swap1\n      dup2\n      dup2\n      mstore\n      0x20\n      add\n      dup3\n      dup1\n      sload\n      tag_79\n      swap1\n      tag_44\n      jump\t// in\n    tag_79:\n      dup1\n      iszero\n      tag_80\n      jumpi\n      dup1\n      0x1f\n      lt\n      tag_81\n      jumpi\n      0x0100\n      dup1\n      dup4\n      sload\n      div\n      mul\n      dup4\n      mstore\n      swap2\n      0x20\n      add\n      swap2\n      jump(tag_80)\n    tag_81:\n      dup3\n      add\n      swap2\n      swap1\n      0x00\n      mstore\n      keccak256(0x00, 0x20)\n      swap1\n    tag_82:\n      dup2\n      sload\n      dup2\n      mstore\n      swap1\n      0x01\n      add\n      swap1\n      0x20\n      add\n      dup1\n      dup4\n      gt\n      tag_82\n      jumpi\n      dup3\n      swap1\n      sub\n      0x1f\n      and\n      dup3\n      add\n      swap2\n    tag_80:\n      pop\n      pop\n      pop\n      pop\n      pop\n      swap2\n      pop\n      dup1\n      dup1\n      sload\n      tag_83\n      swap1\n      tag_44\n      jump\t// in\n    tag_83:\n      dup1\n      0x1f\n      add\n      0x20\n      dup1\n      swap2\n      div\n      mul\n      0x20\n      add\n      mload(0x40)\n      swap1\n      dup2\n      add\n      0x40\n      mstore\n      dup1\n      swap3\n      swap2\n      swap1\n      dup2\n      dup2\n      mstore\n      0x20\n      add\n      dup3\n      dup1\n      sload\n      tag_84\n      swap1\n      tag_44\n      jump\t// in\n    tag_84:\n      dup1\n      iszero\n      tag_85\n      jumpi\n      dup1\n      0x1f\n      lt\n      tag_86\n      jumpi\n      0x0100\n      dup1\n      dup4\n      sload\n      div\n      mul\n      dup4\n      mstore\n      swap2\n      0x20\n      add\n      swap2\n      jump(tag_85)\n    tag_86:\n      dup3\n      add\n      swap2\n      swap1\n      0x00\n      mstore\n      keccak256(0x00, 0x20)\n      swap1\n    tag_87:\n      dup2\n      sload\n      dup2\n      mstore\n      swap1\n      0x01\n      add\n      swap1\n      0x20\n      add\n      dup1\n      dup4\n      gt\n      tag_87\n      jumpi\n      dup3\n      swap1\n      sub\n      0x1f\n      and\n      dup3\n      add\n      swap2\n    tag_85:\n      pop\n      pop\n      pop\n      pop\n      pop\n      swap1\n      pop\n      swap3\n      pop\n      swap3\n      pop\n      swap3\n      pop\n        /* \"contracts/CollegeTracker.sol\":2437:2722  function getStudentDetails(string memory _studentName) public view returns(string memory, string memory, string memory){... */\n      swap2\n      swap4\n      swap1\n      swap3\n      pop\n      jump\t// out\n        /* \"contracts/CollegeTracker.sol\":1352:1491  function allowCollegeAddingNewStudents(address _collegeAddress) public{... */\n    tag_32:\n        /* \"contracts/CollegeTracker.sol\":1480:1484  true */\n      0x01\n        /* \"contracts/CollegeTracker.sol\":1432:1440  colleges */\n      0x00\n        /* \"contracts/CollegeTracker.sol\":1432:1457  colleges[_collegeAddress] */\n      dup1\n        /* \"contracts/CollegeTracker.sol\":1441:1456  _collegeAddress */\n      dup4\n        /* \"contracts/CollegeTracker.sol\":1432:1457  colleges[_collegeAddress] */\n      0xffffffffffffffffffffffffffffffffffffffff\n      and\n      0xffffffffffffffffffffffffffffffffffffffff\n      and\n      dup2\n      mstore\n      0x20\n      add\n      swap1\n      dup2\n      mstore\n      0x20\n      add\n      0x00\n      keccak256\n        /* \"contracts/CollegeTracker.sol\":1432:1477  colleges[_collegeAddress].addStudentPrivilege */\n      0x04\n      add\n      0x00\n        /* \"contracts/CollegeTracker.sol\":1432:1484  colleges[_collegeAddress].addStudentPrivilege = true */\n      0x0100\n      exp\n      dup2\n      sload\n      dup2\n      0xff\n      mul\n      not\n      and\n      swap1\n      dup4\n      iszero\n      iszero\n      mul\n      or\n      swap1\n      sstore\n      pop\n        /* \"contracts/CollegeTracker.sol\":1352:1491  function allowCollegeAddingNewStudents(address _collegeAddress) public{... */\n      pop\n      jump\t// out\n        /* \"contracts/CollegeTracker.sol\":496:841  function addNewCollege(string memory _collegeName, string memory _regNo, address _collegeAddress) public{... */\n    tag_36:\n        /* \"contracts/CollegeTracker.sol\":643:655  _collegeName */\n      dup3\n        /* \"contracts/CollegeTracker.sol\":610:618  colleges */\n      0x00\n        /* \"contracts/CollegeTracker.sol\":610:635  colleges[_collegeAddress] */\n      dup1\n        /* \"contracts/CollegeTracker.sol\":619:634  _collegeAddress */\n      dup4\n        /* \"contracts/CollegeTracker.sol\":610:635  colleges[_collegeAddress] */\n      0xffffffffffffffffffffffffffffffffffffffff\n      and\n      0xffffffffffffffffffffffffffffffffffffffff\n      and\n      dup2\n      mstore\n      0x20\n      add\n      swap1\n      dup2\n      mstore\n      0x20\n      add\n      0x00\n      keccak256\n        /* \"contracts/CollegeTracker.sol\":610:640  colleges[_collegeAddress].name */\n      0x00\n      add\n        /* \"contracts/CollegeTracker.sol\":610:655  colleges[_collegeAddress].name = _collegeName */\n      swap1\n      dup2\n      tag_90\n      swap2\n      swap1\n      tag_61\n      jump\t// in\n    tag_90:\n      pop\n        /* \"contracts/CollegeTracker.sol\":708:723  _collegeAddress */\n      dup1\n        /* \"contracts/CollegeTracker.sol\":665:673  colleges */\n      0x00\n        /* \"contracts/CollegeTracker.sol\":665:690  colleges[_collegeAddress] */\n      dup1\n        /* \"contracts/CollegeTracker.sol\":674:689  _collegeAddress */\n      dup4\n        /* \"contracts/CollegeTracker.sol\":665:690  colleges[_collegeAddress] */\n      0xffffffffffffffffffffffffffffffffffffffff\n      and\n      0xffffffffffffffffffffffffffffffffffffffff\n      and\n      dup2\n      mstore\n      0x20\n      add\n      swap1\n      dup2\n      mstore\n      0x20\n      add\n      0x00\n      keccak256\n        /* \"contracts/CollegeTracker.sol\":665:705  colleges[_collegeAddress].collegeAddress */\n      0x01\n      add\n      0x00\n        /* \"contracts/CollegeTracker.sol\":665:723  colleges[_collegeAddress].collegeAddress = _collegeAddress */\n      0x0100\n      exp\n      dup2\n      sload\n      dup2\n      0xffffffffffffffffffffffffffffffffffffffff\n      mul\n      not\n      and\n      swap1\n      dup4\n      0xffffffffffffffffffffffffffffffffffffffff\n      and\n      mul\n      or\n      swap1\n      sstore\n      pop\n        /* \"contracts/CollegeTracker.sol\":767:773  _regNo */\n      dup2\n        /* \"contracts/CollegeTracker.sol\":733:741  colleges */\n      0x00\n        /* \"contracts/CollegeTracker.sol\":733:758  colleges[_collegeAddress] */\n      dup1\n        /* \"contracts/CollegeTracker.sol\":742:757  _collegeAddress */\n      dup4\n        /* \"contracts/CollegeTracker.sol\":733:758  colleges[_collegeAddress] */\n      0xffffffffffffffffffffffffffffffffffffffff\n      and\n      0xffffffffffffffffffffffffffffffffffffffff\n      and\n      dup2\n      mstore\n      0x20\n      add\n      swap1\n      dup2\n      mstore\n      0x20\n      add\n      0x00\n      keccak256\n        /* \"contracts/CollegeTracker.sol\":733:764  colleges[_collegeAddress].regNo */\n      0x03\n      add\n        /* \"contracts/CollegeTracker.sol\":733:773  colleges[_collegeAddress].regNo = _regNo */\n      swap1\n      dup2\n      tag_91\n      swap2\n      swap1\n      tag_61\n      jump\t// in\n    tag_91:\n      pop\n        /* \"contracts/CollegeTracker.sol\":824:834  msg.sender */\n      caller\n        /* \"contracts/CollegeTracker.sol\":783:791  colleges */\n      0x00\n        /* \"contracts/CollegeTracker.sol\":783:808  colleges[_collegeAddress] */\n      dup1\n        /* \"contracts/CollegeTracker.sol\":792:807  _collegeAddress */\n      dup4\n        /* \"contracts/CollegeTracker.sol\":783:808  colleges[_collegeAddress] */\n      0xffffffffffffffffffffffffffffffffffffffff\n      and\n      0xffffffffffffffffffffffffffffffffffffffff\n      and\n      dup2\n      mstore\n      0x20\n      add\n      swap1\n      dup2\n      mstore\n      0x20\n      add\n      0x00\n      keccak256\n        /* \"contracts/CollegeTracker.sol\":783:821  colleges[_collegeAddress].collegeAdmin */\n      0x02\n      add\n      0x00\n        /* \"contracts/CollegeTracker.sol\":783:834  colleges[_collegeAddress].collegeAdmin = msg.sender */\n      0x0100\n      exp\n      dup2\n      sload\n      dup2\n      0xffffffffffffffffffffffffffffffffffffffff\n      mul\n      not\n      and\n      swap1\n      dup4\n      0xffffffffffffffffffffffffffffffffffffffff\n      and\n      mul\n      or\n      swap1\n      sstore\n      pop\n        /* \"contracts/CollegeTracker.sol\":496:841  function addNewCollege(string memory _collegeName, string memory _regNo, address _collegeAddress) public{... */\n      pop\n      pop\n      pop\n      jump\t// out\n        /* \"contracts/CollegeTracker.sol\":2090:2431  function changeStudentCourse(address _collegeAddress, string memory _studentName, string memory _newCourseName) public{... */\n    tag_40:\n        /* \"contracts/CollegeTracker.sol\":2258:2273  _collegeAddress */\n      dup3\n        /* \"contracts/CollegeTracker.sol\":2218:2226  students */\n      0x01\n        /* \"contracts/CollegeTracker.sol\":2227:2239  _studentName */\n      dup4\n        /* \"contracts/CollegeTracker.sol\":2218:2240  students[_studentName] */\n      mload(0x40)\n      tag_93\n      swap2\n      swap1\n      tag_59\n      jump\t// in\n    tag_93:\n      swap1\n      dup2\n      mstore\n      0x20\n      add\n      mload(0x40)\n      dup1\n      swap2\n      sub\n      swap1\n      keccak256\n        /* \"contracts/CollegeTracker.sol\":2218:2255  students[_studentName].collegeAddress */\n      0x00\n      add\n      0x00\n        /* \"contracts/CollegeTracker.sol\":2218:2273  students[_studentName].collegeAddress = _collegeAddress */\n      0x0100\n      exp\n      dup2\n      sload\n      dup2\n      0xffffffffffffffffffffffffffffffffffffffff\n      mul\n      not\n      and\n      swap1\n      dup4\n      0xffffffffffffffffffffffffffffffffffffffff\n      and\n      mul\n      or\n      swap1\n      sstore\n      pop\n        /* \"contracts/CollegeTracker.sol\":2319:2333  _newCourseName */\n      dup1\n        /* \"contracts/CollegeTracker.sol\":2283:2291  students */\n      0x01\n        /* \"contracts/CollegeTracker.sol\":2292:2304  _studentName */\n      dup4\n        /* \"contracts/CollegeTracker.sol\":2283:2305  students[_studentName] */\n      mload(0x40)\n      tag_94\n      swap2\n      swap1\n      tag_59\n      jump\t// in\n    tag_94:\n      swap1\n      dup2\n      mstore\n      0x20\n      add\n      mload(0x40)\n      dup1\n      swap2\n      sub\n      swap1\n      keccak256\n        /* \"contracts/CollegeTracker.sol\":2283:2316  students[_studentName].courseName */\n      0x03\n      add\n        /* \"contracts/CollegeTracker.sol\":2283:2333  students[_studentName].courseName = _newCourseName */\n      swap1\n      dup2\n      tag_95\n      swap2\n      swap1\n      tag_61\n      jump\t// in\n    tag_95:\n      pop\n        /* \"contracts/CollegeTracker.sol\":2423:2424  1 */\n      0x01\n        /* \"contracts/CollegeTracker.sol\":2384:2392  colleges */\n      0x00\n        /* \"contracts/CollegeTracker.sol\":2384:2409  colleges[_collegeAddress] */\n      dup1\n        /* \"contracts/CollegeTracker.sol\":2393:2408  _collegeAddress */\n      dup6\n        /* \"contracts/CollegeTracker.sol\":2384:2409  colleges[_collegeAddress] */\n      0xffffffffffffffffffffffffffffffffffffffff\n      and\n      0xffffffffffffffffffffffffffffffffffffffff\n      and\n      dup2\n      mstore\n      0x20\n      add\n      swap1\n      dup2\n      mstore\n      0x20\n      add\n      0x00\n      keccak256\n        /* \"contracts/CollegeTracker.sol\":2384:2422  colleges[_collegeAddress].noOfStudents */\n      0x04\n      add\n      0x01\n      swap1\n      sload\n      swap1\n      0x0100\n      exp\n      swap1\n      div\n      0xff\n      and\n        /* \"contracts/CollegeTracker.sol\":2384:2424  colleges[_collegeAddress].noOfStudents+1 */\n      tag_96\n      swap2\n      swap1\n      tag_68\n      jump\t// in\n    tag_96:\n        /* \"contracts/CollegeTracker.sol\":2343:2351  colleges */\n      0x00\n        /* \"contracts/CollegeTracker.sol\":2343:2368  colleges[_collegeAddress] */\n      dup1\n        /* \"contracts/CollegeTracker.sol\":2352:2367  _collegeAddress */\n      dup6\n        /* \"contracts/CollegeTracker.sol\":2343:2368  colleges[_collegeAddress] */\n      0xffffffffffffffffffffffffffffffffffffffff\n      and\n      0xffffffffffffffffffffffffffffffffffffffff\n      and\n      dup2\n      mstore\n      0x20\n      add\n      swap1\n      dup2\n      mstore\n      0x20\n      add\n      0x00\n      keccak256\n        /* \"contracts/CollegeTracker.sol\":2343:2381  colleges[_collegeAddress].noOfStudents */\n      0x04\n      add\n      0x01\n        /* \"contracts/CollegeTracker.sol\":2343:2424  colleges[_collegeAddress].noOfStudents = colleges[_collegeAddress].noOfStudents+1 */\n      0x0100\n      exp\n      dup2\n      sload\n      dup2\n      0xff\n      mul\n      not\n      and\n      swap1\n      dup4\n      0xff\n      and\n      mul\n      or\n      swap1\n      sstore\n      pop\n        /* \"contracts/CollegeTracker.sol\":2090:2431  function changeStudentCourse(address _collegeAddress, string memory _studentName, string memory _newCourseName) public{... */\n      pop\n      pop\n      pop\n      jump\t// out\n        /* \"#utility.yul\":7:82   */\n    tag_97:\n        /* \"#utility.yul\":40:46   */\n      0x00\n        /* \"#utility.yul\":73:75   */\n      0x40\n        /* \"#utility.yul\":67:76   */\n      mload\n        /* \"#utility.yul\":57:76   */\n      swap1\n      pop\n        /* \"#utility.yul\":7:82   */\n      swap1\n      jump\t// out\n        /* \"#utility.yul\":88:205   */\n    tag_98:\n        /* \"#utility.yul\":197:198   */\n      0x00\n        /* \"#utility.yul\":194:195   */\n      dup1\n        /* \"#utility.yul\":187:199   */\n      revert\n        /* \"#utility.yul\":211:328   */\n    tag_99:\n        /* \"#utility.yul\":320:321   */\n      0x00\n        /* \"#utility.yul\":317:318   */\n      dup1\n        /* \"#utility.yul\":310:322   */\n      revert\n        /* \"#utility.yul\":334:460   */\n    tag_100:\n        /* \"#utility.yul\":371:378   */\n      0x00\n        /* \"#utility.yul\":411:453   */\n      0xffffffffffffffffffffffffffffffffffffffff\n        /* \"#utility.yul\":404:409   */\n      dup3\n        /* \"#utility.yul\":400:454   */\n      and\n        /* \"#utility.yul\":389:454   */\n      swap1\n      pop\n        /* \"#utility.yul\":334:460   */\n      swap2\n      swap1\n      pop\n      jump\t// out\n        /* \"#utility.yul\":466:562   */\n    tag_101:\n        /* \"#utility.yul\":503:510   */\n      0x00\n        /* \"#utility.yul\":532:556   */\n      tag_150\n        /* \"#utility.yul\":550:555   */\n      dup3\n        /* \"#utility.yul\":532:556   */\n      tag_100\n      jump\t// in\n    tag_150:\n        /* \"#utility.yul\":521:556   */\n      swap1\n      pop\n        /* \"#utility.yul\":466:562   */\n      swap2\n      swap1\n      pop\n      jump\t// out\n        /* \"#utility.yul\":568:690   */\n    tag_102:\n        /* \"#utility.yul\":641:665   */\n      tag_152\n        /* \"#utility.yul\":659:664   */\n      dup2\n        /* \"#utility.yul\":641:665   */\n      tag_101\n      jump\t// in\n    tag_152:\n        /* \"#utility.yul\":634:639   */\n      dup2\n        /* \"#utility.yul\":631:666   */\n      eq\n        /* \"#utility.yul\":621:684   */\n      tag_153\n      jumpi\n        /* \"#utility.yul\":680:681   */\n      0x00\n        /* \"#utility.yul\":677:678   */\n      dup1\n        /* \"#utility.yul\":670:682   */\n      revert\n        /* \"#utility.yul\":621:684   */\n    tag_153:\n        /* \"#utility.yul\":568:690   */\n      pop\n      jump\t// out\n        /* \"#utility.yul\":696:835   */\n    tag_103:\n        /* \"#utility.yul\":742:747   */\n      0x00\n        /* \"#utility.yul\":780:786   */\n      dup2\n        /* \"#utility.yul\":767:787   */\n      calldataload\n        /* \"#utility.yul\":758:787   */\n      swap1\n      pop\n        /* \"#utility.yul\":796:829   */\n      tag_155\n        /* \"#utility.yul\":823:828   */\n      dup2\n        /* \"#utility.yul\":796:829   */\n      tag_102\n      jump\t// in\n    tag_155:\n        /* \"#utility.yul\":696:835   */\n      swap3\n      swap2\n      pop\n      pop\n      jump\t// out\n        /* \"#utility.yul\":841:1170   */\n    tag_13:\n        /* \"#utility.yul\":900:906   */\n      0x00\n        /* \"#utility.yul\":949:951   */\n      0x20\n        /* \"#utility.yul\":937:946   */\n      dup3\n        /* \"#utility.yul\":928:935   */\n      dup5\n        /* \"#utility.yul\":924:947   */\n      sub\n        /* \"#utility.yul\":920:952   */\n      slt\n        /* \"#utility.yul\":917:1036   */\n      iszero\n      tag_157\n      jumpi\n        /* \"#utility.yul\":955:1034   */\n      tag_158\n      tag_98\n      jump\t// in\n    tag_158:\n        /* \"#utility.yul\":917:1036   */\n    tag_157:\n        /* \"#utility.yul\":1075:1076   */\n      0x00\n        /* \"#utility.yul\":1100:1153   */\n      tag_159\n        /* \"#utility.yul\":1145:1152   */\n      dup5\n        /* \"#utility.yul\":1136:1142   */\n      dup3\n        /* \"#utility.yul\":1125:1134   */\n      dup6\n        /* \"#utility.yul\":1121:1143   */\n      add\n        /* \"#utility.yul\":1100:1153   */\n      tag_103\n      jump\t// in\n    tag_159:\n        /* \"#utility.yul\":1090:1153   */\n      swap2\n      pop\n        /* \"#utility.yul\":1046:1163   */\n      pop\n        /* \"#utility.yul\":841:1170   */\n      swap3\n      swap2\n      pop\n      pop\n      jump\t// out\n        /* \"#utility.yul\":1176:1275   */\n    tag_104:\n        /* \"#utility.yul\":1228:1234   */\n      0x00\n        /* \"#utility.yul\":1262:1267   */\n      dup2\n        /* \"#utility.yul\":1256:1268   */\n      mload\n        /* \"#utility.yul\":1246:1268   */\n      swap1\n      pop\n        /* \"#utility.yul\":1176:1275   */\n      swap2\n      swap1\n      pop\n      jump\t// out\n        /* \"#utility.yul\":1281:1450   */\n    tag_105:\n        /* \"#utility.yul\":1365:1376   */\n      0x00\n        /* \"#utility.yul\":1399:1405   */\n      dup3\n        /* \"#utility.yul\":1394:1397   */\n      dup3\n        /* \"#utility.yul\":1387:1406   */\n      mstore\n        /* \"#utility.yul\":1439:1443   */\n      0x20\n        /* \"#utility.yul\":1434:1437   */\n      dup3\n        /* \"#utility.yul\":1430:1444   */\n      add\n        /* \"#utility.yul\":1415:1444   */\n      swap1\n      pop\n        /* \"#utility.yul\":1281:1450   */\n      swap3\n      swap2\n      pop\n      pop\n      jump\t// out\n        /* \"#utility.yul\":1456:1702   */\n    tag_106:\n        /* \"#utility.yul\":1537:1538   */\n      0x00\n        /* \"#utility.yul\":1547:1660   */\n    tag_163:\n        /* \"#utility.yul\":1561:1567   */\n      dup4\n        /* \"#utility.yul\":1558:1559   */\n      dup2\n        /* \"#utility.yul\":1555:1568   */\n      lt\n        /* \"#utility.yul\":1547:1660   */\n      iszero\n      tag_165\n      jumpi\n        /* \"#utility.yul\":1646:1647   */\n      dup1\n        /* \"#utility.yul\":1641:1644   */\n      dup3\n        /* \"#utility.yul\":1637:1648   */\n      add\n        /* \"#utility.yul\":1631:1649   */\n      mload\n        /* \"#utility.yul\":1627:1628   */\n      dup2\n        /* \"#utility.yul\":1622:1625   */\n      dup5\n        /* \"#utility.yul\":1618:1629   */\n      add\n        /* \"#utility.yul\":1611:1650   */\n      mstore\n        /* \"#utility.yul\":1583:1585   */\n      0x20\n        /* \"#utility.yul\":1580:1581   */\n      dup2\n        /* \"#utility.yul\":1576:1586   */\n      add\n        /* \"#utility.yul\":1571:1586   */\n      swap1\n      pop\n        /* \"#utility.yul\":1547:1660   */\n      jump(tag_163)\n    tag_165:\n        /* \"#utility.yul\":1694:1695   */\n      0x00\n        /* \"#utility.yul\":1685:1691   */\n      dup5\n        /* \"#utility.yul\":1680:1683   */\n      dup5\n        /* \"#utility.yul\":1676:1692   */\n      add\n        /* \"#utility.yul\":1669:1696   */\n      mstore\n        /* \"#utility.yul\":1518:1702   */\n      pop\n        /* \"#utility.yul\":1456:1702   */\n      pop\n      pop\n      pop\n      jump\t// out\n        /* \"#utility.yul\":1708:1810   */\n    tag_107:\n        /* \"#utility.yul\":1749:1755   */\n      0x00\n        /* \"#utility.yul\":1800:1802   */\n      0x1f\n        /* \"#utility.yul\":1796:1803   */\n      not\n        /* \"#utility.yul\":1791:1793   */\n      0x1f\n        /* \"#utility.yul\":1784:1789   */\n      dup4\n        /* \"#utility.yul\":1780:1794   */\n      add\n        /* \"#utility.yul\":1776:1804   */\n      and\n        /* \"#utility.yul\":1766:1804   */\n      swap1\n      pop\n        /* \"#utility.yul\":1708:1810   */\n      swap2\n      swap1\n      pop\n      jump\t// out\n        /* \"#utility.yul\":1816:2193   */\n    tag_108:\n        /* \"#utility.yul\":1904:1907   */\n      0x00\n        /* \"#utility.yul\":1932:1971   */\n      tag_168\n        /* \"#utility.yul\":1965:1970   */\n      dup3\n        /* \"#utility.yul\":1932:1971   */\n      tag_104\n      jump\t// in\n    tag_168:\n        /* \"#utility.yul\":1987:2058   */\n      tag_169\n        /* \"#utility.yul\":2051:2057   */\n      dup2\n        /* \"#utility.yul\":2046:2049   */\n      dup6\n        /* \"#utility.yul\":1987:2058   */\n      tag_105\n      jump\t// in\n    tag_169:\n        /* \"#utility.yul\":1980:2058   */\n      swap4\n      pop\n        /* \"#utility.yul\":2067:2132   */\n      tag_170\n        /* \"#utility.yul\":2125:2131   */\n      dup2\n        /* \"#utility.yul\":2120:2123   */\n      dup6\n        /* \"#utility.yul\":2113:2117   */\n      0x20\n        /* \"#utility.yul\":2106:2111   */\n      dup7\n        /* \"#utility.yul\":2102:2118   */\n      add\n        /* \"#utility.yul\":2067:2132   */\n      tag_106\n      jump\t// in\n    tag_170:\n        /* \"#utility.yul\":2157:2186   */\n      tag_171\n        /* \"#utility.yul\":2179:2185   */\n      dup2\n        /* \"#utility.yul\":2157:2186   */\n      tag_107\n      jump\t// in\n    tag_171:\n        /* \"#utility.yul\":2152:2155   */\n      dup5\n        /* \"#utility.yul\":2148:2187   */\n      add\n        /* \"#utility.yul\":2141:2187   */\n      swap2\n      pop\n        /* \"#utility.yul\":1908:2193   */\n      pop\n        /* \"#utility.yul\":1816:2193   */\n      swap3\n      swap2\n      pop\n      pop\n      jump\t// out\n        /* \"#utility.yul\":2199:2289   */\n    tag_109:\n        /* \"#utility.yul\":2233:2240   */\n      0x00\n        /* \"#utility.yul\":2276:2281   */\n      dup2\n        /* \"#utility.yul\":2269:2282   */\n      iszero\n        /* \"#utility.yul\":2262:2283   */\n      iszero\n        /* \"#utility.yul\":2251:2283   */\n      swap1\n      pop\n        /* \"#utility.yul\":2199:2289   */\n      swap2\n      swap1\n      pop\n      jump\t// out\n        /* \"#utility.yul\":2295:2404   */\n    tag_110:\n        /* \"#utility.yul\":2376:2397   */\n      tag_174\n        /* \"#utility.yul\":2391:2396   */\n      dup2\n        /* \"#utility.yul\":2376:2397   */\n      tag_109\n      jump\t// in\n    tag_174:\n        /* \"#utility.yul\":2371:2374   */\n      dup3\n        /* \"#utility.yul\":2364:2398   */\n      mstore\n        /* \"#utility.yul\":2295:2404   */\n      pop\n      pop\n      jump\t// out\n        /* \"#utility.yul\":2410:2496   */\n    tag_111:\n        /* \"#utility.yul\":2445:2452   */\n      0x00\n        /* \"#utility.yul\":2485:2489   */\n      0xff\n        /* \"#utility.yul\":2478:2483   */\n      dup3\n        /* \"#utility.yul\":2474:2490   */\n      and\n        /* \"#utility.yul\":2463:2490   */\n      swap1\n      pop\n        /* \"#utility.yul\":2410:2496   */\n      swap2\n      swap1\n      pop\n      jump\t// out\n        /* \"#utility.yul\":2502:2614   */\n    tag_112:\n        /* \"#utility.yul\":2585:2607   */\n      tag_177\n        /* \"#utility.yul\":2601:2606   */\n      dup2\n        /* \"#utility.yul\":2585:2607   */\n      tag_111\n      jump\t// in\n    tag_177:\n        /* \"#utility.yul\":2580:2583   */\n      dup3\n        /* \"#utility.yul\":2573:2608   */\n      mstore\n        /* \"#utility.yul\":2502:2614   */\n      pop\n      pop\n      jump\t// out\n        /* \"#utility.yul\":2620:3335   */\n    tag_19:\n        /* \"#utility.yul\":2827:2831   */\n      0x00\n        /* \"#utility.yul\":2865:2868   */\n      0x80\n        /* \"#utility.yul\":2854:2863   */\n      dup3\n        /* \"#utility.yul\":2850:2869   */\n      add\n        /* \"#utility.yul\":2842:2869   */\n      swap1\n      pop\n        /* \"#utility.yul\":2915:2924   */\n      dup2\n        /* \"#utility.yul\":2909:2913   */\n      dup2\n        /* \"#utility.yul\":2905:2925   */\n      sub\n        /* \"#utility.yul\":2901:2902   */\n      0x00\n        /* \"#utility.yul\":2890:2899   */\n      dup4\n        /* \"#utility.yul\":2886:2903   */\n      add\n        /* \"#utility.yul\":2879:2926   */\n      mstore\n        /* \"#utility.yul\":2943:3021   */\n      tag_179\n        /* \"#utility.yul\":3016:3020   */\n      dup2\n        /* \"#utility.yul\":3007:3013   */\n      dup8\n        /* \"#utility.yul\":2943:3021   */\n      tag_108\n      jump\t// in\n    tag_179:\n        /* \"#utility.yul\":2935:3021   */\n      swap1\n      pop\n        /* \"#utility.yul\":3068:3077   */\n      dup2\n        /* \"#utility.yul\":3062:3066   */\n      dup2\n        /* \"#utility.yul\":3058:3078   */\n      sub\n        /* \"#utility.yul\":3053:3055   */\n      0x20\n        /* \"#utility.yul\":3042:3051   */\n      dup4\n        /* \"#utility.yul\":3038:3056   */\n      add\n        /* \"#utility.yul\":3031:3079   */\n      mstore\n        /* \"#utility.yul\":3096:3174   */\n      tag_180\n        /* \"#utility.yul\":3169:3173   */\n      dup2\n        /* \"#utility.yul\":3160:3166   */\n      dup7\n        /* \"#utility.yul\":3096:3174   */\n      tag_108\n      jump\t// in\n    tag_180:\n        /* \"#utility.yul\":3088:3174   */\n      swap1\n      pop\n        /* \"#utility.yul\":3184:3250   */\n      tag_181\n        /* \"#utility.yul\":3246:3248   */\n      0x40\n        /* \"#utility.yul\":3235:3244   */\n      dup4\n        /* \"#utility.yul\":3231:3249   */\n      add\n        /* \"#utility.yul\":3222:3228   */\n      dup6\n        /* \"#utility.yul\":3184:3250   */\n      tag_110\n      jump\t// in\n    tag_181:\n        /* \"#utility.yul\":3260:3328   */\n      tag_182\n        /* \"#utility.yul\":3324:3326   */\n      0x60\n        /* \"#utility.yul\":3313:3322   */\n      dup4\n        /* \"#utility.yul\":3309:3327   */\n      add\n        /* \"#utility.yul\":3300:3306   */\n      dup5\n        /* \"#utility.yul\":3260:3328   */\n      tag_112\n      jump\t// in\n    tag_182:\n        /* \"#utility.yul\":2620:3335   */\n      swap6\n      swap5\n      pop\n      pop\n      pop\n      pop\n      pop\n      jump\t// out\n        /* \"#utility.yul\":3341:3458   */\n    tag_113:\n        /* \"#utility.yul\":3450:3451   */\n      0x00\n        /* \"#utility.yul\":3447:3448   */\n      dup1\n        /* \"#utility.yul\":3440:3452   */\n      revert\n        /* \"#utility.yul\":3464:3581   */\n    tag_114:\n        /* \"#utility.yul\":3573:3574   */\n      0x00\n        /* \"#utility.yul\":3570:3571   */\n      dup1\n        /* \"#utility.yul\":3563:3575   */\n      revert\n        /* \"#utility.yul\":3587:3767   */\n    tag_115:\n        /* \"#utility.yul\":3635:3712   */\n      0x4e487b7100000000000000000000000000000000000000000000000000000000\n        /* \"#utility.yul\":3632:3633   */\n      0x00\n        /* \"#utility.yul\":3625:3713   */\n      mstore\n        /* \"#utility.yul\":3732:3736   */\n      0x41\n        /* \"#utility.yul\":3729:3730   */\n      0x04\n        /* \"#utility.yul\":3722:3737   */\n      mstore\n        /* \"#utility.yul\":3756:3760   */\n      0x24\n        /* \"#utility.yul\":3753:3754   */\n      0x00\n        /* \"#utility.yul\":3746:3761   */\n      revert\n        /* \"#utility.yul\":3773:4054   */\n    tag_116:\n        /* \"#utility.yul\":3856:3883   */\n      tag_187\n        /* \"#utility.yul\":3878:3882   */\n      dup3\n        /* \"#utility.yul\":3856:3883   */\n      tag_107\n      jump\t// in\n    tag_187:\n        /* \"#utility.yul\":3848:3854   */\n      dup2\n        /* \"#utility.yul\":3844:3884   */\n      add\n        /* \"#utility.yul\":3986:3992   */\n      dup2\n        /* \"#utility.yul\":3974:3984   */\n      dup2\n        /* \"#utility.yul\":3971:3993   */\n      lt\n        /* \"#utility.yul\":3950:3968   */\n      0xffffffffffffffff\n        /* \"#utility.yul\":3938:3948   */\n      dup3\n        /* \"#utility.yul\":3935:3969   */\n      gt\n        /* \"#utility.yul\":3932:3994   */\n      or\n        /* \"#utility.yul\":3929:4017   */\n      iszero\n      tag_188\n      jumpi\n        /* \"#utility.yul\":3997:4015   */\n      tag_189\n      tag_115\n      jump\t// in\n    tag_189:\n        /* \"#utility.yul\":3929:4017   */\n    tag_188:\n        /* \"#utility.yul\":4037:4047   */\n      dup1\n        /* \"#utility.yul\":4033:4035   */\n      0x40\n        /* \"#utility.yul\":4026:4048   */\n      mstore\n        /* \"#utility.yul\":3816:4054   */\n      pop\n        /* \"#utility.yul\":3773:4054   */\n      pop\n      pop\n      jump\t// out\n        /* \"#utility.yul\":4060:4189   */\n    tag_117:\n        /* \"#utility.yul\":4094:4100   */\n      0x00\n        /* \"#utility.yul\":4121:4141   */\n      tag_191\n      tag_97\n      jump\t// in\n    tag_191:\n        /* \"#utility.yul\":4111:4141   */\n      swap1\n      pop\n        /* \"#utility.yul\":4150:4183   */\n      tag_192\n        /* \"#utility.yul\":4178:4182   */\n      dup3\n        /* \"#utility.yul\":4170:4176   */\n      dup3\n        /* \"#utility.yul\":4150:4183   */\n      tag_116\n      jump\t// in\n    tag_192:\n        /* \"#utility.yul\":4060:4189   */\n      swap2\n      swap1\n      pop\n      jump\t// out\n        /* \"#utility.yul\":4195:4503   */\n    tag_118:\n        /* \"#utility.yul\":4257:4261   */\n      0x00\n        /* \"#utility.yul\":4347:4365   */\n      0xffffffffffffffff\n        /* \"#utility.yul\":4339:4345   */\n      dup3\n        /* \"#utility.yul\":4336:4366   */\n      gt\n        /* \"#utility.yul\":4333:4389   */\n      iszero\n      tag_194\n      jumpi\n        /* \"#utility.yul\":4369:4387   */\n      tag_195\n      tag_115\n      jump\t// in\n    tag_195:\n        /* \"#utility.yul\":4333:4389   */\n    tag_194:\n        /* \"#utility.yul\":4407:4436   */\n      tag_196\n        /* \"#utility.yul\":4429:4435   */\n      dup3\n        /* \"#utility.yul\":4407:4436   */\n      tag_107\n      jump\t// in\n    tag_196:\n        /* \"#utility.yul\":4399:4436   */\n      swap1\n      pop\n        /* \"#utility.yul\":4491:4495   */\n      0x20\n        /* \"#utility.yul\":4485:4489   */\n      dup2\n        /* \"#utility.yul\":4481:4496   */\n      add\n        /* \"#utility.yul\":4473:4496   */\n      swap1\n      pop\n        /* \"#utility.yul\":4195:4503   */\n      swap2\n      swap1\n      pop\n      jump\t// out\n        /* \"#utility.yul\":4509:4655   */\n    tag_119:\n        /* \"#utility.yul\":4606:4612   */\n      dup3\n        /* \"#utility.yul\":4601:4604   */\n      dup2\n        /* \"#utility.yul\":4596:4599   */\n      dup4\n        /* \"#utility.yul\":4583:4613   */\n      calldatacopy\n        /* \"#utility.yul\":4647:4648   */\n      0x00\n        /* \"#utility.yul\":4638:4644   */\n      dup4\n        /* \"#utility.yul\":4633:4636   */\n      dup4\n        /* \"#utility.yul\":4629:4645   */\n      add\n        /* \"#utility.yul\":4622:4649   */\n      mstore\n        /* \"#utility.yul\":4509:4655   */\n      pop\n      pop\n      pop\n      jump\t// out\n        /* \"#utility.yul\":4661:5086   */\n    tag_120:\n        /* \"#utility.yul\":4739:4744   */\n      0x00\n        /* \"#utility.yul\":4764:4830   */\n      tag_199\n        /* \"#utility.yul\":4780:4829   */\n      tag_200\n        /* \"#utility.yul\":4822:4828   */\n      dup5\n        /* \"#utility.yul\":4780:4829   */\n      tag_118\n      jump\t// in\n    tag_200:\n        /* \"#utility.yul\":4764:4830   */\n      tag_117\n      jump\t// in\n    tag_199:\n        /* \"#utility.yul\":4755:4830   */\n      swap1\n      pop\n        /* \"#utility.yul\":4853:4859   */\n      dup3\n        /* \"#utility.yul\":4846:4851   */\n      dup2\n        /* \"#utility.yul\":4839:4860   */\n      mstore\n        /* \"#utility.yul\":4891:4895   */\n      0x20\n        /* \"#utility.yul\":4884:4889   */\n      dup2\n        /* \"#utility.yul\":4880:4896   */\n      add\n        /* \"#utility.yul\":4929:4932   */\n      dup5\n        /* \"#utility.yul\":4920:4926   */\n      dup5\n        /* \"#utility.yul\":4915:4918   */\n      dup5\n        /* \"#utility.yul\":4911:4927   */\n      add\n        /* \"#utility.yul\":4908:4933   */\n      gt\n        /* \"#utility.yul\":4905:5017   */\n      iszero\n      tag_201\n      jumpi\n        /* \"#utility.yul\":4936:5015   */\n      tag_202\n      tag_114\n      jump\t// in\n    tag_202:\n        /* \"#utility.yul\":4905:5017   */\n    tag_201:\n        /* \"#utility.yul\":5026:5080   */\n      tag_203\n        /* \"#utility.yul\":5073:5079   */\n      dup5\n        /* \"#utility.yul\":5068:5071   */\n      dup3\n        /* \"#utility.yul\":5063:5066   */\n      dup6\n        /* \"#utility.yul\":5026:5080   */\n      tag_119\n      jump\t// in\n    tag_203:\n        /* \"#utility.yul\":4745:5086   */\n      pop\n        /* \"#utility.yul\":4661:5086   */\n      swap4\n      swap3\n      pop\n      pop\n      pop\n      jump\t// out\n        /* \"#utility.yul\":5106:5446   */\n    tag_121:\n        /* \"#utility.yul\":5162:5167   */\n      0x00\n        /* \"#utility.yul\":5211:5214   */\n      dup3\n        /* \"#utility.yul\":5204:5208   */\n      0x1f\n        /* \"#utility.yul\":5196:5202   */\n      dup4\n        /* \"#utility.yul\":5192:5209   */\n      add\n        /* \"#utility.yul\":5188:5215   */\n      slt\n        /* \"#utility.yul\":5178:5300   */\n      tag_205\n      jumpi\n        /* \"#utility.yul\":5219:5298   */\n      tag_206\n      tag_113\n      jump\t// in\n    tag_206:\n        /* \"#utility.yul\":5178:5300   */\n    tag_205:\n        /* \"#utility.yul\":5336:5342   */\n      dup2\n        /* \"#utility.yul\":5323:5343   */\n      calldataload\n        /* \"#utility.yul\":5361:5440   */\n      tag_207\n        /* \"#utility.yul\":5436:5439   */\n      dup5\n        /* \"#utility.yul\":5428:5434   */\n      dup3\n        /* \"#utility.yul\":5421:5425   */\n      0x20\n        /* \"#utility.yul\":5413:5419   */\n      dup7\n        /* \"#utility.yul\":5409:5426   */\n      add\n        /* \"#utility.yul\":5361:5440   */\n      tag_120\n      jump\t// in\n    tag_207:\n        /* \"#utility.yul\":5352:5440   */\n      swap2\n      pop\n        /* \"#utility.yul\":5168:5446   */\n      pop\n        /* \"#utility.yul\":5106:5446   */\n      swap3\n      swap2\n      pop\n      pop\n      jump\t// out\n        /* \"#utility.yul\":5452:6757   */\n    tag_22:\n        /* \"#utility.yul\":5568:5574   */\n      0x00\n        /* \"#utility.yul\":5576:5582   */\n      dup1\n        /* \"#utility.yul\":5584:5590   */\n      0x00\n        /* \"#utility.yul\":5592:5598   */\n      dup1\n        /* \"#utility.yul\":5641:5644   */\n      0x80\n        /* \"#utility.yul\":5629:5638   */\n      dup6\n        /* \"#utility.yul\":5620:5627   */\n      dup8\n        /* \"#utility.yul\":5616:5639   */\n      sub\n        /* \"#utility.yul\":5612:5645   */\n      slt\n        /* \"#utility.yul\":5609:5729   */\n      iszero\n      tag_209\n      jumpi\n        /* \"#utility.yul\":5648:5727   */\n      tag_210\n      tag_98\n      jump\t// in\n    tag_210:\n        /* \"#utility.yul\":5609:5729   */\n    tag_209:\n        /* \"#utility.yul\":5768:5769   */\n      0x00\n        /* \"#utility.yul\":5793:5846   */\n      tag_211\n        /* \"#utility.yul\":5838:5845   */\n      dup8\n        /* \"#utility.yul\":5829:5835   */\n      dup3\n        /* \"#utility.yul\":5818:5827   */\n      dup9\n        /* \"#utility.yul\":5814:5836   */\n      add\n        /* \"#utility.yul\":5793:5846   */\n      tag_103\n      jump\t// in\n    tag_211:\n        /* \"#utility.yul\":5783:5846   */\n      swap5\n      pop\n        /* \"#utility.yul\":5739:5856   */\n      pop\n        /* \"#utility.yul\":5923:5925   */\n      0x20\n        /* \"#utility.yul\":5912:5921   */\n      dup6\n        /* \"#utility.yul\":5908:5926   */\n      add\n        /* \"#utility.yul\":5895:5927   */\n      calldataload\n        /* \"#utility.yul\":5954:5972   */\n      0xffffffffffffffff\n        /* \"#utility.yul\":5946:5952   */\n      dup2\n        /* \"#utility.yul\":5943:5973   */\n      gt\n        /* \"#utility.yul\":5940:6057   */\n      iszero\n      tag_212\n      jumpi\n        /* \"#utility.yul\":5976:6055   */\n      tag_213\n      tag_99\n      jump\t// in\n    tag_213:\n        /* \"#utility.yul\":5940:6057   */\n    tag_212:\n        /* \"#utility.yul\":6081:6144   */\n      tag_214\n        /* \"#utility.yul\":6136:6143   */\n      dup8\n        /* \"#utility.yul\":6127:6133   */\n      dup3\n        /* \"#utility.yul\":6116:6125   */\n      dup9\n        /* \"#utility.yul\":6112:6134   */\n      add\n        /* \"#utility.yul\":6081:6144   */\n      tag_121\n      jump\t// in\n    tag_214:\n        /* \"#utility.yul\":6071:6144   */\n      swap4\n      pop\n        /* \"#utility.yul\":5866:6154   */\n      pop\n        /* \"#utility.yul\":6221:6223   */\n      0x40\n        /* \"#utility.yul\":6210:6219   */\n      dup6\n        /* \"#utility.yul\":6206:6224   */\n      add\n        /* \"#utility.yul\":6193:6225   */\n      calldataload\n        /* \"#utility.yul\":6252:6270   */\n      0xffffffffffffffff\n        /* \"#utility.yul\":6244:6250   */\n      dup2\n        /* \"#utility.yul\":6241:6271   */\n      gt\n        /* \"#utility.yul\":6238:6355   */\n      iszero\n      tag_215\n      jumpi\n        /* \"#utility.yul\":6274:6353   */\n      tag_216\n      tag_99\n      jump\t// in\n    tag_216:\n        /* \"#utility.yul\":6238:6355   */\n    tag_215:\n        /* \"#utility.yul\":6379:6442   */\n      tag_217\n        /* \"#utility.yul\":6434:6441   */\n      dup8\n        /* \"#utility.yul\":6425:6431   */\n      dup3\n        /* \"#utility.yul\":6414:6423   */\n      dup9\n        /* \"#utility.yul\":6410:6432   */\n      add\n        /* \"#utility.yul\":6379:6442   */\n      tag_121\n      jump\t// in\n    tag_217:\n        /* \"#utility.yul\":6369:6442   */\n      swap3\n      pop\n        /* \"#utility.yul\":6164:6452   */\n      pop\n        /* \"#utility.yul\":6519:6521   */\n      0x60\n        /* \"#utility.yul\":6508:6517   */\n      dup6\n        /* \"#utility.yul\":6504:6522   */\n      add\n        /* \"#utility.yul\":6491:6523   */\n      calldataload\n        /* \"#utility.yul\":6550:6568   */\n      0xffffffffffffffff\n        /* \"#utility.yul\":6542:6548   */\n      dup2\n        /* \"#utility.yul\":6539:6569   */\n      gt\n        /* \"#utility.yul\":6536:6653   */\n      iszero\n      tag_218\n      jumpi\n        /* \"#utility.yul\":6572:6651   */\n      tag_219\n      tag_99\n      jump\t// in\n    tag_219:\n        /* \"#utility.yul\":6536:6653   */\n    tag_218:\n        /* \"#utility.yul\":6677:6740   */\n      tag_220\n        /* \"#utility.yul\":6732:6739   */\n      dup8\n        /* \"#utility.yul\":6723:6729   */\n      dup3\n        /* \"#utility.yul\":6712:6721   */\n      dup9\n        /* \"#utility.yul\":6708:6730   */\n      add\n        /* \"#utility.yul\":6677:6740   */\n      tag_121\n      jump\t// in\n    tag_220:\n        /* \"#utility.yul\":6667:6740   */\n      swap2\n      pop\n        /* \"#utility.yul\":6462:6750   */\n      pop\n        /* \"#utility.yul\":5452:6757   */\n      swap3\n      swap6\n      swap2\n      swap5\n      pop\n      swap3\n      pop\n      jump\t// out\n        /* \"#utility.yul\":6763:7272   */\n    tag_26:\n        /* \"#utility.yul\":6832:6838   */\n      0x00\n        /* \"#utility.yul\":6881:6883   */\n      0x20\n        /* \"#utility.yul\":6869:6878   */\n      dup3\n        /* \"#utility.yul\":6860:6867   */\n      dup5\n        /* \"#utility.yul\":6856:6879   */\n      sub\n        /* \"#utility.yul\":6852:6884   */\n      slt\n        /* \"#utility.yul\":6849:6968   */\n      iszero\n      tag_222\n      jumpi\n        /* \"#utility.yul\":6887:6966   */\n      tag_223\n      tag_98\n      jump\t// in\n    tag_223:\n        /* \"#utility.yul\":6849:6968   */\n    tag_222:\n        /* \"#utility.yul\":7035:7036   */\n      0x00\n        /* \"#utility.yul\":7024:7033   */\n      dup3\n        /* \"#utility.yul\":7020:7037   */\n      add\n        /* \"#utility.yul\":7007:7038   */\n      calldataload\n        /* \"#utility.yul\":7065:7083   */\n      0xffffffffffffffff\n        /* \"#utility.yul\":7057:7063   */\n      dup2\n        /* \"#utility.yul\":7054:7084   */\n      gt\n        /* \"#utility.yul\":7051:7168   */\n      iszero\n      tag_224\n      jumpi\n        /* \"#utility.yul\":7087:7166   */\n      tag_225\n      tag_99\n      jump\t// in\n    tag_225:\n        /* \"#utility.yul\":7051:7168   */\n    tag_224:\n        /* \"#utility.yul\":7192:7255   */\n      tag_226\n        /* \"#utility.yul\":7247:7254   */\n      dup5\n        /* \"#utility.yul\":7238:7244   */\n      dup3\n        /* \"#utility.yul\":7227:7236   */\n      dup6\n        /* \"#utility.yul\":7223:7245   */\n      add\n        /* \"#utility.yul\":7192:7255   */\n      tag_121\n      jump\t// in\n    tag_226:\n        /* \"#utility.yul\":7182:7255   */\n      swap2\n      pop\n        /* \"#utility.yul\":6978:7265   */\n      pop\n        /* \"#utility.yul\":6763:7272   */\n      swap3\n      swap2\n      pop\n      pop\n      jump\t// out\n        /* \"#utility.yul\":7278:7993   */\n    tag_29:\n        /* \"#utility.yul\":7487:7491   */\n      0x00\n        /* \"#utility.yul\":7525:7527   */\n      0x60\n        /* \"#utility.yul\":7514:7523   */\n      dup3\n        /* \"#utility.yul\":7510:7528   */\n      add\n        /* \"#utility.yul\":7502:7528   */\n      swap1\n      pop\n        /* \"#utility.yul\":7574:7583   */\n      dup2\n        /* \"#utility.yul\":7568:7572   */\n      dup2\n        /* \"#utility.yul\":7564:7584   */\n      sub\n        /* \"#utility.yul\":7560:7561   */\n      0x00\n        /* \"#utility.yul\":7549:7558   */\n      dup4\n        /* \"#utility.yul\":7545:7562   */\n      add\n        /* \"#utility.yul\":7538:7585   */\n      mstore\n        /* \"#utility.yul\":7602:7680   */\n      tag_228\n        /* \"#utility.yul\":7675:7679   */\n      dup2\n        /* \"#utility.yul\":7666:7672   */\n      dup7\n        /* \"#utility.yul\":7602:7680   */\n      tag_108\n      jump\t// in\n    tag_228:\n        /* \"#utility.yul\":7594:7680   */\n      swap1\n      pop\n        /* \"#utility.yul\":7727:7736   */\n      dup2\n        /* \"#utility.yul\":7721:7725   */\n      dup2\n        /* \"#utility.yul\":7717:7737   */\n      sub\n        /* \"#utility.yul\":7712:7714   */\n      0x20\n        /* \"#utility.yul\":7701:7710   */\n      dup4\n        /* \"#utility.yul\":7697:7715   */\n      add\n        /* \"#utility.yul\":7690:7738   */\n      mstore\n        /* \"#utility.yul\":7755:7833   */\n      tag_229\n        /* \"#utility.yul\":7828:7832   */\n      dup2\n        /* \"#utility.yul\":7819:7825   */\n      dup6\n        /* \"#utility.yul\":7755:7833   */\n      tag_108\n      jump\t// in\n    tag_229:\n        /* \"#utility.yul\":7747:7833   */\n      swap1\n      pop\n        /* \"#utility.yul\":7880:7889   */\n      dup2\n        /* \"#utility.yul\":7874:7878   */\n      dup2\n        /* \"#utility.yul\":7870:7890   */\n      sub\n        /* \"#utility.yul\":7865:7867   */\n      0x40\n        /* \"#utility.yul\":7854:7863   */\n      dup4\n        /* \"#utility.yul\":7850:7868   */\n      add\n        /* \"#utility.yul\":7843:7891   */\n      mstore\n        /* \"#utility.yul\":7908:7986   */\n      tag_230\n        /* \"#utility.yul\":7981:7985   */\n      dup2\n        /* \"#utility.yul\":7972:7978   */\n      dup5\n        /* \"#utility.yul\":7908:7986   */\n      tag_108\n      jump\t// in\n    tag_230:\n        /* \"#utility.yul\":7900:7986   */\n      swap1\n      pop\n        /* \"#utility.yul\":7278:7993   */\n      swap5\n      swap4\n      pop\n      pop\n      pop\n      pop\n      jump\t// out\n        /* \"#utility.yul\":7999:8978   */\n    tag_35:\n        /* \"#utility.yul\":8096:8102   */\n      0x00\n        /* \"#utility.yul\":8104:8110   */\n      dup1\n        /* \"#utility.yul\":8112:8118   */\n      0x00\n        /* \"#utility.yul\":8161:8163   */\n      0x60\n        /* \"#utility.yul\":8149:8158   */\n      dup5\n        /* \"#utility.yul\":8140:8147   */\n      dup7\n        /* \"#utility.yul\":8136:8159   */\n      sub\n        /* \"#utility.yul\":8132:8164   */\n      slt\n        /* \"#utility.yul\":8129:8248   */\n      iszero\n      tag_232\n      jumpi\n        /* \"#utility.yul\":8167:8246   */\n      tag_233\n      tag_98\n      jump\t// in\n    tag_233:\n        /* \"#utility.yul\":8129:8248   */\n    tag_232:\n        /* \"#utility.yul\":8315:8316   */\n      0x00\n        /* \"#utility.yul\":8304:8313   */\n      dup5\n        /* \"#utility.yul\":8300:8317   */\n      add\n        /* \"#utility.yul\":8287:8318   */\n      calldataload\n        /* \"#utility.yul\":8345:8363   */\n      0xffffffffffffffff\n        /* \"#utility.yul\":8337:8343   */\n      dup2\n        /* \"#utility.yul\":8334:8364   */\n      gt\n        /* \"#utility.yul\":8331:8448   */\n      iszero\n      tag_234\n      jumpi\n        /* \"#utility.yul\":8367:8446   */\n      tag_235\n      tag_99\n      jump\t// in\n    tag_235:\n        /* \"#utility.yul\":8331:8448   */\n    tag_234:\n        /* \"#utility.yul\":8472:8535   */\n      tag_236\n        /* \"#utility.yul\":8527:8534   */\n      dup7\n        /* \"#utility.yul\":8518:8524   */\n      dup3\n        /* \"#utility.yul\":8507:8516   */\n      dup8\n        /* \"#utility.yul\":8503:8525   */\n      add\n        /* \"#utility.yul\":8472:8535   */\n      tag_121\n      jump\t// in\n    tag_236:\n        /* \"#utility.yul\":8462:8535   */\n      swap4\n      pop\n        /* \"#utility.yul\":8258:8545   */\n      pop\n        /* \"#utility.yul\":8612:8614   */\n      0x20\n        /* \"#utility.yul\":8601:8610   */\n      dup5\n        /* \"#utility.yul\":8597:8615   */\n      add\n        /* \"#utility.yul\":8584:8616   */\n      calldataload\n        /* \"#utility.yul\":8643:8661   */\n      0xffffffffffffffff\n        /* \"#utility.yul\":8635:8641   */\n      dup2\n        /* \"#utility.yul\":8632:8662   */\n      gt\n        /* \"#utility.yul\":8629:8746   */\n      iszero\n      tag_237\n      jumpi\n        /* \"#utility.yul\":8665:8744   */\n      tag_238\n      tag_99\n      jump\t// in\n    tag_238:\n        /* \"#utility.yul\":8629:8746   */\n    tag_237:\n        /* \"#utility.yul\":8770:8833   */\n      tag_239\n        /* \"#utility.yul\":8825:8832   */\n      dup7\n        /* \"#utility.yul\":8816:8822   */\n      dup3\n        /* \"#utility.yul\":8805:8814   */\n      dup8\n        /* \"#utility.yul\":8801:8823   */\n      add\n        /* \"#utility.yul\":8770:8833   */\n      tag_121\n      jump\t// in\n    tag_239:\n        /* \"#utility.yul\":8760:8833   */\n      swap3\n      pop\n        /* \"#utility.yul\":8555:8843   */\n      pop\n        /* \"#utility.yul\":8882:8884   */\n      0x40\n        /* \"#utility.yul\":8908:8961   */\n      tag_240\n        /* \"#utility.yul\":8953:8960   */\n      dup7\n        /* \"#utility.yul\":8944:8950   */\n      dup3\n        /* \"#utility.yul\":8933:8942   */\n      dup8\n        /* \"#utility.yul\":8929:8951   */\n      add\n        /* \"#utility.yul\":8908:8961   */\n      tag_103\n      jump\t// in\n    tag_240:\n        /* \"#utility.yul\":8898:8961   */\n      swap2\n      pop\n        /* \"#utility.yul\":8853:8971   */\n      pop\n        /* \"#utility.yul\":7999:8978   */\n      swap3\n      pop\n      swap3\n      pop\n      swap3\n      jump\t// out\n        /* \"#utility.yul\":8984:9963   */\n    tag_39:\n        /* \"#utility.yul\":9081:9087   */\n      0x00\n        /* \"#utility.yul\":9089:9095   */\n      dup1\n        /* \"#utility.yul\":9097:9103   */\n      0x00\n        /* \"#utility.yul\":9146:9148   */\n      0x60\n        /* \"#utility.yul\":9134:9143   */\n      dup5\n        /* \"#utility.yul\":9125:9132   */\n      dup7\n        /* \"#utility.yul\":9121:9144   */\n      sub\n        /* \"#utility.yul\":9117:9149   */\n      slt\n        /* \"#utility.yul\":9114:9233   */\n      iszero\n      tag_242\n      jumpi\n        /* \"#utility.yul\":9152:9231   */\n      tag_243\n      tag_98\n      jump\t// in\n    tag_243:\n        /* \"#utility.yul\":9114:9233   */\n    tag_242:\n        /* \"#utility.yul\":9272:9273   */\n      0x00\n        /* \"#utility.yul\":9297:9350   */\n      tag_244\n        /* \"#utility.yul\":9342:9349   */\n      dup7\n        /* \"#utility.yul\":9333:9339   */\n      dup3\n        /* \"#utility.yul\":9322:9331   */\n      dup8\n        /* \"#utility.yul\":9318:9340   */\n      add\n        /* \"#utility.yul\":9297:9350   */\n      tag_103\n      jump\t// in\n    tag_244:\n        /* \"#utility.yul\":9287:9350   */\n      swap4\n      pop\n        /* \"#utility.yul\":9243:9360   */\n      pop\n        /* \"#utility.yul\":9427:9429   */\n      0x20\n        /* \"#utility.yul\":9416:9425   */\n      dup5\n        /* \"#utility.yul\":9412:9430   */\n      add\n        /* \"#utility.yul\":9399:9431   */\n      calldataload\n        /* \"#utility.yul\":9458:9476   */\n      0xffffffffffffffff\n        /* \"#utility.yul\":9450:9456   */\n      dup2\n        /* \"#utility.yul\":9447:9477   */\n      gt\n        /* \"#utility.yul\":9444:9561   */\n      iszero\n      tag_245\n      jumpi\n        /* \"#utility.yul\":9480:9559   */\n      tag_246\n      tag_99\n      jump\t// in\n    tag_246:\n        /* \"#utility.yul\":9444:9561   */\n    tag_245:\n        /* \"#utility.yul\":9585:9648   */\n      tag_247\n        /* \"#utility.yul\":9640:9647   */\n      dup7\n        /* \"#utility.yul\":9631:9637   */\n      dup3\n        /* \"#utility.yul\":9620:9629   */\n      dup8\n        /* \"#utility.yul\":9616:9638   */\n      add\n        /* \"#utility.yul\":9585:9648   */\n      tag_121\n      jump\t// in\n    tag_247:\n        /* \"#utility.yul\":9575:9648   */\n      swap3\n      pop\n        /* \"#utility.yul\":9370:9658   */\n      pop\n        /* \"#utility.yul\":9725:9727   */\n      0x40\n        /* \"#utility.yul\":9714:9723   */\n      dup5\n        /* \"#utility.yul\":9710:9728   */\n      add\n        /* \"#utility.yul\":9697:9729   */\n      calldataload\n        /* \"#utility.yul\":9756:9774   */\n      0xffffffffffffffff\n        /* \"#utility.yul\":9748:9754   */\n      dup2\n        /* \"#utility.yul\":9745:9775   */\n      gt\n        /* \"#utility.yul\":9742:9859   */\n      iszero\n      tag_248\n      jumpi\n        /* \"#utility.yul\":9778:9857   */\n      tag_249\n      tag_99\n      jump\t// in\n    tag_249:\n        /* \"#utility.yul\":9742:9859   */\n    tag_248:\n        /* \"#utility.yul\":9883:9946   */\n      tag_250\n        /* \"#utility.yul\":9938:9945   */\n      dup7\n        /* \"#utility.yul\":9929:9935   */\n      dup3\n        /* \"#utility.yul\":9918:9927   */\n      dup8\n        /* \"#utility.yul\":9914:9936   */\n      add\n        /* \"#utility.yul\":9883:9946   */\n      tag_121\n      jump\t// in\n    tag_250:\n        /* \"#utility.yul\":9873:9946   */\n      swap2\n      pop\n        /* \"#utility.yul\":9668:9956   */\n      pop\n        /* \"#utility.yul\":8984:9963   */\n      swap3\n      pop\n      swap3\n      pop\n      swap3\n      jump\t// out\n        /* \"#utility.yul\":9969:10149   */\n    tag_122:\n        /* \"#utility.yul\":10017:10094   */\n      0x4e487b7100000000000000000000000000000000000000000000000000000000\n        /* \"#utility.yul\":10014:10015   */\n      0x00\n        /* \"#utility.yul\":10007:10095   */\n      mstore\n        /* \"#utility.yul\":10114:10118   */\n      0x22\n        /* \"#utility.yul\":10111:10112   */\n      0x04\n        /* \"#utility.yul\":10104:10119   */\n      mstore\n        /* \"#utility.yul\":10138:10142   */\n      0x24\n        /* \"#utility.yul\":10135:10136   */\n      0x00\n        /* \"#utility.yul\":10128:10143   */\n      revert\n        /* \"#utility.yul\":10155:10475   */\n    tag_44:\n        /* \"#utility.yul\":10199:10205   */\n      0x00\n        /* \"#utility.yul\":10236:10237   */\n      0x02\n        /* \"#utility.yul\":10230:10234   */\n      dup3\n        /* \"#utility.yul\":10226:10238   */\n      div\n        /* \"#utility.yul\":10216:10238   */\n      swap1\n      pop\n        /* \"#utility.yul\":10283:10284   */\n      0x01\n        /* \"#utility.yul\":10277:10281   */\n      dup3\n        /* \"#utility.yul\":10273:10285   */\n      and\n        /* \"#utility.yul\":10304:10322   */\n      dup1\n        /* \"#utility.yul\":10294:10375   */\n      tag_253\n      jumpi\n        /* \"#utility.yul\":10360:10364   */\n      0x7f\n        /* \"#utility.yul\":10352:10358   */\n      dup3\n        /* \"#utility.yul\":10348:10365   */\n      and\n        /* \"#utility.yul\":10338:10365   */\n      swap2\n      pop\n        /* \"#utility.yul\":10294:10375   */\n    tag_253:\n        /* \"#utility.yul\":10422:10424   */\n      0x20\n        /* \"#utility.yul\":10414:10420   */\n      dup3\n        /* \"#utility.yul\":10411:10425   */\n      lt\n        /* \"#utility.yul\":10391:10409   */\n      dup2\n        /* \"#utility.yul\":10388:10426   */\n      sub\n        /* \"#utility.yul\":10385:10469   */\n      tag_254\n      jumpi\n        /* \"#utility.yul\":10441:10459   */\n      tag_255\n      tag_122\n      jump\t// in\n    tag_255:\n        /* \"#utility.yul\":10385:10469   */\n    tag_254:\n        /* \"#utility.yul\":10206:10475   */\n      pop\n        /* \"#utility.yul\":10155:10475   */\n      swap2\n      swap1\n      pop\n      jump\t// out\n        /* \"#utility.yul\":10481:10721   */\n    tag_123:\n        /* \"#utility.yul\":10621:10655   */\n      0x53747564656e7420726567697374726174696f6e206e6f7420616c6c6f776564\n        /* \"#utility.yul\":10617:10618   */\n      0x00\n        /* \"#utility.yul\":10609:10615   */\n      dup3\n        /* \"#utility.yul\":10605:10619   */\n      add\n        /* \"#utility.yul\":10598:10656   */\n      mstore\n        /* \"#utility.yul\":10690:10713   */\n      0x20696e2073656c656374656420636f6c6c656765210000000000000000000000\n        /* \"#utility.yul\":10685:10687   */\n      0x20\n        /* \"#utility.yul\":10677:10683   */\n      dup3\n        /* \"#utility.yul\":10673:10688   */\n      add\n        /* \"#utility.yul\":10666:10714   */\n      mstore\n        /* \"#utility.yul\":10481:10721   */\n      pop\n      jump\t// out\n        /* \"#utility.yul\":10727:11093   */\n    tag_124:\n        /* \"#utility.yul\":10869:10872   */\n      0x00\n        /* \"#utility.yul\":10890:10957   */\n      tag_258\n        /* \"#utility.yul\":10954:10956   */\n      0x35\n        /* \"#utility.yul\":10949:10952   */\n      dup4\n        /* \"#utility.yul\":10890:10957   */\n      tag_105\n      jump\t// in\n    tag_258:\n        /* \"#utility.yul\":10883:10957   */\n      swap2\n      pop\n        /* \"#utility.yul\":10966:11059   */\n      tag_259\n        /* \"#utility.yul\":11055:11058   */\n      dup3\n        /* \"#utility.yul\":10966:11059   */\n      tag_123\n      jump\t// in\n    tag_259:\n        /* \"#utility.yul\":11084:11086   */\n      0x40\n        /* \"#utility.yul\":11079:11082   */\n      dup3\n        /* \"#utility.yul\":11075:11087   */\n      add\n        /* \"#utility.yul\":11068:11087   */\n      swap1\n      pop\n        /* \"#utility.yul\":10727:11093   */\n      swap2\n      swap1\n      pop\n      jump\t// out\n        /* \"#utility.yul\":11099:11518   */\n    tag_57:\n        /* \"#utility.yul\":11265:11269   */\n      0x00\n        /* \"#utility.yul\":11303:11305   */\n      0x20\n        /* \"#utility.yul\":11292:11301   */\n      dup3\n        /* \"#utility.yul\":11288:11306   */\n      add\n        /* \"#utility.yul\":11280:11306   */\n      swap1\n      pop\n        /* \"#utility.yul\":11352:11361   */\n      dup2\n        /* \"#utility.yul\":11346:11350   */\n      dup2\n        /* \"#utility.yul\":11342:11362   */\n      sub\n        /* \"#utility.yul\":11338:11339   */\n      0x00\n        /* \"#utility.yul\":11327:11336   */\n      dup4\n        /* \"#utility.yul\":11323:11340   */\n      add\n        /* \"#utility.yul\":11316:11363   */\n      mstore\n        /* \"#utility.yul\":11380:11511   */\n      tag_261\n        /* \"#utility.yul\":11506:11510   */\n      dup2\n        /* \"#utility.yul\":11380:11511   */\n      tag_124\n      jump\t// in\n    tag_261:\n        /* \"#utility.yul\":11372:11511   */\n      swap1\n      pop\n        /* \"#utility.yul\":11099:11518   */\n      swap2\n      swap1\n      pop\n      jump\t// out\n        /* \"#utility.yul\":11524:11672   */\n    tag_125:\n        /* \"#utility.yul\":11626:11637   */\n      0x00\n        /* \"#utility.yul\":11663:11666   */\n      dup2\n        /* \"#utility.yul\":11648:11666   */\n      swap1\n      pop\n        /* \"#utility.yul\":11524:11672   */\n      swap3\n      swap2\n      pop\n      pop\n      jump\t// out\n        /* \"#utility.yul\":11678:12068   */\n    tag_126:\n        /* \"#utility.yul\":11784:11787   */\n      0x00\n        /* \"#utility.yul\":11812:11851   */\n      tag_264\n        /* \"#utility.yul\":11845:11850   */\n      dup3\n        /* \"#utility.yul\":11812:11851   */\n      tag_104\n      jump\t// in\n    tag_264:\n        /* \"#utility.yul\":11867:11956   */\n      tag_265\n        /* \"#utility.yul\":11949:11955   */\n      dup2\n        /* \"#utility.yul\":11944:11947   */\n      dup6\n        /* \"#utility.yul\":11867:11956   */\n      tag_125\n      jump\t// in\n    tag_265:\n        /* \"#utility.yul\":11860:11956   */\n      swap4\n      pop\n        /* \"#utility.yul\":11965:12030   */\n      tag_266\n        /* \"#utility.yul\":12023:12029   */\n      dup2\n        /* \"#utility.yul\":12018:12021   */\n      dup6\n        /* \"#utility.yul\":12011:12015   */\n      0x20\n        /* \"#utility.yul\":12004:12009   */\n      dup7\n        /* \"#utility.yul\":12000:12016   */\n      add\n        /* \"#utility.yul\":11965:12030   */\n      tag_106\n      jump\t// in\n    tag_266:\n        /* \"#utility.yul\":12055:12061   */\n      dup1\n        /* \"#utility.yul\":12050:12053   */\n      dup5\n        /* \"#utility.yul\":12046:12062   */\n      add\n        /* \"#utility.yul\":12039:12062   */\n      swap2\n      pop\n        /* \"#utility.yul\":11788:12068   */\n      pop\n        /* \"#utility.yul\":11678:12068   */\n      swap3\n      swap2\n      pop\n      pop\n      jump\t// out\n        /* \"#utility.yul\":12074:12349   */\n    tag_59:\n        /* \"#utility.yul\":12206:12209   */\n      0x00\n        /* \"#utility.yul\":12228:12323   */\n      tag_268\n        /* \"#utility.yul\":12319:12322   */\n      dup3\n        /* \"#utility.yul\":12310:12316   */\n      dup5\n        /* \"#utility.yul\":12228:12323   */\n      tag_126\n      jump\t// in\n    tag_268:\n        /* \"#utility.yul\":12221:12323   */\n      swap2\n      pop\n        /* \"#utility.yul\":12340:12343   */\n      dup2\n        /* \"#utility.yul\":12333:12343   */\n      swap1\n      pop\n        /* \"#utility.yul\":12074:12349   */\n      swap3\n      swap2\n      pop\n      pop\n      jump\t// out\n        /* \"#utility.yul\":12355:12496   */\n    tag_127:\n        /* \"#utility.yul\":12404:12408   */\n      0x00\n        /* \"#utility.yul\":12427:12430   */\n      dup2\n        /* \"#utility.yul\":12419:12430   */\n      swap1\n      pop\n        /* \"#utility.yul\":12450:12453   */\n      dup2\n        /* \"#utility.yul\":12447:12448   */\n      0x00\n        /* \"#utility.yul\":12440:12454   */\n      mstore\n        /* \"#utility.yul\":12484:12488   */\n      0x20\n        /* \"#utility.yul\":12481:12482   */\n      0x00\n        /* \"#utility.yul\":12471:12489   */\n      keccak256\n        /* \"#utility.yul\":12463:12489   */\n      swap1\n      pop\n        /* \"#utility.yul\":12355:12496   */\n      swap2\n      swap1\n      pop\n      jump\t// out\n        /* \"#utility.yul\":12502:12595   */\n    tag_128:\n        /* \"#utility.yul\":12539:12545   */\n      0x00\n        /* \"#utility.yul\":12586:12588   */\n      0x20\n        /* \"#utility.yul\":12581:12583   */\n      0x1f\n        /* \"#utility.yul\":12574:12579   */\n      dup4\n        /* \"#utility.yul\":12570:12584   */\n      add\n        /* \"#utility.yul\":12566:12589   */\n      div\n        /* \"#utility.yul\":12556:12589   */\n      swap1\n      pop\n        /* \"#utility.yul\":12502:12595   */\n      swap2\n      swap1\n      pop\n      jump\t// out\n        /* \"#utility.yul\":12601:12708   */\n    tag_129:\n        /* \"#utility.yul\":12645:12653   */\n      0x00\n        /* \"#utility.yul\":12695:12700   */\n      dup3\n        /* \"#utility.yul\":12689:12693   */\n      dup3\n        /* \"#utility.yul\":12685:12701   */\n      shl\n        /* \"#utility.yul\":12664:12701   */\n      swap1\n      pop\n        /* \"#utility.yul\":12601:12708   */\n      swap3\n      swap2\n      pop\n      pop\n      jump\t// out\n        /* \"#utility.yul\":12714:13107   */\n    tag_130:\n        /* \"#utility.yul\":12783:12789   */\n      0x00\n        /* \"#utility.yul\":12833:12834   */\n      0x08\n        /* \"#utility.yul\":12821:12831   */\n      dup4\n        /* \"#utility.yul\":12817:12835   */\n      mul\n        /* \"#utility.yul\":12856:12953   */\n      tag_273\n        /* \"#utility.yul\":12886:12952   */\n      0xffffffffffffffffffffffffffffffffffffffffffffffffffffffffffffffff\n        /* \"#utility.yul\":12875:12884   */\n      dup3\n        /* \"#utility.yul\":12856:12953   */\n      tag_129\n      jump\t// in\n    tag_273:\n        /* \"#utility.yul\":12974:13013   */\n      tag_274\n        /* \"#utility.yul\":13004:13012   */\n      dup7\n        /* \"#utility.yul\":12993:13002   */\n      dup4\n        /* \"#utility.yul\":12974:13013   */\n      tag_129\n      jump\t// in\n    tag_274:\n        /* \"#utility.yul\":12962:13013   */\n      swap6\n      pop\n        /* \"#utility.yul\":13046:13050   */\n      dup1\n        /* \"#utility.yul\":13042:13051   */\n      not\n        /* \"#utility.yul\":13035:13040   */\n      dup5\n        /* \"#utility.yul\":13031:13052   */\n      and\n        /* \"#utility.yul\":13022:13052   */\n      swap4\n      pop\n        /* \"#utility.yul\":13095:13099   */\n      dup1\n        /* \"#utility.yul\":13085:13093   */\n      dup7\n        /* \"#utility.yul\":13081:13100   */\n      and\n        /* \"#utility.yul\":13074:13079   */\n      dup5\n        /* \"#utility.yul\":13071:13101   */\n      or\n        /* \"#utility.yul\":13061:13101   */\n      swap3\n      pop\n        /* \"#utility.yul\":12790:13107   */\n      pop\n      pop\n        /* \"#utility.yul\":12714:13107   */\n      swap4\n      swap3\n      pop\n      pop\n      pop\n      jump\t// out\n        /* \"#utility.yul\":13113:13190   */\n    tag_131:\n        /* \"#utility.yul\":13150:13157   */\n      0x00\n        /* \"#utility.yul\":13179:13184   */\n      dup2\n        /* \"#utility.yul\":13168:13184   */\n      swap1\n      pop\n        /* \"#utility.yul\":13113:13190   */\n      swap2\n      swap1\n      pop\n      jump\t// out\n        /* \"#utility.yul\":13196:13256   */\n    tag_132:\n        /* \"#utility.yul\":13224:13227   */\n      0x00\n        /* \"#utility.yul\":13245:13250   */\n      dup2\n        /* \"#utility.yul\":13238:13250   */\n      swap1\n      pop\n        /* \"#utility.yul\":13196:13256   */\n      swap2\n      swap1\n      pop\n      jump\t// out\n        /* \"#utility.yul\":13262:13404   */\n    tag_133:\n        /* \"#utility.yul\":13312:13321   */\n      0x00\n        /* \"#utility.yul\":13345:13398   */\n      tag_278\n        /* \"#utility.yul\":13363:13397   */\n      tag_279\n        /* \"#utility.yul\":13372:13396   */\n      tag_280\n        /* \"#utility.yul\":13390:13395   */\n      dup5\n        /* \"#utility.yul\":13372:13396   */\n      tag_131\n      jump\t// in\n    tag_280:\n        /* \"#utility.yul\":13363:13397   */\n      tag_132\n      jump\t// in\n    tag_279:\n        /* \"#utility.yul\":13345:13398   */\n      tag_131\n      jump\t// in\n    tag_278:\n        /* \"#utility.yul\":13332:13398   */\n      swap1\n      pop\n        /* \"#utility.yul\":13262:13404   */\n      swap2\n      swap1\n      pop\n      jump\t// out\n        /* \"#utility.yul\":13410:13485   */\n    tag_134:\n        /* \"#utility.yul\":13453:13456   */\n      0x00\n        /* \"#utility.yul\":13474:13479   */\n      dup2\n        /* \"#utility.yul\":13467:13479   */\n      swap1\n      pop\n        /* \"#utility.yul\":13410:13485   */\n      swap2\n      swap1\n      pop\n      jump\t// out\n        /* \"#utility.yul\":13491:13760   */\n    tag_135:\n        /* \"#utility.yul\":13601:13640   */\n      tag_283\n        /* \"#utility.yul\":13632:13639   */\n      dup4\n        /* \"#utility.yul\":13601:13640   */\n      tag_133\n      jump\t// in\n    tag_283:\n        /* \"#utility.yul\":13662:13753   */\n      tag_284\n        /* \"#utility.yul\":13711:13752   */\n      tag_285\n        /* \"#utility.yul\":13735:13751   */\n      dup3\n        /* \"#utility.yul\":13711:13752   */\n      tag_134\n      jump\t// in\n    tag_285:\n        /* \"#utility.yul\":13703:13709   */\n      dup5\n        /* \"#utility.yul\":13696:13700   */\n      dup5\n        /* \"#utility.yul\":13690:13701   */\n      sload\n        /* \"#utility.yul\":13662:13753   */\n      tag_130\n      jump\t// in\n    tag_284:\n        /* \"#utility.yul\":13656:13660   */\n      dup3\n        /* \"#utility.yul\":13649:13754   */\n      sstore\n        /* \"#utility.yul\":13567:13760   */\n      pop\n        /* \"#utility.yul\":13491:13760   */\n      pop\n      pop\n      pop\n      jump\t// out\n        /* \"#utility.yul\":13766:13839   */\n    tag_136:\n        /* \"#utility.yul\":13811:13814   */\n      0x00\n        /* \"#utility.yul\":13766:13839   */\n      swap1\n      jump\t// out\n        /* \"#utility.yul\":13845:14034   */\n    tag_137:\n        /* \"#utility.yul\":13922:13954   */\n      tag_288\n      tag_136\n      jump\t// in\n    tag_288:\n        /* \"#utility.yul\":13963:14028   */\n      tag_289\n        /* \"#utility.yul\":14021:14027   */\n      dup2\n        /* \"#utility.yul\":14013:14019   */\n      dup5\n        /* \"#utility.yul\":14007:14011   */\n      dup5\n        /* \"#utility.yul\":13963:14028   */\n      tag_135\n      jump\t// in\n    tag_289:\n        /* \"#utility.yul\":13898:14034   */\n      pop\n        /* \"#utility.yul\":13845:14034   */\n      pop\n      pop\n      jump\t// out\n        /* \"#utility.yul\":14040:14226   */\n    tag_138:\n        /* \"#utility.yul\":14100:14220   */\n    tag_291:\n        /* \"#utility.yul\":14117:14120   */\n      dup2\n        /* \"#utility.yul\":14110:14115   */\n      dup2\n        /* \"#utility.yul\":14107:14121   */\n      lt\n        /* \"#utility.yul\":14100:14220   */\n      iszero\n      tag_293\n      jumpi\n        /* \"#utility.yul\":14171:14210   */\n      tag_294\n        /* \"#utility.yul\":14208:14209   */\n      0x00\n        /* \"#utility.yul\":14201:14206   */\n      dup3\n        /* \"#utility.yul\":14171:14210   */\n      tag_137\n      jump\t// in\n    tag_294:\n        /* \"#utility.yul\":14144:14145   */\n      0x01\n        /* \"#utility.yul\":14137:14142   */\n      dup2\n        /* \"#utility.yul\":14133:14146   */\n      add\n        /* \"#utility.yul\":14124:14146   */\n      swap1\n      pop\n        /* \"#utility.yul\":14100:14220   */\n      jump(tag_291)\n    tag_293:\n        /* \"#utility.yul\":14040:14226   */\n      pop\n      pop\n      jump\t// out\n        /* \"#utility.yul\":14232:14775   */\n    tag_139:\n        /* \"#utility.yul\":14333:14335   */\n      0x1f\n        /* \"#utility.yul\":14328:14331   */\n      dup3\n        /* \"#utility.yul\":14325:14336   */\n      gt\n        /* \"#utility.yul\":14322:14768   */\n      iszero\n      tag_296\n      jumpi\n        /* \"#utility.yul\":14367:14405   */\n      tag_297\n        /* \"#utility.yul\":14399:14404   */\n      dup2\n        /* \"#utility.yul\":14367:14405   */\n      tag_127\n      jump\t// in\n    tag_297:\n        /* \"#utility.yul\":14451:14480   */\n      tag_298\n        /* \"#utility.yul\":14469:14479   */\n      dup5\n        /* \"#utility.yul\":14451:14480   */\n      tag_128\n      jump\t// in\n    tag_298:\n        /* \"#utility.yul\":14441:14449   */\n      dup2\n        /* \"#utility.yul\":14437:14481   */\n      add\n        /* \"#utility.yul\":14634:14636   */\n      0x20\n        /* \"#utility.yul\":14622:14632   */\n      dup6\n        /* \"#utility.yul\":14619:14637   */\n      lt\n        /* \"#utility.yul\":14616:14665   */\n      iszero\n      tag_299\n      jumpi\n        /* \"#utility.yul\":14655:14663   */\n      dup2\n        /* \"#utility.yul\":14640:14663   */\n      swap1\n      pop\n        /* \"#utility.yul\":14616:14665   */\n    tag_299:\n        /* \"#utility.yul\":14678:14758   */\n      tag_300\n        /* \"#utility.yul\":14734:14756   */\n      tag_301\n        /* \"#utility.yul\":14752:14755   */\n      dup6\n        /* \"#utility.yul\":14734:14756   */\n      tag_128\n      jump\t// in\n    tag_301:\n        /* \"#utility.yul\":14724:14732   */\n      dup4\n        /* \"#utility.yul\":14720:14757   */\n      add\n        /* \"#utility.yul\":14707:14718   */\n      dup3\n        /* \"#utility.yul\":14678:14758   */\n      tag_138\n      jump\t// in\n    tag_300:\n        /* \"#utility.yul\":14337:14768   */\n      pop\n      pop\n        /* \"#utility.yul\":14322:14768   */\n    tag_296:\n        /* \"#utility.yul\":14232:14775   */\n      pop\n      pop\n      pop\n      jump\t// out\n        /* \"#utility.yul\":14781:14898   */\n    tag_140:\n        /* \"#utility.yul\":14835:14843   */\n      0x00\n        /* \"#utility.yul\":14885:14890   */\n      dup3\n        /* \"#utility.yul\":14879:14883   */\n      dup3\n        /* \"#utility.yul\":14875:14891   */\n      shr\n        /* \"#utility.yul\":14854:14891   */\n      swap1\n      pop\n        /* \"#utility.yul\":14781:14898   */\n      swap3\n      swap2\n      pop\n      pop\n      jump\t// out\n        /* \"#utility.yul\":14904:15073   */\n    tag_141:\n        /* \"#utility.yul\":14948:14954   */\n      0x00\n        /* \"#utility.yul\":14981:15032   */\n      tag_304\n        /* \"#utility.yul\":15029:15030   */\n      0x00\n        /* \"#utility.yul\":15025:15031   */\n      not\n        /* \"#utility.yul\":15017:15022   */\n      dup5\n        /* \"#utility.yul\":15014:15015   */\n      0x08\n        /* \"#utility.yul\":15010:15023   */\n      mul\n        /* \"#utility.yul\":14981:15032   */\n      tag_140\n      jump\t// in\n    tag_304:\n        /* \"#utility.yul\":14977:15033   */\n      not\n        /* \"#utility.yul\":15062:15066   */\n      dup1\n        /* \"#utility.yul\":15056:15060   */\n      dup4\n        /* \"#utility.yul\":15052:15067   */\n      and\n        /* \"#utility.yul\":15042:15067   */\n      swap2\n      pop\n        /* \"#utility.yul\":14955:15073   */\n      pop\n        /* \"#utility.yul\":14904:15073   */\n      swap3\n      swap2\n      pop\n      pop\n      jump\t// out\n        /* \"#utility.yul\":15078:15373   */\n    tag_142:\n        /* \"#utility.yul\":15154:15158   */\n      0x00\n        /* \"#utility.yul\":15300:15329   */\n      tag_306\n        /* \"#utility.yul\":15325:15328   */\n      dup4\n        /* \"#utility.yul\":15319:15323   */\n      dup4\n        /* \"#utility.yul\":15300:15329   */\n      tag_141\n      jump\t// in\n    tag_306:\n        /* \"#utility.yul\":15292:15329   */\n      swap2\n      pop\n        /* \"#utility.yul\":15362:15365   */\n      dup3\n        /* \"#utility.yul\":15359:15360   */\n      0x02\n        /* \"#utility.yul\":15355:15366   */\n      mul\n        /* \"#utility.yul\":15349:15353   */\n      dup3\n        /* \"#utility.yul\":15346:15367   */\n      or\n        /* \"#utility.yul\":15338:15367   */\n      swap1\n      pop\n        /* \"#utility.yul\":15078:15373   */\n      swap3\n      swap2\n      pop\n      pop\n      jump\t// out\n        /* \"#utility.yul\":15378:16773   */\n    tag_61:\n        /* \"#utility.yul\":15495:15532   */\n      tag_308\n        /* \"#utility.yul\":15528:15531   */\n      dup3\n        /* \"#utility.yul\":15495:15532   */\n      tag_104\n      jump\t// in\n    tag_308:\n        /* \"#utility.yul\":15597:15615   */\n      0xffffffffffffffff\n        /* \"#utility.yul\":15589:15595   */\n      dup2\n        /* \"#utility.yul\":15586:15616   */\n      gt\n        /* \"#utility.yul\":15583:15639   */\n      iszero\n      tag_309\n      jumpi\n        /* \"#utility.yul\":15619:15637   */\n      tag_310\n      tag_115\n      jump\t// in\n    tag_310:\n        /* \"#utility.yul\":15583:15639   */\n    tag_309:\n        /* \"#utility.yul\":15663:15701   */\n      tag_311\n        /* \"#utility.yul\":15695:15699   */\n      dup3\n        /* \"#utility.yul\":15689:15700   */\n      sload\n        /* \"#utility.yul\":15663:15701   */\n      tag_44\n      jump\t// in\n    tag_311:\n        /* \"#utility.yul\":15748:15815   */\n      tag_312\n        /* \"#utility.yul\":15808:15814   */\n      dup3\n        /* \"#utility.yul\":15800:15806   */\n      dup3\n        /* \"#utility.yul\":15794:15798   */\n      dup6\n        /* \"#utility.yul\":15748:15815   */\n      tag_139\n      jump\t// in\n    tag_312:\n        /* \"#utility.yul\":15842:15843   */\n      0x00\n        /* \"#utility.yul\":15866:15870   */\n      0x20\n        /* \"#utility.yul\":15853:15870   */\n      swap1\n      pop\n        /* \"#utility.yul\":15898:15900   */\n      0x1f\n        /* \"#utility.yul\":15890:15896   */\n      dup4\n        /* \"#utility.yul\":15887:15901   */\n      gt\n        /* \"#utility.yul\":15915:15916   */\n      0x01\n        /* \"#utility.yul\":15910:16528   */\n      dup2\n      eq\n      tag_314\n      jumpi\n        /* \"#utility.yul\":16572:16573   */\n      0x00\n        /* \"#utility.yul\":16589:16595   */\n      dup5\n        /* \"#utility.yul\":16586:16663   */\n      iszero\n      tag_315\n      jumpi\n        /* \"#utility.yul\":16638:16647   */\n      dup3\n        /* \"#utility.yul\":16633:16636   */\n      dup8\n        /* \"#utility.yul\":16629:16648   */\n      add\n        /* \"#utility.yul\":16623:16649   */\n      mload\n        /* \"#utility.yul\":16614:16649   */\n      swap1\n      pop\n        /* \"#utility.yul\":16586:16663   */\n    tag_315:\n        /* \"#utility.yul\":16689:16756   */\n      tag_316\n        /* \"#utility.yul\":16749:16755   */\n      dup6\n        /* \"#utility.yul\":16742:16747   */\n      dup3\n        /* \"#utility.yul\":16689:16756   */\n      tag_142\n      jump\t// in\n    tag_316:\n        /* \"#utility.yul\":16683:16687   */\n      dup7\n        /* \"#utility.yul\":16676:16757   */\n      sstore\n        /* \"#utility.yul\":16545:16767   */\n      pop\n        /* \"#utility.yul\":15880:16767   */\n      jump(tag_313)\n        /* \"#utility.yul\":15910:16528   */\n    tag_314:\n        /* \"#utility.yul\":15962:15966   */\n      0x1f\n        /* \"#utility.yul\":15958:15967   */\n      not\n        /* \"#utility.yul\":15950:15956   */\n      dup5\n        /* \"#utility.yul\":15946:15968   */\n      and\n        /* \"#utility.yul\":15996:16033   */\n      tag_317\n        /* \"#utility.yul\":16028:16032   */\n      dup7\n        /* \"#utility.yul\":15996:16033   */\n      tag_127\n      jump\t// in\n    tag_317:\n        /* \"#utility.yul\":16055:16056   */\n      0x00\n        /* \"#utility.yul\":16069:16277   */\n    tag_318:\n        /* \"#utility.yul\":16083:16090   */\n      dup3\n        /* \"#utility.yul\":16080:16081   */\n      dup2\n        /* \"#utility.yul\":16077:16091   */\n      lt\n        /* \"#utility.yul\":16069:16277   */\n      iszero\n      tag_320\n      jumpi\n        /* \"#utility.yul\":16162:16171   */\n      dup5\n        /* \"#utility.yul\":16157:16160   */\n      dup10\n        /* \"#utility.yul\":16153:16172   */\n      add\n        /* \"#utility.yul\":16147:16173   */\n      mload\n        /* \"#utility.yul\":16139:16145   */\n      dup3\n        /* \"#utility.yul\":16132:16174   */\n      sstore\n        /* \"#utility.yul\":16213:16214   */\n      0x01\n        /* \"#utility.yul\":16205:16211   */\n      dup3\n        /* \"#utility.yul\":16201:16215   */\n      add\n        /* \"#utility.yul\":16191:16215   */\n      swap2\n      pop\n        /* \"#utility.yul\":16260:16262   */\n      0x20\n        /* \"#utility.yul\":16249:16258   */\n      dup6\n        /* \"#utility.yul\":16245:16263   */\n      add\n        /* \"#utility.yul\":16232:16263   */\n      swap5\n      pop\n        /* \"#utility.yul\":16106:16110   */\n      0x20\n        /* \"#utility.yul\":16103:16104   */\n      dup2\n        /* \"#utility.yul\":16099:16111   */\n      add\n        /* \"#utility.yul\":16094:16111   */\n      swap1\n      pop\n        /* \"#utility.yul\":16069:16277   */\n      jump(tag_318)\n    tag_320:\n        /* \"#utility.yul\":16305:16311   */\n      dup7\n        /* \"#utility.yul\":16296:16303   */\n      dup4\n        /* \"#utility.yul\":16293:16312   */\n      lt\n        /* \"#utility.yul\":16290:16469   */\n      iszero\n      tag_321\n      jumpi\n        /* \"#utility.yul\":16363:16372   */\n      dup5\n        /* \"#utility.yul\":16358:16361   */\n      dup10\n        /* \"#utility.yul\":16354:16373   */\n      add\n        /* \"#utility.yul\":16348:16374   */\n      mload\n        /* \"#utility.yul\":16406:16454   */\n      tag_322\n        /* \"#utility.yul\":16448:16452   */\n      0x1f\n        /* \"#utility.yul\":16440:16446   */\n      dup10\n        /* \"#utility.yul\":16436:16453   */\n      and\n        /* \"#utility.yul\":16425:16434   */\n      dup3\n        /* \"#utility.yul\":16406:16454   */\n      tag_141\n      jump\t// in\n    tag_322:\n        /* \"#utility.yul\":16398:16404   */\n      dup4\n        /* \"#utility.yul\":16391:16455   */\n      sstore\n        /* \"#utility.yul\":16313:16469   */\n      pop\n        /* \"#utility.yul\":16290:16469   */\n    tag_321:\n        /* \"#utility.yul\":16515:16516   */\n      0x01\n        /* \"#utility.yul\":16511:16512   */\n      0x02\n        /* \"#utility.yul\":16503:16509   */\n      dup9\n        /* \"#utility.yul\":16499:16513   */\n      mul\n        /* \"#utility.yul\":16495:16517   */\n      add\n        /* \"#utility.yul\":16489:16493   */\n      dup9\n        /* \"#utility.yul\":16482:16518   */\n      sstore\n        /* \"#utility.yul\":15917:16528   */\n      pop\n      pop\n      pop\n        /* \"#utility.yul\":15880:16767   */\n    tag_313:\n      pop\n        /* \"#utility.yul\":15470:16773   */\n      pop\n      pop\n      pop\n        /* \"#utility.yul\":15378:16773   */\n      pop\n      pop\n      jump\t// out\n        /* \"#utility.yul\":16779:16959   */\n    tag_143:\n        /* \"#utility.yul\":16827:16904   */\n      0x4e487b7100000000000000000000000000000000000000000000000000000000\n        /* \"#utility.yul\":16824:16825   */\n      0x00\n        /* \"#utility.yul\":16817:16905   */\n      mstore\n        /* \"#utility.yul\":16924:16928   */\n      0x11\n        /* \"#utility.yul\":16921:16922   */\n      0x04\n        /* \"#utility.yul\":16914:16929   */\n      mstore\n        /* \"#utility.yul\":16948:16952   */\n      0x24\n        /* \"#utility.yul\":16945:16946   */\n      0x00\n        /* \"#utility.yul\":16938:16953   */\n      revert\n        /* \"#utility.yul\":16965:17153   */\n    tag_68:\n        /* \"#utility.yul\":17003:17006   */\n      0x00\n        /* \"#utility.yul\":17022:17040   */\n      tag_325\n        /* \"#utility.yul\":17038:17039   */\n      dup3\n        /* \"#utility.yul\":17022:17040   */\n      tag_111\n      jump\t// in\n    tag_325:\n        /* \"#utility.yul\":17017:17040   */\n      swap2\n      pop\n        /* \"#utility.yul\":17054:17072   */\n      tag_326\n        /* \"#utility.yul\":17070:17071   */\n      dup4\n        /* \"#utility.yul\":17054:17072   */\n      tag_111\n      jump\t// in\n    tag_326:\n        /* \"#utility.yul\":17049:17072   */\n      swap3\n      pop\n        /* \"#utility.yul\":17095:17096   */\n      dup3\n        /* \"#utility.yul\":17092:17093   */\n      dup3\n        /* \"#utility.yul\":17088:17097   */\n      add\n        /* \"#utility.yul\":17081:17097   */\n      swap1\n      pop\n        /* \"#utility.yul\":17118:17122   */\n      0xff\n        /* \"#utility.yul\":17113:17116   */\n      dup2\n        /* \"#utility.yul\":17110:17123   */\n      gt\n        /* \"#utility.yul\":17107:17146   */\n      iszero\n      tag_327\n      jumpi\n        /* \"#utility.yul\":17126:17144   */\n      tag_328\n      tag_143\n      jump\t// in\n    tag_328:\n        /* \"#utility.yul\":17107:17146   */\n    tag_327:\n        /* \"#utility.yul\":16965:17153   */\n      swap3\n      swap2\n      pop\n      pop\n      jump\t// out\n\n    auxdata: 0xa2646970667358221220e016bb0bb7f9f54afd3665a04f786cd0c92d5fff4ecd890943657d45dce68d9464736f6c63430008110033\n}\n",
				"bytecode": {
					"linkReferences": {},
					"object": "608060405234801561001057600080fd5b5061156e806100206000396000f3fe608060405234801561001057600080fd5b506004361061007d5760003560e01c80638805f0f41161005b5780638805f0f4146100ed578063b6b8ab991461011f578063e05cd31c1461013b578063f86b0b76146101575761007d565b806318ab022f1461008257806352dc8f7c1461009e5780637f3e1e82146100d1575b600080fd5b61009c60048036038101906100979190610c25565b610173565b005b6100b860048036038101906100b39190610c25565b6101d0565b6040516100c89493929190610d19565b60405180910390f35b6100eb60048036038101906100e69190610ea1565b61041d565b005b61010760048036038101906101029190610f5c565b610652565b60405161011693929190610fa5565b60405180910390f35b61013960048036038101906101349190610c25565b61086b565b005b61015560048036038101906101509190610ff1565b6108c8565b005b610171600480360381019061016c919061107c565b610a6b565b005b60008060008373ffffffffffffffffffffffffffffffffffffffff1673ffffffffffffffffffffffffffffffffffffffff16815260200190815260200160002060040160006101000a81548160ff02191690831515021790555050565b6060806000806000808673ffffffffffffffffffffffffffffffffffffffff1673ffffffffffffffffffffffffffffffffffffffff1681526020019081526020016000206000016000808773ffffffffffffffffffffffffffffffffffffffff1673ffffffffffffffffffffffffffffffffffffffff1681526020019081526020016000206003016000808873ffffffffffffffffffffffffffffffffffffffff1673ffffffffffffffffffffffffffffffffffffffff16815260200190815260200160002060040160009054906101000a900460ff166000808973ffffffffffffffffffffffffffffffffffffffff1673ffffffffffffffffffffffffffffffffffffffff16815260200190815260200160002060040160019054906101000a900460ff1683805461030290611136565b80601f016020809104026020016040519081016040528092919081815260200182805461032e90611136565b801561037b5780601f106103505761010080835404028352916020019161037b565b820191906000526020600020905b81548152906001019060200180831161035e57829003601f168201915b5050505050935082805461038e90611136565b80601f01602080910402602001604051908101604052809291908181526020018280546103ba90611136565b80156104075780601f106103dc57610100808354040283529160200191610407565b820191906000526020600020905b8154815290600101906020018083116103ea57829003601f168201915b5050505050925093509350935093509193509193565b6000808573ffffffffffffffffffffffffffffffffffffffff1673ffffffffffffffffffffffffffffffffffffffff16815260200190815260200160002060040160009054906101000a900460ff166104ab576040517f08c379a00000000000000000000000000000000000000000000000000000000081526004016104a2906111d9565b60405180910390fd5b826001846040516104bc9190611235565b908152602001604051809103902060010190816104d99190611402565b50836001846040516104eb9190611235565b908152602001604051809103902060000160006101000a81548173ffffffffffffffffffffffffffffffffffffffff021916908373ffffffffffffffffffffffffffffffffffffffff1602179055508160018460405161054b9190611235565b908152602001604051809103902060020190816105689190611402565b508060018460405161057a9190611235565b908152602001604051809103902060030190816105979190611402565b5060016000808673ffffffffffffffffffffffffffffffffffffffff1673ffffffffffffffffffffffffffffffffffffffff16815260200190815260200160002060040160019054906101000a900460ff166105f39190611503565b6000808673ffffffffffffffffffffffffffffffffffffffff1673ffffffffffffffffffffffffffffffffffffffff16815260200190815260200160002060040160016101000a81548160ff021916908360ff16021790555050505050565b60608060606001846040516106679190611235565b90815260200160405180910390206001016001856040516106889190611235565b90815260200160405180910390206003016001866040516106a99190611235565b90815260200160405180910390206002018280546106c690611136565b80601f01602080910402602001604051908101604052809291908181526020018280546106f290611136565b801561073f5780601f106107145761010080835404028352916020019161073f565b820191906000526020600020905b81548152906001019060200180831161072257829003601f168201915b5050505050925081805461075290611136565b80601f016020809104026020016040519081016040528092919081815260200182805461077e90611136565b80156107cb5780601f106107a0576101008083540402835291602001916107cb565b820191906000526020600020905b8154815290600101906020018083116107ae57829003601f168201915b505050505091508080546107de90611136565b80601f016020809104026020016040519081016040528092919081815260200182805461080a90611136565b80156108575780601f1061082c57610100808354040283529160200191610857565b820191906000526020600020905b81548152906001019060200180831161083a57829003601f168201915b505050505090509250925092509193909250565b60016000808373ffffffffffffffffffffffffffffffffffffffff1673ffffffffffffffffffffffffffffffffffffffff16815260200190815260200160002060040160006101000a81548160ff02191690831515021790555050565b826000808373ffffffffffffffffffffffffffffffffffffffff1673ffffffffffffffffffffffffffffffffffffffff16815260200190815260200160002060000190816109169190611402565b50806000808373ffffffffffffffffffffffffffffffffffffffff1673ffffffffffffffffffffffffffffffffffffffff16815260200190815260200160002060010160006101000a81548173ffffffffffffffffffffffffffffffffffffffff021916908373ffffffffffffffffffffffffffffffffffffffff160217905550816000808373ffffffffffffffffffffffffffffffffffffffff1673ffffffffffffffffffffffffffffffffffffffff16815260200190815260200160002060030190816109e59190611402565b50336000808373ffffffffffffffffffffffffffffffffffffffff1673ffffffffffffffffffffffffffffffffffffffff16815260200190815260200160002060020160006101000a81548173ffffffffffffffffffffffffffffffffffffffff021916908373ffffffffffffffffffffffffffffffffffffffff160217905550505050565b82600183604051610a7c9190611235565b908152602001604051809103902060000160006101000a81548173ffffffffffffffffffffffffffffffffffffffff021916908373ffffffffffffffffffffffffffffffffffffffff16021790555080600183604051610adc9190611235565b90815260200160405180910390206003019081610af99190611402565b5060016000808573ffffffffffffffffffffffffffffffffffffffff1673ffffffffffffffffffffffffffffffffffffffff16815260200190815260200160002060040160019054906101000a900460ff16610b559190611503565b6000808573ffffffffffffffffffffffffffffffffffffffff1673ffffffffffffffffffffffffffffffffffffffff16815260200190815260200160002060040160016101000a81548160ff021916908360ff160217905550505050565b6000604051905090565b600080fd5b600080fd5b600073ffffffffffffffffffffffffffffffffffffffff82169050919050565b6000610bf282610bc7565b9050919050565b610c0281610be7565b8114610c0d57600080fd5b50565b600081359050610c1f81610bf9565b92915050565b600060208284031215610c3b57610c3a610bbd565b5b6000610c4984828501610c10565b91505092915050565b600081519050919050565b600082825260208201905092915050565b60005b83811015610c8c578082015181840152602081019050610c71565b60008484015250505050565b6000601f19601f8301169050919050565b6000610cb482610c52565b610cbe8185610c5d565b9350610cce818560208601610c6e565b610cd781610c98565b840191505092915050565b60008115159050919050565b610cf781610ce2565b82525050565b600060ff82169050919050565b610d1381610cfd565b82525050565b60006080820190508181036000830152610d338187610ca9565b90508181036020830152610d478186610ca9565b9050610d566040830185610cee565b610d636060830184610d0a565b95945050505050565b600080fd5b600080fd5b7f4e487b7100000000000000000000000000000000000000000000000000000000600052604160045260246000fd5b610dae82610c98565b810181811067ffffffffffffffff82111715610dcd57610dcc610d76565b5b80604052505050565b6000610de0610bb3565b9050610dec8282610da5565b919050565b600067ffffffffffffffff821115610e0c57610e0b610d76565b5b610e1582610c98565b9050602081019050919050565b82818337600083830152505050565b6000610e44610e3f84610df1565b610dd6565b905082815260208101848484011115610e6057610e5f610d71565b5b610e6b848285610e22565b509392505050565b600082601f830112610e8857610e87610d6c565b5b8135610e98848260208601610e31565b91505092915050565b60008060008060808587031215610ebb57610eba610bbd565b5b6000610ec987828801610c10565b945050602085013567ffffffffffffffff811115610eea57610ee9610bc2565b5b610ef687828801610e73565b935050604085013567ffffffffffffffff811115610f1757610f16610bc2565b5b610f2387828801610e73565b925050606085013567ffffffffffffffff811115610f4457610f43610bc2565b5b610f5087828801610e73565b91505092959194509250565b600060208284031215610f7257610f71610bbd565b5b600082013567ffffffffffffffff811115610f9057610f8f610bc2565b5b610f9c84828501610e73565b91505092915050565b60006060820190508181036000830152610fbf8186610ca9565b90508181036020830152610fd38185610ca9565b90508181036040830152610fe78184610ca9565b9050949350505050565b60008060006060848603121561100a57611009610bbd565b5b600084013567ffffffffffffffff81111561102857611027610bc2565b5b61103486828701610e73565b935050602084013567ffffffffffffffff81111561105557611054610bc2565b5b61106186828701610e73565b925050604061107286828701610c10565b9150509250925092565b60008060006060848603121561109557611094610bbd565b5b60006110a386828701610c10565b935050602084013567ffffffffffffffff8111156110c4576110c3610bc2565b5b6110d086828701610e73565b925050604084013567ffffffffffffffff8111156110f1576110f0610bc2565b5b6110fd86828701610e73565b9150509250925092565b7f4e487b7100000000000000000000000000000000000000000000000000000000600052602260045260246000fd5b6000600282049050600182168061114e57607f821691505b60208210810361116157611160611107565b5b50919050565b7f53747564656e7420726567697374726174696f6e206e6f7420616c6c6f77656460008201527f20696e2073656c656374656420636f6c6c656765210000000000000000000000602082015250565b60006111c3603583610c5d565b91506111ce82611167565b604082019050919050565b600060208201905081810360008301526111f2816111b6565b9050919050565b600081905092915050565b600061120f82610c52565b61121981856111f9565b9350611229818560208601610c6e565b80840191505092915050565b60006112418284611204565b915081905092915050565b60008190508160005260206000209050919050565b60006020601f8301049050919050565b600082821b905092915050565b6000600883026112ae7fffffffffffffffffffffffffffffffffffffffffffffffffffffffffffffffff82611271565b6112b88683611271565b95508019841693508086168417925050509392505050565b6000819050919050565b6000819050919050565b60006112ff6112fa6112f5846112d0565b6112da565b6112d0565b9050919050565b6000819050919050565b611319836112e4565b61132d61132582611306565b84845461127e565b825550505050565b600090565b611342611335565b61134d818484611310565b505050565b5b818110156113715761136660008261133a565b600181019050611353565b5050565b601f8211156113b6576113878161124c565b61139084611261565b8101602085101561139f578190505b6113b36113ab85611261565b830182611352565b50505b505050565b600082821c905092915050565b60006113d9600019846008026113bb565b1980831691505092915050565b60006113f283836113c8565b9150826002028217905092915050565b61140b82610c52565b67ffffffffffffffff81111561142457611423610d76565b5b61142e8254611136565b611439828285611375565b600060209050601f83116001811461146c576000841561145a578287015190505b61146485826113e6565b8655506114cc565b601f19841661147a8661124c565b60005b828110156114a25784890151825560018201915060208501945060208101905061147d565b868310156114bf57848901516114bb601f8916826113c8565b8355505b6001600288020188555050505b505050505050565b7f4e487b7100000000000000000000000000000000000000000000000000000000600052601160045260246000fd5b600061150e82610cfd565b915061151983610cfd565b9250828201905060ff811115611532576115316114d4565b5b9291505056fea2646970667358221220e016bb0bb7f9f54afd3665a04f786cd0c92d5fff4ecd890943657d45dce68d9464736f6c63430008110033",
					"opcodes": "PUSH1 0x80 PUSH1 0x40 MSTORE CALLVALUE DUP1 ISZERO PUSH2 0x10 JUMPI PUSH1 0x0 DUP1 REVERT JUMPDEST POP PUSH2 0x156E DUP1 PUSH2 0x20 PUSH1 0x0 CODECOPY PUSH1 0x0 RETURN INVALID PUSH1 0x80 PUSH1 0x40 MSTORE CALLVALUE DUP1 ISZERO PUSH2 0x10 JUMPI PUSH1 0x0 DUP1 REVERT JUMPDEST POP PUSH1 0x4 CALLDATASIZE LT PUSH2 0x7D JUMPI PUSH1 0x0 CALLDATALOAD PUSH1 0xE0 SHR DUP1 PUSH4 0x8805F0F4 GT PUSH2 0x5B JUMPI DUP1 PUSH4 0x8805F0F4 EQ PUSH2 0xED JUMPI DUP1 PUSH4 0xB6B8AB99 EQ PUSH2 0x11F JUMPI DUP1 PUSH4 0xE05CD31C EQ PUSH2 0x13B JUMPI DUP1 PUSH4 0xF86B0B76 EQ PUSH2 0x157 JUMPI PUSH2 0x7D JUMP JUMPDEST DUP1 PUSH4 0x18AB022F EQ PUSH2 0x82 JUMPI DUP1 PUSH4 0x52DC8F7C EQ PUSH2 0x9E JUMPI DUP1 PUSH4 0x7F3E1E82 EQ PUSH2 0xD1 JUMPI JUMPDEST PUSH1 0x0 DUP1 REVERT JUMPDEST PUSH2 0x9C PUSH1 0x4 DUP1 CALLDATASIZE SUB DUP2 ADD SWAP1 PUSH2 0x97 SWAP2 SWAP1 PUSH2 0xC25 JUMP JUMPDEST PUSH2 0x173 JUMP JUMPDEST STOP JUMPDEST PUSH2 0xB8 PUSH1 0x4 DUP1 CALLDATASIZE SUB DUP2 ADD SWAP1 PUSH2 0xB3 SWAP2 SWAP1 PUSH2 0xC25 JUMP JUMPDEST PUSH2 0x1D0 JUMP JUMPDEST PUSH1 0x40 MLOAD PUSH2 0xC8 SWAP5 SWAP4 SWAP3 SWAP2 SWAP1 PUSH2 0xD19 JUMP JUMPDEST PUSH1 0x40 MLOAD DUP1 SWAP2 SUB SWAP1 RETURN JUMPDEST PUSH2 0xEB PUSH1 0x4 DUP1 CALLDATASIZE SUB DUP2 ADD SWAP1 PUSH2 0xE6 SWAP2 SWAP1 PUSH2 0xEA1 JUMP JUMPDEST PUSH2 0x41D JUMP JUMPDEST STOP JUMPDEST PUSH2 0x107 PUSH1 0x4 DUP1 CALLDATASIZE SUB DUP2 ADD SWAP1 PUSH2 0x102 SWAP2 SWAP1 PUSH2 0xF5C JUMP JUMPDEST PUSH2 0x652 JUMP JUMPDEST PUSH1 0x40 MLOAD PUSH2 0x116 SWAP4 SWAP3 SWAP2 SWAP1 PUSH2 0xFA5 JUMP JUMPDEST PUSH1 0x40 MLOAD DUP1 SWAP2 SUB SWAP1 RETURN JUMPDEST PUSH2 0x139 PUSH1 0x4 DUP1 CALLDATASIZE SUB DUP2 ADD SWAP1 PUSH2 0x134 SWAP2 SWAP1 PUSH2 0xC25 JUMP JUMPDEST PUSH2 0x86B JUMP JUMPDEST STOP JUMPDEST PUSH2 0x155 PUSH1 0x4 DUP1 CALLDATASIZE SUB DUP2 ADD SWAP1 PUSH2 0x150 SWAP2 SWAP1 PUSH2 0xFF1 JUMP JUMPDEST PUSH2 0x8C8 JUMP JUMPDEST STOP JUMPDEST PUSH2 0x171 PUSH1 0x4 DUP1 CALLDATASIZE SUB DUP2 ADD SWAP1 PUSH2 0x16C SWAP2 SWAP1 PUSH2 0x107C JUMP JUMPDEST PUSH2 0xA6B JUMP JUMPDEST STOP JUMPDEST PUSH1 0x0 DUP1 PUSH1 0x0 DUP4 PUSH20 0xFFFFFFFFFFFFFFFFFFFFFFFFFFFFFFFFFFFFFFFF AND PUSH20 0xFFFFFFFFFFFFFFFFFFFFFFFFFFFFFFFFFFFFFFFF AND DUP2 MSTORE PUSH1 0x20 ADD SWAP1 DUP2 MSTORE PUSH1 0x20 ADD PUSH1 0x0 KECCAK256 PUSH1 0x4 ADD PUSH1 0x0 PUSH2 0x100 EXP DUP2 SLOAD DUP2 PUSH1 0xFF MUL NOT AND SWAP1 DUP4 ISZERO ISZERO MUL OR SWAP1 SSTORE POP POP JUMP JUMPDEST PUSH1 0x60 DUP1 PUSH1 0x0 DUP1 PUSH1 0x0 DUP1 DUP7 PUSH20 0xFFFFFFFFFFFFFFFFFFFFFFFFFFFFFFFFFFFFFFFF AND PUSH20 0xFFFFFFFFFFFFFFFFFFFFFFFFFFFFFFFFFFFFFFFF AND DUP2 MSTORE PUSH1 0x20 ADD SWAP1 DUP2 MSTORE PUSH1 0x20 ADD PUSH1 0x0 KECCAK256 PUSH1 0x0 ADD PUSH1 0x0 DUP1 DUP8 PUSH20 0xFFFFFFFFFFFFFFFFFFFFFFFFFFFFFFFFFFFFFFFF AND PUSH20 0xFFFFFFFFFFFFFFFFFFFFFFFFFFFFFFFFFFFFFFFF AND DUP2 MSTORE PUSH1 0x20 ADD SWAP1 DUP2 MSTORE PUSH1 0x20 ADD PUSH1 0x0 KECCAK256 PUSH1 0x3 ADD PUSH1 0x0 DUP1 DUP9 PUSH20 0xFFFFFFFFFFFFFFFFFFFFFFFFFFFFFFFFFFFFFFFF AND PUSH20 0xFFFFFFFFFFFFFFFFFFFFFFFFFFFFFFFFFFFFFFFF AND DUP2 MSTORE PUSH1 0x20 ADD SWAP1 DUP2 MSTORE PUSH1 0x20 ADD PUSH1 0x0 KECCAK256 PUSH1 0x4 ADD PUSH1 0x0 SWAP1 SLOAD SWAP1 PUSH2 0x100 EXP SWAP1 DIV PUSH1 0xFF AND PUSH1 0x0 DUP1 DUP10 PUSH20 0xFFFFFFFFFFFFFFFFFFFFFFFFFFFFFFFFFFFFFFFF AND PUSH20 0xFFFFFFFFFFFFFFFFFFFFFFFFFFFFFFFFFFFFFFFF AND DUP2 MSTORE PUSH1 0x20 ADD SWAP1 DUP2 MSTORE PUSH1 0x20 ADD PUSH1 0x0 KECCAK256 PUSH1 0x4 ADD PUSH1 0x1 SWAP1 SLOAD SWAP1 PUSH2 0x100 EXP SWAP1 DIV PUSH1 0xFF AND DUP4 DUP1 SLOAD PUSH2 0x302 SWAP1 PUSH2 0x1136 JUMP JUMPDEST DUP1 PUSH1 0x1F ADD PUSH1 0x20 DUP1 SWAP2 DIV MUL PUSH1 0x20 ADD PUSH1 0x40 MLOAD SWAP1 DUP2 ADD PUSH1 0x40 MSTORE DUP1 SWAP3 SWAP2 SWAP1 DUP2 DUP2 MSTORE PUSH1 0x20 ADD DUP3 DUP1 SLOAD PUSH2 0x32E SWAP1 PUSH2 0x1136 JUMP JUMPDEST DUP1 ISZERO PUSH2 0x37B JUMPI DUP1 PUSH1 0x1F LT PUSH2 0x350 JUMPI PUSH2 0x100 DUP1 DUP4 SLOAD DIV MUL DUP4 MSTORE SWAP2 PUSH1 0x20 ADD SWAP2 PUSH2 0x37B JUMP JUMPDEST DUP3 ADD SWAP2 SWAP1 PUSH1 0x0 MSTORE PUSH1 0x20 PUSH1 0x0 KECCAK256 SWAP1 JUMPDEST DUP2 SLOAD DUP2 MSTORE SWAP1 PUSH1 0x1 ADD SWAP1 PUSH1 0x20 ADD DUP1 DUP4 GT PUSH2 0x35E JUMPI DUP3 SWAP1 SUB PUSH1 0x1F AND DUP3 ADD SWAP2 JUMPDEST POP POP POP POP POP SWAP4 POP DUP3 DUP1 SLOAD PUSH2 0x38E SWAP1 PUSH2 0x1136 JUMP JUMPDEST DUP1 PUSH1 0x1F ADD PUSH1 0x20 DUP1 SWAP2 DIV MUL PUSH1 0x20 ADD PUSH1 0x40 MLOAD SWAP1 DUP2 ADD PUSH1 0x40 MSTORE DUP1 SWAP3 SWAP2 SWAP1 DUP2 DUP2 MSTORE PUSH1 0x20 ADD DUP3 DUP1 SLOAD PUSH2 0x3BA SWAP1 PUSH2 0x1136 JUMP JUMPDEST DUP1 ISZERO PUSH2 0x407 JUMPI DUP1 PUSH1 0x1F LT PUSH2 0x3DC JUMPI PUSH2 0x100 DUP1 DUP4 SLOAD DIV MUL DUP4 MSTORE SWAP2 PUSH1 0x20 ADD SWAP2 PUSH2 0x407 JUMP JUMPDEST DUP3 ADD SWAP2 SWAP1 PUSH1 0x0 MSTORE PUSH1 0x20 PUSH1 0x0 KECCAK256 SWAP1 JUMPDEST DUP2 SLOAD DUP2 MSTORE SWAP1 PUSH1 0x1 ADD SWAP1 PUSH1 0x20 ADD DUP1 DUP4 GT PUSH2 0x3EA JUMPI DUP3 SWAP1 SUB PUSH1 0x1F AND DUP3 ADD SWAP2 JUMPDEST POP POP POP POP POP SWAP3 POP SWAP4 POP SWAP4 POP SWAP4 POP SWAP4 POP SWAP2 SWAP4 POP SWAP2 SWAP4 JUMP JUMPDEST PUSH1 0x0 DUP1 DUP6 PUSH20 0xFFFFFFFFFFFFFFFFFFFFFFFFFFFFFFFFFFFFFFFF AND PUSH20 0xFFFFFFFFFFFFFFFFFFFFFFFFFFFFFFFFFFFFFFFF AND DUP2 MSTORE PUSH1 0x20 ADD SWAP1 DUP2 MSTORE PUSH1 0x20 ADD PUSH1 0x0 KECCAK256 PUSH1 0x4 ADD PUSH1 0x0 SWAP1 SLOAD SWAP1 PUSH2 0x100 EXP SWAP1 DIV PUSH1 0xFF AND PUSH2 0x4AB JUMPI PUSH1 0x40 MLOAD PUSH32 0x8C379A000000000000000000000000000000000000000000000000000000000 DUP2 MSTORE PUSH1 0x4 ADD PUSH2 0x4A2 SWAP1 PUSH2 0x11D9 JUMP JUMPDEST PUSH1 0x40 MLOAD DUP1 SWAP2 SUB SWAP1 REVERT JUMPDEST DUP3 PUSH1 0x1 DUP5 PUSH1 0x40 MLOAD PUSH2 0x4BC SWAP2 SWAP1 PUSH2 0x1235 JUMP JUMPDEST SWAP1 DUP2 MSTORE PUSH1 0x20 ADD PUSH1 0x40 MLOAD DUP1 SWAP2 SUB SWAP1 KECCAK256 PUSH1 0x1 ADD SWAP1 DUP2 PUSH2 0x4D9 SWAP2 SWAP1 PUSH2 0x1402 JUMP JUMPDEST POP DUP4 PUSH1 0x1 DUP5 PUSH1 0x40 MLOAD PUSH2 0x4EB SWAP2 SWAP1 PUSH2 0x1235 JUMP JUMPDEST SWAP1 DUP2 MSTORE PUSH1 0x20 ADD PUSH1 0x40 MLOAD DUP1 SWAP2 SUB SWAP1 KECCAK256 PUSH1 0x0 ADD PUSH1 0x0 PUSH2 0x100 EXP DUP2 SLOAD DUP2 PUSH20 0xFFFFFFFFFFFFFFFFFFFFFFFFFFFFFFFFFFFFFFFF MUL NOT AND SWAP1 DUP4 PUSH20 0xFFFFFFFFFFFFFFFFFFFFFFFFFFFFFFFFFFFFFFFF AND MUL OR SWAP1 SSTORE POP DUP2 PUSH1 0x1 DUP5 PUSH1 0x40 MLOAD PUSH2 0x54B SWAP2 SWAP1 PUSH2 0x1235 JUMP JUMPDEST SWAP1 DUP2 MSTORE PUSH1 0x20 ADD PUSH1 0x40 MLOAD DUP1 SWAP2 SUB SWAP1 KECCAK256 PUSH1 0x2 ADD SWAP1 DUP2 PUSH2 0x568 SWAP2 SWAP1 PUSH2 0x1402 JUMP JUMPDEST POP DUP1 PUSH1 0x1 DUP5 PUSH1 0x40 MLOAD PUSH2 0x57A SWAP2 SWAP1 PUSH2 0x1235 JUMP JUMPDEST SWAP1 DUP2 MSTORE PUSH1 0x20 ADD PUSH1 0x40 MLOAD DUP1 SWAP2 SUB SWAP1 KECCAK256 PUSH1 0x3 ADD SWAP1 DUP2 PUSH2 0x597 SWAP2 SWAP1 PUSH2 0x1402 JUMP JUMPDEST POP PUSH1 0x1 PUSH1 0x0 DUP1 DUP7 PUSH20 0xFFFFFFFFFFFFFFFFFFFFFFFFFFFFFFFFFFFFFFFF AND PUSH20 0xFFFFFFFFFFFFFFFFFFFFFFFFFFFFFFFFFFFFFFFF AND DUP2 MSTORE PUSH1 0x20 ADD SWAP1 DUP2 MSTORE PUSH1 0x20 ADD PUSH1 0x0 KECCAK256 PUSH1 0x4 ADD PUSH1 0x1 SWAP1 SLOAD SWAP1 PUSH2 0x100 EXP SWAP1 DIV PUSH1 0xFF AND PUSH2 0x5F3 SWAP2 SWAP1 PUSH2 0x1503 JUMP JUMPDEST PUSH1 0x0 DUP1 DUP7 PUSH20 0xFFFFFFFFFFFFFFFFFFFFFFFFFFFFFFFFFFFFFFFF AND PUSH20 0xFFFFFFFFFFFFFFFFFFFFFFFFFFFFFFFFFFFFFFFF AND DUP2 MSTORE PUSH1 0x20 ADD SWAP1 DUP2 MSTORE PUSH1 0x20 ADD PUSH1 0x0 KECCAK256 PUSH1 0x4 ADD PUSH1 0x1 PUSH2 0x100 EXP DUP2 SLOAD DUP2 PUSH1 0xFF MUL NOT AND SWAP1 DUP4 PUSH1 0xFF AND MUL OR SWAP1 SSTORE POP POP POP POP POP JUMP JUMPDEST PUSH1 0x60 DUP1 PUSH1 0x60 PUSH1 0x1 DUP5 PUSH1 0x40 MLOAD PUSH2 0x667 SWAP2 SWAP1 PUSH2 0x1235 JUMP JUMPDEST SWAP1 DUP2 MSTORE PUSH1 0x20 ADD PUSH1 0x40 MLOAD DUP1 SWAP2 SUB SWAP1 KECCAK256 PUSH1 0x1 ADD PUSH1 0x1 DUP6 PUSH1 0x40 MLOAD PUSH2 0x688 SWAP2 SWAP1 PUSH2 0x1235 JUMP JUMPDEST SWAP1 DUP2 MSTORE PUSH1 0x20 ADD PUSH1 0x40 MLOAD DUP1 SWAP2 SUB SWAP1 KECCAK256 PUSH1 0x3 ADD PUSH1 0x1 DUP7 PUSH1 0x40 MLOAD PUSH2 0x6A9 SWAP2 SWAP1 PUSH2 0x1235 JUMP JUMPDEST SWAP1 DUP2 MSTORE PUSH1 0x20 ADD PUSH1 0x40 MLOAD DUP1 SWAP2 SUB SWAP1 KECCAK256 PUSH1 0x2 ADD DUP3 DUP1 SLOAD PUSH2 0x6C6 SWAP1 PUSH2 0x1136 JUMP JUMPDEST DUP1 PUSH1 0x1F ADD PUSH1 0x20 DUP1 SWAP2 DIV MUL PUSH1 0x20 ADD PUSH1 0x40 MLOAD SWAP1 DUP2 ADD PUSH1 0x40 MSTORE DUP1 SWAP3 SWAP2 SWAP1 DUP2 DUP2 MSTORE PUSH1 0x20 ADD DUP3 DUP1 SLOAD PUSH2 0x6F2 SWAP1 PUSH2 0x1136 JUMP JUMPDEST DUP1 ISZERO PUSH2 0x73F JUMPI DUP1 PUSH1 0x1F LT PUSH2 0x714 JUMPI PUSH2 0x100 DUP1 DUP4 SLOAD DIV MUL DUP4 MSTORE SWAP2 PUSH1 0x20 ADD SWAP2 PUSH2 0x73F JUMP JUMPDEST DUP3 ADD SWAP2 SWAP1 PUSH1 0x0 MSTORE PUSH1 0x20 PUSH1 0x0 KECCAK256 SWAP1 JUMPDEST DUP2 SLOAD DUP2 MSTORE SWAP1 PUSH1 0x1 ADD SWAP1 PUSH1 0x20 ADD DUP1 DUP4 GT PUSH2 0x722 JUMPI DUP3 SWAP1 SUB PUSH1 0x1F AND DUP3 ADD SWAP2 JUMPDEST POP POP POP POP POP SWAP3 POP DUP2 DUP1 SLOAD PUSH2 0x752 SWAP1 PUSH2 0x1136 JUMP JUMPDEST DUP1 PUSH1 0x1F ADD PUSH1 0x20 DUP1 SWAP2 DIV MUL PUSH1 0x20 ADD PUSH1 0x40 MLOAD SWAP1 DUP2 ADD PUSH1 0x40 MSTORE DUP1 SWAP3 SWAP2 SWAP1 DUP2 DUP2 MSTORE PUSH1 0x20 ADD DUP3 DUP1 SLOAD PUSH2 0x77E SWAP1 PUSH2 0x1136 JUMP JUMPDEST DUP1 ISZERO PUSH2 0x7CB JUMPI DUP1 PUSH1 0x1F LT PUSH2 0x7A0 JUMPI PUSH2 0x100 DUP1 DUP4 SLOAD DIV MUL DUP4 MSTORE SWAP2 PUSH1 0x20 ADD SWAP2 PUSH2 0x7CB JUMP JUMPDEST DUP3 ADD SWAP2 SWAP1 PUSH1 0x0 MSTORE PUSH1 0x20 PUSH1 0x0 KECCAK256 SWAP1 JUMPDEST DUP2 SLOAD DUP2 MSTORE SWAP1 PUSH1 0x1 ADD SWAP1 PUSH1 0x20 ADD DUP1 DUP4 GT PUSH2 0x7AE JUMPI DUP3 SWAP1 SUB PUSH1 0x1F AND DUP3 ADD SWAP2 JUMPDEST POP POP POP POP POP SWAP2 POP DUP1 DUP1 SLOAD PUSH2 0x7DE SWAP1 PUSH2 0x1136 JUMP JUMPDEST DUP1 PUSH1 0x1F ADD PUSH1 0x20 DUP1 SWAP2 DIV MUL PUSH1 0x20 ADD PUSH1 0x40 MLOAD SWAP1 DUP2 ADD PUSH1 0x40 MSTORE DUP1 SWAP3 SWAP2 SWAP1 DUP2 DUP2 MSTORE PUSH1 0x20 ADD DUP3 DUP1 SLOAD PUSH2 0x80A SWAP1 PUSH2 0x1136 JUMP JUMPDEST DUP1 ISZERO PUSH2 0x857 JUMPI DUP1 PUSH1 0x1F LT PUSH2 0x82C JUMPI PUSH2 0x100 DUP1 DUP4 SLOAD DIV MUL DUP4 MSTORE SWAP2 PUSH1 0x20 ADD SWAP2 PUSH2 0x857 JUMP JUMPDEST DUP3 ADD SWAP2 SWAP1 PUSH1 0x0 MSTORE PUSH1 0x20 PUSH1 0x0 KECCAK256 SWAP1 JUMPDEST DUP2 SLOAD DUP2 MSTORE SWAP1 PUSH1 0x1 ADD SWAP1 PUSH1 0x20 ADD DUP1 DUP4 GT PUSH2 0x83A JUMPI DUP3 SWAP1 SUB PUSH1 0x1F AND DUP3 ADD SWAP2 JUMPDEST POP POP POP POP POP SWAP1 POP SWAP3 POP SWAP3 POP SWAP3 POP SWAP2 SWAP4 SWAP1 SWAP3 POP JUMP JUMPDEST PUSH1 0x1 PUSH1 0x0 DUP1 DUP4 PUSH20 0xFFFFFFFFFFFFFFFFFFFFFFFFFFFFFFFFFFFFFFFF AND PUSH20 0xFFFFFFFFFFFFFFFFFFFFFFFFFFFFFFFFFFFFFFFF AND DUP2 MSTORE PUSH1 0x20 ADD SWAP1 DUP2 MSTORE PUSH1 0x20 ADD PUSH1 0x0 KECCAK256 PUSH1 0x4 ADD PUSH1 0x0 PUSH2 0x100 EXP DUP2 SLOAD DUP2 PUSH1 0xFF MUL NOT AND SWAP1 DUP4 ISZERO ISZERO MUL OR SWAP1 SSTORE POP POP JUMP JUMPDEST DUP3 PUSH1 0x0 DUP1 DUP4 PUSH20 0xFFFFFFFFFFFFFFFFFFFFFFFFFFFFFFFFFFFFFFFF AND PUSH20 0xFFFFFFFFFFFFFFFFFFFFFFFFFFFFFFFFFFFFFFFF AND DUP2 MSTORE PUSH1 0x20 ADD SWAP1 DUP2 MSTORE PUSH1 0x20 ADD PUSH1 0x0 KECCAK256 PUSH1 0x0 ADD SWAP1 DUP2 PUSH2 0x916 SWAP2 SWAP1 PUSH2 0x1402 JUMP JUMPDEST POP DUP1 PUSH1 0x0 DUP1 DUP4 PUSH20 0xFFFFFFFFFFFFFFFFFFFFFFFFFFFFFFFFFFFFFFFF AND PUSH20 0xFFFFFFFFFFFFFFFFFFFFFFFFFFFFFFFFFFFFFFFF AND DUP2 MSTORE PUSH1 0x20 ADD SWAP1 DUP2 MSTORE PUSH1 0x20 ADD PUSH1 0x0 KECCAK256 PUSH1 0x1 ADD PUSH1 0x0 PUSH2 0x100 EXP DUP2 SLOAD DUP2 PUSH20 0xFFFFFFFFFFFFFFFFFFFFFFFFFFFFFFFFFFFFFFFF MUL NOT AND SWAP1 DUP4 PUSH20 0xFFFFFFFFFFFFFFFFFFFFFFFFFFFFFFFFFFFFFFFF AND MUL OR SWAP1 SSTORE POP DUP2 PUSH1 0x0 DUP1 DUP4 PUSH20 0xFFFFFFFFFFFFFFFFFFFFFFFFFFFFFFFFFFFFFFFF AND PUSH20 0xFFFFFFFFFFFFFFFFFFFFFFFFFFFFFFFFFFFFFFFF AND DUP2 MSTORE PUSH1 0x20 ADD SWAP1 DUP2 MSTORE PUSH1 0x20 ADD PUSH1 0x0 KECCAK256 PUSH1 0x3 ADD SWAP1 DUP2 PUSH2 0x9E5 SWAP2 SWAP1 PUSH2 0x1402 JUMP JUMPDEST POP CALLER PUSH1 0x0 DUP1 DUP4 PUSH20 0xFFFFFFFFFFFFFFFFFFFFFFFFFFFFFFFFFFFFFFFF AND PUSH20 0xFFFFFFFFFFFFFFFFFFFFFFFFFFFFFFFFFFFFFFFF AND DUP2 MSTORE PUSH1 0x20 ADD SWAP1 DUP2 MSTORE PUSH1 0x20 ADD PUSH1 0x0 KECCAK256 PUSH1 0x2 ADD PUSH1 0x0 PUSH2 0x100 EXP DUP2 SLOAD DUP2 PUSH20 0xFFFFFFFFFFFFFFFFFFFFFFFFFFFFFFFFFFFFFFFF MUL NOT AND SWAP1 DUP4 PUSH20 0xFFFFFFFFFFFFFFFFFFFFFFFFFFFFFFFFFFFFFFFF AND MUL OR SWAP1 SSTORE POP POP POP POP JUMP JUMPDEST DUP3 PUSH1 0x1 DUP4 PUSH1 0x40 MLOAD PUSH2 0xA7C SWAP2 SWAP1 PUSH2 0x1235 JUMP JUMPDEST SWAP1 DUP2 MSTORE PUSH1 0x20 ADD PUSH1 0x40 MLOAD DUP1 SWAP2 SUB SWAP1 KECCAK256 PUSH1 0x0 ADD PUSH1 0x0 PUSH2 0x100 EXP DUP2 SLOAD DUP2 PUSH20 0xFFFFFFFFFFFFFFFFFFFFFFFFFFFFFFFFFFFFFFFF MUL NOT AND SWAP1 DUP4 PUSH20 0xFFFFFFFFFFFFFFFFFFFFFFFFFFFFFFFFFFFFFFFF AND MUL OR SWAP1 SSTORE POP DUP1 PUSH1 0x1 DUP4 PUSH1 0x40 MLOAD PUSH2 0xADC SWAP2 SWAP1 PUSH2 0x1235 JUMP JUMPDEST SWAP1 DUP2 MSTORE PUSH1 0x20 ADD PUSH1 0x40 MLOAD DUP1 SWAP2 SUB SWAP1 KECCAK256 PUSH1 0x3 ADD SWAP1 DUP2 PUSH2 0xAF9 SWAP2 SWAP1 PUSH2 0x1402 JUMP JUMPDEST POP PUSH1 0x1 PUSH1 0x0 DUP1 DUP6 PUSH20 0xFFFFFFFFFFFFFFFFFFFFFFFFFFFFFFFFFFFFFFFF AND PUSH20 0xFFFFFFFFFFFFFFFFFFFFFFFFFFFFFFFFFFFFFFFF AND DUP2 MSTORE PUSH1 0x20 ADD SWAP1 DUP2 MSTORE PUSH1 0x20 ADD PUSH1 0x0 KECCAK256 PUSH1 0x4 ADD PUSH1 0x1 SWAP1 SLOAD SWAP1 PUSH2 0x100 EXP SWAP1 DIV PUSH1 0xFF AND PUSH2 0xB55 SWAP2 SWAP1 PUSH2 0x1503 JUMP JUMPDEST PUSH1 0x0 DUP1 DUP6 PUSH20 0xFFFFFFFFFFFFFFFFFFFFFFFFFFFFFFFFFFFFFFFF AND PUSH20 0xFFFFFFFFFFFFFFFFFFFFFFFFFFFFFFFFFFFFFFFF AND DUP2 MSTORE PUSH1 0x20 ADD SWAP1 DUP2 MSTORE PUSH1 0x20 ADD PUSH1 0x0 KECCAK256 PUSH1 0x4 ADD PUSH1 0x1 PUSH2 0x100 EXP DUP2 SLOAD DUP2 PUSH1 0xFF MUL NOT AND SWAP1 DUP4 PUSH1 0xFF AND MUL OR SWAP1 SSTORE POP POP POP POP JUMP JUMPDEST PUSH1 0x0 PUSH1 0x40 MLOAD SWAP1 POP SWAP1 JUMP JUMPDEST PUSH1 0x0 DUP1 REVERT JUMPDEST PUSH1 0x0 DUP1 REVERT JUMPDEST PUSH1 0x0 PUSH20 0xFFFFFFFFFFFFFFFFFFFFFFFFFFFFFFFFFFFFFFFF DUP3 AND SWAP1 POP SWAP2 SWAP1 POP JUMP JUMPDEST PUSH1 0x0 PUSH2 0xBF2 DUP3 PUSH2 0xBC7 JUMP JUMPDEST SWAP1 POP SWAP2 SWAP1 POP JUMP JUMPDEST PUSH2 0xC02 DUP2 PUSH2 0xBE7 JUMP JUMPDEST DUP2 EQ PUSH2 0xC0D JUMPI PUSH1 0x0 DUP1 REVERT JUMPDEST POP JUMP JUMPDEST PUSH1 0x0 DUP2 CALLDATALOAD SWAP1 POP PUSH2 0xC1F DUP2 PUSH2 0xBF9 JUMP JUMPDEST SWAP3 SWAP2 POP POP JUMP JUMPDEST PUSH1 0x0 PUSH1 0x20 DUP3 DUP5 SUB SLT ISZERO PUSH2 0xC3B JUMPI PUSH2 0xC3A PUSH2 0xBBD JUMP JUMPDEST JUMPDEST PUSH1 0x0 PUSH2 0xC49 DUP5 DUP3 DUP6 ADD PUSH2 0xC10 JUMP JUMPDEST SWAP2 POP POP SWAP3 SWAP2 POP POP JUMP JUMPDEST PUSH1 0x0 DUP2 MLOAD SWAP1 POP SWAP2 SWAP1 POP JUMP JUMPDEST PUSH1 0x0 DUP3 DUP3 MSTORE PUSH1 0x20 DUP3 ADD SWAP1 POP SWAP3 SWAP2 POP POP JUMP JUMPDEST PUSH1 0x0 JUMPDEST DUP4 DUP2 LT ISZERO PUSH2 0xC8C JUMPI DUP1 DUP3 ADD MLOAD DUP2 DUP5 ADD MSTORE PUSH1 0x20 DUP2 ADD SWAP1 POP PUSH2 0xC71 JUMP JUMPDEST PUSH1 0x0 DUP5 DUP5 ADD MSTORE POP POP POP POP JUMP JUMPDEST PUSH1 0x0 PUSH1 0x1F NOT PUSH1 0x1F DUP4 ADD AND SWAP1 POP SWAP2 SWAP1 POP JUMP JUMPDEST PUSH1 0x0 PUSH2 0xCB4 DUP3 PUSH2 0xC52 JUMP JUMPDEST PUSH2 0xCBE DUP2 DUP6 PUSH2 0xC5D JUMP JUMPDEST SWAP4 POP PUSH2 0xCCE DUP2 DUP6 PUSH1 0x20 DUP7 ADD PUSH2 0xC6E JUMP JUMPDEST PUSH2 0xCD7 DUP2 PUSH2 0xC98 JUMP JUMPDEST DUP5 ADD SWAP2 POP POP SWAP3 SWAP2 POP POP JUMP JUMPDEST PUSH1 0x0 DUP2 ISZERO ISZERO SWAP1 POP SWAP2 SWAP1 POP JUMP JUMPDEST PUSH2 0xCF7 DUP2 PUSH2 0xCE2 JUMP JUMPDEST DUP3 MSTORE POP POP JUMP JUMPDEST PUSH1 0x0 PUSH1 0xFF DUP3 AND SWAP1 POP SWAP2 SWAP1 POP JUMP JUMPDEST PUSH2 0xD13 DUP2 PUSH2 0xCFD JUMP JUMPDEST DUP3 MSTORE POP POP JUMP JUMPDEST PUSH1 0x0 PUSH1 0x80 DUP3 ADD SWAP1 POP DUP2 DUP2 SUB PUSH1 0x0 DUP4 ADD MSTORE PUSH2 0xD33 DUP2 DUP8 PUSH2 0xCA9 JUMP JUMPDEST SWAP1 POP DUP2 DUP2 SUB PUSH1 0x20 DUP4 ADD MSTORE PUSH2 0xD47 DUP2 DUP7 PUSH2 0xCA9 JUMP JUMPDEST SWAP1 POP PUSH2 0xD56 PUSH1 0x40 DUP4 ADD DUP6 PUSH2 0xCEE JUMP JUMPDEST PUSH2 0xD63 PUSH1 0x60 DUP4 ADD DUP5 PUSH2 0xD0A JUMP JUMPDEST SWAP6 SWAP5 POP POP POP POP POP JUMP JUMPDEST PUSH1 0x0 DUP1 REVERT JUMPDEST PUSH1 0x0 DUP1 REVERT JUMPDEST PUSH32 0x4E487B7100000000000000000000000000000000000000000000000000000000 PUSH1 0x0 MSTORE PUSH1 0x41 PUSH1 0x4 MSTORE PUSH1 0x24 PUSH1 0x0 REVERT JUMPDEST PUSH2 0xDAE DUP3 PUSH2 0xC98 JUMP JUMPDEST DUP2 ADD DUP2 DUP2 LT PUSH8 0xFFFFFFFFFFFFFFFF DUP3 GT OR ISZERO PUSH2 0xDCD JUMPI PUSH2 0xDCC PUSH2 0xD76 JUMP JUMPDEST JUMPDEST DUP1 PUSH1 0x40 MSTORE POP POP POP JUMP JUMPDEST PUSH1 0x0 PUSH2 0xDE0 PUSH2 0xBB3 JUMP JUMPDEST SWAP1 POP PUSH2 0xDEC DUP3 DUP3 PUSH2 0xDA5 JUMP JUMPDEST SWAP2 SWAP1 POP JUMP JUMPDEST PUSH1 0x0 PUSH8 0xFFFFFFFFFFFFFFFF DUP3 GT ISZERO PUSH2 0xE0C JUMPI PUSH2 0xE0B PUSH2 0xD76 JUMP JUMPDEST JUMPDEST PUSH2 0xE15 DUP3 PUSH2 0xC98 JUMP JUMPDEST SWAP1 POP PUSH1 0x20 DUP2 ADD SWAP1 POP SWAP2 SWAP1 POP JUMP JUMPDEST DUP3 DUP2 DUP4 CALLDATACOPY PUSH1 0x0 DUP4 DUP4 ADD MSTORE POP POP POP JUMP JUMPDEST PUSH1 0x0 PUSH2 0xE44 PUSH2 0xE3F DUP5 PUSH2 0xDF1 JUMP JUMPDEST PUSH2 0xDD6 JUMP JUMPDEST SWAP1 POP DUP3 DUP2 MSTORE PUSH1 0x20 DUP2 ADD DUP5 DUP5 DUP5 ADD GT ISZERO PUSH2 0xE60 JUMPI PUSH2 0xE5F PUSH2 0xD71 JUMP JUMPDEST JUMPDEST PUSH2 0xE6B DUP5 DUP3 DUP6 PUSH2 0xE22 JUMP JUMPDEST POP SWAP4 SWAP3 POP POP POP JUMP JUMPDEST PUSH1 0x0 DUP3 PUSH1 0x1F DUP4 ADD SLT PUSH2 0xE88 JUMPI PUSH2 0xE87 PUSH2 0xD6C JUMP JUMPDEST JUMPDEST DUP2 CALLDATALOAD PUSH2 0xE98 DUP5 DUP3 PUSH1 0x20 DUP7 ADD PUSH2 0xE31 JUMP JUMPDEST SWAP2 POP POP SWAP3 SWAP2 POP POP JUMP JUMPDEST PUSH1 0x0 DUP1 PUSH1 0x0 DUP1 PUSH1 0x80 DUP6 DUP8 SUB SLT ISZERO PUSH2 0xEBB JUMPI PUSH2 0xEBA PUSH2 0xBBD JUMP JUMPDEST JUMPDEST PUSH1 0x0 PUSH2 0xEC9 DUP8 DUP3 DUP9 ADD PUSH2 0xC10 JUMP JUMPDEST SWAP5 POP POP PUSH1 0x20 DUP6 ADD CALLDATALOAD PUSH8 0xFFFFFFFFFFFFFFFF DUP2 GT ISZERO PUSH2 0xEEA JUMPI PUSH2 0xEE9 PUSH2 0xBC2 JUMP JUMPDEST JUMPDEST PUSH2 0xEF6 DUP8 DUP3 DUP9 ADD PUSH2 0xE73 JUMP JUMPDEST SWAP4 POP POP PUSH1 0x40 DUP6 ADD CALLDATALOAD PUSH8 0xFFFFFFFFFFFFFFFF DUP2 GT ISZERO PUSH2 0xF17 JUMPI PUSH2 0xF16 PUSH2 0xBC2 JUMP JUMPDEST JUMPDEST PUSH2 0xF23 DUP8 DUP3 DUP9 ADD PUSH2 0xE73 JUMP JUMPDEST SWAP3 POP POP PUSH1 0x60 DUP6 ADD CALLDATALOAD PUSH8 0xFFFFFFFFFFFFFFFF DUP2 GT ISZERO PUSH2 0xF44 JUMPI PUSH2 0xF43 PUSH2 0xBC2 JUMP JUMPDEST JUMPDEST PUSH2 0xF50 DUP8 DUP3 DUP9 ADD PUSH2 0xE73 JUMP JUMPDEST SWAP2 POP POP SWAP3 SWAP6 SWAP2 SWAP5 POP SWAP3 POP JUMP JUMPDEST PUSH1 0x0 PUSH1 0x20 DUP3 DUP5 SUB SLT ISZERO PUSH2 0xF72 JUMPI PUSH2 0xF71 PUSH2 0xBBD JUMP JUMPDEST JUMPDEST PUSH1 0x0 DUP3 ADD CALLDATALOAD PUSH8 0xFFFFFFFFFFFFFFFF DUP2 GT ISZERO PUSH2 0xF90 JUMPI PUSH2 0xF8F PUSH2 0xBC2 JUMP JUMPDEST JUMPDEST PUSH2 0xF9C DUP5 DUP3 DUP6 ADD PUSH2 0xE73 JUMP JUMPDEST SWAP2 POP POP SWAP3 SWAP2 POP POP JUMP JUMPDEST PUSH1 0x0 PUSH1 0x60 DUP3 ADD SWAP1 POP DUP2 DUP2 SUB PUSH1 0x0 DUP4 ADD MSTORE PUSH2 0xFBF DUP2 DUP7 PUSH2 0xCA9 JUMP JUMPDEST SWAP1 POP DUP2 DUP2 SUB PUSH1 0x20 DUP4 ADD MSTORE PUSH2 0xFD3 DUP2 DUP6 PUSH2 0xCA9 JUMP JUMPDEST SWAP1 POP DUP2 DUP2 SUB PUSH1 0x40 DUP4 ADD MSTORE PUSH2 0xFE7 DUP2 DUP5 PUSH2 0xCA9 JUMP JUMPDEST SWAP1 POP SWAP5 SWAP4 POP POP POP POP JUMP JUMPDEST PUSH1 0x0 DUP1 PUSH1 0x0 PUSH1 0x60 DUP5 DUP7 SUB SLT ISZERO PUSH2 0x100A JUMPI PUSH2 0x1009 PUSH2 0xBBD JUMP JUMPDEST JUMPDEST PUSH1 0x0 DUP5 ADD CALLDATALOAD PUSH8 0xFFFFFFFFFFFFFFFF DUP2 GT ISZERO PUSH2 0x1028 JUMPI PUSH2 0x1027 PUSH2 0xBC2 JUMP JUMPDEST JUMPDEST PUSH2 0x1034 DUP7 DUP3 DUP8 ADD PUSH2 0xE73 JUMP JUMPDEST SWAP4 POP POP PUSH1 0x20 DUP5 ADD CALLDATALOAD PUSH8 0xFFFFFFFFFFFFFFFF DUP2 GT ISZERO PUSH2 0x1055 JUMPI PUSH2 0x1054 PUSH2 0xBC2 JUMP JUMPDEST JUMPDEST PUSH2 0x1061 DUP7 DUP3 DUP8 ADD PUSH2 0xE73 JUMP JUMPDEST SWAP3 POP POP PUSH1 0x40 PUSH2 0x1072 DUP7 DUP3 DUP8 ADD PUSH2 0xC10 JUMP JUMPDEST SWAP2 POP POP SWAP3 POP SWAP3 POP SWAP3 JUMP JUMPDEST PUSH1 0x0 DUP1 PUSH1 0x0 PUSH1 0x60 DUP5 DUP7 SUB SLT ISZERO PUSH2 0x1095 JUMPI PUSH2 0x1094 PUSH2 0xBBD JUMP JUMPDEST JUMPDEST PUSH1 0x0 PUSH2 0x10A3 DUP7 DUP3 DUP8 ADD PUSH2 0xC10 JUMP JUMPDEST SWAP4 POP POP PUSH1 0x20 DUP5 ADD CALLDATALOAD PUSH8 0xFFFFFFFFFFFFFFFF DUP2 GT ISZERO PUSH2 0x10C4 JUMPI PUSH2 0x10C3 PUSH2 0xBC2 JUMP JUMPDEST JUMPDEST PUSH2 0x10D0 DUP7 DUP3 DUP8 ADD PUSH2 0xE73 JUMP JUMPDEST SWAP3 POP POP PUSH1 0x40 DUP5 ADD CALLDATALOAD PUSH8 0xFFFFFFFFFFFFFFFF DUP2 GT ISZERO PUSH2 0x10F1 JUMPI PUSH2 0x10F0 PUSH2 0xBC2 JUMP JUMPDEST JUMPDEST PUSH2 0x10FD DUP7 DUP3 DUP8 ADD PUSH2 0xE73 JUMP JUMPDEST SWAP2 POP POP SWAP3 POP SWAP3 POP SWAP3 JUMP JUMPDEST PUSH32 0x4E487B7100000000000000000000000000000000000000000000000000000000 PUSH1 0x0 MSTORE PUSH1 0x22 PUSH1 0x4 MSTORE PUSH1 0x24 PUSH1 0x0 REVERT JUMPDEST PUSH1 0x0 PUSH1 0x2 DUP3 DIV SWAP1 POP PUSH1 0x1 DUP3 AND DUP1 PUSH2 0x114E JUMPI PUSH1 0x7F DUP3 AND SWAP2 POP JUMPDEST PUSH1 0x20 DUP3 LT DUP2 SUB PUSH2 0x1161 JUMPI PUSH2 0x1160 PUSH2 0x1107 JUMP JUMPDEST JUMPDEST POP SWAP2 SWAP1 POP JUMP JUMPDEST PUSH32 0x53747564656E7420726567697374726174696F6E206E6F7420616C6C6F776564 PUSH1 0x0 DUP3 ADD MSTORE PUSH32 0x20696E2073656C656374656420636F6C6C656765210000000000000000000000 PUSH1 0x20 DUP3 ADD MSTORE POP JUMP JUMPDEST PUSH1 0x0 PUSH2 0x11C3 PUSH1 0x35 DUP4 PUSH2 0xC5D JUMP JUMPDEST SWAP2 POP PUSH2 0x11CE DUP3 PUSH2 0x1167 JUMP JUMPDEST PUSH1 0x40 DUP3 ADD SWAP1 POP SWAP2 SWAP1 POP JUMP JUMPDEST PUSH1 0x0 PUSH1 0x20 DUP3 ADD SWAP1 POP DUP2 DUP2 SUB PUSH1 0x0 DUP4 ADD MSTORE PUSH2 0x11F2 DUP2 PUSH2 0x11B6 JUMP JUMPDEST SWAP1 POP SWAP2 SWAP1 POP JUMP JUMPDEST PUSH1 0x0 DUP2 SWAP1 POP SWAP3 SWAP2 POP POP JUMP JUMPDEST PUSH1 0x0 PUSH2 0x120F DUP3 PUSH2 0xC52 JUMP JUMPDEST PUSH2 0x1219 DUP2 DUP6 PUSH2 0x11F9 JUMP JUMPDEST SWAP4 POP PUSH2 0x1229 DUP2 DUP6 PUSH1 0x20 DUP7 ADD PUSH2 0xC6E JUMP JUMPDEST DUP1 DUP5 ADD SWAP2 POP POP SWAP3 SWAP2 POP POP JUMP JUMPDEST PUSH1 0x0 PUSH2 0x1241 DUP3 DUP5 PUSH2 0x1204 JUMP JUMPDEST SWAP2 POP DUP2 SWAP1 POP SWAP3 SWAP2 POP POP JUMP JUMPDEST PUSH1 0x0 DUP2 SWAP1 POP DUP2 PUSH1 0x0 MSTORE PUSH1 0x20 PUSH1 0x0 KECCAK256 SWAP1 POP SWAP2 SWAP1 POP JUMP JUMPDEST PUSH1 0x0 PUSH1 0x20 PUSH1 0x1F DUP4 ADD DIV SWAP1 POP SWAP2 SWAP1 POP JUMP JUMPDEST PUSH1 0x0 DUP3 DUP3 SHL SWAP1 POP SWAP3 SWAP2 POP POP JUMP JUMPDEST PUSH1 0x0 PUSH1 0x8 DUP4 MUL PUSH2 0x12AE PUSH32 0xFFFFFFFFFFFFFFFFFFFFFFFFFFFFFFFFFFFFFFFFFFFFFFFFFFFFFFFFFFFFFFFF DUP3 PUSH2 0x1271 JUMP JUMPDEST PUSH2 0x12B8 DUP7 DUP4 PUSH2 0x1271 JUMP JUMPDEST SWAP6 POP DUP1 NOT DUP5 AND SWAP4 POP DUP1 DUP7 AND DUP5 OR SWAP3 POP POP POP SWAP4 SWAP3 POP POP POP JUMP JUMPDEST PUSH1 0x0 DUP2 SWAP1 POP SWAP2 SWAP1 POP JUMP JUMPDEST PUSH1 0x0 DUP2 SWAP1 POP SWAP2 SWAP1 POP JUMP JUMPDEST PUSH1 0x0 PUSH2 0x12FF PUSH2 0x12FA PUSH2 0x12F5 DUP5 PUSH2 0x12D0 JUMP JUMPDEST PUSH2 0x12DA JUMP JUMPDEST PUSH2 0x12D0 JUMP JUMPDEST SWAP1 POP SWAP2 SWAP1 POP JUMP JUMPDEST PUSH1 0x0 DUP2 SWAP1 POP SWAP2 SWAP1 POP JUMP JUMPDEST PUSH2 0x1319 DUP4 PUSH2 0x12E4 JUMP JUMPDEST PUSH2 0x132D PUSH2 0x1325 DUP3 PUSH2 0x1306 JUMP JUMPDEST DUP5 DUP5 SLOAD PUSH2 0x127E JUMP JUMPDEST DUP3 SSTORE POP POP POP POP JUMP JUMPDEST PUSH1 0x0 SWAP1 JUMP JUMPDEST PUSH2 0x1342 PUSH2 0x1335 JUMP JUMPDEST PUSH2 0x134D DUP2 DUP5 DUP5 PUSH2 0x1310 JUMP JUMPDEST POP POP POP JUMP JUMPDEST JUMPDEST DUP2 DUP2 LT ISZERO PUSH2 0x1371 JUMPI PUSH2 0x1366 PUSH1 0x0 DUP3 PUSH2 0x133A JUMP JUMPDEST PUSH1 0x1 DUP2 ADD SWAP1 POP PUSH2 0x1353 JUMP JUMPDEST POP POP JUMP JUMPDEST PUSH1 0x1F DUP3 GT ISZERO PUSH2 0x13B6 JUMPI PUSH2 0x1387 DUP2 PUSH2 0x124C JUMP JUMPDEST PUSH2 0x1390 DUP5 PUSH2 0x1261 JUMP JUMPDEST DUP2 ADD PUSH1 0x20 DUP6 LT ISZERO PUSH2 0x139F JUMPI DUP2 SWAP1 POP JUMPDEST PUSH2 0x13B3 PUSH2 0x13AB DUP6 PUSH2 0x1261 JUMP JUMPDEST DUP4 ADD DUP3 PUSH2 0x1352 JUMP JUMPDEST POP POP JUMPDEST POP POP POP JUMP JUMPDEST PUSH1 0x0 DUP3 DUP3 SHR SWAP1 POP SWAP3 SWAP2 POP POP JUMP JUMPDEST PUSH1 0x0 PUSH2 0x13D9 PUSH1 0x0 NOT DUP5 PUSH1 0x8 MUL PUSH2 0x13BB JUMP JUMPDEST NOT DUP1 DUP4 AND SWAP2 POP POP SWAP3 SWAP2 POP POP JUMP JUMPDEST PUSH1 0x0 PUSH2 0x13F2 DUP4 DUP4 PUSH2 0x13C8 JUMP JUMPDEST SWAP2 POP DUP3 PUSH1 0x2 MUL DUP3 OR SWAP1 POP SWAP3 SWAP2 POP POP JUMP JUMPDEST PUSH2 0x140B DUP3 PUSH2 0xC52 JUMP JUMPDEST PUSH8 0xFFFFFFFFFFFFFFFF DUP2 GT ISZERO PUSH2 0x1424 JUMPI PUSH2 0x1423 PUSH2 0xD76 JUMP JUMPDEST JUMPDEST PUSH2 0x142E DUP3 SLOAD PUSH2 0x1136 JUMP JUMPDEST PUSH2 0x1439 DUP3 DUP3 DUP6 PUSH2 0x1375 JUMP JUMPDEST PUSH1 0x0 PUSH1 0x20 SWAP1 POP PUSH1 0x1F DUP4 GT PUSH1 0x1 DUP2 EQ PUSH2 0x146C JUMPI PUSH1 0x0 DUP5 ISZERO PUSH2 0x145A JUMPI DUP3 DUP8 ADD MLOAD SWAP1 POP JUMPDEST PUSH2 0x1464 DUP6 DUP3 PUSH2 0x13E6 JUMP JUMPDEST DUP7 SSTORE POP PUSH2 0x14CC JUMP JUMPDEST PUSH1 0x1F NOT DUP5 AND PUSH2 0x147A DUP7 PUSH2 0x124C JUMP JUMPDEST PUSH1 0x0 JUMPDEST DUP3 DUP2 LT ISZERO PUSH2 0x14A2 JUMPI DUP5 DUP10 ADD MLOAD DUP3 SSTORE PUSH1 0x1 DUP3 ADD SWAP2 POP PUSH1 0x20 DUP6 ADD SWAP5 POP PUSH1 0x20 DUP2 ADD SWAP1 POP PUSH2 0x147D JUMP JUMPDEST DUP7 DUP4 LT ISZERO PUSH2 0x14BF JUMPI DUP5 DUP10 ADD MLOAD PUSH2 0x14BB PUSH1 0x1F DUP10 AND DUP3 PUSH2 0x13C8 JUMP JUMPDEST DUP4 SSTORE POP JUMPDEST PUSH1 0x1 PUSH1 0x2 DUP9 MUL ADD DUP9 SSTORE POP POP POP JUMPDEST POP POP POP POP POP POP JUMP JUMPDEST PUSH32 0x4E487B7100000000000000000000000000000000000000000000000000000000 PUSH1 0x0 MSTORE PUSH1 0x11 PUSH1 0x4 MSTORE PUSH1 0x24 PUSH1 0x0 REVERT JUMPDEST PUSH1 0x0 PUSH2 0x150E DUP3 PUSH2 0xCFD JUMP JUMPDEST SWAP2 POP PUSH2 0x1519 DUP4 PUSH2 0xCFD JUMP JUMPDEST SWAP3 POP DUP3 DUP3 ADD SWAP1 POP PUSH1 0xFF DUP2 GT ISZERO PUSH2 0x1532 JUMPI PUSH2 0x1531 PUSH2 0x14D4 JUMP JUMPDEST JUMPDEST SWAP3 SWAP2 POP POP JUMP INVALID LOG2 PUSH5 0x6970667358 0x22 SLT KECCAK256 0xE0 AND 0xBB SIGNEXTEND 0xB7 0xF9 CREATE2 0x4A REVERT CALLDATASIZE PUSH6 0xA04F786CD0C9 0x2D 0x5F SELFDESTRUCT 0x4E 0xCD DUP10 MULMOD NUMBER PUSH6 0x7D45DCE68D94 PUSH5 0x736F6C6343 STOP ADDMOD GT STOP CALLER "
				},
				"gasEstimates": {
					"creation": {
						"codeDepositCost": "1097200",
						"executionCost": "1140",
						"totalCost": "1098340"
					},
					"external": {
						"addNewCollege(string,string,address)": "infinite",
						"addNewStudent(address,string,string,string)": "infinite",
						"allowCollegeAddingNewStudents(address)": "24840",
						"blockCollegeAddingNewStudents(address)": "24819",
						"changeStudentCourse(address,string,string)": "infinite",
						"getCollegeDetails(address)": "infinite",
						"getStudentDetails(string)": "infinite"
					}
				},
				"methodIdentifiers": {
					"addNewCollege(string,string,address)": "e05cd31c",
					"addNewStudent(address,string,string,string)": "7f3e1e82",
					"allowCollegeAddingNewStudents(address)": "b6b8ab99",
					"blockCollegeAddingNewStudents(address)": "18ab022f",
					"changeStudentCourse(address,string,string)": "f86b0b76",
					"getCollegeDetails(address)": "52dc8f7c",
					"getStudentDetails(string)": "8805f0f4"
				}
			},
			"storageLayout": {
				"storage": [
					{
						"astId": 28,
						"contract": "contracts/CollegeTracker.sol:COllegeTracker",
						"label": "colleges",
						"offset": 0,
						"slot": "0",
						"type": "t_mapping(t_address,t_struct(College)14_storage)"
					},
					{
						"astId": 33,
						"contract": "contracts/CollegeTracker.sol:COllegeTracker",
						"label": "students",
						"offset": 0,
						"slot": "1",
						"type": "t_mapping(t_string_memory_ptr,t_struct(Student)23_storage)"
					}
				],
				"types": {
					"t_address": {
						"encoding": "inplace",
						"label": "address",
						"numberOfBytes": "20"
					},
					"t_bool": {
						"encoding": "inplace",
						"label": "bool",
						"numberOfBytes": "1"
					},
					"t_mapping(t_address,t_struct(College)14_storage)": {
						"encoding": "mapping",
						"key": "t_address",
						"label": "mapping(address => struct COllegeTracker.College)",
						"numberOfBytes": "32",
						"value": "t_struct(College)14_storage"
					},
					"t_mapping(t_string_memory_ptr,t_struct(Student)23_storage)": {
						"encoding": "mapping",
						"key": "t_string_memory_ptr",
						"label": "mapping(string => struct COllegeTracker.Student)",
						"numberOfBytes": "32",
						"value": "t_struct(Student)23_storage"
					},
					"t_string_memory_ptr": {
						"encoding": "bytes",
						"label": "string",
						"numberOfBytes": "32"
					},
					"t_string_storage": {
						"encoding": "bytes",
						"label": "string",
						"numberOfBytes": "32"
					},
					"t_struct(College)14_storage": {
						"encoding": "inplace",
						"label": "struct COllegeTracker.College",
						"members": [
							{
								"astId": 3,
								"contract": "contracts/CollegeTracker.sol:COllegeTracker",
								"label": "name",
								"offset": 0,
								"slot": "0",
								"type": "t_string_storage"
							},
							{
								"astId": 5,
								"contract": "contracts/CollegeTracker.sol:COllegeTracker",
								"label": "collegeAddress",
								"offset": 0,
								"slot": "1",
								"type": "t_address"
							},
							{
								"astId": 7,
								"contract": "contracts/CollegeTracker.sol:COllegeTracker",
								"label": "collegeAdmin",
								"offset": 0,
								"slot": "2",
								"type": "t_address"
							},
							{
								"astId": 9,
								"contract": "contracts/CollegeTracker.sol:COllegeTracker",
								"label": "regNo",
								"offset": 0,
								"slot": "3",
								"type": "t_string_storage"
							},
							{
								"astId": 11,
								"contract": "contracts/CollegeTracker.sol:COllegeTracker",
								"label": "addStudentPrivilege",
								"offset": 0,
								"slot": "4",
								"type": "t_bool"
							},
							{
								"astId": 13,
								"contract": "contracts/CollegeTracker.sol:COllegeTracker",
								"label": "noOfStudents",
								"offset": 1,
								"slot": "4",
								"type": "t_uint8"
							}
						],
						"numberOfBytes": "160"
					},
					"t_struct(Student)23_storage": {
						"encoding": "inplace",
						"label": "struct COllegeTracker.Student",
						"members": [
							{
								"astId": 16,
								"contract": "contracts/CollegeTracker.sol:COllegeTracker",
								"label": "collegeAddress",
								"offset": 0,
								"slot": "0",
								"type": "t_address"
							},
							{
								"astId": 18,
								"contract": "contracts/CollegeTracker.sol:COllegeTracker",
								"label": "name",
								"offset": 0,
								"slot": "1",
								"type": "t_string_storage"
							},
							{
								"astId": 20,
								"contract": "contracts/CollegeTracker.sol:COllegeTracker",
								"label": "phoneNo",
								"offset": 0,
								"slot": "2",
								"type": "t_string_storage"
							},
							{
								"astId": 22,
								"contract": "contracts/CollegeTracker.sol:COllegeTracker",
								"label": "courseName",
								"offset": 0,
								"slot": "3",
								"type": "t_string_storage"
							}
						],
						"numberOfBytes": "128"
					},
					"t_uint8": {
						"encoding": "inplace",
						"label": "uint8",
						"numberOfBytes": "1"
					}
				}
			},
			"userdoc": {
				"kind": "user",
				"methods": {},
				"version": 1
			}
		}
	}
}