{
	"contracts/ArrayDemo.sol": {
		"ArrayDemo": {
			"abi": [
				{
					"inputs": [
						{
							"internalType": "uint8",
							"name": "_index",
							"type": "uint8"
						}
					],
					"name": "readData",
					"outputs": [
						{
							"internalType": "uint8",
							"name": "",
							"type": "uint8"
						}
					],
					"stateMutability": "view",
					"type": "function"
				},
				{
					"inputs": [
						{
							"internalType": "uint8",
							"name": "_index",
							"type": "uint8"
						},
						{
							"internalType": "uint8",
							"name": "_value",
							"type": "uint8"
						}
					],
					"name": "setData",
					"outputs": [],
					"stateMutability": "nonpayable",
					"type": "function"
				}
			],
			"devdoc": {
				"kind": "dev",
				"methods": {},
				"version": 1
			},
			"evm": {
				"assembly": "    /* \"contracts/ArrayDemo.sol\":56:354  contract ArrayDemo{... */\n  mstore(0x40, 0x80)\n  callvalue\n  dup1\n  iszero\n  tag_1\n  jumpi\n  0x00\n  dup1\n  revert\ntag_1:\n  pop\n  dataSize(sub_0)\n  dup1\n  dataOffset(sub_0)\n  0x00\n  codecopy\n  0x00\n  return\nstop\n\nsub_0: assembly {\n        /* \"contracts/ArrayDemo.sol\":56:354  contract ArrayDemo{... */\n      mstore(0x40, 0x80)\n      callvalue\n      dup1\n      iszero\n      tag_1\n      jumpi\n      0x00\n      dup1\n      revert\n    tag_1:\n      pop\n      jumpi(tag_2, lt(calldatasize, 0x04))\n      shr(0xe0, calldataload(0x00))\n      dup1\n      0x1e3d73a1\n      eq\n      tag_3\n      jumpi\n      dup1\n      0x7cf7a4dd\n      eq\n      tag_4\n      jumpi\n    tag_2:\n      0x00\n      dup1\n      revert\n        /* \"contracts/ArrayDemo.sol\":162:252  function setData(uint8 _index, uint8 _value) public {... */\n    tag_3:\n      tag_5\n      0x04\n      dup1\n      calldatasize\n      sub\n      dup2\n      add\n      swap1\n      tag_6\n      swap2\n      swap1\n      tag_7\n      jump\t// in\n    tag_6:\n      tag_8\n      jump\t// in\n    tag_5:\n      stop\n        /* \"contracts/ArrayDemo.sol\":258:352  function readData(uint8 _index) public view returns(uint8){... */\n    tag_4:\n      tag_9\n      0x04\n      dup1\n      calldatasize\n      sub\n      dup2\n      add\n      swap1\n      tag_10\n      swap2\n      swap1\n      tag_11\n      jump\t// in\n    tag_10:\n      tag_12\n      jump\t// in\n    tag_9:\n      mload(0x40)\n      tag_13\n      swap2\n      swap1\n      tag_14\n      jump\t// in\n    tag_13:\n      mload(0x40)\n      dup1\n      swap2\n      sub\n      swap1\n      return\n        /* \"contracts/ArrayDemo.sol\":162:252  function setData(uint8 _index, uint8 _value) public {... */\n    tag_8:\n        /* \"contracts/ArrayDemo.sol\":239:245  _value */\n      dup1\n        /* \"contracts/ArrayDemo.sol\":224:228  ages */\n      0x00\n        /* \"contracts/ArrayDemo.sol\":229:235  _index */\n      dup4\n        /* \"contracts/ArrayDemo.sol\":224:236  ages[_index] */\n      0xff\n      and\n      0x32\n      dup2\n      lt\n      tag_16\n      jumpi\n      tag_17\n      tag_18\n      jump\t// in\n    tag_17:\n    tag_16:\n      0x20\n      swap2\n      dup3\n      dup3\n      div\n      add\n      swap2\n      swap1\n      mod\n        /* \"contracts/ArrayDemo.sol\":224:245  ages[_index] = _value */\n      0x0100\n      exp\n      dup2\n      sload\n      dup2\n      0xff\n      mul\n      not\n      and\n      swap1\n      dup4\n      0xff\n      and\n      mul\n      or\n      swap1\n      sstore\n      pop\n        /* \"contracts/ArrayDemo.sol\":162:252  function setData(uint8 _index, uint8 _value) public {... */\n      pop\n      pop\n      jump\t// out\n        /* \"contracts/ArrayDemo.sol\":258:352  function readData(uint8 _index) public view returns(uint8){... */\n    tag_12:\n        /* \"contracts/ArrayDemo.sol\":310:315  uint8 */\n      0x00\n        /* \"contracts/ArrayDemo.sol\":333:337  ages */\n      dup1\n        /* \"contracts/ArrayDemo.sol\":338:344  _index */\n      dup3\n        /* \"contracts/ArrayDemo.sol\":333:345  ages[_index] */\n      0xff\n      and\n      0x32\n      dup2\n      lt\n      tag_21\n      jumpi\n      tag_22\n      tag_18\n      jump\t// in\n    tag_22:\n    tag_21:\n      0x20\n      swap2\n      dup3\n      dup3\n      div\n      add\n      swap2\n      swap1\n      mod\n      swap1\n      sload\n      swap1\n      0x0100\n      exp\n      swap1\n      div\n      0xff\n      and\n        /* \"contracts/ArrayDemo.sol\":326:345  return ages[_index] */\n      swap1\n      pop\n        /* \"contracts/ArrayDemo.sol\":258:352  function readData(uint8 _index) public view returns(uint8){... */\n      swap2\n      swap1\n      pop\n      jump\t// out\n        /* \"#utility.yul\":7:142   */\n    tag_25:\n        /* \"#utility.yul\":51:56   */\n      0x00\n        /* \"#utility.yul\":89:95   */\n      dup2\n        /* \"#utility.yul\":76:96   */\n      calldataload\n        /* \"#utility.yul\":67:96   */\n      swap1\n      pop\n        /* \"#utility.yul\":105:136   */\n      tag_27\n        /* \"#utility.yul\":130:135   */\n      dup2\n        /* \"#utility.yul\":105:136   */\n      tag_28\n      jump\t// in\n    tag_27:\n        /* \"#utility.yul\":7:142   */\n      swap3\n      swap2\n      pop\n      pop\n      jump\t// out\n        /* \"#utility.yul\":148:473   */\n    tag_11:\n        /* \"#utility.yul\":205:211   */\n      0x00\n        /* \"#utility.yul\":254:256   */\n      0x20\n        /* \"#utility.yul\":242:251   */\n      dup3\n        /* \"#utility.yul\":233:240   */\n      dup5\n        /* \"#utility.yul\":229:252   */\n      sub\n        /* \"#utility.yul\":225:257   */\n      slt\n        /* \"#utility.yul\":222:341   */\n      iszero\n      tag_30\n      jumpi\n        /* \"#utility.yul\":260:339   */\n      tag_31\n      tag_32\n      jump\t// in\n    tag_31:\n        /* \"#utility.yul\":222:341   */\n    tag_30:\n        /* \"#utility.yul\":380:381   */\n      0x00\n        /* \"#utility.yul\":405:456   */\n      tag_33\n        /* \"#utility.yul\":448:455   */\n      dup5\n        /* \"#utility.yul\":439:445   */\n      dup3\n        /* \"#utility.yul\":428:437   */\n      dup6\n        /* \"#utility.yul\":424:446   */\n      add\n        /* \"#utility.yul\":405:456   */\n      tag_25\n      jump\t// in\n    tag_33:\n        /* \"#utility.yul\":395:456   */\n      swap2\n      pop\n        /* \"#utility.yul\":351:466   */\n      pop\n        /* \"#utility.yul\":148:473   */\n      swap3\n      swap2\n      pop\n      pop\n      jump\t// out\n        /* \"#utility.yul\":479:945   */\n    tag_7:\n        /* \"#utility.yul\":543:549   */\n      0x00\n        /* \"#utility.yul\":551:557   */\n      dup1\n        /* \"#utility.yul\":600:602   */\n      0x40\n        /* \"#utility.yul\":588:597   */\n      dup4\n        /* \"#utility.yul\":579:586   */\n      dup6\n        /* \"#utility.yul\":575:598   */\n      sub\n        /* \"#utility.yul\":571:603   */\n      slt\n        /* \"#utility.yul\":568:687   */\n      iszero\n      tag_35\n      jumpi\n        /* \"#utility.yul\":606:685   */\n      tag_36\n      tag_32\n      jump\t// in\n    tag_36:\n        /* \"#utility.yul\":568:687   */\n    tag_35:\n        /* \"#utility.yul\":726:727   */\n      0x00\n        /* \"#utility.yul\":751:802   */\n      tag_37\n        /* \"#utility.yul\":794:801   */\n      dup6\n        /* \"#utility.yul\":785:791   */\n      dup3\n        /* \"#utility.yul\":774:783   */\n      dup7\n        /* \"#utility.yul\":770:792   */\n      add\n        /* \"#utility.yul\":751:802   */\n      tag_25\n      jump\t// in\n    tag_37:\n        /* \"#utility.yul\":741:802   */\n      swap3\n      pop\n        /* \"#utility.yul\":697:812   */\n      pop\n        /* \"#utility.yul\":851:853   */\n      0x20\n        /* \"#utility.yul\":877:928   */\n      tag_38\n        /* \"#utility.yul\":920:927   */\n      dup6\n        /* \"#utility.yul\":911:917   */\n      dup3\n        /* \"#utility.yul\":900:909   */\n      dup7\n        /* \"#utility.yul\":896:918   */\n      add\n        /* \"#utility.yul\":877:928   */\n      tag_25\n      jump\t// in\n    tag_38:\n        /* \"#utility.yul\":867:928   */\n      swap2\n      pop\n        /* \"#utility.yul\":822:938   */\n      pop\n        /* \"#utility.yul\":479:945   */\n      swap3\n      pop\n      swap3\n      swap1\n      pop\n      jump\t// out\n        /* \"#utility.yul\":951:1063   */\n    tag_39:\n        /* \"#utility.yul\":1034:1056   */\n      tag_41\n        /* \"#utility.yul\":1050:1055   */\n      dup2\n        /* \"#utility.yul\":1034:1056   */\n      tag_42\n      jump\t// in\n    tag_41:\n        /* \"#utility.yul\":1029:1032   */\n      dup3\n        /* \"#utility.yul\":1022:1057   */\n      mstore\n        /* \"#utility.yul\":951:1063   */\n      pop\n      pop\n      jump\t// out\n        /* \"#utility.yul\":1069:1283   */\n    tag_14:\n        /* \"#utility.yul\":1158:1162   */\n      0x00\n        /* \"#utility.yul\":1196:1198   */\n      0x20\n        /* \"#utility.yul\":1185:1194   */\n      dup3\n        /* \"#utility.yul\":1181:1199   */\n      add\n        /* \"#utility.yul\":1173:1199   */\n      swap1\n      pop\n        /* \"#utility.yul\":1209:1276   */\n      tag_44\n        /* \"#utility.yul\":1273:1274   */\n      0x00\n        /* \"#utility.yul\":1262:1271   */\n      dup4\n        /* \"#utility.yul\":1258:1275   */\n      add\n        /* \"#utility.yul\":1249:1255   */\n      dup5\n        /* \"#utility.yul\":1209:1276   */\n      tag_39\n      jump\t// in\n    tag_44:\n        /* \"#utility.yul\":1069:1283   */\n      swap3\n      swap2\n      pop\n      pop\n      jump\t// out\n        /* \"#utility.yul\":1370:1456   */\n    tag_42:\n        /* \"#utility.yul\":1405:1412   */\n      0x00\n        /* \"#utility.yul\":1445:1449   */\n      0xff\n        /* \"#utility.yul\":1438:1443   */\n      dup3\n        /* \"#utility.yul\":1434:1450   */\n      and\n        /* \"#utility.yul\":1423:1450   */\n      swap1\n      pop\n        /* \"#utility.yul\":1370:1456   */\n      swap2\n      swap1\n      pop\n      jump\t// out\n        /* \"#utility.yul\":1462:1642   */\n    tag_18:\n        /* \"#utility.yul\":1510:1587   */\n      0x4e487b7100000000000000000000000000000000000000000000000000000000\n        /* \"#utility.yul\":1507:1508   */\n      0x00\n        /* \"#utility.yul\":1500:1588   */\n      mstore\n        /* \"#utility.yul\":1607:1611   */\n      0x32\n        /* \"#utility.yul\":1604:1605   */\n      0x04\n        /* \"#utility.yul\":1597:1612   */\n      mstore\n        /* \"#utility.yul\":1631:1635   */\n      0x24\n        /* \"#utility.yul\":1628:1629   */\n      0x00\n        /* \"#utility.yul\":1621:1636   */\n      revert\n        /* \"#utility.yul\":1771:1888   */\n    tag_32:\n        /* \"#utility.yul\":1880:1881   */\n      0x00\n        /* \"#utility.yul\":1877:1878   */\n      dup1\n        /* \"#utility.yul\":1870:1882   */\n      revert\n        /* \"#utility.yul\":1894:2012   */\n    tag_28:\n        /* \"#utility.yul\":1965:1987   */\n      tag_53\n        /* \"#utility.yul\":1981:1986   */\n      dup2\n        /* \"#utility.yul\":1965:1987   */\n      tag_42\n      jump\t// in\n    tag_53:\n        /* \"#utility.yul\":1958:1963   */\n      dup2\n        /* \"#utility.yul\":1955:1988   */\n      eq\n        /* \"#utility.yul\":1945:2006   */\n      tag_54\n      jumpi\n        /* \"#utility.yul\":2002:2003   */\n      0x00\n        /* \"#utility.yul\":1999:2000   */\n      dup1\n        /* \"#utility.yul\":1992:2004   */\n      revert\n        /* \"#utility.yul\":1945:2006   */\n    tag_54:\n        /* \"#utility.yul\":1894:2012   */\n      pop\n      jump\t// out\n\n    auxdata: 0xa2646970667358221220a5b3f5a1ea249d62e0a3af47a894e875bc10effbc206d447ba1b1e47f53b1c4b64736f6c63430008070033\n}\n",
				"bytecode": {
					"linkReferences": {},
					"object": "608060405234801561001057600080fd5b50610232806100206000396000f3fe608060405234801561001057600080fd5b50600436106100365760003560e01c80631e3d73a11461003b5780637cf7a4dd14610057575b600080fd5b6100556004803603810190610050919061013a565b610087565b005b610071600480360381019061006c919061010d565b6100c3565b60405161007e9190610189565b60405180910390f35b8060008360ff166032811061009f5761009e6101b1565b5b602091828204019190066101000a81548160ff021916908360ff1602179055505050565b6000808260ff16603281106100db576100da6101b1565b5b602091828204019190069054906101000a900460ff169050919050565b600081359050610107816101e5565b92915050565b600060208284031215610123576101226101e0565b5b6000610131848285016100f8565b91505092915050565b60008060408385031215610151576101506101e0565b5b600061015f858286016100f8565b9250506020610170858286016100f8565b9150509250929050565b610183816101a4565b82525050565b600060208201905061019e600083018461017a565b92915050565b600060ff82169050919050565b7f4e487b7100000000000000000000000000000000000000000000000000000000600052603260045260246000fd5b600080fd5b6101ee816101a4565b81146101f957600080fd5b5056fea2646970667358221220a5b3f5a1ea249d62e0a3af47a894e875bc10effbc206d447ba1b1e47f53b1c4b64736f6c63430008070033",
					"opcodes": "PUSH1 0x80 PUSH1 0x40 MSTORE CALLVALUE DUP1 ISZERO PUSH2 0x10 JUMPI PUSH1 0x0 DUP1 REVERT JUMPDEST POP PUSH2 0x232 DUP1 PUSH2 0x20 PUSH1 0x0 CODECOPY PUSH1 0x0 RETURN INVALID PUSH1 0x80 PUSH1 0x40 MSTORE CALLVALUE DUP1 ISZERO PUSH2 0x10 JUMPI PUSH1 0x0 DUP1 REVERT JUMPDEST POP PUSH1 0x4 CALLDATASIZE LT PUSH2 0x36 JUMPI PUSH1 0x0 CALLDATALOAD PUSH1 0xE0 SHR DUP1 PUSH4 0x1E3D73A1 EQ PUSH2 0x3B JUMPI DUP1 PUSH4 0x7CF7A4DD EQ PUSH2 0x57 JUMPI JUMPDEST PUSH1 0x0 DUP1 REVERT JUMPDEST PUSH2 0x55 PUSH1 0x4 DUP1 CALLDATASIZE SUB DUP2 ADD SWAP1 PUSH2 0x50 SWAP2 SWAP1 PUSH2 0x13A JUMP JUMPDEST PUSH2 0x87 JUMP JUMPDEST STOP JUMPDEST PUSH2 0x71 PUSH1 0x4 DUP1 CALLDATASIZE SUB DUP2 ADD SWAP1 PUSH2 0x6C SWAP2 SWAP1 PUSH2 0x10D JUMP JUMPDEST PUSH2 0xC3 JUMP JUMPDEST PUSH1 0x40 MLOAD PUSH2 0x7E SWAP2 SWAP1 PUSH2 0x189 JUMP JUMPDEST PUSH1 0x40 MLOAD DUP1 SWAP2 SUB SWAP1 RETURN JUMPDEST DUP1 PUSH1 0x0 DUP4 PUSH1 0xFF AND PUSH1 0x32 DUP2 LT PUSH2 0x9F JUMPI PUSH2 0x9E PUSH2 0x1B1 JUMP JUMPDEST JUMPDEST PUSH1 0x20 SWAP2 DUP3 DUP3 DIV ADD SWAP2 SWAP1 MOD PUSH2 0x100 EXP DUP2 SLOAD DUP2 PUSH1 0xFF MUL NOT AND SWAP1 DUP4 PUSH1 0xFF AND MUL OR SWAP1 SSTORE POP POP POP JUMP JUMPDEST PUSH1 0x0 DUP1 DUP3 PUSH1 0xFF AND PUSH1 0x32 DUP2 LT PUSH2 0xDB JUMPI PUSH2 0xDA PUSH2 0x1B1 JUMP JUMPDEST JUMPDEST PUSH1 0x20 SWAP2 DUP3 DUP3 DIV ADD SWAP2 SWAP1 MOD SWAP1 SLOAD SWAP1 PUSH2 0x100 EXP SWAP1 DIV PUSH1 0xFF AND SWAP1 POP SWAP2 SWAP1 POP JUMP JUMPDEST PUSH1 0x0 DUP2 CALLDATALOAD SWAP1 POP PUSH2 0x107 DUP2 PUSH2 0x1E5 JUMP JUMPDEST SWAP3 SWAP2 POP POP JUMP JUMPDEST PUSH1 0x0 PUSH1 0x20 DUP3 DUP5 SUB SLT ISZERO PUSH2 0x123 JUMPI PUSH2 0x122 PUSH2 0x1E0 JUMP JUMPDEST JUMPDEST PUSH1 0x0 PUSH2 0x131 DUP5 DUP3 DUP6 ADD PUSH2 0xF8 JUMP JUMPDEST SWAP2 POP POP SWAP3 SWAP2 POP POP JUMP JUMPDEST PUSH1 0x0 DUP1 PUSH1 0x40 DUP4 DUP6 SUB SLT ISZERO PUSH2 0x151 JUMPI PUSH2 0x150 PUSH2 0x1E0 JUMP JUMPDEST JUMPDEST PUSH1 0x0 PUSH2 0x15F DUP6 DUP3 DUP7 ADD PUSH2 0xF8 JUMP JUMPDEST SWAP3 POP POP PUSH1 0x20 PUSH2 0x170 DUP6 DUP3 DUP7 ADD PUSH2 0xF8 JUMP JUMPDEST SWAP2 POP POP SWAP3 POP SWAP3 SWAP1 POP JUMP JUMPDEST PUSH2 0x183 DUP2 PUSH2 0x1A4 JUMP JUMPDEST DUP3 MSTORE POP POP JUMP JUMPDEST PUSH1 0x0 PUSH1 0x20 DUP3 ADD SWAP1 POP PUSH2 0x19E PUSH1 0x0 DUP4 ADD DUP5 PUSH2 0x17A JUMP JUMPDEST SWAP3 SWAP2 POP POP JUMP JUMPDEST PUSH1 0x0 PUSH1 0xFF DUP3 AND SWAP1 POP SWAP2 SWAP1 POP JUMP JUMPDEST PUSH32 0x4E487B7100000000000000000000000000000000000000000000000000000000 PUSH1 0x0 MSTORE PUSH1 0x32 PUSH1 0x4 MSTORE PUSH1 0x24 PUSH1 0x0 REVERT JUMPDEST PUSH1 0x0 DUP1 REVERT JUMPDEST PUSH2 0x1EE DUP2 PUSH2 0x1A4 JUMP JUMPDEST DUP2 EQ PUSH2 0x1F9 JUMPI PUSH1 0x0 DUP1 REVERT JUMPDEST POP JUMP INVALID LOG2 PUSH5 0x6970667358 0x22 SLT KECCAK256 0xA5 0xB3 CREATE2 LOG1 0xEA 0x24 SWAP14 PUSH3 0xE0A3AF SELFBALANCE 0xA8 SWAP5 0xE8 PUSH22 0xBC10EFFBC206D447BA1B1E47F53B1C4B64736F6C6343 STOP ADDMOD SMOD STOP CALLER "
				},
				"gasEstimates": {
					"creation": {
						"codeDepositCost": "112400",
						"executionCost": "159",
						"totalCost": "112559"
					},
					"external": {
						"readData(uint8)": "infinite",
						"setData(uint8,uint8)": "infinite"
					}
				},
				"methodIdentifiers": {
					"readData(uint8)": "7cf7a4dd",
					"setData(uint8,uint8)": "1e3d73a1"
				}
			},
			"storageLayout": {
				"storage": [
					{
						"astId": 5,
						"contract": "contracts/ArrayDemo.sol:ArrayDemo",
						"label": "ages",
						"offset": 0,
						"slot": "0",
						"type": "t_array(t_uint8)50_storage"
					}
				],
				"types": {
					"t_array(t_uint8)50_storage": {
						"base": "t_uint8",
						"encoding": "inplace",
						"label": "uint8[50]",
						"numberOfBytes": "64"
					},
					"t_uint8": {
						"encoding": "inplace",
						"label": "uint8",
						"numberOfBytes": "1"
					}
				}
			},
			"userdoc": {
				"kind": "user",
				"methods": {},
				"version": 1
			}
		}
	}
}