{
	"contracts/ModifierDemo.sol": {
		"ModifierDemo": {
			"abi": [
				{
					"inputs": [],
					"stateMutability": "nonpayable",
					"type": "constructor"
				},
				{
					"inputs": [],
					"name": "SimpliLearn",
					"outputs": [
						{
							"internalType": "address",
							"name": "",
							"type": "address"
						}
					],
					"stateMutability": "view",
					"type": "function"
				},
				{
					"inputs": [
						{
							"internalType": "uint8",
							"name": "_key",
							"type": "uint8"
						}
					],
					"name": "getLearner",
					"outputs": [
						{
							"internalType": "string",
							"name": "",
							"type": "string"
						},
						{
							"internalType": "uint8",
							"name": "",
							"type": "uint8"
						}
					],
					"stateMutability": "view",
					"type": "function"
				},
				{
					"inputs": [
						{
							"internalType": "uint8",
							"name": "_key",
							"type": "uint8"
						},
						{
							"internalType": "string",
							"name": "_name",
							"type": "string"
						},
						{
							"internalType": "uint8",
							"name": "_age",
							"type": "uint8"
						}
					],
					"name": "setLearner",
					"outputs": [],
					"stateMutability": "nonpayable",
					"type": "function"
				}
			],
			"devdoc": {
				"kind": "dev",
				"methods": {},
				"version": 1
			},
			"evm": {
				"assembly": "    /* \"contracts/ModifierDemo.sol\":56:928  contract ModifierDemo{... */\n  mstore(0x40, 0x80)\n    /* \"contracts/ModifierDemo.sol\":117:231  constructor() public{... */\n  callvalue\n  dup1\n  iszero\n  tag_1\n  jumpi\n  0x00\n  dup1\n  revert\ntag_1:\n  pop\n    /* \"contracts/ModifierDemo.sol\":214:224  msg.sender */\n  caller\n    /* \"contracts/ModifierDemo.sol\":200:211  SimpliLearn */\n  0x00\n  dup1\n    /* \"contracts/ModifierDemo.sol\":200:224  SimpliLearn = msg.sender */\n  0x0100\n  exp\n  dup2\n  sload\n  dup2\n  0xffffffffffffffffffffffffffffffffffffffff\n  mul\n  not\n  and\n  swap1\n  dup4\n  0xffffffffffffffffffffffffffffffffffffffff\n  and\n  mul\n  or\n  swap1\n  sstore\n  pop\n    /* \"contracts/ModifierDemo.sol\":56:928  contract ModifierDemo{... */\n  dataSize(sub_0)\n  dup1\n  dataOffset(sub_0)\n  0x00\n  codecopy\n  0x00\n  return\nstop\n\nsub_0: assembly {\n        /* \"contracts/ModifierDemo.sol\":56:928  contract ModifierDemo{... */\n      mstore(0x40, 0x80)\n      callvalue\n      dup1\n      iszero\n      tag_1\n      jumpi\n      0x00\n      dup1\n      revert\n    tag_1:\n      pop\n      jumpi(tag_2, lt(calldatasize, 0x04))\n      shr(0xe0, calldataload(0x00))\n      dup1\n      0x15ef194e\n      eq\n      tag_3\n      jumpi\n      dup1\n      0x174d39f6\n      eq\n      tag_4\n      jumpi\n      dup1\n      0x97063449\n      eq\n      tag_5\n      jumpi\n    tag_2:\n      0x00\n      dup1\n      revert\n        /* \"contracts/ModifierDemo.sol\":582:748  function setLearner(uint8 _key, string memory _name, uint8 _age) public onlySimpliLearn{... */\n    tag_3:\n      tag_6\n      0x04\n      dup1\n      calldatasize\n      sub\n      dup2\n      add\n      swap1\n      tag_7\n      swap2\n      swap1\n      tag_8\n      jump\t// in\n    tag_7:\n      tag_9\n      jump\t// in\n    tag_6:\n      stop\n        /* \"contracts/ModifierDemo.sol\":754:926  function getLearner(uint8 _key) public view returns(string memory, uint8){... */\n    tag_4:\n      tag_10\n      0x04\n      dup1\n      calldatasize\n      sub\n      dup2\n      add\n      swap1\n      tag_11\n      swap2\n      swap1\n      tag_12\n      jump\t// in\n    tag_11:\n      tag_13\n      jump\t// in\n    tag_10:\n      mload(0x40)\n      tag_14\n      swap3\n      swap2\n      swap1\n      tag_15\n      jump\t// in\n    tag_14:\n      mload(0x40)\n      dup1\n      swap2\n      sub\n      swap1\n      return\n        /* \"contracts/ModifierDemo.sol\":84:110  address public SimpliLearn */\n    tag_5:\n      tag_16\n      tag_17\n      jump\t// in\n    tag_16:\n      mload(0x40)\n      tag_18\n      swap2\n      swap1\n      tag_19\n      jump\t// in\n    tag_18:\n      mload(0x40)\n      dup1\n      swap2\n      sub\n      swap1\n      return\n        /* \"contracts/ModifierDemo.sol\":582:748  function setLearner(uint8 _key, string memory _name, uint8 _age) public onlySimpliLearn{... */\n    tag_9:\n        /* \"contracts/ModifierDemo.sol\":295:306  SimpliLearn */\n      0x00\n      dup1\n      sload\n      swap1\n      0x0100\n      exp\n      swap1\n      div\n      0xffffffffffffffffffffffffffffffffffffffff\n      and\n        /* \"contracts/ModifierDemo.sol\":281:306  msg.sender == SimpliLearn */\n      0xffffffffffffffffffffffffffffffffffffffff\n      and\n        /* \"contracts/ModifierDemo.sol\":281:291  msg.sender */\n      caller\n        /* \"contracts/ModifierDemo.sol\":281:306  msg.sender == SimpliLearn */\n      0xffffffffffffffffffffffffffffffffffffffff\n      and\n      eq\n        /* \"contracts/ModifierDemo.sol\":273:307  require(msg.sender == SimpliLearn) */\n      tag_21\n      jumpi\n      0x00\n      dup1\n      revert\n    tag_21:\n        /* \"contracts/ModifierDemo.sol\":701:706  _name */\n      dup2\n        /* \"contracts/ModifierDemo.sol\":679:687  learners */\n      0x01\n        /* \"contracts/ModifierDemo.sol\":679:693  learners[_key] */\n      0x00\n        /* \"contracts/ModifierDemo.sol\":688:692  _key */\n      dup6\n        /* \"contracts/ModifierDemo.sol\":679:693  learners[_key] */\n      0xff\n      and\n      0xff\n      and\n      dup2\n      mstore\n      0x20\n      add\n      swap1\n      dup2\n      mstore\n      0x20\n      add\n      0x00\n      keccak256\n        /* \"contracts/ModifierDemo.sol\":679:698  learners[_key].name */\n      0x00\n      add\n        /* \"contracts/ModifierDemo.sol\":679:706  learners[_key].name = _name */\n      swap1\n      dup1\n      mload\n      swap1\n      0x20\n      add\n      swap1\n      tag_23\n      swap3\n      swap2\n      swap1\n      tag_24\n      jump\t// in\n    tag_23:\n      pop\n        /* \"contracts/ModifierDemo.sol\":737:741  _age */\n      dup1\n        /* \"contracts/ModifierDemo.sol\":716:724  learners */\n      0x01\n        /* \"contracts/ModifierDemo.sol\":716:730  learners[_key] */\n      0x00\n        /* \"contracts/ModifierDemo.sol\":725:729  _key */\n      dup6\n        /* \"contracts/ModifierDemo.sol\":716:730  learners[_key] */\n      0xff\n      and\n      0xff\n      and\n      dup2\n      mstore\n      0x20\n      add\n      swap1\n      dup2\n      mstore\n      0x20\n      add\n      0x00\n      keccak256\n        /* \"contracts/ModifierDemo.sol\":716:734  learners[_key].age */\n      0x01\n      add\n      0x00\n        /* \"contracts/ModifierDemo.sol\":716:741  learners[_key].age = _age */\n      0x0100\n      exp\n      dup2\n      sload\n      dup2\n      0xff\n      mul\n      not\n      and\n      swap1\n      dup4\n      0xff\n      and\n      mul\n      or\n      swap1\n      sstore\n      pop\n        /* \"contracts/ModifierDemo.sol\":582:748  function setLearner(uint8 _key, string memory _name, uint8 _age) public onlySimpliLearn{... */\n      pop\n      pop\n      pop\n      jump\t// out\n        /* \"contracts/ModifierDemo.sol\":754:926  function getLearner(uint8 _key) public view returns(string memory, uint8){... */\n    tag_13:\n        /* \"contracts/ModifierDemo.sol\":806:819  string memory */\n      0x60\n        /* \"contracts/ModifierDemo.sol\":821:826  uint8 */\n      0x00\n        /* \"contracts/ModifierDemo.sol\":858:866  learners */\n      0x01\n        /* \"contracts/ModifierDemo.sol\":858:872  learners[_key] */\n      0x00\n        /* \"contracts/ModifierDemo.sol\":867:871  _key */\n      dup5\n        /* \"contracts/ModifierDemo.sol\":858:872  learners[_key] */\n      0xff\n      and\n      0xff\n      and\n      dup2\n      mstore\n      0x20\n      add\n      swap1\n      dup2\n      mstore\n      0x20\n      add\n      0x00\n      keccak256\n        /* \"contracts/ModifierDemo.sol\":858:877  learners[_key].name */\n      0x00\n      add\n        /* \"contracts/ModifierDemo.sol\":891:899  learners */\n      0x01\n        /* \"contracts/ModifierDemo.sol\":891:905  learners[_key] */\n      0x00\n        /* \"contracts/ModifierDemo.sol\":900:904  _key */\n      dup6\n        /* \"contracts/ModifierDemo.sol\":891:905  learners[_key] */\n      0xff\n      and\n      0xff\n      and\n      dup2\n      mstore\n      0x20\n      add\n      swap1\n      dup2\n      mstore\n      0x20\n      add\n      0x00\n      keccak256\n        /* \"contracts/ModifierDemo.sol\":891:909  learners[_key].age */\n      0x01\n      add\n      0x00\n      swap1\n      sload\n      swap1\n      0x0100\n      exp\n      swap1\n      div\n      0xff\n      and\n        /* \"contracts/ModifierDemo.sol\":837:919  return (... */\n      dup2\n      dup1\n      sload\n      tag_26\n      swap1\n      tag_27\n      jump\t// in\n    tag_26:\n      dup1\n      0x1f\n      add\n      0x20\n      dup1\n      swap2\n      div\n      mul\n      0x20\n      add\n      mload(0x40)\n      swap1\n      dup2\n      add\n      0x40\n      mstore\n      dup1\n      swap3\n      swap2\n      swap1\n      dup2\n      dup2\n      mstore\n      0x20\n      add\n      dup3\n      dup1\n      sload\n      tag_28\n      swap1\n      tag_27\n      jump\t// in\n    tag_28:\n      dup1\n      iszero\n      tag_29\n      jumpi\n      dup1\n      0x1f\n      lt\n      tag_30\n      jumpi\n      0x0100\n      dup1\n      dup4\n      sload\n      div\n      mul\n      dup4\n      mstore\n      swap2\n      0x20\n      add\n      swap2\n      jump(tag_29)\n    tag_30:\n      dup3\n      add\n      swap2\n      swap1\n      0x00\n      mstore\n      keccak256(0x00, 0x20)\n      swap1\n    tag_31:\n      dup2\n      sload\n      dup2\n      mstore\n      swap1\n      0x01\n      add\n      swap1\n      0x20\n      add\n      dup1\n      dup4\n      gt\n      tag_31\n      jumpi\n      dup3\n      swap1\n      sub\n      0x1f\n      and\n      dup3\n      add\n      swap2\n    tag_29:\n      pop\n      pop\n      pop\n      pop\n      pop\n      swap2\n      pop\n      swap2\n      pop\n      swap2\n      pop\n        /* \"contracts/ModifierDemo.sol\":754:926  function getLearner(uint8 _key) public view returns(string memory, uint8){... */\n      swap2\n      pop\n      swap2\n      jump\t// out\n        /* \"contracts/ModifierDemo.sol\":84:110  address public SimpliLearn */\n    tag_17:\n      0x00\n      dup1\n      sload\n      swap1\n      0x0100\n      exp\n      swap1\n      div\n      0xffffffffffffffffffffffffffffffffffffffff\n      and\n      dup2\n      jump\t// out\n    tag_24:\n      dup3\n      dup1\n      sload\n      tag_32\n      swap1\n      tag_27\n      jump\t// in\n    tag_32:\n      swap1\n      0x00\n      mstore\n      keccak256(0x00, 0x20)\n      swap1\n      0x1f\n      add\n      0x20\n      swap1\n      div\n      dup2\n      add\n      swap3\n      dup3\n      tag_34\n      jumpi\n      0x00\n      dup6\n      sstore\n      jump(tag_33)\n    tag_34:\n      dup3\n      0x1f\n      lt\n      tag_35\n      jumpi\n      dup1\n      mload\n      not(0xff)\n      and\n      dup4\n      dup1\n      add\n      or\n      dup6\n      sstore\n      jump(tag_33)\n    tag_35:\n      dup3\n      dup1\n      add\n      0x01\n      add\n      dup6\n      sstore\n      dup3\n      iszero\n      tag_33\n      jumpi\n      swap2\n      dup3\n      add\n    tag_36:\n      dup3\n      dup2\n      gt\n      iszero\n      tag_37\n      jumpi\n      dup3\n      mload\n      dup3\n      sstore\n      swap2\n      0x20\n      add\n      swap2\n      swap1\n      0x01\n      add\n      swap1\n      jump(tag_36)\n    tag_37:\n    tag_33:\n      pop\n      swap1\n      pop\n      tag_38\n      swap2\n      swap1\n      tag_39\n      jump\t// in\n    tag_38:\n      pop\n      swap1\n      jump\t// out\n    tag_39:\n    tag_40:\n      dup1\n      dup3\n      gt\n      iszero\n      tag_41\n      jumpi\n      0x00\n      dup2\n      0x00\n      swap1\n      sstore\n      pop\n      0x01\n      add\n      jump(tag_40)\n    tag_41:\n      pop\n      swap1\n      jump\t// out\n        /* \"#utility.yul\":7:419   */\n    tag_43:\n        /* \"#utility.yul\":85:90   */\n      0x00\n        /* \"#utility.yul\":110:176   */\n      tag_45\n        /* \"#utility.yul\":126:175   */\n      tag_46\n        /* \"#utility.yul\":168:174   */\n      dup5\n        /* \"#utility.yul\":126:175   */\n      tag_47\n      jump\t// in\n    tag_46:\n        /* \"#utility.yul\":110:176   */\n      tag_48\n      jump\t// in\n    tag_45:\n        /* \"#utility.yul\":101:176   */\n      swap1\n      pop\n        /* \"#utility.yul\":199:205   */\n      dup3\n        /* \"#utility.yul\":192:197   */\n      dup2\n        /* \"#utility.yul\":185:206   */\n      mstore\n        /* \"#utility.yul\":237:241   */\n      0x20\n        /* \"#utility.yul\":230:235   */\n      dup2\n        /* \"#utility.yul\":226:242   */\n      add\n        /* \"#utility.yul\":275:278   */\n      dup5\n        /* \"#utility.yul\":266:272   */\n      dup5\n        /* \"#utility.yul\":261:264   */\n      dup5\n        /* \"#utility.yul\":257:273   */\n      add\n        /* \"#utility.yul\":254:279   */\n      gt\n        /* \"#utility.yul\":251:363   */\n      iszero\n      tag_49\n      jumpi\n        /* \"#utility.yul\":282:361   */\n      tag_50\n      tag_51\n      jump\t// in\n    tag_50:\n        /* \"#utility.yul\":251:363   */\n    tag_49:\n        /* \"#utility.yul\":372:413   */\n      tag_52\n        /* \"#utility.yul\":406:412   */\n      dup5\n        /* \"#utility.yul\":401:404   */\n      dup3\n        /* \"#utility.yul\":396:399   */\n      dup6\n        /* \"#utility.yul\":372:413   */\n      tag_53\n      jump\t// in\n    tag_52:\n        /* \"#utility.yul\":91:419   */\n      pop\n        /* \"#utility.yul\":7:419   */\n      swap4\n      swap3\n      pop\n      pop\n      pop\n      jump\t// out\n        /* \"#utility.yul\":439:779   */\n    tag_54:\n        /* \"#utility.yul\":495:500   */\n      0x00\n        /* \"#utility.yul\":544:547   */\n      dup3\n        /* \"#utility.yul\":537:541   */\n      0x1f\n        /* \"#utility.yul\":529:535   */\n      dup4\n        /* \"#utility.yul\":525:542   */\n      add\n        /* \"#utility.yul\":521:548   */\n      slt\n        /* \"#utility.yul\":511:633   */\n      tag_56\n      jumpi\n        /* \"#utility.yul\":552:631   */\n      tag_57\n      tag_58\n      jump\t// in\n    tag_57:\n        /* \"#utility.yul\":511:633   */\n    tag_56:\n        /* \"#utility.yul\":669:675   */\n      dup2\n        /* \"#utility.yul\":656:676   */\n      calldataload\n        /* \"#utility.yul\":694:773   */\n      tag_59\n        /* \"#utility.yul\":769:772   */\n      dup5\n        /* \"#utility.yul\":761:767   */\n      dup3\n        /* \"#utility.yul\":754:758   */\n      0x20\n        /* \"#utility.yul\":746:752   */\n      dup7\n        /* \"#utility.yul\":742:759   */\n      add\n        /* \"#utility.yul\":694:773   */\n      tag_43\n      jump\t// in\n    tag_59:\n        /* \"#utility.yul\":685:773   */\n      swap2\n      pop\n        /* \"#utility.yul\":501:779   */\n      pop\n        /* \"#utility.yul\":439:779   */\n      swap3\n      swap2\n      pop\n      pop\n      jump\t// out\n        /* \"#utility.yul\":785:920   */\n    tag_60:\n        /* \"#utility.yul\":829:834   */\n      0x00\n        /* \"#utility.yul\":867:873   */\n      dup2\n        /* \"#utility.yul\":854:874   */\n      calldataload\n        /* \"#utility.yul\":845:874   */\n      swap1\n      pop\n        /* \"#utility.yul\":883:914   */\n      tag_62\n        /* \"#utility.yul\":908:913   */\n      dup2\n        /* \"#utility.yul\":883:914   */\n      tag_63\n      jump\t// in\n    tag_62:\n        /* \"#utility.yul\":785:920   */\n      swap3\n      swap2\n      pop\n      pop\n      jump\t// out\n        /* \"#utility.yul\":926:1251   */\n    tag_12:\n        /* \"#utility.yul\":983:989   */\n      0x00\n        /* \"#utility.yul\":1032:1034   */\n      0x20\n        /* \"#utility.yul\":1020:1029   */\n      dup3\n        /* \"#utility.yul\":1011:1018   */\n      dup5\n        /* \"#utility.yul\":1007:1030   */\n      sub\n        /* \"#utility.yul\":1003:1035   */\n      slt\n        /* \"#utility.yul\":1000:1119   */\n      iszero\n      tag_65\n      jumpi\n        /* \"#utility.yul\":1038:1117   */\n      tag_66\n      tag_67\n      jump\t// in\n    tag_66:\n        /* \"#utility.yul\":1000:1119   */\n    tag_65:\n        /* \"#utility.yul\":1158:1159   */\n      0x00\n        /* \"#utility.yul\":1183:1234   */\n      tag_68\n        /* \"#utility.yul\":1226:1233   */\n      dup5\n        /* \"#utility.yul\":1217:1223   */\n      dup3\n        /* \"#utility.yul\":1206:1215   */\n      dup6\n        /* \"#utility.yul\":1202:1224   */\n      add\n        /* \"#utility.yul\":1183:1234   */\n      tag_60\n      jump\t// in\n    tag_68:\n        /* \"#utility.yul\":1173:1234   */\n      swap2\n      pop\n        /* \"#utility.yul\":1129:1244   */\n      pop\n        /* \"#utility.yul\":926:1251   */\n      swap3\n      swap2\n      pop\n      pop\n      jump\t// out\n        /* \"#utility.yul\":1257:2048   */\n    tag_8:\n        /* \"#utility.yul\":1340:1346   */\n      0x00\n        /* \"#utility.yul\":1348:1354   */\n      dup1\n        /* \"#utility.yul\":1356:1362   */\n      0x00\n        /* \"#utility.yul\":1405:1407   */\n      0x60\n        /* \"#utility.yul\":1393:1402   */\n      dup5\n        /* \"#utility.yul\":1384:1391   */\n      dup7\n        /* \"#utility.yul\":1380:1403   */\n      sub\n        /* \"#utility.yul\":1376:1408   */\n      slt\n        /* \"#utility.yul\":1373:1492   */\n      iszero\n      tag_70\n      jumpi\n        /* \"#utility.yul\":1411:1490   */\n      tag_71\n      tag_67\n      jump\t// in\n    tag_71:\n        /* \"#utility.yul\":1373:1492   */\n    tag_70:\n        /* \"#utility.yul\":1531:1532   */\n      0x00\n        /* \"#utility.yul\":1556:1607   */\n      tag_72\n        /* \"#utility.yul\":1599:1606   */\n      dup7\n        /* \"#utility.yul\":1590:1596   */\n      dup3\n        /* \"#utility.yul\":1579:1588   */\n      dup8\n        /* \"#utility.yul\":1575:1597   */\n      add\n        /* \"#utility.yul\":1556:1607   */\n      tag_60\n      jump\t// in\n    tag_72:\n        /* \"#utility.yul\":1546:1607   */\n      swap4\n      pop\n        /* \"#utility.yul\":1502:1617   */\n      pop\n        /* \"#utility.yul\":1684:1686   */\n      0x20\n        /* \"#utility.yul\":1673:1682   */\n      dup5\n        /* \"#utility.yul\":1669:1687   */\n      add\n        /* \"#utility.yul\":1656:1688   */\n      calldataload\n        /* \"#utility.yul\":1715:1733   */\n      0xffffffffffffffff\n        /* \"#utility.yul\":1707:1713   */\n      dup2\n        /* \"#utility.yul\":1704:1734   */\n      gt\n        /* \"#utility.yul\":1701:1818   */\n      iszero\n      tag_73\n      jumpi\n        /* \"#utility.yul\":1737:1816   */\n      tag_74\n      tag_75\n      jump\t// in\n    tag_74:\n        /* \"#utility.yul\":1701:1818   */\n    tag_73:\n        /* \"#utility.yul\":1842:1905   */\n      tag_76\n        /* \"#utility.yul\":1897:1904   */\n      dup7\n        /* \"#utility.yul\":1888:1894   */\n      dup3\n        /* \"#utility.yul\":1877:1886   */\n      dup8\n        /* \"#utility.yul\":1873:1895   */\n      add\n        /* \"#utility.yul\":1842:1905   */\n      tag_54\n      jump\t// in\n    tag_76:\n        /* \"#utility.yul\":1832:1905   */\n      swap3\n      pop\n        /* \"#utility.yul\":1627:1915   */\n      pop\n        /* \"#utility.yul\":1954:1956   */\n      0x40\n        /* \"#utility.yul\":1980:2031   */\n      tag_77\n        /* \"#utility.yul\":2023:2030   */\n      dup7\n        /* \"#utility.yul\":2014:2020   */\n      dup3\n        /* \"#utility.yul\":2003:2012   */\n      dup8\n        /* \"#utility.yul\":1999:2021   */\n      add\n        /* \"#utility.yul\":1980:2031   */\n      tag_60\n      jump\t// in\n    tag_77:\n        /* \"#utility.yul\":1970:2031   */\n      swap2\n      pop\n        /* \"#utility.yul\":1925:2041   */\n      pop\n        /* \"#utility.yul\":1257:2048   */\n      swap3\n      pop\n      swap3\n      pop\n      swap3\n      jump\t// out\n        /* \"#utility.yul\":2054:2172   */\n    tag_78:\n        /* \"#utility.yul\":2141:2165   */\n      tag_80\n        /* \"#utility.yul\":2159:2164   */\n      dup2\n        /* \"#utility.yul\":2141:2165   */\n      tag_81\n      jump\t// in\n    tag_80:\n        /* \"#utility.yul\":2136:2139   */\n      dup3\n        /* \"#utility.yul\":2129:2166   */\n      mstore\n        /* \"#utility.yul\":2054:2172   */\n      pop\n      pop\n      jump\t// out\n        /* \"#utility.yul\":2178:2542   */\n    tag_82:\n        /* \"#utility.yul\":2266:2269   */\n      0x00\n        /* \"#utility.yul\":2294:2333   */\n      tag_84\n        /* \"#utility.yul\":2327:2332   */\n      dup3\n        /* \"#utility.yul\":2294:2333   */\n      tag_85\n      jump\t// in\n    tag_84:\n        /* \"#utility.yul\":2349:2420   */\n      tag_86\n        /* \"#utility.yul\":2413:2419   */\n      dup2\n        /* \"#utility.yul\":2408:2411   */\n      dup6\n        /* \"#utility.yul\":2349:2420   */\n      tag_87\n      jump\t// in\n    tag_86:\n        /* \"#utility.yul\":2342:2420   */\n      swap4\n      pop\n        /* \"#utility.yul\":2429:2481   */\n      tag_88\n        /* \"#utility.yul\":2474:2480   */\n      dup2\n        /* \"#utility.yul\":2469:2472   */\n      dup6\n        /* \"#utility.yul\":2462:2466   */\n      0x20\n        /* \"#utility.yul\":2455:2460   */\n      dup7\n        /* \"#utility.yul\":2451:2467   */\n      add\n        /* \"#utility.yul\":2429:2481   */\n      tag_89\n      jump\t// in\n    tag_88:\n        /* \"#utility.yul\":2506:2535   */\n      tag_90\n        /* \"#utility.yul\":2528:2534   */\n      dup2\n        /* \"#utility.yul\":2506:2535   */\n      tag_91\n      jump\t// in\n    tag_90:\n        /* \"#utility.yul\":2501:2504   */\n      dup5\n        /* \"#utility.yul\":2497:2536   */\n      add\n        /* \"#utility.yul\":2490:2536   */\n      swap2\n      pop\n        /* \"#utility.yul\":2270:2542   */\n      pop\n        /* \"#utility.yul\":2178:2542   */\n      swap3\n      swap2\n      pop\n      pop\n      jump\t// out\n        /* \"#utility.yul\":2548:2660   */\n    tag_92:\n        /* \"#utility.yul\":2631:2653   */\n      tag_94\n        /* \"#utility.yul\":2647:2652   */\n      dup2\n        /* \"#utility.yul\":2631:2653   */\n      tag_95\n      jump\t// in\n    tag_94:\n        /* \"#utility.yul\":2626:2629   */\n      dup3\n        /* \"#utility.yul\":2619:2654   */\n      mstore\n        /* \"#utility.yul\":2548:2660   */\n      pop\n      pop\n      jump\t// out\n        /* \"#utility.yul\":2666:2888   */\n    tag_19:\n        /* \"#utility.yul\":2759:2763   */\n      0x00\n        /* \"#utility.yul\":2797:2799   */\n      0x20\n        /* \"#utility.yul\":2786:2795   */\n      dup3\n        /* \"#utility.yul\":2782:2800   */\n      add\n        /* \"#utility.yul\":2774:2800   */\n      swap1\n      pop\n        /* \"#utility.yul\":2810:2881   */\n      tag_97\n        /* \"#utility.yul\":2878:2879   */\n      0x00\n        /* \"#utility.yul\":2867:2876   */\n      dup4\n        /* \"#utility.yul\":2863:2880   */\n      add\n        /* \"#utility.yul\":2854:2860   */\n      dup5\n        /* \"#utility.yul\":2810:2881   */\n      tag_78\n      jump\t// in\n    tag_97:\n        /* \"#utility.yul\":2666:2888   */\n      swap3\n      swap2\n      pop\n      pop\n      jump\t// out\n        /* \"#utility.yul\":2894:3309   */\n    tag_15:\n        /* \"#utility.yul\":3031:3035   */\n      0x00\n        /* \"#utility.yul\":3069:3071   */\n      0x40\n        /* \"#utility.yul\":3058:3067   */\n      dup3\n        /* \"#utility.yul\":3054:3072   */\n      add\n        /* \"#utility.yul\":3046:3072   */\n      swap1\n      pop\n        /* \"#utility.yul\":3118:3127   */\n      dup2\n        /* \"#utility.yul\":3112:3116   */\n      dup2\n        /* \"#utility.yul\":3108:3128   */\n      sub\n        /* \"#utility.yul\":3104:3105   */\n      0x00\n        /* \"#utility.yul\":3093:3102   */\n      dup4\n        /* \"#utility.yul\":3089:3106   */\n      add\n        /* \"#utility.yul\":3082:3129   */\n      mstore\n        /* \"#utility.yul\":3146:3224   */\n      tag_99\n        /* \"#utility.yul\":3219:3223   */\n      dup2\n        /* \"#utility.yul\":3210:3216   */\n      dup6\n        /* \"#utility.yul\":3146:3224   */\n      tag_82\n      jump\t// in\n    tag_99:\n        /* \"#utility.yul\":3138:3224   */\n      swap1\n      pop\n        /* \"#utility.yul\":3234:3302   */\n      tag_100\n        /* \"#utility.yul\":3298:3300   */\n      0x20\n        /* \"#utility.yul\":3287:3296   */\n      dup4\n        /* \"#utility.yul\":3283:3301   */\n      add\n        /* \"#utility.yul\":3274:3280   */\n      dup5\n        /* \"#utility.yul\":3234:3302   */\n      tag_92\n      jump\t// in\n    tag_100:\n        /* \"#utility.yul\":2894:3309   */\n      swap4\n      swap3\n      pop\n      pop\n      pop\n      jump\t// out\n        /* \"#utility.yul\":3315:3444   */\n    tag_48:\n        /* \"#utility.yul\":3349:3355   */\n      0x00\n        /* \"#utility.yul\":3376:3396   */\n      tag_102\n      tag_103\n      jump\t// in\n    tag_102:\n        /* \"#utility.yul\":3366:3396   */\n      swap1\n      pop\n        /* \"#utility.yul\":3405:3438   */\n      tag_104\n        /* \"#utility.yul\":3433:3437   */\n      dup3\n        /* \"#utility.yul\":3425:3431   */\n      dup3\n        /* \"#utility.yul\":3405:3438   */\n      tag_105\n      jump\t// in\n    tag_104:\n        /* \"#utility.yul\":3315:3444   */\n      swap2\n      swap1\n      pop\n      jump\t// out\n        /* \"#utility.yul\":3450:3525   */\n    tag_103:\n        /* \"#utility.yul\":3483:3489   */\n      0x00\n        /* \"#utility.yul\":3516:3518   */\n      0x40\n        /* \"#utility.yul\":3510:3519   */\n      mload\n        /* \"#utility.yul\":3500:3519   */\n      swap1\n      pop\n        /* \"#utility.yul\":3450:3525   */\n      swap1\n      jump\t// out\n        /* \"#utility.yul\":3531:3839   */\n    tag_47:\n        /* \"#utility.yul\":3593:3597   */\n      0x00\n        /* \"#utility.yul\":3683:3701   */\n      0xffffffffffffffff\n        /* \"#utility.yul\":3675:3681   */\n      dup3\n        /* \"#utility.yul\":3672:3702   */\n      gt\n        /* \"#utility.yul\":3669:3725   */\n      iszero\n      tag_108\n      jumpi\n        /* \"#utility.yul\":3705:3723   */\n      tag_109\n      tag_110\n      jump\t// in\n    tag_109:\n        /* \"#utility.yul\":3669:3725   */\n    tag_108:\n        /* \"#utility.yul\":3743:3772   */\n      tag_111\n        /* \"#utility.yul\":3765:3771   */\n      dup3\n        /* \"#utility.yul\":3743:3772   */\n      tag_91\n      jump\t// in\n    tag_111:\n        /* \"#utility.yul\":3735:3772   */\n      swap1\n      pop\n        /* \"#utility.yul\":3827:3831   */\n      0x20\n        /* \"#utility.yul\":3821:3825   */\n      dup2\n        /* \"#utility.yul\":3817:3832   */\n      add\n        /* \"#utility.yul\":3809:3832   */\n      swap1\n      pop\n        /* \"#utility.yul\":3531:3839   */\n      swap2\n      swap1\n      pop\n      jump\t// out\n        /* \"#utility.yul\":3845:3944   */\n    tag_85:\n        /* \"#utility.yul\":3897:3903   */\n      0x00\n        /* \"#utility.yul\":3931:3936   */\n      dup2\n        /* \"#utility.yul\":3925:3937   */\n      mload\n        /* \"#utility.yul\":3915:3937   */\n      swap1\n      pop\n        /* \"#utility.yul\":3845:3944   */\n      swap2\n      swap1\n      pop\n      jump\t// out\n        /* \"#utility.yul\":3950:4119   */\n    tag_87:\n        /* \"#utility.yul\":4034:4045   */\n      0x00\n        /* \"#utility.yul\":4068:4074   */\n      dup3\n        /* \"#utility.yul\":4063:4066   */\n      dup3\n        /* \"#utility.yul\":4056:4075   */\n      mstore\n        /* \"#utility.yul\":4108:4112   */\n      0x20\n        /* \"#utility.yul\":4103:4106   */\n      dup3\n        /* \"#utility.yul\":4099:4113   */\n      add\n        /* \"#utility.yul\":4084:4113   */\n      swap1\n      pop\n        /* \"#utility.yul\":3950:4119   */\n      swap3\n      swap2\n      pop\n      pop\n      jump\t// out\n        /* \"#utility.yul\":4125:4221   */\n    tag_81:\n        /* \"#utility.yul\":4162:4169   */\n      0x00\n        /* \"#utility.yul\":4191:4215   */\n      tag_115\n        /* \"#utility.yul\":4209:4214   */\n      dup3\n        /* \"#utility.yul\":4191:4215   */\n      tag_116\n      jump\t// in\n    tag_115:\n        /* \"#utility.yul\":4180:4215   */\n      swap1\n      pop\n        /* \"#utility.yul\":4125:4221   */\n      swap2\n      swap1\n      pop\n      jump\t// out\n        /* \"#utility.yul\":4227:4353   */\n    tag_116:\n        /* \"#utility.yul\":4264:4271   */\n      0x00\n        /* \"#utility.yul\":4304:4346   */\n      0xffffffffffffffffffffffffffffffffffffffff\n        /* \"#utility.yul\":4297:4302   */\n      dup3\n        /* \"#utility.yul\":4293:4347   */\n      and\n        /* \"#utility.yul\":4282:4347   */\n      swap1\n      pop\n        /* \"#utility.yul\":4227:4353   */\n      swap2\n      swap1\n      pop\n      jump\t// out\n        /* \"#utility.yul\":4359:4445   */\n    tag_95:\n        /* \"#utility.yul\":4394:4401   */\n      0x00\n        /* \"#utility.yul\":4434:4438   */\n      0xff\n        /* \"#utility.yul\":4427:4432   */\n      dup3\n        /* \"#utility.yul\":4423:4439   */\n      and\n        /* \"#utility.yul\":4412:4439   */\n      swap1\n      pop\n        /* \"#utility.yul\":4359:4445   */\n      swap2\n      swap1\n      pop\n      jump\t// out\n        /* \"#utility.yul\":4451:4605   */\n    tag_53:\n        /* \"#utility.yul\":4535:4541   */\n      dup3\n        /* \"#utility.yul\":4530:4533   */\n      dup2\n        /* \"#utility.yul\":4525:4528   */\n      dup4\n        /* \"#utility.yul\":4512:4542   */\n      calldatacopy\n        /* \"#utility.yul\":4597:4598   */\n      0x00\n        /* \"#utility.yul\":4588:4594   */\n      dup4\n        /* \"#utility.yul\":4583:4586   */\n      dup4\n        /* \"#utility.yul\":4579:4595   */\n      add\n        /* \"#utility.yul\":4572:4599   */\n      mstore\n        /* \"#utility.yul\":4451:4605   */\n      pop\n      pop\n      pop\n      jump\t// out\n        /* \"#utility.yul\":4611:4918   */\n    tag_89:\n        /* \"#utility.yul\":4679:4680   */\n      0x00\n        /* \"#utility.yul\":4689:4802   */\n    tag_121:\n        /* \"#utility.yul\":4703:4709   */\n      dup4\n        /* \"#utility.yul\":4700:4701   */\n      dup2\n        /* \"#utility.yul\":4697:4710   */\n      lt\n        /* \"#utility.yul\":4689:4802   */\n      iszero\n      tag_123\n      jumpi\n        /* \"#utility.yul\":4788:4789   */\n      dup1\n        /* \"#utility.yul\":4783:4786   */\n      dup3\n        /* \"#utility.yul\":4779:4790   */\n      add\n        /* \"#utility.yul\":4773:4791   */\n      mload\n        /* \"#utility.yul\":4769:4770   */\n      dup2\n        /* \"#utility.yul\":4764:4767   */\n      dup5\n        /* \"#utility.yul\":4760:4771   */\n      add\n        /* \"#utility.yul\":4753:4792   */\n      mstore\n        /* \"#utility.yul\":4725:4727   */\n      0x20\n        /* \"#utility.yul\":4722:4723   */\n      dup2\n        /* \"#utility.yul\":4718:4728   */\n      add\n        /* \"#utility.yul\":4713:4728   */\n      swap1\n      pop\n        /* \"#utility.yul\":4689:4802   */\n      jump(tag_121)\n    tag_123:\n        /* \"#utility.yul\":4820:4826   */\n      dup4\n        /* \"#utility.yul\":4817:4818   */\n      dup2\n        /* \"#utility.yul\":4814:4827   */\n      gt\n        /* \"#utility.yul\":4811:4912   */\n      iszero\n      tag_124\n      jumpi\n        /* \"#utility.yul\":4900:4901   */\n      0x00\n        /* \"#utility.yul\":4891:4897   */\n      dup5\n        /* \"#utility.yul\":4886:4889   */\n      dup5\n        /* \"#utility.yul\":4882:4898   */\n      add\n        /* \"#utility.yul\":4875:4902   */\n      mstore\n        /* \"#utility.yul\":4811:4912   */\n    tag_124:\n        /* \"#utility.yul\":4660:4918   */\n      pop\n        /* \"#utility.yul\":4611:4918   */\n      pop\n      pop\n      pop\n      jump\t// out\n        /* \"#utility.yul\":4924:5244   */\n    tag_27:\n        /* \"#utility.yul\":4968:4974   */\n      0x00\n        /* \"#utility.yul\":5005:5006   */\n      0x02\n        /* \"#utility.yul\":4999:5003   */\n      dup3\n        /* \"#utility.yul\":4995:5007   */\n      div\n        /* \"#utility.yul\":4985:5007   */\n      swap1\n      pop\n        /* \"#utility.yul\":5052:5053   */\n      0x01\n        /* \"#utility.yul\":5046:5050   */\n      dup3\n        /* \"#utility.yul\":5042:5054   */\n      and\n        /* \"#utility.yul\":5073:5091   */\n      dup1\n        /* \"#utility.yul\":5063:5144   */\n      tag_126\n      jumpi\n        /* \"#utility.yul\":5129:5133   */\n      0x7f\n        /* \"#utility.yul\":5121:5127   */\n      dup3\n        /* \"#utility.yul\":5117:5134   */\n      and\n        /* \"#utility.yul\":5107:5134   */\n      swap2\n      pop\n        /* \"#utility.yul\":5063:5144   */\n    tag_126:\n        /* \"#utility.yul\":5191:5193   */\n      0x20\n        /* \"#utility.yul\":5183:5189   */\n      dup3\n        /* \"#utility.yul\":5180:5194   */\n      lt\n        /* \"#utility.yul\":5160:5178   */\n      dup2\n        /* \"#utility.yul\":5157:5195   */\n      eq\n        /* \"#utility.yul\":5154:5238   */\n      iszero\n      tag_127\n      jumpi\n        /* \"#utility.yul\":5210:5228   */\n      tag_128\n      tag_129\n      jump\t// in\n    tag_128:\n        /* \"#utility.yul\":5154:5238   */\n    tag_127:\n        /* \"#utility.yul\":4975:5244   */\n      pop\n        /* \"#utility.yul\":4924:5244   */\n      swap2\n      swap1\n      pop\n      jump\t// out\n        /* \"#utility.yul\":5250:5531   */\n    tag_105:\n        /* \"#utility.yul\":5333:5360   */\n      tag_131\n        /* \"#utility.yul\":5355:5359   */\n      dup3\n        /* \"#utility.yul\":5333:5360   */\n      tag_91\n      jump\t// in\n    tag_131:\n        /* \"#utility.yul\":5325:5331   */\n      dup2\n        /* \"#utility.yul\":5321:5361   */\n      add\n        /* \"#utility.yul\":5463:5469   */\n      dup2\n        /* \"#utility.yul\":5451:5461   */\n      dup2\n        /* \"#utility.yul\":5448:5470   */\n      lt\n        /* \"#utility.yul\":5427:5445   */\n      0xffffffffffffffff\n        /* \"#utility.yul\":5415:5425   */\n      dup3\n        /* \"#utility.yul\":5412:5446   */\n      gt\n        /* \"#utility.yul\":5409:5471   */\n      or\n        /* \"#utility.yul\":5406:5494   */\n      iszero\n      tag_132\n      jumpi\n        /* \"#utility.yul\":5474:5492   */\n      tag_133\n      tag_110\n      jump\t// in\n    tag_133:\n        /* \"#utility.yul\":5406:5494   */\n    tag_132:\n        /* \"#utility.yul\":5514:5524   */\n      dup1\n        /* \"#utility.yul\":5510:5512   */\n      0x40\n        /* \"#utility.yul\":5503:5525   */\n      mstore\n        /* \"#utility.yul\":5293:5531   */\n      pop\n        /* \"#utility.yul\":5250:5531   */\n      pop\n      pop\n      jump\t// out\n        /* \"#utility.yul\":5537:5717   */\n    tag_129:\n        /* \"#utility.yul\":5585:5662   */\n      0x4e487b7100000000000000000000000000000000000000000000000000000000\n        /* \"#utility.yul\":5582:5583   */\n      0x00\n        /* \"#utility.yul\":5575:5663   */\n      mstore\n        /* \"#utility.yul\":5682:5686   */\n      0x22\n        /* \"#utility.yul\":5679:5680   */\n      0x04\n        /* \"#utility.yul\":5672:5687   */\n      mstore\n        /* \"#utility.yul\":5706:5710   */\n      0x24\n        /* \"#utility.yul\":5703:5704   */\n      0x00\n        /* \"#utility.yul\":5696:5711   */\n      revert\n        /* \"#utility.yul\":5723:5903   */\n    tag_110:\n        /* \"#utility.yul\":5771:5848   */\n      0x4e487b7100000000000000000000000000000000000000000000000000000000\n        /* \"#utility.yul\":5768:5769   */\n      0x00\n        /* \"#utility.yul\":5761:5849   */\n      mstore\n        /* \"#utility.yul\":5868:5872   */\n      0x41\n        /* \"#utility.yul\":5865:5866   */\n      0x04\n        /* \"#utility.yul\":5858:5873   */\n      mstore\n        /* \"#utility.yul\":5892:5896   */\n      0x24\n        /* \"#utility.yul\":5889:5890   */\n      0x00\n        /* \"#utility.yul\":5882:5897   */\n      revert\n        /* \"#utility.yul\":5909:6026   */\n    tag_58:\n        /* \"#utility.yul\":6018:6019   */\n      0x00\n        /* \"#utility.yul\":6015:6016   */\n      dup1\n        /* \"#utility.yul\":6008:6020   */\n      revert\n        /* \"#utility.yul\":6032:6149   */\n    tag_51:\n        /* \"#utility.yul\":6141:6142   */\n      0x00\n        /* \"#utility.yul\":6138:6139   */\n      dup1\n        /* \"#utility.yul\":6131:6143   */\n      revert\n        /* \"#utility.yul\":6155:6272   */\n    tag_75:\n        /* \"#utility.yul\":6264:6265   */\n      0x00\n        /* \"#utility.yul\":6261:6262   */\n      dup1\n        /* \"#utility.yul\":6254:6266   */\n      revert\n        /* \"#utility.yul\":6278:6395   */\n    tag_67:\n        /* \"#utility.yul\":6387:6388   */\n      0x00\n        /* \"#utility.yul\":6384:6385   */\n      dup1\n        /* \"#utility.yul\":6377:6389   */\n      revert\n        /* \"#utility.yul\":6401:6503   */\n    tag_91:\n        /* \"#utility.yul\":6442:6448   */\n      0x00\n        /* \"#utility.yul\":6493:6495   */\n      0x1f\n        /* \"#utility.yul\":6489:6496   */\n      not\n        /* \"#utility.yul\":6484:6486   */\n      0x1f\n        /* \"#utility.yul\":6477:6482   */\n      dup4\n        /* \"#utility.yul\":6473:6487   */\n      add\n        /* \"#utility.yul\":6469:6497   */\n      and\n        /* \"#utility.yul\":6459:6497   */\n      swap1\n      pop\n        /* \"#utility.yul\":6401:6503   */\n      swap2\n      swap1\n      pop\n      jump\t// out\n        /* \"#utility.yul\":6509:6627   */\n    tag_63:\n        /* \"#utility.yul\":6580:6602   */\n      tag_142\n        /* \"#utility.yul\":6596:6601   */\n      dup2\n        /* \"#utility.yul\":6580:6602   */\n      tag_95\n      jump\t// in\n    tag_142:\n        /* \"#utility.yul\":6573:6578   */\n      dup2\n        /* \"#utility.yul\":6570:6603   */\n      eq\n        /* \"#utility.yul\":6560:6621   */\n      tag_143\n      jumpi\n        /* \"#utility.yul\":6617:6618   */\n      0x00\n        /* \"#utility.yul\":6614:6615   */\n      dup1\n        /* \"#utility.yul\":6607:6619   */\n      revert\n        /* \"#utility.yul\":6560:6621   */\n    tag_143:\n        /* \"#utility.yul\":6509:6627   */\n      pop\n      jump\t// out\n\n    auxdata: 0xa2646970667358221220dbb8fefa38fbef0b07304503d295444af096d41bf1843551db8dce7396d5c79c64736f6c63430008070033\n}\n",
				"bytecode": {
					"linkReferences": {},
					"object": "608060405234801561001057600080fd5b50336000806101000a81548173ffffffffffffffffffffffffffffffffffffffff021916908373ffffffffffffffffffffffffffffffffffffffff160217905550610703806100606000396000f3fe608060405234801561001057600080fd5b50600436106100415760003560e01c806315ef194e14610046578063174d39f6146100625780639706344914610093575b600080fd5b610060600480360381019061005b91906103cc565b6100b1565b005b61007c6004803603810190610077919061039f565b610174565b60405161008a9291906104ad565b60405180910390f35b61009b610253565b6040516100a89190610492565b60405180910390f35b60008054906101000a900473ffffffffffffffffffffffffffffffffffffffff1673ffffffffffffffffffffffffffffffffffffffff163373ffffffffffffffffffffffffffffffffffffffff161461010957600080fd5b81600160008560ff1660ff1681526020019081526020016000206000019080519060200190610139929190610277565b5080600160008560ff1660ff16815260200190815260200160002060010160006101000a81548160ff021916908360ff160217905550505050565b60606000600160008460ff1660ff168152602001908152602001600020600001600160008560ff1660ff16815260200190815260200160002060010160009054906101000a900460ff168180546101ca906105d0565b80601f01602080910402602001604051908101604052809291908181526020018280546101f6906105d0565b80156102435780601f1061021857610100808354040283529160200191610243565b820191906000526020600020905b81548152906001019060200180831161022657829003601f168201915b5050505050915091509150915091565b60008054906101000a900473ffffffffffffffffffffffffffffffffffffffff1681565b828054610283906105d0565b90600052602060002090601f0160209004810192826102a557600085556102ec565b82601f106102be57805160ff19168380011785556102ec565b828001600101855582156102ec579182015b828111156102eb5782518255916020019190600101906102d0565b5b5090506102f991906102fd565b5090565b5b808211156103165760008160009055506001016102fe565b5090565b600061032d61032884610502565b6104dd565b90508281526020810184848401111561034957610348610696565b5b61035484828561058e565b509392505050565b600082601f83011261037157610370610691565b5b813561038184826020860161031a565b91505092915050565b600081359050610399816106b6565b92915050565b6000602082840312156103b5576103b46106a0565b5b60006103c38482850161038a565b91505092915050565b6000806000606084860312156103e5576103e46106a0565b5b60006103f38682870161038a565b935050602084013567ffffffffffffffff8111156104145761041361069b565b5b6104208682870161035c565b92505060406104318682870161038a565b9150509250925092565b6104448161054f565b82525050565b600061045582610533565b61045f818561053e565b935061046f81856020860161059d565b610478816106a5565b840191505092915050565b61048c81610581565b82525050565b60006020820190506104a7600083018461043b565b92915050565b600060408201905081810360008301526104c7818561044a565b90506104d66020830184610483565b9392505050565b60006104e76104f8565b90506104f38282610602565b919050565b6000604051905090565b600067ffffffffffffffff82111561051d5761051c610662565b5b610526826106a5565b9050602081019050919050565b600081519050919050565b600082825260208201905092915050565b600061055a82610561565b9050919050565b600073ffffffffffffffffffffffffffffffffffffffff82169050919050565b600060ff82169050919050565b82818337600083830152505050565b60005b838110156105bb5780820151818401526020810190506105a0565b838111156105ca576000848401525b50505050565b600060028204905060018216806105e857607f821691505b602082108114156105fc576105fb610633565b5b50919050565b61060b826106a5565b810181811067ffffffffffffffff8211171561062a57610629610662565b5b80604052505050565b7f4e487b7100000000000000000000000000000000000000000000000000000000600052602260045260246000fd5b7f4e487b7100000000000000000000000000000000000000000000000000000000600052604160045260246000fd5b600080fd5b600080fd5b600080fd5b600080fd5b6000601f19601f8301169050919050565b6106bf81610581565b81146106ca57600080fd5b5056fea2646970667358221220dbb8fefa38fbef0b07304503d295444af096d41bf1843551db8dce7396d5c79c64736f6c63430008070033",
					"opcodes": "PUSH1 0x80 PUSH1 0x40 MSTORE CALLVALUE DUP1 ISZERO PUSH2 0x10 JUMPI PUSH1 0x0 DUP1 REVERT JUMPDEST POP CALLER PUSH1 0x0 DUP1 PUSH2 0x100 EXP DUP2 SLOAD DUP2 PUSH20 0xFFFFFFFFFFFFFFFFFFFFFFFFFFFFFFFFFFFFFFFF MUL NOT AND SWAP1 DUP4 PUSH20 0xFFFFFFFFFFFFFFFFFFFFFFFFFFFFFFFFFFFFFFFF AND MUL OR SWAP1 SSTORE POP PUSH2 0x703 DUP1 PUSH2 0x60 PUSH1 0x0 CODECOPY PUSH1 0x0 RETURN INVALID PUSH1 0x80 PUSH1 0x40 MSTORE CALLVALUE DUP1 ISZERO PUSH2 0x10 JUMPI PUSH1 0x0 DUP1 REVERT JUMPDEST POP PUSH1 0x4 CALLDATASIZE LT PUSH2 0x41 JUMPI PUSH1 0x0 CALLDATALOAD PUSH1 0xE0 SHR DUP1 PUSH4 0x15EF194E EQ PUSH2 0x46 JUMPI DUP1 PUSH4 0x174D39F6 EQ PUSH2 0x62 JUMPI DUP1 PUSH4 0x97063449 EQ PUSH2 0x93 JUMPI JUMPDEST PUSH1 0x0 DUP1 REVERT JUMPDEST PUSH2 0x60 PUSH1 0x4 DUP1 CALLDATASIZE SUB DUP2 ADD SWAP1 PUSH2 0x5B SWAP2 SWAP1 PUSH2 0x3CC JUMP JUMPDEST PUSH2 0xB1 JUMP JUMPDEST STOP JUMPDEST PUSH2 0x7C PUSH1 0x4 DUP1 CALLDATASIZE SUB DUP2 ADD SWAP1 PUSH2 0x77 SWAP2 SWAP1 PUSH2 0x39F JUMP JUMPDEST PUSH2 0x174 JUMP JUMPDEST PUSH1 0x40 MLOAD PUSH2 0x8A SWAP3 SWAP2 SWAP1 PUSH2 0x4AD JUMP JUMPDEST PUSH1 0x40 MLOAD DUP1 SWAP2 SUB SWAP1 RETURN JUMPDEST PUSH2 0x9B PUSH2 0x253 JUMP JUMPDEST PUSH1 0x40 MLOAD PUSH2 0xA8 SWAP2 SWAP1 PUSH2 0x492 JUMP JUMPDEST PUSH1 0x40 MLOAD DUP1 SWAP2 SUB SWAP1 RETURN JUMPDEST PUSH1 0x0 DUP1 SLOAD SWAP1 PUSH2 0x100 EXP SWAP1 DIV PUSH20 0xFFFFFFFFFFFFFFFFFFFFFFFFFFFFFFFFFFFFFFFF AND PUSH20 0xFFFFFFFFFFFFFFFFFFFFFFFFFFFFFFFFFFFFFFFF AND CALLER PUSH20 0xFFFFFFFFFFFFFFFFFFFFFFFFFFFFFFFFFFFFFFFF AND EQ PUSH2 0x109 JUMPI PUSH1 0x0 DUP1 REVERT JUMPDEST DUP2 PUSH1 0x1 PUSH1 0x0 DUP6 PUSH1 0xFF AND PUSH1 0xFF AND DUP2 MSTORE PUSH1 0x20 ADD SWAP1 DUP2 MSTORE PUSH1 0x20 ADD PUSH1 0x0 KECCAK256 PUSH1 0x0 ADD SWAP1 DUP1 MLOAD SWAP1 PUSH1 0x20 ADD SWAP1 PUSH2 0x139 SWAP3 SWAP2 SWAP1 PUSH2 0x277 JUMP JUMPDEST POP DUP1 PUSH1 0x1 PUSH1 0x0 DUP6 PUSH1 0xFF AND PUSH1 0xFF AND DUP2 MSTORE PUSH1 0x20 ADD SWAP1 DUP2 MSTORE PUSH1 0x20 ADD PUSH1 0x0 KECCAK256 PUSH1 0x1 ADD PUSH1 0x0 PUSH2 0x100 EXP DUP2 SLOAD DUP2 PUSH1 0xFF MUL NOT AND SWAP1 DUP4 PUSH1 0xFF AND MUL OR SWAP1 SSTORE POP POP POP POP JUMP JUMPDEST PUSH1 0x60 PUSH1 0x0 PUSH1 0x1 PUSH1 0x0 DUP5 PUSH1 0xFF AND PUSH1 0xFF AND DUP2 MSTORE PUSH1 0x20 ADD SWAP1 DUP2 MSTORE PUSH1 0x20 ADD PUSH1 0x0 KECCAK256 PUSH1 0x0 ADD PUSH1 0x1 PUSH1 0x0 DUP6 PUSH1 0xFF AND PUSH1 0xFF AND DUP2 MSTORE PUSH1 0x20 ADD SWAP1 DUP2 MSTORE PUSH1 0x20 ADD PUSH1 0x0 KECCAK256 PUSH1 0x1 ADD PUSH1 0x0 SWAP1 SLOAD SWAP1 PUSH2 0x100 EXP SWAP1 DIV PUSH1 0xFF AND DUP2 DUP1 SLOAD PUSH2 0x1CA SWAP1 PUSH2 0x5D0 JUMP JUMPDEST DUP1 PUSH1 0x1F ADD PUSH1 0x20 DUP1 SWAP2 DIV MUL PUSH1 0x20 ADD PUSH1 0x40 MLOAD SWAP1 DUP2 ADD PUSH1 0x40 MSTORE DUP1 SWAP3 SWAP2 SWAP1 DUP2 DUP2 MSTORE PUSH1 0x20 ADD DUP3 DUP1 SLOAD PUSH2 0x1F6 SWAP1 PUSH2 0x5D0 JUMP JUMPDEST DUP1 ISZERO PUSH2 0x243 JUMPI DUP1 PUSH1 0x1F LT PUSH2 0x218 JUMPI PUSH2 0x100 DUP1 DUP4 SLOAD DIV MUL DUP4 MSTORE SWAP2 PUSH1 0x20 ADD SWAP2 PUSH2 0x243 JUMP JUMPDEST DUP3 ADD SWAP2 SWAP1 PUSH1 0x0 MSTORE PUSH1 0x20 PUSH1 0x0 KECCAK256 SWAP1 JUMPDEST DUP2 SLOAD DUP2 MSTORE SWAP1 PUSH1 0x1 ADD SWAP1 PUSH1 0x20 ADD DUP1 DUP4 GT PUSH2 0x226 JUMPI DUP3 SWAP1 SUB PUSH1 0x1F AND DUP3 ADD SWAP2 JUMPDEST POP POP POP POP POP SWAP2 POP SWAP2 POP SWAP2 POP SWAP2 POP SWAP2 JUMP JUMPDEST PUSH1 0x0 DUP1 SLOAD SWAP1 PUSH2 0x100 EXP SWAP1 DIV PUSH20 0xFFFFFFFFFFFFFFFFFFFFFFFFFFFFFFFFFFFFFFFF AND DUP2 JUMP JUMPDEST DUP3 DUP1 SLOAD PUSH2 0x283 SWAP1 PUSH2 0x5D0 JUMP JUMPDEST SWAP1 PUSH1 0x0 MSTORE PUSH1 0x20 PUSH1 0x0 KECCAK256 SWAP1 PUSH1 0x1F ADD PUSH1 0x20 SWAP1 DIV DUP2 ADD SWAP3 DUP3 PUSH2 0x2A5 JUMPI PUSH1 0x0 DUP6 SSTORE PUSH2 0x2EC JUMP JUMPDEST DUP3 PUSH1 0x1F LT PUSH2 0x2BE JUMPI DUP1 MLOAD PUSH1 0xFF NOT AND DUP4 DUP1 ADD OR DUP6 SSTORE PUSH2 0x2EC JUMP JUMPDEST DUP3 DUP1 ADD PUSH1 0x1 ADD DUP6 SSTORE DUP3 ISZERO PUSH2 0x2EC JUMPI SWAP2 DUP3 ADD JUMPDEST DUP3 DUP2 GT ISZERO PUSH2 0x2EB JUMPI DUP3 MLOAD DUP3 SSTORE SWAP2 PUSH1 0x20 ADD SWAP2 SWAP1 PUSH1 0x1 ADD SWAP1 PUSH2 0x2D0 JUMP JUMPDEST JUMPDEST POP SWAP1 POP PUSH2 0x2F9 SWAP2 SWAP1 PUSH2 0x2FD JUMP JUMPDEST POP SWAP1 JUMP JUMPDEST JUMPDEST DUP1 DUP3 GT ISZERO PUSH2 0x316 JUMPI PUSH1 0x0 DUP2 PUSH1 0x0 SWAP1 SSTORE POP PUSH1 0x1 ADD PUSH2 0x2FE JUMP JUMPDEST POP SWAP1 JUMP JUMPDEST PUSH1 0x0 PUSH2 0x32D PUSH2 0x328 DUP5 PUSH2 0x502 JUMP JUMPDEST PUSH2 0x4DD JUMP JUMPDEST SWAP1 POP DUP3 DUP2 MSTORE PUSH1 0x20 DUP2 ADD DUP5 DUP5 DUP5 ADD GT ISZERO PUSH2 0x349 JUMPI PUSH2 0x348 PUSH2 0x696 JUMP JUMPDEST JUMPDEST PUSH2 0x354 DUP5 DUP3 DUP6 PUSH2 0x58E JUMP JUMPDEST POP SWAP4 SWAP3 POP POP POP JUMP JUMPDEST PUSH1 0x0 DUP3 PUSH1 0x1F DUP4 ADD SLT PUSH2 0x371 JUMPI PUSH2 0x370 PUSH2 0x691 JUMP JUMPDEST JUMPDEST DUP2 CALLDATALOAD PUSH2 0x381 DUP5 DUP3 PUSH1 0x20 DUP7 ADD PUSH2 0x31A JUMP JUMPDEST SWAP2 POP POP SWAP3 SWAP2 POP POP JUMP JUMPDEST PUSH1 0x0 DUP2 CALLDATALOAD SWAP1 POP PUSH2 0x399 DUP2 PUSH2 0x6B6 JUMP JUMPDEST SWAP3 SWAP2 POP POP JUMP JUMPDEST PUSH1 0x0 PUSH1 0x20 DUP3 DUP5 SUB SLT ISZERO PUSH2 0x3B5 JUMPI PUSH2 0x3B4 PUSH2 0x6A0 JUMP JUMPDEST JUMPDEST PUSH1 0x0 PUSH2 0x3C3 DUP5 DUP3 DUP6 ADD PUSH2 0x38A JUMP JUMPDEST SWAP2 POP POP SWAP3 SWAP2 POP POP JUMP JUMPDEST PUSH1 0x0 DUP1 PUSH1 0x0 PUSH1 0x60 DUP5 DUP7 SUB SLT ISZERO PUSH2 0x3E5 JUMPI PUSH2 0x3E4 PUSH2 0x6A0 JUMP JUMPDEST JUMPDEST PUSH1 0x0 PUSH2 0x3F3 DUP7 DUP3 DUP8 ADD PUSH2 0x38A JUMP JUMPDEST SWAP4 POP POP PUSH1 0x20 DUP5 ADD CALLDATALOAD PUSH8 0xFFFFFFFFFFFFFFFF DUP2 GT ISZERO PUSH2 0x414 JUMPI PUSH2 0x413 PUSH2 0x69B JUMP JUMPDEST JUMPDEST PUSH2 0x420 DUP7 DUP3 DUP8 ADD PUSH2 0x35C JUMP JUMPDEST SWAP3 POP POP PUSH1 0x40 PUSH2 0x431 DUP7 DUP3 DUP8 ADD PUSH2 0x38A JUMP JUMPDEST SWAP2 POP POP SWAP3 POP SWAP3 POP SWAP3 JUMP JUMPDEST PUSH2 0x444 DUP2 PUSH2 0x54F JUMP JUMPDEST DUP3 MSTORE POP POP JUMP JUMPDEST PUSH1 0x0 PUSH2 0x455 DUP3 PUSH2 0x533 JUMP JUMPDEST PUSH2 0x45F DUP2 DUP6 PUSH2 0x53E JUMP JUMPDEST SWAP4 POP PUSH2 0x46F DUP2 DUP6 PUSH1 0x20 DUP7 ADD PUSH2 0x59D JUMP JUMPDEST PUSH2 0x478 DUP2 PUSH2 0x6A5 JUMP JUMPDEST DUP5 ADD SWAP2 POP POP SWAP3 SWAP2 POP POP JUMP JUMPDEST PUSH2 0x48C DUP2 PUSH2 0x581 JUMP JUMPDEST DUP3 MSTORE POP POP JUMP JUMPDEST PUSH1 0x0 PUSH1 0x20 DUP3 ADD SWAP1 POP PUSH2 0x4A7 PUSH1 0x0 DUP4 ADD DUP5 PUSH2 0x43B JUMP JUMPDEST SWAP3 SWAP2 POP POP JUMP JUMPDEST PUSH1 0x0 PUSH1 0x40 DUP3 ADD SWAP1 POP DUP2 DUP2 SUB PUSH1 0x0 DUP4 ADD MSTORE PUSH2 0x4C7 DUP2 DUP6 PUSH2 0x44A JUMP JUMPDEST SWAP1 POP PUSH2 0x4D6 PUSH1 0x20 DUP4 ADD DUP5 PUSH2 0x483 JUMP JUMPDEST SWAP4 SWAP3 POP POP POP JUMP JUMPDEST PUSH1 0x0 PUSH2 0x4E7 PUSH2 0x4F8 JUMP JUMPDEST SWAP1 POP PUSH2 0x4F3 DUP3 DUP3 PUSH2 0x602 JUMP JUMPDEST SWAP2 SWAP1 POP JUMP JUMPDEST PUSH1 0x0 PUSH1 0x40 MLOAD SWAP1 POP SWAP1 JUMP JUMPDEST PUSH1 0x0 PUSH8 0xFFFFFFFFFFFFFFFF DUP3 GT ISZERO PUSH2 0x51D JUMPI PUSH2 0x51C PUSH2 0x662 JUMP JUMPDEST JUMPDEST PUSH2 0x526 DUP3 PUSH2 0x6A5 JUMP JUMPDEST SWAP1 POP PUSH1 0x20 DUP2 ADD SWAP1 POP SWAP2 SWAP1 POP JUMP JUMPDEST PUSH1 0x0 DUP2 MLOAD SWAP1 POP SWAP2 SWAP1 POP JUMP JUMPDEST PUSH1 0x0 DUP3 DUP3 MSTORE PUSH1 0x20 DUP3 ADD SWAP1 POP SWAP3 SWAP2 POP POP JUMP JUMPDEST PUSH1 0x0 PUSH2 0x55A DUP3 PUSH2 0x561 JUMP JUMPDEST SWAP1 POP SWAP2 SWAP1 POP JUMP JUMPDEST PUSH1 0x0 PUSH20 0xFFFFFFFFFFFFFFFFFFFFFFFFFFFFFFFFFFFFFFFF DUP3 AND SWAP1 POP SWAP2 SWAP1 POP JUMP JUMPDEST PUSH1 0x0 PUSH1 0xFF DUP3 AND SWAP1 POP SWAP2 SWAP1 POP JUMP JUMPDEST DUP3 DUP2 DUP4 CALLDATACOPY PUSH1 0x0 DUP4 DUP4 ADD MSTORE POP POP POP JUMP JUMPDEST PUSH1 0x0 JUMPDEST DUP4 DUP2 LT ISZERO PUSH2 0x5BB JUMPI DUP1 DUP3 ADD MLOAD DUP2 DUP5 ADD MSTORE PUSH1 0x20 DUP2 ADD SWAP1 POP PUSH2 0x5A0 JUMP JUMPDEST DUP4 DUP2 GT ISZERO PUSH2 0x5CA JUMPI PUSH1 0x0 DUP5 DUP5 ADD MSTORE JUMPDEST POP POP POP POP JUMP JUMPDEST PUSH1 0x0 PUSH1 0x2 DUP3 DIV SWAP1 POP PUSH1 0x1 DUP3 AND DUP1 PUSH2 0x5E8 JUMPI PUSH1 0x7F DUP3 AND SWAP2 POP JUMPDEST PUSH1 0x20 DUP3 LT DUP2 EQ ISZERO PUSH2 0x5FC JUMPI PUSH2 0x5FB PUSH2 0x633 JUMP JUMPDEST JUMPDEST POP SWAP2 SWAP1 POP JUMP JUMPDEST PUSH2 0x60B DUP3 PUSH2 0x6A5 JUMP JUMPDEST DUP2 ADD DUP2 DUP2 LT PUSH8 0xFFFFFFFFFFFFFFFF DUP3 GT OR ISZERO PUSH2 0x62A JUMPI PUSH2 0x629 PUSH2 0x662 JUMP JUMPDEST JUMPDEST DUP1 PUSH1 0x40 MSTORE POP POP POP JUMP JUMPDEST PUSH32 0x4E487B7100000000000000000000000000000000000000000000000000000000 PUSH1 0x0 MSTORE PUSH1 0x22 PUSH1 0x4 MSTORE PUSH1 0x24 PUSH1 0x0 REVERT JUMPDEST PUSH32 0x4E487B7100000000000000000000000000000000000000000000000000000000 PUSH1 0x0 MSTORE PUSH1 0x41 PUSH1 0x4 MSTORE PUSH1 0x24 PUSH1 0x0 REVERT JUMPDEST PUSH1 0x0 DUP1 REVERT JUMPDEST PUSH1 0x0 DUP1 REVERT JUMPDEST PUSH1 0x0 DUP1 REVERT JUMPDEST PUSH1 0x0 DUP1 REVERT JUMPDEST PUSH1 0x0 PUSH1 0x1F NOT PUSH1 0x1F DUP4 ADD AND SWAP1 POP SWAP2 SWAP1 POP JUMP JUMPDEST PUSH2 0x6BF DUP2 PUSH2 0x581 JUMP JUMPDEST DUP2 EQ PUSH2 0x6CA JUMPI PUSH1 0x0 DUP1 REVERT JUMPDEST POP JUMP INVALID LOG2 PUSH5 0x6970667358 0x22 SLT KECCAK256 0xDB 0xB8 INVALID STATICCALL CODESIZE 0xFB 0xEF SIGNEXTEND SMOD ADDRESS GASLIMIT SUB 0xD2 SWAP6 DIFFICULTY 0x4A CREATE SWAP7 0xD4 SHL CALL DUP5 CALLDATALOAD MLOAD 0xDB DUP14 0xCE PUSH20 0x96D5C79C64736F6C634300080700330000000000 "
				},
				"gasEstimates": {
					"creation": {
						"codeDepositCost": "359000",
						"executionCost": "24665",
						"totalCost": "383665"
					},
					"external": {
						"SimpliLearn()": "2533",
						"getLearner(uint8)": "infinite",
						"setLearner(uint8,string,uint8)": "infinite"
					}
				},
				"methodIdentifiers": {
					"SimpliLearn()": "97063449",
					"getLearner(uint8)": "174d39f6",
					"setLearner(uint8,string,uint8)": "15ef194e"
				}
			},
			"storageLayout": {
				"storage": [
					{
						"astId": 3,
						"contract": "contracts/ModifierDemo.sol:ModifierDemo",
						"label": "SimpliLearn",
						"offset": 0,
						"slot": "0",
						"type": "t_address"
					},
					{
						"astId": 33,
						"contract": "contracts/ModifierDemo.sol:ModifierDemo",
						"label": "learners",
						"offset": 0,
						"slot": "1",
						"type": "t_mapping(t_uint8,t_struct(learner)28_storage)"
					}
				],
				"types": {
					"t_address": {
						"encoding": "inplace",
						"label": "address",
						"numberOfBytes": "20"
					},
					"t_mapping(t_uint8,t_struct(learner)28_storage)": {
						"encoding": "mapping",
						"key": "t_uint8",
						"label": "mapping(uint8 => struct ModifierDemo.learner)",
						"numberOfBytes": "32",
						"value": "t_struct(learner)28_storage"
					},
					"t_string_storage": {
						"encoding": "bytes",
						"label": "string",
						"numberOfBytes": "32"
					},
					"t_struct(learner)28_storage": {
						"encoding": "inplace",
						"label": "struct ModifierDemo.learner",
						"members": [
							{
								"astId": 25,
								"contract": "contracts/ModifierDemo.sol:ModifierDemo",
								"label": "name",
								"offset": 0,
								"slot": "0",
								"type": "t_string_storage"
							},
							{
								"astId": 27,
								"contract": "contracts/ModifierDemo.sol:ModifierDemo",
								"label": "age",
								"offset": 0,
								"slot": "1",
								"type": "t_uint8"
							}
						],
						"numberOfBytes": "64"
					},
					"t_uint8": {
						"encoding": "inplace",
						"label": "uint8",
						"numberOfBytes": "1"
					}
				}
			},
			"userdoc": {
				"kind": "user",
				"methods": {},
				"version": 1
			}
		}
	}
}