{
	"contracts/ModifierDemo.sol": {
		"ModifierDemo": {
			"abi": [
				{
					"inputs": [],
					"stateMutability": "nonpayable",
					"type": "constructor"
				},
				{
					"inputs": [
						{
							"internalType": "uint8",
							"name": "_key",
							"type": "uint8"
						}
					],
					"name": "getLearner",
					"outputs": [
						{
							"internalType": "string",
							"name": "",
							"type": "string"
						},
						{
							"internalType": "uint8",
							"name": "",
							"type": "uint8"
						}
					],
					"stateMutability": "view",
					"type": "function"
				},
				{
					"inputs": [
						{
							"internalType": "uint8",
							"name": "_key",
							"type": "uint8"
						},
						{
							"internalType": "string",
							"name": "_name",
							"type": "string"
						},
						{
							"internalType": "uint8",
							"name": "_age",
							"type": "uint8"
						}
					],
					"name": "setLearner",
					"outputs": [],
					"stateMutability": "nonpayable",
					"type": "function"
				}
			],
			"devdoc": {
				"kind": "dev",
				"methods": {},
				"version": 1
			},
			"evm": {
				"assembly": "    /* \"contracts/ModifierDemo.sol\":56:852  contract ModifierDemo{... */\n  mstore(0x40, 0x80)\n    /* \"contracts/ModifierDemo.sol\":110:171  constructor() public{... */\n  callvalue\n  dup1\n  iszero\n  tag_1\n  jumpi\n  0x00\n  dup1\n  revert\ntag_1:\n  pop\n    /* \"contracts/ModifierDemo.sol\":154:164  msg.sender */\n  caller\n    /* \"contracts/ModifierDemo.sol\":140:151  SimpliLearn */\n  0x00\n  dup1\n    /* \"contracts/ModifierDemo.sol\":140:164  SimpliLearn = msg.sender */\n  0x0100\n  exp\n  dup2\n  sload\n  dup2\n  0xffffffffffffffffffffffffffffffffffffffff\n  mul\n  not\n  and\n  swap1\n  dup4\n  0xffffffffffffffffffffffffffffffffffffffff\n  and\n  mul\n  or\n  swap1\n  sstore\n  pop\n    /* \"contracts/ModifierDemo.sol\":56:852  contract ModifierDemo{... */\n  dataSize(sub_0)\n  dup1\n  dataOffset(sub_0)\n  0x00\n  codecopy\n  0x00\n  return\nstop\n\nsub_0: assembly {\n        /* \"contracts/ModifierDemo.sol\":56:852  contract ModifierDemo{... */\n      mstore(0x40, 0x80)\n      callvalue\n      dup1\n      iszero\n      tag_1\n      jumpi\n      0x00\n      dup1\n      revert\n    tag_1:\n      pop\n      jumpi(tag_2, lt(calldatasize, 0x04))\n      shr(0xe0, calldataload(0x00))\n      dup1\n      0x15ef194e\n      eq\n      tag_3\n      jumpi\n      dup1\n      0x174d39f6\n      eq\n      tag_4\n      jumpi\n    tag_2:\n      0x00\n      dup1\n      revert\n        /* \"contracts/ModifierDemo.sol\":522:672  function setLearner(uint8 _key, string memory _name, uint8 _age) public{... */\n    tag_3:\n      tag_5\n      0x04\n      dup1\n      calldatasize\n      sub\n      dup2\n      add\n      swap1\n      tag_6\n      swap2\n      swap1\n      tag_7\n      jump\t// in\n    tag_6:\n      tag_8\n      jump\t// in\n    tag_5:\n      stop\n        /* \"contracts/ModifierDemo.sol\":678:850  function getLearner(uint8 _key) public view returns(string memory, uint8){... */\n    tag_4:\n      tag_9\n      0x04\n      dup1\n      calldatasize\n      sub\n      dup2\n      add\n      swap1\n      tag_10\n      swap2\n      swap1\n      tag_11\n      jump\t// in\n    tag_10:\n      tag_12\n      jump\t// in\n    tag_9:\n      mload(0x40)\n      tag_13\n      swap3\n      swap2\n      swap1\n      tag_14\n      jump\t// in\n    tag_13:\n      mload(0x40)\n      dup1\n      swap2\n      sub\n      swap1\n      return\n        /* \"contracts/ModifierDemo.sol\":522:672  function setLearner(uint8 _key, string memory _name, uint8 _age) public{... */\n    tag_8:\n        /* \"contracts/ModifierDemo.sol\":625:630  _name */\n      dup2\n        /* \"contracts/ModifierDemo.sol\":603:611  learners */\n      0x01\n        /* \"contracts/ModifierDemo.sol\":603:617  learners[_key] */\n      0x00\n        /* \"contracts/ModifierDemo.sol\":612:616  _key */\n      dup6\n        /* \"contracts/ModifierDemo.sol\":603:617  learners[_key] */\n      0xff\n      and\n      0xff\n      and\n      dup2\n      mstore\n      0x20\n      add\n      swap1\n      dup2\n      mstore\n      0x20\n      add\n      0x00\n      keccak256\n        /* \"contracts/ModifierDemo.sol\":603:622  learners[_key].name */\n      0x00\n      add\n        /* \"contracts/ModifierDemo.sol\":603:630  learners[_key].name = _name */\n      swap1\n      dup1\n      mload\n      swap1\n      0x20\n      add\n      swap1\n      tag_16\n      swap3\n      swap2\n      swap1\n      tag_17\n      jump\t// in\n    tag_16:\n      pop\n        /* \"contracts/ModifierDemo.sol\":661:665  _age */\n      dup1\n        /* \"contracts/ModifierDemo.sol\":640:648  learners */\n      0x01\n        /* \"contracts/ModifierDemo.sol\":640:654  learners[_key] */\n      0x00\n        /* \"contracts/ModifierDemo.sol\":649:653  _key */\n      dup6\n        /* \"contracts/ModifierDemo.sol\":640:654  learners[_key] */\n      0xff\n      and\n      0xff\n      and\n      dup2\n      mstore\n      0x20\n      add\n      swap1\n      dup2\n      mstore\n      0x20\n      add\n      0x00\n      keccak256\n        /* \"contracts/ModifierDemo.sol\":640:658  learners[_key].age */\n      0x01\n      add\n      0x00\n        /* \"contracts/ModifierDemo.sol\":640:665  learners[_key].age = _age */\n      0x0100\n      exp\n      dup2\n      sload\n      dup2\n      0xff\n      mul\n      not\n      and\n      swap1\n      dup4\n      0xff\n      and\n      mul\n      or\n      swap1\n      sstore\n      pop\n        /* \"contracts/ModifierDemo.sol\":522:672  function setLearner(uint8 _key, string memory _name, uint8 _age) public{... */\n      pop\n      pop\n      pop\n      jump\t// out\n        /* \"contracts/ModifierDemo.sol\":678:850  function getLearner(uint8 _key) public view returns(string memory, uint8){... */\n    tag_12:\n        /* \"contracts/ModifierDemo.sol\":730:743  string memory */\n      0x60\n        /* \"contracts/ModifierDemo.sol\":745:750  uint8 */\n      0x00\n        /* \"contracts/ModifierDemo.sol\":782:790  learners */\n      0x01\n        /* \"contracts/ModifierDemo.sol\":782:796  learners[_key] */\n      0x00\n        /* \"contracts/ModifierDemo.sol\":791:795  _key */\n      dup5\n        /* \"contracts/ModifierDemo.sol\":782:796  learners[_key] */\n      0xff\n      and\n      0xff\n      and\n      dup2\n      mstore\n      0x20\n      add\n      swap1\n      dup2\n      mstore\n      0x20\n      add\n      0x00\n      keccak256\n        /* \"contracts/ModifierDemo.sol\":782:801  learners[_key].name */\n      0x00\n      add\n        /* \"contracts/ModifierDemo.sol\":815:823  learners */\n      0x01\n        /* \"contracts/ModifierDemo.sol\":815:829  learners[_key] */\n      0x00\n        /* \"contracts/ModifierDemo.sol\":824:828  _key */\n      dup6\n        /* \"contracts/ModifierDemo.sol\":815:829  learners[_key] */\n      0xff\n      and\n      0xff\n      and\n      dup2\n      mstore\n      0x20\n      add\n      swap1\n      dup2\n      mstore\n      0x20\n      add\n      0x00\n      keccak256\n        /* \"contracts/ModifierDemo.sol\":815:833  learners[_key].age */\n      0x01\n      add\n      0x00\n      swap1\n      sload\n      swap1\n      0x0100\n      exp\n      swap1\n      div\n      0xff\n      and\n        /* \"contracts/ModifierDemo.sol\":761:843  return (... */\n      dup2\n      dup1\n      sload\n      tag_19\n      swap1\n      tag_20\n      jump\t// in\n    tag_19:\n      dup1\n      0x1f\n      add\n      0x20\n      dup1\n      swap2\n      div\n      mul\n      0x20\n      add\n      mload(0x40)\n      swap1\n      dup2\n      add\n      0x40\n      mstore\n      dup1\n      swap3\n      swap2\n      swap1\n      dup2\n      dup2\n      mstore\n      0x20\n      add\n      dup3\n      dup1\n      sload\n      tag_21\n      swap1\n      tag_20\n      jump\t// in\n    tag_21:\n      dup1\n      iszero\n      tag_22\n      jumpi\n      dup1\n      0x1f\n      lt\n      tag_23\n      jumpi\n      0x0100\n      dup1\n      dup4\n      sload\n      div\n      mul\n      dup4\n      mstore\n      swap2\n      0x20\n      add\n      swap2\n      jump(tag_22)\n    tag_23:\n      dup3\n      add\n      swap2\n      swap1\n      0x00\n      mstore\n      keccak256(0x00, 0x20)\n      swap1\n    tag_24:\n      dup2\n      sload\n      dup2\n      mstore\n      swap1\n      0x01\n      add\n      swap1\n      0x20\n      add\n      dup1\n      dup4\n      gt\n      tag_24\n      jumpi\n      dup3\n      swap1\n      sub\n      0x1f\n      and\n      dup3\n      add\n      swap2\n    tag_22:\n      pop\n      pop\n      pop\n      pop\n      pop\n      swap2\n      pop\n      swap2\n      pop\n      swap2\n      pop\n        /* \"contracts/ModifierDemo.sol\":678:850  function getLearner(uint8 _key) public view returns(string memory, uint8){... */\n      swap2\n      pop\n      swap2\n      jump\t// out\n    tag_17:\n      dup3\n      dup1\n      sload\n      tag_25\n      swap1\n      tag_20\n      jump\t// in\n    tag_25:\n      swap1\n      0x00\n      mstore\n      keccak256(0x00, 0x20)\n      swap1\n      0x1f\n      add\n      0x20\n      swap1\n      div\n      dup2\n      add\n      swap3\n      dup3\n      tag_27\n      jumpi\n      0x00\n      dup6\n      sstore\n      jump(tag_26)\n    tag_27:\n      dup3\n      0x1f\n      lt\n      tag_28\n      jumpi\n      dup1\n      mload\n      not(0xff)\n      and\n      dup4\n      dup1\n      add\n      or\n      dup6\n      sstore\n      jump(tag_26)\n    tag_28:\n      dup3\n      dup1\n      add\n      0x01\n      add\n      dup6\n      sstore\n      dup3\n      iszero\n      tag_26\n      jumpi\n      swap2\n      dup3\n      add\n    tag_29:\n      dup3\n      dup2\n      gt\n      iszero\n      tag_30\n      jumpi\n      dup3\n      mload\n      dup3\n      sstore\n      swap2\n      0x20\n      add\n      swap2\n      swap1\n      0x01\n      add\n      swap1\n      jump(tag_29)\n    tag_30:\n    tag_26:\n      pop\n      swap1\n      pop\n      tag_31\n      swap2\n      swap1\n      tag_32\n      jump\t// in\n    tag_31:\n      pop\n      swap1\n      jump\t// out\n    tag_32:\n    tag_33:\n      dup1\n      dup3\n      gt\n      iszero\n      tag_34\n      jumpi\n      0x00\n      dup2\n      0x00\n      swap1\n      sstore\n      pop\n      0x01\n      add\n      jump(tag_33)\n    tag_34:\n      pop\n      swap1\n      jump\t// out\n        /* \"#utility.yul\":7:419   */\n    tag_36:\n        /* \"#utility.yul\":85:90   */\n      0x00\n        /* \"#utility.yul\":110:176   */\n      tag_38\n        /* \"#utility.yul\":126:175   */\n      tag_39\n        /* \"#utility.yul\":168:174   */\n      dup5\n        /* \"#utility.yul\":126:175   */\n      tag_40\n      jump\t// in\n    tag_39:\n        /* \"#utility.yul\":110:176   */\n      tag_41\n      jump\t// in\n    tag_38:\n        /* \"#utility.yul\":101:176   */\n      swap1\n      pop\n        /* \"#utility.yul\":199:205   */\n      dup3\n        /* \"#utility.yul\":192:197   */\n      dup2\n        /* \"#utility.yul\":185:206   */\n      mstore\n        /* \"#utility.yul\":237:241   */\n      0x20\n        /* \"#utility.yul\":230:235   */\n      dup2\n        /* \"#utility.yul\":226:242   */\n      add\n        /* \"#utility.yul\":275:278   */\n      dup5\n        /* \"#utility.yul\":266:272   */\n      dup5\n        /* \"#utility.yul\":261:264   */\n      dup5\n        /* \"#utility.yul\":257:273   */\n      add\n        /* \"#utility.yul\":254:279   */\n      gt\n        /* \"#utility.yul\":251:363   */\n      iszero\n      tag_42\n      jumpi\n        /* \"#utility.yul\":282:361   */\n      tag_43\n      tag_44\n      jump\t// in\n    tag_43:\n        /* \"#utility.yul\":251:363   */\n    tag_42:\n        /* \"#utility.yul\":372:413   */\n      tag_45\n        /* \"#utility.yul\":406:412   */\n      dup5\n        /* \"#utility.yul\":401:404   */\n      dup3\n        /* \"#utility.yul\":396:399   */\n      dup6\n        /* \"#utility.yul\":372:413   */\n      tag_46\n      jump\t// in\n    tag_45:\n        /* \"#utility.yul\":91:419   */\n      pop\n        /* \"#utility.yul\":7:419   */\n      swap4\n      swap3\n      pop\n      pop\n      pop\n      jump\t// out\n        /* \"#utility.yul\":439:779   */\n    tag_47:\n        /* \"#utility.yul\":495:500   */\n      0x00\n        /* \"#utility.yul\":544:547   */\n      dup3\n        /* \"#utility.yul\":537:541   */\n      0x1f\n        /* \"#utility.yul\":529:535   */\n      dup4\n        /* \"#utility.yul\":525:542   */\n      add\n        /* \"#utility.yul\":521:548   */\n      slt\n        /* \"#utility.yul\":511:633   */\n      tag_49\n      jumpi\n        /* \"#utility.yul\":552:631   */\n      tag_50\n      tag_51\n      jump\t// in\n    tag_50:\n        /* \"#utility.yul\":511:633   */\n    tag_49:\n        /* \"#utility.yul\":669:675   */\n      dup2\n        /* \"#utility.yul\":656:676   */\n      calldataload\n        /* \"#utility.yul\":694:773   */\n      tag_52\n        /* \"#utility.yul\":769:772   */\n      dup5\n        /* \"#utility.yul\":761:767   */\n      dup3\n        /* \"#utility.yul\":754:758   */\n      0x20\n        /* \"#utility.yul\":746:752   */\n      dup7\n        /* \"#utility.yul\":742:759   */\n      add\n        /* \"#utility.yul\":694:773   */\n      tag_36\n      jump\t// in\n    tag_52:\n        /* \"#utility.yul\":685:773   */\n      swap2\n      pop\n        /* \"#utility.yul\":501:779   */\n      pop\n        /* \"#utility.yul\":439:779   */\n      swap3\n      swap2\n      pop\n      pop\n      jump\t// out\n        /* \"#utility.yul\":785:920   */\n    tag_53:\n        /* \"#utility.yul\":829:834   */\n      0x00\n        /* \"#utility.yul\":867:873   */\n      dup2\n        /* \"#utility.yul\":854:874   */\n      calldataload\n        /* \"#utility.yul\":845:874   */\n      swap1\n      pop\n        /* \"#utility.yul\":883:914   */\n      tag_55\n        /* \"#utility.yul\":908:913   */\n      dup2\n        /* \"#utility.yul\":883:914   */\n      tag_56\n      jump\t// in\n    tag_55:\n        /* \"#utility.yul\":785:920   */\n      swap3\n      swap2\n      pop\n      pop\n      jump\t// out\n        /* \"#utility.yul\":926:1251   */\n    tag_11:\n        /* \"#utility.yul\":983:989   */\n      0x00\n        /* \"#utility.yul\":1032:1034   */\n      0x20\n        /* \"#utility.yul\":1020:1029   */\n      dup3\n        /* \"#utility.yul\":1011:1018   */\n      dup5\n        /* \"#utility.yul\":1007:1030   */\n      sub\n        /* \"#utility.yul\":1003:1035   */\n      slt\n        /* \"#utility.yul\":1000:1119   */\n      iszero\n      tag_58\n      jumpi\n        /* \"#utility.yul\":1038:1117   */\n      tag_59\n      tag_60\n      jump\t// in\n    tag_59:\n        /* \"#utility.yul\":1000:1119   */\n    tag_58:\n        /* \"#utility.yul\":1158:1159   */\n      0x00\n        /* \"#utility.yul\":1183:1234   */\n      tag_61\n        /* \"#utility.yul\":1226:1233   */\n      dup5\n        /* \"#utility.yul\":1217:1223   */\n      dup3\n        /* \"#utility.yul\":1206:1215   */\n      dup6\n        /* \"#utility.yul\":1202:1224   */\n      add\n        /* \"#utility.yul\":1183:1234   */\n      tag_53\n      jump\t// in\n    tag_61:\n        /* \"#utility.yul\":1173:1234   */\n      swap2\n      pop\n        /* \"#utility.yul\":1129:1244   */\n      pop\n        /* \"#utility.yul\":926:1251   */\n      swap3\n      swap2\n      pop\n      pop\n      jump\t// out\n        /* \"#utility.yul\":1257:2048   */\n    tag_7:\n        /* \"#utility.yul\":1340:1346   */\n      0x00\n        /* \"#utility.yul\":1348:1354   */\n      dup1\n        /* \"#utility.yul\":1356:1362   */\n      0x00\n        /* \"#utility.yul\":1405:1407   */\n      0x60\n        /* \"#utility.yul\":1393:1402   */\n      dup5\n        /* \"#utility.yul\":1384:1391   */\n      dup7\n        /* \"#utility.yul\":1380:1403   */\n      sub\n        /* \"#utility.yul\":1376:1408   */\n      slt\n        /* \"#utility.yul\":1373:1492   */\n      iszero\n      tag_63\n      jumpi\n        /* \"#utility.yul\":1411:1490   */\n      tag_64\n      tag_60\n      jump\t// in\n    tag_64:\n        /* \"#utility.yul\":1373:1492   */\n    tag_63:\n        /* \"#utility.yul\":1531:1532   */\n      0x00\n        /* \"#utility.yul\":1556:1607   */\n      tag_65\n        /* \"#utility.yul\":1599:1606   */\n      dup7\n        /* \"#utility.yul\":1590:1596   */\n      dup3\n        /* \"#utility.yul\":1579:1588   */\n      dup8\n        /* \"#utility.yul\":1575:1597   */\n      add\n        /* \"#utility.yul\":1556:1607   */\n      tag_53\n      jump\t// in\n    tag_65:\n        /* \"#utility.yul\":1546:1607   */\n      swap4\n      pop\n        /* \"#utility.yul\":1502:1617   */\n      pop\n        /* \"#utility.yul\":1684:1686   */\n      0x20\n        /* \"#utility.yul\":1673:1682   */\n      dup5\n        /* \"#utility.yul\":1669:1687   */\n      add\n        /* \"#utility.yul\":1656:1688   */\n      calldataload\n        /* \"#utility.yul\":1715:1733   */\n      0xffffffffffffffff\n        /* \"#utility.yul\":1707:1713   */\n      dup2\n        /* \"#utility.yul\":1704:1734   */\n      gt\n        /* \"#utility.yul\":1701:1818   */\n      iszero\n      tag_66\n      jumpi\n        /* \"#utility.yul\":1737:1816   */\n      tag_67\n      tag_68\n      jump\t// in\n    tag_67:\n        /* \"#utility.yul\":1701:1818   */\n    tag_66:\n        /* \"#utility.yul\":1842:1905   */\n      tag_69\n        /* \"#utility.yul\":1897:1904   */\n      dup7\n        /* \"#utility.yul\":1888:1894   */\n      dup3\n        /* \"#utility.yul\":1877:1886   */\n      dup8\n        /* \"#utility.yul\":1873:1895   */\n      add\n        /* \"#utility.yul\":1842:1905   */\n      tag_47\n      jump\t// in\n    tag_69:\n        /* \"#utility.yul\":1832:1905   */\n      swap3\n      pop\n        /* \"#utility.yul\":1627:1915   */\n      pop\n        /* \"#utility.yul\":1954:1956   */\n      0x40\n        /* \"#utility.yul\":1980:2031   */\n      tag_70\n        /* \"#utility.yul\":2023:2030   */\n      dup7\n        /* \"#utility.yul\":2014:2020   */\n      dup3\n        /* \"#utility.yul\":2003:2012   */\n      dup8\n        /* \"#utility.yul\":1999:2021   */\n      add\n        /* \"#utility.yul\":1980:2031   */\n      tag_53\n      jump\t// in\n    tag_70:\n        /* \"#utility.yul\":1970:2031   */\n      swap2\n      pop\n        /* \"#utility.yul\":1925:2041   */\n      pop\n        /* \"#utility.yul\":1257:2048   */\n      swap3\n      pop\n      swap3\n      pop\n      swap3\n      jump\t// out\n        /* \"#utility.yul\":2054:2418   */\n    tag_71:\n        /* \"#utility.yul\":2142:2145   */\n      0x00\n        /* \"#utility.yul\":2170:2209   */\n      tag_73\n        /* \"#utility.yul\":2203:2208   */\n      dup3\n        /* \"#utility.yul\":2170:2209   */\n      tag_74\n      jump\t// in\n    tag_73:\n        /* \"#utility.yul\":2225:2296   */\n      tag_75\n        /* \"#utility.yul\":2289:2295   */\n      dup2\n        /* \"#utility.yul\":2284:2287   */\n      dup6\n        /* \"#utility.yul\":2225:2296   */\n      tag_76\n      jump\t// in\n    tag_75:\n        /* \"#utility.yul\":2218:2296   */\n      swap4\n      pop\n        /* \"#utility.yul\":2305:2357   */\n      tag_77\n        /* \"#utility.yul\":2350:2356   */\n      dup2\n        /* \"#utility.yul\":2345:2348   */\n      dup6\n        /* \"#utility.yul\":2338:2342   */\n      0x20\n        /* \"#utility.yul\":2331:2336   */\n      dup7\n        /* \"#utility.yul\":2327:2343   */\n      add\n        /* \"#utility.yul\":2305:2357   */\n      tag_78\n      jump\t// in\n    tag_77:\n        /* \"#utility.yul\":2382:2411   */\n      tag_79\n        /* \"#utility.yul\":2404:2410   */\n      dup2\n        /* \"#utility.yul\":2382:2411   */\n      tag_80\n      jump\t// in\n    tag_79:\n        /* \"#utility.yul\":2377:2380   */\n      dup5\n        /* \"#utility.yul\":2373:2412   */\n      add\n        /* \"#utility.yul\":2366:2412   */\n      swap2\n      pop\n        /* \"#utility.yul\":2146:2418   */\n      pop\n        /* \"#utility.yul\":2054:2418   */\n      swap3\n      swap2\n      pop\n      pop\n      jump\t// out\n        /* \"#utility.yul\":2424:2536   */\n    tag_81:\n        /* \"#utility.yul\":2507:2529   */\n      tag_83\n        /* \"#utility.yul\":2523:2528   */\n      dup2\n        /* \"#utility.yul\":2507:2529   */\n      tag_84\n      jump\t// in\n    tag_83:\n        /* \"#utility.yul\":2502:2505   */\n      dup3\n        /* \"#utility.yul\":2495:2530   */\n      mstore\n        /* \"#utility.yul\":2424:2536   */\n      pop\n      pop\n      jump\t// out\n        /* \"#utility.yul\":2542:2957   */\n    tag_14:\n        /* \"#utility.yul\":2679:2683   */\n      0x00\n        /* \"#utility.yul\":2717:2719   */\n      0x40\n        /* \"#utility.yul\":2706:2715   */\n      dup3\n        /* \"#utility.yul\":2702:2720   */\n      add\n        /* \"#utility.yul\":2694:2720   */\n      swap1\n      pop\n        /* \"#utility.yul\":2766:2775   */\n      dup2\n        /* \"#utility.yul\":2760:2764   */\n      dup2\n        /* \"#utility.yul\":2756:2776   */\n      sub\n        /* \"#utility.yul\":2752:2753   */\n      0x00\n        /* \"#utility.yul\":2741:2750   */\n      dup4\n        /* \"#utility.yul\":2737:2754   */\n      add\n        /* \"#utility.yul\":2730:2777   */\n      mstore\n        /* \"#utility.yul\":2794:2872   */\n      tag_86\n        /* \"#utility.yul\":2867:2871   */\n      dup2\n        /* \"#utility.yul\":2858:2864   */\n      dup6\n        /* \"#utility.yul\":2794:2872   */\n      tag_71\n      jump\t// in\n    tag_86:\n        /* \"#utility.yul\":2786:2872   */\n      swap1\n      pop\n        /* \"#utility.yul\":2882:2950   */\n      tag_87\n        /* \"#utility.yul\":2946:2948   */\n      0x20\n        /* \"#utility.yul\":2935:2944   */\n      dup4\n        /* \"#utility.yul\":2931:2949   */\n      add\n        /* \"#utility.yul\":2922:2928   */\n      dup5\n        /* \"#utility.yul\":2882:2950   */\n      tag_81\n      jump\t// in\n    tag_87:\n        /* \"#utility.yul\":2542:2957   */\n      swap4\n      swap3\n      pop\n      pop\n      pop\n      jump\t// out\n        /* \"#utility.yul\":2963:3092   */\n    tag_41:\n        /* \"#utility.yul\":2997:3003   */\n      0x00\n        /* \"#utility.yul\":3024:3044   */\n      tag_89\n      tag_90\n      jump\t// in\n    tag_89:\n        /* \"#utility.yul\":3014:3044   */\n      swap1\n      pop\n        /* \"#utility.yul\":3053:3086   */\n      tag_91\n        /* \"#utility.yul\":3081:3085   */\n      dup3\n        /* \"#utility.yul\":3073:3079   */\n      dup3\n        /* \"#utility.yul\":3053:3086   */\n      tag_92\n      jump\t// in\n    tag_91:\n        /* \"#utility.yul\":2963:3092   */\n      swap2\n      swap1\n      pop\n      jump\t// out\n        /* \"#utility.yul\":3098:3173   */\n    tag_90:\n        /* \"#utility.yul\":3131:3137   */\n      0x00\n        /* \"#utility.yul\":3164:3166   */\n      0x40\n        /* \"#utility.yul\":3158:3167   */\n      mload\n        /* \"#utility.yul\":3148:3167   */\n      swap1\n      pop\n        /* \"#utility.yul\":3098:3173   */\n      swap1\n      jump\t// out\n        /* \"#utility.yul\":3179:3487   */\n    tag_40:\n        /* \"#utility.yul\":3241:3245   */\n      0x00\n        /* \"#utility.yul\":3331:3349   */\n      0xffffffffffffffff\n        /* \"#utility.yul\":3323:3329   */\n      dup3\n        /* \"#utility.yul\":3320:3350   */\n      gt\n        /* \"#utility.yul\":3317:3373   */\n      iszero\n      tag_95\n      jumpi\n        /* \"#utility.yul\":3353:3371   */\n      tag_96\n      tag_97\n      jump\t// in\n    tag_96:\n        /* \"#utility.yul\":3317:3373   */\n    tag_95:\n        /* \"#utility.yul\":3391:3420   */\n      tag_98\n        /* \"#utility.yul\":3413:3419   */\n      dup3\n        /* \"#utility.yul\":3391:3420   */\n      tag_80\n      jump\t// in\n    tag_98:\n        /* \"#utility.yul\":3383:3420   */\n      swap1\n      pop\n        /* \"#utility.yul\":3475:3479   */\n      0x20\n        /* \"#utility.yul\":3469:3473   */\n      dup2\n        /* \"#utility.yul\":3465:3480   */\n      add\n        /* \"#utility.yul\":3457:3480   */\n      swap1\n      pop\n        /* \"#utility.yul\":3179:3487   */\n      swap2\n      swap1\n      pop\n      jump\t// out\n        /* \"#utility.yul\":3493:3592   */\n    tag_74:\n        /* \"#utility.yul\":3545:3551   */\n      0x00\n        /* \"#utility.yul\":3579:3584   */\n      dup2\n        /* \"#utility.yul\":3573:3585   */\n      mload\n        /* \"#utility.yul\":3563:3585   */\n      swap1\n      pop\n        /* \"#utility.yul\":3493:3592   */\n      swap2\n      swap1\n      pop\n      jump\t// out\n        /* \"#utility.yul\":3598:3767   */\n    tag_76:\n        /* \"#utility.yul\":3682:3693   */\n      0x00\n        /* \"#utility.yul\":3716:3722   */\n      dup3\n        /* \"#utility.yul\":3711:3714   */\n      dup3\n        /* \"#utility.yul\":3704:3723   */\n      mstore\n        /* \"#utility.yul\":3756:3760   */\n      0x20\n        /* \"#utility.yul\":3751:3754   */\n      dup3\n        /* \"#utility.yul\":3747:3761   */\n      add\n        /* \"#utility.yul\":3732:3761   */\n      swap1\n      pop\n        /* \"#utility.yul\":3598:3767   */\n      swap3\n      swap2\n      pop\n      pop\n      jump\t// out\n        /* \"#utility.yul\":3773:3859   */\n    tag_84:\n        /* \"#utility.yul\":3808:3815   */\n      0x00\n        /* \"#utility.yul\":3848:3852   */\n      0xff\n        /* \"#utility.yul\":3841:3846   */\n      dup3\n        /* \"#utility.yul\":3837:3853   */\n      and\n        /* \"#utility.yul\":3826:3853   */\n      swap1\n      pop\n        /* \"#utility.yul\":3773:3859   */\n      swap2\n      swap1\n      pop\n      jump\t// out\n        /* \"#utility.yul\":3865:4019   */\n    tag_46:\n        /* \"#utility.yul\":3949:3955   */\n      dup3\n        /* \"#utility.yul\":3944:3947   */\n      dup2\n        /* \"#utility.yul\":3939:3942   */\n      dup4\n        /* \"#utility.yul\":3926:3956   */\n      calldatacopy\n        /* \"#utility.yul\":4011:4012   */\n      0x00\n        /* \"#utility.yul\":4002:4008   */\n      dup4\n        /* \"#utility.yul\":3997:4000   */\n      dup4\n        /* \"#utility.yul\":3993:4009   */\n      add\n        /* \"#utility.yul\":3986:4013   */\n      mstore\n        /* \"#utility.yul\":3865:4019   */\n      pop\n      pop\n      pop\n      jump\t// out\n        /* \"#utility.yul\":4025:4332   */\n    tag_78:\n        /* \"#utility.yul\":4093:4094   */\n      0x00\n        /* \"#utility.yul\":4103:4216   */\n    tag_104:\n        /* \"#utility.yul\":4117:4123   */\n      dup4\n        /* \"#utility.yul\":4114:4115   */\n      dup2\n        /* \"#utility.yul\":4111:4124   */\n      lt\n        /* \"#utility.yul\":4103:4216   */\n      iszero\n      tag_106\n      jumpi\n        /* \"#utility.yul\":4202:4203   */\n      dup1\n        /* \"#utility.yul\":4197:4200   */\n      dup3\n        /* \"#utility.yul\":4193:4204   */\n      add\n        /* \"#utility.yul\":4187:4205   */\n      mload\n        /* \"#utility.yul\":4183:4184   */\n      dup2\n        /* \"#utility.yul\":4178:4181   */\n      dup5\n        /* \"#utility.yul\":4174:4185   */\n      add\n        /* \"#utility.yul\":4167:4206   */\n      mstore\n        /* \"#utility.yul\":4139:4141   */\n      0x20\n        /* \"#utility.yul\":4136:4137   */\n      dup2\n        /* \"#utility.yul\":4132:4142   */\n      add\n        /* \"#utility.yul\":4127:4142   */\n      swap1\n      pop\n        /* \"#utility.yul\":4103:4216   */\n      jump(tag_104)\n    tag_106:\n        /* \"#utility.yul\":4234:4240   */\n      dup4\n        /* \"#utility.yul\":4231:4232   */\n      dup2\n        /* \"#utility.yul\":4228:4241   */\n      gt\n        /* \"#utility.yul\":4225:4326   */\n      iszero\n      tag_107\n      jumpi\n        /* \"#utility.yul\":4314:4315   */\n      0x00\n        /* \"#utility.yul\":4305:4311   */\n      dup5\n        /* \"#utility.yul\":4300:4303   */\n      dup5\n        /* \"#utility.yul\":4296:4312   */\n      add\n        /* \"#utility.yul\":4289:4316   */\n      mstore\n        /* \"#utility.yul\":4225:4326   */\n    tag_107:\n        /* \"#utility.yul\":4074:4332   */\n      pop\n        /* \"#utility.yul\":4025:4332   */\n      pop\n      pop\n      pop\n      jump\t// out\n        /* \"#utility.yul\":4338:4658   */\n    tag_20:\n        /* \"#utility.yul\":4382:4388   */\n      0x00\n        /* \"#utility.yul\":4419:4420   */\n      0x02\n        /* \"#utility.yul\":4413:4417   */\n      dup3\n        /* \"#utility.yul\":4409:4421   */\n      div\n        /* \"#utility.yul\":4399:4421   */\n      swap1\n      pop\n        /* \"#utility.yul\":4466:4467   */\n      0x01\n        /* \"#utility.yul\":4460:4464   */\n      dup3\n        /* \"#utility.yul\":4456:4468   */\n      and\n        /* \"#utility.yul\":4487:4505   */\n      dup1\n        /* \"#utility.yul\":4477:4558   */\n      tag_109\n      jumpi\n        /* \"#utility.yul\":4543:4547   */\n      0x7f\n        /* \"#utility.yul\":4535:4541   */\n      dup3\n        /* \"#utility.yul\":4531:4548   */\n      and\n        /* \"#utility.yul\":4521:4548   */\n      swap2\n      pop\n        /* \"#utility.yul\":4477:4558   */\n    tag_109:\n        /* \"#utility.yul\":4605:4607   */\n      0x20\n        /* \"#utility.yul\":4597:4603   */\n      dup3\n        /* \"#utility.yul\":4594:4608   */\n      lt\n        /* \"#utility.yul\":4574:4592   */\n      dup2\n        /* \"#utility.yul\":4571:4609   */\n      eq\n        /* \"#utility.yul\":4568:4652   */\n      iszero\n      tag_110\n      jumpi\n        /* \"#utility.yul\":4624:4642   */\n      tag_111\n      tag_112\n      jump\t// in\n    tag_111:\n        /* \"#utility.yul\":4568:4652   */\n    tag_110:\n        /* \"#utility.yul\":4389:4658   */\n      pop\n        /* \"#utility.yul\":4338:4658   */\n      swap2\n      swap1\n      pop\n      jump\t// out\n        /* \"#utility.yul\":4664:4945   */\n    tag_92:\n        /* \"#utility.yul\":4747:4774   */\n      tag_114\n        /* \"#utility.yul\":4769:4773   */\n      dup3\n        /* \"#utility.yul\":4747:4774   */\n      tag_80\n      jump\t// in\n    tag_114:\n        /* \"#utility.yul\":4739:4745   */\n      dup2\n        /* \"#utility.yul\":4735:4775   */\n      add\n        /* \"#utility.yul\":4877:4883   */\n      dup2\n        /* \"#utility.yul\":4865:4875   */\n      dup2\n        /* \"#utility.yul\":4862:4884   */\n      lt\n        /* \"#utility.yul\":4841:4859   */\n      0xffffffffffffffff\n        /* \"#utility.yul\":4829:4839   */\n      dup3\n        /* \"#utility.yul\":4826:4860   */\n      gt\n        /* \"#utility.yul\":4823:4885   */\n      or\n        /* \"#utility.yul\":4820:4908   */\n      iszero\n      tag_115\n      jumpi\n        /* \"#utility.yul\":4888:4906   */\n      tag_116\n      tag_97\n      jump\t// in\n    tag_116:\n        /* \"#utility.yul\":4820:4908   */\n    tag_115:\n        /* \"#utility.yul\":4928:4938   */\n      dup1\n        /* \"#utility.yul\":4924:4926   */\n      0x40\n        /* \"#utility.yul\":4917:4939   */\n      mstore\n        /* \"#utility.yul\":4707:4945   */\n      pop\n        /* \"#utility.yul\":4664:4945   */\n      pop\n      pop\n      jump\t// out\n        /* \"#utility.yul\":4951:5131   */\n    tag_112:\n        /* \"#utility.yul\":4999:5076   */\n      0x4e487b7100000000000000000000000000000000000000000000000000000000\n        /* \"#utility.yul\":4996:4997   */\n      0x00\n        /* \"#utility.yul\":4989:5077   */\n      mstore\n        /* \"#utility.yul\":5096:5100   */\n      0x22\n        /* \"#utility.yul\":5093:5094   */\n      0x04\n        /* \"#utility.yul\":5086:5101   */\n      mstore\n        /* \"#utility.yul\":5120:5124   */\n      0x24\n        /* \"#utility.yul\":5117:5118   */\n      0x00\n        /* \"#utility.yul\":5110:5125   */\n      revert\n        /* \"#utility.yul\":5137:5317   */\n    tag_97:\n        /* \"#utility.yul\":5185:5262   */\n      0x4e487b7100000000000000000000000000000000000000000000000000000000\n        /* \"#utility.yul\":5182:5183   */\n      0x00\n        /* \"#utility.yul\":5175:5263   */\n      mstore\n        /* \"#utility.yul\":5282:5286   */\n      0x41\n        /* \"#utility.yul\":5279:5280   */\n      0x04\n        /* \"#utility.yul\":5272:5287   */\n      mstore\n        /* \"#utility.yul\":5306:5310   */\n      0x24\n        /* \"#utility.yul\":5303:5304   */\n      0x00\n        /* \"#utility.yul\":5296:5311   */\n      revert\n        /* \"#utility.yul\":5323:5440   */\n    tag_51:\n        /* \"#utility.yul\":5432:5433   */\n      0x00\n        /* \"#utility.yul\":5429:5430   */\n      dup1\n        /* \"#utility.yul\":5422:5434   */\n      revert\n        /* \"#utility.yul\":5446:5563   */\n    tag_44:\n        /* \"#utility.yul\":5555:5556   */\n      0x00\n        /* \"#utility.yul\":5552:5553   */\n      dup1\n        /* \"#utility.yul\":5545:5557   */\n      revert\n        /* \"#utility.yul\":5569:5686   */\n    tag_68:\n        /* \"#utility.yul\":5678:5679   */\n      0x00\n        /* \"#utility.yul\":5675:5676   */\n      dup1\n        /* \"#utility.yul\":5668:5680   */\n      revert\n        /* \"#utility.yul\":5692:5809   */\n    tag_60:\n        /* \"#utility.yul\":5801:5802   */\n      0x00\n        /* \"#utility.yul\":5798:5799   */\n      dup1\n        /* \"#utility.yul\":5791:5803   */\n      revert\n        /* \"#utility.yul\":5815:5917   */\n    tag_80:\n        /* \"#utility.yul\":5856:5862   */\n      0x00\n        /* \"#utility.yul\":5907:5909   */\n      0x1f\n        /* \"#utility.yul\":5903:5910   */\n      not\n        /* \"#utility.yul\":5898:5900   */\n      0x1f\n        /* \"#utility.yul\":5891:5896   */\n      dup4\n        /* \"#utility.yul\":5887:5901   */\n      add\n        /* \"#utility.yul\":5883:5911   */\n      and\n        /* \"#utility.yul\":5873:5911   */\n      swap1\n      pop\n        /* \"#utility.yul\":5815:5917   */\n      swap2\n      swap1\n      pop\n      jump\t// out\n        /* \"#utility.yul\":5923:6041   */\n    tag_56:\n        /* \"#utility.yul\":5994:6016   */\n      tag_125\n        /* \"#utility.yul\":6010:6015   */\n      dup2\n        /* \"#utility.yul\":5994:6016   */\n      tag_84\n      jump\t// in\n    tag_125:\n        /* \"#utility.yul\":5987:5992   */\n      dup2\n        /* \"#utility.yul\":5984:6017   */\n      eq\n        /* \"#utility.yul\":5974:6035   */\n      tag_126\n      jumpi\n        /* \"#utility.yul\":6031:6032   */\n      0x00\n        /* \"#utility.yul\":6028:6029   */\n      dup1\n        /* \"#utility.yul\":6021:6033   */\n      revert\n        /* \"#utility.yul\":5974:6035   */\n    tag_126:\n        /* \"#utility.yul\":5923:6041   */\n      pop\n      jump\t// out\n\n    auxdata: 0xa26469706673582212209ac8853b2ca9b3f9a610eeaf9a48cf9c24b0c4217d828d881b309c8468ce906f64736f6c63430008070033\n}\n",
				"bytecode": {
					"linkReferences": {},
					"object": "608060405234801561001057600080fd5b50336000806101000a81548173ffffffffffffffffffffffffffffffffffffffff021916908373ffffffffffffffffffffffffffffffffffffffff160217905550610602806100606000396000f3fe608060405234801561001057600080fd5b50600436106100365760003560e01c806315ef194e1461003b578063174d39f614610057575b600080fd5b61005560048036038101906100509190610327565b610088565b005b610071600480360381019061006c91906102fa565b6100f3565b60405161007f9291906103de565b60405180910390f35b81600160008560ff1660ff16815260200190815260200160002060000190805190602001906100b89291906101d2565b5080600160008560ff1660ff16815260200190815260200160002060010160006101000a81548160ff021916908360ff160217905550505050565b60606000600160008460ff1660ff168152602001908152602001600020600001600160008560ff1660ff16815260200190815260200160002060010160009054906101000a900460ff16818054610149906104cf565b80601f0160208091040260200160405190810160405280929190818152602001828054610175906104cf565b80156101c25780601f10610197576101008083540402835291602001916101c2565b820191906000526020600020905b8154815290600101906020018083116101a557829003601f168201915b5050505050915091509150915091565b8280546101de906104cf565b90600052602060002090601f0160209004810192826102005760008555610247565b82601f1061021957805160ff1916838001178555610247565b82800160010185558215610247579182015b8281111561024657825182559160200191906001019061022b565b5b5090506102549190610258565b5090565b5b80821115610271576000816000905550600101610259565b5090565b600061028861028384610433565b61040e565b9050828152602081018484840111156102a4576102a3610595565b5b6102af84828561048d565b509392505050565b600082601f8301126102cc576102cb610590565b5b81356102dc848260208601610275565b91505092915050565b6000813590506102f4816105b5565b92915050565b6000602082840312156103105761030f61059f565b5b600061031e848285016102e5565b91505092915050565b6000806000606084860312156103405761033f61059f565b5b600061034e868287016102e5565b935050602084013567ffffffffffffffff81111561036f5761036e61059a565b5b61037b868287016102b7565b925050604061038c868287016102e5565b9150509250925092565b60006103a182610464565b6103ab818561046f565b93506103bb81856020860161049c565b6103c4816105a4565b840191505092915050565b6103d881610480565b82525050565b600060408201905081810360008301526103f88185610396565b905061040760208301846103cf565b9392505050565b6000610418610429565b90506104248282610501565b919050565b6000604051905090565b600067ffffffffffffffff82111561044e5761044d610561565b5b610457826105a4565b9050602081019050919050565b600081519050919050565b600082825260208201905092915050565b600060ff82169050919050565b82818337600083830152505050565b60005b838110156104ba57808201518184015260208101905061049f565b838111156104c9576000848401525b50505050565b600060028204905060018216806104e757607f821691505b602082108114156104fb576104fa610532565b5b50919050565b61050a826105a4565b810181811067ffffffffffffffff8211171561052957610528610561565b5b80604052505050565b7f4e487b7100000000000000000000000000000000000000000000000000000000600052602260045260246000fd5b7f4e487b7100000000000000000000000000000000000000000000000000000000600052604160045260246000fd5b600080fd5b600080fd5b600080fd5b600080fd5b6000601f19601f8301169050919050565b6105be81610480565b81146105c957600080fd5b5056fea26469706673582212209ac8853b2ca9b3f9a610eeaf9a48cf9c24b0c4217d828d881b309c8468ce906f64736f6c63430008070033",
					"opcodes": "PUSH1 0x80 PUSH1 0x40 MSTORE CALLVALUE DUP1 ISZERO PUSH2 0x10 JUMPI PUSH1 0x0 DUP1 REVERT JUMPDEST POP CALLER PUSH1 0x0 DUP1 PUSH2 0x100 EXP DUP2 SLOAD DUP2 PUSH20 0xFFFFFFFFFFFFFFFFFFFFFFFFFFFFFFFFFFFFFFFF MUL NOT AND SWAP1 DUP4 PUSH20 0xFFFFFFFFFFFFFFFFFFFFFFFFFFFFFFFFFFFFFFFF AND MUL OR SWAP1 SSTORE POP PUSH2 0x602 DUP1 PUSH2 0x60 PUSH1 0x0 CODECOPY PUSH1 0x0 RETURN INVALID PUSH1 0x80 PUSH1 0x40 MSTORE CALLVALUE DUP1 ISZERO PUSH2 0x10 JUMPI PUSH1 0x0 DUP1 REVERT JUMPDEST POP PUSH1 0x4 CALLDATASIZE LT PUSH2 0x36 JUMPI PUSH1 0x0 CALLDATALOAD PUSH1 0xE0 SHR DUP1 PUSH4 0x15EF194E EQ PUSH2 0x3B JUMPI DUP1 PUSH4 0x174D39F6 EQ PUSH2 0x57 JUMPI JUMPDEST PUSH1 0x0 DUP1 REVERT JUMPDEST PUSH2 0x55 PUSH1 0x4 DUP1 CALLDATASIZE SUB DUP2 ADD SWAP1 PUSH2 0x50 SWAP2 SWAP1 PUSH2 0x327 JUMP JUMPDEST PUSH2 0x88 JUMP JUMPDEST STOP JUMPDEST PUSH2 0x71 PUSH1 0x4 DUP1 CALLDATASIZE SUB DUP2 ADD SWAP1 PUSH2 0x6C SWAP2 SWAP1 PUSH2 0x2FA JUMP JUMPDEST PUSH2 0xF3 JUMP JUMPDEST PUSH1 0x40 MLOAD PUSH2 0x7F SWAP3 SWAP2 SWAP1 PUSH2 0x3DE JUMP JUMPDEST PUSH1 0x40 MLOAD DUP1 SWAP2 SUB SWAP1 RETURN JUMPDEST DUP2 PUSH1 0x1 PUSH1 0x0 DUP6 PUSH1 0xFF AND PUSH1 0xFF AND DUP2 MSTORE PUSH1 0x20 ADD SWAP1 DUP2 MSTORE PUSH1 0x20 ADD PUSH1 0x0 KECCAK256 PUSH1 0x0 ADD SWAP1 DUP1 MLOAD SWAP1 PUSH1 0x20 ADD SWAP1 PUSH2 0xB8 SWAP3 SWAP2 SWAP1 PUSH2 0x1D2 JUMP JUMPDEST POP DUP1 PUSH1 0x1 PUSH1 0x0 DUP6 PUSH1 0xFF AND PUSH1 0xFF AND DUP2 MSTORE PUSH1 0x20 ADD SWAP1 DUP2 MSTORE PUSH1 0x20 ADD PUSH1 0x0 KECCAK256 PUSH1 0x1 ADD PUSH1 0x0 PUSH2 0x100 EXP DUP2 SLOAD DUP2 PUSH1 0xFF MUL NOT AND SWAP1 DUP4 PUSH1 0xFF AND MUL OR SWAP1 SSTORE POP POP POP POP JUMP JUMPDEST PUSH1 0x60 PUSH1 0x0 PUSH1 0x1 PUSH1 0x0 DUP5 PUSH1 0xFF AND PUSH1 0xFF AND DUP2 MSTORE PUSH1 0x20 ADD SWAP1 DUP2 MSTORE PUSH1 0x20 ADD PUSH1 0x0 KECCAK256 PUSH1 0x0 ADD PUSH1 0x1 PUSH1 0x0 DUP6 PUSH1 0xFF AND PUSH1 0xFF AND DUP2 MSTORE PUSH1 0x20 ADD SWAP1 DUP2 MSTORE PUSH1 0x20 ADD PUSH1 0x0 KECCAK256 PUSH1 0x1 ADD PUSH1 0x0 SWAP1 SLOAD SWAP1 PUSH2 0x100 EXP SWAP1 DIV PUSH1 0xFF AND DUP2 DUP1 SLOAD PUSH2 0x149 SWAP1 PUSH2 0x4CF JUMP JUMPDEST DUP1 PUSH1 0x1F ADD PUSH1 0x20 DUP1 SWAP2 DIV MUL PUSH1 0x20 ADD PUSH1 0x40 MLOAD SWAP1 DUP2 ADD PUSH1 0x40 MSTORE DUP1 SWAP3 SWAP2 SWAP1 DUP2 DUP2 MSTORE PUSH1 0x20 ADD DUP3 DUP1 SLOAD PUSH2 0x175 SWAP1 PUSH2 0x4CF JUMP JUMPDEST DUP1 ISZERO PUSH2 0x1C2 JUMPI DUP1 PUSH1 0x1F LT PUSH2 0x197 JUMPI PUSH2 0x100 DUP1 DUP4 SLOAD DIV MUL DUP4 MSTORE SWAP2 PUSH1 0x20 ADD SWAP2 PUSH2 0x1C2 JUMP JUMPDEST DUP3 ADD SWAP2 SWAP1 PUSH1 0x0 MSTORE PUSH1 0x20 PUSH1 0x0 KECCAK256 SWAP1 JUMPDEST DUP2 SLOAD DUP2 MSTORE SWAP1 PUSH1 0x1 ADD SWAP1 PUSH1 0x20 ADD DUP1 DUP4 GT PUSH2 0x1A5 JUMPI DUP3 SWAP1 SUB PUSH1 0x1F AND DUP3 ADD SWAP2 JUMPDEST POP POP POP POP POP SWAP2 POP SWAP2 POP SWAP2 POP SWAP2 POP SWAP2 JUMP JUMPDEST DUP3 DUP1 SLOAD PUSH2 0x1DE SWAP1 PUSH2 0x4CF JUMP JUMPDEST SWAP1 PUSH1 0x0 MSTORE PUSH1 0x20 PUSH1 0x0 KECCAK256 SWAP1 PUSH1 0x1F ADD PUSH1 0x20 SWAP1 DIV DUP2 ADD SWAP3 DUP3 PUSH2 0x200 JUMPI PUSH1 0x0 DUP6 SSTORE PUSH2 0x247 JUMP JUMPDEST DUP3 PUSH1 0x1F LT PUSH2 0x219 JUMPI DUP1 MLOAD PUSH1 0xFF NOT AND DUP4 DUP1 ADD OR DUP6 SSTORE PUSH2 0x247 JUMP JUMPDEST DUP3 DUP1 ADD PUSH1 0x1 ADD DUP6 SSTORE DUP3 ISZERO PUSH2 0x247 JUMPI SWAP2 DUP3 ADD JUMPDEST DUP3 DUP2 GT ISZERO PUSH2 0x246 JUMPI DUP3 MLOAD DUP3 SSTORE SWAP2 PUSH1 0x20 ADD SWAP2 SWAP1 PUSH1 0x1 ADD SWAP1 PUSH2 0x22B JUMP JUMPDEST JUMPDEST POP SWAP1 POP PUSH2 0x254 SWAP2 SWAP1 PUSH2 0x258 JUMP JUMPDEST POP SWAP1 JUMP JUMPDEST JUMPDEST DUP1 DUP3 GT ISZERO PUSH2 0x271 JUMPI PUSH1 0x0 DUP2 PUSH1 0x0 SWAP1 SSTORE POP PUSH1 0x1 ADD PUSH2 0x259 JUMP JUMPDEST POP SWAP1 JUMP JUMPDEST PUSH1 0x0 PUSH2 0x288 PUSH2 0x283 DUP5 PUSH2 0x433 JUMP JUMPDEST PUSH2 0x40E JUMP JUMPDEST SWAP1 POP DUP3 DUP2 MSTORE PUSH1 0x20 DUP2 ADD DUP5 DUP5 DUP5 ADD GT ISZERO PUSH2 0x2A4 JUMPI PUSH2 0x2A3 PUSH2 0x595 JUMP JUMPDEST JUMPDEST PUSH2 0x2AF DUP5 DUP3 DUP6 PUSH2 0x48D JUMP JUMPDEST POP SWAP4 SWAP3 POP POP POP JUMP JUMPDEST PUSH1 0x0 DUP3 PUSH1 0x1F DUP4 ADD SLT PUSH2 0x2CC JUMPI PUSH2 0x2CB PUSH2 0x590 JUMP JUMPDEST JUMPDEST DUP2 CALLDATALOAD PUSH2 0x2DC DUP5 DUP3 PUSH1 0x20 DUP7 ADD PUSH2 0x275 JUMP JUMPDEST SWAP2 POP POP SWAP3 SWAP2 POP POP JUMP JUMPDEST PUSH1 0x0 DUP2 CALLDATALOAD SWAP1 POP PUSH2 0x2F4 DUP2 PUSH2 0x5B5 JUMP JUMPDEST SWAP3 SWAP2 POP POP JUMP JUMPDEST PUSH1 0x0 PUSH1 0x20 DUP3 DUP5 SUB SLT ISZERO PUSH2 0x310 JUMPI PUSH2 0x30F PUSH2 0x59F JUMP JUMPDEST JUMPDEST PUSH1 0x0 PUSH2 0x31E DUP5 DUP3 DUP6 ADD PUSH2 0x2E5 JUMP JUMPDEST SWAP2 POP POP SWAP3 SWAP2 POP POP JUMP JUMPDEST PUSH1 0x0 DUP1 PUSH1 0x0 PUSH1 0x60 DUP5 DUP7 SUB SLT ISZERO PUSH2 0x340 JUMPI PUSH2 0x33F PUSH2 0x59F JUMP JUMPDEST JUMPDEST PUSH1 0x0 PUSH2 0x34E DUP7 DUP3 DUP8 ADD PUSH2 0x2E5 JUMP JUMPDEST SWAP4 POP POP PUSH1 0x20 DUP5 ADD CALLDATALOAD PUSH8 0xFFFFFFFFFFFFFFFF DUP2 GT ISZERO PUSH2 0x36F JUMPI PUSH2 0x36E PUSH2 0x59A JUMP JUMPDEST JUMPDEST PUSH2 0x37B DUP7 DUP3 DUP8 ADD PUSH2 0x2B7 JUMP JUMPDEST SWAP3 POP POP PUSH1 0x40 PUSH2 0x38C DUP7 DUP3 DUP8 ADD PUSH2 0x2E5 JUMP JUMPDEST SWAP2 POP POP SWAP3 POP SWAP3 POP SWAP3 JUMP JUMPDEST PUSH1 0x0 PUSH2 0x3A1 DUP3 PUSH2 0x464 JUMP JUMPDEST PUSH2 0x3AB DUP2 DUP6 PUSH2 0x46F JUMP JUMPDEST SWAP4 POP PUSH2 0x3BB DUP2 DUP6 PUSH1 0x20 DUP7 ADD PUSH2 0x49C JUMP JUMPDEST PUSH2 0x3C4 DUP2 PUSH2 0x5A4 JUMP JUMPDEST DUP5 ADD SWAP2 POP POP SWAP3 SWAP2 POP POP JUMP JUMPDEST PUSH2 0x3D8 DUP2 PUSH2 0x480 JUMP JUMPDEST DUP3 MSTORE POP POP JUMP JUMPDEST PUSH1 0x0 PUSH1 0x40 DUP3 ADD SWAP1 POP DUP2 DUP2 SUB PUSH1 0x0 DUP4 ADD MSTORE PUSH2 0x3F8 DUP2 DUP6 PUSH2 0x396 JUMP JUMPDEST SWAP1 POP PUSH2 0x407 PUSH1 0x20 DUP4 ADD DUP5 PUSH2 0x3CF JUMP JUMPDEST SWAP4 SWAP3 POP POP POP JUMP JUMPDEST PUSH1 0x0 PUSH2 0x418 PUSH2 0x429 JUMP JUMPDEST SWAP1 POP PUSH2 0x424 DUP3 DUP3 PUSH2 0x501 JUMP JUMPDEST SWAP2 SWAP1 POP JUMP JUMPDEST PUSH1 0x0 PUSH1 0x40 MLOAD SWAP1 POP SWAP1 JUMP JUMPDEST PUSH1 0x0 PUSH8 0xFFFFFFFFFFFFFFFF DUP3 GT ISZERO PUSH2 0x44E JUMPI PUSH2 0x44D PUSH2 0x561 JUMP JUMPDEST JUMPDEST PUSH2 0x457 DUP3 PUSH2 0x5A4 JUMP JUMPDEST SWAP1 POP PUSH1 0x20 DUP2 ADD SWAP1 POP SWAP2 SWAP1 POP JUMP JUMPDEST PUSH1 0x0 DUP2 MLOAD SWAP1 POP SWAP2 SWAP1 POP JUMP JUMPDEST PUSH1 0x0 DUP3 DUP3 MSTORE PUSH1 0x20 DUP3 ADD SWAP1 POP SWAP3 SWAP2 POP POP JUMP JUMPDEST PUSH1 0x0 PUSH1 0xFF DUP3 AND SWAP1 POP SWAP2 SWAP1 POP JUMP JUMPDEST DUP3 DUP2 DUP4 CALLDATACOPY PUSH1 0x0 DUP4 DUP4 ADD MSTORE POP POP POP JUMP JUMPDEST PUSH1 0x0 JUMPDEST DUP4 DUP2 LT ISZERO PUSH2 0x4BA JUMPI DUP1 DUP3 ADD MLOAD DUP2 DUP5 ADD MSTORE PUSH1 0x20 DUP2 ADD SWAP1 POP PUSH2 0x49F JUMP JUMPDEST DUP4 DUP2 GT ISZERO PUSH2 0x4C9 JUMPI PUSH1 0x0 DUP5 DUP5 ADD MSTORE JUMPDEST POP POP POP POP JUMP JUMPDEST PUSH1 0x0 PUSH1 0x2 DUP3 DIV SWAP1 POP PUSH1 0x1 DUP3 AND DUP1 PUSH2 0x4E7 JUMPI PUSH1 0x7F DUP3 AND SWAP2 POP JUMPDEST PUSH1 0x20 DUP3 LT DUP2 EQ ISZERO PUSH2 0x4FB JUMPI PUSH2 0x4FA PUSH2 0x532 JUMP JUMPDEST JUMPDEST POP SWAP2 SWAP1 POP JUMP JUMPDEST PUSH2 0x50A DUP3 PUSH2 0x5A4 JUMP JUMPDEST DUP2 ADD DUP2 DUP2 LT PUSH8 0xFFFFFFFFFFFFFFFF DUP3 GT OR ISZERO PUSH2 0x529 JUMPI PUSH2 0x528 PUSH2 0x561 JUMP JUMPDEST JUMPDEST DUP1 PUSH1 0x40 MSTORE POP POP POP JUMP JUMPDEST PUSH32 0x4E487B7100000000000000000000000000000000000000000000000000000000 PUSH1 0x0 MSTORE PUSH1 0x22 PUSH1 0x4 MSTORE PUSH1 0x24 PUSH1 0x0 REVERT JUMPDEST PUSH32 0x4E487B7100000000000000000000000000000000000000000000000000000000 PUSH1 0x0 MSTORE PUSH1 0x41 PUSH1 0x4 MSTORE PUSH1 0x24 PUSH1 0x0 REVERT JUMPDEST PUSH1 0x0 DUP1 REVERT JUMPDEST PUSH1 0x0 DUP1 REVERT JUMPDEST PUSH1 0x0 DUP1 REVERT JUMPDEST PUSH1 0x0 DUP1 REVERT JUMPDEST PUSH1 0x0 PUSH1 0x1F NOT PUSH1 0x1F DUP4 ADD AND SWAP1 POP SWAP2 SWAP1 POP JUMP JUMPDEST PUSH2 0x5BE DUP2 PUSH2 0x480 JUMP JUMPDEST DUP2 EQ PUSH2 0x5C9 JUMPI PUSH1 0x0 DUP1 REVERT JUMPDEST POP JUMP INVALID LOG2 PUSH5 0x6970667358 0x22 SLT KECCAK256 SWAP11 0xC8 DUP6 EXTCODESIZE 0x2C 0xA9 0xB3 0xF9 0xA6 LT 0xEE 0xAF SWAP11 BASEFEE 0xCF SWAP13 0x24 0xB0 0xC4 0x21 PUSH30 0x828D881B309C8468CE906F64736F6C634300080700330000000000000000 "
				},
				"gasEstimates": {
					"creation": {
						"codeDepositCost": "307600",
						"executionCost": "24615",
						"totalCost": "332215"
					},
					"external": {
						"getLearner(uint8)": "infinite",
						"setLearner(uint8,string,uint8)": "infinite"
					}
				},
				"methodIdentifiers": {
					"getLearner(uint8)": "174d39f6",
					"setLearner(uint8,string,uint8)": "15ef194e"
				}
			},
			"storageLayout": {
				"storage": [
					{
						"astId": 3,
						"contract": "contracts/ModifierDemo.sol:ModifierDemo",
						"label": "SimpliLearn",
						"offset": 0,
						"slot": "0",
						"type": "t_address"
					},
					{
						"astId": 33,
						"contract": "contracts/ModifierDemo.sol:ModifierDemo",
						"label": "learners",
						"offset": 0,
						"slot": "1",
						"type": "t_mapping(t_uint8,t_struct(learner)28_storage)"
					}
				],
				"types": {
					"t_address": {
						"encoding": "inplace",
						"label": "address",
						"numberOfBytes": "20"
					},
					"t_mapping(t_uint8,t_struct(learner)28_storage)": {
						"encoding": "mapping",
						"key": "t_uint8",
						"label": "mapping(uint8 => struct ModifierDemo.learner)",
						"numberOfBytes": "32",
						"value": "t_struct(learner)28_storage"
					},
					"t_string_storage": {
						"encoding": "bytes",
						"label": "string",
						"numberOfBytes": "32"
					},
					"t_struct(learner)28_storage": {
						"encoding": "inplace",
						"label": "struct ModifierDemo.learner",
						"members": [
							{
								"astId": 25,
								"contract": "contracts/ModifierDemo.sol:ModifierDemo",
								"label": "name",
								"offset": 0,
								"slot": "0",
								"type": "t_string_storage"
							},
							{
								"astId": 27,
								"contract": "contracts/ModifierDemo.sol:ModifierDemo",
								"label": "age",
								"offset": 0,
								"slot": "1",
								"type": "t_uint8"
							}
						],
						"numberOfBytes": "64"
					},
					"t_uint8": {
						"encoding": "inplace",
						"label": "uint8",
						"numberOfBytes": "1"
					}
				}
			},
			"userdoc": {
				"kind": "user",
				"methods": {},
				"version": 1
			}
		}
	}
}