{
	"contracts/KYC.sol": {
		"CustomerKYC": {
			"abi": [
				{
					"inputs": [],
					"stateMutability": "nonpayable",
					"type": "constructor"
				},
				{
					"inputs": [
						{
							"internalType": "string",
							"name": "_name",
							"type": "string"
						},
						{
							"internalType": "string",
							"name": "_data",
							"type": "string"
						}
					],
					"name": "addNewCustomer",
					"outputs": [],
					"stateMutability": "nonpayable",
					"type": "function"
				},
				{
					"inputs": [
						{
							"internalType": "string",
							"name": "_name",
							"type": "string"
						},
						{
							"internalType": "address",
							"name": "_id",
							"type": "address"
						}
					],
					"name": "addNewbank",
					"outputs": [],
					"stateMutability": "nonpayable",
					"type": "function"
				},
				{
					"inputs": [
						{
							"internalType": "address",
							"name": "_id",
							"type": "address"
						}
					],
					"name": "allowBankToAddNewCustomer",
					"outputs": [],
					"stateMutability": "nonpayable",
					"type": "function"
				},
				{
					"inputs": [
						{
							"internalType": "address",
							"name": "_id",
							"type": "address"
						}
					],
					"name": "allowBankToPerformKyc",
					"outputs": [],
					"stateMutability": "nonpayable",
					"type": "function"
				},
				{
					"inputs": [
						{
							"internalType": "address",
							"name": "_id",
							"type": "address"
						}
					],
					"name": "blockBankToAddNewCustomer",
					"outputs": [],
					"stateMutability": "nonpayable",
					"type": "function"
				},
				{
					"inputs": [
						{
							"internalType": "address",
							"name": "_id",
							"type": "address"
						}
					],
					"name": "blockBankToPerformKyc",
					"outputs": [],
					"stateMutability": "nonpayable",
					"type": "function"
				},
				{
					"inputs": [
						{
							"internalType": "string",
							"name": "_name",
							"type": "string"
						}
					],
					"name": "checkKycSattus",
					"outputs": [
						{
							"internalType": "bool",
							"name": "kycStatus",
							"type": "bool"
						}
					],
					"stateMutability": "view",
					"type": "function"
				},
				{
					"inputs": [
						{
							"internalType": "address",
							"name": "_id",
							"type": "address"
						}
					],
					"name": "getBankDetails",
					"outputs": [
						{
							"internalType": "string",
							"name": "name",
							"type": "string"
						},
						{
							"internalType": "uint8",
							"name": "kycCount",
							"type": "uint8"
						},
						{
							"internalType": "bool",
							"name": "addCustomerPrivilege",
							"type": "bool"
						},
						{
							"internalType": "bool",
							"name": "kycPrivilege",
							"type": "bool"
						}
					],
					"stateMutability": "view",
					"type": "function"
				},
				{
					"inputs": [
						{
							"internalType": "string",
							"name": "_name",
							"type": "string"
						}
					],
					"name": "updateKyc",
					"outputs": [],
					"stateMutability": "nonpayable",
					"type": "function"
				},
				{
					"inputs": [
						{
							"internalType": "string",
							"name": "_name",
							"type": "string"
						}
					],
					"name": "viewCustomerData",
					"outputs": [
						{
							"internalType": "string",
							"name": "name",
							"type": "string"
						},
						{
							"internalType": "string",
							"name": "data",
							"type": "string"
						},
						{
							"internalType": "string",
							"name": "bankName",
							"type": "string"
						},
						{
							"internalType": "bool",
							"name": "kycStatus",
							"type": "bool"
						}
					],
					"stateMutability": "view",
					"type": "function"
				}
			],
			"devdoc": {
				"kind": "dev",
				"methods": {},
				"version": 1
			},
			"evm": {
				"assembly": "    /* \"contracts/KYC.sol\":57:4022  contract CustomerKYC {... */\n  mstore(0x40, 0x80)\n    /* \"contracts/KYC.sol\":117:179  constructor() {... */\n  callvalue\n  dup1\n  iszero\n  tag_1\n  jumpi\n  0x00\n  dup1\n  revert\ntag_1:\n  pop\n    /* \"contracts/KYC.sol\":162:172  msg.sender */\n  caller\n    /* \"contracts/KYC.sol\":141:159  centralBankAddress */\n  0x00\n  dup1\n    /* \"contracts/KYC.sol\":141:172  centralBankAddress = msg.sender */\n  0x0100\n  exp\n  dup2\n  sload\n  dup2\n  0xffffffffffffffffffffffffffffffffffffffff\n  mul\n  not\n  and\n  swap1\n  dup4\n  0xffffffffffffffffffffffffffffffffffffffff\n  and\n  mul\n  or\n  swap1\n  sstore\n  pop\n    /* \"contracts/KYC.sol\":57:4022  contract CustomerKYC {... */\n  dataSize(sub_0)\n  dup1\n  dataOffset(sub_0)\n  0x00\n  codecopy\n  0x00\n  return\nstop\n\nsub_0: assembly {\n        /* \"contracts/KYC.sol\":57:4022  contract CustomerKYC {... */\n      mstore(0x40, 0x80)\n      callvalue\n      dup1\n      iszero\n      tag_1\n      jumpi\n      0x00\n      dup1\n      revert\n    tag_1:\n      pop\n      jumpi(tag_2, lt(calldatasize, 0x04))\n      shr(0xe0, calldataload(0x00))\n      dup1\n      0x4a6c2f61\n      gt\n      tag_13\n      jumpi\n      dup1\n      0x4a6c2f61\n      eq\n      tag_8\n      jumpi\n      dup1\n      0x875deaa1\n      eq\n      tag_9\n      jumpi\n      dup1\n      0x892d7869\n      eq\n      tag_10\n      jumpi\n      dup1\n      0xad03352d\n      eq\n      tag_11\n      jumpi\n      dup1\n      0xc50ab8c4\n      eq\n      tag_12\n      jumpi\n      jump(tag_2)\n    tag_13:\n      dup1\n      0x01fc9e9f\n      eq\n      tag_3\n      jumpi\n      dup1\n      0x0935ac56\n      eq\n      tag_4\n      jumpi\n      dup1\n      0x0956bd29\n      eq\n      tag_5\n      jumpi\n      dup1\n      0x15101e02\n      eq\n      tag_6\n      jumpi\n      dup1\n      0x1b2cad48\n      eq\n      tag_7\n      jumpi\n    tag_2:\n      0x00\n      dup1\n      revert\n        /* \"contracts/KYC.sol\":2676:2797  function blockBankToAddNewCustomer(address _id) public OnlyAdmin {... */\n    tag_3:\n      tag_14\n      0x04\n      dup1\n      calldatasize\n      sub\n      dup2\n      add\n      swap1\n      tag_15\n      swap2\n      swap1\n      tag_16\n      jump\t// in\n    tag_15:\n      tag_17\n      jump\t// in\n    tag_14:\n      stop\n        /* \"contracts/KYC.sol\":2444:2670  function updateKyc(string memory _name)... */\n    tag_4:\n      tag_18\n      0x04\n      dup1\n      calldatasize\n      sub\n      dup2\n      add\n      swap1\n      tag_19\n      swap2\n      swap1\n      tag_20\n      jump\t// in\n    tag_19:\n      tag_21\n      jump\t// in\n    tag_18:\n      stop\n        /* \"contracts/KYC.sol\":2803:2912  function blockBankToPerformKyc(address _id) public OnlyAdmin {... */\n    tag_5:\n      tag_22\n      0x04\n      dup1\n      calldatasize\n      sub\n      dup2\n      add\n      swap1\n      tag_23\n      swap2\n      swap1\n      tag_16\n      jump\t// in\n    tag_23:\n      tag_24\n      jump\t// in\n    tag_22:\n      stop\n        /* \"contracts/KYC.sol\":3598:4020  function getBankDetails(address _id)... */\n    tag_6:\n      tag_25\n      0x04\n      dup1\n      calldatasize\n      sub\n      dup2\n      add\n      swap1\n      tag_26\n      swap2\n      swap1\n      tag_16\n      jump\t// in\n    tag_26:\n      tag_27\n      jump\t// in\n    tag_25:\n      mload(0x40)\n      tag_28\n      swap5\n      swap4\n      swap3\n      swap2\n      swap1\n      tag_29\n      jump\t// in\n    tag_28:\n      mload(0x40)\n      dup1\n      swap2\n      sub\n      swap1\n      return\n        /* \"contracts/KYC.sol\":2918:3038  function allowBankToAddNewCustomer(address _id) public OnlyAdmin {... */\n    tag_7:\n      tag_30\n      0x04\n      dup1\n      calldatasize\n      sub\n      dup2\n      add\n      swap1\n      tag_31\n      swap2\n      swap1\n      tag_16\n      jump\t// in\n    tag_31:\n      tag_32\n      jump\t// in\n    tag_30:\n      stop\n        /* \"contracts/KYC.sol\":3158:3592  function viewCustomerData(string memory _name)... */\n    tag_8:\n      tag_33\n      0x04\n      dup1\n      calldatasize\n      sub\n      dup2\n      add\n      swap1\n      tag_34\n      swap2\n      swap1\n      tag_20\n      jump\t// in\n    tag_34:\n      tag_35\n      jump\t// in\n    tag_33:\n      mload(0x40)\n      tag_36\n      swap5\n      swap4\n      swap3\n      swap2\n      swap1\n      tag_37\n      jump\t// in\n    tag_36:\n      mload(0x40)\n      dup1\n      swap2\n      sub\n      swap1\n      return\n        /* \"contracts/KYC.sol\":1481:1709  function addNewbank(string memory _name, address _id) public OnlyAdmin {... */\n    tag_9:\n      tag_38\n      0x04\n      dup1\n      calldatasize\n      sub\n      dup2\n      add\n      swap1\n      tag_39\n      swap2\n      swap1\n      tag_40\n      jump\t// in\n    tag_39:\n      tag_41\n      jump\t// in\n    tag_38:\n      stop\n        /* \"contracts/KYC.sol\":2195:2438  function checkKycSattus(string memory _name)... */\n    tag_10:\n      tag_42\n      0x04\n      dup1\n      calldatasize\n      sub\n      dup2\n      add\n      swap1\n      tag_43\n      swap2\n      swap1\n      tag_20\n      jump\t// in\n    tag_43:\n      tag_44\n      jump\t// in\n    tag_42:\n      mload(0x40)\n      tag_45\n      swap2\n      swap1\n      tag_46\n      jump\t// in\n    tag_45:\n      mload(0x40)\n      dup1\n      swap2\n      sub\n      swap1\n      return\n        /* \"contracts/KYC.sol\":1715:2189  function addNewCustomer(string memory _name, string memory _data)... */\n    tag_11:\n      tag_47\n      0x04\n      dup1\n      calldatasize\n      sub\n      dup2\n      add\n      swap1\n      tag_48\n      swap2\n      swap1\n      tag_49\n      jump\t// in\n    tag_48:\n      tag_50\n      jump\t// in\n    tag_47:\n      stop\n        /* \"contracts/KYC.sol\":3044:3152  function allowBankToPerformKyc(address _id) public OnlyAdmin {... */\n    tag_12:\n      tag_51\n      0x04\n      dup1\n      calldatasize\n      sub\n      dup2\n      add\n      swap1\n      tag_52\n      swap2\n      swap1\n      tag_16\n      jump\t// in\n    tag_52:\n      tag_53\n      jump\t// in\n    tag_51:\n      stop\n        /* \"contracts/KYC.sol\":2676:2797  function blockBankToAddNewCustomer(address _id) public OnlyAdmin {... */\n    tag_17:\n        /* \"contracts/KYC.sol\":251:269  centralBankAddress */\n      0x00\n      dup1\n      sload\n      swap1\n      0x0100\n      exp\n      swap1\n      div\n      0xffffffffffffffffffffffffffffffffffffffff\n      and\n        /* \"contracts/KYC.sol\":237:269  msg.sender == centralBankAddress */\n      0xffffffffffffffffffffffffffffffffffffffff\n      and\n        /* \"contracts/KYC.sol\":237:247  msg.sender */\n      caller\n        /* \"contracts/KYC.sol\":237:269  msg.sender == centralBankAddress */\n      0xffffffffffffffffffffffffffffffffffffffff\n      and\n      eq\n        /* \"contracts/KYC.sol\":216:339  require(... */\n      tag_55\n      jumpi\n      mload(0x40)\n      0x08c379a000000000000000000000000000000000000000000000000000000000\n      dup2\n      mstore\n      0x04\n      add\n      tag_56\n      swap1\n      tag_57\n      jump\t// in\n    tag_56:\n      mload(0x40)\n      dup1\n      swap2\n      sub\n      swap1\n      revert\n    tag_55:\n        /* \"contracts/KYC.sol\":2785:2790  false */\n      0x00\n        /* \"contracts/KYC.sol\":2751:2756  banks */\n      0x01\n        /* \"contracts/KYC.sol\":2751:2761  banks[_id] */\n      0x00\n        /* \"contracts/KYC.sol\":2757:2760  _id */\n      dup4\n        /* \"contracts/KYC.sol\":2751:2761  banks[_id] */\n      0xffffffffffffffffffffffffffffffffffffffff\n      and\n      0xffffffffffffffffffffffffffffffffffffffff\n      and\n      dup2\n      mstore\n      0x20\n      add\n      swap1\n      dup2\n      mstore\n      0x20\n      add\n      0x00\n      keccak256\n        /* \"contracts/KYC.sol\":2751:2782  banks[_id].addCustomerPrivilege */\n      0x02\n      add\n      0x01\n        /* \"contracts/KYC.sol\":2751:2790  banks[_id].addCustomerPrivilege = false */\n      0x0100\n      exp\n      dup2\n      sload\n      dup2\n      0xff\n      mul\n      not\n      and\n      swap1\n      dup4\n      iszero\n      iszero\n      mul\n      or\n      swap1\n      sstore\n      pop\n        /* \"contracts/KYC.sol\":2676:2797  function blockBankToAddNewCustomer(address _id) public OnlyAdmin {... */\n      pop\n      jump\t// out\n        /* \"contracts/KYC.sol\":2444:2670  function updateKyc(string memory _name)... */\n    tag_21:\n        /* \"contracts/KYC.sol\":428:446  centralBankAddress */\n      0x00\n      dup1\n      sload\n      swap1\n      0x0100\n      exp\n      swap1\n      div\n      0xffffffffffffffffffffffffffffffffffffffff\n      and\n        /* \"contracts/KYC.sol\":414:446  msg.sender != centralBankAddress */\n      0xffffffffffffffffffffffffffffffffffffffff\n      and\n        /* \"contracts/KYC.sol\":414:424  msg.sender */\n      caller\n        /* \"contracts/KYC.sol\":414:446  msg.sender != centralBankAddress */\n      0xffffffffffffffffffffffffffffffffffffffff\n      and\n      sub\n        /* \"contracts/KYC.sol\":393:504  require(... */\n      tag_60\n      jumpi\n      mload(0x40)\n      0x08c379a000000000000000000000000000000000000000000000000000000000\n      dup2\n      mstore\n      0x04\n      add\n      tag_61\n      swap1\n      tag_62\n      jump\t// in\n    tag_61:\n      mload(0x40)\n      dup1\n      swap2\n      sub\n      swap1\n      revert\n    tag_60:\n        /* \"contracts/KYC.sol\":2544:2549  _name */\n      dup1\n        /* \"contracts/KYC.sol\":993:1002  customers */\n      0x02\n        /* \"contracts/KYC.sol\":1003:1011  custName */\n      dup2\n        /* \"contracts/KYC.sol\":993:1012  customers[custName] */\n      mload(0x40)\n      tag_64\n      swap2\n      swap1\n      tag_65\n      jump\t// in\n    tag_64:\n      swap1\n      dup2\n      mstore\n      0x20\n      add\n      mload(0x40)\n      dup1\n      swap2\n      sub\n      swap1\n      keccak256\n        /* \"contracts/KYC.sol\":993:1019  customers[custName].bankId */\n      0x02\n      add\n      0x00\n      swap1\n      sload\n      swap1\n      0x0100\n      exp\n      swap1\n      div\n      0xffffffffffffffffffffffffffffffffffffffff\n      and\n        /* \"contracts/KYC.sol\":979:1019  msg.sender == customers[custName].bankId */\n      0xffffffffffffffffffffffffffffffffffffffff\n      and\n        /* \"contracts/KYC.sol\":979:989  msg.sender */\n      caller\n        /* \"contracts/KYC.sol\":979:1019  msg.sender == customers[custName].bankId */\n      0xffffffffffffffffffffffffffffffffffffffff\n      and\n      eq\n        /* \"contracts/KYC.sol\":958:1081  require(... */\n      tag_66\n      jumpi\n      mload(0x40)\n      0x08c379a000000000000000000000000000000000000000000000000000000000\n      dup2\n      mstore\n      0x04\n      add\n      tag_67\n      swap1\n      tag_68\n      jump\t// in\n    tag_67:\n      mload(0x40)\n      dup1\n      swap2\n      sub\n      swap1\n      revert\n    tag_66:\n        /* \"contracts/KYC.sol\":780:785  banks */\n      0x01\n        /* \"contracts/KYC.sol\":780:797  banks[msg.sender] */\n      0x00\n        /* \"contracts/KYC.sol\":786:796  msg.sender */\n      caller\n        /* \"contracts/KYC.sol\":780:797  banks[msg.sender] */\n      0xffffffffffffffffffffffffffffffffffffffff\n      and\n      0xffffffffffffffffffffffffffffffffffffffff\n      and\n      dup2\n      mstore\n      0x20\n      add\n      swap1\n      dup2\n      mstore\n      0x20\n      add\n      0x00\n      keccak256\n        /* \"contracts/KYC.sol\":780:810  banks[msg.sender].kycPrivilege */\n      0x02\n      add\n      0x02\n      swap1\n      sload\n      swap1\n      0x0100\n      exp\n      swap1\n      div\n      0xff\n      and\n        /* \"contracts/KYC.sol\":759:871  require(... */\n      tag_70\n      jumpi\n      mload(0x40)\n      0x08c379a000000000000000000000000000000000000000000000000000000000\n      dup2\n      mstore\n      0x04\n      add\n      tag_71\n      swap1\n      tag_72\n      jump\t// in\n    tag_71:\n      mload(0x40)\n      dup1\n      swap2\n      sub\n      swap1\n      revert\n    tag_70:\n        /* \"contracts/KYC.sol\":2618:2622  true */\n      0x01\n        /* \"contracts/KYC.sol\":2589:2598  customers */\n      0x02\n        /* \"contracts/KYC.sol\":2599:2604  _name */\n      dup4\n        /* \"contracts/KYC.sol\":2589:2605  customers[_name] */\n      mload(0x40)\n      tag_74\n      swap2\n      swap1\n      tag_65\n      jump\t// in\n    tag_74:\n      swap1\n      dup2\n      mstore\n      0x20\n      add\n      mload(0x40)\n      dup1\n      swap2\n      sub\n      swap1\n      keccak256\n        /* \"contracts/KYC.sol\":2589:2615  customers[_name].kycStatus */\n      0x04\n      add\n      0x00\n        /* \"contracts/KYC.sol\":2589:2622  customers[_name].kycStatus = true */\n      0x0100\n      exp\n      dup2\n      sload\n      dup2\n      0xff\n      mul\n      not\n      and\n      swap1\n      dup4\n      iszero\n      iszero\n      mul\n      or\n      swap1\n      sstore\n      pop\n        /* \"contracts/KYC.sol\":2662:2663  1 */\n      0x01\n        /* \"contracts/KYC.sol\":2632:2637  banks */\n      dup1\n        /* \"contracts/KYC.sol\":2632:2649  banks[msg.sender] */\n      0x00\n        /* \"contracts/KYC.sol\":2638:2648  msg.sender */\n      caller\n        /* \"contracts/KYC.sol\":2632:2649  banks[msg.sender] */\n      0xffffffffffffffffffffffffffffffffffffffff\n      and\n      0xffffffffffffffffffffffffffffffffffffffff\n      and\n      dup2\n      mstore\n      0x20\n      add\n      swap1\n      dup2\n      mstore\n      0x20\n      add\n      0x00\n      keccak256\n        /* \"contracts/KYC.sol\":2632:2658  banks[msg.sender].kycCount */\n      0x02\n      add\n      0x00\n        /* \"contracts/KYC.sol\":2632:2663  banks[msg.sender].kycCount += 1 */\n      dup3\n      dup3\n      dup3\n      swap1\n      sload\n      swap1\n      0x0100\n      exp\n      swap1\n      div\n      0xff\n      and\n      tag_75\n      swap2\n      swap1\n      tag_76\n      jump\t// in\n    tag_75:\n      swap3\n      pop\n      0x0100\n      exp\n      dup2\n      sload\n      dup2\n      0xff\n      mul\n      not\n      and\n      swap1\n      dup4\n      0xff\n      and\n      mul\n      or\n      swap1\n      sstore\n      pop\n        /* \"contracts/KYC.sol\":514:515  _ */\n      pop\n        /* \"contracts/KYC.sol\":2444:2670  function updateKyc(string memory _name)... */\n      pop\n      jump\t// out\n        /* \"contracts/KYC.sol\":2803:2912  function blockBankToPerformKyc(address _id) public OnlyAdmin {... */\n    tag_24:\n        /* \"contracts/KYC.sol\":251:269  centralBankAddress */\n      0x00\n      dup1\n      sload\n      swap1\n      0x0100\n      exp\n      swap1\n      div\n      0xffffffffffffffffffffffffffffffffffffffff\n      and\n        /* \"contracts/KYC.sol\":237:269  msg.sender == centralBankAddress */\n      0xffffffffffffffffffffffffffffffffffffffff\n      and\n        /* \"contracts/KYC.sol\":237:247  msg.sender */\n      caller\n        /* \"contracts/KYC.sol\":237:269  msg.sender == centralBankAddress */\n      0xffffffffffffffffffffffffffffffffffffffff\n      and\n      eq\n        /* \"contracts/KYC.sol\":216:339  require(... */\n      tag_78\n      jumpi\n      mload(0x40)\n      0x08c379a000000000000000000000000000000000000000000000000000000000\n      dup2\n      mstore\n      0x04\n      add\n      tag_79\n      swap1\n      tag_57\n      jump\t// in\n    tag_79:\n      mload(0x40)\n      dup1\n      swap2\n      sub\n      swap1\n      revert\n    tag_78:\n        /* \"contracts/KYC.sol\":2900:2905  false */\n      0x00\n        /* \"contracts/KYC.sol\":2874:2879  banks */\n      0x01\n        /* \"contracts/KYC.sol\":2874:2884  banks[_id] */\n      0x00\n        /* \"contracts/KYC.sol\":2880:2883  _id */\n      dup4\n        /* \"contracts/KYC.sol\":2874:2884  banks[_id] */\n      0xffffffffffffffffffffffffffffffffffffffff\n      and\n      0xffffffffffffffffffffffffffffffffffffffff\n      and\n      dup2\n      mstore\n      0x20\n      add\n      swap1\n      dup2\n      mstore\n      0x20\n      add\n      0x00\n      keccak256\n        /* \"contracts/KYC.sol\":2874:2897  banks[_id].kycPrivilege */\n      0x02\n      add\n      0x02\n        /* \"contracts/KYC.sol\":2874:2905  banks[_id].kycPrivilege = false */\n      0x0100\n      exp\n      dup2\n      sload\n      dup2\n      0xff\n      mul\n      not\n      and\n      swap1\n      dup4\n      iszero\n      iszero\n      mul\n      or\n      swap1\n      sstore\n      pop\n        /* \"contracts/KYC.sol\":2803:2912  function blockBankToPerformKyc(address _id) public OnlyAdmin {... */\n      pop\n      jump\t// out\n        /* \"contracts/KYC.sol\":3598:4020  function getBankDetails(address _id)... */\n    tag_27:\n        /* \"contracts/KYC.sol\":3711:3729  string memory name */\n      0x60\n        /* \"contracts/KYC.sol\":3743:3757  uint8 kycCount */\n      0x00\n        /* \"contracts/KYC.sol\":3771:3796  bool addCustomerPrivilege */\n      dup1\n        /* \"contracts/KYC.sol\":3810:3827  bool kycPrivilege */\n      0x00\n        /* \"contracts/KYC.sol\":251:269  centralBankAddress */\n      dup1\n      0x00\n      swap1\n      sload\n      swap1\n      0x0100\n      exp\n      swap1\n      div\n      0xffffffffffffffffffffffffffffffffffffffff\n      and\n        /* \"contracts/KYC.sol\":237:269  msg.sender == centralBankAddress */\n      0xffffffffffffffffffffffffffffffffffffffff\n      and\n        /* \"contracts/KYC.sol\":237:247  msg.sender */\n      caller\n        /* \"contracts/KYC.sol\":237:269  msg.sender == centralBankAddress */\n      0xffffffffffffffffffffffffffffffffffffffff\n      and\n      eq\n        /* \"contracts/KYC.sol\":216:339  require(... */\n      tag_82\n      jumpi\n      mload(0x40)\n      0x08c379a000000000000000000000000000000000000000000000000000000000\n      dup2\n      mstore\n      0x04\n      add\n      tag_83\n      swap1\n      tag_57\n      jump\t// in\n    tag_83:\n      mload(0x40)\n      dup1\n      swap2\n      sub\n      swap1\n      revert\n    tag_82:\n        /* \"contracts/KYC.sol\":3873:3878  banks */\n      0x01\n        /* \"contracts/KYC.sol\":3873:3883  banks[_id] */\n      0x00\n        /* \"contracts/KYC.sol\":3879:3882  _id */\n      dup7\n        /* \"contracts/KYC.sol\":3873:3883  banks[_id] */\n      0xffffffffffffffffffffffffffffffffffffffff\n      and\n      0xffffffffffffffffffffffffffffffffffffffff\n      and\n      dup2\n      mstore\n      0x20\n      add\n      swap1\n      dup2\n      mstore\n      0x20\n      add\n      0x00\n      keccak256\n        /* \"contracts/KYC.sol\":3873:3888  banks[_id].name */\n      0x01\n      add\n        /* \"contracts/KYC.sol\":3902:3907  banks */\n      0x01\n        /* \"contracts/KYC.sol\":3902:3912  banks[_id] */\n      0x00\n        /* \"contracts/KYC.sol\":3908:3911  _id */\n      dup8\n        /* \"contracts/KYC.sol\":3902:3912  banks[_id] */\n      0xffffffffffffffffffffffffffffffffffffffff\n      and\n      0xffffffffffffffffffffffffffffffffffffffff\n      and\n      dup2\n      mstore\n      0x20\n      add\n      swap1\n      dup2\n      mstore\n      0x20\n      add\n      0x00\n      keccak256\n        /* \"contracts/KYC.sol\":3902:3921  banks[_id].kycCount */\n      0x02\n      add\n      0x00\n      swap1\n      sload\n      swap1\n      0x0100\n      exp\n      swap1\n      div\n      0xff\n      and\n        /* \"contracts/KYC.sol\":3935:3940  banks */\n      0x01\n        /* \"contracts/KYC.sol\":3935:3945  banks[_id] */\n      0x00\n        /* \"contracts/KYC.sol\":3941:3944  _id */\n      dup9\n        /* \"contracts/KYC.sol\":3935:3945  banks[_id] */\n      0xffffffffffffffffffffffffffffffffffffffff\n      and\n      0xffffffffffffffffffffffffffffffffffffffff\n      and\n      dup2\n      mstore\n      0x20\n      add\n      swap1\n      dup2\n      mstore\n      0x20\n      add\n      0x00\n      keccak256\n        /* \"contracts/KYC.sol\":3935:3966  banks[_id].addCustomerPrivilege */\n      0x02\n      add\n      0x01\n      swap1\n      sload\n      swap1\n      0x0100\n      exp\n      swap1\n      div\n      0xff\n      and\n        /* \"contracts/KYC.sol\":3980:3985  banks */\n      0x01\n        /* \"contracts/KYC.sol\":3980:3990  banks[_id] */\n      0x00\n        /* \"contracts/KYC.sol\":3986:3989  _id */\n      dup10\n        /* \"contracts/KYC.sol\":3980:3990  banks[_id] */\n      0xffffffffffffffffffffffffffffffffffffffff\n      and\n      0xffffffffffffffffffffffffffffffffffffffff\n      and\n      dup2\n      mstore\n      0x20\n      add\n      swap1\n      dup2\n      mstore\n      0x20\n      add\n      0x00\n      keccak256\n        /* \"contracts/KYC.sol\":3980:4003  banks[_id].kycPrivilege */\n      0x02\n      add\n      0x02\n      swap1\n      sload\n      swap1\n      0x0100\n      exp\n      swap1\n      div\n      0xff\n      and\n        /* \"contracts/KYC.sol\":3852:4013  return (... */\n      dup4\n      dup1\n      sload\n      tag_85\n      swap1\n      tag_86\n      jump\t// in\n    tag_85:\n      dup1\n      0x1f\n      add\n      0x20\n      dup1\n      swap2\n      div\n      mul\n      0x20\n      add\n      mload(0x40)\n      swap1\n      dup2\n      add\n      0x40\n      mstore\n      dup1\n      swap3\n      swap2\n      swap1\n      dup2\n      dup2\n      mstore\n      0x20\n      add\n      dup3\n      dup1\n      sload\n      tag_87\n      swap1\n      tag_86\n      jump\t// in\n    tag_87:\n      dup1\n      iszero\n      tag_88\n      jumpi\n      dup1\n      0x1f\n      lt\n      tag_89\n      jumpi\n      0x0100\n      dup1\n      dup4\n      sload\n      div\n      mul\n      dup4\n      mstore\n      swap2\n      0x20\n      add\n      swap2\n      jump(tag_88)\n    tag_89:\n      dup3\n      add\n      swap2\n      swap1\n      0x00\n      mstore\n      keccak256(0x00, 0x20)\n      swap1\n    tag_90:\n      dup2\n      sload\n      dup2\n      mstore\n      swap1\n      0x01\n      add\n      swap1\n      0x20\n      add\n      dup1\n      dup4\n      gt\n      tag_90\n      jumpi\n      dup3\n      swap1\n      sub\n      0x1f\n      and\n      dup3\n      add\n      swap2\n    tag_88:\n      pop\n      pop\n      pop\n      pop\n      pop\n      swap4\n      pop\n      swap4\n      pop\n      swap4\n      pop\n      swap4\n      pop\n      swap4\n      pop\n        /* \"contracts/KYC.sol\":3598:4020  function getBankDetails(address _id)... */\n      swap2\n      swap4\n      pop\n      swap2\n      swap4\n      jump\t// out\n        /* \"contracts/KYC.sol\":2918:3038  function allowBankToAddNewCustomer(address _id) public OnlyAdmin {... */\n    tag_32:\n        /* \"contracts/KYC.sol\":251:269  centralBankAddress */\n      0x00\n      dup1\n      sload\n      swap1\n      0x0100\n      exp\n      swap1\n      div\n      0xffffffffffffffffffffffffffffffffffffffff\n      and\n        /* \"contracts/KYC.sol\":237:269  msg.sender == centralBankAddress */\n      0xffffffffffffffffffffffffffffffffffffffff\n      and\n        /* \"contracts/KYC.sol\":237:247  msg.sender */\n      caller\n        /* \"contracts/KYC.sol\":237:269  msg.sender == centralBankAddress */\n      0xffffffffffffffffffffffffffffffffffffffff\n      and\n      eq\n        /* \"contracts/KYC.sol\":216:339  require(... */\n      tag_92\n      jumpi\n      mload(0x40)\n      0x08c379a000000000000000000000000000000000000000000000000000000000\n      dup2\n      mstore\n      0x04\n      add\n      tag_93\n      swap1\n      tag_57\n      jump\t// in\n    tag_93:\n      mload(0x40)\n      dup1\n      swap2\n      sub\n      swap1\n      revert\n    tag_92:\n        /* \"contracts/KYC.sol\":3027:3031  true */\n      0x01\n        /* \"contracts/KYC.sol\":2993:2998  banks */\n      dup1\n        /* \"contracts/KYC.sol\":2993:3003  banks[_id] */\n      0x00\n        /* \"contracts/KYC.sol\":2999:3002  _id */\n      dup4\n        /* \"contracts/KYC.sol\":2993:3003  banks[_id] */\n      0xffffffffffffffffffffffffffffffffffffffff\n      and\n      0xffffffffffffffffffffffffffffffffffffffff\n      and\n      dup2\n      mstore\n      0x20\n      add\n      swap1\n      dup2\n      mstore\n      0x20\n      add\n      0x00\n      keccak256\n        /* \"contracts/KYC.sol\":2993:3024  banks[_id].addCustomerPrivilege */\n      0x02\n      add\n      0x01\n        /* \"contracts/KYC.sol\":2993:3031  banks[_id].addCustomerPrivilege = true */\n      0x0100\n      exp\n      dup2\n      sload\n      dup2\n      0xff\n      mul\n      not\n      and\n      swap1\n      dup4\n      iszero\n      iszero\n      mul\n      or\n      swap1\n      sstore\n      pop\n        /* \"contracts/KYC.sol\":2918:3038  function allowBankToAddNewCustomer(address _id) public OnlyAdmin {... */\n      pop\n      jump\t// out\n        /* \"contracts/KYC.sol\":3158:3592  function viewCustomerData(string memory _name)... */\n    tag_35:\n        /* \"contracts/KYC.sol\":3280:3298  string memory name */\n      0x60\n        /* \"contracts/KYC.sol\":3312:3330  string memory data */\n      dup1\n        /* \"contracts/KYC.sol\":3344:3366  string memory bankName */\n      0x60\n        /* \"contracts/KYC.sol\":3380:3394  bool kycStatus */\n      0x00\n        /* \"contracts/KYC.sol\":428:446  centralBankAddress */\n      dup1\n      0x00\n      swap1\n      sload\n      swap1\n      0x0100\n      exp\n      swap1\n      div\n      0xffffffffffffffffffffffffffffffffffffffff\n      and\n        /* \"contracts/KYC.sol\":414:446  msg.sender != centralBankAddress */\n      0xffffffffffffffffffffffffffffffffffffffff\n      and\n        /* \"contracts/KYC.sol\":414:424  msg.sender */\n      caller\n        /* \"contracts/KYC.sol\":414:446  msg.sender != centralBankAddress */\n      0xffffffffffffffffffffffffffffffffffffffff\n      and\n      sub\n        /* \"contracts/KYC.sol\":393:504  require(... */\n      tag_96\n      jumpi\n      mload(0x40)\n      0x08c379a000000000000000000000000000000000000000000000000000000000\n      dup2\n      mstore\n      0x04\n      add\n      tag_97\n      swap1\n      tag_62\n      jump\t// in\n    tag_97:\n      mload(0x40)\n      dup1\n      swap2\n      sub\n      swap1\n      revert\n    tag_96:\n        /* \"contracts/KYC.sol\":3440:3449  customers */\n      0x02\n        /* \"contracts/KYC.sol\":3450:3455  _name */\n      dup6\n        /* \"contracts/KYC.sol\":3440:3456  customers[_name] */\n      mload(0x40)\n      tag_99\n      swap2\n      swap1\n      tag_65\n      jump\t// in\n    tag_99:\n      swap1\n      dup2\n      mstore\n      0x20\n      add\n      mload(0x40)\n      dup1\n      swap2\n      sub\n      swap1\n      keccak256\n        /* \"contracts/KYC.sol\":3440:3461  customers[_name].name */\n      0x00\n      add\n        /* \"contracts/KYC.sol\":3475:3484  customers */\n      0x02\n        /* \"contracts/KYC.sol\":3485:3490  _name */\n      dup7\n        /* \"contracts/KYC.sol\":3475:3491  customers[_name] */\n      mload(0x40)\n      tag_100\n      swap2\n      swap1\n      tag_65\n      jump\t// in\n    tag_100:\n      swap1\n      dup2\n      mstore\n      0x20\n      add\n      mload(0x40)\n      dup1\n      swap2\n      sub\n      swap1\n      keccak256\n        /* \"contracts/KYC.sol\":3475:3496  customers[_name].data */\n      0x01\n      add\n        /* \"contracts/KYC.sol\":3510:3519  customers */\n      0x02\n        /* \"contracts/KYC.sol\":3520:3525  _name */\n      dup8\n        /* \"contracts/KYC.sol\":3510:3526  customers[_name] */\n      mload(0x40)\n      tag_101\n      swap2\n      swap1\n      tag_65\n      jump\t// in\n    tag_101:\n      swap1\n      dup2\n      mstore\n      0x20\n      add\n      mload(0x40)\n      dup1\n      swap2\n      sub\n      swap1\n      keccak256\n        /* \"contracts/KYC.sol\":3510:3535  customers[_name].bankName */\n      0x03\n      add\n        /* \"contracts/KYC.sol\":3549:3558  customers */\n      0x02\n        /* \"contracts/KYC.sol\":3559:3564  _name */\n      dup9\n        /* \"contracts/KYC.sol\":3549:3565  customers[_name] */\n      mload(0x40)\n      tag_102\n      swap2\n      swap1\n      tag_65\n      jump\t// in\n    tag_102:\n      swap1\n      dup2\n      mstore\n      0x20\n      add\n      mload(0x40)\n      dup1\n      swap2\n      sub\n      swap1\n      keccak256\n        /* \"contracts/KYC.sol\":3549:3575  customers[_name].kycStatus */\n      0x04\n      add\n      0x00\n      swap1\n      sload\n      swap1\n      0x0100\n      exp\n      swap1\n      div\n      0xff\n      and\n        /* \"contracts/KYC.sol\":3419:3585  return (... */\n      dup4\n      dup1\n      sload\n      tag_103\n      swap1\n      tag_86\n      jump\t// in\n    tag_103:\n      dup1\n      0x1f\n      add\n      0x20\n      dup1\n      swap2\n      div\n      mul\n      0x20\n      add\n      mload(0x40)\n      swap1\n      dup2\n      add\n      0x40\n      mstore\n      dup1\n      swap3\n      swap2\n      swap1\n      dup2\n      dup2\n      mstore\n      0x20\n      add\n      dup3\n      dup1\n      sload\n      tag_104\n      swap1\n      tag_86\n      jump\t// in\n    tag_104:\n      dup1\n      iszero\n      tag_105\n      jumpi\n      dup1\n      0x1f\n      lt\n      tag_106\n      jumpi\n      0x0100\n      dup1\n      dup4\n      sload\n      div\n      mul\n      dup4\n      mstore\n      swap2\n      0x20\n      add\n      swap2\n      jump(tag_105)\n    tag_106:\n      dup3\n      add\n      swap2\n      swap1\n      0x00\n      mstore\n      keccak256(0x00, 0x20)\n      swap1\n    tag_107:\n      dup2\n      sload\n      dup2\n      mstore\n      swap1\n      0x01\n      add\n      swap1\n      0x20\n      add\n      dup1\n      dup4\n      gt\n      tag_107\n      jumpi\n      dup3\n      swap1\n      sub\n      0x1f\n      and\n      dup3\n      add\n      swap2\n    tag_105:\n      pop\n      pop\n      pop\n      pop\n      pop\n      swap4\n      pop\n      dup3\n      dup1\n      sload\n      tag_108\n      swap1\n      tag_86\n      jump\t// in\n    tag_108:\n      dup1\n      0x1f\n      add\n      0x20\n      dup1\n      swap2\n      div\n      mul\n      0x20\n      add\n      mload(0x40)\n      swap1\n      dup2\n      add\n      0x40\n      mstore\n      dup1\n      swap3\n      swap2\n      swap1\n      dup2\n      dup2\n      mstore\n      0x20\n      add\n      dup3\n      dup1\n      sload\n      tag_109\n      swap1\n      tag_86\n      jump\t// in\n    tag_109:\n      dup1\n      iszero\n      tag_110\n      jumpi\n      dup1\n      0x1f\n      lt\n      tag_111\n      jumpi\n      0x0100\n      dup1\n      dup4\n      sload\n      div\n      mul\n      dup4\n      mstore\n      swap2\n      0x20\n      add\n      swap2\n      jump(tag_110)\n    tag_111:\n      dup3\n      add\n      swap2\n      swap1\n      0x00\n      mstore\n      keccak256(0x00, 0x20)\n      swap1\n    tag_112:\n      dup2\n      sload\n      dup2\n      mstore\n      swap1\n      0x01\n      add\n      swap1\n      0x20\n      add\n      dup1\n      dup4\n      gt\n      tag_112\n      jumpi\n      dup3\n      swap1\n      sub\n      0x1f\n      and\n      dup3\n      add\n      swap2\n    tag_110:\n      pop\n      pop\n      pop\n      pop\n      pop\n      swap3\n      pop\n      dup2\n      dup1\n      sload\n      tag_113\n      swap1\n      tag_86\n      jump\t// in\n    tag_113:\n      dup1\n      0x1f\n      add\n      0x20\n      dup1\n      swap2\n      div\n      mul\n      0x20\n      add\n      mload(0x40)\n      swap1\n      dup2\n      add\n      0x40\n      mstore\n      dup1\n      swap3\n      swap2\n      swap1\n      dup2\n      dup2\n      mstore\n      0x20\n      add\n      dup3\n      dup1\n      sload\n      tag_114\n      swap1\n      tag_86\n      jump\t// in\n    tag_114:\n      dup1\n      iszero\n      tag_115\n      jumpi\n      dup1\n      0x1f\n      lt\n      tag_116\n      jumpi\n      0x0100\n      dup1\n      dup4\n      sload\n      div\n      mul\n      dup4\n      mstore\n      swap2\n      0x20\n      add\n      swap2\n      jump(tag_115)\n    tag_116:\n      dup3\n      add\n      swap2\n      swap1\n      0x00\n      mstore\n      keccak256(0x00, 0x20)\n      swap1\n    tag_117:\n      dup2\n      sload\n      dup2\n      mstore\n      swap1\n      0x01\n      add\n      swap1\n      0x20\n      add\n      dup1\n      dup4\n      gt\n      tag_117\n      jumpi\n      dup3\n      swap1\n      sub\n      0x1f\n      and\n      dup3\n      add\n      swap2\n    tag_115:\n      pop\n      pop\n      pop\n      pop\n      pop\n      swap2\n      pop\n      swap4\n      pop\n      swap4\n      pop\n      swap4\n      pop\n      swap4\n      pop\n        /* \"contracts/KYC.sol\":3158:3592  function viewCustomerData(string memory _name)... */\n      swap2\n      swap4\n      pop\n      swap2\n      swap4\n      jump\t// out\n        /* \"contracts/KYC.sol\":1481:1709  function addNewbank(string memory _name, address _id) public OnlyAdmin {... */\n    tag_41:\n        /* \"contracts/KYC.sol\":251:269  centralBankAddress */\n      0x00\n      dup1\n      sload\n      swap1\n      0x0100\n      exp\n      swap1\n      div\n      0xffffffffffffffffffffffffffffffffffffffff\n      and\n        /* \"contracts/KYC.sol\":237:269  msg.sender == centralBankAddress */\n      0xffffffffffffffffffffffffffffffffffffffff\n      and\n        /* \"contracts/KYC.sol\":237:247  msg.sender */\n      caller\n        /* \"contracts/KYC.sol\":237:269  msg.sender == centralBankAddress */\n      0xffffffffffffffffffffffffffffffffffffffff\n      and\n      eq\n        /* \"contracts/KYC.sol\":216:339  require(... */\n      tag_119\n      jumpi\n      mload(0x40)\n      0x08c379a000000000000000000000000000000000000000000000000000000000\n      dup2\n      mstore\n      0x04\n      add\n      tag_120\n      swap1\n      tag_57\n      jump\t// in\n    tag_120:\n      mload(0x40)\n      dup1\n      swap2\n      sub\n      swap1\n      revert\n    tag_119:\n        /* \"contracts/KYC.sol\":1578:1581  _id */\n      dup1\n        /* \"contracts/KYC.sol\":1562:1567  banks */\n      0x01\n        /* \"contracts/KYC.sol\":1562:1572  banks[_id] */\n      0x00\n        /* \"contracts/KYC.sol\":1568:1571  _id */\n      dup4\n        /* \"contracts/KYC.sol\":1562:1572  banks[_id] */\n      0xffffffffffffffffffffffffffffffffffffffff\n      and\n      0xffffffffffffffffffffffffffffffffffffffff\n      and\n      dup2\n      mstore\n      0x20\n      add\n      swap1\n      dup2\n      mstore\n      0x20\n      add\n      0x00\n      keccak256\n        /* \"contracts/KYC.sol\":1562:1575  banks[_id].id */\n      0x00\n      add\n      0x00\n        /* \"contracts/KYC.sol\":1562:1581  banks[_id].id = _id */\n      0x0100\n      exp\n      dup2\n      sload\n      dup2\n      0xffffffffffffffffffffffffffffffffffffffff\n      mul\n      not\n      and\n      swap1\n      dup4\n      0xffffffffffffffffffffffffffffffffffffffff\n      and\n      mul\n      or\n      swap1\n      sstore\n      pop\n        /* \"contracts/KYC.sol\":1609:1614  _name */\n      dup2\n        /* \"contracts/KYC.sol\":1591:1596  banks */\n      0x01\n        /* \"contracts/KYC.sol\":1591:1601  banks[_id] */\n      0x00\n        /* \"contracts/KYC.sol\":1597:1600  _id */\n      dup4\n        /* \"contracts/KYC.sol\":1591:1601  banks[_id] */\n      0xffffffffffffffffffffffffffffffffffffffff\n      and\n      0xffffffffffffffffffffffffffffffffffffffff\n      and\n      dup2\n      mstore\n      0x20\n      add\n      swap1\n      dup2\n      mstore\n      0x20\n      add\n      0x00\n      keccak256\n        /* \"contracts/KYC.sol\":1591:1606  banks[_id].name */\n      0x01\n      add\n        /* \"contracts/KYC.sol\":1591:1614  banks[_id].name = _name */\n      swap1\n      dup2\n      tag_122\n      swap2\n      swap1\n      tag_123\n      jump\t// in\n    tag_122:\n      pop\n        /* \"contracts/KYC.sol\":1658:1662  true */\n      0x01\n        /* \"contracts/KYC.sol\":1624:1629  banks */\n      dup1\n        /* \"contracts/KYC.sol\":1624:1634  banks[_id] */\n      0x00\n        /* \"contracts/KYC.sol\":1630:1633  _id */\n      dup4\n        /* \"contracts/KYC.sol\":1624:1634  banks[_id] */\n      0xffffffffffffffffffffffffffffffffffffffff\n      and\n      0xffffffffffffffffffffffffffffffffffffffff\n      and\n      dup2\n      mstore\n      0x20\n      add\n      swap1\n      dup2\n      mstore\n      0x20\n      add\n      0x00\n      keccak256\n        /* \"contracts/KYC.sol\":1624:1655  banks[_id].addCustomerPrivilege */\n      0x02\n      add\n      0x01\n        /* \"contracts/KYC.sol\":1624:1662  banks[_id].addCustomerPrivilege = true */\n      0x0100\n      exp\n      dup2\n      sload\n      dup2\n      0xff\n      mul\n      not\n      and\n      swap1\n      dup4\n      iszero\n      iszero\n      mul\n      or\n      swap1\n      sstore\n      pop\n        /* \"contracts/KYC.sol\":1698:1702  true */\n      0x01\n        /* \"contracts/KYC.sol\":1672:1677  banks */\n      dup1\n        /* \"contracts/KYC.sol\":1672:1682  banks[_id] */\n      0x00\n        /* \"contracts/KYC.sol\":1678:1681  _id */\n      dup4\n        /* \"contracts/KYC.sol\":1672:1682  banks[_id] */\n      0xffffffffffffffffffffffffffffffffffffffff\n      and\n      0xffffffffffffffffffffffffffffffffffffffff\n      and\n      dup2\n      mstore\n      0x20\n      add\n      swap1\n      dup2\n      mstore\n      0x20\n      add\n      0x00\n      keccak256\n        /* \"contracts/KYC.sol\":1672:1695  banks[_id].kycPrivilege */\n      0x02\n      add\n      0x02\n        /* \"contracts/KYC.sol\":1672:1702  banks[_id].kycPrivilege = true */\n      0x0100\n      exp\n      dup2\n      sload\n      dup2\n      0xff\n      mul\n      not\n      and\n      swap1\n      dup4\n      iszero\n      iszero\n      mul\n      or\n      swap1\n      sstore\n      pop\n        /* \"contracts/KYC.sol\":1481:1709  function addNewbank(string memory _name, address _id) public OnlyAdmin {... */\n      pop\n      pop\n      jump\t// out\n        /* \"contracts/KYC.sol\":2195:2438  function checkKycSattus(string memory _name)... */\n    tag_44:\n        /* \"contracts/KYC.sol\":2302:2316  bool kycStatus */\n      0x00\n        /* \"contracts/KYC.sol\":428:446  centralBankAddress */\n      dup1\n      0x00\n      swap1\n      sload\n      swap1\n      0x0100\n      exp\n      swap1\n      div\n      0xffffffffffffffffffffffffffffffffffffffff\n      and\n        /* \"contracts/KYC.sol\":414:446  msg.sender != centralBankAddress */\n      0xffffffffffffffffffffffffffffffffffffffff\n      and\n        /* \"contracts/KYC.sol\":414:424  msg.sender */\n      caller\n        /* \"contracts/KYC.sol\":414:446  msg.sender != centralBankAddress */\n      0xffffffffffffffffffffffffffffffffffffffff\n      and\n      sub\n        /* \"contracts/KYC.sol\":393:504  require(... */\n      tag_125\n      jumpi\n      mload(0x40)\n      0x08c379a000000000000000000000000000000000000000000000000000000000\n      dup2\n      mstore\n      0x04\n      add\n      tag_126\n      swap1\n      tag_62\n      jump\t// in\n    tag_126:\n      mload(0x40)\n      dup1\n      swap2\n      sub\n      swap1\n      revert\n    tag_125:\n        /* \"contracts/KYC.sol\":2404:2413  customers */\n      0x02\n        /* \"contracts/KYC.sol\":2414:2419  _name */\n      dup3\n        /* \"contracts/KYC.sol\":2404:2420  customers[_name] */\n      mload(0x40)\n      tag_128\n      swap2\n      swap1\n      tag_65\n      jump\t// in\n    tag_128:\n      swap1\n      dup2\n      mstore\n      0x20\n      add\n      mload(0x40)\n      dup1\n      swap2\n      sub\n      swap1\n      keccak256\n        /* \"contracts/KYC.sol\":2404:2430  customers[_name].kycStatus */\n      0x04\n      add\n      0x00\n      swap1\n      sload\n      swap1\n      0x0100\n      exp\n      swap1\n      div\n      0xff\n      and\n        /* \"contracts/KYC.sol\":2396:2431  return (customers[_name].kycStatus) */\n      swap1\n      pop\n        /* \"contracts/KYC.sol\":2195:2438  function checkKycSattus(string memory _name)... */\n      swap2\n      swap1\n      pop\n      jump\t// out\n        /* \"contracts/KYC.sol\":1715:2189  function addNewCustomer(string memory _name, string memory _data)... */\n    tag_50:\n        /* \"contracts/KYC.sol\":428:446  centralBankAddress */\n      0x00\n      dup1\n      sload\n      swap1\n      0x0100\n      exp\n      swap1\n      div\n      0xffffffffffffffffffffffffffffffffffffffff\n      and\n        /* \"contracts/KYC.sol\":414:446  msg.sender != centralBankAddress */\n      0xffffffffffffffffffffffffffffffffffffffff\n      and\n        /* \"contracts/KYC.sol\":414:424  msg.sender */\n      caller\n        /* \"contracts/KYC.sol\":414:446  msg.sender != centralBankAddress */\n      0xffffffffffffffffffffffffffffffffffffffff\n      and\n      sub\n        /* \"contracts/KYC.sol\":393:504  require(... */\n      tag_130\n      jumpi\n      mload(0x40)\n      0x08c379a000000000000000000000000000000000000000000000000000000000\n      dup2\n      mstore\n      0x04\n      add\n      tag_131\n      swap1\n      tag_62\n      jump\t// in\n    tag_131:\n      mload(0x40)\n      dup1\n      swap2\n      sub\n      swap1\n      revert\n    tag_130:\n        /* \"contracts/KYC.sol\":594:599  banks */\n      0x01\n        /* \"contracts/KYC.sol\":594:611  banks[msg.sender] */\n      0x00\n        /* \"contracts/KYC.sol\":600:610  msg.sender */\n      caller\n        /* \"contracts/KYC.sol\":594:611  banks[msg.sender] */\n      0xffffffffffffffffffffffffffffffffffffffff\n      and\n      0xffffffffffffffffffffffffffffffffffffffff\n      and\n      dup2\n      mstore\n      0x20\n      add\n      swap1\n      dup2\n      mstore\n      0x20\n      add\n      0x00\n      keccak256\n        /* \"contracts/KYC.sol\":594:632  banks[msg.sender].addCustomerPrivilege */\n      0x02\n      add\n      0x01\n      swap1\n      sload\n      swap1\n      0x0100\n      exp\n      swap1\n      div\n      0xff\n      and\n        /* \"contracts/KYC.sol\":573:698  require(... */\n      tag_133\n      jumpi\n      mload(0x40)\n      0x08c379a000000000000000000000000000000000000000000000000000000000\n      dup2\n      mstore\n      0x04\n      add\n      tag_134\n      swap1\n      tag_135\n      jump\t// in\n    tag_134:\n      mload(0x40)\n      dup1\n      swap2\n      sub\n      swap1\n      revert\n    tag_133:\n        /* \"contracts/KYC.sol\":1986:1991  _name */\n      dup2\n        /* \"contracts/KYC.sol\":1962:1971  customers */\n      0x02\n        /* \"contracts/KYC.sol\":1972:1977  _name */\n      dup4\n        /* \"contracts/KYC.sol\":1962:1978  customers[_name] */\n      mload(0x40)\n      tag_137\n      swap2\n      swap1\n      tag_65\n      jump\t// in\n    tag_137:\n      swap1\n      dup2\n      mstore\n      0x20\n      add\n      mload(0x40)\n      dup1\n      swap2\n      sub\n      swap1\n      keccak256\n        /* \"contracts/KYC.sol\":1962:1983  customers[_name].name */\n      0x00\n      add\n        /* \"contracts/KYC.sol\":1962:1991  customers[_name].name = _name */\n      swap1\n      dup2\n      tag_138\n      swap2\n      swap1\n      tag_123\n      jump\t// in\n    tag_138:\n      pop\n        /* \"contracts/KYC.sol\":2025:2030  _data */\n      dup1\n        /* \"contracts/KYC.sol\":2001:2010  customers */\n      0x02\n        /* \"contracts/KYC.sol\":2011:2016  _name */\n      dup4\n        /* \"contracts/KYC.sol\":2001:2017  customers[_name] */\n      mload(0x40)\n      tag_139\n      swap2\n      swap1\n      tag_65\n      jump\t// in\n    tag_139:\n      swap1\n      dup2\n      mstore\n      0x20\n      add\n      mload(0x40)\n      dup1\n      swap2\n      sub\n      swap1\n      keccak256\n        /* \"contracts/KYC.sol\":2001:2022  customers[_name].data */\n      0x01\n      add\n        /* \"contracts/KYC.sol\":2001:2030  customers[_name].data = _data */\n      swap1\n      dup2\n      tag_140\n      swap2\n      swap1\n      tag_123\n      jump\t// in\n    tag_140:\n      pop\n        /* \"contracts/KYC.sol\":2066:2076  msg.sender */\n      caller\n        /* \"contracts/KYC.sol\":2040:2049  customers */\n      0x02\n        /* \"contracts/KYC.sol\":2050:2055  _name */\n      dup4\n        /* \"contracts/KYC.sol\":2040:2056  customers[_name] */\n      mload(0x40)\n      tag_141\n      swap2\n      swap1\n      tag_65\n      jump\t// in\n    tag_141:\n      swap1\n      dup2\n      mstore\n      0x20\n      add\n      mload(0x40)\n      dup1\n      swap2\n      sub\n      swap1\n      keccak256\n        /* \"contracts/KYC.sol\":2040:2063  customers[_name].bankId */\n      0x02\n      add\n      0x00\n        /* \"contracts/KYC.sol\":2040:2076  customers[_name].bankId = msg.sender */\n      0x0100\n      exp\n      dup2\n      sload\n      dup2\n      0xffffffffffffffffffffffffffffffffffffffff\n      mul\n      not\n      and\n      swap1\n      dup4\n      0xffffffffffffffffffffffffffffffffffffffff\n      and\n      mul\n      or\n      swap1\n      sstore\n      pop\n        /* \"contracts/KYC.sol\":2114:2119  banks */\n      0x01\n        /* \"contracts/KYC.sol\":2114:2131  banks[msg.sender] */\n      0x00\n        /* \"contracts/KYC.sol\":2120:2130  msg.sender */\n      caller\n        /* \"contracts/KYC.sol\":2114:2131  banks[msg.sender] */\n      0xffffffffffffffffffffffffffffffffffffffff\n      and\n      0xffffffffffffffffffffffffffffffffffffffff\n      and\n      dup2\n      mstore\n      0x20\n      add\n      swap1\n      dup2\n      mstore\n      0x20\n      add\n      0x00\n      keccak256\n        /* \"contracts/KYC.sol\":2114:2136  banks[msg.sender].name */\n      0x01\n      add\n        /* \"contracts/KYC.sol\":2086:2095  customers */\n      0x02\n        /* \"contracts/KYC.sol\":2096:2101  _name */\n      dup4\n        /* \"contracts/KYC.sol\":2086:2102  customers[_name] */\n      mload(0x40)\n      tag_142\n      swap2\n      swap1\n      tag_65\n      jump\t// in\n    tag_142:\n      swap1\n      dup2\n      mstore\n      0x20\n      add\n      mload(0x40)\n      dup1\n      swap2\n      sub\n      swap1\n      keccak256\n        /* \"contracts/KYC.sol\":2086:2111  customers[_name].bankName */\n      0x03\n      add\n        /* \"contracts/KYC.sol\":2086:2136  customers[_name].bankName = banks[msg.sender].name */\n      swap1\n      dup2\n      tag_143\n      swap2\n      swap1\n      tag_144\n      jump\t// in\n    tag_143:\n      pop\n        /* \"contracts/KYC.sol\":1715:2189  function addNewCustomer(string memory _name, string memory _data)... */\n      pop\n      pop\n      jump\t// out\n        /* \"contracts/KYC.sol\":3044:3152  function allowBankToPerformKyc(address _id) public OnlyAdmin {... */\n    tag_53:\n        /* \"contracts/KYC.sol\":251:269  centralBankAddress */\n      0x00\n      dup1\n      sload\n      swap1\n      0x0100\n      exp\n      swap1\n      div\n      0xffffffffffffffffffffffffffffffffffffffff\n      and\n        /* \"contracts/KYC.sol\":237:269  msg.sender == centralBankAddress */\n      0xffffffffffffffffffffffffffffffffffffffff\n      and\n        /* \"contracts/KYC.sol\":237:247  msg.sender */\n      caller\n        /* \"contracts/KYC.sol\":237:269  msg.sender == centralBankAddress */\n      0xffffffffffffffffffffffffffffffffffffffff\n      and\n      eq\n        /* \"contracts/KYC.sol\":216:339  require(... */\n      tag_146\n      jumpi\n      mload(0x40)\n      0x08c379a000000000000000000000000000000000000000000000000000000000\n      dup2\n      mstore\n      0x04\n      add\n      tag_147\n      swap1\n      tag_57\n      jump\t// in\n    tag_147:\n      mload(0x40)\n      dup1\n      swap2\n      sub\n      swap1\n      revert\n    tag_146:\n        /* \"contracts/KYC.sol\":3141:3145  true */\n      0x01\n        /* \"contracts/KYC.sol\":3115:3120  banks */\n      dup1\n        /* \"contracts/KYC.sol\":3115:3125  banks[_id] */\n      0x00\n        /* \"contracts/KYC.sol\":3121:3124  _id */\n      dup4\n        /* \"contracts/KYC.sol\":3115:3125  banks[_id] */\n      0xffffffffffffffffffffffffffffffffffffffff\n      and\n      0xffffffffffffffffffffffffffffffffffffffff\n      and\n      dup2\n      mstore\n      0x20\n      add\n      swap1\n      dup2\n      mstore\n      0x20\n      add\n      0x00\n      keccak256\n        /* \"contracts/KYC.sol\":3115:3138  banks[_id].kycPrivilege */\n      0x02\n      add\n      0x02\n        /* \"contracts/KYC.sol\":3115:3145  banks[_id].kycPrivilege = true */\n      0x0100\n      exp\n      dup2\n      sload\n      dup2\n      0xff\n      mul\n      not\n      and\n      swap1\n      dup4\n      iszero\n      iszero\n      mul\n      or\n      swap1\n      sstore\n      pop\n        /* \"contracts/KYC.sol\":3044:3152  function allowBankToPerformKyc(address _id) public OnlyAdmin {... */\n      pop\n      jump\t// out\n        /* \"#utility.yul\":7:82   */\n    tag_149:\n        /* \"#utility.yul\":40:46   */\n      0x00\n        /* \"#utility.yul\":73:75   */\n      0x40\n        /* \"#utility.yul\":67:76   */\n      mload\n        /* \"#utility.yul\":57:76   */\n      swap1\n      pop\n        /* \"#utility.yul\":7:82   */\n      swap1\n      jump\t// out\n        /* \"#utility.yul\":88:205   */\n    tag_150:\n        /* \"#utility.yul\":197:198   */\n      0x00\n        /* \"#utility.yul\":194:195   */\n      dup1\n        /* \"#utility.yul\":187:199   */\n      revert\n        /* \"#utility.yul\":211:328   */\n    tag_151:\n        /* \"#utility.yul\":320:321   */\n      0x00\n        /* \"#utility.yul\":317:318   */\n      dup1\n        /* \"#utility.yul\":310:322   */\n      revert\n        /* \"#utility.yul\":334:460   */\n    tag_152:\n        /* \"#utility.yul\":371:378   */\n      0x00\n        /* \"#utility.yul\":411:453   */\n      0xffffffffffffffffffffffffffffffffffffffff\n        /* \"#utility.yul\":404:409   */\n      dup3\n        /* \"#utility.yul\":400:454   */\n      and\n        /* \"#utility.yul\":389:454   */\n      swap1\n      pop\n        /* \"#utility.yul\":334:460   */\n      swap2\n      swap1\n      pop\n      jump\t// out\n        /* \"#utility.yul\":466:562   */\n    tag_153:\n        /* \"#utility.yul\":503:510   */\n      0x00\n        /* \"#utility.yul\":532:556   */\n      tag_212\n        /* \"#utility.yul\":550:555   */\n      dup3\n        /* \"#utility.yul\":532:556   */\n      tag_152\n      jump\t// in\n    tag_212:\n        /* \"#utility.yul\":521:556   */\n      swap1\n      pop\n        /* \"#utility.yul\":466:562   */\n      swap2\n      swap1\n      pop\n      jump\t// out\n        /* \"#utility.yul\":568:690   */\n    tag_154:\n        /* \"#utility.yul\":641:665   */\n      tag_214\n        /* \"#utility.yul\":659:664   */\n      dup2\n        /* \"#utility.yul\":641:665   */\n      tag_153\n      jump\t// in\n    tag_214:\n        /* \"#utility.yul\":634:639   */\n      dup2\n        /* \"#utility.yul\":631:666   */\n      eq\n        /* \"#utility.yul\":621:684   */\n      tag_215\n      jumpi\n        /* \"#utility.yul\":680:681   */\n      0x00\n        /* \"#utility.yul\":677:678   */\n      dup1\n        /* \"#utility.yul\":670:682   */\n      revert\n        /* \"#utility.yul\":621:684   */\n    tag_215:\n        /* \"#utility.yul\":568:690   */\n      pop\n      jump\t// out\n        /* \"#utility.yul\":696:835   */\n    tag_155:\n        /* \"#utility.yul\":742:747   */\n      0x00\n        /* \"#utility.yul\":780:786   */\n      dup2\n        /* \"#utility.yul\":767:787   */\n      calldataload\n        /* \"#utility.yul\":758:787   */\n      swap1\n      pop\n        /* \"#utility.yul\":796:829   */\n      tag_217\n        /* \"#utility.yul\":823:828   */\n      dup2\n        /* \"#utility.yul\":796:829   */\n      tag_154\n      jump\t// in\n    tag_217:\n        /* \"#utility.yul\":696:835   */\n      swap3\n      swap2\n      pop\n      pop\n      jump\t// out\n        /* \"#utility.yul\":841:1170   */\n    tag_16:\n        /* \"#utility.yul\":900:906   */\n      0x00\n        /* \"#utility.yul\":949:951   */\n      0x20\n        /* \"#utility.yul\":937:946   */\n      dup3\n        /* \"#utility.yul\":928:935   */\n      dup5\n        /* \"#utility.yul\":924:947   */\n      sub\n        /* \"#utility.yul\":920:952   */\n      slt\n        /* \"#utility.yul\":917:1036   */\n      iszero\n      tag_219\n      jumpi\n        /* \"#utility.yul\":955:1034   */\n      tag_220\n      tag_150\n      jump\t// in\n    tag_220:\n        /* \"#utility.yul\":917:1036   */\n    tag_219:\n        /* \"#utility.yul\":1075:1076   */\n      0x00\n        /* \"#utility.yul\":1100:1153   */\n      tag_221\n        /* \"#utility.yul\":1145:1152   */\n      dup5\n        /* \"#utility.yul\":1136:1142   */\n      dup3\n        /* \"#utility.yul\":1125:1134   */\n      dup6\n        /* \"#utility.yul\":1121:1143   */\n      add\n        /* \"#utility.yul\":1100:1153   */\n      tag_155\n      jump\t// in\n    tag_221:\n        /* \"#utility.yul\":1090:1153   */\n      swap2\n      pop\n        /* \"#utility.yul\":1046:1163   */\n      pop\n        /* \"#utility.yul\":841:1170   */\n      swap3\n      swap2\n      pop\n      pop\n      jump\t// out\n        /* \"#utility.yul\":1176:1293   */\n    tag_156:\n        /* \"#utility.yul\":1285:1286   */\n      0x00\n        /* \"#utility.yul\":1282:1283   */\n      dup1\n        /* \"#utility.yul\":1275:1287   */\n      revert\n        /* \"#utility.yul\":1299:1416   */\n    tag_157:\n        /* \"#utility.yul\":1408:1409   */\n      0x00\n        /* \"#utility.yul\":1405:1406   */\n      dup1\n        /* \"#utility.yul\":1398:1410   */\n      revert\n        /* \"#utility.yul\":1422:1524   */\n    tag_158:\n        /* \"#utility.yul\":1463:1469   */\n      0x00\n        /* \"#utility.yul\":1514:1516   */\n      0x1f\n        /* \"#utility.yul\":1510:1517   */\n      not\n        /* \"#utility.yul\":1505:1507   */\n      0x1f\n        /* \"#utility.yul\":1498:1503   */\n      dup4\n        /* \"#utility.yul\":1494:1508   */\n      add\n        /* \"#utility.yul\":1490:1518   */\n      and\n        /* \"#utility.yul\":1480:1518   */\n      swap1\n      pop\n        /* \"#utility.yul\":1422:1524   */\n      swap2\n      swap1\n      pop\n      jump\t// out\n        /* \"#utility.yul\":1530:1710   */\n    tag_159:\n        /* \"#utility.yul\":1578:1655   */\n      0x4e487b7100000000000000000000000000000000000000000000000000000000\n        /* \"#utility.yul\":1575:1576   */\n      0x00\n        /* \"#utility.yul\":1568:1656   */\n      mstore\n        /* \"#utility.yul\":1675:1679   */\n      0x41\n        /* \"#utility.yul\":1672:1673   */\n      0x04\n        /* \"#utility.yul\":1665:1680   */\n      mstore\n        /* \"#utility.yul\":1699:1703   */\n      0x24\n        /* \"#utility.yul\":1696:1697   */\n      0x00\n        /* \"#utility.yul\":1689:1704   */\n      revert\n        /* \"#utility.yul\":1716:1997   */\n    tag_160:\n        /* \"#utility.yul\":1799:1826   */\n      tag_227\n        /* \"#utility.yul\":1821:1825   */\n      dup3\n        /* \"#utility.yul\":1799:1826   */\n      tag_158\n      jump\t// in\n    tag_227:\n        /* \"#utility.yul\":1791:1797   */\n      dup2\n        /* \"#utility.yul\":1787:1827   */\n      add\n        /* \"#utility.yul\":1929:1935   */\n      dup2\n        /* \"#utility.yul\":1917:1927   */\n      dup2\n        /* \"#utility.yul\":1914:1936   */\n      lt\n        /* \"#utility.yul\":1893:1911   */\n      0xffffffffffffffff\n        /* \"#utility.yul\":1881:1891   */\n      dup3\n        /* \"#utility.yul\":1878:1912   */\n      gt\n        /* \"#utility.yul\":1875:1937   */\n      or\n        /* \"#utility.yul\":1872:1960   */\n      iszero\n      tag_228\n      jumpi\n        /* \"#utility.yul\":1940:1958   */\n      tag_229\n      tag_159\n      jump\t// in\n    tag_229:\n        /* \"#utility.yul\":1872:1960   */\n    tag_228:\n        /* \"#utility.yul\":1980:1990   */\n      dup1\n        /* \"#utility.yul\":1976:1978   */\n      0x40\n        /* \"#utility.yul\":1969:1991   */\n      mstore\n        /* \"#utility.yul\":1759:1997   */\n      pop\n        /* \"#utility.yul\":1716:1997   */\n      pop\n      pop\n      jump\t// out\n        /* \"#utility.yul\":2003:2132   */\n    tag_161:\n        /* \"#utility.yul\":2037:2043   */\n      0x00\n        /* \"#utility.yul\":2064:2084   */\n      tag_231\n      tag_149\n      jump\t// in\n    tag_231:\n        /* \"#utility.yul\":2054:2084   */\n      swap1\n      pop\n        /* \"#utility.yul\":2093:2126   */\n      tag_232\n        /* \"#utility.yul\":2121:2125   */\n      dup3\n        /* \"#utility.yul\":2113:2119   */\n      dup3\n        /* \"#utility.yul\":2093:2126   */\n      tag_160\n      jump\t// in\n    tag_232:\n        /* \"#utility.yul\":2003:2132   */\n      swap2\n      swap1\n      pop\n      jump\t// out\n        /* \"#utility.yul\":2138:2446   */\n    tag_162:\n        /* \"#utility.yul\":2200:2204   */\n      0x00\n        /* \"#utility.yul\":2290:2308   */\n      0xffffffffffffffff\n        /* \"#utility.yul\":2282:2288   */\n      dup3\n        /* \"#utility.yul\":2279:2309   */\n      gt\n        /* \"#utility.yul\":2276:2332   */\n      iszero\n      tag_234\n      jumpi\n        /* \"#utility.yul\":2312:2330   */\n      tag_235\n      tag_159\n      jump\t// in\n    tag_235:\n        /* \"#utility.yul\":2276:2332   */\n    tag_234:\n        /* \"#utility.yul\":2350:2379   */\n      tag_236\n        /* \"#utility.yul\":2372:2378   */\n      dup3\n        /* \"#utility.yul\":2350:2379   */\n      tag_158\n      jump\t// in\n    tag_236:\n        /* \"#utility.yul\":2342:2379   */\n      swap1\n      pop\n        /* \"#utility.yul\":2434:2438   */\n      0x20\n        /* \"#utility.yul\":2428:2432   */\n      dup2\n        /* \"#utility.yul\":2424:2439   */\n      add\n        /* \"#utility.yul\":2416:2439   */\n      swap1\n      pop\n        /* \"#utility.yul\":2138:2446   */\n      swap2\n      swap1\n      pop\n      jump\t// out\n        /* \"#utility.yul\":2452:2598   */\n    tag_163:\n        /* \"#utility.yul\":2549:2555   */\n      dup3\n        /* \"#utility.yul\":2544:2547   */\n      dup2\n        /* \"#utility.yul\":2539:2542   */\n      dup4\n        /* \"#utility.yul\":2526:2556   */\n      calldatacopy\n        /* \"#utility.yul\":2590:2591   */\n      0x00\n        /* \"#utility.yul\":2581:2587   */\n      dup4\n        /* \"#utility.yul\":2576:2579   */\n      dup4\n        /* \"#utility.yul\":2572:2588   */\n      add\n        /* \"#utility.yul\":2565:2592   */\n      mstore\n        /* \"#utility.yul\":2452:2598   */\n      pop\n      pop\n      pop\n      jump\t// out\n        /* \"#utility.yul\":2604:3029   */\n    tag_164:\n        /* \"#utility.yul\":2682:2687   */\n      0x00\n        /* \"#utility.yul\":2707:2773   */\n      tag_239\n        /* \"#utility.yul\":2723:2772   */\n      tag_240\n        /* \"#utility.yul\":2765:2771   */\n      dup5\n        /* \"#utility.yul\":2723:2772   */\n      tag_162\n      jump\t// in\n    tag_240:\n        /* \"#utility.yul\":2707:2773   */\n      tag_161\n      jump\t// in\n    tag_239:\n        /* \"#utility.yul\":2698:2773   */\n      swap1\n      pop\n        /* \"#utility.yul\":2796:2802   */\n      dup3\n        /* \"#utility.yul\":2789:2794   */\n      dup2\n        /* \"#utility.yul\":2782:2803   */\n      mstore\n        /* \"#utility.yul\":2834:2838   */\n      0x20\n        /* \"#utility.yul\":2827:2832   */\n      dup2\n        /* \"#utility.yul\":2823:2839   */\n      add\n        /* \"#utility.yul\":2872:2875   */\n      dup5\n        /* \"#utility.yul\":2863:2869   */\n      dup5\n        /* \"#utility.yul\":2858:2861   */\n      dup5\n        /* \"#utility.yul\":2854:2870   */\n      add\n        /* \"#utility.yul\":2851:2876   */\n      gt\n        /* \"#utility.yul\":2848:2960   */\n      iszero\n      tag_241\n      jumpi\n        /* \"#utility.yul\":2879:2958   */\n      tag_242\n      tag_157\n      jump\t// in\n    tag_242:\n        /* \"#utility.yul\":2848:2960   */\n    tag_241:\n        /* \"#utility.yul\":2969:3023   */\n      tag_243\n        /* \"#utility.yul\":3016:3022   */\n      dup5\n        /* \"#utility.yul\":3011:3014   */\n      dup3\n        /* \"#utility.yul\":3006:3009   */\n      dup6\n        /* \"#utility.yul\":2969:3023   */\n      tag_163\n      jump\t// in\n    tag_243:\n        /* \"#utility.yul\":2688:3029   */\n      pop\n        /* \"#utility.yul\":2604:3029   */\n      swap4\n      swap3\n      pop\n      pop\n      pop\n      jump\t// out\n        /* \"#utility.yul\":3049:3389   */\n    tag_165:\n        /* \"#utility.yul\":3105:3110   */\n      0x00\n        /* \"#utility.yul\":3154:3157   */\n      dup3\n        /* \"#utility.yul\":3147:3151   */\n      0x1f\n        /* \"#utility.yul\":3139:3145   */\n      dup4\n        /* \"#utility.yul\":3135:3152   */\n      add\n        /* \"#utility.yul\":3131:3158   */\n      slt\n        /* \"#utility.yul\":3121:3243   */\n      tag_245\n      jumpi\n        /* \"#utility.yul\":3162:3241   */\n      tag_246\n      tag_156\n      jump\t// in\n    tag_246:\n        /* \"#utility.yul\":3121:3243   */\n    tag_245:\n        /* \"#utility.yul\":3279:3285   */\n      dup2\n        /* \"#utility.yul\":3266:3286   */\n      calldataload\n        /* \"#utility.yul\":3304:3383   */\n      tag_247\n        /* \"#utility.yul\":3379:3382   */\n      dup5\n        /* \"#utility.yul\":3371:3377   */\n      dup3\n        /* \"#utility.yul\":3364:3368   */\n      0x20\n        /* \"#utility.yul\":3356:3362   */\n      dup7\n        /* \"#utility.yul\":3352:3369   */\n      add\n        /* \"#utility.yul\":3304:3383   */\n      tag_164\n      jump\t// in\n    tag_247:\n        /* \"#utility.yul\":3295:3383   */\n      swap2\n      pop\n        /* \"#utility.yul\":3111:3389   */\n      pop\n        /* \"#utility.yul\":3049:3389   */\n      swap3\n      swap2\n      pop\n      pop\n      jump\t// out\n        /* \"#utility.yul\":3395:3904   */\n    tag_20:\n        /* \"#utility.yul\":3464:3470   */\n      0x00\n        /* \"#utility.yul\":3513:3515   */\n      0x20\n        /* \"#utility.yul\":3501:3510   */\n      dup3\n        /* \"#utility.yul\":3492:3499   */\n      dup5\n        /* \"#utility.yul\":3488:3511   */\n      sub\n        /* \"#utility.yul\":3484:3516   */\n      slt\n        /* \"#utility.yul\":3481:3600   */\n      iszero\n      tag_249\n      jumpi\n        /* \"#utility.yul\":3519:3598   */\n      tag_250\n      tag_150\n      jump\t// in\n    tag_250:\n        /* \"#utility.yul\":3481:3600   */\n    tag_249:\n        /* \"#utility.yul\":3667:3668   */\n      0x00\n        /* \"#utility.yul\":3656:3665   */\n      dup3\n        /* \"#utility.yul\":3652:3669   */\n      add\n        /* \"#utility.yul\":3639:3670   */\n      calldataload\n        /* \"#utility.yul\":3697:3715   */\n      0xffffffffffffffff\n        /* \"#utility.yul\":3689:3695   */\n      dup2\n        /* \"#utility.yul\":3686:3716   */\n      gt\n        /* \"#utility.yul\":3683:3800   */\n      iszero\n      tag_251\n      jumpi\n        /* \"#utility.yul\":3719:3798   */\n      tag_252\n      tag_151\n      jump\t// in\n    tag_252:\n        /* \"#utility.yul\":3683:3800   */\n    tag_251:\n        /* \"#utility.yul\":3824:3887   */\n      tag_253\n        /* \"#utility.yul\":3879:3886   */\n      dup5\n        /* \"#utility.yul\":3870:3876   */\n      dup3\n        /* \"#utility.yul\":3859:3868   */\n      dup6\n        /* \"#utility.yul\":3855:3877   */\n      add\n        /* \"#utility.yul\":3824:3887   */\n      tag_165\n      jump\t// in\n    tag_253:\n        /* \"#utility.yul\":3814:3887   */\n      swap2\n      pop\n        /* \"#utility.yul\":3610:3897   */\n      pop\n        /* \"#utility.yul\":3395:3904   */\n      swap3\n      swap2\n      pop\n      pop\n      jump\t// out\n        /* \"#utility.yul\":3910:4009   */\n    tag_166:\n        /* \"#utility.yul\":3962:3968   */\n      0x00\n        /* \"#utility.yul\":3996:4001   */\n      dup2\n        /* \"#utility.yul\":3990:4002   */\n      mload\n        /* \"#utility.yul\":3980:4002   */\n      swap1\n      pop\n        /* \"#utility.yul\":3910:4009   */\n      swap2\n      swap1\n      pop\n      jump\t// out\n        /* \"#utility.yul\":4015:4184   */\n    tag_167:\n        /* \"#utility.yul\":4099:4110   */\n      0x00\n        /* \"#utility.yul\":4133:4139   */\n      dup3\n        /* \"#utility.yul\":4128:4131   */\n      dup3\n        /* \"#utility.yul\":4121:4140   */\n      mstore\n        /* \"#utility.yul\":4173:4177   */\n      0x20\n        /* \"#utility.yul\":4168:4171   */\n      dup3\n        /* \"#utility.yul\":4164:4178   */\n      add\n        /* \"#utility.yul\":4149:4178   */\n      swap1\n      pop\n        /* \"#utility.yul\":4015:4184   */\n      swap3\n      swap2\n      pop\n      pop\n      jump\t// out\n        /* \"#utility.yul\":4190:4436   */\n    tag_168:\n        /* \"#utility.yul\":4271:4272   */\n      0x00\n        /* \"#utility.yul\":4281:4394   */\n    tag_257:\n        /* \"#utility.yul\":4295:4301   */\n      dup4\n        /* \"#utility.yul\":4292:4293   */\n      dup2\n        /* \"#utility.yul\":4289:4302   */\n      lt\n        /* \"#utility.yul\":4281:4394   */\n      iszero\n      tag_259\n      jumpi\n        /* \"#utility.yul\":4380:4381   */\n      dup1\n        /* \"#utility.yul\":4375:4378   */\n      dup3\n        /* \"#utility.yul\":4371:4382   */\n      add\n        /* \"#utility.yul\":4365:4383   */\n      mload\n        /* \"#utility.yul\":4361:4362   */\n      dup2\n        /* \"#utility.yul\":4356:4359   */\n      dup5\n        /* \"#utility.yul\":4352:4363   */\n      add\n        /* \"#utility.yul\":4345:4384   */\n      mstore\n        /* \"#utility.yul\":4317:4319   */\n      0x20\n        /* \"#utility.yul\":4314:4315   */\n      dup2\n        /* \"#utility.yul\":4310:4320   */\n      add\n        /* \"#utility.yul\":4305:4320   */\n      swap1\n      pop\n        /* \"#utility.yul\":4281:4394   */\n      jump(tag_257)\n    tag_259:\n        /* \"#utility.yul\":4428:4429   */\n      0x00\n        /* \"#utility.yul\":4419:4425   */\n      dup5\n        /* \"#utility.yul\":4414:4417   */\n      dup5\n        /* \"#utility.yul\":4410:4426   */\n      add\n        /* \"#utility.yul\":4403:4430   */\n      mstore\n        /* \"#utility.yul\":4252:4436   */\n      pop\n        /* \"#utility.yul\":4190:4436   */\n      pop\n      pop\n      pop\n      jump\t// out\n        /* \"#utility.yul\":4442:4819   */\n    tag_169:\n        /* \"#utility.yul\":4530:4533   */\n      0x00\n        /* \"#utility.yul\":4558:4597   */\n      tag_261\n        /* \"#utility.yul\":4591:4596   */\n      dup3\n        /* \"#utility.yul\":4558:4597   */\n      tag_166\n      jump\t// in\n    tag_261:\n        /* \"#utility.yul\":4613:4684   */\n      tag_262\n        /* \"#utility.yul\":4677:4683   */\n      dup2\n        /* \"#utility.yul\":4672:4675   */\n      dup6\n        /* \"#utility.yul\":4613:4684   */\n      tag_167\n      jump\t// in\n    tag_262:\n        /* \"#utility.yul\":4606:4684   */\n      swap4\n      pop\n        /* \"#utility.yul\":4693:4758   */\n      tag_263\n        /* \"#utility.yul\":4751:4757   */\n      dup2\n        /* \"#utility.yul\":4746:4749   */\n      dup6\n        /* \"#utility.yul\":4739:4743   */\n      0x20\n        /* \"#utility.yul\":4732:4737   */\n      dup7\n        /* \"#utility.yul\":4728:4744   */\n      add\n        /* \"#utility.yul\":4693:4758   */\n      tag_168\n      jump\t// in\n    tag_263:\n        /* \"#utility.yul\":4783:4812   */\n      tag_264\n        /* \"#utility.yul\":4805:4811   */\n      dup2\n        /* \"#utility.yul\":4783:4812   */\n      tag_158\n      jump\t// in\n    tag_264:\n        /* \"#utility.yul\":4778:4781   */\n      dup5\n        /* \"#utility.yul\":4774:4813   */\n      add\n        /* \"#utility.yul\":4767:4813   */\n      swap2\n      pop\n        /* \"#utility.yul\":4534:4819   */\n      pop\n        /* \"#utility.yul\":4442:4819   */\n      swap3\n      swap2\n      pop\n      pop\n      jump\t// out\n        /* \"#utility.yul\":4825:4911   */\n    tag_170:\n        /* \"#utility.yul\":4860:4867   */\n      0x00\n        /* \"#utility.yul\":4900:4904   */\n      0xff\n        /* \"#utility.yul\":4893:4898   */\n      dup3\n        /* \"#utility.yul\":4889:4905   */\n      and\n        /* \"#utility.yul\":4878:4905   */\n      swap1\n      pop\n        /* \"#utility.yul\":4825:4911   */\n      swap2\n      swap1\n      pop\n      jump\t// out\n        /* \"#utility.yul\":4917:5029   */\n    tag_171:\n        /* \"#utility.yul\":5000:5022   */\n      tag_267\n        /* \"#utility.yul\":5016:5021   */\n      dup2\n        /* \"#utility.yul\":5000:5022   */\n      tag_170\n      jump\t// in\n    tag_267:\n        /* \"#utility.yul\":4995:4998   */\n      dup3\n        /* \"#utility.yul\":4988:5023   */\n      mstore\n        /* \"#utility.yul\":4917:5029   */\n      pop\n      pop\n      jump\t// out\n        /* \"#utility.yul\":5035:5125   */\n    tag_172:\n        /* \"#utility.yul\":5069:5076   */\n      0x00\n        /* \"#utility.yul\":5112:5117   */\n      dup2\n        /* \"#utility.yul\":5105:5118   */\n      iszero\n        /* \"#utility.yul\":5098:5119   */\n      iszero\n        /* \"#utility.yul\":5087:5119   */\n      swap1\n      pop\n        /* \"#utility.yul\":5035:5125   */\n      swap2\n      swap1\n      pop\n      jump\t// out\n        /* \"#utility.yul\":5131:5240   */\n    tag_173:\n        /* \"#utility.yul\":5212:5233   */\n      tag_270\n        /* \"#utility.yul\":5227:5232   */\n      dup2\n        /* \"#utility.yul\":5212:5233   */\n      tag_172\n      jump\t// in\n    tag_270:\n        /* \"#utility.yul\":5207:5210   */\n      dup3\n        /* \"#utility.yul\":5200:5234   */\n      mstore\n        /* \"#utility.yul\":5131:5240   */\n      pop\n      pop\n      jump\t// out\n        /* \"#utility.yul\":5246:5858   */\n    tag_29:\n        /* \"#utility.yul\":5427:5431   */\n      0x00\n        /* \"#utility.yul\":5465:5468   */\n      0x80\n        /* \"#utility.yul\":5454:5463   */\n      dup3\n        /* \"#utility.yul\":5450:5469   */\n      add\n        /* \"#utility.yul\":5442:5469   */\n      swap1\n      pop\n        /* \"#utility.yul\":5515:5524   */\n      dup2\n        /* \"#utility.yul\":5509:5513   */\n      dup2\n        /* \"#utility.yul\":5505:5525   */\n      sub\n        /* \"#utility.yul\":5501:5502   */\n      0x00\n        /* \"#utility.yul\":5490:5499   */\n      dup4\n        /* \"#utility.yul\":5486:5503   */\n      add\n        /* \"#utility.yul\":5479:5526   */\n      mstore\n        /* \"#utility.yul\":5543:5621   */\n      tag_272\n        /* \"#utility.yul\":5616:5620   */\n      dup2\n        /* \"#utility.yul\":5607:5613   */\n      dup8\n        /* \"#utility.yul\":5543:5621   */\n      tag_169\n      jump\t// in\n    tag_272:\n        /* \"#utility.yul\":5535:5621   */\n      swap1\n      pop\n        /* \"#utility.yul\":5631:5699   */\n      tag_273\n        /* \"#utility.yul\":5695:5697   */\n      0x20\n        /* \"#utility.yul\":5684:5693   */\n      dup4\n        /* \"#utility.yul\":5680:5698   */\n      add\n        /* \"#utility.yul\":5671:5677   */\n      dup7\n        /* \"#utility.yul\":5631:5699   */\n      tag_171\n      jump\t// in\n    tag_273:\n        /* \"#utility.yul\":5709:5775   */\n      tag_274\n        /* \"#utility.yul\":5771:5773   */\n      0x40\n        /* \"#utility.yul\":5760:5769   */\n      dup4\n        /* \"#utility.yul\":5756:5774   */\n      add\n        /* \"#utility.yul\":5747:5753   */\n      dup6\n        /* \"#utility.yul\":5709:5775   */\n      tag_173\n      jump\t// in\n    tag_274:\n        /* \"#utility.yul\":5785:5851   */\n      tag_275\n        /* \"#utility.yul\":5847:5849   */\n      0x60\n        /* \"#utility.yul\":5836:5845   */\n      dup4\n        /* \"#utility.yul\":5832:5850   */\n      add\n        /* \"#utility.yul\":5823:5829   */\n      dup5\n        /* \"#utility.yul\":5785:5851   */\n      tag_173\n      jump\t// in\n    tag_275:\n        /* \"#utility.yul\":5246:5858   */\n      swap6\n      swap5\n      pop\n      pop\n      pop\n      pop\n      pop\n      jump\t// out\n        /* \"#utility.yul\":5864:6678   */\n    tag_37:\n        /* \"#utility.yul\":6095:6099   */\n      0x00\n        /* \"#utility.yul\":6133:6136   */\n      0x80\n        /* \"#utility.yul\":6122:6131   */\n      dup3\n        /* \"#utility.yul\":6118:6137   */\n      add\n        /* \"#utility.yul\":6110:6137   */\n      swap1\n      pop\n        /* \"#utility.yul\":6183:6192   */\n      dup2\n        /* \"#utility.yul\":6177:6181   */\n      dup2\n        /* \"#utility.yul\":6173:6193   */\n      sub\n        /* \"#utility.yul\":6169:6170   */\n      0x00\n        /* \"#utility.yul\":6158:6167   */\n      dup4\n        /* \"#utility.yul\":6154:6171   */\n      add\n        /* \"#utility.yul\":6147:6194   */\n      mstore\n        /* \"#utility.yul\":6211:6289   */\n      tag_277\n        /* \"#utility.yul\":6284:6288   */\n      dup2\n        /* \"#utility.yul\":6275:6281   */\n      dup8\n        /* \"#utility.yul\":6211:6289   */\n      tag_169\n      jump\t// in\n    tag_277:\n        /* \"#utility.yul\":6203:6289   */\n      swap1\n      pop\n        /* \"#utility.yul\":6336:6345   */\n      dup2\n        /* \"#utility.yul\":6330:6334   */\n      dup2\n        /* \"#utility.yul\":6326:6346   */\n      sub\n        /* \"#utility.yul\":6321:6323   */\n      0x20\n        /* \"#utility.yul\":6310:6319   */\n      dup4\n        /* \"#utility.yul\":6306:6324   */\n      add\n        /* \"#utility.yul\":6299:6347   */\n      mstore\n        /* \"#utility.yul\":6364:6442   */\n      tag_278\n        /* \"#utility.yul\":6437:6441   */\n      dup2\n        /* \"#utility.yul\":6428:6434   */\n      dup7\n        /* \"#utility.yul\":6364:6442   */\n      tag_169\n      jump\t// in\n    tag_278:\n        /* \"#utility.yul\":6356:6442   */\n      swap1\n      pop\n        /* \"#utility.yul\":6489:6498   */\n      dup2\n        /* \"#utility.yul\":6483:6487   */\n      dup2\n        /* \"#utility.yul\":6479:6499   */\n      sub\n        /* \"#utility.yul\":6474:6476   */\n      0x40\n        /* \"#utility.yul\":6463:6472   */\n      dup4\n        /* \"#utility.yul\":6459:6477   */\n      add\n        /* \"#utility.yul\":6452:6500   */\n      mstore\n        /* \"#utility.yul\":6517:6595   */\n      tag_279\n        /* \"#utility.yul\":6590:6594   */\n      dup2\n        /* \"#utility.yul\":6581:6587   */\n      dup6\n        /* \"#utility.yul\":6517:6595   */\n      tag_169\n      jump\t// in\n    tag_279:\n        /* \"#utility.yul\":6509:6595   */\n      swap1\n      pop\n        /* \"#utility.yul\":6605:6671   */\n      tag_280\n        /* \"#utility.yul\":6667:6669   */\n      0x60\n        /* \"#utility.yul\":6656:6665   */\n      dup4\n        /* \"#utility.yul\":6652:6670   */\n      add\n        /* \"#utility.yul\":6643:6649   */\n      dup5\n        /* \"#utility.yul\":6605:6671   */\n      tag_173\n      jump\t// in\n    tag_280:\n        /* \"#utility.yul\":5864:6678   */\n      swap6\n      swap5\n      pop\n      pop\n      pop\n      pop\n      pop\n      jump\t// out\n        /* \"#utility.yul\":6684:7338   */\n    tag_40:\n        /* \"#utility.yul\":6762:6768   */\n      0x00\n        /* \"#utility.yul\":6770:6776   */\n      dup1\n        /* \"#utility.yul\":6819:6821   */\n      0x40\n        /* \"#utility.yul\":6807:6816   */\n      dup4\n        /* \"#utility.yul\":6798:6805   */\n      dup6\n        /* \"#utility.yul\":6794:6817   */\n      sub\n        /* \"#utility.yul\":6790:6822   */\n      slt\n        /* \"#utility.yul\":6787:6906   */\n      iszero\n      tag_282\n      jumpi\n        /* \"#utility.yul\":6825:6904   */\n      tag_283\n      tag_150\n      jump\t// in\n    tag_283:\n        /* \"#utility.yul\":6787:6906   */\n    tag_282:\n        /* \"#utility.yul\":6973:6974   */\n      0x00\n        /* \"#utility.yul\":6962:6971   */\n      dup4\n        /* \"#utility.yul\":6958:6975   */\n      add\n        /* \"#utility.yul\":6945:6976   */\n      calldataload\n        /* \"#utility.yul\":7003:7021   */\n      0xffffffffffffffff\n        /* \"#utility.yul\":6995:7001   */\n      dup2\n        /* \"#utility.yul\":6992:7022   */\n      gt\n        /* \"#utility.yul\":6989:7106   */\n      iszero\n      tag_284\n      jumpi\n        /* \"#utility.yul\":7025:7104   */\n      tag_285\n      tag_151\n      jump\t// in\n    tag_285:\n        /* \"#utility.yul\":6989:7106   */\n    tag_284:\n        /* \"#utility.yul\":7130:7193   */\n      tag_286\n        /* \"#utility.yul\":7185:7192   */\n      dup6\n        /* \"#utility.yul\":7176:7182   */\n      dup3\n        /* \"#utility.yul\":7165:7174   */\n      dup7\n        /* \"#utility.yul\":7161:7183   */\n      add\n        /* \"#utility.yul\":7130:7193   */\n      tag_165\n      jump\t// in\n    tag_286:\n        /* \"#utility.yul\":7120:7193   */\n      swap3\n      pop\n        /* \"#utility.yul\":6916:7203   */\n      pop\n        /* \"#utility.yul\":7242:7244   */\n      0x20\n        /* \"#utility.yul\":7268:7321   */\n      tag_287\n        /* \"#utility.yul\":7313:7320   */\n      dup6\n        /* \"#utility.yul\":7304:7310   */\n      dup3\n        /* \"#utility.yul\":7293:7302   */\n      dup7\n        /* \"#utility.yul\":7289:7311   */\n      add\n        /* \"#utility.yul\":7268:7321   */\n      tag_155\n      jump\t// in\n    tag_287:\n        /* \"#utility.yul\":7258:7321   */\n      swap2\n      pop\n        /* \"#utility.yul\":7213:7331   */\n      pop\n        /* \"#utility.yul\":6684:7338   */\n      swap3\n      pop\n      swap3\n      swap1\n      pop\n      jump\t// out\n        /* \"#utility.yul\":7344:7554   */\n    tag_46:\n        /* \"#utility.yul\":7431:7435   */\n      0x00\n        /* \"#utility.yul\":7469:7471   */\n      0x20\n        /* \"#utility.yul\":7458:7467   */\n      dup3\n        /* \"#utility.yul\":7454:7472   */\n      add\n        /* \"#utility.yul\":7446:7472   */\n      swap1\n      pop\n        /* \"#utility.yul\":7482:7547   */\n      tag_289\n        /* \"#utility.yul\":7544:7545   */\n      0x00\n        /* \"#utility.yul\":7533:7542   */\n      dup4\n        /* \"#utility.yul\":7529:7546   */\n      add\n        /* \"#utility.yul\":7520:7526   */\n      dup5\n        /* \"#utility.yul\":7482:7547   */\n      tag_173\n      jump\t// in\n    tag_289:\n        /* \"#utility.yul\":7344:7554   */\n      swap3\n      swap2\n      pop\n      pop\n      jump\t// out\n        /* \"#utility.yul\":7560:8394   */\n    tag_49:\n        /* \"#utility.yul\":7648:7654   */\n      0x00\n        /* \"#utility.yul\":7656:7662   */\n      dup1\n        /* \"#utility.yul\":7705:7707   */\n      0x40\n        /* \"#utility.yul\":7693:7702   */\n      dup4\n        /* \"#utility.yul\":7684:7691   */\n      dup6\n        /* \"#utility.yul\":7680:7703   */\n      sub\n        /* \"#utility.yul\":7676:7708   */\n      slt\n        /* \"#utility.yul\":7673:7792   */\n      iszero\n      tag_291\n      jumpi\n        /* \"#utility.yul\":7711:7790   */\n      tag_292\n      tag_150\n      jump\t// in\n    tag_292:\n        /* \"#utility.yul\":7673:7792   */\n    tag_291:\n        /* \"#utility.yul\":7859:7860   */\n      0x00\n        /* \"#utility.yul\":7848:7857   */\n      dup4\n        /* \"#utility.yul\":7844:7861   */\n      add\n        /* \"#utility.yul\":7831:7862   */\n      calldataload\n        /* \"#utility.yul\":7889:7907   */\n      0xffffffffffffffff\n        /* \"#utility.yul\":7881:7887   */\n      dup2\n        /* \"#utility.yul\":7878:7908   */\n      gt\n        /* \"#utility.yul\":7875:7992   */\n      iszero\n      tag_293\n      jumpi\n        /* \"#utility.yul\":7911:7990   */\n      tag_294\n      tag_151\n      jump\t// in\n    tag_294:\n        /* \"#utility.yul\":7875:7992   */\n    tag_293:\n        /* \"#utility.yul\":8016:8079   */\n      tag_295\n        /* \"#utility.yul\":8071:8078   */\n      dup6\n        /* \"#utility.yul\":8062:8068   */\n      dup3\n        /* \"#utility.yul\":8051:8060   */\n      dup7\n        /* \"#utility.yul\":8047:8069   */\n      add\n        /* \"#utility.yul\":8016:8079   */\n      tag_165\n      jump\t// in\n    tag_295:\n        /* \"#utility.yul\":8006:8079   */\n      swap3\n      pop\n        /* \"#utility.yul\":7802:8089   */\n      pop\n        /* \"#utility.yul\":8156:8158   */\n      0x20\n        /* \"#utility.yul\":8145:8154   */\n      dup4\n        /* \"#utility.yul\":8141:8159   */\n      add\n        /* \"#utility.yul\":8128:8160   */\n      calldataload\n        /* \"#utility.yul\":8187:8205   */\n      0xffffffffffffffff\n        /* \"#utility.yul\":8179:8185   */\n      dup2\n        /* \"#utility.yul\":8176:8206   */\n      gt\n        /* \"#utility.yul\":8173:8290   */\n      iszero\n      tag_296\n      jumpi\n        /* \"#utility.yul\":8209:8288   */\n      tag_297\n      tag_151\n      jump\t// in\n    tag_297:\n        /* \"#utility.yul\":8173:8290   */\n    tag_296:\n        /* \"#utility.yul\":8314:8377   */\n      tag_298\n        /* \"#utility.yul\":8369:8376   */\n      dup6\n        /* \"#utility.yul\":8360:8366   */\n      dup3\n        /* \"#utility.yul\":8349:8358   */\n      dup7\n        /* \"#utility.yul\":8345:8367   */\n      add\n        /* \"#utility.yul\":8314:8377   */\n      tag_165\n      jump\t// in\n    tag_298:\n        /* \"#utility.yul\":8304:8377   */\n      swap2\n      pop\n        /* \"#utility.yul\":8099:8387   */\n      pop\n        /* \"#utility.yul\":7560:8394   */\n      swap3\n      pop\n      swap3\n      swap1\n      pop\n      jump\t// out\n        /* \"#utility.yul\":8400:8631   */\n    tag_174:\n        /* \"#utility.yul\":8540:8574   */\n      0x596f7520617265206e6f7420616e2061646d696e20746f20706572666f726d20\n        /* \"#utility.yul\":8536:8537   */\n      0x00\n        /* \"#utility.yul\":8528:8534   */\n      dup3\n        /* \"#utility.yul\":8524:8538   */\n      add\n        /* \"#utility.yul\":8517:8575   */\n      mstore\n        /* \"#utility.yul\":8609:8623   */\n      0x7468697320616374696f6e2e0000000000000000000000000000000000000000\n        /* \"#utility.yul\":8604:8606   */\n      0x20\n        /* \"#utility.yul\":8596:8602   */\n      dup3\n        /* \"#utility.yul\":8592:8607   */\n      add\n        /* \"#utility.yul\":8585:8624   */\n      mstore\n        /* \"#utility.yul\":8400:8631   */\n      pop\n      jump\t// out\n        /* \"#utility.yul\":8637:9003   */\n    tag_175:\n        /* \"#utility.yul\":8779:8782   */\n      0x00\n        /* \"#utility.yul\":8800:8867   */\n      tag_301\n        /* \"#utility.yul\":8864:8866   */\n      0x2c\n        /* \"#utility.yul\":8859:8862   */\n      dup4\n        /* \"#utility.yul\":8800:8867   */\n      tag_167\n      jump\t// in\n    tag_301:\n        /* \"#utility.yul\":8793:8867   */\n      swap2\n      pop\n        /* \"#utility.yul\":8876:8969   */\n      tag_302\n        /* \"#utility.yul\":8965:8968   */\n      dup3\n        /* \"#utility.yul\":8876:8969   */\n      tag_174\n      jump\t// in\n    tag_302:\n        /* \"#utility.yul\":8994:8996   */\n      0x40\n        /* \"#utility.yul\":8989:8992   */\n      dup3\n        /* \"#utility.yul\":8985:8997   */\n      add\n        /* \"#utility.yul\":8978:8997   */\n      swap1\n      pop\n        /* \"#utility.yul\":8637:9003   */\n      swap2\n      swap1\n      pop\n      jump\t// out\n        /* \"#utility.yul\":9009:9428   */\n    tag_57:\n        /* \"#utility.yul\":9175:9179   */\n      0x00\n        /* \"#utility.yul\":9213:9215   */\n      0x20\n        /* \"#utility.yul\":9202:9211   */\n      dup3\n        /* \"#utility.yul\":9198:9216   */\n      add\n        /* \"#utility.yul\":9190:9216   */\n      swap1\n      pop\n        /* \"#utility.yul\":9262:9271   */\n      dup2\n        /* \"#utility.yul\":9256:9260   */\n      dup2\n        /* \"#utility.yul\":9252:9272   */\n      sub\n        /* \"#utility.yul\":9248:9249   */\n      0x00\n        /* \"#utility.yul\":9237:9246   */\n      dup4\n        /* \"#utility.yul\":9233:9250   */\n      add\n        /* \"#utility.yul\":9226:9273   */\n      mstore\n        /* \"#utility.yul\":9290:9421   */\n      tag_304\n        /* \"#utility.yul\":9416:9420   */\n      dup2\n        /* \"#utility.yul\":9290:9421   */\n      tag_175\n      jump\t// in\n    tag_304:\n        /* \"#utility.yul\":9282:9421   */\n      swap1\n      pop\n        /* \"#utility.yul\":9009:9428   */\n      swap2\n      swap1\n      pop\n      jump\t// out\n        /* \"#utility.yul\":9434:9616   */\n    tag_176:\n        /* \"#utility.yul\":9574:9608   */\n      0x41646d696e2063616e277420706572666f726d207468697320616374696f6e2e\n        /* \"#utility.yul\":9570:9571   */\n      0x00\n        /* \"#utility.yul\":9562:9568   */\n      dup3\n        /* \"#utility.yul\":9558:9572   */\n      add\n        /* \"#utility.yul\":9551:9609   */\n      mstore\n        /* \"#utility.yul\":9434:9616   */\n      pop\n      jump\t// out\n        /* \"#utility.yul\":9622:9988   */\n    tag_177:\n        /* \"#utility.yul\":9764:9767   */\n      0x00\n        /* \"#utility.yul\":9785:9852   */\n      tag_307\n        /* \"#utility.yul\":9849:9851   */\n      0x20\n        /* \"#utility.yul\":9844:9847   */\n      dup4\n        /* \"#utility.yul\":9785:9852   */\n      tag_167\n      jump\t// in\n    tag_307:\n        /* \"#utility.yul\":9778:9852   */\n      swap2\n      pop\n        /* \"#utility.yul\":9861:9954   */\n      tag_308\n        /* \"#utility.yul\":9950:9953   */\n      dup3\n        /* \"#utility.yul\":9861:9954   */\n      tag_176\n      jump\t// in\n    tag_308:\n        /* \"#utility.yul\":9979:9981   */\n      0x20\n        /* \"#utility.yul\":9974:9977   */\n      dup3\n        /* \"#utility.yul\":9970:9982   */\n      add\n        /* \"#utility.yul\":9963:9982   */\n      swap1\n      pop\n        /* \"#utility.yul\":9622:9988   */\n      swap2\n      swap1\n      pop\n      jump\t// out\n        /* \"#utility.yul\":9994:10413   */\n    tag_62:\n        /* \"#utility.yul\":10160:10164   */\n      0x00\n        /* \"#utility.yul\":10198:10200   */\n      0x20\n        /* \"#utility.yul\":10187:10196   */\n      dup3\n        /* \"#utility.yul\":10183:10201   */\n      add\n        /* \"#utility.yul\":10175:10201   */\n      swap1\n      pop\n        /* \"#utility.yul\":10247:10256   */\n      dup2\n        /* \"#utility.yul\":10241:10245   */\n      dup2\n        /* \"#utility.yul\":10237:10257   */\n      sub\n        /* \"#utility.yul\":10233:10234   */\n      0x00\n        /* \"#utility.yul\":10222:10231   */\n      dup4\n        /* \"#utility.yul\":10218:10235   */\n      add\n        /* \"#utility.yul\":10211:10258   */\n      mstore\n        /* \"#utility.yul\":10275:10406   */\n      tag_310\n        /* \"#utility.yul\":10401:10405   */\n      dup2\n        /* \"#utility.yul\":10275:10406   */\n      tag_177\n      jump\t// in\n    tag_310:\n        /* \"#utility.yul\":10267:10406   */\n      swap1\n      pop\n        /* \"#utility.yul\":9994:10413   */\n      swap2\n      swap1\n      pop\n      jump\t// out\n        /* \"#utility.yul\":10419:10567   */\n    tag_178:\n        /* \"#utility.yul\":10521:10532   */\n      0x00\n        /* \"#utility.yul\":10558:10561   */\n      dup2\n        /* \"#utility.yul\":10543:10561   */\n      swap1\n      pop\n        /* \"#utility.yul\":10419:10567   */\n      swap3\n      swap2\n      pop\n      pop\n      jump\t// out\n        /* \"#utility.yul\":10573:10963   */\n    tag_179:\n        /* \"#utility.yul\":10679:10682   */\n      0x00\n        /* \"#utility.yul\":10707:10746   */\n      tag_313\n        /* \"#utility.yul\":10740:10745   */\n      dup3\n        /* \"#utility.yul\":10707:10746   */\n      tag_166\n      jump\t// in\n    tag_313:\n        /* \"#utility.yul\":10762:10851   */\n      tag_314\n        /* \"#utility.yul\":10844:10850   */\n      dup2\n        /* \"#utility.yul\":10839:10842   */\n      dup6\n        /* \"#utility.yul\":10762:10851   */\n      tag_178\n      jump\t// in\n    tag_314:\n        /* \"#utility.yul\":10755:10851   */\n      swap4\n      pop\n        /* \"#utility.yul\":10860:10925   */\n      tag_315\n        /* \"#utility.yul\":10918:10924   */\n      dup2\n        /* \"#utility.yul\":10913:10916   */\n      dup6\n        /* \"#utility.yul\":10906:10910   */\n      0x20\n        /* \"#utility.yul\":10899:10904   */\n      dup7\n        /* \"#utility.yul\":10895:10911   */\n      add\n        /* \"#utility.yul\":10860:10925   */\n      tag_168\n      jump\t// in\n    tag_315:\n        /* \"#utility.yul\":10950:10956   */\n      dup1\n        /* \"#utility.yul\":10945:10948   */\n      dup5\n        /* \"#utility.yul\":10941:10957   */\n      add\n        /* \"#utility.yul\":10934:10957   */\n      swap2\n      pop\n        /* \"#utility.yul\":10683:10963   */\n      pop\n        /* \"#utility.yul\":10573:10963   */\n      swap3\n      swap2\n      pop\n      pop\n      jump\t// out\n        /* \"#utility.yul\":10969:11244   */\n    tag_65:\n        /* \"#utility.yul\":11101:11104   */\n      0x00\n        /* \"#utility.yul\":11123:11218   */\n      tag_317\n        /* \"#utility.yul\":11214:11217   */\n      dup3\n        /* \"#utility.yul\":11205:11211   */\n      dup5\n        /* \"#utility.yul\":11123:11218   */\n      tag_179\n      jump\t// in\n    tag_317:\n        /* \"#utility.yul\":11116:11218   */\n      swap2\n      pop\n        /* \"#utility.yul\":11235:11238   */\n      dup2\n        /* \"#utility.yul\":11228:11238   */\n      swap1\n      pop\n        /* \"#utility.yul\":10969:11244   */\n      swap3\n      swap2\n      pop\n      pop\n      jump\t// out\n        /* \"#utility.yul\":11250:11473   */\n    tag_180:\n        /* \"#utility.yul\":11390:11424   */\n      0x437573746f6d657220646f65736e27742062656c6f6e6720746f207468697320\n        /* \"#utility.yul\":11386:11387   */\n      0x00\n        /* \"#utility.yul\":11378:11384   */\n      dup3\n        /* \"#utility.yul\":11374:11388   */\n      add\n        /* \"#utility.yul\":11367:11425   */\n      mstore\n        /* \"#utility.yul\":11459:11465   */\n      0x62616e6b00000000000000000000000000000000000000000000000000000000\n        /* \"#utility.yul\":11454:11456   */\n      0x20\n        /* \"#utility.yul\":11446:11452   */\n      dup3\n        /* \"#utility.yul\":11442:11457   */\n      add\n        /* \"#utility.yul\":11435:11466   */\n      mstore\n        /* \"#utility.yul\":11250:11473   */\n      pop\n      jump\t// out\n        /* \"#utility.yul\":11479:11845   */\n    tag_181:\n        /* \"#utility.yul\":11621:11624   */\n      0x00\n        /* \"#utility.yul\":11642:11709   */\n      tag_320\n        /* \"#utility.yul\":11706:11708   */\n      0x24\n        /* \"#utility.yul\":11701:11704   */\n      dup4\n        /* \"#utility.yul\":11642:11709   */\n      tag_167\n      jump\t// in\n    tag_320:\n        /* \"#utility.yul\":11635:11709   */\n      swap2\n      pop\n        /* \"#utility.yul\":11718:11811   */\n      tag_321\n        /* \"#utility.yul\":11807:11810   */\n      dup3\n        /* \"#utility.yul\":11718:11811   */\n      tag_180\n      jump\t// in\n    tag_321:\n        /* \"#utility.yul\":11836:11838   */\n      0x40\n        /* \"#utility.yul\":11831:11834   */\n      dup3\n        /* \"#utility.yul\":11827:11839   */\n      add\n        /* \"#utility.yul\":11820:11839   */\n      swap1\n      pop\n        /* \"#utility.yul\":11479:11845   */\n      swap2\n      swap1\n      pop\n      jump\t// out\n        /* \"#utility.yul\":11851:12270   */\n    tag_68:\n        /* \"#utility.yul\":12017:12021   */\n      0x00\n        /* \"#utility.yul\":12055:12057   */\n      0x20\n        /* \"#utility.yul\":12044:12053   */\n      dup3\n        /* \"#utility.yul\":12040:12058   */\n      add\n        /* \"#utility.yul\":12032:12058   */\n      swap1\n      pop\n        /* \"#utility.yul\":12104:12113   */\n      dup2\n        /* \"#utility.yul\":12098:12102   */\n      dup2\n        /* \"#utility.yul\":12094:12114   */\n      sub\n        /* \"#utility.yul\":12090:12091   */\n      0x00\n        /* \"#utility.yul\":12079:12088   */\n      dup4\n        /* \"#utility.yul\":12075:12092   */\n      add\n        /* \"#utility.yul\":12068:12115   */\n      mstore\n        /* \"#utility.yul\":12132:12263   */\n      tag_323\n        /* \"#utility.yul\":12258:12262   */\n      dup2\n        /* \"#utility.yul\":12132:12263   */\n      tag_181\n      jump\t// in\n    tag_323:\n        /* \"#utility.yul\":12124:12263   */\n      swap1\n      pop\n        /* \"#utility.yul\":11851:12270   */\n      swap2\n      swap1\n      pop\n      jump\t// out\n        /* \"#utility.yul\":12276:12498   */\n    tag_182:\n        /* \"#utility.yul\":12416:12450   */\n      0x42616e6b206973206e6f7420616c6c6f77656420746f20706572666f726d204b\n        /* \"#utility.yul\":12412:12413   */\n      0x00\n        /* \"#utility.yul\":12404:12410   */\n      dup3\n        /* \"#utility.yul\":12400:12414   */\n      add\n        /* \"#utility.yul\":12393:12451   */\n      mstore\n        /* \"#utility.yul\":12485:12490   */\n      0x79632e0000000000000000000000000000000000000000000000000000000000\n        /* \"#utility.yul\":12480:12482   */\n      0x20\n        /* \"#utility.yul\":12472:12478   */\n      dup3\n        /* \"#utility.yul\":12468:12483   */\n      add\n        /* \"#utility.yul\":12461:12491   */\n      mstore\n        /* \"#utility.yul\":12276:12498   */\n      pop\n      jump\t// out\n        /* \"#utility.yul\":12504:12870   */\n    tag_183:\n        /* \"#utility.yul\":12646:12649   */\n      0x00\n        /* \"#utility.yul\":12667:12734   */\n      tag_326\n        /* \"#utility.yul\":12731:12733   */\n      0x23\n        /* \"#utility.yul\":12726:12729   */\n      dup4\n        /* \"#utility.yul\":12667:12734   */\n      tag_167\n      jump\t// in\n    tag_326:\n        /* \"#utility.yul\":12660:12734   */\n      swap2\n      pop\n        /* \"#utility.yul\":12743:12836   */\n      tag_327\n        /* \"#utility.yul\":12832:12835   */\n      dup3\n        /* \"#utility.yul\":12743:12836   */\n      tag_182\n      jump\t// in\n    tag_327:\n        /* \"#utility.yul\":12861:12863   */\n      0x40\n        /* \"#utility.yul\":12856:12859   */\n      dup3\n        /* \"#utility.yul\":12852:12864   */\n      add\n        /* \"#utility.yul\":12845:12864   */\n      swap1\n      pop\n        /* \"#utility.yul\":12504:12870   */\n      swap2\n      swap1\n      pop\n      jump\t// out\n        /* \"#utility.yul\":12876:13295   */\n    tag_72:\n        /* \"#utility.yul\":13042:13046   */\n      0x00\n        /* \"#utility.yul\":13080:13082   */\n      0x20\n        /* \"#utility.yul\":13069:13078   */\n      dup3\n        /* \"#utility.yul\":13065:13083   */\n      add\n        /* \"#utility.yul\":13057:13083   */\n      swap1\n      pop\n        /* \"#utility.yul\":13129:13138   */\n      dup2\n        /* \"#utility.yul\":13123:13127   */\n      dup2\n        /* \"#utility.yul\":13119:13139   */\n      sub\n        /* \"#utility.yul\":13115:13116   */\n      0x00\n        /* \"#utility.yul\":13104:13113   */\n      dup4\n        /* \"#utility.yul\":13100:13117   */\n      add\n        /* \"#utility.yul\":13093:13140   */\n      mstore\n        /* \"#utility.yul\":13157:13288   */\n      tag_329\n        /* \"#utility.yul\":13283:13287   */\n      dup2\n        /* \"#utility.yul\":13157:13288   */\n      tag_183\n      jump\t// in\n    tag_329:\n        /* \"#utility.yul\":13149:13288   */\n      swap1\n      pop\n        /* \"#utility.yul\":12876:13295   */\n      swap2\n      swap1\n      pop\n      jump\t// out\n        /* \"#utility.yul\":13301:13481   */\n    tag_184:\n        /* \"#utility.yul\":13349:13426   */\n      0x4e487b7100000000000000000000000000000000000000000000000000000000\n        /* \"#utility.yul\":13346:13347   */\n      0x00\n        /* \"#utility.yul\":13339:13427   */\n      mstore\n        /* \"#utility.yul\":13446:13450   */\n      0x11\n        /* \"#utility.yul\":13443:13444   */\n      0x04\n        /* \"#utility.yul\":13436:13451   */\n      mstore\n        /* \"#utility.yul\":13470:13474   */\n      0x24\n        /* \"#utility.yul\":13467:13468   */\n      0x00\n        /* \"#utility.yul\":13460:13475   */\n      revert\n        /* \"#utility.yul\":13487:13675   */\n    tag_76:\n        /* \"#utility.yul\":13525:13528   */\n      0x00\n        /* \"#utility.yul\":13544:13562   */\n      tag_332\n        /* \"#utility.yul\":13560:13561   */\n      dup3\n        /* \"#utility.yul\":13544:13562   */\n      tag_170\n      jump\t// in\n    tag_332:\n        /* \"#utility.yul\":13539:13562   */\n      swap2\n      pop\n        /* \"#utility.yul\":13576:13594   */\n      tag_333\n        /* \"#utility.yul\":13592:13593   */\n      dup4\n        /* \"#utility.yul\":13576:13594   */\n      tag_170\n      jump\t// in\n    tag_333:\n        /* \"#utility.yul\":13571:13594   */\n      swap3\n      pop\n        /* \"#utility.yul\":13617:13618   */\n      dup3\n        /* \"#utility.yul\":13614:13615   */\n      dup3\n        /* \"#utility.yul\":13610:13619   */\n      add\n        /* \"#utility.yul\":13603:13619   */\n      swap1\n      pop\n        /* \"#utility.yul\":13640:13644   */\n      0xff\n        /* \"#utility.yul\":13635:13638   */\n      dup2\n        /* \"#utility.yul\":13632:13645   */\n      gt\n        /* \"#utility.yul\":13629:13668   */\n      iszero\n      tag_334\n      jumpi\n        /* \"#utility.yul\":13648:13666   */\n      tag_335\n      tag_184\n      jump\t// in\n    tag_335:\n        /* \"#utility.yul\":13629:13668   */\n    tag_334:\n        /* \"#utility.yul\":13487:13675   */\n      swap3\n      swap2\n      pop\n      pop\n      jump\t// out\n        /* \"#utility.yul\":13681:13861   */\n    tag_185:\n        /* \"#utility.yul\":13729:13806   */\n      0x4e487b7100000000000000000000000000000000000000000000000000000000\n        /* \"#utility.yul\":13726:13727   */\n      0x00\n        /* \"#utility.yul\":13719:13807   */\n      mstore\n        /* \"#utility.yul\":13826:13830   */\n      0x22\n        /* \"#utility.yul\":13823:13824   */\n      0x04\n        /* \"#utility.yul\":13816:13831   */\n      mstore\n        /* \"#utility.yul\":13850:13854   */\n      0x24\n        /* \"#utility.yul\":13847:13848   */\n      0x00\n        /* \"#utility.yul\":13840:13855   */\n      revert\n        /* \"#utility.yul\":13867:14187   */\n    tag_86:\n        /* \"#utility.yul\":13911:13917   */\n      0x00\n        /* \"#utility.yul\":13948:13949   */\n      0x02\n        /* \"#utility.yul\":13942:13946   */\n      dup3\n        /* \"#utility.yul\":13938:13950   */\n      div\n        /* \"#utility.yul\":13928:13950   */\n      swap1\n      pop\n        /* \"#utility.yul\":13995:13996   */\n      0x01\n        /* \"#utility.yul\":13989:13993   */\n      dup3\n        /* \"#utility.yul\":13985:13997   */\n      and\n        /* \"#utility.yul\":14016:14034   */\n      dup1\n        /* \"#utility.yul\":14006:14087   */\n      tag_338\n      jumpi\n        /* \"#utility.yul\":14072:14076   */\n      0x7f\n        /* \"#utility.yul\":14064:14070   */\n      dup3\n        /* \"#utility.yul\":14060:14077   */\n      and\n        /* \"#utility.yul\":14050:14077   */\n      swap2\n      pop\n        /* \"#utility.yul\":14006:14087   */\n    tag_338:\n        /* \"#utility.yul\":14134:14136   */\n      0x20\n        /* \"#utility.yul\":14126:14132   */\n      dup3\n        /* \"#utility.yul\":14123:14137   */\n      lt\n        /* \"#utility.yul\":14103:14121   */\n      dup2\n        /* \"#utility.yul\":14100:14138   */\n      sub\n        /* \"#utility.yul\":14097:14181   */\n      tag_339\n      jumpi\n        /* \"#utility.yul\":14153:14171   */\n      tag_340\n      tag_185\n      jump\t// in\n    tag_340:\n        /* \"#utility.yul\":14097:14181   */\n    tag_339:\n        /* \"#utility.yul\":13918:14187   */\n      pop\n        /* \"#utility.yul\":13867:14187   */\n      swap2\n      swap1\n      pop\n      jump\t// out\n        /* \"#utility.yul\":14193:14334   */\n    tag_186:\n        /* \"#utility.yul\":14242:14246   */\n      0x00\n        /* \"#utility.yul\":14265:14268   */\n      dup2\n        /* \"#utility.yul\":14257:14268   */\n      swap1\n      pop\n        /* \"#utility.yul\":14288:14291   */\n      dup2\n        /* \"#utility.yul\":14285:14286   */\n      0x00\n        /* \"#utility.yul\":14278:14292   */\n      mstore\n        /* \"#utility.yul\":14322:14326   */\n      0x20\n        /* \"#utility.yul\":14319:14320   */\n      0x00\n        /* \"#utility.yul\":14309:14327   */\n      keccak256\n        /* \"#utility.yul\":14301:14327   */\n      swap1\n      pop\n        /* \"#utility.yul\":14193:14334   */\n      swap2\n      swap1\n      pop\n      jump\t// out\n        /* \"#utility.yul\":14340:14433   */\n    tag_187:\n        /* \"#utility.yul\":14377:14383   */\n      0x00\n        /* \"#utility.yul\":14424:14426   */\n      0x20\n        /* \"#utility.yul\":14419:14421   */\n      0x1f\n        /* \"#utility.yul\":14412:14417   */\n      dup4\n        /* \"#utility.yul\":14408:14422   */\n      add\n        /* \"#utility.yul\":14404:14427   */\n      div\n        /* \"#utility.yul\":14394:14427   */\n      swap1\n      pop\n        /* \"#utility.yul\":14340:14433   */\n      swap2\n      swap1\n      pop\n      jump\t// out\n        /* \"#utility.yul\":14439:14546   */\n    tag_188:\n        /* \"#utility.yul\":14483:14491   */\n      0x00\n        /* \"#utility.yul\":14533:14538   */\n      dup3\n        /* \"#utility.yul\":14527:14531   */\n      dup3\n        /* \"#utility.yul\":14523:14539   */\n      shl\n        /* \"#utility.yul\":14502:14539   */\n      swap1\n      pop\n        /* \"#utility.yul\":14439:14546   */\n      swap3\n      swap2\n      pop\n      pop\n      jump\t// out\n        /* \"#utility.yul\":14552:14945   */\n    tag_189:\n        /* \"#utility.yul\":14621:14627   */\n      0x00\n        /* \"#utility.yul\":14671:14672   */\n      0x08\n        /* \"#utility.yul\":14659:14669   */\n      dup4\n        /* \"#utility.yul\":14655:14673   */\n      mul\n        /* \"#utility.yul\":14694:14791   */\n      tag_345\n        /* \"#utility.yul\":14724:14790   */\n      0xffffffffffffffffffffffffffffffffffffffffffffffffffffffffffffffff\n        /* \"#utility.yul\":14713:14722   */\n      dup3\n        /* \"#utility.yul\":14694:14791   */\n      tag_188\n      jump\t// in\n    tag_345:\n        /* \"#utility.yul\":14812:14851   */\n      tag_346\n        /* \"#utility.yul\":14842:14850   */\n      dup7\n        /* \"#utility.yul\":14831:14840   */\n      dup4\n        /* \"#utility.yul\":14812:14851   */\n      tag_188\n      jump\t// in\n    tag_346:\n        /* \"#utility.yul\":14800:14851   */\n      swap6\n      pop\n        /* \"#utility.yul\":14884:14888   */\n      dup1\n        /* \"#utility.yul\":14880:14889   */\n      not\n        /* \"#utility.yul\":14873:14878   */\n      dup5\n        /* \"#utility.yul\":14869:14890   */\n      and\n        /* \"#utility.yul\":14860:14890   */\n      swap4\n      pop\n        /* \"#utility.yul\":14933:14937   */\n      dup1\n        /* \"#utility.yul\":14923:14931   */\n      dup7\n        /* \"#utility.yul\":14919:14938   */\n      and\n        /* \"#utility.yul\":14912:14917   */\n      dup5\n        /* \"#utility.yul\":14909:14939   */\n      or\n        /* \"#utility.yul\":14899:14939   */\n      swap3\n      pop\n        /* \"#utility.yul\":14628:14945   */\n      pop\n      pop\n        /* \"#utility.yul\":14552:14945   */\n      swap4\n      swap3\n      pop\n      pop\n      pop\n      jump\t// out\n        /* \"#utility.yul\":14951:15028   */\n    tag_190:\n        /* \"#utility.yul\":14988:14995   */\n      0x00\n        /* \"#utility.yul\":15017:15022   */\n      dup2\n        /* \"#utility.yul\":15006:15022   */\n      swap1\n      pop\n        /* \"#utility.yul\":14951:15028   */\n      swap2\n      swap1\n      pop\n      jump\t// out\n        /* \"#utility.yul\":15034:15094   */\n    tag_191:\n        /* \"#utility.yul\":15062:15065   */\n      0x00\n        /* \"#utility.yul\":15083:15088   */\n      dup2\n        /* \"#utility.yul\":15076:15088   */\n      swap1\n      pop\n        /* \"#utility.yul\":15034:15094   */\n      swap2\n      swap1\n      pop\n      jump\t// out\n        /* \"#utility.yul\":15100:15242   */\n    tag_192:\n        /* \"#utility.yul\":15150:15159   */\n      0x00\n        /* \"#utility.yul\":15183:15236   */\n      tag_350\n        /* \"#utility.yul\":15201:15235   */\n      tag_351\n        /* \"#utility.yul\":15210:15234   */\n      tag_352\n        /* \"#utility.yul\":15228:15233   */\n      dup5\n        /* \"#utility.yul\":15210:15234   */\n      tag_190\n      jump\t// in\n    tag_352:\n        /* \"#utility.yul\":15201:15235   */\n      tag_191\n      jump\t// in\n    tag_351:\n        /* \"#utility.yul\":15183:15236   */\n      tag_190\n      jump\t// in\n    tag_350:\n        /* \"#utility.yul\":15170:15236   */\n      swap1\n      pop\n        /* \"#utility.yul\":15100:15242   */\n      swap2\n      swap1\n      pop\n      jump\t// out\n        /* \"#utility.yul\":15248:15323   */\n    tag_193:\n        /* \"#utility.yul\":15291:15294   */\n      0x00\n        /* \"#utility.yul\":15312:15317   */\n      dup2\n        /* \"#utility.yul\":15305:15317   */\n      swap1\n      pop\n        /* \"#utility.yul\":15248:15323   */\n      swap2\n      swap1\n      pop\n      jump\t// out\n        /* \"#utility.yul\":15329:15598   */\n    tag_194:\n        /* \"#utility.yul\":15439:15478   */\n      tag_355\n        /* \"#utility.yul\":15470:15477   */\n      dup4\n        /* \"#utility.yul\":15439:15478   */\n      tag_192\n      jump\t// in\n    tag_355:\n        /* \"#utility.yul\":15500:15591   */\n      tag_356\n        /* \"#utility.yul\":15549:15590   */\n      tag_357\n        /* \"#utility.yul\":15573:15589   */\n      dup3\n        /* \"#utility.yul\":15549:15590   */\n      tag_193\n      jump\t// in\n    tag_357:\n        /* \"#utility.yul\":15541:15547   */\n      dup5\n        /* \"#utility.yul\":15534:15538   */\n      dup5\n        /* \"#utility.yul\":15528:15539   */\n      sload\n        /* \"#utility.yul\":15500:15591   */\n      tag_189\n      jump\t// in\n    tag_356:\n        /* \"#utility.yul\":15494:15498   */\n      dup3\n        /* \"#utility.yul\":15487:15592   */\n      sstore\n        /* \"#utility.yul\":15405:15598   */\n      pop\n        /* \"#utility.yul\":15329:15598   */\n      pop\n      pop\n      pop\n      jump\t// out\n        /* \"#utility.yul\":15604:15677   */\n    tag_195:\n        /* \"#utility.yul\":15649:15652   */\n      0x00\n        /* \"#utility.yul\":15604:15677   */\n      swap1\n      jump\t// out\n        /* \"#utility.yul\":15683:15872   */\n    tag_196:\n        /* \"#utility.yul\":15760:15792   */\n      tag_360\n      tag_195\n      jump\t// in\n    tag_360:\n        /* \"#utility.yul\":15801:15866   */\n      tag_361\n        /* \"#utility.yul\":15859:15865   */\n      dup2\n        /* \"#utility.yul\":15851:15857   */\n      dup5\n        /* \"#utility.yul\":15845:15849   */\n      dup5\n        /* \"#utility.yul\":15801:15866   */\n      tag_194\n      jump\t// in\n    tag_361:\n        /* \"#utility.yul\":15736:15872   */\n      pop\n        /* \"#utility.yul\":15683:15872   */\n      pop\n      pop\n      jump\t// out\n        /* \"#utility.yul\":15878:16064   */\n    tag_197:\n        /* \"#utility.yul\":15938:16058   */\n    tag_363:\n        /* \"#utility.yul\":15955:15958   */\n      dup2\n        /* \"#utility.yul\":15948:15953   */\n      dup2\n        /* \"#utility.yul\":15945:15959   */\n      lt\n        /* \"#utility.yul\":15938:16058   */\n      iszero\n      tag_365\n      jumpi\n        /* \"#utility.yul\":16009:16048   */\n      tag_366\n        /* \"#utility.yul\":16046:16047   */\n      0x00\n        /* \"#utility.yul\":16039:16044   */\n      dup3\n        /* \"#utility.yul\":16009:16048   */\n      tag_196\n      jump\t// in\n    tag_366:\n        /* \"#utility.yul\":15982:15983   */\n      0x01\n        /* \"#utility.yul\":15975:15980   */\n      dup2\n        /* \"#utility.yul\":15971:15984   */\n      add\n        /* \"#utility.yul\":15962:15984   */\n      swap1\n      pop\n        /* \"#utility.yul\":15938:16058   */\n      jump(tag_363)\n    tag_365:\n        /* \"#utility.yul\":15878:16064   */\n      pop\n      pop\n      jump\t// out\n        /* \"#utility.yul\":16070:16613   */\n    tag_198:\n        /* \"#utility.yul\":16171:16173   */\n      0x1f\n        /* \"#utility.yul\":16166:16169   */\n      dup3\n        /* \"#utility.yul\":16163:16174   */\n      gt\n        /* \"#utility.yul\":16160:16606   */\n      iszero\n      tag_368\n      jumpi\n        /* \"#utility.yul\":16205:16243   */\n      tag_369\n        /* \"#utility.yul\":16237:16242   */\n      dup2\n        /* \"#utility.yul\":16205:16243   */\n      tag_186\n      jump\t// in\n    tag_369:\n        /* \"#utility.yul\":16289:16318   */\n      tag_370\n        /* \"#utility.yul\":16307:16317   */\n      dup5\n        /* \"#utility.yul\":16289:16318   */\n      tag_187\n      jump\t// in\n    tag_370:\n        /* \"#utility.yul\":16279:16287   */\n      dup2\n        /* \"#utility.yul\":16275:16319   */\n      add\n        /* \"#utility.yul\":16472:16474   */\n      0x20\n        /* \"#utility.yul\":16460:16470   */\n      dup6\n        /* \"#utility.yul\":16457:16475   */\n      lt\n        /* \"#utility.yul\":16454:16503   */\n      iszero\n      tag_371\n      jumpi\n        /* \"#utility.yul\":16493:16501   */\n      dup2\n        /* \"#utility.yul\":16478:16501   */\n      swap1\n      pop\n        /* \"#utility.yul\":16454:16503   */\n    tag_371:\n        /* \"#utility.yul\":16516:16596   */\n      tag_372\n        /* \"#utility.yul\":16572:16594   */\n      tag_373\n        /* \"#utility.yul\":16590:16593   */\n      dup6\n        /* \"#utility.yul\":16572:16594   */\n      tag_187\n      jump\t// in\n    tag_373:\n        /* \"#utility.yul\":16562:16570   */\n      dup4\n        /* \"#utility.yul\":16558:16595   */\n      add\n        /* \"#utility.yul\":16545:16556   */\n      dup3\n        /* \"#utility.yul\":16516:16596   */\n      tag_197\n      jump\t// in\n    tag_372:\n        /* \"#utility.yul\":16175:16606   */\n      pop\n      pop\n        /* \"#utility.yul\":16160:16606   */\n    tag_368:\n        /* \"#utility.yul\":16070:16613   */\n      pop\n      pop\n      pop\n      jump\t// out\n        /* \"#utility.yul\":16619:16736   */\n    tag_199:\n        /* \"#utility.yul\":16673:16681   */\n      0x00\n        /* \"#utility.yul\":16723:16728   */\n      dup3\n        /* \"#utility.yul\":16717:16721   */\n      dup3\n        /* \"#utility.yul\":16713:16729   */\n      shr\n        /* \"#utility.yul\":16692:16729   */\n      swap1\n      pop\n        /* \"#utility.yul\":16619:16736   */\n      swap3\n      swap2\n      pop\n      pop\n      jump\t// out\n        /* \"#utility.yul\":16742:16911   */\n    tag_200:\n        /* \"#utility.yul\":16786:16792   */\n      0x00\n        /* \"#utility.yul\":16819:16870   */\n      tag_376\n        /* \"#utility.yul\":16867:16868   */\n      0x00\n        /* \"#utility.yul\":16863:16869   */\n      not\n        /* \"#utility.yul\":16855:16860   */\n      dup5\n        /* \"#utility.yul\":16852:16853   */\n      0x08\n        /* \"#utility.yul\":16848:16861   */\n      mul\n        /* \"#utility.yul\":16819:16870   */\n      tag_199\n      jump\t// in\n    tag_376:\n        /* \"#utility.yul\":16815:16871   */\n      not\n        /* \"#utility.yul\":16900:16904   */\n      dup1\n        /* \"#utility.yul\":16894:16898   */\n      dup4\n        /* \"#utility.yul\":16890:16905   */\n      and\n        /* \"#utility.yul\":16880:16905   */\n      swap2\n      pop\n        /* \"#utility.yul\":16793:16911   */\n      pop\n        /* \"#utility.yul\":16742:16911   */\n      swap3\n      swap2\n      pop\n      pop\n      jump\t// out\n        /* \"#utility.yul\":16916:17211   */\n    tag_201:\n        /* \"#utility.yul\":16992:16996   */\n      0x00\n        /* \"#utility.yul\":17138:17167   */\n      tag_378\n        /* \"#utility.yul\":17163:17166   */\n      dup4\n        /* \"#utility.yul\":17157:17161   */\n      dup4\n        /* \"#utility.yul\":17138:17167   */\n      tag_200\n      jump\t// in\n    tag_378:\n        /* \"#utility.yul\":17130:17167   */\n      swap2\n      pop\n        /* \"#utility.yul\":17200:17203   */\n      dup3\n        /* \"#utility.yul\":17197:17198   */\n      0x02\n        /* \"#utility.yul\":17193:17204   */\n      mul\n        /* \"#utility.yul\":17187:17191   */\n      dup3\n        /* \"#utility.yul\":17184:17205   */\n      or\n        /* \"#utility.yul\":17176:17205   */\n      swap1\n      pop\n        /* \"#utility.yul\":16916:17211   */\n      swap3\n      swap2\n      pop\n      pop\n      jump\t// out\n        /* \"#utility.yul\":17216:18611   */\n    tag_123:\n        /* \"#utility.yul\":17333:17370   */\n      tag_380\n        /* \"#utility.yul\":17366:17369   */\n      dup3\n        /* \"#utility.yul\":17333:17370   */\n      tag_166\n      jump\t// in\n    tag_380:\n        /* \"#utility.yul\":17435:17453   */\n      0xffffffffffffffff\n        /* \"#utility.yul\":17427:17433   */\n      dup2\n        /* \"#utility.yul\":17424:17454   */\n      gt\n        /* \"#utility.yul\":17421:17477   */\n      iszero\n      tag_381\n      jumpi\n        /* \"#utility.yul\":17457:17475   */\n      tag_382\n      tag_159\n      jump\t// in\n    tag_382:\n        /* \"#utility.yul\":17421:17477   */\n    tag_381:\n        /* \"#utility.yul\":17501:17539   */\n      tag_383\n        /* \"#utility.yul\":17533:17537   */\n      dup3\n        /* \"#utility.yul\":17527:17538   */\n      sload\n        /* \"#utility.yul\":17501:17539   */\n      tag_86\n      jump\t// in\n    tag_383:\n        /* \"#utility.yul\":17586:17653   */\n      tag_384\n        /* \"#utility.yul\":17646:17652   */\n      dup3\n        /* \"#utility.yul\":17638:17644   */\n      dup3\n        /* \"#utility.yul\":17632:17636   */\n      dup6\n        /* \"#utility.yul\":17586:17653   */\n      tag_198\n      jump\t// in\n    tag_384:\n        /* \"#utility.yul\":17680:17681   */\n      0x00\n        /* \"#utility.yul\":17704:17708   */\n      0x20\n        /* \"#utility.yul\":17691:17708   */\n      swap1\n      pop\n        /* \"#utility.yul\":17736:17738   */\n      0x1f\n        /* \"#utility.yul\":17728:17734   */\n      dup4\n        /* \"#utility.yul\":17725:17739   */\n      gt\n        /* \"#utility.yul\":17753:17754   */\n      0x01\n        /* \"#utility.yul\":17748:18366   */\n      dup2\n      eq\n      tag_386\n      jumpi\n        /* \"#utility.yul\":18410:18411   */\n      0x00\n        /* \"#utility.yul\":18427:18433   */\n      dup5\n        /* \"#utility.yul\":18424:18501   */\n      iszero\n      tag_387\n      jumpi\n        /* \"#utility.yul\":18476:18485   */\n      dup3\n        /* \"#utility.yul\":18471:18474   */\n      dup8\n        /* \"#utility.yul\":18467:18486   */\n      add\n        /* \"#utility.yul\":18461:18487   */\n      mload\n        /* \"#utility.yul\":18452:18487   */\n      swap1\n      pop\n        /* \"#utility.yul\":18424:18501   */\n    tag_387:\n        /* \"#utility.yul\":18527:18594   */\n      tag_388\n        /* \"#utility.yul\":18587:18593   */\n      dup6\n        /* \"#utility.yul\":18580:18585   */\n      dup3\n        /* \"#utility.yul\":18527:18594   */\n      tag_201\n      jump\t// in\n    tag_388:\n        /* \"#utility.yul\":18521:18525   */\n      dup7\n        /* \"#utility.yul\":18514:18595   */\n      sstore\n        /* \"#utility.yul\":18383:18605   */\n      pop\n        /* \"#utility.yul\":17718:18605   */\n      jump(tag_385)\n        /* \"#utility.yul\":17748:18366   */\n    tag_386:\n        /* \"#utility.yul\":17800:17804   */\n      0x1f\n        /* \"#utility.yul\":17796:17805   */\n      not\n        /* \"#utility.yul\":17788:17794   */\n      dup5\n        /* \"#utility.yul\":17784:17806   */\n      and\n        /* \"#utility.yul\":17834:17871   */\n      tag_389\n        /* \"#utility.yul\":17866:17870   */\n      dup7\n        /* \"#utility.yul\":17834:17871   */\n      tag_186\n      jump\t// in\n    tag_389:\n        /* \"#utility.yul\":17893:17894   */\n      0x00\n        /* \"#utility.yul\":17907:18115   */\n    tag_390:\n        /* \"#utility.yul\":17921:17928   */\n      dup3\n        /* \"#utility.yul\":17918:17919   */\n      dup2\n        /* \"#utility.yul\":17915:17929   */\n      lt\n        /* \"#utility.yul\":17907:18115   */\n      iszero\n      tag_392\n      jumpi\n        /* \"#utility.yul\":18000:18009   */\n      dup5\n        /* \"#utility.yul\":17995:17998   */\n      dup10\n        /* \"#utility.yul\":17991:18010   */\n      add\n        /* \"#utility.yul\":17985:18011   */\n      mload\n        /* \"#utility.yul\":17977:17983   */\n      dup3\n        /* \"#utility.yul\":17970:18012   */\n      sstore\n        /* \"#utility.yul\":18051:18052   */\n      0x01\n        /* \"#utility.yul\":18043:18049   */\n      dup3\n        /* \"#utility.yul\":18039:18053   */\n      add\n        /* \"#utility.yul\":18029:18053   */\n      swap2\n      pop\n        /* \"#utility.yul\":18098:18100   */\n      0x20\n        /* \"#utility.yul\":18087:18096   */\n      dup6\n        /* \"#utility.yul\":18083:18101   */\n      add\n        /* \"#utility.yul\":18070:18101   */\n      swap5\n      pop\n        /* \"#utility.yul\":17944:17948   */\n      0x20\n        /* \"#utility.yul\":17941:17942   */\n      dup2\n        /* \"#utility.yul\":17937:17949   */\n      add\n        /* \"#utility.yul\":17932:17949   */\n      swap1\n      pop\n        /* \"#utility.yul\":17907:18115   */\n      jump(tag_390)\n    tag_392:\n        /* \"#utility.yul\":18143:18149   */\n      dup7\n        /* \"#utility.yul\":18134:18141   */\n      dup4\n        /* \"#utility.yul\":18131:18150   */\n      lt\n        /* \"#utility.yul\":18128:18307   */\n      iszero\n      tag_393\n      jumpi\n        /* \"#utility.yul\":18201:18210   */\n      dup5\n        /* \"#utility.yul\":18196:18199   */\n      dup10\n        /* \"#utility.yul\":18192:18211   */\n      add\n        /* \"#utility.yul\":18186:18212   */\n      mload\n        /* \"#utility.yul\":18244:18292   */\n      tag_394\n        /* \"#utility.yul\":18286:18290   */\n      0x1f\n        /* \"#utility.yul\":18278:18284   */\n      dup10\n        /* \"#utility.yul\":18274:18291   */\n      and\n        /* \"#utility.yul\":18263:18272   */\n      dup3\n        /* \"#utility.yul\":18244:18292   */\n      tag_200\n      jump\t// in\n    tag_394:\n        /* \"#utility.yul\":18236:18242   */\n      dup4\n        /* \"#utility.yul\":18229:18293   */\n      sstore\n        /* \"#utility.yul\":18151:18307   */\n      pop\n        /* \"#utility.yul\":18128:18307   */\n    tag_393:\n        /* \"#utility.yul\":18353:18354   */\n      0x01\n        /* \"#utility.yul\":18349:18350   */\n      0x02\n        /* \"#utility.yul\":18341:18347   */\n      dup9\n        /* \"#utility.yul\":18337:18351   */\n      mul\n        /* \"#utility.yul\":18333:18355   */\n      add\n        /* \"#utility.yul\":18327:18331   */\n      dup9\n        /* \"#utility.yul\":18320:18356   */\n      sstore\n        /* \"#utility.yul\":17755:18366   */\n      pop\n      pop\n      pop\n        /* \"#utility.yul\":17718:18605   */\n    tag_385:\n      pop\n        /* \"#utility.yul\":17308:18611   */\n      pop\n      pop\n      pop\n        /* \"#utility.yul\":17216:18611   */\n      pop\n      pop\n      jump\t// out\n        /* \"#utility.yul\":18617:18844   */\n    tag_202:\n        /* \"#utility.yul\":18757:18791   */\n      0x42616e6b206973206e6f7420616c6c6f77656420746f20616464206e65772063\n        /* \"#utility.yul\":18753:18754   */\n      0x00\n        /* \"#utility.yul\":18745:18751   */\n      dup3\n        /* \"#utility.yul\":18741:18755   */\n      add\n        /* \"#utility.yul\":18734:18792   */\n      mstore\n        /* \"#utility.yul\":18826:18836   */\n      0x7573746f6d65722e000000000000000000000000000000000000000000000000\n        /* \"#utility.yul\":18821:18823   */\n      0x20\n        /* \"#utility.yul\":18813:18819   */\n      dup3\n        /* \"#utility.yul\":18809:18824   */\n      add\n        /* \"#utility.yul\":18802:18837   */\n      mstore\n        /* \"#utility.yul\":18617:18844   */\n      pop\n      jump\t// out\n        /* \"#utility.yul\":18850:19216   */\n    tag_203:\n        /* \"#utility.yul\":18992:18995   */\n      0x00\n        /* \"#utility.yul\":19013:19080   */\n      tag_397\n        /* \"#utility.yul\":19077:19079   */\n      0x28\n        /* \"#utility.yul\":19072:19075   */\n      dup4\n        /* \"#utility.yul\":19013:19080   */\n      tag_167\n      jump\t// in\n    tag_397:\n        /* \"#utility.yul\":19006:19080   */\n      swap2\n      pop\n        /* \"#utility.yul\":19089:19182   */\n      tag_398\n        /* \"#utility.yul\":19178:19181   */\n      dup3\n        /* \"#utility.yul\":19089:19182   */\n      tag_202\n      jump\t// in\n    tag_398:\n        /* \"#utility.yul\":19207:19209   */\n      0x40\n        /* \"#utility.yul\":19202:19205   */\n      dup3\n        /* \"#utility.yul\":19198:19210   */\n      add\n        /* \"#utility.yul\":19191:19210   */\n      swap1\n      pop\n        /* \"#utility.yul\":18850:19216   */\n      swap2\n      swap1\n      pop\n      jump\t// out\n        /* \"#utility.yul\":19222:19641   */\n    tag_135:\n        /* \"#utility.yul\":19388:19392   */\n      0x00\n        /* \"#utility.yul\":19426:19428   */\n      0x20\n        /* \"#utility.yul\":19415:19424   */\n      dup3\n        /* \"#utility.yul\":19411:19429   */\n      add\n        /* \"#utility.yul\":19403:19429   */\n      swap1\n      pop\n        /* \"#utility.yul\":19475:19484   */\n      dup2\n        /* \"#utility.yul\":19469:19473   */\n      dup2\n        /* \"#utility.yul\":19465:19485   */\n      sub\n        /* \"#utility.yul\":19461:19462   */\n      0x00\n        /* \"#utility.yul\":19450:19459   */\n      dup4\n        /* \"#utility.yul\":19446:19463   */\n      add\n        /* \"#utility.yul\":19439:19486   */\n      mstore\n        /* \"#utility.yul\":19503:19634   */\n      tag_400\n        /* \"#utility.yul\":19629:19633   */\n      dup2\n        /* \"#utility.yul\":19503:19634   */\n      tag_203\n      jump\t// in\n    tag_400:\n        /* \"#utility.yul\":19495:19634   */\n      swap1\n      pop\n        /* \"#utility.yul\":19222:19641   */\n      swap2\n      swap1\n      pop\n      jump\t// out\n        /* \"#utility.yul\":19647:19800   */\n    tag_204:\n        /* \"#utility.yul\":19700:19706   */\n      0x00\n        /* \"#utility.yul\":19734:19739   */\n      dup2\n        /* \"#utility.yul\":19728:19740   */\n      sload\n        /* \"#utility.yul\":19718:19740   */\n      swap1\n      pop\n        /* \"#utility.yul\":19760:19793   */\n      tag_402\n        /* \"#utility.yul\":19786:19792   */\n      dup2\n        /* \"#utility.yul\":19760:19793   */\n      tag_86\n      jump\t// in\n    tag_402:\n        /* \"#utility.yul\":19750:19793   */\n      swap1\n      pop\n        /* \"#utility.yul\":19647:19800   */\n      swap2\n      swap1\n      pop\n      jump\t// out\n        /* \"#utility.yul\":19806:19951   */\n    tag_205:\n        /* \"#utility.yul\":19859:19863   */\n      0x00\n        /* \"#utility.yul\":19882:19885   */\n      dup2\n        /* \"#utility.yul\":19874:19885   */\n      swap1\n      pop\n        /* \"#utility.yul\":19905:19908   */\n      dup2\n        /* \"#utility.yul\":19902:19903   */\n      0x00\n        /* \"#utility.yul\":19895:19909   */\n      mstore\n        /* \"#utility.yul\":19939:19943   */\n      0x20\n        /* \"#utility.yul\":19936:19937   */\n      0x00\n        /* \"#utility.yul\":19926:19944   */\n      keccak256\n        /* \"#utility.yul\":19918:19944   */\n      swap1\n      pop\n        /* \"#utility.yul\":19806:19951   */\n      swap2\n      swap1\n      pop\n      jump\t// out\n        /* \"#utility.yul\":19957:21420   */\n    tag_144:\n        /* \"#utility.yul\":20072:20075   */\n      dup2\n        /* \"#utility.yul\":20066:20070   */\n      dup2\n        /* \"#utility.yul\":20063:20076   */\n      sub\n        /* \"#utility.yul\":20060:20086   */\n      tag_405\n      jumpi\n        /* \"#utility.yul\":20079:20084   */\n      pop\n      pop\n      jump(tag_404)\n        /* \"#utility.yul\":20060:20086   */\n    tag_405:\n        /* \"#utility.yul\":20110:20148   */\n      tag_406\n        /* \"#utility.yul\":20144:20147   */\n      dup3\n        /* \"#utility.yul\":20110:20148   */\n      tag_204\n      jump\t// in\n    tag_406:\n        /* \"#utility.yul\":20213:20231   */\n      0xffffffffffffffff\n        /* \"#utility.yul\":20205:20211   */\n      dup2\n        /* \"#utility.yul\":20202:20232   */\n      gt\n        /* \"#utility.yul\":20199:20255   */\n      iszero\n      tag_407\n      jumpi\n        /* \"#utility.yul\":20235:20253   */\n      tag_408\n      tag_159\n      jump\t// in\n    tag_408:\n        /* \"#utility.yul\":20199:20255   */\n    tag_407:\n        /* \"#utility.yul\":20279:20317   */\n      tag_409\n        /* \"#utility.yul\":20311:20315   */\n      dup3\n        /* \"#utility.yul\":20305:20316   */\n      sload\n        /* \"#utility.yul\":20279:20317   */\n      tag_86\n      jump\t// in\n    tag_409:\n        /* \"#utility.yul\":20364:20431   */\n      tag_410\n        /* \"#utility.yul\":20424:20430   */\n      dup3\n        /* \"#utility.yul\":20416:20422   */\n      dup3\n        /* \"#utility.yul\":20410:20414   */\n      dup6\n        /* \"#utility.yul\":20364:20431   */\n      tag_198\n      jump\t// in\n    tag_410:\n        /* \"#utility.yul\":20458:20459   */\n      0x00\n        /* \"#utility.yul\":20487:20489   */\n      0x1f\n        /* \"#utility.yul\":20479:20485   */\n      dup4\n        /* \"#utility.yul\":20476:20490   */\n      gt\n        /* \"#utility.yul\":20504:20505   */\n      0x01\n        /* \"#utility.yul\":20499:21175   */\n      dup2\n      eq\n      tag_412\n      jumpi\n        /* \"#utility.yul\":21219:21220   */\n      0x00\n        /* \"#utility.yul\":21236:21242   */\n      dup5\n        /* \"#utility.yul\":21233:21310   */\n      iszero\n      tag_413\n      jumpi\n        /* \"#utility.yul\":21285:21294   */\n      dup3\n        /* \"#utility.yul\":21280:21283   */\n      dup8\n        /* \"#utility.yul\":21276:21295   */\n      add\n        /* \"#utility.yul\":21270:21296   */\n      sload\n        /* \"#utility.yul\":21261:21296   */\n      swap1\n      pop\n        /* \"#utility.yul\":21233:21310   */\n    tag_413:\n        /* \"#utility.yul\":21336:21403   */\n      tag_414\n        /* \"#utility.yul\":21396:21402   */\n      dup6\n        /* \"#utility.yul\":21389:21394   */\n      dup3\n        /* \"#utility.yul\":21336:21403   */\n      tag_201\n      jump\t// in\n    tag_414:\n        /* \"#utility.yul\":21330:21334   */\n      dup7\n        /* \"#utility.yul\":21323:21404   */\n      sstore\n        /* \"#utility.yul\":21192:21414   */\n      pop\n        /* \"#utility.yul\":20469:21414   */\n      jump(tag_411)\n        /* \"#utility.yul\":20499:21175   */\n    tag_412:\n        /* \"#utility.yul\":20551:20555   */\n      0x1f\n        /* \"#utility.yul\":20547:20556   */\n      not\n        /* \"#utility.yul\":20539:20545   */\n      dup5\n        /* \"#utility.yul\":20535:20557   */\n      and\n        /* \"#utility.yul\":20577:20617   */\n      tag_415\n        /* \"#utility.yul\":20613:20616   */\n      dup8\n        /* \"#utility.yul\":20577:20617   */\n      tag_205\n      jump\t// in\n    tag_415:\n        /* \"#utility.yul\":20570:20617   */\n      swap7\n      pop\n        /* \"#utility.yul\":20644:20681   */\n      tag_416\n        /* \"#utility.yul\":20676:20680   */\n      dup7\n        /* \"#utility.yul\":20644:20681   */\n      tag_186\n      jump\t// in\n    tag_416:\n        /* \"#utility.yul\":20703:20704   */\n      0x00\n        /* \"#utility.yul\":20717:20924   */\n    tag_417:\n        /* \"#utility.yul\":20731:20738   */\n      dup3\n        /* \"#utility.yul\":20728:20729   */\n      dup2\n        /* \"#utility.yul\":20725:20739   */\n      lt\n        /* \"#utility.yul\":20717:20924   */\n      iszero\n      tag_419\n      jumpi\n        /* \"#utility.yul\":20810:20819   */\n      dup5\n        /* \"#utility.yul\":20805:20808   */\n      dup10\n        /* \"#utility.yul\":20801:20820   */\n      add\n        /* \"#utility.yul\":20795:20821   */\n      sload\n        /* \"#utility.yul\":20787:20793   */\n      dup3\n        /* \"#utility.yul\":20780:20822   */\n      sstore\n        /* \"#utility.yul\":20861:20862   */\n      0x01\n        /* \"#utility.yul\":20853:20859   */\n      dup3\n        /* \"#utility.yul\":20849:20863   */\n      add\n        /* \"#utility.yul\":20839:20863   */\n      swap2\n      pop\n        /* \"#utility.yul\":20908:20909   */\n      0x01\n        /* \"#utility.yul\":20897:20906   */\n      dup6\n        /* \"#utility.yul\":20893:20910   */\n      add\n        /* \"#utility.yul\":20880:20910   */\n      swap5\n      pop\n        /* \"#utility.yul\":20754:20758   */\n      0x20\n        /* \"#utility.yul\":20751:20752   */\n      dup2\n        /* \"#utility.yul\":20747:20759   */\n      add\n        /* \"#utility.yul\":20742:20759   */\n      swap1\n      pop\n        /* \"#utility.yul\":20717:20924   */\n      jump(tag_417)\n    tag_419:\n        /* \"#utility.yul\":20952:20958   */\n      dup7\n        /* \"#utility.yul\":20943:20950   */\n      dup4\n        /* \"#utility.yul\":20940:20959   */\n      lt\n        /* \"#utility.yul\":20937:21116   */\n      iszero\n      tag_420\n      jumpi\n        /* \"#utility.yul\":21010:21019   */\n      dup5\n        /* \"#utility.yul\":21005:21008   */\n      dup10\n        /* \"#utility.yul\":21001:21020   */\n      add\n        /* \"#utility.yul\":20995:21021   */\n      sload\n        /* \"#utility.yul\":21053:21101   */\n      tag_421\n        /* \"#utility.yul\":21095:21099   */\n      0x1f\n        /* \"#utility.yul\":21087:21093   */\n      dup10\n        /* \"#utility.yul\":21083:21100   */\n      and\n        /* \"#utility.yul\":21072:21081   */\n      dup3\n        /* \"#utility.yul\":21053:21101   */\n      tag_200\n      jump\t// in\n    tag_421:\n        /* \"#utility.yul\":21045:21051   */\n      dup4\n        /* \"#utility.yul\":21038:21102   */\n      sstore\n        /* \"#utility.yul\":20960:21116   */\n      pop\n        /* \"#utility.yul\":20937:21116   */\n    tag_420:\n        /* \"#utility.yul\":21162:21163   */\n      0x01\n        /* \"#utility.yul\":21158:21159   */\n      0x02\n        /* \"#utility.yul\":21150:21156   */\n      dup9\n        /* \"#utility.yul\":21146:21160   */\n      mul\n        /* \"#utility.yul\":21142:21164   */\n      add\n        /* \"#utility.yul\":21136:21140   */\n      dup9\n        /* \"#utility.yul\":21129:21165   */\n      sstore\n        /* \"#utility.yul\":20506:21175   */\n      pop\n      pop\n      pop\n        /* \"#utility.yul\":20469:21414   */\n    tag_411:\n      pop\n        /* \"#utility.yul\":20050:21420   */\n      pop\n      pop\n      pop\n        /* \"#utility.yul\":19957:21420   */\n      pop\n      pop\n    tag_404:\n      jump\t// out\n\n    auxdata: 0xa264697066735822122048386ff7f7d0066dab52e5657732ba43aab57239576f4a6e75dbd1abdb0da75864736f6c63430008110033\n}\n",
				"bytecode": {
					"linkReferences": {},
					"object": "608060405234801561001057600080fd5b50336000806101000a81548173ffffffffffffffffffffffffffffffffffffffff021916908373ffffffffffffffffffffffffffffffffffffffff160217905550611eac806100606000396000f3fe608060405234801561001057600080fd5b506004361061009e5760003560e01c80634a6c2f61116100665780634a6c2f6114610146578063875deaa114610179578063892d786914610195578063ad03352d146101c5578063c50ab8c4146101e15761009e565b806301fc9e9f146100a35780630935ac56146100bf5780630956bd29146100db57806315101e02146100f75780631b2cad481461012a575b600080fd5b6100bd60048036038101906100b89190611309565b6101fd565b005b6100d960048036038101906100d4919061147c565b6102e9565b005b6100f560048036038101906100f09190611309565b61056a565b005b610111600480360381019061010c9190611309565b610656565b604051610121949392919061157b565b60405180910390f35b610144600480360381019061013f9190611309565b6108b9565b005b610160600480360381019061015b919061147c565b6109a4565b60405161017094939291906115c7565b60405180910390f35b610193600480360381019061018e9190611621565b610c7f565b005b6101af60048036038101906101aa919061147c565b610e96565b6040516101bc919061167d565b60405180910390f35b6101df60048036038101906101da9190611698565b610f5d565b005b6101fb60048036038101906101f69190611309565b6111ac565b005b60008054906101000a900473ffffffffffffffffffffffffffffffffffffffff1673ffffffffffffffffffffffffffffffffffffffff163373ffffffffffffffffffffffffffffffffffffffff161461028b576040517f08c379a000000000000000000000000000000000000000000000000000000000815260040161028290611782565b60405180910390fd5b6000600160008373ffffffffffffffffffffffffffffffffffffffff1673ffffffffffffffffffffffffffffffffffffffff16815260200190815260200160002060020160016101000a81548160ff02191690831515021790555050565b60008054906101000a900473ffffffffffffffffffffffffffffffffffffffff1673ffffffffffffffffffffffffffffffffffffffff163373ffffffffffffffffffffffffffffffffffffffff1603610377576040517f08c379a000000000000000000000000000000000000000000000000000000000815260040161036e906117ee565b60405180910390fd5b80600281604051610388919061184a565b908152602001604051809103902060020160009054906101000a900473ffffffffffffffffffffffffffffffffffffffff1673ffffffffffffffffffffffffffffffffffffffff163373ffffffffffffffffffffffffffffffffffffffff1614610427576040517f08c379a000000000000000000000000000000000000000000000000000000000815260040161041e906118d3565b60405180910390fd5b600160003373ffffffffffffffffffffffffffffffffffffffff1673ffffffffffffffffffffffffffffffffffffffff16815260200190815260200160002060020160029054906101000a900460ff166104b6576040517f08c379a00000000000000000000000000000000000000000000000000000000081526004016104ad90611965565b60405180910390fd5b60016002836040516104c8919061184a565b908152602001604051809103902060040160006101000a81548160ff02191690831515021790555060018060003373ffffffffffffffffffffffffffffffffffffffff1673ffffffffffffffffffffffffffffffffffffffff16815260200190815260200160002060020160008282829054906101000a900460ff1661054e91906119b4565b92506101000a81548160ff021916908360ff1602179055505050565b60008054906101000a900473ffffffffffffffffffffffffffffffffffffffff1673ffffffffffffffffffffffffffffffffffffffff163373ffffffffffffffffffffffffffffffffffffffff16146105f8576040517f08c379a00000000000000000000000000000000000000000000000000000000081526004016105ef90611782565b60405180910390fd5b6000600160008373ffffffffffffffffffffffffffffffffffffffff1673ffffffffffffffffffffffffffffffffffffffff16815260200190815260200160002060020160026101000a81548160ff02191690831515021790555050565b606060008060008060009054906101000a900473ffffffffffffffffffffffffffffffffffffffff1673ffffffffffffffffffffffffffffffffffffffff163373ffffffffffffffffffffffffffffffffffffffff16146106ec576040517f08c379a00000000000000000000000000000000000000000000000000000000081526004016106e390611782565b60405180910390fd5b600160008673ffffffffffffffffffffffffffffffffffffffff1673ffffffffffffffffffffffffffffffffffffffff168152602001908152602001600020600101600160008773ffffffffffffffffffffffffffffffffffffffff1673ffffffffffffffffffffffffffffffffffffffff16815260200190815260200160002060020160009054906101000a900460ff16600160008873ffffffffffffffffffffffffffffffffffffffff1673ffffffffffffffffffffffffffffffffffffffff16815260200190815260200160002060020160019054906101000a900460ff16600160008973ffffffffffffffffffffffffffffffffffffffff1673ffffffffffffffffffffffffffffffffffffffff16815260200190815260200160002060020160029054906101000a900460ff1683805461082a90611a18565b80601f016020809104026020016040519081016040528092919081815260200182805461085690611a18565b80156108a35780601f10610878576101008083540402835291602001916108a3565b820191906000526020600020905b81548152906001019060200180831161088657829003601f168201915b5050505050935093509350935093509193509193565b60008054906101000a900473ffffffffffffffffffffffffffffffffffffffff1673ffffffffffffffffffffffffffffffffffffffff163373ffffffffffffffffffffffffffffffffffffffff1614610947576040517f08c379a000000000000000000000000000000000000000000000000000000000815260040161093e90611782565b60405180910390fd5b60018060008373ffffffffffffffffffffffffffffffffffffffff1673ffffffffffffffffffffffffffffffffffffffff16815260200190815260200160002060020160016101000a81548160ff02191690831515021790555050565b606080606060008060009054906101000a900473ffffffffffffffffffffffffffffffffffffffff1673ffffffffffffffffffffffffffffffffffffffff163373ffffffffffffffffffffffffffffffffffffffff1603610a3a576040517f08c379a0000000000000000000000000000000000000000000000000000000008152600401610a31906117ee565b60405180910390fd5b600285604051610a4a919061184a565b9081526020016040518091039020600001600286604051610a6b919061184a565b9081526020016040518091039020600101600287604051610a8c919061184a565b9081526020016040518091039020600301600288604051610aad919061184a565b908152602001604051809103902060040160009054906101000a900460ff16838054610ad890611a18565b80601f0160208091040260200160405190810160405280929190818152602001828054610b0490611a18565b8015610b515780601f10610b2657610100808354040283529160200191610b51565b820191906000526020600020905b815481529060010190602001808311610b3457829003601f168201915b50505050509350828054610b6490611a18565b80601f0160208091040260200160405190810160405280929190818152602001828054610b9090611a18565b8015610bdd5780601f10610bb257610100808354040283529160200191610bdd565b820191906000526020600020905b815481529060010190602001808311610bc057829003601f168201915b50505050509250818054610bf090611a18565b80601f0160208091040260200160405190810160405280929190818152602001828054610c1c90611a18565b8015610c695780601f10610c3e57610100808354040283529160200191610c69565b820191906000526020600020905b815481529060010190602001808311610c4c57829003601f168201915b5050505050915093509350935093509193509193565b60008054906101000a900473ffffffffffffffffffffffffffffffffffffffff1673ffffffffffffffffffffffffffffffffffffffff163373ffffffffffffffffffffffffffffffffffffffff1614610d0d576040517f08c379a0000000000000000000000000000000000000000000000000000000008152600401610d0490611782565b60405180910390fd5b80600160008373ffffffffffffffffffffffffffffffffffffffff1673ffffffffffffffffffffffffffffffffffffffff16815260200190815260200160002060000160006101000a81548173ffffffffffffffffffffffffffffffffffffffff021916908373ffffffffffffffffffffffffffffffffffffffff16021790555081600160008373ffffffffffffffffffffffffffffffffffffffff1673ffffffffffffffffffffffffffffffffffffffff1681526020019081526020016000206001019081610ddd9190611bff565b5060018060008373ffffffffffffffffffffffffffffffffffffffff1673ffffffffffffffffffffffffffffffffffffffff16815260200190815260200160002060020160016101000a81548160ff02191690831515021790555060018060008373ffffffffffffffffffffffffffffffffffffffff1673ffffffffffffffffffffffffffffffffffffffff16815260200190815260200160002060020160026101000a81548160ff0219169083151502179055505050565b60008060009054906101000a900473ffffffffffffffffffffffffffffffffffffffff1673ffffffffffffffffffffffffffffffffffffffff163373ffffffffffffffffffffffffffffffffffffffff1603610f27576040517f08c379a0000000000000000000000000000000000000000000000000000000008152600401610f1e906117ee565b60405180910390fd5b600282604051610f37919061184a565b908152602001604051809103902060040160009054906101000a900460ff169050919050565b60008054906101000a900473ffffffffffffffffffffffffffffffffffffffff1673ffffffffffffffffffffffffffffffffffffffff163373ffffffffffffffffffffffffffffffffffffffff1603610feb576040517f08c379a0000000000000000000000000000000000000000000000000000000008152600401610fe2906117ee565b60405180910390fd5b600160003373ffffffffffffffffffffffffffffffffffffffff1673ffffffffffffffffffffffffffffffffffffffff16815260200190815260200160002060020160019054906101000a900460ff1661107a576040517f08c379a000000000000000000000000000000000000000000000000000000000815260040161107190611d43565b60405180910390fd5b8160028360405161108b919061184a565b908152602001604051809103902060000190816110a89190611bff565b50806002836040516110ba919061184a565b908152602001604051809103902060010190816110d79190611bff565b50336002836040516110e9919061184a565b908152602001604051809103902060020160006101000a81548173ffffffffffffffffffffffffffffffffffffffff021916908373ffffffffffffffffffffffffffffffffffffffff160217905550600160003373ffffffffffffffffffffffffffffffffffffffff1673ffffffffffffffffffffffffffffffffffffffff16815260200190815260200160002060010160028360405161118a919061184a565b908152602001604051809103902060030190816111a79190611d8e565b505050565b60008054906101000a900473ffffffffffffffffffffffffffffffffffffffff1673ffffffffffffffffffffffffffffffffffffffff163373ffffffffffffffffffffffffffffffffffffffff161461123a576040517f08c379a000000000000000000000000000000000000000000000000000000000815260040161123190611782565b60405180910390fd5b60018060008373ffffffffffffffffffffffffffffffffffffffff1673ffffffffffffffffffffffffffffffffffffffff16815260200190815260200160002060020160026101000a81548160ff02191690831515021790555050565b6000604051905090565b600080fd5b600080fd5b600073ffffffffffffffffffffffffffffffffffffffff82169050919050565b60006112d6826112ab565b9050919050565b6112e6816112cb565b81146112f157600080fd5b50565b600081359050611303816112dd565b92915050565b60006020828403121561131f5761131e6112a1565b5b600061132d848285016112f4565b91505092915050565b600080fd5b600080fd5b6000601f19601f8301169050919050565b7f4e487b7100000000000000000000000000000000000000000000000000000000600052604160045260246000fd5b61138982611340565b810181811067ffffffffffffffff821117156113a8576113a7611351565b5b80604052505050565b60006113bb611297565b90506113c78282611380565b919050565b600067ffffffffffffffff8211156113e7576113e6611351565b5b6113f082611340565b9050602081019050919050565b82818337600083830152505050565b600061141f61141a846113cc565b6113b1565b90508281526020810184848401111561143b5761143a61133b565b5b6114468482856113fd565b509392505050565b600082601f83011261146357611462611336565b5b813561147384826020860161140c565b91505092915050565b600060208284031215611492576114916112a1565b5b600082013567ffffffffffffffff8111156114b0576114af6112a6565b5b6114bc8482850161144e565b91505092915050565b600081519050919050565b600082825260208201905092915050565b60005b838110156114ff5780820151818401526020810190506114e4565b60008484015250505050565b6000611516826114c5565b61152081856114d0565b93506115308185602086016114e1565b61153981611340565b840191505092915050565b600060ff82169050919050565b61155a81611544565b82525050565b60008115159050919050565b61157581611560565b82525050565b60006080820190508181036000830152611595818761150b565b90506115a46020830186611551565b6115b1604083018561156c565b6115be606083018461156c565b95945050505050565b600060808201905081810360008301526115e1818761150b565b905081810360208301526115f5818661150b565b90508181036040830152611609818561150b565b9050611618606083018461156c565b95945050505050565b60008060408385031215611638576116376112a1565b5b600083013567ffffffffffffffff811115611656576116556112a6565b5b6116628582860161144e565b9250506020611673858286016112f4565b9150509250929050565b6000602082019050611692600083018461156c565b92915050565b600080604083850312156116af576116ae6112a1565b5b600083013567ffffffffffffffff8111156116cd576116cc6112a6565b5b6116d98582860161144e565b925050602083013567ffffffffffffffff8111156116fa576116f96112a6565b5b6117068582860161144e565b9150509250929050565b7f596f7520617265206e6f7420616e2061646d696e20746f20706572666f726d2060008201527f7468697320616374696f6e2e0000000000000000000000000000000000000000602082015250565b600061176c602c836114d0565b915061177782611710565b604082019050919050565b6000602082019050818103600083015261179b8161175f565b9050919050565b7f41646d696e2063616e277420706572666f726d207468697320616374696f6e2e600082015250565b60006117d86020836114d0565b91506117e3826117a2565b602082019050919050565b60006020820190508181036000830152611807816117cb565b9050919050565b600081905092915050565b6000611824826114c5565b61182e818561180e565b935061183e8185602086016114e1565b80840191505092915050565b60006118568284611819565b915081905092915050565b7f437573746f6d657220646f65736e27742062656c6f6e6720746f20746869732060008201527f62616e6b00000000000000000000000000000000000000000000000000000000602082015250565b60006118bd6024836114d0565b91506118c882611861565b604082019050919050565b600060208201905081810360008301526118ec816118b0565b9050919050565b7f42616e6b206973206e6f7420616c6c6f77656420746f20706572666f726d204b60008201527f79632e0000000000000000000000000000000000000000000000000000000000602082015250565b600061194f6023836114d0565b915061195a826118f3565b604082019050919050565b6000602082019050818103600083015261197e81611942565b9050919050565b7f4e487b7100000000000000000000000000000000000000000000000000000000600052601160045260246000fd5b60006119bf82611544565b91506119ca83611544565b9250828201905060ff8111156119e3576119e2611985565b5b92915050565b7f4e487b7100000000000000000000000000000000000000000000000000000000600052602260045260246000fd5b60006002820490506001821680611a3057607f821691505b602082108103611a4357611a426119e9565b5b50919050565b60008190508160005260206000209050919050565b60006020601f8301049050919050565b600082821b905092915050565b600060088302611aab7fffffffffffffffffffffffffffffffffffffffffffffffffffffffffffffffff82611a6e565b611ab58683611a6e565b95508019841693508086168417925050509392505050565b6000819050919050565b6000819050919050565b6000611afc611af7611af284611acd565b611ad7565b611acd565b9050919050565b6000819050919050565b611b1683611ae1565b611b2a611b2282611b03565b848454611a7b565b825550505050565b600090565b611b3f611b32565b611b4a818484611b0d565b505050565b5b81811015611b6e57611b63600082611b37565b600181019050611b50565b5050565b601f821115611bb357611b8481611a49565b611b8d84611a5e565b81016020851015611b9c578190505b611bb0611ba885611a5e565b830182611b4f565b50505b505050565b600082821c905092915050565b6000611bd660001984600802611bb8565b1980831691505092915050565b6000611bef8383611bc5565b9150826002028217905092915050565b611c08826114c5565b67ffffffffffffffff811115611c2157611c20611351565b5b611c2b8254611a18565b611c36828285611b72565b600060209050601f831160018114611c695760008415611c57578287015190505b611c618582611be3565b865550611cc9565b601f198416611c7786611a49565b60005b82811015611c9f57848901518255600182019150602085019450602081019050611c7a565b86831015611cbc5784890151611cb8601f891682611bc5565b8355505b6001600288020188555050505b505050505050565b7f42616e6b206973206e6f7420616c6c6f77656420746f20616464206e6577206360008201527f7573746f6d65722e000000000000000000000000000000000000000000000000602082015250565b6000611d2d6028836114d0565b9150611d3882611cd1565b604082019050919050565b60006020820190508181036000830152611d5c81611d20565b9050919050565b600081549050611d7281611a18565b9050919050565b60008190508160005260206000209050919050565b818103611d9c575050611e74565b611da582611d63565b67ffffffffffffffff811115611dbe57611dbd611351565b5b611dc88254611a18565b611dd3828285611b72565b6000601f831160018114611e025760008415611df0578287015490505b611dfa8582611be3565b865550611e6d565b601f198416611e1087611d79565b9650611e1b86611a49565b60005b82811015611e4357848901548255600182019150600185019450602081019050611e1e565b86831015611e605784890154611e5c601f891682611bc5565b8355505b6001600288020188555050505b5050505050505b56fea264697066735822122048386ff7f7d0066dab52e5657732ba43aab57239576f4a6e75dbd1abdb0da75864736f6c63430008110033",
					"opcodes": "PUSH1 0x80 PUSH1 0x40 MSTORE CALLVALUE DUP1 ISZERO PUSH2 0x10 JUMPI PUSH1 0x0 DUP1 REVERT JUMPDEST POP CALLER PUSH1 0x0 DUP1 PUSH2 0x100 EXP DUP2 SLOAD DUP2 PUSH20 0xFFFFFFFFFFFFFFFFFFFFFFFFFFFFFFFFFFFFFFFF MUL NOT AND SWAP1 DUP4 PUSH20 0xFFFFFFFFFFFFFFFFFFFFFFFFFFFFFFFFFFFFFFFF AND MUL OR SWAP1 SSTORE POP PUSH2 0x1EAC DUP1 PUSH2 0x60 PUSH1 0x0 CODECOPY PUSH1 0x0 RETURN INVALID PUSH1 0x80 PUSH1 0x40 MSTORE CALLVALUE DUP1 ISZERO PUSH2 0x10 JUMPI PUSH1 0x0 DUP1 REVERT JUMPDEST POP PUSH1 0x4 CALLDATASIZE LT PUSH2 0x9E JUMPI PUSH1 0x0 CALLDATALOAD PUSH1 0xE0 SHR DUP1 PUSH4 0x4A6C2F61 GT PUSH2 0x66 JUMPI DUP1 PUSH4 0x4A6C2F61 EQ PUSH2 0x146 JUMPI DUP1 PUSH4 0x875DEAA1 EQ PUSH2 0x179 JUMPI DUP1 PUSH4 0x892D7869 EQ PUSH2 0x195 JUMPI DUP1 PUSH4 0xAD03352D EQ PUSH2 0x1C5 JUMPI DUP1 PUSH4 0xC50AB8C4 EQ PUSH2 0x1E1 JUMPI PUSH2 0x9E JUMP JUMPDEST DUP1 PUSH4 0x1FC9E9F EQ PUSH2 0xA3 JUMPI DUP1 PUSH4 0x935AC56 EQ PUSH2 0xBF JUMPI DUP1 PUSH4 0x956BD29 EQ PUSH2 0xDB JUMPI DUP1 PUSH4 0x15101E02 EQ PUSH2 0xF7 JUMPI DUP1 PUSH4 0x1B2CAD48 EQ PUSH2 0x12A JUMPI JUMPDEST PUSH1 0x0 DUP1 REVERT JUMPDEST PUSH2 0xBD PUSH1 0x4 DUP1 CALLDATASIZE SUB DUP2 ADD SWAP1 PUSH2 0xB8 SWAP2 SWAP1 PUSH2 0x1309 JUMP JUMPDEST PUSH2 0x1FD JUMP JUMPDEST STOP JUMPDEST PUSH2 0xD9 PUSH1 0x4 DUP1 CALLDATASIZE SUB DUP2 ADD SWAP1 PUSH2 0xD4 SWAP2 SWAP1 PUSH2 0x147C JUMP JUMPDEST PUSH2 0x2E9 JUMP JUMPDEST STOP JUMPDEST PUSH2 0xF5 PUSH1 0x4 DUP1 CALLDATASIZE SUB DUP2 ADD SWAP1 PUSH2 0xF0 SWAP2 SWAP1 PUSH2 0x1309 JUMP JUMPDEST PUSH2 0x56A JUMP JUMPDEST STOP JUMPDEST PUSH2 0x111 PUSH1 0x4 DUP1 CALLDATASIZE SUB DUP2 ADD SWAP1 PUSH2 0x10C SWAP2 SWAP1 PUSH2 0x1309 JUMP JUMPDEST PUSH2 0x656 JUMP JUMPDEST PUSH1 0x40 MLOAD PUSH2 0x121 SWAP5 SWAP4 SWAP3 SWAP2 SWAP1 PUSH2 0x157B JUMP JUMPDEST PUSH1 0x40 MLOAD DUP1 SWAP2 SUB SWAP1 RETURN JUMPDEST PUSH2 0x144 PUSH1 0x4 DUP1 CALLDATASIZE SUB DUP2 ADD SWAP1 PUSH2 0x13F SWAP2 SWAP1 PUSH2 0x1309 JUMP JUMPDEST PUSH2 0x8B9 JUMP JUMPDEST STOP JUMPDEST PUSH2 0x160 PUSH1 0x4 DUP1 CALLDATASIZE SUB DUP2 ADD SWAP1 PUSH2 0x15B SWAP2 SWAP1 PUSH2 0x147C JUMP JUMPDEST PUSH2 0x9A4 JUMP JUMPDEST PUSH1 0x40 MLOAD PUSH2 0x170 SWAP5 SWAP4 SWAP3 SWAP2 SWAP1 PUSH2 0x15C7 JUMP JUMPDEST PUSH1 0x40 MLOAD DUP1 SWAP2 SUB SWAP1 RETURN JUMPDEST PUSH2 0x193 PUSH1 0x4 DUP1 CALLDATASIZE SUB DUP2 ADD SWAP1 PUSH2 0x18E SWAP2 SWAP1 PUSH2 0x1621 JUMP JUMPDEST PUSH2 0xC7F JUMP JUMPDEST STOP JUMPDEST PUSH2 0x1AF PUSH1 0x4 DUP1 CALLDATASIZE SUB DUP2 ADD SWAP1 PUSH2 0x1AA SWAP2 SWAP1 PUSH2 0x147C JUMP JUMPDEST PUSH2 0xE96 JUMP JUMPDEST PUSH1 0x40 MLOAD PUSH2 0x1BC SWAP2 SWAP1 PUSH2 0x167D JUMP JUMPDEST PUSH1 0x40 MLOAD DUP1 SWAP2 SUB SWAP1 RETURN JUMPDEST PUSH2 0x1DF PUSH1 0x4 DUP1 CALLDATASIZE SUB DUP2 ADD SWAP1 PUSH2 0x1DA SWAP2 SWAP1 PUSH2 0x1698 JUMP JUMPDEST PUSH2 0xF5D JUMP JUMPDEST STOP JUMPDEST PUSH2 0x1FB PUSH1 0x4 DUP1 CALLDATASIZE SUB DUP2 ADD SWAP1 PUSH2 0x1F6 SWAP2 SWAP1 PUSH2 0x1309 JUMP JUMPDEST PUSH2 0x11AC JUMP JUMPDEST STOP JUMPDEST PUSH1 0x0 DUP1 SLOAD SWAP1 PUSH2 0x100 EXP SWAP1 DIV PUSH20 0xFFFFFFFFFFFFFFFFFFFFFFFFFFFFFFFFFFFFFFFF AND PUSH20 0xFFFFFFFFFFFFFFFFFFFFFFFFFFFFFFFFFFFFFFFF AND CALLER PUSH20 0xFFFFFFFFFFFFFFFFFFFFFFFFFFFFFFFFFFFFFFFF AND EQ PUSH2 0x28B JUMPI PUSH1 0x40 MLOAD PUSH32 0x8C379A000000000000000000000000000000000000000000000000000000000 DUP2 MSTORE PUSH1 0x4 ADD PUSH2 0x282 SWAP1 PUSH2 0x1782 JUMP JUMPDEST PUSH1 0x40 MLOAD DUP1 SWAP2 SUB SWAP1 REVERT JUMPDEST PUSH1 0x0 PUSH1 0x1 PUSH1 0x0 DUP4 PUSH20 0xFFFFFFFFFFFFFFFFFFFFFFFFFFFFFFFFFFFFFFFF AND PUSH20 0xFFFFFFFFFFFFFFFFFFFFFFFFFFFFFFFFFFFFFFFF AND DUP2 MSTORE PUSH1 0x20 ADD SWAP1 DUP2 MSTORE PUSH1 0x20 ADD PUSH1 0x0 KECCAK256 PUSH1 0x2 ADD PUSH1 0x1 PUSH2 0x100 EXP DUP2 SLOAD DUP2 PUSH1 0xFF MUL NOT AND SWAP1 DUP4 ISZERO ISZERO MUL OR SWAP1 SSTORE POP POP JUMP JUMPDEST PUSH1 0x0 DUP1 SLOAD SWAP1 PUSH2 0x100 EXP SWAP1 DIV PUSH20 0xFFFFFFFFFFFFFFFFFFFFFFFFFFFFFFFFFFFFFFFF AND PUSH20 0xFFFFFFFFFFFFFFFFFFFFFFFFFFFFFFFFFFFFFFFF AND CALLER PUSH20 0xFFFFFFFFFFFFFFFFFFFFFFFFFFFFFFFFFFFFFFFF AND SUB PUSH2 0x377 JUMPI PUSH1 0x40 MLOAD PUSH32 0x8C379A000000000000000000000000000000000000000000000000000000000 DUP2 MSTORE PUSH1 0x4 ADD PUSH2 0x36E SWAP1 PUSH2 0x17EE JUMP JUMPDEST PUSH1 0x40 MLOAD DUP1 SWAP2 SUB SWAP1 REVERT JUMPDEST DUP1 PUSH1 0x2 DUP2 PUSH1 0x40 MLOAD PUSH2 0x388 SWAP2 SWAP1 PUSH2 0x184A JUMP JUMPDEST SWAP1 DUP2 MSTORE PUSH1 0x20 ADD PUSH1 0x40 MLOAD DUP1 SWAP2 SUB SWAP1 KECCAK256 PUSH1 0x2 ADD PUSH1 0x0 SWAP1 SLOAD SWAP1 PUSH2 0x100 EXP SWAP1 DIV PUSH20 0xFFFFFFFFFFFFFFFFFFFFFFFFFFFFFFFFFFFFFFFF AND PUSH20 0xFFFFFFFFFFFFFFFFFFFFFFFFFFFFFFFFFFFFFFFF AND CALLER PUSH20 0xFFFFFFFFFFFFFFFFFFFFFFFFFFFFFFFFFFFFFFFF AND EQ PUSH2 0x427 JUMPI PUSH1 0x40 MLOAD PUSH32 0x8C379A000000000000000000000000000000000000000000000000000000000 DUP2 MSTORE PUSH1 0x4 ADD PUSH2 0x41E SWAP1 PUSH2 0x18D3 JUMP JUMPDEST PUSH1 0x40 MLOAD DUP1 SWAP2 SUB SWAP1 REVERT JUMPDEST PUSH1 0x1 PUSH1 0x0 CALLER PUSH20 0xFFFFFFFFFFFFFFFFFFFFFFFFFFFFFFFFFFFFFFFF AND PUSH20 0xFFFFFFFFFFFFFFFFFFFFFFFFFFFFFFFFFFFFFFFF AND DUP2 MSTORE PUSH1 0x20 ADD SWAP1 DUP2 MSTORE PUSH1 0x20 ADD PUSH1 0x0 KECCAK256 PUSH1 0x2 ADD PUSH1 0x2 SWAP1 SLOAD SWAP1 PUSH2 0x100 EXP SWAP1 DIV PUSH1 0xFF AND PUSH2 0x4B6 JUMPI PUSH1 0x40 MLOAD PUSH32 0x8C379A000000000000000000000000000000000000000000000000000000000 DUP2 MSTORE PUSH1 0x4 ADD PUSH2 0x4AD SWAP1 PUSH2 0x1965 JUMP JUMPDEST PUSH1 0x40 MLOAD DUP1 SWAP2 SUB SWAP1 REVERT JUMPDEST PUSH1 0x1 PUSH1 0x2 DUP4 PUSH1 0x40 MLOAD PUSH2 0x4C8 SWAP2 SWAP1 PUSH2 0x184A JUMP JUMPDEST SWAP1 DUP2 MSTORE PUSH1 0x20 ADD PUSH1 0x40 MLOAD DUP1 SWAP2 SUB SWAP1 KECCAK256 PUSH1 0x4 ADD PUSH1 0x0 PUSH2 0x100 EXP DUP2 SLOAD DUP2 PUSH1 0xFF MUL NOT AND SWAP1 DUP4 ISZERO ISZERO MUL OR SWAP1 SSTORE POP PUSH1 0x1 DUP1 PUSH1 0x0 CALLER PUSH20 0xFFFFFFFFFFFFFFFFFFFFFFFFFFFFFFFFFFFFFFFF AND PUSH20 0xFFFFFFFFFFFFFFFFFFFFFFFFFFFFFFFFFFFFFFFF AND DUP2 MSTORE PUSH1 0x20 ADD SWAP1 DUP2 MSTORE PUSH1 0x20 ADD PUSH1 0x0 KECCAK256 PUSH1 0x2 ADD PUSH1 0x0 DUP3 DUP3 DUP3 SWAP1 SLOAD SWAP1 PUSH2 0x100 EXP SWAP1 DIV PUSH1 0xFF AND PUSH2 0x54E SWAP2 SWAP1 PUSH2 0x19B4 JUMP JUMPDEST SWAP3 POP PUSH2 0x100 EXP DUP2 SLOAD DUP2 PUSH1 0xFF MUL NOT AND SWAP1 DUP4 PUSH1 0xFF AND MUL OR SWAP1 SSTORE POP POP POP JUMP JUMPDEST PUSH1 0x0 DUP1 SLOAD SWAP1 PUSH2 0x100 EXP SWAP1 DIV PUSH20 0xFFFFFFFFFFFFFFFFFFFFFFFFFFFFFFFFFFFFFFFF AND PUSH20 0xFFFFFFFFFFFFFFFFFFFFFFFFFFFFFFFFFFFFFFFF AND CALLER PUSH20 0xFFFFFFFFFFFFFFFFFFFFFFFFFFFFFFFFFFFFFFFF AND EQ PUSH2 0x5F8 JUMPI PUSH1 0x40 MLOAD PUSH32 0x8C379A000000000000000000000000000000000000000000000000000000000 DUP2 MSTORE PUSH1 0x4 ADD PUSH2 0x5EF SWAP1 PUSH2 0x1782 JUMP JUMPDEST PUSH1 0x40 MLOAD DUP1 SWAP2 SUB SWAP1 REVERT JUMPDEST PUSH1 0x0 PUSH1 0x1 PUSH1 0x0 DUP4 PUSH20 0xFFFFFFFFFFFFFFFFFFFFFFFFFFFFFFFFFFFFFFFF AND PUSH20 0xFFFFFFFFFFFFFFFFFFFFFFFFFFFFFFFFFFFFFFFF AND DUP2 MSTORE PUSH1 0x20 ADD SWAP1 DUP2 MSTORE PUSH1 0x20 ADD PUSH1 0x0 KECCAK256 PUSH1 0x2 ADD PUSH1 0x2 PUSH2 0x100 EXP DUP2 SLOAD DUP2 PUSH1 0xFF MUL NOT AND SWAP1 DUP4 ISZERO ISZERO MUL OR SWAP1 SSTORE POP POP JUMP JUMPDEST PUSH1 0x60 PUSH1 0x0 DUP1 PUSH1 0x0 DUP1 PUSH1 0x0 SWAP1 SLOAD SWAP1 PUSH2 0x100 EXP SWAP1 DIV PUSH20 0xFFFFFFFFFFFFFFFFFFFFFFFFFFFFFFFFFFFFFFFF AND PUSH20 0xFFFFFFFFFFFFFFFFFFFFFFFFFFFFFFFFFFFFFFFF AND CALLER PUSH20 0xFFFFFFFFFFFFFFFFFFFFFFFFFFFFFFFFFFFFFFFF AND EQ PUSH2 0x6EC JUMPI PUSH1 0x40 MLOAD PUSH32 0x8C379A000000000000000000000000000000000000000000000000000000000 DUP2 MSTORE PUSH1 0x4 ADD PUSH2 0x6E3 SWAP1 PUSH2 0x1782 JUMP JUMPDEST PUSH1 0x40 MLOAD DUP1 SWAP2 SUB SWAP1 REVERT JUMPDEST PUSH1 0x1 PUSH1 0x0 DUP7 PUSH20 0xFFFFFFFFFFFFFFFFFFFFFFFFFFFFFFFFFFFFFFFF AND PUSH20 0xFFFFFFFFFFFFFFFFFFFFFFFFFFFFFFFFFFFFFFFF AND DUP2 MSTORE PUSH1 0x20 ADD SWAP1 DUP2 MSTORE PUSH1 0x20 ADD PUSH1 0x0 KECCAK256 PUSH1 0x1 ADD PUSH1 0x1 PUSH1 0x0 DUP8 PUSH20 0xFFFFFFFFFFFFFFFFFFFFFFFFFFFFFFFFFFFFFFFF AND PUSH20 0xFFFFFFFFFFFFFFFFFFFFFFFFFFFFFFFFFFFFFFFF AND DUP2 MSTORE PUSH1 0x20 ADD SWAP1 DUP2 MSTORE PUSH1 0x20 ADD PUSH1 0x0 KECCAK256 PUSH1 0x2 ADD PUSH1 0x0 SWAP1 SLOAD SWAP1 PUSH2 0x100 EXP SWAP1 DIV PUSH1 0xFF AND PUSH1 0x1 PUSH1 0x0 DUP9 PUSH20 0xFFFFFFFFFFFFFFFFFFFFFFFFFFFFFFFFFFFFFFFF AND PUSH20 0xFFFFFFFFFFFFFFFFFFFFFFFFFFFFFFFFFFFFFFFF AND DUP2 MSTORE PUSH1 0x20 ADD SWAP1 DUP2 MSTORE PUSH1 0x20 ADD PUSH1 0x0 KECCAK256 PUSH1 0x2 ADD PUSH1 0x1 SWAP1 SLOAD SWAP1 PUSH2 0x100 EXP SWAP1 DIV PUSH1 0xFF AND PUSH1 0x1 PUSH1 0x0 DUP10 PUSH20 0xFFFFFFFFFFFFFFFFFFFFFFFFFFFFFFFFFFFFFFFF AND PUSH20 0xFFFFFFFFFFFFFFFFFFFFFFFFFFFFFFFFFFFFFFFF AND DUP2 MSTORE PUSH1 0x20 ADD SWAP1 DUP2 MSTORE PUSH1 0x20 ADD PUSH1 0x0 KECCAK256 PUSH1 0x2 ADD PUSH1 0x2 SWAP1 SLOAD SWAP1 PUSH2 0x100 EXP SWAP1 DIV PUSH1 0xFF AND DUP4 DUP1 SLOAD PUSH2 0x82A SWAP1 PUSH2 0x1A18 JUMP JUMPDEST DUP1 PUSH1 0x1F ADD PUSH1 0x20 DUP1 SWAP2 DIV MUL PUSH1 0x20 ADD PUSH1 0x40 MLOAD SWAP1 DUP2 ADD PUSH1 0x40 MSTORE DUP1 SWAP3 SWAP2 SWAP1 DUP2 DUP2 MSTORE PUSH1 0x20 ADD DUP3 DUP1 SLOAD PUSH2 0x856 SWAP1 PUSH2 0x1A18 JUMP JUMPDEST DUP1 ISZERO PUSH2 0x8A3 JUMPI DUP1 PUSH1 0x1F LT PUSH2 0x878 JUMPI PUSH2 0x100 DUP1 DUP4 SLOAD DIV MUL DUP4 MSTORE SWAP2 PUSH1 0x20 ADD SWAP2 PUSH2 0x8A3 JUMP JUMPDEST DUP3 ADD SWAP2 SWAP1 PUSH1 0x0 MSTORE PUSH1 0x20 PUSH1 0x0 KECCAK256 SWAP1 JUMPDEST DUP2 SLOAD DUP2 MSTORE SWAP1 PUSH1 0x1 ADD SWAP1 PUSH1 0x20 ADD DUP1 DUP4 GT PUSH2 0x886 JUMPI DUP3 SWAP1 SUB PUSH1 0x1F AND DUP3 ADD SWAP2 JUMPDEST POP POP POP POP POP SWAP4 POP SWAP4 POP SWAP4 POP SWAP4 POP SWAP4 POP SWAP2 SWAP4 POP SWAP2 SWAP4 JUMP JUMPDEST PUSH1 0x0 DUP1 SLOAD SWAP1 PUSH2 0x100 EXP SWAP1 DIV PUSH20 0xFFFFFFFFFFFFFFFFFFFFFFFFFFFFFFFFFFFFFFFF AND PUSH20 0xFFFFFFFFFFFFFFFFFFFFFFFFFFFFFFFFFFFFFFFF AND CALLER PUSH20 0xFFFFFFFFFFFFFFFFFFFFFFFFFFFFFFFFFFFFFFFF AND EQ PUSH2 0x947 JUMPI PUSH1 0x40 MLOAD PUSH32 0x8C379A000000000000000000000000000000000000000000000000000000000 DUP2 MSTORE PUSH1 0x4 ADD PUSH2 0x93E SWAP1 PUSH2 0x1782 JUMP JUMPDEST PUSH1 0x40 MLOAD DUP1 SWAP2 SUB SWAP1 REVERT JUMPDEST PUSH1 0x1 DUP1 PUSH1 0x0 DUP4 PUSH20 0xFFFFFFFFFFFFFFFFFFFFFFFFFFFFFFFFFFFFFFFF AND PUSH20 0xFFFFFFFFFFFFFFFFFFFFFFFFFFFFFFFFFFFFFFFF AND DUP2 MSTORE PUSH1 0x20 ADD SWAP1 DUP2 MSTORE PUSH1 0x20 ADD PUSH1 0x0 KECCAK256 PUSH1 0x2 ADD PUSH1 0x1 PUSH2 0x100 EXP DUP2 SLOAD DUP2 PUSH1 0xFF MUL NOT AND SWAP1 DUP4 ISZERO ISZERO MUL OR SWAP1 SSTORE POP POP JUMP JUMPDEST PUSH1 0x60 DUP1 PUSH1 0x60 PUSH1 0x0 DUP1 PUSH1 0x0 SWAP1 SLOAD SWAP1 PUSH2 0x100 EXP SWAP1 DIV PUSH20 0xFFFFFFFFFFFFFFFFFFFFFFFFFFFFFFFFFFFFFFFF AND PUSH20 0xFFFFFFFFFFFFFFFFFFFFFFFFFFFFFFFFFFFFFFFF AND CALLER PUSH20 0xFFFFFFFFFFFFFFFFFFFFFFFFFFFFFFFFFFFFFFFF AND SUB PUSH2 0xA3A JUMPI PUSH1 0x40 MLOAD PUSH32 0x8C379A000000000000000000000000000000000000000000000000000000000 DUP2 MSTORE PUSH1 0x4 ADD PUSH2 0xA31 SWAP1 PUSH2 0x17EE JUMP JUMPDEST PUSH1 0x40 MLOAD DUP1 SWAP2 SUB SWAP1 REVERT JUMPDEST PUSH1 0x2 DUP6 PUSH1 0x40 MLOAD PUSH2 0xA4A SWAP2 SWAP1 PUSH2 0x184A JUMP JUMPDEST SWAP1 DUP2 MSTORE PUSH1 0x20 ADD PUSH1 0x40 MLOAD DUP1 SWAP2 SUB SWAP1 KECCAK256 PUSH1 0x0 ADD PUSH1 0x2 DUP7 PUSH1 0x40 MLOAD PUSH2 0xA6B SWAP2 SWAP1 PUSH2 0x184A JUMP JUMPDEST SWAP1 DUP2 MSTORE PUSH1 0x20 ADD PUSH1 0x40 MLOAD DUP1 SWAP2 SUB SWAP1 KECCAK256 PUSH1 0x1 ADD PUSH1 0x2 DUP8 PUSH1 0x40 MLOAD PUSH2 0xA8C SWAP2 SWAP1 PUSH2 0x184A JUMP JUMPDEST SWAP1 DUP2 MSTORE PUSH1 0x20 ADD PUSH1 0x40 MLOAD DUP1 SWAP2 SUB SWAP1 KECCAK256 PUSH1 0x3 ADD PUSH1 0x2 DUP9 PUSH1 0x40 MLOAD PUSH2 0xAAD SWAP2 SWAP1 PUSH2 0x184A JUMP JUMPDEST SWAP1 DUP2 MSTORE PUSH1 0x20 ADD PUSH1 0x40 MLOAD DUP1 SWAP2 SUB SWAP1 KECCAK256 PUSH1 0x4 ADD PUSH1 0x0 SWAP1 SLOAD SWAP1 PUSH2 0x100 EXP SWAP1 DIV PUSH1 0xFF AND DUP4 DUP1 SLOAD PUSH2 0xAD8 SWAP1 PUSH2 0x1A18 JUMP JUMPDEST DUP1 PUSH1 0x1F ADD PUSH1 0x20 DUP1 SWAP2 DIV MUL PUSH1 0x20 ADD PUSH1 0x40 MLOAD SWAP1 DUP2 ADD PUSH1 0x40 MSTORE DUP1 SWAP3 SWAP2 SWAP1 DUP2 DUP2 MSTORE PUSH1 0x20 ADD DUP3 DUP1 SLOAD PUSH2 0xB04 SWAP1 PUSH2 0x1A18 JUMP JUMPDEST DUP1 ISZERO PUSH2 0xB51 JUMPI DUP1 PUSH1 0x1F LT PUSH2 0xB26 JUMPI PUSH2 0x100 DUP1 DUP4 SLOAD DIV MUL DUP4 MSTORE SWAP2 PUSH1 0x20 ADD SWAP2 PUSH2 0xB51 JUMP JUMPDEST DUP3 ADD SWAP2 SWAP1 PUSH1 0x0 MSTORE PUSH1 0x20 PUSH1 0x0 KECCAK256 SWAP1 JUMPDEST DUP2 SLOAD DUP2 MSTORE SWAP1 PUSH1 0x1 ADD SWAP1 PUSH1 0x20 ADD DUP1 DUP4 GT PUSH2 0xB34 JUMPI DUP3 SWAP1 SUB PUSH1 0x1F AND DUP3 ADD SWAP2 JUMPDEST POP POP POP POP POP SWAP4 POP DUP3 DUP1 SLOAD PUSH2 0xB64 SWAP1 PUSH2 0x1A18 JUMP JUMPDEST DUP1 PUSH1 0x1F ADD PUSH1 0x20 DUP1 SWAP2 DIV MUL PUSH1 0x20 ADD PUSH1 0x40 MLOAD SWAP1 DUP2 ADD PUSH1 0x40 MSTORE DUP1 SWAP3 SWAP2 SWAP1 DUP2 DUP2 MSTORE PUSH1 0x20 ADD DUP3 DUP1 SLOAD PUSH2 0xB90 SWAP1 PUSH2 0x1A18 JUMP JUMPDEST DUP1 ISZERO PUSH2 0xBDD JUMPI DUP1 PUSH1 0x1F LT PUSH2 0xBB2 JUMPI PUSH2 0x100 DUP1 DUP4 SLOAD DIV MUL DUP4 MSTORE SWAP2 PUSH1 0x20 ADD SWAP2 PUSH2 0xBDD JUMP JUMPDEST DUP3 ADD SWAP2 SWAP1 PUSH1 0x0 MSTORE PUSH1 0x20 PUSH1 0x0 KECCAK256 SWAP1 JUMPDEST DUP2 SLOAD DUP2 MSTORE SWAP1 PUSH1 0x1 ADD SWAP1 PUSH1 0x20 ADD DUP1 DUP4 GT PUSH2 0xBC0 JUMPI DUP3 SWAP1 SUB PUSH1 0x1F AND DUP3 ADD SWAP2 JUMPDEST POP POP POP POP POP SWAP3 POP DUP2 DUP1 SLOAD PUSH2 0xBF0 SWAP1 PUSH2 0x1A18 JUMP JUMPDEST DUP1 PUSH1 0x1F ADD PUSH1 0x20 DUP1 SWAP2 DIV MUL PUSH1 0x20 ADD PUSH1 0x40 MLOAD SWAP1 DUP2 ADD PUSH1 0x40 MSTORE DUP1 SWAP3 SWAP2 SWAP1 DUP2 DUP2 MSTORE PUSH1 0x20 ADD DUP3 DUP1 SLOAD PUSH2 0xC1C SWAP1 PUSH2 0x1A18 JUMP JUMPDEST DUP1 ISZERO PUSH2 0xC69 JUMPI DUP1 PUSH1 0x1F LT PUSH2 0xC3E JUMPI PUSH2 0x100 DUP1 DUP4 SLOAD DIV MUL DUP4 MSTORE SWAP2 PUSH1 0x20 ADD SWAP2 PUSH2 0xC69 JUMP JUMPDEST DUP3 ADD SWAP2 SWAP1 PUSH1 0x0 MSTORE PUSH1 0x20 PUSH1 0x0 KECCAK256 SWAP1 JUMPDEST DUP2 SLOAD DUP2 MSTORE SWAP1 PUSH1 0x1 ADD SWAP1 PUSH1 0x20 ADD DUP1 DUP4 GT PUSH2 0xC4C JUMPI DUP3 SWAP1 SUB PUSH1 0x1F AND DUP3 ADD SWAP2 JUMPDEST POP POP POP POP POP SWAP2 POP SWAP4 POP SWAP4 POP SWAP4 POP SWAP4 POP SWAP2 SWAP4 POP SWAP2 SWAP4 JUMP JUMPDEST PUSH1 0x0 DUP1 SLOAD SWAP1 PUSH2 0x100 EXP SWAP1 DIV PUSH20 0xFFFFFFFFFFFFFFFFFFFFFFFFFFFFFFFFFFFFFFFF AND PUSH20 0xFFFFFFFFFFFFFFFFFFFFFFFFFFFFFFFFFFFFFFFF AND CALLER PUSH20 0xFFFFFFFFFFFFFFFFFFFFFFFFFFFFFFFFFFFFFFFF AND EQ PUSH2 0xD0D JUMPI PUSH1 0x40 MLOAD PUSH32 0x8C379A000000000000000000000000000000000000000000000000000000000 DUP2 MSTORE PUSH1 0x4 ADD PUSH2 0xD04 SWAP1 PUSH2 0x1782 JUMP JUMPDEST PUSH1 0x40 MLOAD DUP1 SWAP2 SUB SWAP1 REVERT JUMPDEST DUP1 PUSH1 0x1 PUSH1 0x0 DUP4 PUSH20 0xFFFFFFFFFFFFFFFFFFFFFFFFFFFFFFFFFFFFFFFF AND PUSH20 0xFFFFFFFFFFFFFFFFFFFFFFFFFFFFFFFFFFFFFFFF AND DUP2 MSTORE PUSH1 0x20 ADD SWAP1 DUP2 MSTORE PUSH1 0x20 ADD PUSH1 0x0 KECCAK256 PUSH1 0x0 ADD PUSH1 0x0 PUSH2 0x100 EXP DUP2 SLOAD DUP2 PUSH20 0xFFFFFFFFFFFFFFFFFFFFFFFFFFFFFFFFFFFFFFFF MUL NOT AND SWAP1 DUP4 PUSH20 0xFFFFFFFFFFFFFFFFFFFFFFFFFFFFFFFFFFFFFFFF AND MUL OR SWAP1 SSTORE POP DUP2 PUSH1 0x1 PUSH1 0x0 DUP4 PUSH20 0xFFFFFFFFFFFFFFFFFFFFFFFFFFFFFFFFFFFFFFFF AND PUSH20 0xFFFFFFFFFFFFFFFFFFFFFFFFFFFFFFFFFFFFFFFF AND DUP2 MSTORE PUSH1 0x20 ADD SWAP1 DUP2 MSTORE PUSH1 0x20 ADD PUSH1 0x0 KECCAK256 PUSH1 0x1 ADD SWAP1 DUP2 PUSH2 0xDDD SWAP2 SWAP1 PUSH2 0x1BFF JUMP JUMPDEST POP PUSH1 0x1 DUP1 PUSH1 0x0 DUP4 PUSH20 0xFFFFFFFFFFFFFFFFFFFFFFFFFFFFFFFFFFFFFFFF AND PUSH20 0xFFFFFFFFFFFFFFFFFFFFFFFFFFFFFFFFFFFFFFFF AND DUP2 MSTORE PUSH1 0x20 ADD SWAP1 DUP2 MSTORE PUSH1 0x20 ADD PUSH1 0x0 KECCAK256 PUSH1 0x2 ADD PUSH1 0x1 PUSH2 0x100 EXP DUP2 SLOAD DUP2 PUSH1 0xFF MUL NOT AND SWAP1 DUP4 ISZERO ISZERO MUL OR SWAP1 SSTORE POP PUSH1 0x1 DUP1 PUSH1 0x0 DUP4 PUSH20 0xFFFFFFFFFFFFFFFFFFFFFFFFFFFFFFFFFFFFFFFF AND PUSH20 0xFFFFFFFFFFFFFFFFFFFFFFFFFFFFFFFFFFFFFFFF AND DUP2 MSTORE PUSH1 0x20 ADD SWAP1 DUP2 MSTORE PUSH1 0x20 ADD PUSH1 0x0 KECCAK256 PUSH1 0x2 ADD PUSH1 0x2 PUSH2 0x100 EXP DUP2 SLOAD DUP2 PUSH1 0xFF MUL NOT AND SWAP1 DUP4 ISZERO ISZERO MUL OR SWAP1 SSTORE POP POP POP JUMP JUMPDEST PUSH1 0x0 DUP1 PUSH1 0x0 SWAP1 SLOAD SWAP1 PUSH2 0x100 EXP SWAP1 DIV PUSH20 0xFFFFFFFFFFFFFFFFFFFFFFFFFFFFFFFFFFFFFFFF AND PUSH20 0xFFFFFFFFFFFFFFFFFFFFFFFFFFFFFFFFFFFFFFFF AND CALLER PUSH20 0xFFFFFFFFFFFFFFFFFFFFFFFFFFFFFFFFFFFFFFFF AND SUB PUSH2 0xF27 JUMPI PUSH1 0x40 MLOAD PUSH32 0x8C379A000000000000000000000000000000000000000000000000000000000 DUP2 MSTORE PUSH1 0x4 ADD PUSH2 0xF1E SWAP1 PUSH2 0x17EE JUMP JUMPDEST PUSH1 0x40 MLOAD DUP1 SWAP2 SUB SWAP1 REVERT JUMPDEST PUSH1 0x2 DUP3 PUSH1 0x40 MLOAD PUSH2 0xF37 SWAP2 SWAP1 PUSH2 0x184A JUMP JUMPDEST SWAP1 DUP2 MSTORE PUSH1 0x20 ADD PUSH1 0x40 MLOAD DUP1 SWAP2 SUB SWAP1 KECCAK256 PUSH1 0x4 ADD PUSH1 0x0 SWAP1 SLOAD SWAP1 PUSH2 0x100 EXP SWAP1 DIV PUSH1 0xFF AND SWAP1 POP SWAP2 SWAP1 POP JUMP JUMPDEST PUSH1 0x0 DUP1 SLOAD SWAP1 PUSH2 0x100 EXP SWAP1 DIV PUSH20 0xFFFFFFFFFFFFFFFFFFFFFFFFFFFFFFFFFFFFFFFF AND PUSH20 0xFFFFFFFFFFFFFFFFFFFFFFFFFFFFFFFFFFFFFFFF AND CALLER PUSH20 0xFFFFFFFFFFFFFFFFFFFFFFFFFFFFFFFFFFFFFFFF AND SUB PUSH2 0xFEB JUMPI PUSH1 0x40 MLOAD PUSH32 0x8C379A000000000000000000000000000000000000000000000000000000000 DUP2 MSTORE PUSH1 0x4 ADD PUSH2 0xFE2 SWAP1 PUSH2 0x17EE JUMP JUMPDEST PUSH1 0x40 MLOAD DUP1 SWAP2 SUB SWAP1 REVERT JUMPDEST PUSH1 0x1 PUSH1 0x0 CALLER PUSH20 0xFFFFFFFFFFFFFFFFFFFFFFFFFFFFFFFFFFFFFFFF AND PUSH20 0xFFFFFFFFFFFFFFFFFFFFFFFFFFFFFFFFFFFFFFFF AND DUP2 MSTORE PUSH1 0x20 ADD SWAP1 DUP2 MSTORE PUSH1 0x20 ADD PUSH1 0x0 KECCAK256 PUSH1 0x2 ADD PUSH1 0x1 SWAP1 SLOAD SWAP1 PUSH2 0x100 EXP SWAP1 DIV PUSH1 0xFF AND PUSH2 0x107A JUMPI PUSH1 0x40 MLOAD PUSH32 0x8C379A000000000000000000000000000000000000000000000000000000000 DUP2 MSTORE PUSH1 0x4 ADD PUSH2 0x1071 SWAP1 PUSH2 0x1D43 JUMP JUMPDEST PUSH1 0x40 MLOAD DUP1 SWAP2 SUB SWAP1 REVERT JUMPDEST DUP2 PUSH1 0x2 DUP4 PUSH1 0x40 MLOAD PUSH2 0x108B SWAP2 SWAP1 PUSH2 0x184A JUMP JUMPDEST SWAP1 DUP2 MSTORE PUSH1 0x20 ADD PUSH1 0x40 MLOAD DUP1 SWAP2 SUB SWAP1 KECCAK256 PUSH1 0x0 ADD SWAP1 DUP2 PUSH2 0x10A8 SWAP2 SWAP1 PUSH2 0x1BFF JUMP JUMPDEST POP DUP1 PUSH1 0x2 DUP4 PUSH1 0x40 MLOAD PUSH2 0x10BA SWAP2 SWAP1 PUSH2 0x184A JUMP JUMPDEST SWAP1 DUP2 MSTORE PUSH1 0x20 ADD PUSH1 0x40 MLOAD DUP1 SWAP2 SUB SWAP1 KECCAK256 PUSH1 0x1 ADD SWAP1 DUP2 PUSH2 0x10D7 SWAP2 SWAP1 PUSH2 0x1BFF JUMP JUMPDEST POP CALLER PUSH1 0x2 DUP4 PUSH1 0x40 MLOAD PUSH2 0x10E9 SWAP2 SWAP1 PUSH2 0x184A JUMP JUMPDEST SWAP1 DUP2 MSTORE PUSH1 0x20 ADD PUSH1 0x40 MLOAD DUP1 SWAP2 SUB SWAP1 KECCAK256 PUSH1 0x2 ADD PUSH1 0x0 PUSH2 0x100 EXP DUP2 SLOAD DUP2 PUSH20 0xFFFFFFFFFFFFFFFFFFFFFFFFFFFFFFFFFFFFFFFF MUL NOT AND SWAP1 DUP4 PUSH20 0xFFFFFFFFFFFFFFFFFFFFFFFFFFFFFFFFFFFFFFFF AND MUL OR SWAP1 SSTORE POP PUSH1 0x1 PUSH1 0x0 CALLER PUSH20 0xFFFFFFFFFFFFFFFFFFFFFFFFFFFFFFFFFFFFFFFF AND PUSH20 0xFFFFFFFFFFFFFFFFFFFFFFFFFFFFFFFFFFFFFFFF AND DUP2 MSTORE PUSH1 0x20 ADD SWAP1 DUP2 MSTORE PUSH1 0x20 ADD PUSH1 0x0 KECCAK256 PUSH1 0x1 ADD PUSH1 0x2 DUP4 PUSH1 0x40 MLOAD PUSH2 0x118A SWAP2 SWAP1 PUSH2 0x184A JUMP JUMPDEST SWAP1 DUP2 MSTORE PUSH1 0x20 ADD PUSH1 0x40 MLOAD DUP1 SWAP2 SUB SWAP1 KECCAK256 PUSH1 0x3 ADD SWAP1 DUP2 PUSH2 0x11A7 SWAP2 SWAP1 PUSH2 0x1D8E JUMP JUMPDEST POP POP POP JUMP JUMPDEST PUSH1 0x0 DUP1 SLOAD SWAP1 PUSH2 0x100 EXP SWAP1 DIV PUSH20 0xFFFFFFFFFFFFFFFFFFFFFFFFFFFFFFFFFFFFFFFF AND PUSH20 0xFFFFFFFFFFFFFFFFFFFFFFFFFFFFFFFFFFFFFFFF AND CALLER PUSH20 0xFFFFFFFFFFFFFFFFFFFFFFFFFFFFFFFFFFFFFFFF AND EQ PUSH2 0x123A JUMPI PUSH1 0x40 MLOAD PUSH32 0x8C379A000000000000000000000000000000000000000000000000000000000 DUP2 MSTORE PUSH1 0x4 ADD PUSH2 0x1231 SWAP1 PUSH2 0x1782 JUMP JUMPDEST PUSH1 0x40 MLOAD DUP1 SWAP2 SUB SWAP1 REVERT JUMPDEST PUSH1 0x1 DUP1 PUSH1 0x0 DUP4 PUSH20 0xFFFFFFFFFFFFFFFFFFFFFFFFFFFFFFFFFFFFFFFF AND PUSH20 0xFFFFFFFFFFFFFFFFFFFFFFFFFFFFFFFFFFFFFFFF AND DUP2 MSTORE PUSH1 0x20 ADD SWAP1 DUP2 MSTORE PUSH1 0x20 ADD PUSH1 0x0 KECCAK256 PUSH1 0x2 ADD PUSH1 0x2 PUSH2 0x100 EXP DUP2 SLOAD DUP2 PUSH1 0xFF MUL NOT AND SWAP1 DUP4 ISZERO ISZERO MUL OR SWAP1 SSTORE POP POP JUMP JUMPDEST PUSH1 0x0 PUSH1 0x40 MLOAD SWAP1 POP SWAP1 JUMP JUMPDEST PUSH1 0x0 DUP1 REVERT JUMPDEST PUSH1 0x0 DUP1 REVERT JUMPDEST PUSH1 0x0 PUSH20 0xFFFFFFFFFFFFFFFFFFFFFFFFFFFFFFFFFFFFFFFF DUP3 AND SWAP1 POP SWAP2 SWAP1 POP JUMP JUMPDEST PUSH1 0x0 PUSH2 0x12D6 DUP3 PUSH2 0x12AB JUMP JUMPDEST SWAP1 POP SWAP2 SWAP1 POP JUMP JUMPDEST PUSH2 0x12E6 DUP2 PUSH2 0x12CB JUMP JUMPDEST DUP2 EQ PUSH2 0x12F1 JUMPI PUSH1 0x0 DUP1 REVERT JUMPDEST POP JUMP JUMPDEST PUSH1 0x0 DUP2 CALLDATALOAD SWAP1 POP PUSH2 0x1303 DUP2 PUSH2 0x12DD JUMP JUMPDEST SWAP3 SWAP2 POP POP JUMP JUMPDEST PUSH1 0x0 PUSH1 0x20 DUP3 DUP5 SUB SLT ISZERO PUSH2 0x131F JUMPI PUSH2 0x131E PUSH2 0x12A1 JUMP JUMPDEST JUMPDEST PUSH1 0x0 PUSH2 0x132D DUP5 DUP3 DUP6 ADD PUSH2 0x12F4 JUMP JUMPDEST SWAP2 POP POP SWAP3 SWAP2 POP POP JUMP JUMPDEST PUSH1 0x0 DUP1 REVERT JUMPDEST PUSH1 0x0 DUP1 REVERT JUMPDEST PUSH1 0x0 PUSH1 0x1F NOT PUSH1 0x1F DUP4 ADD AND SWAP1 POP SWAP2 SWAP1 POP JUMP JUMPDEST PUSH32 0x4E487B7100000000000000000000000000000000000000000000000000000000 PUSH1 0x0 MSTORE PUSH1 0x41 PUSH1 0x4 MSTORE PUSH1 0x24 PUSH1 0x0 REVERT JUMPDEST PUSH2 0x1389 DUP3 PUSH2 0x1340 JUMP JUMPDEST DUP2 ADD DUP2 DUP2 LT PUSH8 0xFFFFFFFFFFFFFFFF DUP3 GT OR ISZERO PUSH2 0x13A8 JUMPI PUSH2 0x13A7 PUSH2 0x1351 JUMP JUMPDEST JUMPDEST DUP1 PUSH1 0x40 MSTORE POP POP POP JUMP JUMPDEST PUSH1 0x0 PUSH2 0x13BB PUSH2 0x1297 JUMP JUMPDEST SWAP1 POP PUSH2 0x13C7 DUP3 DUP3 PUSH2 0x1380 JUMP JUMPDEST SWAP2 SWAP1 POP JUMP JUMPDEST PUSH1 0x0 PUSH8 0xFFFFFFFFFFFFFFFF DUP3 GT ISZERO PUSH2 0x13E7 JUMPI PUSH2 0x13E6 PUSH2 0x1351 JUMP JUMPDEST JUMPDEST PUSH2 0x13F0 DUP3 PUSH2 0x1340 JUMP JUMPDEST SWAP1 POP PUSH1 0x20 DUP2 ADD SWAP1 POP SWAP2 SWAP1 POP JUMP JUMPDEST DUP3 DUP2 DUP4 CALLDATACOPY PUSH1 0x0 DUP4 DUP4 ADD MSTORE POP POP POP JUMP JUMPDEST PUSH1 0x0 PUSH2 0x141F PUSH2 0x141A DUP5 PUSH2 0x13CC JUMP JUMPDEST PUSH2 0x13B1 JUMP JUMPDEST SWAP1 POP DUP3 DUP2 MSTORE PUSH1 0x20 DUP2 ADD DUP5 DUP5 DUP5 ADD GT ISZERO PUSH2 0x143B JUMPI PUSH2 0x143A PUSH2 0x133B JUMP JUMPDEST JUMPDEST PUSH2 0x1446 DUP5 DUP3 DUP6 PUSH2 0x13FD JUMP JUMPDEST POP SWAP4 SWAP3 POP POP POP JUMP JUMPDEST PUSH1 0x0 DUP3 PUSH1 0x1F DUP4 ADD SLT PUSH2 0x1463 JUMPI PUSH2 0x1462 PUSH2 0x1336 JUMP JUMPDEST JUMPDEST DUP2 CALLDATALOAD PUSH2 0x1473 DUP5 DUP3 PUSH1 0x20 DUP7 ADD PUSH2 0x140C JUMP JUMPDEST SWAP2 POP POP SWAP3 SWAP2 POP POP JUMP JUMPDEST PUSH1 0x0 PUSH1 0x20 DUP3 DUP5 SUB SLT ISZERO PUSH2 0x1492 JUMPI PUSH2 0x1491 PUSH2 0x12A1 JUMP JUMPDEST JUMPDEST PUSH1 0x0 DUP3 ADD CALLDATALOAD PUSH8 0xFFFFFFFFFFFFFFFF DUP2 GT ISZERO PUSH2 0x14B0 JUMPI PUSH2 0x14AF PUSH2 0x12A6 JUMP JUMPDEST JUMPDEST PUSH2 0x14BC DUP5 DUP3 DUP6 ADD PUSH2 0x144E JUMP JUMPDEST SWAP2 POP POP SWAP3 SWAP2 POP POP JUMP JUMPDEST PUSH1 0x0 DUP2 MLOAD SWAP1 POP SWAP2 SWAP1 POP JUMP JUMPDEST PUSH1 0x0 DUP3 DUP3 MSTORE PUSH1 0x20 DUP3 ADD SWAP1 POP SWAP3 SWAP2 POP POP JUMP JUMPDEST PUSH1 0x0 JUMPDEST DUP4 DUP2 LT ISZERO PUSH2 0x14FF JUMPI DUP1 DUP3 ADD MLOAD DUP2 DUP5 ADD MSTORE PUSH1 0x20 DUP2 ADD SWAP1 POP PUSH2 0x14E4 JUMP JUMPDEST PUSH1 0x0 DUP5 DUP5 ADD MSTORE POP POP POP POP JUMP JUMPDEST PUSH1 0x0 PUSH2 0x1516 DUP3 PUSH2 0x14C5 JUMP JUMPDEST PUSH2 0x1520 DUP2 DUP6 PUSH2 0x14D0 JUMP JUMPDEST SWAP4 POP PUSH2 0x1530 DUP2 DUP6 PUSH1 0x20 DUP7 ADD PUSH2 0x14E1 JUMP JUMPDEST PUSH2 0x1539 DUP2 PUSH2 0x1340 JUMP JUMPDEST DUP5 ADD SWAP2 POP POP SWAP3 SWAP2 POP POP JUMP JUMPDEST PUSH1 0x0 PUSH1 0xFF DUP3 AND SWAP1 POP SWAP2 SWAP1 POP JUMP JUMPDEST PUSH2 0x155A DUP2 PUSH2 0x1544 JUMP JUMPDEST DUP3 MSTORE POP POP JUMP JUMPDEST PUSH1 0x0 DUP2 ISZERO ISZERO SWAP1 POP SWAP2 SWAP1 POP JUMP JUMPDEST PUSH2 0x1575 DUP2 PUSH2 0x1560 JUMP JUMPDEST DUP3 MSTORE POP POP JUMP JUMPDEST PUSH1 0x0 PUSH1 0x80 DUP3 ADD SWAP1 POP DUP2 DUP2 SUB PUSH1 0x0 DUP4 ADD MSTORE PUSH2 0x1595 DUP2 DUP8 PUSH2 0x150B JUMP JUMPDEST SWAP1 POP PUSH2 0x15A4 PUSH1 0x20 DUP4 ADD DUP7 PUSH2 0x1551 JUMP JUMPDEST PUSH2 0x15B1 PUSH1 0x40 DUP4 ADD DUP6 PUSH2 0x156C JUMP JUMPDEST PUSH2 0x15BE PUSH1 0x60 DUP4 ADD DUP5 PUSH2 0x156C JUMP JUMPDEST SWAP6 SWAP5 POP POP POP POP POP JUMP JUMPDEST PUSH1 0x0 PUSH1 0x80 DUP3 ADD SWAP1 POP DUP2 DUP2 SUB PUSH1 0x0 DUP4 ADD MSTORE PUSH2 0x15E1 DUP2 DUP8 PUSH2 0x150B JUMP JUMPDEST SWAP1 POP DUP2 DUP2 SUB PUSH1 0x20 DUP4 ADD MSTORE PUSH2 0x15F5 DUP2 DUP7 PUSH2 0x150B JUMP JUMPDEST SWAP1 POP DUP2 DUP2 SUB PUSH1 0x40 DUP4 ADD MSTORE PUSH2 0x1609 DUP2 DUP6 PUSH2 0x150B JUMP JUMPDEST SWAP1 POP PUSH2 0x1618 PUSH1 0x60 DUP4 ADD DUP5 PUSH2 0x156C JUMP JUMPDEST SWAP6 SWAP5 POP POP POP POP POP JUMP JUMPDEST PUSH1 0x0 DUP1 PUSH1 0x40 DUP4 DUP6 SUB SLT ISZERO PUSH2 0x1638 JUMPI PUSH2 0x1637 PUSH2 0x12A1 JUMP JUMPDEST JUMPDEST PUSH1 0x0 DUP4 ADD CALLDATALOAD PUSH8 0xFFFFFFFFFFFFFFFF DUP2 GT ISZERO PUSH2 0x1656 JUMPI PUSH2 0x1655 PUSH2 0x12A6 JUMP JUMPDEST JUMPDEST PUSH2 0x1662 DUP6 DUP3 DUP7 ADD PUSH2 0x144E JUMP JUMPDEST SWAP3 POP POP PUSH1 0x20 PUSH2 0x1673 DUP6 DUP3 DUP7 ADD PUSH2 0x12F4 JUMP JUMPDEST SWAP2 POP POP SWAP3 POP SWAP3 SWAP1 POP JUMP JUMPDEST PUSH1 0x0 PUSH1 0x20 DUP3 ADD SWAP1 POP PUSH2 0x1692 PUSH1 0x0 DUP4 ADD DUP5 PUSH2 0x156C JUMP JUMPDEST SWAP3 SWAP2 POP POP JUMP JUMPDEST PUSH1 0x0 DUP1 PUSH1 0x40 DUP4 DUP6 SUB SLT ISZERO PUSH2 0x16AF JUMPI PUSH2 0x16AE PUSH2 0x12A1 JUMP JUMPDEST JUMPDEST PUSH1 0x0 DUP4 ADD CALLDATALOAD PUSH8 0xFFFFFFFFFFFFFFFF DUP2 GT ISZERO PUSH2 0x16CD JUMPI PUSH2 0x16CC PUSH2 0x12A6 JUMP JUMPDEST JUMPDEST PUSH2 0x16D9 DUP6 DUP3 DUP7 ADD PUSH2 0x144E JUMP JUMPDEST SWAP3 POP POP PUSH1 0x20 DUP4 ADD CALLDATALOAD PUSH8 0xFFFFFFFFFFFFFFFF DUP2 GT ISZERO PUSH2 0x16FA JUMPI PUSH2 0x16F9 PUSH2 0x12A6 JUMP JUMPDEST JUMPDEST PUSH2 0x1706 DUP6 DUP3 DUP7 ADD PUSH2 0x144E JUMP JUMPDEST SWAP2 POP POP SWAP3 POP SWAP3 SWAP1 POP JUMP JUMPDEST PUSH32 0x596F7520617265206E6F7420616E2061646D696E20746F20706572666F726D20 PUSH1 0x0 DUP3 ADD MSTORE PUSH32 0x7468697320616374696F6E2E0000000000000000000000000000000000000000 PUSH1 0x20 DUP3 ADD MSTORE POP JUMP JUMPDEST PUSH1 0x0 PUSH2 0x176C PUSH1 0x2C DUP4 PUSH2 0x14D0 JUMP JUMPDEST SWAP2 POP PUSH2 0x1777 DUP3 PUSH2 0x1710 JUMP JUMPDEST PUSH1 0x40 DUP3 ADD SWAP1 POP SWAP2 SWAP1 POP JUMP JUMPDEST PUSH1 0x0 PUSH1 0x20 DUP3 ADD SWAP1 POP DUP2 DUP2 SUB PUSH1 0x0 DUP4 ADD MSTORE PUSH2 0x179B DUP2 PUSH2 0x175F JUMP JUMPDEST SWAP1 POP SWAP2 SWAP1 POP JUMP JUMPDEST PUSH32 0x41646D696E2063616E277420706572666F726D207468697320616374696F6E2E PUSH1 0x0 DUP3 ADD MSTORE POP JUMP JUMPDEST PUSH1 0x0 PUSH2 0x17D8 PUSH1 0x20 DUP4 PUSH2 0x14D0 JUMP JUMPDEST SWAP2 POP PUSH2 0x17E3 DUP3 PUSH2 0x17A2 JUMP JUMPDEST PUSH1 0x20 DUP3 ADD SWAP1 POP SWAP2 SWAP1 POP JUMP JUMPDEST PUSH1 0x0 PUSH1 0x20 DUP3 ADD SWAP1 POP DUP2 DUP2 SUB PUSH1 0x0 DUP4 ADD MSTORE PUSH2 0x1807 DUP2 PUSH2 0x17CB JUMP JUMPDEST SWAP1 POP SWAP2 SWAP1 POP JUMP JUMPDEST PUSH1 0x0 DUP2 SWAP1 POP SWAP3 SWAP2 POP POP JUMP JUMPDEST PUSH1 0x0 PUSH2 0x1824 DUP3 PUSH2 0x14C5 JUMP JUMPDEST PUSH2 0x182E DUP2 DUP6 PUSH2 0x180E JUMP JUMPDEST SWAP4 POP PUSH2 0x183E DUP2 DUP6 PUSH1 0x20 DUP7 ADD PUSH2 0x14E1 JUMP JUMPDEST DUP1 DUP5 ADD SWAP2 POP POP SWAP3 SWAP2 POP POP JUMP JUMPDEST PUSH1 0x0 PUSH2 0x1856 DUP3 DUP5 PUSH2 0x1819 JUMP JUMPDEST SWAP2 POP DUP2 SWAP1 POP SWAP3 SWAP2 POP POP JUMP JUMPDEST PUSH32 0x437573746F6D657220646F65736E27742062656C6F6E6720746F207468697320 PUSH1 0x0 DUP3 ADD MSTORE PUSH32 0x62616E6B00000000000000000000000000000000000000000000000000000000 PUSH1 0x20 DUP3 ADD MSTORE POP JUMP JUMPDEST PUSH1 0x0 PUSH2 0x18BD PUSH1 0x24 DUP4 PUSH2 0x14D0 JUMP JUMPDEST SWAP2 POP PUSH2 0x18C8 DUP3 PUSH2 0x1861 JUMP JUMPDEST PUSH1 0x40 DUP3 ADD SWAP1 POP SWAP2 SWAP1 POP JUMP JUMPDEST PUSH1 0x0 PUSH1 0x20 DUP3 ADD SWAP1 POP DUP2 DUP2 SUB PUSH1 0x0 DUP4 ADD MSTORE PUSH2 0x18EC DUP2 PUSH2 0x18B0 JUMP JUMPDEST SWAP1 POP SWAP2 SWAP1 POP JUMP JUMPDEST PUSH32 0x42616E6B206973206E6F7420616C6C6F77656420746F20706572666F726D204B PUSH1 0x0 DUP3 ADD MSTORE PUSH32 0x79632E0000000000000000000000000000000000000000000000000000000000 PUSH1 0x20 DUP3 ADD MSTORE POP JUMP JUMPDEST PUSH1 0x0 PUSH2 0x194F PUSH1 0x23 DUP4 PUSH2 0x14D0 JUMP JUMPDEST SWAP2 POP PUSH2 0x195A DUP3 PUSH2 0x18F3 JUMP JUMPDEST PUSH1 0x40 DUP3 ADD SWAP1 POP SWAP2 SWAP1 POP JUMP JUMPDEST PUSH1 0x0 PUSH1 0x20 DUP3 ADD SWAP1 POP DUP2 DUP2 SUB PUSH1 0x0 DUP4 ADD MSTORE PUSH2 0x197E DUP2 PUSH2 0x1942 JUMP JUMPDEST SWAP1 POP SWAP2 SWAP1 POP JUMP JUMPDEST PUSH32 0x4E487B7100000000000000000000000000000000000000000000000000000000 PUSH1 0x0 MSTORE PUSH1 0x11 PUSH1 0x4 MSTORE PUSH1 0x24 PUSH1 0x0 REVERT JUMPDEST PUSH1 0x0 PUSH2 0x19BF DUP3 PUSH2 0x1544 JUMP JUMPDEST SWAP2 POP PUSH2 0x19CA DUP4 PUSH2 0x1544 JUMP JUMPDEST SWAP3 POP DUP3 DUP3 ADD SWAP1 POP PUSH1 0xFF DUP2 GT ISZERO PUSH2 0x19E3 JUMPI PUSH2 0x19E2 PUSH2 0x1985 JUMP JUMPDEST JUMPDEST SWAP3 SWAP2 POP POP JUMP JUMPDEST PUSH32 0x4E487B7100000000000000000000000000000000000000000000000000000000 PUSH1 0x0 MSTORE PUSH1 0x22 PUSH1 0x4 MSTORE PUSH1 0x24 PUSH1 0x0 REVERT JUMPDEST PUSH1 0x0 PUSH1 0x2 DUP3 DIV SWAP1 POP PUSH1 0x1 DUP3 AND DUP1 PUSH2 0x1A30 JUMPI PUSH1 0x7F DUP3 AND SWAP2 POP JUMPDEST PUSH1 0x20 DUP3 LT DUP2 SUB PUSH2 0x1A43 JUMPI PUSH2 0x1A42 PUSH2 0x19E9 JUMP JUMPDEST JUMPDEST POP SWAP2 SWAP1 POP JUMP JUMPDEST PUSH1 0x0 DUP2 SWAP1 POP DUP2 PUSH1 0x0 MSTORE PUSH1 0x20 PUSH1 0x0 KECCAK256 SWAP1 POP SWAP2 SWAP1 POP JUMP JUMPDEST PUSH1 0x0 PUSH1 0x20 PUSH1 0x1F DUP4 ADD DIV SWAP1 POP SWAP2 SWAP1 POP JUMP JUMPDEST PUSH1 0x0 DUP3 DUP3 SHL SWAP1 POP SWAP3 SWAP2 POP POP JUMP JUMPDEST PUSH1 0x0 PUSH1 0x8 DUP4 MUL PUSH2 0x1AAB PUSH32 0xFFFFFFFFFFFFFFFFFFFFFFFFFFFFFFFFFFFFFFFFFFFFFFFFFFFFFFFFFFFFFFFF DUP3 PUSH2 0x1A6E JUMP JUMPDEST PUSH2 0x1AB5 DUP7 DUP4 PUSH2 0x1A6E JUMP JUMPDEST SWAP6 POP DUP1 NOT DUP5 AND SWAP4 POP DUP1 DUP7 AND DUP5 OR SWAP3 POP POP POP SWAP4 SWAP3 POP POP POP JUMP JUMPDEST PUSH1 0x0 DUP2 SWAP1 POP SWAP2 SWAP1 POP JUMP JUMPDEST PUSH1 0x0 DUP2 SWAP1 POP SWAP2 SWAP1 POP JUMP JUMPDEST PUSH1 0x0 PUSH2 0x1AFC PUSH2 0x1AF7 PUSH2 0x1AF2 DUP5 PUSH2 0x1ACD JUMP JUMPDEST PUSH2 0x1AD7 JUMP JUMPDEST PUSH2 0x1ACD JUMP JUMPDEST SWAP1 POP SWAP2 SWAP1 POP JUMP JUMPDEST PUSH1 0x0 DUP2 SWAP1 POP SWAP2 SWAP1 POP JUMP JUMPDEST PUSH2 0x1B16 DUP4 PUSH2 0x1AE1 JUMP JUMPDEST PUSH2 0x1B2A PUSH2 0x1B22 DUP3 PUSH2 0x1B03 JUMP JUMPDEST DUP5 DUP5 SLOAD PUSH2 0x1A7B JUMP JUMPDEST DUP3 SSTORE POP POP POP POP JUMP JUMPDEST PUSH1 0x0 SWAP1 JUMP JUMPDEST PUSH2 0x1B3F PUSH2 0x1B32 JUMP JUMPDEST PUSH2 0x1B4A DUP2 DUP5 DUP5 PUSH2 0x1B0D JUMP JUMPDEST POP POP POP JUMP JUMPDEST JUMPDEST DUP2 DUP2 LT ISZERO PUSH2 0x1B6E JUMPI PUSH2 0x1B63 PUSH1 0x0 DUP3 PUSH2 0x1B37 JUMP JUMPDEST PUSH1 0x1 DUP2 ADD SWAP1 POP PUSH2 0x1B50 JUMP JUMPDEST POP POP JUMP JUMPDEST PUSH1 0x1F DUP3 GT ISZERO PUSH2 0x1BB3 JUMPI PUSH2 0x1B84 DUP2 PUSH2 0x1A49 JUMP JUMPDEST PUSH2 0x1B8D DUP5 PUSH2 0x1A5E JUMP JUMPDEST DUP2 ADD PUSH1 0x20 DUP6 LT ISZERO PUSH2 0x1B9C JUMPI DUP2 SWAP1 POP JUMPDEST PUSH2 0x1BB0 PUSH2 0x1BA8 DUP6 PUSH2 0x1A5E JUMP JUMPDEST DUP4 ADD DUP3 PUSH2 0x1B4F JUMP JUMPDEST POP POP JUMPDEST POP POP POP JUMP JUMPDEST PUSH1 0x0 DUP3 DUP3 SHR SWAP1 POP SWAP3 SWAP2 POP POP JUMP JUMPDEST PUSH1 0x0 PUSH2 0x1BD6 PUSH1 0x0 NOT DUP5 PUSH1 0x8 MUL PUSH2 0x1BB8 JUMP JUMPDEST NOT DUP1 DUP4 AND SWAP2 POP POP SWAP3 SWAP2 POP POP JUMP JUMPDEST PUSH1 0x0 PUSH2 0x1BEF DUP4 DUP4 PUSH2 0x1BC5 JUMP JUMPDEST SWAP2 POP DUP3 PUSH1 0x2 MUL DUP3 OR SWAP1 POP SWAP3 SWAP2 POP POP JUMP JUMPDEST PUSH2 0x1C08 DUP3 PUSH2 0x14C5 JUMP JUMPDEST PUSH8 0xFFFFFFFFFFFFFFFF DUP2 GT ISZERO PUSH2 0x1C21 JUMPI PUSH2 0x1C20 PUSH2 0x1351 JUMP JUMPDEST JUMPDEST PUSH2 0x1C2B DUP3 SLOAD PUSH2 0x1A18 JUMP JUMPDEST PUSH2 0x1C36 DUP3 DUP3 DUP6 PUSH2 0x1B72 JUMP JUMPDEST PUSH1 0x0 PUSH1 0x20 SWAP1 POP PUSH1 0x1F DUP4 GT PUSH1 0x1 DUP2 EQ PUSH2 0x1C69 JUMPI PUSH1 0x0 DUP5 ISZERO PUSH2 0x1C57 JUMPI DUP3 DUP8 ADD MLOAD SWAP1 POP JUMPDEST PUSH2 0x1C61 DUP6 DUP3 PUSH2 0x1BE3 JUMP JUMPDEST DUP7 SSTORE POP PUSH2 0x1CC9 JUMP JUMPDEST PUSH1 0x1F NOT DUP5 AND PUSH2 0x1C77 DUP7 PUSH2 0x1A49 JUMP JUMPDEST PUSH1 0x0 JUMPDEST DUP3 DUP2 LT ISZERO PUSH2 0x1C9F JUMPI DUP5 DUP10 ADD MLOAD DUP3 SSTORE PUSH1 0x1 DUP3 ADD SWAP2 POP PUSH1 0x20 DUP6 ADD SWAP5 POP PUSH1 0x20 DUP2 ADD SWAP1 POP PUSH2 0x1C7A JUMP JUMPDEST DUP7 DUP4 LT ISZERO PUSH2 0x1CBC JUMPI DUP5 DUP10 ADD MLOAD PUSH2 0x1CB8 PUSH1 0x1F DUP10 AND DUP3 PUSH2 0x1BC5 JUMP JUMPDEST DUP4 SSTORE POP JUMPDEST PUSH1 0x1 PUSH1 0x2 DUP9 MUL ADD DUP9 SSTORE POP POP POP JUMPDEST POP POP POP POP POP POP JUMP JUMPDEST PUSH32 0x42616E6B206973206E6F7420616C6C6F77656420746F20616464206E65772063 PUSH1 0x0 DUP3 ADD MSTORE PUSH32 0x7573746F6D65722E000000000000000000000000000000000000000000000000 PUSH1 0x20 DUP3 ADD MSTORE POP JUMP JUMPDEST PUSH1 0x0 PUSH2 0x1D2D PUSH1 0x28 DUP4 PUSH2 0x14D0 JUMP JUMPDEST SWAP2 POP PUSH2 0x1D38 DUP3 PUSH2 0x1CD1 JUMP JUMPDEST PUSH1 0x40 DUP3 ADD SWAP1 POP SWAP2 SWAP1 POP JUMP JUMPDEST PUSH1 0x0 PUSH1 0x20 DUP3 ADD SWAP1 POP DUP2 DUP2 SUB PUSH1 0x0 DUP4 ADD MSTORE PUSH2 0x1D5C DUP2 PUSH2 0x1D20 JUMP JUMPDEST SWAP1 POP SWAP2 SWAP1 POP JUMP JUMPDEST PUSH1 0x0 DUP2 SLOAD SWAP1 POP PUSH2 0x1D72 DUP2 PUSH2 0x1A18 JUMP JUMPDEST SWAP1 POP SWAP2 SWAP1 POP JUMP JUMPDEST PUSH1 0x0 DUP2 SWAP1 POP DUP2 PUSH1 0x0 MSTORE PUSH1 0x20 PUSH1 0x0 KECCAK256 SWAP1 POP SWAP2 SWAP1 POP JUMP JUMPDEST DUP2 DUP2 SUB PUSH2 0x1D9C JUMPI POP POP PUSH2 0x1E74 JUMP JUMPDEST PUSH2 0x1DA5 DUP3 PUSH2 0x1D63 JUMP JUMPDEST PUSH8 0xFFFFFFFFFFFFFFFF DUP2 GT ISZERO PUSH2 0x1DBE JUMPI PUSH2 0x1DBD PUSH2 0x1351 JUMP JUMPDEST JUMPDEST PUSH2 0x1DC8 DUP3 SLOAD PUSH2 0x1A18 JUMP JUMPDEST PUSH2 0x1DD3 DUP3 DUP3 DUP6 PUSH2 0x1B72 JUMP JUMPDEST PUSH1 0x0 PUSH1 0x1F DUP4 GT PUSH1 0x1 DUP2 EQ PUSH2 0x1E02 JUMPI PUSH1 0x0 DUP5 ISZERO PUSH2 0x1DF0 JUMPI DUP3 DUP8 ADD SLOAD SWAP1 POP JUMPDEST PUSH2 0x1DFA DUP6 DUP3 PUSH2 0x1BE3 JUMP JUMPDEST DUP7 SSTORE POP PUSH2 0x1E6D JUMP JUMPDEST PUSH1 0x1F NOT DUP5 AND PUSH2 0x1E10 DUP8 PUSH2 0x1D79 JUMP JUMPDEST SWAP7 POP PUSH2 0x1E1B DUP7 PUSH2 0x1A49 JUMP JUMPDEST PUSH1 0x0 JUMPDEST DUP3 DUP2 LT ISZERO PUSH2 0x1E43 JUMPI DUP5 DUP10 ADD SLOAD DUP3 SSTORE PUSH1 0x1 DUP3 ADD SWAP2 POP PUSH1 0x1 DUP6 ADD SWAP5 POP PUSH1 0x20 DUP2 ADD SWAP1 POP PUSH2 0x1E1E JUMP JUMPDEST DUP7 DUP4 LT ISZERO PUSH2 0x1E60 JUMPI DUP5 DUP10 ADD SLOAD PUSH2 0x1E5C PUSH1 0x1F DUP10 AND DUP3 PUSH2 0x1BC5 JUMP JUMPDEST DUP4 SSTORE POP JUMPDEST PUSH1 0x1 PUSH1 0x2 DUP9 MUL ADD DUP9 SSTORE POP POP POP JUMPDEST POP POP POP POP POP POP JUMPDEST JUMP INVALID LOG2 PUSH5 0x6970667358 0x22 SLT KECCAK256 BASEFEE CODESIZE PUSH16 0xF7F7D0066DAB52E5657732BA43AAB572 CODECOPY JUMPI PUSH16 0x4A6E75DBD1ABDB0DA75864736F6C6343 STOP ADDMOD GT STOP CALLER "
				},
				"gasEstimates": {
					"creation": {
						"codeDepositCost": "1570400",
						"executionCost": "25911",
						"totalCost": "1596311"
					},
					"external": {
						"addNewCustomer(string,string)": "infinite",
						"addNewbank(string,address)": "infinite",
						"allowBankToAddNewCustomer(address)": "27124",
						"allowBankToPerformKyc(address)": "27123",
						"blockBankToAddNewCustomer(address)": "27036",
						"blockBankToPerformKyc(address)": "27080",
						"checkKycSattus(string)": "infinite",
						"getBankDetails(address)": "infinite",
						"updateKyc(string)": "infinite",
						"viewCustomerData(string)": "infinite"
					}
				},
				"methodIdentifiers": {
					"addNewCustomer(string,string)": "ad03352d",
					"addNewbank(string,address)": "875deaa1",
					"allowBankToAddNewCustomer(address)": "1b2cad48",
					"allowBankToPerformKyc(address)": "c50ab8c4",
					"blockBankToAddNewCustomer(address)": "01fc9e9f",
					"blockBankToPerformKyc(address)": "0956bd29",
					"checkKycSattus(string)": "892d7869",
					"getBankDetails(address)": "15101e02",
					"updateKyc(string)": "0935ac56",
					"viewCustomerData(string)": "4a6c2f61"
				}
			},
			"storageLayout": {
				"storage": [
					{
						"astId": 3,
						"contract": "contracts/KYC.sol:CustomerKYC",
						"label": "centralBankAddress",
						"offset": 0,
						"slot": "0",
						"type": "t_address"
					},
					{
						"astId": 106,
						"contract": "contracts/KYC.sol:CustomerKYC",
						"label": "banks",
						"offset": 0,
						"slot": "1",
						"type": "t_mapping(t_address,t_struct(Bank)90_storage)"
					},
					{
						"astId": 111,
						"contract": "contracts/KYC.sol:CustomerKYC",
						"label": "customers",
						"offset": 0,
						"slot": "2",
						"type": "t_mapping(t_string_memory_ptr,t_struct(Customer)101_storage)"
					}
				],
				"types": {
					"t_address": {
						"encoding": "inplace",
						"label": "address",
						"numberOfBytes": "20"
					},
					"t_bool": {
						"encoding": "inplace",
						"label": "bool",
						"numberOfBytes": "1"
					},
					"t_mapping(t_address,t_struct(Bank)90_storage)": {
						"encoding": "mapping",
						"key": "t_address",
						"label": "mapping(address => struct CustomerKYC.Bank)",
						"numberOfBytes": "32",
						"value": "t_struct(Bank)90_storage"
					},
					"t_mapping(t_string_memory_ptr,t_struct(Customer)101_storage)": {
						"encoding": "mapping",
						"key": "t_string_memory_ptr",
						"label": "mapping(string => struct CustomerKYC.Customer)",
						"numberOfBytes": "32",
						"value": "t_struct(Customer)101_storage"
					},
					"t_string_memory_ptr": {
						"encoding": "bytes",
						"label": "string",
						"numberOfBytes": "32"
					},
					"t_string_storage": {
						"encoding": "bytes",
						"label": "string",
						"numberOfBytes": "32"
					},
					"t_struct(Bank)90_storage": {
						"encoding": "inplace",
						"label": "struct CustomerKYC.Bank",
						"members": [
							{
								"astId": 81,
								"contract": "contracts/KYC.sol:CustomerKYC",
								"label": "id",
								"offset": 0,
								"slot": "0",
								"type": "t_address"
							},
							{
								"astId": 83,
								"contract": "contracts/KYC.sol:CustomerKYC",
								"label": "name",
								"offset": 0,
								"slot": "1",
								"type": "t_string_storage"
							},
							{
								"astId": 85,
								"contract": "contracts/KYC.sol:CustomerKYC",
								"label": "kycCount",
								"offset": 0,
								"slot": "2",
								"type": "t_uint8"
							},
							{
								"astId": 87,
								"contract": "contracts/KYC.sol:CustomerKYC",
								"label": "addCustomerPrivilege",
								"offset": 1,
								"slot": "2",
								"type": "t_bool"
							},
							{
								"astId": 89,
								"contract": "contracts/KYC.sol:CustomerKYC",
								"label": "kycPrivilege",
								"offset": 2,
								"slot": "2",
								"type": "t_bool"
							}
						],
						"numberOfBytes": "96"
					},
					"t_struct(Customer)101_storage": {
						"encoding": "inplace",
						"label": "struct CustomerKYC.Customer",
						"members": [
							{
								"astId": 92,
								"contract": "contracts/KYC.sol:CustomerKYC",
								"label": "name",
								"offset": 0,
								"slot": "0",
								"type": "t_string_storage"
							},
							{
								"astId": 94,
								"contract": "contracts/KYC.sol:CustomerKYC",
								"label": "data",
								"offset": 0,
								"slot": "1",
								"type": "t_string_storage"
							},
							{
								"astId": 96,
								"contract": "contracts/KYC.sol:CustomerKYC",
								"label": "bankId",
								"offset": 0,
								"slot": "2",
								"type": "t_address"
							},
							{
								"astId": 98,
								"contract": "contracts/KYC.sol:CustomerKYC",
								"label": "bankName",
								"offset": 0,
								"slot": "3",
								"type": "t_string_storage"
							},
							{
								"astId": 100,
								"contract": "contracts/KYC.sol:CustomerKYC",
								"label": "kycStatus",
								"offset": 0,
								"slot": "4",
								"type": "t_bool"
							}
						],
						"numberOfBytes": "160"
					},
					"t_uint8": {
						"encoding": "inplace",
						"label": "uint8",
						"numberOfBytes": "1"
					}
				}
			},
			"userdoc": {
				"kind": "user",
				"methods": {},
				"version": 1
			}
		}
	}
}