{
	"contracts/CustomerKYC.sol": {
		"CustomerKYC": {
			"abi": [
				{
					"inputs": [],
					"stateMutability": "nonpayable",
					"type": "constructor"
				},
				{
					"inputs": [
						{
							"internalType": "string",
							"name": "_name",
							"type": "string"
						},
						{
							"internalType": "string",
							"name": "_data",
							"type": "string"
						}
					],
					"name": "addNewCustomer",
					"outputs": [],
					"stateMutability": "nonpayable",
					"type": "function"
				},
				{
					"inputs": [
						{
							"internalType": "string",
							"name": "_name",
							"type": "string"
						},
						{
							"internalType": "address",
							"name": "_bankAddress",
							"type": "address"
						}
					],
					"name": "addNewbank",
					"outputs": [],
					"stateMutability": "nonpayable",
					"type": "function"
				},
				{
					"inputs": [
						{
							"internalType": "address",
							"name": "_bankAddress",
							"type": "address"
						}
					],
					"name": "allowBankToAddNewCustomer",
					"outputs": [],
					"stateMutability": "nonpayable",
					"type": "function"
				},
				{
					"inputs": [
						{
							"internalType": "address",
							"name": "_bankAddress",
							"type": "address"
						}
					],
					"name": "allowBankToPerformKyc",
					"outputs": [],
					"stateMutability": "nonpayable",
					"type": "function"
				},
				{
					"inputs": [
						{
							"internalType": "address",
							"name": "_bankAddress",
							"type": "address"
						}
					],
					"name": "blockBankToAddNewCustomer",
					"outputs": [],
					"stateMutability": "nonpayable",
					"type": "function"
				},
				{
					"inputs": [
						{
							"internalType": "address",
							"name": "_bankAddress",
							"type": "address"
						}
					],
					"name": "blockBankToPerformKyc",
					"outputs": [],
					"stateMutability": "nonpayable",
					"type": "function"
				},
				{
					"inputs": [
						{
							"internalType": "address",
							"name": "_bankAddress",
							"type": "address"
						}
					],
					"name": "getBankDetails",
					"outputs": [
						{
							"internalType": "string",
							"name": "name",
							"type": "string"
						},
						{
							"internalType": "uint8",
							"name": "kycCount",
							"type": "uint8"
						},
						{
							"internalType": "bool",
							"name": "addCustomerPrivilege",
							"type": "bool"
						},
						{
							"internalType": "bool",
							"name": "kycPrivilege",
							"type": "bool"
						}
					],
					"stateMutability": "view",
					"type": "function"
				},
				{
					"inputs": [
						{
							"internalType": "string",
							"name": "_name",
							"type": "string"
						}
					],
					"name": "getCustomerData",
					"outputs": [
						{
							"internalType": "string",
							"name": "name",
							"type": "string"
						},
						{
							"internalType": "string",
							"name": "data",
							"type": "string"
						},
						{
							"internalType": "string",
							"name": "bankName",
							"type": "string"
						},
						{
							"internalType": "bool",
							"name": "kycStatus",
							"type": "bool"
						}
					],
					"stateMutability": "view",
					"type": "function"
				},
				{
					"inputs": [
						{
							"internalType": "string",
							"name": "_name",
							"type": "string"
						}
					],
					"name": "getKycStatus",
					"outputs": [
						{
							"internalType": "bool",
							"name": "kycStatus",
							"type": "bool"
						}
					],
					"stateMutability": "view",
					"type": "function"
				},
				{
					"inputs": [
						{
							"internalType": "string",
							"name": "_name",
							"type": "string"
						}
					],
					"name": "performKyc",
					"outputs": [],
					"stateMutability": "nonpayable",
					"type": "function"
				}
			],
			"devdoc": {
				"kind": "dev",
				"methods": {},
				"version": 1
			},
			"evm": {
				"assembly": "    /* \"contracts/CustomerKYC.sol\":57:3946  contract CustomerKYC {... */\n  mstore(0x40, 0x80)\n    /* \"contracts/CustomerKYC.sol\":109:163  constructor() {... */\n  callvalue\n  dup1\n  iszero\n  tag_1\n  jumpi\n  0x00\n  dup1\n  revert\ntag_1:\n  pop\n    /* \"contracts/CustomerKYC.sol\":146:156  msg.sender */\n  caller\n    /* \"contracts/CustomerKYC.sol\":133:143  rbiAddress */\n  0x00\n  dup1\n    /* \"contracts/CustomerKYC.sol\":133:156  rbiAddress = msg.sender */\n  0x0100\n  exp\n  dup2\n  sload\n  dup2\n  0xffffffffffffffffffffffffffffffffffffffff\n  mul\n  not\n  and\n  swap1\n  dup4\n  0xffffffffffffffffffffffffffffffffffffffff\n  and\n  mul\n  or\n  swap1\n  sstore\n  pop\n    /* \"contracts/CustomerKYC.sol\":57:3946  contract CustomerKYC {... */\n  dataSize(sub_0)\n  dup1\n  dataOffset(sub_0)\n  0x00\n  codecopy\n  0x00\n  return\nstop\n\nsub_0: assembly {\n        /* \"contracts/CustomerKYC.sol\":57:3946  contract CustomerKYC {... */\n      mstore(0x40, 0x80)\n      callvalue\n      dup1\n      iszero\n      tag_1\n      jumpi\n      0x00\n      dup1\n      revert\n    tag_1:\n      pop\n      jumpi(tag_2, lt(calldatasize, 0x04))\n      shr(0xe0, calldataload(0x00))\n      dup1\n      0x875deaa1\n      gt\n      tag_13\n      jumpi\n      dup1\n      0x875deaa1\n      eq\n      tag_8\n      jumpi\n      dup1\n      0x94b49563\n      eq\n      tag_9\n      jumpi\n      dup1\n      0xad03352d\n      eq\n      tag_10\n      jumpi\n      dup1\n      0xc07691e6\n      eq\n      tag_11\n      jumpi\n      dup1\n      0xc50ab8c4\n      eq\n      tag_12\n      jumpi\n      jump(tag_2)\n    tag_13:\n      dup1\n      0x01fc9e9f\n      eq\n      tag_3\n      jumpi\n      dup1\n      0x0956bd29\n      eq\n      tag_4\n      jumpi\n      dup1\n      0x11ce71c5\n      eq\n      tag_5\n      jumpi\n      dup1\n      0x15101e02\n      eq\n      tag_6\n      jumpi\n      dup1\n      0x1b2cad48\n      eq\n      tag_7\n      jumpi\n    tag_2:\n      0x00\n      dup1\n      revert\n        /* \"contracts/CustomerKYC.sol\":2484:2623  function blockBankToAddNewCustomer(address _bankAddress) public OnlyAdmin {... */\n    tag_3:\n      tag_14\n      0x04\n      dup1\n      calldatasize\n      sub\n      dup2\n      add\n      swap1\n      tag_15\n      swap2\n      swap1\n      tag_16\n      jump\t// in\n    tag_15:\n      tag_17\n      jump\t// in\n    tag_14:\n      stop\n        /* \"contracts/CustomerKYC.sol\":2629:2756  function blockBankToPerformKyc(address _bankAddress) public OnlyAdmin {... */\n    tag_4:\n      tag_18\n      0x04\n      dup1\n      calldatasize\n      sub\n      dup2\n      add\n      swap1\n      tag_19\n      swap2\n      swap1\n      tag_16\n      jump\t// in\n    tag_19:\n      tag_20\n      jump\t// in\n    tag_18:\n      stop\n        /* \"contracts/CustomerKYC.sol\":2251:2478  function performKyc(string memory _name)... */\n    tag_5:\n      tag_21\n      0x04\n      dup1\n      calldatasize\n      sub\n      dup2\n      add\n      swap1\n      tag_22\n      swap2\n      swap1\n      tag_23\n      jump\t// in\n    tag_22:\n      tag_24\n      jump\t// in\n    tag_21:\n      stop\n        /* \"contracts/CustomerKYC.sol\":3477:3944  function getBankDetails(address _bankAddress)... */\n    tag_6:\n      tag_25\n      0x04\n      dup1\n      calldatasize\n      sub\n      dup2\n      add\n      swap1\n      tag_26\n      swap2\n      swap1\n      tag_16\n      jump\t// in\n    tag_26:\n      tag_27\n      jump\t// in\n    tag_25:\n      mload(0x40)\n      tag_28\n      swap5\n      swap4\n      swap3\n      swap2\n      swap1\n      tag_29\n      jump\t// in\n    tag_28:\n      mload(0x40)\n      dup1\n      swap2\n      sub\n      swap1\n      return\n        /* \"contracts/CustomerKYC.sol\":2762:2900  function allowBankToAddNewCustomer(address _bankAddress) public OnlyAdmin {... */\n    tag_7:\n      tag_30\n      0x04\n      dup1\n      calldatasize\n      sub\n      dup2\n      add\n      swap1\n      tag_31\n      swap2\n      swap1\n      tag_16\n      jump\t// in\n    tag_31:\n      tag_32\n      jump\t// in\n    tag_30:\n      stop\n        /* \"contracts/CustomerKYC.sol\":1541:1726  function addNewbank(string memory _name, address _bankAddress) public OnlyAdmin {... */\n    tag_8:\n      tag_33\n      0x04\n      dup1\n      calldatasize\n      sub\n      dup2\n      add\n      swap1\n      tag_34\n      swap2\n      swap1\n      tag_35\n      jump\t// in\n    tag_34:\n      tag_36\n      jump\t// in\n    tag_33:\n      stop\n        /* \"contracts/CustomerKYC.sol\":2068:2245  function getKycStatus(string memory _name)... */\n    tag_9:\n      tag_37\n      0x04\n      dup1\n      calldatasize\n      sub\n      dup2\n      add\n      swap1\n      tag_38\n      swap2\n      swap1\n      tag_23\n      jump\t// in\n    tag_38:\n      tag_39\n      jump\t// in\n    tag_37:\n      mload(0x40)\n      tag_40\n      swap2\n      swap1\n      tag_41\n      jump\t// in\n    tag_40:\n      mload(0x40)\n      dup1\n      swap2\n      sub\n      swap1\n      return\n        /* \"contracts/CustomerKYC.sol\":1732:2062  function addNewCustomer(string memory _name, string memory _data)... */\n    tag_10:\n      tag_42\n      0x04\n      dup1\n      calldatasize\n      sub\n      dup2\n      add\n      swap1\n      tag_43\n      swap2\n      swap1\n      tag_44\n      jump\t// in\n    tag_43:\n      tag_45\n      jump\t// in\n    tag_42:\n      stop\n        /* \"contracts/CustomerKYC.sol\":3038:3471  function getCustomerData(string memory _name)... */\n    tag_11:\n      tag_46\n      0x04\n      dup1\n      calldatasize\n      sub\n      dup2\n      add\n      swap1\n      tag_47\n      swap2\n      swap1\n      tag_23\n      jump\t// in\n    tag_47:\n      tag_48\n      jump\t// in\n    tag_46:\n      mload(0x40)\n      tag_49\n      swap5\n      swap4\n      swap3\n      swap2\n      swap1\n      tag_50\n      jump\t// in\n    tag_49:\n      mload(0x40)\n      dup1\n      swap2\n      sub\n      swap1\n      return\n        /* \"contracts/CustomerKYC.sol\":2906:3032  function allowBankToPerformKyc(address _bankAddress) public OnlyAdmin {... */\n    tag_12:\n      tag_51\n      0x04\n      dup1\n      calldatasize\n      sub\n      dup2\n      add\n      swap1\n      tag_52\n      swap2\n      swap1\n      tag_16\n      jump\t// in\n    tag_52:\n      tag_53\n      jump\t// in\n    tag_51:\n      stop\n        /* \"contracts/CustomerKYC.sol\":2484:2623  function blockBankToAddNewCustomer(address _bankAddress) public OnlyAdmin {... */\n    tag_17:\n        /* \"contracts/CustomerKYC.sol\":235:245  rbiAddress */\n      0x00\n      dup1\n      sload\n      swap1\n      0x0100\n      exp\n      swap1\n      div\n      0xffffffffffffffffffffffffffffffffffffffff\n      and\n        /* \"contracts/CustomerKYC.sol\":221:245  msg.sender == rbiAddress */\n      0xffffffffffffffffffffffffffffffffffffffff\n      and\n        /* \"contracts/CustomerKYC.sol\":221:231  msg.sender */\n      caller\n        /* \"contracts/CustomerKYC.sol\":221:245  msg.sender == rbiAddress */\n      0xffffffffffffffffffffffffffffffffffffffff\n      and\n      eq\n        /* \"contracts/CustomerKYC.sol\":200:306  require(... */\n      tag_55\n      jumpi\n      mload(0x40)\n      0x08c379a000000000000000000000000000000000000000000000000000000000\n      dup2\n      mstore\n      0x04\n      add\n      tag_56\n      swap1\n      tag_57\n      jump\t// in\n    tag_56:\n      mload(0x40)\n      dup1\n      swap2\n      sub\n      swap1\n      revert\n    tag_55:\n        /* \"contracts/CustomerKYC.sol\":2611:2616  false */\n      0x00\n        /* \"contracts/CustomerKYC.sol\":2568:2573  banks */\n      0x01\n        /* \"contracts/CustomerKYC.sol\":2568:2587  banks[_bankAddress] */\n      0x00\n        /* \"contracts/CustomerKYC.sol\":2574:2586  _bankAddress */\n      dup4\n        /* \"contracts/CustomerKYC.sol\":2568:2587  banks[_bankAddress] */\n      0xffffffffffffffffffffffffffffffffffffffff\n      and\n      0xffffffffffffffffffffffffffffffffffffffff\n      and\n      dup2\n      mstore\n      0x20\n      add\n      swap1\n      dup2\n      mstore\n      0x20\n      add\n      0x00\n      keccak256\n        /* \"contracts/CustomerKYC.sol\":2568:2608  banks[_bankAddress].addCustomerPrivilege */\n      0x02\n      add\n      0x01\n        /* \"contracts/CustomerKYC.sol\":2568:2616  banks[_bankAddress].addCustomerPrivilege = false */\n      0x0100\n      exp\n      dup2\n      sload\n      dup2\n      0xff\n      mul\n      not\n      and\n      swap1\n      dup4\n      iszero\n      iszero\n      mul\n      or\n      swap1\n      sstore\n      pop\n        /* \"contracts/CustomerKYC.sol\":2484:2623  function blockBankToAddNewCustomer(address _bankAddress) public OnlyAdmin {... */\n      pop\n      jump\t// out\n        /* \"contracts/CustomerKYC.sol\":2629:2756  function blockBankToPerformKyc(address _bankAddress) public OnlyAdmin {... */\n    tag_20:\n        /* \"contracts/CustomerKYC.sol\":235:245  rbiAddress */\n      0x00\n      dup1\n      sload\n      swap1\n      0x0100\n      exp\n      swap1\n      div\n      0xffffffffffffffffffffffffffffffffffffffff\n      and\n        /* \"contracts/CustomerKYC.sol\":221:245  msg.sender == rbiAddress */\n      0xffffffffffffffffffffffffffffffffffffffff\n      and\n        /* \"contracts/CustomerKYC.sol\":221:231  msg.sender */\n      caller\n        /* \"contracts/CustomerKYC.sol\":221:245  msg.sender == rbiAddress */\n      0xffffffffffffffffffffffffffffffffffffffff\n      and\n      eq\n        /* \"contracts/CustomerKYC.sol\":200:306  require(... */\n      tag_60\n      jumpi\n      mload(0x40)\n      0x08c379a000000000000000000000000000000000000000000000000000000000\n      dup2\n      mstore\n      0x04\n      add\n      tag_61\n      swap1\n      tag_57\n      jump\t// in\n    tag_61:\n      mload(0x40)\n      dup1\n      swap2\n      sub\n      swap1\n      revert\n    tag_60:\n        /* \"contracts/CustomerKYC.sol\":2744:2749  false */\n      0x00\n        /* \"contracts/CustomerKYC.sol\":2709:2714  banks */\n      0x01\n        /* \"contracts/CustomerKYC.sol\":2709:2728  banks[_bankAddress] */\n      0x00\n        /* \"contracts/CustomerKYC.sol\":2715:2727  _bankAddress */\n      dup4\n        /* \"contracts/CustomerKYC.sol\":2709:2728  banks[_bankAddress] */\n      0xffffffffffffffffffffffffffffffffffffffff\n      and\n      0xffffffffffffffffffffffffffffffffffffffff\n      and\n      dup2\n      mstore\n      0x20\n      add\n      swap1\n      dup2\n      mstore\n      0x20\n      add\n      0x00\n      keccak256\n        /* \"contracts/CustomerKYC.sol\":2709:2741  banks[_bankAddress].kycPrivilege */\n      0x02\n      add\n      0x02\n        /* \"contracts/CustomerKYC.sol\":2709:2749  banks[_bankAddress].kycPrivilege = false */\n      0x0100\n      exp\n      dup2\n      sload\n      dup2\n      0xff\n      mul\n      not\n      and\n      swap1\n      dup4\n      iszero\n      iszero\n      mul\n      or\n      swap1\n      sstore\n      pop\n        /* \"contracts/CustomerKYC.sol\":2629:2756  function blockBankToPerformKyc(address _bankAddress) public OnlyAdmin {... */\n      pop\n      jump\t// out\n        /* \"contracts/CustomerKYC.sol\":2251:2478  function performKyc(string memory _name)... */\n    tag_24:\n        /* \"contracts/CustomerKYC.sol\":395:405  rbiAddress */\n      0x00\n      dup1\n      sload\n      swap1\n      0x0100\n      exp\n      swap1\n      div\n      0xffffffffffffffffffffffffffffffffffffffff\n      and\n        /* \"contracts/CustomerKYC.sol\":381:405  msg.sender != rbiAddress */\n      0xffffffffffffffffffffffffffffffffffffffff\n      and\n        /* \"contracts/CustomerKYC.sol\":381:391  msg.sender */\n      caller\n        /* \"contracts/CustomerKYC.sol\":381:405  msg.sender != rbiAddress */\n      0xffffffffffffffffffffffffffffffffffffffff\n      and\n      sub\n        /* \"contracts/CustomerKYC.sol\":360:465  require(... */\n      tag_64\n      jumpi\n      mload(0x40)\n      0x08c379a000000000000000000000000000000000000000000000000000000000\n      dup2\n      mstore\n      0x04\n      add\n      tag_65\n      swap1\n      tag_66\n      jump\t// in\n    tag_65:\n      mload(0x40)\n      dup1\n      swap2\n      sub\n      swap1\n      revert\n    tag_64:\n        /* \"contracts/CustomerKYC.sol\":2352:2357  _name */\n      dup1\n        /* \"contracts/CustomerKYC.sol\":1034:1043  customers */\n      0x02\n        /* \"contracts/CustomerKYC.sol\":1044:1052  custName */\n      dup2\n        /* \"contracts/CustomerKYC.sol\":1034:1053  customers[custName] */\n      mload(0x40)\n      tag_68\n      swap2\n      swap1\n      tag_69\n      jump\t// in\n    tag_68:\n      swap1\n      dup2\n      mstore\n      0x20\n      add\n      mload(0x40)\n      dup1\n      swap2\n      sub\n      swap1\n      keccak256\n        /* \"contracts/CustomerKYC.sol\":1034:1065  customers[custName].bankAddress */\n      0x02\n      add\n      0x00\n      swap1\n      sload\n      swap1\n      0x0100\n      exp\n      swap1\n      div\n      0xffffffffffffffffffffffffffffffffffffffff\n      and\n        /* \"contracts/CustomerKYC.sol\":1020:1065  msg.sender == customers[custName].bankAddress */\n      0xffffffffffffffffffffffffffffffffffffffff\n      and\n        /* \"contracts/CustomerKYC.sol\":1020:1030  msg.sender */\n      caller\n        /* \"contracts/CustomerKYC.sol\":1020:1065  msg.sender == customers[custName].bankAddress */\n      0xffffffffffffffffffffffffffffffffffffffff\n      and\n      eq\n        /* \"contracts/CustomerKYC.sol\":999:1127  require(... */\n      tag_70\n      jumpi\n      mload(0x40)\n      0x08c379a000000000000000000000000000000000000000000000000000000000\n      dup2\n      mstore\n      0x04\n      add\n      tag_71\n      swap1\n      tag_72\n      jump\t// in\n    tag_71:\n      mload(0x40)\n      dup1\n      swap2\n      sub\n      swap1\n      revert\n    tag_70:\n        /* \"contracts/CustomerKYC.sol\":777:782  banks */\n      0x01\n        /* \"contracts/CustomerKYC.sol\":777:794  banks[msg.sender] */\n      0x00\n        /* \"contracts/CustomerKYC.sol\":783:793  msg.sender */\n      caller\n        /* \"contracts/CustomerKYC.sol\":777:794  banks[msg.sender] */\n      0xffffffffffffffffffffffffffffffffffffffff\n      and\n      0xffffffffffffffffffffffffffffffffffffffff\n      and\n      dup2\n      mstore\n      0x20\n      add\n      swap1\n      dup2\n      mstore\n      0x20\n      add\n      0x00\n      keccak256\n        /* \"contracts/CustomerKYC.sol\":777:807  banks[msg.sender].kycPrivilege */\n      0x02\n      add\n      0x02\n      swap1\n      sload\n      swap1\n      0x0100\n      exp\n      swap1\n      div\n      0xff\n      and\n        /* \"contracts/CustomerKYC.sol\":756:912  require(... */\n      tag_74\n      jumpi\n      mload(0x40)\n      0x08c379a000000000000000000000000000000000000000000000000000000000\n      dup2\n      mstore\n      0x04\n      add\n      tag_75\n      swap1\n      tag_76\n      jump\t// in\n    tag_75:\n      mload(0x40)\n      dup1\n      swap2\n      sub\n      swap1\n      revert\n    tag_74:\n        /* \"contracts/CustomerKYC.sol\":2426:2430  true */\n      0x01\n        /* \"contracts/CustomerKYC.sol\":2397:2406  customers */\n      0x02\n        /* \"contracts/CustomerKYC.sol\":2407:2412  _name */\n      dup4\n        /* \"contracts/CustomerKYC.sol\":2397:2413  customers[_name] */\n      mload(0x40)\n      tag_78\n      swap2\n      swap1\n      tag_69\n      jump\t// in\n    tag_78:\n      swap1\n      dup2\n      mstore\n      0x20\n      add\n      mload(0x40)\n      dup1\n      swap2\n      sub\n      swap1\n      keccak256\n        /* \"contracts/CustomerKYC.sol\":2397:2423  customers[_name].kycStatus */\n      0x04\n      add\n      0x00\n        /* \"contracts/CustomerKYC.sol\":2397:2430  customers[_name].kycStatus = true */\n      0x0100\n      exp\n      dup2\n      sload\n      dup2\n      0xff\n      mul\n      not\n      and\n      swap1\n      dup4\n      iszero\n      iszero\n      mul\n      or\n      swap1\n      sstore\n      pop\n        /* \"contracts/CustomerKYC.sol\":2470:2471  1 */\n      0x01\n        /* \"contracts/CustomerKYC.sol\":2440:2445  banks */\n      dup1\n        /* \"contracts/CustomerKYC.sol\":2440:2457  banks[msg.sender] */\n      0x00\n        /* \"contracts/CustomerKYC.sol\":2446:2456  msg.sender */\n      caller\n        /* \"contracts/CustomerKYC.sol\":2440:2457  banks[msg.sender] */\n      0xffffffffffffffffffffffffffffffffffffffff\n      and\n      0xffffffffffffffffffffffffffffffffffffffff\n      and\n      dup2\n      mstore\n      0x20\n      add\n      swap1\n      dup2\n      mstore\n      0x20\n      add\n      0x00\n      keccak256\n        /* \"contracts/CustomerKYC.sol\":2440:2466  banks[msg.sender].kycCount */\n      0x02\n      add\n      0x00\n        /* \"contracts/CustomerKYC.sol\":2440:2471  banks[msg.sender].kycCount += 1 */\n      dup3\n      dup3\n      dup3\n      swap1\n      sload\n      swap1\n      0x0100\n      exp\n      swap1\n      div\n      0xff\n      and\n      tag_79\n      swap2\n      swap1\n      tag_80\n      jump\t// in\n    tag_79:\n      swap3\n      pop\n      0x0100\n      exp\n      dup2\n      sload\n      dup2\n      0xff\n      mul\n      not\n      and\n      swap1\n      dup4\n      0xff\n      and\n      mul\n      or\n      swap1\n      sstore\n      pop\n        /* \"contracts/CustomerKYC.sol\":475:476  _ */\n      pop\n        /* \"contracts/CustomerKYC.sol\":2251:2478  function performKyc(string memory _name)... */\n      pop\n      jump\t// out\n        /* \"contracts/CustomerKYC.sol\":3477:3944  function getBankDetails(address _bankAddress)... */\n    tag_27:\n        /* \"contracts/CustomerKYC.sol\":3599:3617  string memory name */\n      0x60\n        /* \"contracts/CustomerKYC.sol\":3631:3645  uint8 kycCount */\n      0x00\n        /* \"contracts/CustomerKYC.sol\":3659:3684  bool addCustomerPrivilege */\n      dup1\n        /* \"contracts/CustomerKYC.sol\":3698:3715  bool kycPrivilege */\n      0x00\n        /* \"contracts/CustomerKYC.sol\":235:245  rbiAddress */\n      dup1\n      0x00\n      swap1\n      sload\n      swap1\n      0x0100\n      exp\n      swap1\n      div\n      0xffffffffffffffffffffffffffffffffffffffff\n      and\n        /* \"contracts/CustomerKYC.sol\":221:245  msg.sender == rbiAddress */\n      0xffffffffffffffffffffffffffffffffffffffff\n      and\n        /* \"contracts/CustomerKYC.sol\":221:231  msg.sender */\n      caller\n        /* \"contracts/CustomerKYC.sol\":221:245  msg.sender == rbiAddress */\n      0xffffffffffffffffffffffffffffffffffffffff\n      and\n      eq\n        /* \"contracts/CustomerKYC.sol\":200:306  require(... */\n      tag_82\n      jumpi\n      mload(0x40)\n      0x08c379a000000000000000000000000000000000000000000000000000000000\n      dup2\n      mstore\n      0x04\n      add\n      tag_83\n      swap1\n      tag_57\n      jump\t// in\n    tag_83:\n      mload(0x40)\n      dup1\n      swap2\n      sub\n      swap1\n      revert\n    tag_82:\n        /* \"contracts/CustomerKYC.sol\":3761:3766  banks */\n      0x01\n        /* \"contracts/CustomerKYC.sol\":3761:3780  banks[_bankAddress] */\n      0x00\n        /* \"contracts/CustomerKYC.sol\":3767:3779  _bankAddress */\n      dup7\n        /* \"contracts/CustomerKYC.sol\":3761:3780  banks[_bankAddress] */\n      0xffffffffffffffffffffffffffffffffffffffff\n      and\n      0xffffffffffffffffffffffffffffffffffffffff\n      and\n      dup2\n      mstore\n      0x20\n      add\n      swap1\n      dup2\n      mstore\n      0x20\n      add\n      0x00\n      keccak256\n        /* \"contracts/CustomerKYC.sol\":3761:3785  banks[_bankAddress].name */\n      0x01\n      add\n        /* \"contracts/CustomerKYC.sol\":3799:3804  banks */\n      0x01\n        /* \"contracts/CustomerKYC.sol\":3799:3818  banks[_bankAddress] */\n      0x00\n        /* \"contracts/CustomerKYC.sol\":3805:3817  _bankAddress */\n      dup8\n        /* \"contracts/CustomerKYC.sol\":3799:3818  banks[_bankAddress] */\n      0xffffffffffffffffffffffffffffffffffffffff\n      and\n      0xffffffffffffffffffffffffffffffffffffffff\n      and\n      dup2\n      mstore\n      0x20\n      add\n      swap1\n      dup2\n      mstore\n      0x20\n      add\n      0x00\n      keccak256\n        /* \"contracts/CustomerKYC.sol\":3799:3827  banks[_bankAddress].kycCount */\n      0x02\n      add\n      0x00\n      swap1\n      sload\n      swap1\n      0x0100\n      exp\n      swap1\n      div\n      0xff\n      and\n        /* \"contracts/CustomerKYC.sol\":3841:3846  banks */\n      0x01\n        /* \"contracts/CustomerKYC.sol\":3841:3860  banks[_bankAddress] */\n      0x00\n        /* \"contracts/CustomerKYC.sol\":3847:3859  _bankAddress */\n      dup9\n        /* \"contracts/CustomerKYC.sol\":3841:3860  banks[_bankAddress] */\n      0xffffffffffffffffffffffffffffffffffffffff\n      and\n      0xffffffffffffffffffffffffffffffffffffffff\n      and\n      dup2\n      mstore\n      0x20\n      add\n      swap1\n      dup2\n      mstore\n      0x20\n      add\n      0x00\n      keccak256\n        /* \"contracts/CustomerKYC.sol\":3841:3881  banks[_bankAddress].addCustomerPrivilege */\n      0x02\n      add\n      0x01\n      swap1\n      sload\n      swap1\n      0x0100\n      exp\n      swap1\n      div\n      0xff\n      and\n        /* \"contracts/CustomerKYC.sol\":3895:3900  banks */\n      0x01\n        /* \"contracts/CustomerKYC.sol\":3895:3914  banks[_bankAddress] */\n      0x00\n        /* \"contracts/CustomerKYC.sol\":3901:3913  _bankAddress */\n      dup10\n        /* \"contracts/CustomerKYC.sol\":3895:3914  banks[_bankAddress] */\n      0xffffffffffffffffffffffffffffffffffffffff\n      and\n      0xffffffffffffffffffffffffffffffffffffffff\n      and\n      dup2\n      mstore\n      0x20\n      add\n      swap1\n      dup2\n      mstore\n      0x20\n      add\n      0x00\n      keccak256\n        /* \"contracts/CustomerKYC.sol\":3895:3927  banks[_bankAddress].kycPrivilege */\n      0x02\n      add\n      0x02\n      swap1\n      sload\n      swap1\n      0x0100\n      exp\n      swap1\n      div\n      0xff\n      and\n        /* \"contracts/CustomerKYC.sol\":3740:3937  return (... */\n      dup4\n      dup1\n      sload\n      tag_85\n      swap1\n      tag_86\n      jump\t// in\n    tag_85:\n      dup1\n      0x1f\n      add\n      0x20\n      dup1\n      swap2\n      div\n      mul\n      0x20\n      add\n      mload(0x40)\n      swap1\n      dup2\n      add\n      0x40\n      mstore\n      dup1\n      swap3\n      swap2\n      swap1\n      dup2\n      dup2\n      mstore\n      0x20\n      add\n      dup3\n      dup1\n      sload\n      tag_87\n      swap1\n      tag_86\n      jump\t// in\n    tag_87:\n      dup1\n      iszero\n      tag_88\n      jumpi\n      dup1\n      0x1f\n      lt\n      tag_89\n      jumpi\n      0x0100\n      dup1\n      dup4\n      sload\n      div\n      mul\n      dup4\n      mstore\n      swap2\n      0x20\n      add\n      swap2\n      jump(tag_88)\n    tag_89:\n      dup3\n      add\n      swap2\n      swap1\n      0x00\n      mstore\n      keccak256(0x00, 0x20)\n      swap1\n    tag_90:\n      dup2\n      sload\n      dup2\n      mstore\n      swap1\n      0x01\n      add\n      swap1\n      0x20\n      add\n      dup1\n      dup4\n      gt\n      tag_90\n      jumpi\n      dup3\n      swap1\n      sub\n      0x1f\n      and\n      dup3\n      add\n      swap2\n    tag_88:\n      pop\n      pop\n      pop\n      pop\n      pop\n      swap4\n      pop\n      swap4\n      pop\n      swap4\n      pop\n      swap4\n      pop\n      swap4\n      pop\n        /* \"contracts/CustomerKYC.sol\":3477:3944  function getBankDetails(address _bankAddress)... */\n      swap2\n      swap4\n      pop\n      swap2\n      swap4\n      jump\t// out\n        /* \"contracts/CustomerKYC.sol\":2762:2900  function allowBankToAddNewCustomer(address _bankAddress) public OnlyAdmin {... */\n    tag_32:\n        /* \"contracts/CustomerKYC.sol\":235:245  rbiAddress */\n      0x00\n      dup1\n      sload\n      swap1\n      0x0100\n      exp\n      swap1\n      div\n      0xffffffffffffffffffffffffffffffffffffffff\n      and\n        /* \"contracts/CustomerKYC.sol\":221:245  msg.sender == rbiAddress */\n      0xffffffffffffffffffffffffffffffffffffffff\n      and\n        /* \"contracts/CustomerKYC.sol\":221:231  msg.sender */\n      caller\n        /* \"contracts/CustomerKYC.sol\":221:245  msg.sender == rbiAddress */\n      0xffffffffffffffffffffffffffffffffffffffff\n      and\n      eq\n        /* \"contracts/CustomerKYC.sol\":200:306  require(... */\n      tag_92\n      jumpi\n      mload(0x40)\n      0x08c379a000000000000000000000000000000000000000000000000000000000\n      dup2\n      mstore\n      0x04\n      add\n      tag_93\n      swap1\n      tag_57\n      jump\t// in\n    tag_93:\n      mload(0x40)\n      dup1\n      swap2\n      sub\n      swap1\n      revert\n    tag_92:\n        /* \"contracts/CustomerKYC.sol\":2889:2893  true */\n      0x01\n        /* \"contracts/CustomerKYC.sol\":2846:2851  banks */\n      dup1\n        /* \"contracts/CustomerKYC.sol\":2846:2865  banks[_bankAddress] */\n      0x00\n        /* \"contracts/CustomerKYC.sol\":2852:2864  _bankAddress */\n      dup4\n        /* \"contracts/CustomerKYC.sol\":2846:2865  banks[_bankAddress] */\n      0xffffffffffffffffffffffffffffffffffffffff\n      and\n      0xffffffffffffffffffffffffffffffffffffffff\n      and\n      dup2\n      mstore\n      0x20\n      add\n      swap1\n      dup2\n      mstore\n      0x20\n      add\n      0x00\n      keccak256\n        /* \"contracts/CustomerKYC.sol\":2846:2886  banks[_bankAddress].addCustomerPrivilege */\n      0x02\n      add\n      0x01\n        /* \"contracts/CustomerKYC.sol\":2846:2893  banks[_bankAddress].addCustomerPrivilege = true */\n      0x0100\n      exp\n      dup2\n      sload\n      dup2\n      0xff\n      mul\n      not\n      and\n      swap1\n      dup4\n      iszero\n      iszero\n      mul\n      or\n      swap1\n      sstore\n      pop\n        /* \"contracts/CustomerKYC.sol\":2762:2900  function allowBankToAddNewCustomer(address _bankAddress) public OnlyAdmin {... */\n      pop\n      jump\t// out\n        /* \"contracts/CustomerKYC.sol\":1541:1726  function addNewbank(string memory _name, address _bankAddress) public OnlyAdmin {... */\n    tag_36:\n        /* \"contracts/CustomerKYC.sol\":235:245  rbiAddress */\n      0x00\n      dup1\n      sload\n      swap1\n      0x0100\n      exp\n      swap1\n      div\n      0xffffffffffffffffffffffffffffffffffffffff\n      and\n        /* \"contracts/CustomerKYC.sol\":221:245  msg.sender == rbiAddress */\n      0xffffffffffffffffffffffffffffffffffffffff\n      and\n        /* \"contracts/CustomerKYC.sol\":221:231  msg.sender */\n      caller\n        /* \"contracts/CustomerKYC.sol\":221:245  msg.sender == rbiAddress */\n      0xffffffffffffffffffffffffffffffffffffffff\n      and\n      eq\n        /* \"contracts/CustomerKYC.sol\":200:306  require(... */\n      tag_96\n      jumpi\n      mload(0x40)\n      0x08c379a000000000000000000000000000000000000000000000000000000000\n      dup2\n      mstore\n      0x04\n      add\n      tag_97\n      swap1\n      tag_57\n      jump\t// in\n    tag_97:\n      mload(0x40)\n      dup1\n      swap2\n      sub\n      swap1\n      revert\n    tag_96:\n        /* \"contracts/CustomerKYC.sol\":1665:1677  _bankAddress */\n      dup1\n        /* \"contracts/CustomerKYC.sol\":1631:1636  banks */\n      0x01\n        /* \"contracts/CustomerKYC.sol\":1631:1650  banks[_bankAddress] */\n      0x00\n        /* \"contracts/CustomerKYC.sol\":1637:1649  _bankAddress */\n      dup4\n        /* \"contracts/CustomerKYC.sol\":1631:1650  banks[_bankAddress] */\n      0xffffffffffffffffffffffffffffffffffffffff\n      and\n      0xffffffffffffffffffffffffffffffffffffffff\n      and\n      dup2\n      mstore\n      0x20\n      add\n      swap1\n      dup2\n      mstore\n      0x20\n      add\n      0x00\n      keccak256\n        /* \"contracts/CustomerKYC.sol\":1631:1662  banks[_bankAddress].bankAddress */\n      0x00\n      add\n      0x00\n        /* \"contracts/CustomerKYC.sol\":1631:1677  banks[_bankAddress].bankAddress = _bankAddress */\n      0x0100\n      exp\n      dup2\n      sload\n      dup2\n      0xffffffffffffffffffffffffffffffffffffffff\n      mul\n      not\n      and\n      swap1\n      dup4\n      0xffffffffffffffffffffffffffffffffffffffff\n      and\n      mul\n      or\n      swap1\n      sstore\n      pop\n        /* \"contracts/CustomerKYC.sol\":1714:1719  _name */\n      dup2\n        /* \"contracts/CustomerKYC.sol\":1687:1692  banks */\n      0x01\n        /* \"contracts/CustomerKYC.sol\":1687:1706  banks[_bankAddress] */\n      0x00\n        /* \"contracts/CustomerKYC.sol\":1693:1705  _bankAddress */\n      dup4\n        /* \"contracts/CustomerKYC.sol\":1687:1706  banks[_bankAddress] */\n      0xffffffffffffffffffffffffffffffffffffffff\n      and\n      0xffffffffffffffffffffffffffffffffffffffff\n      and\n      dup2\n      mstore\n      0x20\n      add\n      swap1\n      dup2\n      mstore\n      0x20\n      add\n      0x00\n      keccak256\n        /* \"contracts/CustomerKYC.sol\":1687:1711  banks[_bankAddress].name */\n      0x01\n      add\n        /* \"contracts/CustomerKYC.sol\":1687:1719  banks[_bankAddress].name = _name */\n      swap1\n      dup2\n      tag_99\n      swap2\n      swap1\n      tag_100\n      jump\t// in\n    tag_99:\n      pop\n        /* \"contracts/CustomerKYC.sol\":1541:1726  function addNewbank(string memory _name, address _bankAddress) public OnlyAdmin {... */\n      pop\n      pop\n      jump\t// out\n        /* \"contracts/CustomerKYC.sol\":2068:2245  function getKycStatus(string memory _name)... */\n    tag_39:\n        /* \"contracts/CustomerKYC.sol\":2173:2187  bool kycStatus */\n      0x00\n        /* \"contracts/CustomerKYC.sol\":395:405  rbiAddress */\n      dup1\n      0x00\n      swap1\n      sload\n      swap1\n      0x0100\n      exp\n      swap1\n      div\n      0xffffffffffffffffffffffffffffffffffffffff\n      and\n        /* \"contracts/CustomerKYC.sol\":381:405  msg.sender != rbiAddress */\n      0xffffffffffffffffffffffffffffffffffffffff\n      and\n        /* \"contracts/CustomerKYC.sol\":381:391  msg.sender */\n      caller\n        /* \"contracts/CustomerKYC.sol\":381:405  msg.sender != rbiAddress */\n      0xffffffffffffffffffffffffffffffffffffffff\n      and\n      sub\n        /* \"contracts/CustomerKYC.sol\":360:465  require(... */\n      tag_102\n      jumpi\n      mload(0x40)\n      0x08c379a000000000000000000000000000000000000000000000000000000000\n      dup2\n      mstore\n      0x04\n      add\n      tag_103\n      swap1\n      tag_66\n      jump\t// in\n    tag_103:\n      mload(0x40)\n      dup1\n      swap2\n      sub\n      swap1\n      revert\n    tag_102:\n        /* \"contracts/CustomerKYC.sol\":2211:2220  customers */\n      0x02\n        /* \"contracts/CustomerKYC.sol\":2221:2226  _name */\n      dup3\n        /* \"contracts/CustomerKYC.sol\":2211:2227  customers[_name] */\n      mload(0x40)\n      tag_105\n      swap2\n      swap1\n      tag_69\n      jump\t// in\n    tag_105:\n      swap1\n      dup2\n      mstore\n      0x20\n      add\n      mload(0x40)\n      dup1\n      swap2\n      sub\n      swap1\n      keccak256\n        /* \"contracts/CustomerKYC.sol\":2211:2237  customers[_name].kycStatus */\n      0x04\n      add\n      0x00\n      swap1\n      sload\n      swap1\n      0x0100\n      exp\n      swap1\n      div\n      0xff\n      and\n        /* \"contracts/CustomerKYC.sol\":2203:2238  return (customers[_name].kycStatus) */\n      swap1\n      pop\n        /* \"contracts/CustomerKYC.sol\":2068:2245  function getKycStatus(string memory _name)... */\n      swap2\n      swap1\n      pop\n      jump\t// out\n        /* \"contracts/CustomerKYC.sol\":1732:2062  function addNewCustomer(string memory _name, string memory _data)... */\n    tag_45:\n        /* \"contracts/CustomerKYC.sol\":395:405  rbiAddress */\n      0x00\n      dup1\n      sload\n      swap1\n      0x0100\n      exp\n      swap1\n      div\n      0xffffffffffffffffffffffffffffffffffffffff\n      and\n        /* \"contracts/CustomerKYC.sol\":381:405  msg.sender != rbiAddress */\n      0xffffffffffffffffffffffffffffffffffffffff\n      and\n        /* \"contracts/CustomerKYC.sol\":381:391  msg.sender */\n      caller\n        /* \"contracts/CustomerKYC.sol\":381:405  msg.sender != rbiAddress */\n      0xffffffffffffffffffffffffffffffffffffffff\n      and\n      sub\n        /* \"contracts/CustomerKYC.sol\":360:465  require(... */\n      tag_107\n      jumpi\n      mload(0x40)\n      0x08c379a000000000000000000000000000000000000000000000000000000000\n      dup2\n      mstore\n      0x04\n      add\n      tag_108\n      swap1\n      tag_66\n      jump\t// in\n    tag_108:\n      mload(0x40)\n      dup1\n      swap2\n      sub\n      swap1\n      revert\n    tag_107:\n        /* \"contracts/CustomerKYC.sol\":555:560  banks */\n      0x01\n        /* \"contracts/CustomerKYC.sol\":555:572  banks[msg.sender] */\n      0x00\n        /* \"contracts/CustomerKYC.sol\":561:571  msg.sender */\n      caller\n        /* \"contracts/CustomerKYC.sol\":555:572  banks[msg.sender] */\n      0xffffffffffffffffffffffffffffffffffffffff\n      and\n      0xffffffffffffffffffffffffffffffffffffffff\n      and\n      dup2\n      mstore\n      0x20\n      add\n      swap1\n      dup2\n      mstore\n      0x20\n      add\n      0x00\n      keccak256\n        /* \"contracts/CustomerKYC.sol\":555:593  banks[msg.sender].addCustomerPrivilege */\n      0x02\n      add\n      0x01\n      swap1\n      sload\n      swap1\n      0x0100\n      exp\n      swap1\n      div\n      0xff\n      and\n        /* \"contracts/CustomerKYC.sol\":534:695  require(... */\n      tag_110\n      jumpi\n      mload(0x40)\n      0x08c379a000000000000000000000000000000000000000000000000000000000\n      dup2\n      mstore\n      0x04\n      add\n      tag_111\n      swap1\n      tag_112\n      jump\t// in\n    tag_111:\n      mload(0x40)\n      dup1\n      swap2\n      sub\n      swap1\n      revert\n    tag_110:\n        /* \"contracts/CustomerKYC.sol\":1900:1905  _name */\n      dup2\n        /* \"contracts/CustomerKYC.sol\":1876:1885  customers */\n      0x02\n        /* \"contracts/CustomerKYC.sol\":1886:1891  _name */\n      dup4\n        /* \"contracts/CustomerKYC.sol\":1876:1892  customers[_name] */\n      mload(0x40)\n      tag_114\n      swap2\n      swap1\n      tag_69\n      jump\t// in\n    tag_114:\n      swap1\n      dup2\n      mstore\n      0x20\n      add\n      mload(0x40)\n      dup1\n      swap2\n      sub\n      swap1\n      keccak256\n        /* \"contracts/CustomerKYC.sol\":1876:1897  customers[_name].name */\n      0x00\n      add\n        /* \"contracts/CustomerKYC.sol\":1876:1905  customers[_name].name = _name */\n      swap1\n      dup2\n      tag_115\n      swap2\n      swap1\n      tag_100\n      jump\t// in\n    tag_115:\n      pop\n        /* \"contracts/CustomerKYC.sol\":1939:1944  _data */\n      dup1\n        /* \"contracts/CustomerKYC.sol\":1915:1924  customers */\n      0x02\n        /* \"contracts/CustomerKYC.sol\":1925:1930  _name */\n      dup4\n        /* \"contracts/CustomerKYC.sol\":1915:1931  customers[_name] */\n      mload(0x40)\n      tag_116\n      swap2\n      swap1\n      tag_69\n      jump\t// in\n    tag_116:\n      swap1\n      dup2\n      mstore\n      0x20\n      add\n      mload(0x40)\n      dup1\n      swap2\n      sub\n      swap1\n      keccak256\n        /* \"contracts/CustomerKYC.sol\":1915:1936  customers[_name].data */\n      0x01\n      add\n        /* \"contracts/CustomerKYC.sol\":1915:1944  customers[_name].data = _data */\n      swap1\n      dup2\n      tag_117\n      swap2\n      swap1\n      tag_100\n      jump\t// in\n    tag_117:\n      pop\n        /* \"contracts/CustomerKYC.sol\":1985:1995  msg.sender */\n      caller\n        /* \"contracts/CustomerKYC.sol\":1954:1963  customers */\n      0x02\n        /* \"contracts/CustomerKYC.sol\":1964:1969  _name */\n      dup4\n        /* \"contracts/CustomerKYC.sol\":1954:1970  customers[_name] */\n      mload(0x40)\n      tag_118\n      swap2\n      swap1\n      tag_69\n      jump\t// in\n    tag_118:\n      swap1\n      dup2\n      mstore\n      0x20\n      add\n      mload(0x40)\n      dup1\n      swap2\n      sub\n      swap1\n      keccak256\n        /* \"contracts/CustomerKYC.sol\":1954:1982  customers[_name].bankAddress */\n      0x02\n      add\n      0x00\n        /* \"contracts/CustomerKYC.sol\":1954:1995  customers[_name].bankAddress = msg.sender */\n      0x0100\n      exp\n      dup2\n      sload\n      dup2\n      0xffffffffffffffffffffffffffffffffffffffff\n      mul\n      not\n      and\n      swap1\n      dup4\n      0xffffffffffffffffffffffffffffffffffffffff\n      and\n      mul\n      or\n      swap1\n      sstore\n      pop\n        /* \"contracts/CustomerKYC.sol\":2033:2038  banks */\n      0x01\n        /* \"contracts/CustomerKYC.sol\":2033:2050  banks[msg.sender] */\n      0x00\n        /* \"contracts/CustomerKYC.sol\":2039:2049  msg.sender */\n      caller\n        /* \"contracts/CustomerKYC.sol\":2033:2050  banks[msg.sender] */\n      0xffffffffffffffffffffffffffffffffffffffff\n      and\n      0xffffffffffffffffffffffffffffffffffffffff\n      and\n      dup2\n      mstore\n      0x20\n      add\n      swap1\n      dup2\n      mstore\n      0x20\n      add\n      0x00\n      keccak256\n        /* \"contracts/CustomerKYC.sol\":2033:2055  banks[msg.sender].name */\n      0x01\n      add\n        /* \"contracts/CustomerKYC.sol\":2005:2014  customers */\n      0x02\n        /* \"contracts/CustomerKYC.sol\":2015:2020  _name */\n      dup4\n        /* \"contracts/CustomerKYC.sol\":2005:2021  customers[_name] */\n      mload(0x40)\n      tag_119\n      swap2\n      swap1\n      tag_69\n      jump\t// in\n    tag_119:\n      swap1\n      dup2\n      mstore\n      0x20\n      add\n      mload(0x40)\n      dup1\n      swap2\n      sub\n      swap1\n      keccak256\n        /* \"contracts/CustomerKYC.sol\":2005:2030  customers[_name].bankName */\n      0x03\n      add\n        /* \"contracts/CustomerKYC.sol\":2005:2055  customers[_name].bankName = banks[msg.sender].name */\n      swap1\n      dup2\n      tag_120\n      swap2\n      swap1\n      tag_121\n      jump\t// in\n    tag_120:\n      pop\n        /* \"contracts/CustomerKYC.sol\":1732:2062  function addNewCustomer(string memory _name, string memory _data)... */\n      pop\n      pop\n      jump\t// out\n        /* \"contracts/CustomerKYC.sol\":3038:3471  function getCustomerData(string memory _name)... */\n    tag_48:\n        /* \"contracts/CustomerKYC.sol\":3159:3177  string memory name */\n      0x60\n        /* \"contracts/CustomerKYC.sol\":3191:3209  string memory data */\n      dup1\n        /* \"contracts/CustomerKYC.sol\":3223:3245  string memory bankName */\n      0x60\n        /* \"contracts/CustomerKYC.sol\":3259:3273  bool kycStatus */\n      0x00\n        /* \"contracts/CustomerKYC.sol\":395:405  rbiAddress */\n      dup1\n      0x00\n      swap1\n      sload\n      swap1\n      0x0100\n      exp\n      swap1\n      div\n      0xffffffffffffffffffffffffffffffffffffffff\n      and\n        /* \"contracts/CustomerKYC.sol\":381:405  msg.sender != rbiAddress */\n      0xffffffffffffffffffffffffffffffffffffffff\n      and\n        /* \"contracts/CustomerKYC.sol\":381:391  msg.sender */\n      caller\n        /* \"contracts/CustomerKYC.sol\":381:405  msg.sender != rbiAddress */\n      0xffffffffffffffffffffffffffffffffffffffff\n      and\n      sub\n        /* \"contracts/CustomerKYC.sol\":360:465  require(... */\n      tag_123\n      jumpi\n      mload(0x40)\n      0x08c379a000000000000000000000000000000000000000000000000000000000\n      dup2\n      mstore\n      0x04\n      add\n      tag_124\n      swap1\n      tag_66\n      jump\t// in\n    tag_124:\n      mload(0x40)\n      dup1\n      swap2\n      sub\n      swap1\n      revert\n    tag_123:\n        /* \"contracts/CustomerKYC.sol\":3319:3328  customers */\n      0x02\n        /* \"contracts/CustomerKYC.sol\":3329:3334  _name */\n      dup6\n        /* \"contracts/CustomerKYC.sol\":3319:3335  customers[_name] */\n      mload(0x40)\n      tag_126\n      swap2\n      swap1\n      tag_69\n      jump\t// in\n    tag_126:\n      swap1\n      dup2\n      mstore\n      0x20\n      add\n      mload(0x40)\n      dup1\n      swap2\n      sub\n      swap1\n      keccak256\n        /* \"contracts/CustomerKYC.sol\":3319:3340  customers[_name].name */\n      0x00\n      add\n        /* \"contracts/CustomerKYC.sol\":3354:3363  customers */\n      0x02\n        /* \"contracts/CustomerKYC.sol\":3364:3369  _name */\n      dup7\n        /* \"contracts/CustomerKYC.sol\":3354:3370  customers[_name] */\n      mload(0x40)\n      tag_127\n      swap2\n      swap1\n      tag_69\n      jump\t// in\n    tag_127:\n      swap1\n      dup2\n      mstore\n      0x20\n      add\n      mload(0x40)\n      dup1\n      swap2\n      sub\n      swap1\n      keccak256\n        /* \"contracts/CustomerKYC.sol\":3354:3375  customers[_name].data */\n      0x01\n      add\n        /* \"contracts/CustomerKYC.sol\":3389:3398  customers */\n      0x02\n        /* \"contracts/CustomerKYC.sol\":3399:3404  _name */\n      dup8\n        /* \"contracts/CustomerKYC.sol\":3389:3405  customers[_name] */\n      mload(0x40)\n      tag_128\n      swap2\n      swap1\n      tag_69\n      jump\t// in\n    tag_128:\n      swap1\n      dup2\n      mstore\n      0x20\n      add\n      mload(0x40)\n      dup1\n      swap2\n      sub\n      swap1\n      keccak256\n        /* \"contracts/CustomerKYC.sol\":3389:3414  customers[_name].bankName */\n      0x03\n      add\n        /* \"contracts/CustomerKYC.sol\":3428:3437  customers */\n      0x02\n        /* \"contracts/CustomerKYC.sol\":3438:3443  _name */\n      dup9\n        /* \"contracts/CustomerKYC.sol\":3428:3444  customers[_name] */\n      mload(0x40)\n      tag_129\n      swap2\n      swap1\n      tag_69\n      jump\t// in\n    tag_129:\n      swap1\n      dup2\n      mstore\n      0x20\n      add\n      mload(0x40)\n      dup1\n      swap2\n      sub\n      swap1\n      keccak256\n        /* \"contracts/CustomerKYC.sol\":3428:3454  customers[_name].kycStatus */\n      0x04\n      add\n      0x00\n      swap1\n      sload\n      swap1\n      0x0100\n      exp\n      swap1\n      div\n      0xff\n      and\n        /* \"contracts/CustomerKYC.sol\":3298:3464  return (... */\n      dup4\n      dup1\n      sload\n      tag_130\n      swap1\n      tag_86\n      jump\t// in\n    tag_130:\n      dup1\n      0x1f\n      add\n      0x20\n      dup1\n      swap2\n      div\n      mul\n      0x20\n      add\n      mload(0x40)\n      swap1\n      dup2\n      add\n      0x40\n      mstore\n      dup1\n      swap3\n      swap2\n      swap1\n      dup2\n      dup2\n      mstore\n      0x20\n      add\n      dup3\n      dup1\n      sload\n      tag_131\n      swap1\n      tag_86\n      jump\t// in\n    tag_131:\n      dup1\n      iszero\n      tag_132\n      jumpi\n      dup1\n      0x1f\n      lt\n      tag_133\n      jumpi\n      0x0100\n      dup1\n      dup4\n      sload\n      div\n      mul\n      dup4\n      mstore\n      swap2\n      0x20\n      add\n      swap2\n      jump(tag_132)\n    tag_133:\n      dup3\n      add\n      swap2\n      swap1\n      0x00\n      mstore\n      keccak256(0x00, 0x20)\n      swap1\n    tag_134:\n      dup2\n      sload\n      dup2\n      mstore\n      swap1\n      0x01\n      add\n      swap1\n      0x20\n      add\n      dup1\n      dup4\n      gt\n      tag_134\n      jumpi\n      dup3\n      swap1\n      sub\n      0x1f\n      and\n      dup3\n      add\n      swap2\n    tag_132:\n      pop\n      pop\n      pop\n      pop\n      pop\n      swap4\n      pop\n      dup3\n      dup1\n      sload\n      tag_135\n      swap1\n      tag_86\n      jump\t// in\n    tag_135:\n      dup1\n      0x1f\n      add\n      0x20\n      dup1\n      swap2\n      div\n      mul\n      0x20\n      add\n      mload(0x40)\n      swap1\n      dup2\n      add\n      0x40\n      mstore\n      dup1\n      swap3\n      swap2\n      swap1\n      dup2\n      dup2\n      mstore\n      0x20\n      add\n      dup3\n      dup1\n      sload\n      tag_136\n      swap1\n      tag_86\n      jump\t// in\n    tag_136:\n      dup1\n      iszero\n      tag_137\n      jumpi\n      dup1\n      0x1f\n      lt\n      tag_138\n      jumpi\n      0x0100\n      dup1\n      dup4\n      sload\n      div\n      mul\n      dup4\n      mstore\n      swap2\n      0x20\n      add\n      swap2\n      jump(tag_137)\n    tag_138:\n      dup3\n      add\n      swap2\n      swap1\n      0x00\n      mstore\n      keccak256(0x00, 0x20)\n      swap1\n    tag_139:\n      dup2\n      sload\n      dup2\n      mstore\n      swap1\n      0x01\n      add\n      swap1\n      0x20\n      add\n      dup1\n      dup4\n      gt\n      tag_139\n      jumpi\n      dup3\n      swap1\n      sub\n      0x1f\n      and\n      dup3\n      add\n      swap2\n    tag_137:\n      pop\n      pop\n      pop\n      pop\n      pop\n      swap3\n      pop\n      dup2\n      dup1\n      sload\n      tag_140\n      swap1\n      tag_86\n      jump\t// in\n    tag_140:\n      dup1\n      0x1f\n      add\n      0x20\n      dup1\n      swap2\n      div\n      mul\n      0x20\n      add\n      mload(0x40)\n      swap1\n      dup2\n      add\n      0x40\n      mstore\n      dup1\n      swap3\n      swap2\n      swap1\n      dup2\n      dup2\n      mstore\n      0x20\n      add\n      dup3\n      dup1\n      sload\n      tag_141\n      swap1\n      tag_86\n      jump\t// in\n    tag_141:\n      dup1\n      iszero\n      tag_142\n      jumpi\n      dup1\n      0x1f\n      lt\n      tag_143\n      jumpi\n      0x0100\n      dup1\n      dup4\n      sload\n      div\n      mul\n      dup4\n      mstore\n      swap2\n      0x20\n      add\n      swap2\n      jump(tag_142)\n    tag_143:\n      dup3\n      add\n      swap2\n      swap1\n      0x00\n      mstore\n      keccak256(0x00, 0x20)\n      swap1\n    tag_144:\n      dup2\n      sload\n      dup2\n      mstore\n      swap1\n      0x01\n      add\n      swap1\n      0x20\n      add\n      dup1\n      dup4\n      gt\n      tag_144\n      jumpi\n      dup3\n      swap1\n      sub\n      0x1f\n      and\n      dup3\n      add\n      swap2\n    tag_142:\n      pop\n      pop\n      pop\n      pop\n      pop\n      swap2\n      pop\n      swap4\n      pop\n      swap4\n      pop\n      swap4\n      pop\n      swap4\n      pop\n        /* \"contracts/CustomerKYC.sol\":3038:3471  function getCustomerData(string memory _name)... */\n      swap2\n      swap4\n      pop\n      swap2\n      swap4\n      jump\t// out\n        /* \"contracts/CustomerKYC.sol\":2906:3032  function allowBankToPerformKyc(address _bankAddress) public OnlyAdmin {... */\n    tag_53:\n        /* \"contracts/CustomerKYC.sol\":235:245  rbiAddress */\n      0x00\n      dup1\n      sload\n      swap1\n      0x0100\n      exp\n      swap1\n      div\n      0xffffffffffffffffffffffffffffffffffffffff\n      and\n        /* \"contracts/CustomerKYC.sol\":221:245  msg.sender == rbiAddress */\n      0xffffffffffffffffffffffffffffffffffffffff\n      and\n        /* \"contracts/CustomerKYC.sol\":221:231  msg.sender */\n      caller\n        /* \"contracts/CustomerKYC.sol\":221:245  msg.sender == rbiAddress */\n      0xffffffffffffffffffffffffffffffffffffffff\n      and\n      eq\n        /* \"contracts/CustomerKYC.sol\":200:306  require(... */\n      tag_146\n      jumpi\n      mload(0x40)\n      0x08c379a000000000000000000000000000000000000000000000000000000000\n      dup2\n      mstore\n      0x04\n      add\n      tag_147\n      swap1\n      tag_57\n      jump\t// in\n    tag_147:\n      mload(0x40)\n      dup1\n      swap2\n      sub\n      swap1\n      revert\n    tag_146:\n        /* \"contracts/CustomerKYC.sol\":3021:3025  true */\n      0x01\n        /* \"contracts/CustomerKYC.sol\":2986:2991  banks */\n      dup1\n        /* \"contracts/CustomerKYC.sol\":2986:3005  banks[_bankAddress] */\n      0x00\n        /* \"contracts/CustomerKYC.sol\":2992:3004  _bankAddress */\n      dup4\n        /* \"contracts/CustomerKYC.sol\":2986:3005  banks[_bankAddress] */\n      0xffffffffffffffffffffffffffffffffffffffff\n      and\n      0xffffffffffffffffffffffffffffffffffffffff\n      and\n      dup2\n      mstore\n      0x20\n      add\n      swap1\n      dup2\n      mstore\n      0x20\n      add\n      0x00\n      keccak256\n        /* \"contracts/CustomerKYC.sol\":2986:3018  banks[_bankAddress].kycPrivilege */\n      0x02\n      add\n      0x02\n        /* \"contracts/CustomerKYC.sol\":2986:3025  banks[_bankAddress].kycPrivilege = true */\n      0x0100\n      exp\n      dup2\n      sload\n      dup2\n      0xff\n      mul\n      not\n      and\n      swap1\n      dup4\n      iszero\n      iszero\n      mul\n      or\n      swap1\n      sstore\n      pop\n        /* \"contracts/CustomerKYC.sol\":2906:3032  function allowBankToPerformKyc(address _bankAddress) public OnlyAdmin {... */\n      pop\n      jump\t// out\n        /* \"#utility.yul\":7:82   */\n    tag_149:\n        /* \"#utility.yul\":40:46   */\n      0x00\n        /* \"#utility.yul\":73:75   */\n      0x40\n        /* \"#utility.yul\":67:76   */\n      mload\n        /* \"#utility.yul\":57:76   */\n      swap1\n      pop\n        /* \"#utility.yul\":7:82   */\n      swap1\n      jump\t// out\n        /* \"#utility.yul\":88:205   */\n    tag_150:\n        /* \"#utility.yul\":197:198   */\n      0x00\n        /* \"#utility.yul\":194:195   */\n      dup1\n        /* \"#utility.yul\":187:199   */\n      revert\n        /* \"#utility.yul\":211:328   */\n    tag_151:\n        /* \"#utility.yul\":320:321   */\n      0x00\n        /* \"#utility.yul\":317:318   */\n      dup1\n        /* \"#utility.yul\":310:322   */\n      revert\n        /* \"#utility.yul\":334:460   */\n    tag_152:\n        /* \"#utility.yul\":371:378   */\n      0x00\n        /* \"#utility.yul\":411:453   */\n      0xffffffffffffffffffffffffffffffffffffffff\n        /* \"#utility.yul\":404:409   */\n      dup3\n        /* \"#utility.yul\":400:454   */\n      and\n        /* \"#utility.yul\":389:454   */\n      swap1\n      pop\n        /* \"#utility.yul\":334:460   */\n      swap2\n      swap1\n      pop\n      jump\t// out\n        /* \"#utility.yul\":466:562   */\n    tag_153:\n        /* \"#utility.yul\":503:510   */\n      0x00\n        /* \"#utility.yul\":532:556   */\n      tag_212\n        /* \"#utility.yul\":550:555   */\n      dup3\n        /* \"#utility.yul\":532:556   */\n      tag_152\n      jump\t// in\n    tag_212:\n        /* \"#utility.yul\":521:556   */\n      swap1\n      pop\n        /* \"#utility.yul\":466:562   */\n      swap2\n      swap1\n      pop\n      jump\t// out\n        /* \"#utility.yul\":568:690   */\n    tag_154:\n        /* \"#utility.yul\":641:665   */\n      tag_214\n        /* \"#utility.yul\":659:664   */\n      dup2\n        /* \"#utility.yul\":641:665   */\n      tag_153\n      jump\t// in\n    tag_214:\n        /* \"#utility.yul\":634:639   */\n      dup2\n        /* \"#utility.yul\":631:666   */\n      eq\n        /* \"#utility.yul\":621:684   */\n      tag_215\n      jumpi\n        /* \"#utility.yul\":680:681   */\n      0x00\n        /* \"#utility.yul\":677:678   */\n      dup1\n        /* \"#utility.yul\":670:682   */\n      revert\n        /* \"#utility.yul\":621:684   */\n    tag_215:\n        /* \"#utility.yul\":568:690   */\n      pop\n      jump\t// out\n        /* \"#utility.yul\":696:835   */\n    tag_155:\n        /* \"#utility.yul\":742:747   */\n      0x00\n        /* \"#utility.yul\":780:786   */\n      dup2\n        /* \"#utility.yul\":767:787   */\n      calldataload\n        /* \"#utility.yul\":758:787   */\n      swap1\n      pop\n        /* \"#utility.yul\":796:829   */\n      tag_217\n        /* \"#utility.yul\":823:828   */\n      dup2\n        /* \"#utility.yul\":796:829   */\n      tag_154\n      jump\t// in\n    tag_217:\n        /* \"#utility.yul\":696:835   */\n      swap3\n      swap2\n      pop\n      pop\n      jump\t// out\n        /* \"#utility.yul\":841:1170   */\n    tag_16:\n        /* \"#utility.yul\":900:906   */\n      0x00\n        /* \"#utility.yul\":949:951   */\n      0x20\n        /* \"#utility.yul\":937:946   */\n      dup3\n        /* \"#utility.yul\":928:935   */\n      dup5\n        /* \"#utility.yul\":924:947   */\n      sub\n        /* \"#utility.yul\":920:952   */\n      slt\n        /* \"#utility.yul\":917:1036   */\n      iszero\n      tag_219\n      jumpi\n        /* \"#utility.yul\":955:1034   */\n      tag_220\n      tag_150\n      jump\t// in\n    tag_220:\n        /* \"#utility.yul\":917:1036   */\n    tag_219:\n        /* \"#utility.yul\":1075:1076   */\n      0x00\n        /* \"#utility.yul\":1100:1153   */\n      tag_221\n        /* \"#utility.yul\":1145:1152   */\n      dup5\n        /* \"#utility.yul\":1136:1142   */\n      dup3\n        /* \"#utility.yul\":1125:1134   */\n      dup6\n        /* \"#utility.yul\":1121:1143   */\n      add\n        /* \"#utility.yul\":1100:1153   */\n      tag_155\n      jump\t// in\n    tag_221:\n        /* \"#utility.yul\":1090:1153   */\n      swap2\n      pop\n        /* \"#utility.yul\":1046:1163   */\n      pop\n        /* \"#utility.yul\":841:1170   */\n      swap3\n      swap2\n      pop\n      pop\n      jump\t// out\n        /* \"#utility.yul\":1176:1293   */\n    tag_156:\n        /* \"#utility.yul\":1285:1286   */\n      0x00\n        /* \"#utility.yul\":1282:1283   */\n      dup1\n        /* \"#utility.yul\":1275:1287   */\n      revert\n        /* \"#utility.yul\":1299:1416   */\n    tag_157:\n        /* \"#utility.yul\":1408:1409   */\n      0x00\n        /* \"#utility.yul\":1405:1406   */\n      dup1\n        /* \"#utility.yul\":1398:1410   */\n      revert\n        /* \"#utility.yul\":1422:1524   */\n    tag_158:\n        /* \"#utility.yul\":1463:1469   */\n      0x00\n        /* \"#utility.yul\":1514:1516   */\n      0x1f\n        /* \"#utility.yul\":1510:1517   */\n      not\n        /* \"#utility.yul\":1505:1507   */\n      0x1f\n        /* \"#utility.yul\":1498:1503   */\n      dup4\n        /* \"#utility.yul\":1494:1508   */\n      add\n        /* \"#utility.yul\":1490:1518   */\n      and\n        /* \"#utility.yul\":1480:1518   */\n      swap1\n      pop\n        /* \"#utility.yul\":1422:1524   */\n      swap2\n      swap1\n      pop\n      jump\t// out\n        /* \"#utility.yul\":1530:1710   */\n    tag_159:\n        /* \"#utility.yul\":1578:1655   */\n      0x4e487b7100000000000000000000000000000000000000000000000000000000\n        /* \"#utility.yul\":1575:1576   */\n      0x00\n        /* \"#utility.yul\":1568:1656   */\n      mstore\n        /* \"#utility.yul\":1675:1679   */\n      0x41\n        /* \"#utility.yul\":1672:1673   */\n      0x04\n        /* \"#utility.yul\":1665:1680   */\n      mstore\n        /* \"#utility.yul\":1699:1703   */\n      0x24\n        /* \"#utility.yul\":1696:1697   */\n      0x00\n        /* \"#utility.yul\":1689:1704   */\n      revert\n        /* \"#utility.yul\":1716:1997   */\n    tag_160:\n        /* \"#utility.yul\":1799:1826   */\n      tag_227\n        /* \"#utility.yul\":1821:1825   */\n      dup3\n        /* \"#utility.yul\":1799:1826   */\n      tag_158\n      jump\t// in\n    tag_227:\n        /* \"#utility.yul\":1791:1797   */\n      dup2\n        /* \"#utility.yul\":1787:1827   */\n      add\n        /* \"#utility.yul\":1929:1935   */\n      dup2\n        /* \"#utility.yul\":1917:1927   */\n      dup2\n        /* \"#utility.yul\":1914:1936   */\n      lt\n        /* \"#utility.yul\":1893:1911   */\n      0xffffffffffffffff\n        /* \"#utility.yul\":1881:1891   */\n      dup3\n        /* \"#utility.yul\":1878:1912   */\n      gt\n        /* \"#utility.yul\":1875:1937   */\n      or\n        /* \"#utility.yul\":1872:1960   */\n      iszero\n      tag_228\n      jumpi\n        /* \"#utility.yul\":1940:1958   */\n      tag_229\n      tag_159\n      jump\t// in\n    tag_229:\n        /* \"#utility.yul\":1872:1960   */\n    tag_228:\n        /* \"#utility.yul\":1980:1990   */\n      dup1\n        /* \"#utility.yul\":1976:1978   */\n      0x40\n        /* \"#utility.yul\":1969:1991   */\n      mstore\n        /* \"#utility.yul\":1759:1997   */\n      pop\n        /* \"#utility.yul\":1716:1997   */\n      pop\n      pop\n      jump\t// out\n        /* \"#utility.yul\":2003:2132   */\n    tag_161:\n        /* \"#utility.yul\":2037:2043   */\n      0x00\n        /* \"#utility.yul\":2064:2084   */\n      tag_231\n      tag_149\n      jump\t// in\n    tag_231:\n        /* \"#utility.yul\":2054:2084   */\n      swap1\n      pop\n        /* \"#utility.yul\":2093:2126   */\n      tag_232\n        /* \"#utility.yul\":2121:2125   */\n      dup3\n        /* \"#utility.yul\":2113:2119   */\n      dup3\n        /* \"#utility.yul\":2093:2126   */\n      tag_160\n      jump\t// in\n    tag_232:\n        /* \"#utility.yul\":2003:2132   */\n      swap2\n      swap1\n      pop\n      jump\t// out\n        /* \"#utility.yul\":2138:2446   */\n    tag_162:\n        /* \"#utility.yul\":2200:2204   */\n      0x00\n        /* \"#utility.yul\":2290:2308   */\n      0xffffffffffffffff\n        /* \"#utility.yul\":2282:2288   */\n      dup3\n        /* \"#utility.yul\":2279:2309   */\n      gt\n        /* \"#utility.yul\":2276:2332   */\n      iszero\n      tag_234\n      jumpi\n        /* \"#utility.yul\":2312:2330   */\n      tag_235\n      tag_159\n      jump\t// in\n    tag_235:\n        /* \"#utility.yul\":2276:2332   */\n    tag_234:\n        /* \"#utility.yul\":2350:2379   */\n      tag_236\n        /* \"#utility.yul\":2372:2378   */\n      dup3\n        /* \"#utility.yul\":2350:2379   */\n      tag_158\n      jump\t// in\n    tag_236:\n        /* \"#utility.yul\":2342:2379   */\n      swap1\n      pop\n        /* \"#utility.yul\":2434:2438   */\n      0x20\n        /* \"#utility.yul\":2428:2432   */\n      dup2\n        /* \"#utility.yul\":2424:2439   */\n      add\n        /* \"#utility.yul\":2416:2439   */\n      swap1\n      pop\n        /* \"#utility.yul\":2138:2446   */\n      swap2\n      swap1\n      pop\n      jump\t// out\n        /* \"#utility.yul\":2452:2598   */\n    tag_163:\n        /* \"#utility.yul\":2549:2555   */\n      dup3\n        /* \"#utility.yul\":2544:2547   */\n      dup2\n        /* \"#utility.yul\":2539:2542   */\n      dup4\n        /* \"#utility.yul\":2526:2556   */\n      calldatacopy\n        /* \"#utility.yul\":2590:2591   */\n      0x00\n        /* \"#utility.yul\":2581:2587   */\n      dup4\n        /* \"#utility.yul\":2576:2579   */\n      dup4\n        /* \"#utility.yul\":2572:2588   */\n      add\n        /* \"#utility.yul\":2565:2592   */\n      mstore\n        /* \"#utility.yul\":2452:2598   */\n      pop\n      pop\n      pop\n      jump\t// out\n        /* \"#utility.yul\":2604:3029   */\n    tag_164:\n        /* \"#utility.yul\":2682:2687   */\n      0x00\n        /* \"#utility.yul\":2707:2773   */\n      tag_239\n        /* \"#utility.yul\":2723:2772   */\n      tag_240\n        /* \"#utility.yul\":2765:2771   */\n      dup5\n        /* \"#utility.yul\":2723:2772   */\n      tag_162\n      jump\t// in\n    tag_240:\n        /* \"#utility.yul\":2707:2773   */\n      tag_161\n      jump\t// in\n    tag_239:\n        /* \"#utility.yul\":2698:2773   */\n      swap1\n      pop\n        /* \"#utility.yul\":2796:2802   */\n      dup3\n        /* \"#utility.yul\":2789:2794   */\n      dup2\n        /* \"#utility.yul\":2782:2803   */\n      mstore\n        /* \"#utility.yul\":2834:2838   */\n      0x20\n        /* \"#utility.yul\":2827:2832   */\n      dup2\n        /* \"#utility.yul\":2823:2839   */\n      add\n        /* \"#utility.yul\":2872:2875   */\n      dup5\n        /* \"#utility.yul\":2863:2869   */\n      dup5\n        /* \"#utility.yul\":2858:2861   */\n      dup5\n        /* \"#utility.yul\":2854:2870   */\n      add\n        /* \"#utility.yul\":2851:2876   */\n      gt\n        /* \"#utility.yul\":2848:2960   */\n      iszero\n      tag_241\n      jumpi\n        /* \"#utility.yul\":2879:2958   */\n      tag_242\n      tag_157\n      jump\t// in\n    tag_242:\n        /* \"#utility.yul\":2848:2960   */\n    tag_241:\n        /* \"#utility.yul\":2969:3023   */\n      tag_243\n        /* \"#utility.yul\":3016:3022   */\n      dup5\n        /* \"#utility.yul\":3011:3014   */\n      dup3\n        /* \"#utility.yul\":3006:3009   */\n      dup6\n        /* \"#utility.yul\":2969:3023   */\n      tag_163\n      jump\t// in\n    tag_243:\n        /* \"#utility.yul\":2688:3029   */\n      pop\n        /* \"#utility.yul\":2604:3029   */\n      swap4\n      swap3\n      pop\n      pop\n      pop\n      jump\t// out\n        /* \"#utility.yul\":3049:3389   */\n    tag_165:\n        /* \"#utility.yul\":3105:3110   */\n      0x00\n        /* \"#utility.yul\":3154:3157   */\n      dup3\n        /* \"#utility.yul\":3147:3151   */\n      0x1f\n        /* \"#utility.yul\":3139:3145   */\n      dup4\n        /* \"#utility.yul\":3135:3152   */\n      add\n        /* \"#utility.yul\":3131:3158   */\n      slt\n        /* \"#utility.yul\":3121:3243   */\n      tag_245\n      jumpi\n        /* \"#utility.yul\":3162:3241   */\n      tag_246\n      tag_156\n      jump\t// in\n    tag_246:\n        /* \"#utility.yul\":3121:3243   */\n    tag_245:\n        /* \"#utility.yul\":3279:3285   */\n      dup2\n        /* \"#utility.yul\":3266:3286   */\n      calldataload\n        /* \"#utility.yul\":3304:3383   */\n      tag_247\n        /* \"#utility.yul\":3379:3382   */\n      dup5\n        /* \"#utility.yul\":3371:3377   */\n      dup3\n        /* \"#utility.yul\":3364:3368   */\n      0x20\n        /* \"#utility.yul\":3356:3362   */\n      dup7\n        /* \"#utility.yul\":3352:3369   */\n      add\n        /* \"#utility.yul\":3304:3383   */\n      tag_164\n      jump\t// in\n    tag_247:\n        /* \"#utility.yul\":3295:3383   */\n      swap2\n      pop\n        /* \"#utility.yul\":3111:3389   */\n      pop\n        /* \"#utility.yul\":3049:3389   */\n      swap3\n      swap2\n      pop\n      pop\n      jump\t// out\n        /* \"#utility.yul\":3395:3904   */\n    tag_23:\n        /* \"#utility.yul\":3464:3470   */\n      0x00\n        /* \"#utility.yul\":3513:3515   */\n      0x20\n        /* \"#utility.yul\":3501:3510   */\n      dup3\n        /* \"#utility.yul\":3492:3499   */\n      dup5\n        /* \"#utility.yul\":3488:3511   */\n      sub\n        /* \"#utility.yul\":3484:3516   */\n      slt\n        /* \"#utility.yul\":3481:3600   */\n      iszero\n      tag_249\n      jumpi\n        /* \"#utility.yul\":3519:3598   */\n      tag_250\n      tag_150\n      jump\t// in\n    tag_250:\n        /* \"#utility.yul\":3481:3600   */\n    tag_249:\n        /* \"#utility.yul\":3667:3668   */\n      0x00\n        /* \"#utility.yul\":3656:3665   */\n      dup3\n        /* \"#utility.yul\":3652:3669   */\n      add\n        /* \"#utility.yul\":3639:3670   */\n      calldataload\n        /* \"#utility.yul\":3697:3715   */\n      0xffffffffffffffff\n        /* \"#utility.yul\":3689:3695   */\n      dup2\n        /* \"#utility.yul\":3686:3716   */\n      gt\n        /* \"#utility.yul\":3683:3800   */\n      iszero\n      tag_251\n      jumpi\n        /* \"#utility.yul\":3719:3798   */\n      tag_252\n      tag_151\n      jump\t// in\n    tag_252:\n        /* \"#utility.yul\":3683:3800   */\n    tag_251:\n        /* \"#utility.yul\":3824:3887   */\n      tag_253\n        /* \"#utility.yul\":3879:3886   */\n      dup5\n        /* \"#utility.yul\":3870:3876   */\n      dup3\n        /* \"#utility.yul\":3859:3868   */\n      dup6\n        /* \"#utility.yul\":3855:3877   */\n      add\n        /* \"#utility.yul\":3824:3887   */\n      tag_165\n      jump\t// in\n    tag_253:\n        /* \"#utility.yul\":3814:3887   */\n      swap2\n      pop\n        /* \"#utility.yul\":3610:3897   */\n      pop\n        /* \"#utility.yul\":3395:3904   */\n      swap3\n      swap2\n      pop\n      pop\n      jump\t// out\n        /* \"#utility.yul\":3910:4009   */\n    tag_166:\n        /* \"#utility.yul\":3962:3968   */\n      0x00\n        /* \"#utility.yul\":3996:4001   */\n      dup2\n        /* \"#utility.yul\":3990:4002   */\n      mload\n        /* \"#utility.yul\":3980:4002   */\n      swap1\n      pop\n        /* \"#utility.yul\":3910:4009   */\n      swap2\n      swap1\n      pop\n      jump\t// out\n        /* \"#utility.yul\":4015:4184   */\n    tag_167:\n        /* \"#utility.yul\":4099:4110   */\n      0x00\n        /* \"#utility.yul\":4133:4139   */\n      dup3\n        /* \"#utility.yul\":4128:4131   */\n      dup3\n        /* \"#utility.yul\":4121:4140   */\n      mstore\n        /* \"#utility.yul\":4173:4177   */\n      0x20\n        /* \"#utility.yul\":4168:4171   */\n      dup3\n        /* \"#utility.yul\":4164:4178   */\n      add\n        /* \"#utility.yul\":4149:4178   */\n      swap1\n      pop\n        /* \"#utility.yul\":4015:4184   */\n      swap3\n      swap2\n      pop\n      pop\n      jump\t// out\n        /* \"#utility.yul\":4190:4436   */\n    tag_168:\n        /* \"#utility.yul\":4271:4272   */\n      0x00\n        /* \"#utility.yul\":4281:4394   */\n    tag_257:\n        /* \"#utility.yul\":4295:4301   */\n      dup4\n        /* \"#utility.yul\":4292:4293   */\n      dup2\n        /* \"#utility.yul\":4289:4302   */\n      lt\n        /* \"#utility.yul\":4281:4394   */\n      iszero\n      tag_259\n      jumpi\n        /* \"#utility.yul\":4380:4381   */\n      dup1\n        /* \"#utility.yul\":4375:4378   */\n      dup3\n        /* \"#utility.yul\":4371:4382   */\n      add\n        /* \"#utility.yul\":4365:4383   */\n      mload\n        /* \"#utility.yul\":4361:4362   */\n      dup2\n        /* \"#utility.yul\":4356:4359   */\n      dup5\n        /* \"#utility.yul\":4352:4363   */\n      add\n        /* \"#utility.yul\":4345:4384   */\n      mstore\n        /* \"#utility.yul\":4317:4319   */\n      0x20\n        /* \"#utility.yul\":4314:4315   */\n      dup2\n        /* \"#utility.yul\":4310:4320   */\n      add\n        /* \"#utility.yul\":4305:4320   */\n      swap1\n      pop\n        /* \"#utility.yul\":4281:4394   */\n      jump(tag_257)\n    tag_259:\n        /* \"#utility.yul\":4428:4429   */\n      0x00\n        /* \"#utility.yul\":4419:4425   */\n      dup5\n        /* \"#utility.yul\":4414:4417   */\n      dup5\n        /* \"#utility.yul\":4410:4426   */\n      add\n        /* \"#utility.yul\":4403:4430   */\n      mstore\n        /* \"#utility.yul\":4252:4436   */\n      pop\n        /* \"#utility.yul\":4190:4436   */\n      pop\n      pop\n      pop\n      jump\t// out\n        /* \"#utility.yul\":4442:4819   */\n    tag_169:\n        /* \"#utility.yul\":4530:4533   */\n      0x00\n        /* \"#utility.yul\":4558:4597   */\n      tag_261\n        /* \"#utility.yul\":4591:4596   */\n      dup3\n        /* \"#utility.yul\":4558:4597   */\n      tag_166\n      jump\t// in\n    tag_261:\n        /* \"#utility.yul\":4613:4684   */\n      tag_262\n        /* \"#utility.yul\":4677:4683   */\n      dup2\n        /* \"#utility.yul\":4672:4675   */\n      dup6\n        /* \"#utility.yul\":4613:4684   */\n      tag_167\n      jump\t// in\n    tag_262:\n        /* \"#utility.yul\":4606:4684   */\n      swap4\n      pop\n        /* \"#utility.yul\":4693:4758   */\n      tag_263\n        /* \"#utility.yul\":4751:4757   */\n      dup2\n        /* \"#utility.yul\":4746:4749   */\n      dup6\n        /* \"#utility.yul\":4739:4743   */\n      0x20\n        /* \"#utility.yul\":4732:4737   */\n      dup7\n        /* \"#utility.yul\":4728:4744   */\n      add\n        /* \"#utility.yul\":4693:4758   */\n      tag_168\n      jump\t// in\n    tag_263:\n        /* \"#utility.yul\":4783:4812   */\n      tag_264\n        /* \"#utility.yul\":4805:4811   */\n      dup2\n        /* \"#utility.yul\":4783:4812   */\n      tag_158\n      jump\t// in\n    tag_264:\n        /* \"#utility.yul\":4778:4781   */\n      dup5\n        /* \"#utility.yul\":4774:4813   */\n      add\n        /* \"#utility.yul\":4767:4813   */\n      swap2\n      pop\n        /* \"#utility.yul\":4534:4819   */\n      pop\n        /* \"#utility.yul\":4442:4819   */\n      swap3\n      swap2\n      pop\n      pop\n      jump\t// out\n        /* \"#utility.yul\":4825:4911   */\n    tag_170:\n        /* \"#utility.yul\":4860:4867   */\n      0x00\n        /* \"#utility.yul\":4900:4904   */\n      0xff\n        /* \"#utility.yul\":4893:4898   */\n      dup3\n        /* \"#utility.yul\":4889:4905   */\n      and\n        /* \"#utility.yul\":4878:4905   */\n      swap1\n      pop\n        /* \"#utility.yul\":4825:4911   */\n      swap2\n      swap1\n      pop\n      jump\t// out\n        /* \"#utility.yul\":4917:5029   */\n    tag_171:\n        /* \"#utility.yul\":5000:5022   */\n      tag_267\n        /* \"#utility.yul\":5016:5021   */\n      dup2\n        /* \"#utility.yul\":5000:5022   */\n      tag_170\n      jump\t// in\n    tag_267:\n        /* \"#utility.yul\":4995:4998   */\n      dup3\n        /* \"#utility.yul\":4988:5023   */\n      mstore\n        /* \"#utility.yul\":4917:5029   */\n      pop\n      pop\n      jump\t// out\n        /* \"#utility.yul\":5035:5125   */\n    tag_172:\n        /* \"#utility.yul\":5069:5076   */\n      0x00\n        /* \"#utility.yul\":5112:5117   */\n      dup2\n        /* \"#utility.yul\":5105:5118   */\n      iszero\n        /* \"#utility.yul\":5098:5119   */\n      iszero\n        /* \"#utility.yul\":5087:5119   */\n      swap1\n      pop\n        /* \"#utility.yul\":5035:5125   */\n      swap2\n      swap1\n      pop\n      jump\t// out\n        /* \"#utility.yul\":5131:5240   */\n    tag_173:\n        /* \"#utility.yul\":5212:5233   */\n      tag_270\n        /* \"#utility.yul\":5227:5232   */\n      dup2\n        /* \"#utility.yul\":5212:5233   */\n      tag_172\n      jump\t// in\n    tag_270:\n        /* \"#utility.yul\":5207:5210   */\n      dup3\n        /* \"#utility.yul\":5200:5234   */\n      mstore\n        /* \"#utility.yul\":5131:5240   */\n      pop\n      pop\n      jump\t// out\n        /* \"#utility.yul\":5246:5858   */\n    tag_29:\n        /* \"#utility.yul\":5427:5431   */\n      0x00\n        /* \"#utility.yul\":5465:5468   */\n      0x80\n        /* \"#utility.yul\":5454:5463   */\n      dup3\n        /* \"#utility.yul\":5450:5469   */\n      add\n        /* \"#utility.yul\":5442:5469   */\n      swap1\n      pop\n        /* \"#utility.yul\":5515:5524   */\n      dup2\n        /* \"#utility.yul\":5509:5513   */\n      dup2\n        /* \"#utility.yul\":5505:5525   */\n      sub\n        /* \"#utility.yul\":5501:5502   */\n      0x00\n        /* \"#utility.yul\":5490:5499   */\n      dup4\n        /* \"#utility.yul\":5486:5503   */\n      add\n        /* \"#utility.yul\":5479:5526   */\n      mstore\n        /* \"#utility.yul\":5543:5621   */\n      tag_272\n        /* \"#utility.yul\":5616:5620   */\n      dup2\n        /* \"#utility.yul\":5607:5613   */\n      dup8\n        /* \"#utility.yul\":5543:5621   */\n      tag_169\n      jump\t// in\n    tag_272:\n        /* \"#utility.yul\":5535:5621   */\n      swap1\n      pop\n        /* \"#utility.yul\":5631:5699   */\n      tag_273\n        /* \"#utility.yul\":5695:5697   */\n      0x20\n        /* \"#utility.yul\":5684:5693   */\n      dup4\n        /* \"#utility.yul\":5680:5698   */\n      add\n        /* \"#utility.yul\":5671:5677   */\n      dup7\n        /* \"#utility.yul\":5631:5699   */\n      tag_171\n      jump\t// in\n    tag_273:\n        /* \"#utility.yul\":5709:5775   */\n      tag_274\n        /* \"#utility.yul\":5771:5773   */\n      0x40\n        /* \"#utility.yul\":5760:5769   */\n      dup4\n        /* \"#utility.yul\":5756:5774   */\n      add\n        /* \"#utility.yul\":5747:5753   */\n      dup6\n        /* \"#utility.yul\":5709:5775   */\n      tag_173\n      jump\t// in\n    tag_274:\n        /* \"#utility.yul\":5785:5851   */\n      tag_275\n        /* \"#utility.yul\":5847:5849   */\n      0x60\n        /* \"#utility.yul\":5836:5845   */\n      dup4\n        /* \"#utility.yul\":5832:5850   */\n      add\n        /* \"#utility.yul\":5823:5829   */\n      dup5\n        /* \"#utility.yul\":5785:5851   */\n      tag_173\n      jump\t// in\n    tag_275:\n        /* \"#utility.yul\":5246:5858   */\n      swap6\n      swap5\n      pop\n      pop\n      pop\n      pop\n      pop\n      jump\t// out\n        /* \"#utility.yul\":5864:6518   */\n    tag_35:\n        /* \"#utility.yul\":5942:5948   */\n      0x00\n        /* \"#utility.yul\":5950:5956   */\n      dup1\n        /* \"#utility.yul\":5999:6001   */\n      0x40\n        /* \"#utility.yul\":5987:5996   */\n      dup4\n        /* \"#utility.yul\":5978:5985   */\n      dup6\n        /* \"#utility.yul\":5974:5997   */\n      sub\n        /* \"#utility.yul\":5970:6002   */\n      slt\n        /* \"#utility.yul\":5967:6086   */\n      iszero\n      tag_277\n      jumpi\n        /* \"#utility.yul\":6005:6084   */\n      tag_278\n      tag_150\n      jump\t// in\n    tag_278:\n        /* \"#utility.yul\":5967:6086   */\n    tag_277:\n        /* \"#utility.yul\":6153:6154   */\n      0x00\n        /* \"#utility.yul\":6142:6151   */\n      dup4\n        /* \"#utility.yul\":6138:6155   */\n      add\n        /* \"#utility.yul\":6125:6156   */\n      calldataload\n        /* \"#utility.yul\":6183:6201   */\n      0xffffffffffffffff\n        /* \"#utility.yul\":6175:6181   */\n      dup2\n        /* \"#utility.yul\":6172:6202   */\n      gt\n        /* \"#utility.yul\":6169:6286   */\n      iszero\n      tag_279\n      jumpi\n        /* \"#utility.yul\":6205:6284   */\n      tag_280\n      tag_151\n      jump\t// in\n    tag_280:\n        /* \"#utility.yul\":6169:6286   */\n    tag_279:\n        /* \"#utility.yul\":6310:6373   */\n      tag_281\n        /* \"#utility.yul\":6365:6372   */\n      dup6\n        /* \"#utility.yul\":6356:6362   */\n      dup3\n        /* \"#utility.yul\":6345:6354   */\n      dup7\n        /* \"#utility.yul\":6341:6363   */\n      add\n        /* \"#utility.yul\":6310:6373   */\n      tag_165\n      jump\t// in\n    tag_281:\n        /* \"#utility.yul\":6300:6373   */\n      swap3\n      pop\n        /* \"#utility.yul\":6096:6383   */\n      pop\n        /* \"#utility.yul\":6422:6424   */\n      0x20\n        /* \"#utility.yul\":6448:6501   */\n      tag_282\n        /* \"#utility.yul\":6493:6500   */\n      dup6\n        /* \"#utility.yul\":6484:6490   */\n      dup3\n        /* \"#utility.yul\":6473:6482   */\n      dup7\n        /* \"#utility.yul\":6469:6491   */\n      add\n        /* \"#utility.yul\":6448:6501   */\n      tag_155\n      jump\t// in\n    tag_282:\n        /* \"#utility.yul\":6438:6501   */\n      swap2\n      pop\n        /* \"#utility.yul\":6393:6511   */\n      pop\n        /* \"#utility.yul\":5864:6518   */\n      swap3\n      pop\n      swap3\n      swap1\n      pop\n      jump\t// out\n        /* \"#utility.yul\":6524:6734   */\n    tag_41:\n        /* \"#utility.yul\":6611:6615   */\n      0x00\n        /* \"#utility.yul\":6649:6651   */\n      0x20\n        /* \"#utility.yul\":6638:6647   */\n      dup3\n        /* \"#utility.yul\":6634:6652   */\n      add\n        /* \"#utility.yul\":6626:6652   */\n      swap1\n      pop\n        /* \"#utility.yul\":6662:6727   */\n      tag_284\n        /* \"#utility.yul\":6724:6725   */\n      0x00\n        /* \"#utility.yul\":6713:6722   */\n      dup4\n        /* \"#utility.yul\":6709:6726   */\n      add\n        /* \"#utility.yul\":6700:6706   */\n      dup5\n        /* \"#utility.yul\":6662:6727   */\n      tag_173\n      jump\t// in\n    tag_284:\n        /* \"#utility.yul\":6524:6734   */\n      swap3\n      swap2\n      pop\n      pop\n      jump\t// out\n        /* \"#utility.yul\":6740:7574   */\n    tag_44:\n        /* \"#utility.yul\":6828:6834   */\n      0x00\n        /* \"#utility.yul\":6836:6842   */\n      dup1\n        /* \"#utility.yul\":6885:6887   */\n      0x40\n        /* \"#utility.yul\":6873:6882   */\n      dup4\n        /* \"#utility.yul\":6864:6871   */\n      dup6\n        /* \"#utility.yul\":6860:6883   */\n      sub\n        /* \"#utility.yul\":6856:6888   */\n      slt\n        /* \"#utility.yul\":6853:6972   */\n      iszero\n      tag_286\n      jumpi\n        /* \"#utility.yul\":6891:6970   */\n      tag_287\n      tag_150\n      jump\t// in\n    tag_287:\n        /* \"#utility.yul\":6853:6972   */\n    tag_286:\n        /* \"#utility.yul\":7039:7040   */\n      0x00\n        /* \"#utility.yul\":7028:7037   */\n      dup4\n        /* \"#utility.yul\":7024:7041   */\n      add\n        /* \"#utility.yul\":7011:7042   */\n      calldataload\n        /* \"#utility.yul\":7069:7087   */\n      0xffffffffffffffff\n        /* \"#utility.yul\":7061:7067   */\n      dup2\n        /* \"#utility.yul\":7058:7088   */\n      gt\n        /* \"#utility.yul\":7055:7172   */\n      iszero\n      tag_288\n      jumpi\n        /* \"#utility.yul\":7091:7170   */\n      tag_289\n      tag_151\n      jump\t// in\n    tag_289:\n        /* \"#utility.yul\":7055:7172   */\n    tag_288:\n        /* \"#utility.yul\":7196:7259   */\n      tag_290\n        /* \"#utility.yul\":7251:7258   */\n      dup6\n        /* \"#utility.yul\":7242:7248   */\n      dup3\n        /* \"#utility.yul\":7231:7240   */\n      dup7\n        /* \"#utility.yul\":7227:7249   */\n      add\n        /* \"#utility.yul\":7196:7259   */\n      tag_165\n      jump\t// in\n    tag_290:\n        /* \"#utility.yul\":7186:7259   */\n      swap3\n      pop\n        /* \"#utility.yul\":6982:7269   */\n      pop\n        /* \"#utility.yul\":7336:7338   */\n      0x20\n        /* \"#utility.yul\":7325:7334   */\n      dup4\n        /* \"#utility.yul\":7321:7339   */\n      add\n        /* \"#utility.yul\":7308:7340   */\n      calldataload\n        /* \"#utility.yul\":7367:7385   */\n      0xffffffffffffffff\n        /* \"#utility.yul\":7359:7365   */\n      dup2\n        /* \"#utility.yul\":7356:7386   */\n      gt\n        /* \"#utility.yul\":7353:7470   */\n      iszero\n      tag_291\n      jumpi\n        /* \"#utility.yul\":7389:7468   */\n      tag_292\n      tag_151\n      jump\t// in\n    tag_292:\n        /* \"#utility.yul\":7353:7470   */\n    tag_291:\n        /* \"#utility.yul\":7494:7557   */\n      tag_293\n        /* \"#utility.yul\":7549:7556   */\n      dup6\n        /* \"#utility.yul\":7540:7546   */\n      dup3\n        /* \"#utility.yul\":7529:7538   */\n      dup7\n        /* \"#utility.yul\":7525:7547   */\n      add\n        /* \"#utility.yul\":7494:7557   */\n      tag_165\n      jump\t// in\n    tag_293:\n        /* \"#utility.yul\":7484:7557   */\n      swap2\n      pop\n        /* \"#utility.yul\":7279:7567   */\n      pop\n        /* \"#utility.yul\":6740:7574   */\n      swap3\n      pop\n      swap3\n      swap1\n      pop\n      jump\t// out\n        /* \"#utility.yul\":7580:8394   */\n    tag_50:\n        /* \"#utility.yul\":7811:7815   */\n      0x00\n        /* \"#utility.yul\":7849:7852   */\n      0x80\n        /* \"#utility.yul\":7838:7847   */\n      dup3\n        /* \"#utility.yul\":7834:7853   */\n      add\n        /* \"#utility.yul\":7826:7853   */\n      swap1\n      pop\n        /* \"#utility.yul\":7899:7908   */\n      dup2\n        /* \"#utility.yul\":7893:7897   */\n      dup2\n        /* \"#utility.yul\":7889:7909   */\n      sub\n        /* \"#utility.yul\":7885:7886   */\n      0x00\n        /* \"#utility.yul\":7874:7883   */\n      dup4\n        /* \"#utility.yul\":7870:7887   */\n      add\n        /* \"#utility.yul\":7863:7910   */\n      mstore\n        /* \"#utility.yul\":7927:8005   */\n      tag_295\n        /* \"#utility.yul\":8000:8004   */\n      dup2\n        /* \"#utility.yul\":7991:7997   */\n      dup8\n        /* \"#utility.yul\":7927:8005   */\n      tag_169\n      jump\t// in\n    tag_295:\n        /* \"#utility.yul\":7919:8005   */\n      swap1\n      pop\n        /* \"#utility.yul\":8052:8061   */\n      dup2\n        /* \"#utility.yul\":8046:8050   */\n      dup2\n        /* \"#utility.yul\":8042:8062   */\n      sub\n        /* \"#utility.yul\":8037:8039   */\n      0x20\n        /* \"#utility.yul\":8026:8035   */\n      dup4\n        /* \"#utility.yul\":8022:8040   */\n      add\n        /* \"#utility.yul\":8015:8063   */\n      mstore\n        /* \"#utility.yul\":8080:8158   */\n      tag_296\n        /* \"#utility.yul\":8153:8157   */\n      dup2\n        /* \"#utility.yul\":8144:8150   */\n      dup7\n        /* \"#utility.yul\":8080:8158   */\n      tag_169\n      jump\t// in\n    tag_296:\n        /* \"#utility.yul\":8072:8158   */\n      swap1\n      pop\n        /* \"#utility.yul\":8205:8214   */\n      dup2\n        /* \"#utility.yul\":8199:8203   */\n      dup2\n        /* \"#utility.yul\":8195:8215   */\n      sub\n        /* \"#utility.yul\":8190:8192   */\n      0x40\n        /* \"#utility.yul\":8179:8188   */\n      dup4\n        /* \"#utility.yul\":8175:8193   */\n      add\n        /* \"#utility.yul\":8168:8216   */\n      mstore\n        /* \"#utility.yul\":8233:8311   */\n      tag_297\n        /* \"#utility.yul\":8306:8310   */\n      dup2\n        /* \"#utility.yul\":8297:8303   */\n      dup6\n        /* \"#utility.yul\":8233:8311   */\n      tag_169\n      jump\t// in\n    tag_297:\n        /* \"#utility.yul\":8225:8311   */\n      swap1\n      pop\n        /* \"#utility.yul\":8321:8387   */\n      tag_298\n        /* \"#utility.yul\":8383:8385   */\n      0x60\n        /* \"#utility.yul\":8372:8381   */\n      dup4\n        /* \"#utility.yul\":8368:8386   */\n      add\n        /* \"#utility.yul\":8359:8365   */\n      dup5\n        /* \"#utility.yul\":8321:8387   */\n      tag_173\n      jump\t// in\n    tag_298:\n        /* \"#utility.yul\":7580:8394   */\n      swap6\n      swap5\n      pop\n      pop\n      pop\n      pop\n      pop\n      jump\t// out\n        /* \"#utility.yul\":8400:8622   */\n    tag_174:\n        /* \"#utility.yul\":8540:8574   */\n      0x4f6e6c792041444d494e2063616e20706572666f726d20746869732061637469\n        /* \"#utility.yul\":8536:8537   */\n      0x00\n        /* \"#utility.yul\":8528:8534   */\n      dup3\n        /* \"#utility.yul\":8524:8538   */\n      add\n        /* \"#utility.yul\":8517:8575   */\n      mstore\n        /* \"#utility.yul\":8609:8614   */\n      0x6f6e210000000000000000000000000000000000000000000000000000000000\n        /* \"#utility.yul\":8604:8606   */\n      0x20\n        /* \"#utility.yul\":8596:8602   */\n      dup3\n        /* \"#utility.yul\":8592:8607   */\n      add\n        /* \"#utility.yul\":8585:8615   */\n      mstore\n        /* \"#utility.yul\":8400:8622   */\n      pop\n      jump\t// out\n        /* \"#utility.yul\":8628:8994   */\n    tag_175:\n        /* \"#utility.yul\":8770:8773   */\n      0x00\n        /* \"#utility.yul\":8791:8858   */\n      tag_301\n        /* \"#utility.yul\":8855:8857   */\n      0x23\n        /* \"#utility.yul\":8850:8853   */\n      dup4\n        /* \"#utility.yul\":8791:8858   */\n      tag_167\n      jump\t// in\n    tag_301:\n        /* \"#utility.yul\":8784:8858   */\n      swap2\n      pop\n        /* \"#utility.yul\":8867:8960   */\n      tag_302\n        /* \"#utility.yul\":8956:8959   */\n      dup3\n        /* \"#utility.yul\":8867:8960   */\n      tag_174\n      jump\t// in\n    tag_302:\n        /* \"#utility.yul\":8985:8987   */\n      0x40\n        /* \"#utility.yul\":8980:8983   */\n      dup3\n        /* \"#utility.yul\":8976:8988   */\n      add\n        /* \"#utility.yul\":8969:8988   */\n      swap1\n      pop\n        /* \"#utility.yul\":8628:8994   */\n      swap2\n      swap1\n      pop\n      jump\t// out\n        /* \"#utility.yul\":9000:9419   */\n    tag_57:\n        /* \"#utility.yul\":9166:9170   */\n      0x00\n        /* \"#utility.yul\":9204:9206   */\n      0x20\n        /* \"#utility.yul\":9193:9202   */\n      dup3\n        /* \"#utility.yul\":9189:9207   */\n      add\n        /* \"#utility.yul\":9181:9207   */\n      swap1\n      pop\n        /* \"#utility.yul\":9253:9262   */\n      dup2\n        /* \"#utility.yul\":9247:9251   */\n      dup2\n        /* \"#utility.yul\":9243:9263   */\n      sub\n        /* \"#utility.yul\":9239:9240   */\n      0x00\n        /* \"#utility.yul\":9228:9237   */\n      dup4\n        /* \"#utility.yul\":9224:9241   */\n      add\n        /* \"#utility.yul\":9217:9264   */\n      mstore\n        /* \"#utility.yul\":9281:9412   */\n      tag_304\n        /* \"#utility.yul\":9407:9411   */\n      dup2\n        /* \"#utility.yul\":9281:9412   */\n      tag_175\n      jump\t// in\n    tag_304:\n        /* \"#utility.yul\":9273:9412   */\n      swap1\n      pop\n        /* \"#utility.yul\":9000:9419   */\n      swap2\n      swap1\n      pop\n      jump\t// out\n        /* \"#utility.yul\":9425:9646   */\n    tag_176:\n        /* \"#utility.yul\":9565:9599   */\n      0x4f6e6c792042616e6b2063616e20706572666f726d207468697320416374696f\n        /* \"#utility.yul\":9561:9562   */\n      0x00\n        /* \"#utility.yul\":9553:9559   */\n      dup3\n        /* \"#utility.yul\":9549:9563   */\n      add\n        /* \"#utility.yul\":9542:9600   */\n      mstore\n        /* \"#utility.yul\":9634:9638   */\n      0x6e21000000000000000000000000000000000000000000000000000000000000\n        /* \"#utility.yul\":9629:9631   */\n      0x20\n        /* \"#utility.yul\":9621:9627   */\n      dup3\n        /* \"#utility.yul\":9617:9632   */\n      add\n        /* \"#utility.yul\":9610:9639   */\n      mstore\n        /* \"#utility.yul\":9425:9646   */\n      pop\n      jump\t// out\n        /* \"#utility.yul\":9652:10018   */\n    tag_177:\n        /* \"#utility.yul\":9794:9797   */\n      0x00\n        /* \"#utility.yul\":9815:9882   */\n      tag_307\n        /* \"#utility.yul\":9879:9881   */\n      0x22\n        /* \"#utility.yul\":9874:9877   */\n      dup4\n        /* \"#utility.yul\":9815:9882   */\n      tag_167\n      jump\t// in\n    tag_307:\n        /* \"#utility.yul\":9808:9882   */\n      swap2\n      pop\n        /* \"#utility.yul\":9891:9984   */\n      tag_308\n        /* \"#utility.yul\":9980:9983   */\n      dup3\n        /* \"#utility.yul\":9891:9984   */\n      tag_176\n      jump\t// in\n    tag_308:\n        /* \"#utility.yul\":10009:10011   */\n      0x40\n        /* \"#utility.yul\":10004:10007   */\n      dup3\n        /* \"#utility.yul\":10000:10012   */\n      add\n        /* \"#utility.yul\":9993:10012   */\n      swap1\n      pop\n        /* \"#utility.yul\":9652:10018   */\n      swap2\n      swap1\n      pop\n      jump\t// out\n        /* \"#utility.yul\":10024:10443   */\n    tag_66:\n        /* \"#utility.yul\":10190:10194   */\n      0x00\n        /* \"#utility.yul\":10228:10230   */\n      0x20\n        /* \"#utility.yul\":10217:10226   */\n      dup3\n        /* \"#utility.yul\":10213:10231   */\n      add\n        /* \"#utility.yul\":10205:10231   */\n      swap1\n      pop\n        /* \"#utility.yul\":10277:10286   */\n      dup2\n        /* \"#utility.yul\":10271:10275   */\n      dup2\n        /* \"#utility.yul\":10267:10287   */\n      sub\n        /* \"#utility.yul\":10263:10264   */\n      0x00\n        /* \"#utility.yul\":10252:10261   */\n      dup4\n        /* \"#utility.yul\":10248:10265   */\n      add\n        /* \"#utility.yul\":10241:10288   */\n      mstore\n        /* \"#utility.yul\":10305:10436   */\n      tag_310\n        /* \"#utility.yul\":10431:10435   */\n      dup2\n        /* \"#utility.yul\":10305:10436   */\n      tag_177\n      jump\t// in\n    tag_310:\n        /* \"#utility.yul\":10297:10436   */\n      swap1\n      pop\n        /* \"#utility.yul\":10024:10443   */\n      swap2\n      swap1\n      pop\n      jump\t// out\n        /* \"#utility.yul\":10449:10597   */\n    tag_178:\n        /* \"#utility.yul\":10551:10562   */\n      0x00\n        /* \"#utility.yul\":10588:10591   */\n      dup2\n        /* \"#utility.yul\":10573:10591   */\n      swap1\n      pop\n        /* \"#utility.yul\":10449:10597   */\n      swap3\n      swap2\n      pop\n      pop\n      jump\t// out\n        /* \"#utility.yul\":10603:10993   */\n    tag_179:\n        /* \"#utility.yul\":10709:10712   */\n      0x00\n        /* \"#utility.yul\":10737:10776   */\n      tag_313\n        /* \"#utility.yul\":10770:10775   */\n      dup3\n        /* \"#utility.yul\":10737:10776   */\n      tag_166\n      jump\t// in\n    tag_313:\n        /* \"#utility.yul\":10792:10881   */\n      tag_314\n        /* \"#utility.yul\":10874:10880   */\n      dup2\n        /* \"#utility.yul\":10869:10872   */\n      dup6\n        /* \"#utility.yul\":10792:10881   */\n      tag_178\n      jump\t// in\n    tag_314:\n        /* \"#utility.yul\":10785:10881   */\n      swap4\n      pop\n        /* \"#utility.yul\":10890:10955   */\n      tag_315\n        /* \"#utility.yul\":10948:10954   */\n      dup2\n        /* \"#utility.yul\":10943:10946   */\n      dup6\n        /* \"#utility.yul\":10936:10940   */\n      0x20\n        /* \"#utility.yul\":10929:10934   */\n      dup7\n        /* \"#utility.yul\":10925:10941   */\n      add\n        /* \"#utility.yul\":10890:10955   */\n      tag_168\n      jump\t// in\n    tag_315:\n        /* \"#utility.yul\":10980:10986   */\n      dup1\n        /* \"#utility.yul\":10975:10978   */\n      dup5\n        /* \"#utility.yul\":10971:10987   */\n      add\n        /* \"#utility.yul\":10964:10987   */\n      swap2\n      pop\n        /* \"#utility.yul\":10713:10993   */\n      pop\n        /* \"#utility.yul\":10603:10993   */\n      swap3\n      swap2\n      pop\n      pop\n      jump\t// out\n        /* \"#utility.yul\":10999:11274   */\n    tag_69:\n        /* \"#utility.yul\":11131:11134   */\n      0x00\n        /* \"#utility.yul\":11153:11248   */\n      tag_317\n        /* \"#utility.yul\":11244:11247   */\n      dup3\n        /* \"#utility.yul\":11235:11241   */\n      dup5\n        /* \"#utility.yul\":11153:11248   */\n      tag_179\n      jump\t// in\n    tag_317:\n        /* \"#utility.yul\":11146:11248   */\n      swap2\n      pop\n        /* \"#utility.yul\":11265:11268   */\n      dup2\n        /* \"#utility.yul\":11258:11268   */\n      swap1\n      pop\n        /* \"#utility.yul\":10999:11274   */\n      swap3\n      swap2\n      pop\n      pop\n      jump\t// out\n        /* \"#utility.yul\":11280:11503   */\n    tag_180:\n        /* \"#utility.yul\":11420:11454   */\n      0x437573746f6d657220646f65736e277420657869737420696e20796f75722062\n        /* \"#utility.yul\":11416:11417   */\n      0x00\n        /* \"#utility.yul\":11408:11414   */\n      dup3\n        /* \"#utility.yul\":11404:11418   */\n      add\n        /* \"#utility.yul\":11397:11455   */\n      mstore\n        /* \"#utility.yul\":11489:11495   */\n      0x616e6b2100000000000000000000000000000000000000000000000000000000\n        /* \"#utility.yul\":11484:11486   */\n      0x20\n        /* \"#utility.yul\":11476:11482   */\n      dup3\n        /* \"#utility.yul\":11472:11487   */\n      add\n        /* \"#utility.yul\":11465:11496   */\n      mstore\n        /* \"#utility.yul\":11280:11503   */\n      pop\n      jump\t// out\n        /* \"#utility.yul\":11509:11875   */\n    tag_181:\n        /* \"#utility.yul\":11651:11654   */\n      0x00\n        /* \"#utility.yul\":11672:11739   */\n      tag_320\n        /* \"#utility.yul\":11736:11738   */\n      0x24\n        /* \"#utility.yul\":11731:11734   */\n      dup4\n        /* \"#utility.yul\":11672:11739   */\n      tag_167\n      jump\t// in\n    tag_320:\n        /* \"#utility.yul\":11665:11739   */\n      swap2\n      pop\n        /* \"#utility.yul\":11748:11841   */\n      tag_321\n        /* \"#utility.yul\":11837:11840   */\n      dup3\n        /* \"#utility.yul\":11748:11841   */\n      tag_180\n      jump\t// in\n    tag_321:\n        /* \"#utility.yul\":11866:11868   */\n      0x40\n        /* \"#utility.yul\":11861:11864   */\n      dup3\n        /* \"#utility.yul\":11857:11869   */\n      add\n        /* \"#utility.yul\":11850:11869   */\n      swap1\n      pop\n        /* \"#utility.yul\":11509:11875   */\n      swap2\n      swap1\n      pop\n      jump\t// out\n        /* \"#utility.yul\":11881:12300   */\n    tag_72:\n        /* \"#utility.yul\":12047:12051   */\n      0x00\n        /* \"#utility.yul\":12085:12087   */\n      0x20\n        /* \"#utility.yul\":12074:12083   */\n      dup3\n        /* \"#utility.yul\":12070:12088   */\n      add\n        /* \"#utility.yul\":12062:12088   */\n      swap1\n      pop\n        /* \"#utility.yul\":12134:12143   */\n      dup2\n        /* \"#utility.yul\":12128:12132   */\n      dup2\n        /* \"#utility.yul\":12124:12144   */\n      sub\n        /* \"#utility.yul\":12120:12121   */\n      0x00\n        /* \"#utility.yul\":12109:12118   */\n      dup4\n        /* \"#utility.yul\":12105:12122   */\n      add\n        /* \"#utility.yul\":12098:12145   */\n      mstore\n        /* \"#utility.yul\":12162:12293   */\n      tag_323\n        /* \"#utility.yul\":12288:12292   */\n      dup2\n        /* \"#utility.yul\":12162:12293   */\n      tag_181\n      jump\t// in\n    tag_323:\n        /* \"#utility.yul\":12154:12293   */\n      swap1\n      pop\n        /* \"#utility.yul\":11881:12300   */\n      swap2\n      swap1\n      pop\n      jump\t// out\n        /* \"#utility.yul\":12306:12609   */\n    tag_182:\n        /* \"#utility.yul\":12446:12480   */\n      0x596f7520646f6e27742068617665207065726d697373696f6e20746f20706572\n        /* \"#utility.yul\":12442:12443   */\n      0x00\n        /* \"#utility.yul\":12434:12440   */\n      dup3\n        /* \"#utility.yul\":12430:12444   */\n      add\n        /* \"#utility.yul\":12423:12481   */\n      mstore\n        /* \"#utility.yul\":12515:12549   */\n      0x666f726d20637573746f6d6572204b59432c20506c6561736520636f6e746163\n        /* \"#utility.yul\":12510:12512   */\n      0x20\n        /* \"#utility.yul\":12502:12508   */\n      dup3\n        /* \"#utility.yul\":12498:12513   */\n      add\n        /* \"#utility.yul\":12491:12550   */\n      mstore\n        /* \"#utility.yul\":12584:12601   */\n      0x7420746f205242492041444d494e210000000000000000000000000000000000\n        /* \"#utility.yul\":12579:12581   */\n      0x40\n        /* \"#utility.yul\":12571:12577   */\n      dup3\n        /* \"#utility.yul\":12567:12582   */\n      add\n        /* \"#utility.yul\":12560:12602   */\n      mstore\n        /* \"#utility.yul\":12306:12609   */\n      pop\n      jump\t// out\n        /* \"#utility.yul\":12615:12981   */\n    tag_183:\n        /* \"#utility.yul\":12757:12760   */\n      0x00\n        /* \"#utility.yul\":12778:12845   */\n      tag_326\n        /* \"#utility.yul\":12842:12844   */\n      0x4f\n        /* \"#utility.yul\":12837:12840   */\n      dup4\n        /* \"#utility.yul\":12778:12845   */\n      tag_167\n      jump\t// in\n    tag_326:\n        /* \"#utility.yul\":12771:12845   */\n      swap2\n      pop\n        /* \"#utility.yul\":12854:12947   */\n      tag_327\n        /* \"#utility.yul\":12943:12946   */\n      dup3\n        /* \"#utility.yul\":12854:12947   */\n      tag_182\n      jump\t// in\n    tag_327:\n        /* \"#utility.yul\":12972:12974   */\n      0x60\n        /* \"#utility.yul\":12967:12970   */\n      dup3\n        /* \"#utility.yul\":12963:12975   */\n      add\n        /* \"#utility.yul\":12956:12975   */\n      swap1\n      pop\n        /* \"#utility.yul\":12615:12981   */\n      swap2\n      swap1\n      pop\n      jump\t// out\n        /* \"#utility.yul\":12987:13406   */\n    tag_76:\n        /* \"#utility.yul\":13153:13157   */\n      0x00\n        /* \"#utility.yul\":13191:13193   */\n      0x20\n        /* \"#utility.yul\":13180:13189   */\n      dup3\n        /* \"#utility.yul\":13176:13194   */\n      add\n        /* \"#utility.yul\":13168:13194   */\n      swap1\n      pop\n        /* \"#utility.yul\":13240:13249   */\n      dup2\n        /* \"#utility.yul\":13234:13238   */\n      dup2\n        /* \"#utility.yul\":13230:13250   */\n      sub\n        /* \"#utility.yul\":13226:13227   */\n      0x00\n        /* \"#utility.yul\":13215:13224   */\n      dup4\n        /* \"#utility.yul\":13211:13228   */\n      add\n        /* \"#utility.yul\":13204:13251   */\n      mstore\n        /* \"#utility.yul\":13268:13399   */\n      tag_329\n        /* \"#utility.yul\":13394:13398   */\n      dup2\n        /* \"#utility.yul\":13268:13399   */\n      tag_183\n      jump\t// in\n    tag_329:\n        /* \"#utility.yul\":13260:13399   */\n      swap1\n      pop\n        /* \"#utility.yul\":12987:13406   */\n      swap2\n      swap1\n      pop\n      jump\t// out\n        /* \"#utility.yul\":13412:13592   */\n    tag_184:\n        /* \"#utility.yul\":13460:13537   */\n      0x4e487b7100000000000000000000000000000000000000000000000000000000\n        /* \"#utility.yul\":13457:13458   */\n      0x00\n        /* \"#utility.yul\":13450:13538   */\n      mstore\n        /* \"#utility.yul\":13557:13561   */\n      0x11\n        /* \"#utility.yul\":13554:13555   */\n      0x04\n        /* \"#utility.yul\":13547:13562   */\n      mstore\n        /* \"#utility.yul\":13581:13585   */\n      0x24\n        /* \"#utility.yul\":13578:13579   */\n      0x00\n        /* \"#utility.yul\":13571:13586   */\n      revert\n        /* \"#utility.yul\":13598:13786   */\n    tag_80:\n        /* \"#utility.yul\":13636:13639   */\n      0x00\n        /* \"#utility.yul\":13655:13673   */\n      tag_332\n        /* \"#utility.yul\":13671:13672   */\n      dup3\n        /* \"#utility.yul\":13655:13673   */\n      tag_170\n      jump\t// in\n    tag_332:\n        /* \"#utility.yul\":13650:13673   */\n      swap2\n      pop\n        /* \"#utility.yul\":13687:13705   */\n      tag_333\n        /* \"#utility.yul\":13703:13704   */\n      dup4\n        /* \"#utility.yul\":13687:13705   */\n      tag_170\n      jump\t// in\n    tag_333:\n        /* \"#utility.yul\":13682:13705   */\n      swap3\n      pop\n        /* \"#utility.yul\":13728:13729   */\n      dup3\n        /* \"#utility.yul\":13725:13726   */\n      dup3\n        /* \"#utility.yul\":13721:13730   */\n      add\n        /* \"#utility.yul\":13714:13730   */\n      swap1\n      pop\n        /* \"#utility.yul\":13751:13755   */\n      0xff\n        /* \"#utility.yul\":13746:13749   */\n      dup2\n        /* \"#utility.yul\":13743:13756   */\n      gt\n        /* \"#utility.yul\":13740:13779   */\n      iszero\n      tag_334\n      jumpi\n        /* \"#utility.yul\":13759:13777   */\n      tag_335\n      tag_184\n      jump\t// in\n    tag_335:\n        /* \"#utility.yul\":13740:13779   */\n    tag_334:\n        /* \"#utility.yul\":13598:13786   */\n      swap3\n      swap2\n      pop\n      pop\n      jump\t// out\n        /* \"#utility.yul\":13792:13972   */\n    tag_185:\n        /* \"#utility.yul\":13840:13917   */\n      0x4e487b7100000000000000000000000000000000000000000000000000000000\n        /* \"#utility.yul\":13837:13838   */\n      0x00\n        /* \"#utility.yul\":13830:13918   */\n      mstore\n        /* \"#utility.yul\":13937:13941   */\n      0x22\n        /* \"#utility.yul\":13934:13935   */\n      0x04\n        /* \"#utility.yul\":13927:13942   */\n      mstore\n        /* \"#utility.yul\":13961:13965   */\n      0x24\n        /* \"#utility.yul\":13958:13959   */\n      0x00\n        /* \"#utility.yul\":13951:13966   */\n      revert\n        /* \"#utility.yul\":13978:14298   */\n    tag_86:\n        /* \"#utility.yul\":14022:14028   */\n      0x00\n        /* \"#utility.yul\":14059:14060   */\n      0x02\n        /* \"#utility.yul\":14053:14057   */\n      dup3\n        /* \"#utility.yul\":14049:14061   */\n      div\n        /* \"#utility.yul\":14039:14061   */\n      swap1\n      pop\n        /* \"#utility.yul\":14106:14107   */\n      0x01\n        /* \"#utility.yul\":14100:14104   */\n      dup3\n        /* \"#utility.yul\":14096:14108   */\n      and\n        /* \"#utility.yul\":14127:14145   */\n      dup1\n        /* \"#utility.yul\":14117:14198   */\n      tag_338\n      jumpi\n        /* \"#utility.yul\":14183:14187   */\n      0x7f\n        /* \"#utility.yul\":14175:14181   */\n      dup3\n        /* \"#utility.yul\":14171:14188   */\n      and\n        /* \"#utility.yul\":14161:14188   */\n      swap2\n      pop\n        /* \"#utility.yul\":14117:14198   */\n    tag_338:\n        /* \"#utility.yul\":14245:14247   */\n      0x20\n        /* \"#utility.yul\":14237:14243   */\n      dup3\n        /* \"#utility.yul\":14234:14248   */\n      lt\n        /* \"#utility.yul\":14214:14232   */\n      dup2\n        /* \"#utility.yul\":14211:14249   */\n      sub\n        /* \"#utility.yul\":14208:14292   */\n      tag_339\n      jumpi\n        /* \"#utility.yul\":14264:14282   */\n      tag_340\n      tag_185\n      jump\t// in\n    tag_340:\n        /* \"#utility.yul\":14208:14292   */\n    tag_339:\n        /* \"#utility.yul\":14029:14298   */\n      pop\n        /* \"#utility.yul\":13978:14298   */\n      swap2\n      swap1\n      pop\n      jump\t// out\n        /* \"#utility.yul\":14304:14445   */\n    tag_186:\n        /* \"#utility.yul\":14353:14357   */\n      0x00\n        /* \"#utility.yul\":14376:14379   */\n      dup2\n        /* \"#utility.yul\":14368:14379   */\n      swap1\n      pop\n        /* \"#utility.yul\":14399:14402   */\n      dup2\n        /* \"#utility.yul\":14396:14397   */\n      0x00\n        /* \"#utility.yul\":14389:14403   */\n      mstore\n        /* \"#utility.yul\":14433:14437   */\n      0x20\n        /* \"#utility.yul\":14430:14431   */\n      0x00\n        /* \"#utility.yul\":14420:14438   */\n      keccak256\n        /* \"#utility.yul\":14412:14438   */\n      swap1\n      pop\n        /* \"#utility.yul\":14304:14445   */\n      swap2\n      swap1\n      pop\n      jump\t// out\n        /* \"#utility.yul\":14451:14544   */\n    tag_187:\n        /* \"#utility.yul\":14488:14494   */\n      0x00\n        /* \"#utility.yul\":14535:14537   */\n      0x20\n        /* \"#utility.yul\":14530:14532   */\n      0x1f\n        /* \"#utility.yul\":14523:14528   */\n      dup4\n        /* \"#utility.yul\":14519:14533   */\n      add\n        /* \"#utility.yul\":14515:14538   */\n      div\n        /* \"#utility.yul\":14505:14538   */\n      swap1\n      pop\n        /* \"#utility.yul\":14451:14544   */\n      swap2\n      swap1\n      pop\n      jump\t// out\n        /* \"#utility.yul\":14550:14657   */\n    tag_188:\n        /* \"#utility.yul\":14594:14602   */\n      0x00\n        /* \"#utility.yul\":14644:14649   */\n      dup3\n        /* \"#utility.yul\":14638:14642   */\n      dup3\n        /* \"#utility.yul\":14634:14650   */\n      shl\n        /* \"#utility.yul\":14613:14650   */\n      swap1\n      pop\n        /* \"#utility.yul\":14550:14657   */\n      swap3\n      swap2\n      pop\n      pop\n      jump\t// out\n        /* \"#utility.yul\":14663:15056   */\n    tag_189:\n        /* \"#utility.yul\":14732:14738   */\n      0x00\n        /* \"#utility.yul\":14782:14783   */\n      0x08\n        /* \"#utility.yul\":14770:14780   */\n      dup4\n        /* \"#utility.yul\":14766:14784   */\n      mul\n        /* \"#utility.yul\":14805:14902   */\n      tag_345\n        /* \"#utility.yul\":14835:14901   */\n      0xffffffffffffffffffffffffffffffffffffffffffffffffffffffffffffffff\n        /* \"#utility.yul\":14824:14833   */\n      dup3\n        /* \"#utility.yul\":14805:14902   */\n      tag_188\n      jump\t// in\n    tag_345:\n        /* \"#utility.yul\":14923:14962   */\n      tag_346\n        /* \"#utility.yul\":14953:14961   */\n      dup7\n        /* \"#utility.yul\":14942:14951   */\n      dup4\n        /* \"#utility.yul\":14923:14962   */\n      tag_188\n      jump\t// in\n    tag_346:\n        /* \"#utility.yul\":14911:14962   */\n      swap6\n      pop\n        /* \"#utility.yul\":14995:14999   */\n      dup1\n        /* \"#utility.yul\":14991:15000   */\n      not\n        /* \"#utility.yul\":14984:14989   */\n      dup5\n        /* \"#utility.yul\":14980:15001   */\n      and\n        /* \"#utility.yul\":14971:15001   */\n      swap4\n      pop\n        /* \"#utility.yul\":15044:15048   */\n      dup1\n        /* \"#utility.yul\":15034:15042   */\n      dup7\n        /* \"#utility.yul\":15030:15049   */\n      and\n        /* \"#utility.yul\":15023:15028   */\n      dup5\n        /* \"#utility.yul\":15020:15050   */\n      or\n        /* \"#utility.yul\":15010:15050   */\n      swap3\n      pop\n        /* \"#utility.yul\":14739:15056   */\n      pop\n      pop\n        /* \"#utility.yul\":14663:15056   */\n      swap4\n      swap3\n      pop\n      pop\n      pop\n      jump\t// out\n        /* \"#utility.yul\":15062:15139   */\n    tag_190:\n        /* \"#utility.yul\":15099:15106   */\n      0x00\n        /* \"#utility.yul\":15128:15133   */\n      dup2\n        /* \"#utility.yul\":15117:15133   */\n      swap1\n      pop\n        /* \"#utility.yul\":15062:15139   */\n      swap2\n      swap1\n      pop\n      jump\t// out\n        /* \"#utility.yul\":15145:15205   */\n    tag_191:\n        /* \"#utility.yul\":15173:15176   */\n      0x00\n        /* \"#utility.yul\":15194:15199   */\n      dup2\n        /* \"#utility.yul\":15187:15199   */\n      swap1\n      pop\n        /* \"#utility.yul\":15145:15205   */\n      swap2\n      swap1\n      pop\n      jump\t// out\n        /* \"#utility.yul\":15211:15353   */\n    tag_192:\n        /* \"#utility.yul\":15261:15270   */\n      0x00\n        /* \"#utility.yul\":15294:15347   */\n      tag_350\n        /* \"#utility.yul\":15312:15346   */\n      tag_351\n        /* \"#utility.yul\":15321:15345   */\n      tag_352\n        /* \"#utility.yul\":15339:15344   */\n      dup5\n        /* \"#utility.yul\":15321:15345   */\n      tag_190\n      jump\t// in\n    tag_352:\n        /* \"#utility.yul\":15312:15346   */\n      tag_191\n      jump\t// in\n    tag_351:\n        /* \"#utility.yul\":15294:15347   */\n      tag_190\n      jump\t// in\n    tag_350:\n        /* \"#utility.yul\":15281:15347   */\n      swap1\n      pop\n        /* \"#utility.yul\":15211:15353   */\n      swap2\n      swap1\n      pop\n      jump\t// out\n        /* \"#utility.yul\":15359:15434   */\n    tag_193:\n        /* \"#utility.yul\":15402:15405   */\n      0x00\n        /* \"#utility.yul\":15423:15428   */\n      dup2\n        /* \"#utility.yul\":15416:15428   */\n      swap1\n      pop\n        /* \"#utility.yul\":15359:15434   */\n      swap2\n      swap1\n      pop\n      jump\t// out\n        /* \"#utility.yul\":15440:15709   */\n    tag_194:\n        /* \"#utility.yul\":15550:15589   */\n      tag_355\n        /* \"#utility.yul\":15581:15588   */\n      dup4\n        /* \"#utility.yul\":15550:15589   */\n      tag_192\n      jump\t// in\n    tag_355:\n        /* \"#utility.yul\":15611:15702   */\n      tag_356\n        /* \"#utility.yul\":15660:15701   */\n      tag_357\n        /* \"#utility.yul\":15684:15700   */\n      dup3\n        /* \"#utility.yul\":15660:15701   */\n      tag_193\n      jump\t// in\n    tag_357:\n        /* \"#utility.yul\":15652:15658   */\n      dup5\n        /* \"#utility.yul\":15645:15649   */\n      dup5\n        /* \"#utility.yul\":15639:15650   */\n      sload\n        /* \"#utility.yul\":15611:15702   */\n      tag_189\n      jump\t// in\n    tag_356:\n        /* \"#utility.yul\":15605:15609   */\n      dup3\n        /* \"#utility.yul\":15598:15703   */\n      sstore\n        /* \"#utility.yul\":15516:15709   */\n      pop\n        /* \"#utility.yul\":15440:15709   */\n      pop\n      pop\n      pop\n      jump\t// out\n        /* \"#utility.yul\":15715:15788   */\n    tag_195:\n        /* \"#utility.yul\":15760:15763   */\n      0x00\n        /* \"#utility.yul\":15715:15788   */\n      swap1\n      jump\t// out\n        /* \"#utility.yul\":15794:15983   */\n    tag_196:\n        /* \"#utility.yul\":15871:15903   */\n      tag_360\n      tag_195\n      jump\t// in\n    tag_360:\n        /* \"#utility.yul\":15912:15977   */\n      tag_361\n        /* \"#utility.yul\":15970:15976   */\n      dup2\n        /* \"#utility.yul\":15962:15968   */\n      dup5\n        /* \"#utility.yul\":15956:15960   */\n      dup5\n        /* \"#utility.yul\":15912:15977   */\n      tag_194\n      jump\t// in\n    tag_361:\n        /* \"#utility.yul\":15847:15983   */\n      pop\n        /* \"#utility.yul\":15794:15983   */\n      pop\n      pop\n      jump\t// out\n        /* \"#utility.yul\":15989:16175   */\n    tag_197:\n        /* \"#utility.yul\":16049:16169   */\n    tag_363:\n        /* \"#utility.yul\":16066:16069   */\n      dup2\n        /* \"#utility.yul\":16059:16064   */\n      dup2\n        /* \"#utility.yul\":16056:16070   */\n      lt\n        /* \"#utility.yul\":16049:16169   */\n      iszero\n      tag_365\n      jumpi\n        /* \"#utility.yul\":16120:16159   */\n      tag_366\n        /* \"#utility.yul\":16157:16158   */\n      0x00\n        /* \"#utility.yul\":16150:16155   */\n      dup3\n        /* \"#utility.yul\":16120:16159   */\n      tag_196\n      jump\t// in\n    tag_366:\n        /* \"#utility.yul\":16093:16094   */\n      0x01\n        /* \"#utility.yul\":16086:16091   */\n      dup2\n        /* \"#utility.yul\":16082:16095   */\n      add\n        /* \"#utility.yul\":16073:16095   */\n      swap1\n      pop\n        /* \"#utility.yul\":16049:16169   */\n      jump(tag_363)\n    tag_365:\n        /* \"#utility.yul\":15989:16175   */\n      pop\n      pop\n      jump\t// out\n        /* \"#utility.yul\":16181:16724   */\n    tag_198:\n        /* \"#utility.yul\":16282:16284   */\n      0x1f\n        /* \"#utility.yul\":16277:16280   */\n      dup3\n        /* \"#utility.yul\":16274:16285   */\n      gt\n        /* \"#utility.yul\":16271:16717   */\n      iszero\n      tag_368\n      jumpi\n        /* \"#utility.yul\":16316:16354   */\n      tag_369\n        /* \"#utility.yul\":16348:16353   */\n      dup2\n        /* \"#utility.yul\":16316:16354   */\n      tag_186\n      jump\t// in\n    tag_369:\n        /* \"#utility.yul\":16400:16429   */\n      tag_370\n        /* \"#utility.yul\":16418:16428   */\n      dup5\n        /* \"#utility.yul\":16400:16429   */\n      tag_187\n      jump\t// in\n    tag_370:\n        /* \"#utility.yul\":16390:16398   */\n      dup2\n        /* \"#utility.yul\":16386:16430   */\n      add\n        /* \"#utility.yul\":16583:16585   */\n      0x20\n        /* \"#utility.yul\":16571:16581   */\n      dup6\n        /* \"#utility.yul\":16568:16586   */\n      lt\n        /* \"#utility.yul\":16565:16614   */\n      iszero\n      tag_371\n      jumpi\n        /* \"#utility.yul\":16604:16612   */\n      dup2\n        /* \"#utility.yul\":16589:16612   */\n      swap1\n      pop\n        /* \"#utility.yul\":16565:16614   */\n    tag_371:\n        /* \"#utility.yul\":16627:16707   */\n      tag_372\n        /* \"#utility.yul\":16683:16705   */\n      tag_373\n        /* \"#utility.yul\":16701:16704   */\n      dup6\n        /* \"#utility.yul\":16683:16705   */\n      tag_187\n      jump\t// in\n    tag_373:\n        /* \"#utility.yul\":16673:16681   */\n      dup4\n        /* \"#utility.yul\":16669:16706   */\n      add\n        /* \"#utility.yul\":16656:16667   */\n      dup3\n        /* \"#utility.yul\":16627:16707   */\n      tag_197\n      jump\t// in\n    tag_372:\n        /* \"#utility.yul\":16286:16717   */\n      pop\n      pop\n        /* \"#utility.yul\":16271:16717   */\n    tag_368:\n        /* \"#utility.yul\":16181:16724   */\n      pop\n      pop\n      pop\n      jump\t// out\n        /* \"#utility.yul\":16730:16847   */\n    tag_199:\n        /* \"#utility.yul\":16784:16792   */\n      0x00\n        /* \"#utility.yul\":16834:16839   */\n      dup3\n        /* \"#utility.yul\":16828:16832   */\n      dup3\n        /* \"#utility.yul\":16824:16840   */\n      shr\n        /* \"#utility.yul\":16803:16840   */\n      swap1\n      pop\n        /* \"#utility.yul\":16730:16847   */\n      swap3\n      swap2\n      pop\n      pop\n      jump\t// out\n        /* \"#utility.yul\":16853:17022   */\n    tag_200:\n        /* \"#utility.yul\":16897:16903   */\n      0x00\n        /* \"#utility.yul\":16930:16981   */\n      tag_376\n        /* \"#utility.yul\":16978:16979   */\n      0x00\n        /* \"#utility.yul\":16974:16980   */\n      not\n        /* \"#utility.yul\":16966:16971   */\n      dup5\n        /* \"#utility.yul\":16963:16964   */\n      0x08\n        /* \"#utility.yul\":16959:16972   */\n      mul\n        /* \"#utility.yul\":16930:16981   */\n      tag_199\n      jump\t// in\n    tag_376:\n        /* \"#utility.yul\":16926:16982   */\n      not\n        /* \"#utility.yul\":17011:17015   */\n      dup1\n        /* \"#utility.yul\":17005:17009   */\n      dup4\n        /* \"#utility.yul\":17001:17016   */\n      and\n        /* \"#utility.yul\":16991:17016   */\n      swap2\n      pop\n        /* \"#utility.yul\":16904:17022   */\n      pop\n        /* \"#utility.yul\":16853:17022   */\n      swap3\n      swap2\n      pop\n      pop\n      jump\t// out\n        /* \"#utility.yul\":17027:17322   */\n    tag_201:\n        /* \"#utility.yul\":17103:17107   */\n      0x00\n        /* \"#utility.yul\":17249:17278   */\n      tag_378\n        /* \"#utility.yul\":17274:17277   */\n      dup4\n        /* \"#utility.yul\":17268:17272   */\n      dup4\n        /* \"#utility.yul\":17249:17278   */\n      tag_200\n      jump\t// in\n    tag_378:\n        /* \"#utility.yul\":17241:17278   */\n      swap2\n      pop\n        /* \"#utility.yul\":17311:17314   */\n      dup3\n        /* \"#utility.yul\":17308:17309   */\n      0x02\n        /* \"#utility.yul\":17304:17315   */\n      mul\n        /* \"#utility.yul\":17298:17302   */\n      dup3\n        /* \"#utility.yul\":17295:17316   */\n      or\n        /* \"#utility.yul\":17287:17316   */\n      swap1\n      pop\n        /* \"#utility.yul\":17027:17322   */\n      swap3\n      swap2\n      pop\n      pop\n      jump\t// out\n        /* \"#utility.yul\":17327:18722   */\n    tag_100:\n        /* \"#utility.yul\":17444:17481   */\n      tag_380\n        /* \"#utility.yul\":17477:17480   */\n      dup3\n        /* \"#utility.yul\":17444:17481   */\n      tag_166\n      jump\t// in\n    tag_380:\n        /* \"#utility.yul\":17546:17564   */\n      0xffffffffffffffff\n        /* \"#utility.yul\":17538:17544   */\n      dup2\n        /* \"#utility.yul\":17535:17565   */\n      gt\n        /* \"#utility.yul\":17532:17588   */\n      iszero\n      tag_381\n      jumpi\n        /* \"#utility.yul\":17568:17586   */\n      tag_382\n      tag_159\n      jump\t// in\n    tag_382:\n        /* \"#utility.yul\":17532:17588   */\n    tag_381:\n        /* \"#utility.yul\":17612:17650   */\n      tag_383\n        /* \"#utility.yul\":17644:17648   */\n      dup3\n        /* \"#utility.yul\":17638:17649   */\n      sload\n        /* \"#utility.yul\":17612:17650   */\n      tag_86\n      jump\t// in\n    tag_383:\n        /* \"#utility.yul\":17697:17764   */\n      tag_384\n        /* \"#utility.yul\":17757:17763   */\n      dup3\n        /* \"#utility.yul\":17749:17755   */\n      dup3\n        /* \"#utility.yul\":17743:17747   */\n      dup6\n        /* \"#utility.yul\":17697:17764   */\n      tag_198\n      jump\t// in\n    tag_384:\n        /* \"#utility.yul\":17791:17792   */\n      0x00\n        /* \"#utility.yul\":17815:17819   */\n      0x20\n        /* \"#utility.yul\":17802:17819   */\n      swap1\n      pop\n        /* \"#utility.yul\":17847:17849   */\n      0x1f\n        /* \"#utility.yul\":17839:17845   */\n      dup4\n        /* \"#utility.yul\":17836:17850   */\n      gt\n        /* \"#utility.yul\":17864:17865   */\n      0x01\n        /* \"#utility.yul\":17859:18477   */\n      dup2\n      eq\n      tag_386\n      jumpi\n        /* \"#utility.yul\":18521:18522   */\n      0x00\n        /* \"#utility.yul\":18538:18544   */\n      dup5\n        /* \"#utility.yul\":18535:18612   */\n      iszero\n      tag_387\n      jumpi\n        /* \"#utility.yul\":18587:18596   */\n      dup3\n        /* \"#utility.yul\":18582:18585   */\n      dup8\n        /* \"#utility.yul\":18578:18597   */\n      add\n        /* \"#utility.yul\":18572:18598   */\n      mload\n        /* \"#utility.yul\":18563:18598   */\n      swap1\n      pop\n        /* \"#utility.yul\":18535:18612   */\n    tag_387:\n        /* \"#utility.yul\":18638:18705   */\n      tag_388\n        /* \"#utility.yul\":18698:18704   */\n      dup6\n        /* \"#utility.yul\":18691:18696   */\n      dup3\n        /* \"#utility.yul\":18638:18705   */\n      tag_201\n      jump\t// in\n    tag_388:\n        /* \"#utility.yul\":18632:18636   */\n      dup7\n        /* \"#utility.yul\":18625:18706   */\n      sstore\n        /* \"#utility.yul\":18494:18716   */\n      pop\n        /* \"#utility.yul\":17829:18716   */\n      jump(tag_385)\n        /* \"#utility.yul\":17859:18477   */\n    tag_386:\n        /* \"#utility.yul\":17911:17915   */\n      0x1f\n        /* \"#utility.yul\":17907:17916   */\n      not\n        /* \"#utility.yul\":17899:17905   */\n      dup5\n        /* \"#utility.yul\":17895:17917   */\n      and\n        /* \"#utility.yul\":17945:17982   */\n      tag_389\n        /* \"#utility.yul\":17977:17981   */\n      dup7\n        /* \"#utility.yul\":17945:17982   */\n      tag_186\n      jump\t// in\n    tag_389:\n        /* \"#utility.yul\":18004:18005   */\n      0x00\n        /* \"#utility.yul\":18018:18226   */\n    tag_390:\n        /* \"#utility.yul\":18032:18039   */\n      dup3\n        /* \"#utility.yul\":18029:18030   */\n      dup2\n        /* \"#utility.yul\":18026:18040   */\n      lt\n        /* \"#utility.yul\":18018:18226   */\n      iszero\n      tag_392\n      jumpi\n        /* \"#utility.yul\":18111:18120   */\n      dup5\n        /* \"#utility.yul\":18106:18109   */\n      dup10\n        /* \"#utility.yul\":18102:18121   */\n      add\n        /* \"#utility.yul\":18096:18122   */\n      mload\n        /* \"#utility.yul\":18088:18094   */\n      dup3\n        /* \"#utility.yul\":18081:18123   */\n      sstore\n        /* \"#utility.yul\":18162:18163   */\n      0x01\n        /* \"#utility.yul\":18154:18160   */\n      dup3\n        /* \"#utility.yul\":18150:18164   */\n      add\n        /* \"#utility.yul\":18140:18164   */\n      swap2\n      pop\n        /* \"#utility.yul\":18209:18211   */\n      0x20\n        /* \"#utility.yul\":18198:18207   */\n      dup6\n        /* \"#utility.yul\":18194:18212   */\n      add\n        /* \"#utility.yul\":18181:18212   */\n      swap5\n      pop\n        /* \"#utility.yul\":18055:18059   */\n      0x20\n        /* \"#utility.yul\":18052:18053   */\n      dup2\n        /* \"#utility.yul\":18048:18060   */\n      add\n        /* \"#utility.yul\":18043:18060   */\n      swap1\n      pop\n        /* \"#utility.yul\":18018:18226   */\n      jump(tag_390)\n    tag_392:\n        /* \"#utility.yul\":18254:18260   */\n      dup7\n        /* \"#utility.yul\":18245:18252   */\n      dup4\n        /* \"#utility.yul\":18242:18261   */\n      lt\n        /* \"#utility.yul\":18239:18418   */\n      iszero\n      tag_393\n      jumpi\n        /* \"#utility.yul\":18312:18321   */\n      dup5\n        /* \"#utility.yul\":18307:18310   */\n      dup10\n        /* \"#utility.yul\":18303:18322   */\n      add\n        /* \"#utility.yul\":18297:18323   */\n      mload\n        /* \"#utility.yul\":18355:18403   */\n      tag_394\n        /* \"#utility.yul\":18397:18401   */\n      0x1f\n        /* \"#utility.yul\":18389:18395   */\n      dup10\n        /* \"#utility.yul\":18385:18402   */\n      and\n        /* \"#utility.yul\":18374:18383   */\n      dup3\n        /* \"#utility.yul\":18355:18403   */\n      tag_200\n      jump\t// in\n    tag_394:\n        /* \"#utility.yul\":18347:18353   */\n      dup4\n        /* \"#utility.yul\":18340:18404   */\n      sstore\n        /* \"#utility.yul\":18262:18418   */\n      pop\n        /* \"#utility.yul\":18239:18418   */\n    tag_393:\n        /* \"#utility.yul\":18464:18465   */\n      0x01\n        /* \"#utility.yul\":18460:18461   */\n      0x02\n        /* \"#utility.yul\":18452:18458   */\n      dup9\n        /* \"#utility.yul\":18448:18462   */\n      mul\n        /* \"#utility.yul\":18444:18466   */\n      add\n        /* \"#utility.yul\":18438:18442   */\n      dup9\n        /* \"#utility.yul\":18431:18467   */\n      sstore\n        /* \"#utility.yul\":17866:18477   */\n      pop\n      pop\n      pop\n        /* \"#utility.yul\":17829:18716   */\n    tag_385:\n      pop\n        /* \"#utility.yul\":17419:18722   */\n      pop\n      pop\n      pop\n        /* \"#utility.yul\":17327:18722   */\n      pop\n      pop\n      jump\t// out\n        /* \"#utility.yul\":18728:19028   */\n    tag_202:\n        /* \"#utility.yul\":18868:18902   */\n      0x596f7520646f6e27742068617665207065726d697373696f6e20746f20616464\n        /* \"#utility.yul\":18864:18865   */\n      0x00\n        /* \"#utility.yul\":18856:18862   */\n      dup3\n        /* \"#utility.yul\":18852:18866   */\n      add\n        /* \"#utility.yul\":18845:18903   */\n      mstore\n        /* \"#utility.yul\":18937:18971   */\n      0x206e657720637573746f6d6572732c20506c6561736520636f6e746163742074\n        /* \"#utility.yul\":18932:18934   */\n      0x20\n        /* \"#utility.yul\":18924:18930   */\n      dup3\n        /* \"#utility.yul\":18920:18935   */\n      add\n        /* \"#utility.yul\":18913:18972   */\n      mstore\n        /* \"#utility.yul\":19006:19020   */\n      0x6f205242492041444d494e210000000000000000000000000000000000000000\n        /* \"#utility.yul\":19001:19003   */\n      0x40\n        /* \"#utility.yul\":18993:18999   */\n      dup3\n        /* \"#utility.yul\":18989:19004   */\n      add\n        /* \"#utility.yul\":18982:19021   */\n      mstore\n        /* \"#utility.yul\":18728:19028   */\n      pop\n      jump\t// out\n        /* \"#utility.yul\":19034:19400   */\n    tag_203:\n        /* \"#utility.yul\":19176:19179   */\n      0x00\n        /* \"#utility.yul\":19197:19264   */\n      tag_397\n        /* \"#utility.yul\":19261:19263   */\n      0x4c\n        /* \"#utility.yul\":19256:19259   */\n      dup4\n        /* \"#utility.yul\":19197:19264   */\n      tag_167\n      jump\t// in\n    tag_397:\n        /* \"#utility.yul\":19190:19264   */\n      swap2\n      pop\n        /* \"#utility.yul\":19273:19366   */\n      tag_398\n        /* \"#utility.yul\":19362:19365   */\n      dup3\n        /* \"#utility.yul\":19273:19366   */\n      tag_202\n      jump\t// in\n    tag_398:\n        /* \"#utility.yul\":19391:19393   */\n      0x60\n        /* \"#utility.yul\":19386:19389   */\n      dup3\n        /* \"#utility.yul\":19382:19394   */\n      add\n        /* \"#utility.yul\":19375:19394   */\n      swap1\n      pop\n        /* \"#utility.yul\":19034:19400   */\n      swap2\n      swap1\n      pop\n      jump\t// out\n        /* \"#utility.yul\":19406:19825   */\n    tag_112:\n        /* \"#utility.yul\":19572:19576   */\n      0x00\n        /* \"#utility.yul\":19610:19612   */\n      0x20\n        /* \"#utility.yul\":19599:19608   */\n      dup3\n        /* \"#utility.yul\":19595:19613   */\n      add\n        /* \"#utility.yul\":19587:19613   */\n      swap1\n      pop\n        /* \"#utility.yul\":19659:19668   */\n      dup2\n        /* \"#utility.yul\":19653:19657   */\n      dup2\n        /* \"#utility.yul\":19649:19669   */\n      sub\n        /* \"#utility.yul\":19645:19646   */\n      0x00\n        /* \"#utility.yul\":19634:19643   */\n      dup4\n        /* \"#utility.yul\":19630:19647   */\n      add\n        /* \"#utility.yul\":19623:19670   */\n      mstore\n        /* \"#utility.yul\":19687:19818   */\n      tag_400\n        /* \"#utility.yul\":19813:19817   */\n      dup2\n        /* \"#utility.yul\":19687:19818   */\n      tag_203\n      jump\t// in\n    tag_400:\n        /* \"#utility.yul\":19679:19818   */\n      swap1\n      pop\n        /* \"#utility.yul\":19406:19825   */\n      swap2\n      swap1\n      pop\n      jump\t// out\n        /* \"#utility.yul\":19831:19984   */\n    tag_204:\n        /* \"#utility.yul\":19884:19890   */\n      0x00\n        /* \"#utility.yul\":19918:19923   */\n      dup2\n        /* \"#utility.yul\":19912:19924   */\n      sload\n        /* \"#utility.yul\":19902:19924   */\n      swap1\n      pop\n        /* \"#utility.yul\":19944:19977   */\n      tag_402\n        /* \"#utility.yul\":19970:19976   */\n      dup2\n        /* \"#utility.yul\":19944:19977   */\n      tag_86\n      jump\t// in\n    tag_402:\n        /* \"#utility.yul\":19934:19977   */\n      swap1\n      pop\n        /* \"#utility.yul\":19831:19984   */\n      swap2\n      swap1\n      pop\n      jump\t// out\n        /* \"#utility.yul\":19990:20135   */\n    tag_205:\n        /* \"#utility.yul\":20043:20047   */\n      0x00\n        /* \"#utility.yul\":20066:20069   */\n      dup2\n        /* \"#utility.yul\":20058:20069   */\n      swap1\n      pop\n        /* \"#utility.yul\":20089:20092   */\n      dup2\n        /* \"#utility.yul\":20086:20087   */\n      0x00\n        /* \"#utility.yul\":20079:20093   */\n      mstore\n        /* \"#utility.yul\":20123:20127   */\n      0x20\n        /* \"#utility.yul\":20120:20121   */\n      0x00\n        /* \"#utility.yul\":20110:20128   */\n      keccak256\n        /* \"#utility.yul\":20102:20128   */\n      swap1\n      pop\n        /* \"#utility.yul\":19990:20135   */\n      swap2\n      swap1\n      pop\n      jump\t// out\n        /* \"#utility.yul\":20141:21604   */\n    tag_121:\n        /* \"#utility.yul\":20256:20259   */\n      dup2\n        /* \"#utility.yul\":20250:20254   */\n      dup2\n        /* \"#utility.yul\":20247:20260   */\n      sub\n        /* \"#utility.yul\":20244:20270   */\n      tag_405\n      jumpi\n        /* \"#utility.yul\":20263:20268   */\n      pop\n      pop\n      jump(tag_404)\n        /* \"#utility.yul\":20244:20270   */\n    tag_405:\n        /* \"#utility.yul\":20294:20332   */\n      tag_406\n        /* \"#utility.yul\":20328:20331   */\n      dup3\n        /* \"#utility.yul\":20294:20332   */\n      tag_204\n      jump\t// in\n    tag_406:\n        /* \"#utility.yul\":20397:20415   */\n      0xffffffffffffffff\n        /* \"#utility.yul\":20389:20395   */\n      dup2\n        /* \"#utility.yul\":20386:20416   */\n      gt\n        /* \"#utility.yul\":20383:20439   */\n      iszero\n      tag_407\n      jumpi\n        /* \"#utility.yul\":20419:20437   */\n      tag_408\n      tag_159\n      jump\t// in\n    tag_408:\n        /* \"#utility.yul\":20383:20439   */\n    tag_407:\n        /* \"#utility.yul\":20463:20501   */\n      tag_409\n        /* \"#utility.yul\":20495:20499   */\n      dup3\n        /* \"#utility.yul\":20489:20500   */\n      sload\n        /* \"#utility.yul\":20463:20501   */\n      tag_86\n      jump\t// in\n    tag_409:\n        /* \"#utility.yul\":20548:20615   */\n      tag_410\n        /* \"#utility.yul\":20608:20614   */\n      dup3\n        /* \"#utility.yul\":20600:20606   */\n      dup3\n        /* \"#utility.yul\":20594:20598   */\n      dup6\n        /* \"#utility.yul\":20548:20615   */\n      tag_198\n      jump\t// in\n    tag_410:\n        /* \"#utility.yul\":20642:20643   */\n      0x00\n        /* \"#utility.yul\":20671:20673   */\n      0x1f\n        /* \"#utility.yul\":20663:20669   */\n      dup4\n        /* \"#utility.yul\":20660:20674   */\n      gt\n        /* \"#utility.yul\":20688:20689   */\n      0x01\n        /* \"#utility.yul\":20683:21359   */\n      dup2\n      eq\n      tag_412\n      jumpi\n        /* \"#utility.yul\":21403:21404   */\n      0x00\n        /* \"#utility.yul\":21420:21426   */\n      dup5\n        /* \"#utility.yul\":21417:21494   */\n      iszero\n      tag_413\n      jumpi\n        /* \"#utility.yul\":21469:21478   */\n      dup3\n        /* \"#utility.yul\":21464:21467   */\n      dup8\n        /* \"#utility.yul\":21460:21479   */\n      add\n        /* \"#utility.yul\":21454:21480   */\n      sload\n        /* \"#utility.yul\":21445:21480   */\n      swap1\n      pop\n        /* \"#utility.yul\":21417:21494   */\n    tag_413:\n        /* \"#utility.yul\":21520:21587   */\n      tag_414\n        /* \"#utility.yul\":21580:21586   */\n      dup6\n        /* \"#utility.yul\":21573:21578   */\n      dup3\n        /* \"#utility.yul\":21520:21587   */\n      tag_201\n      jump\t// in\n    tag_414:\n        /* \"#utility.yul\":21514:21518   */\n      dup7\n        /* \"#utility.yul\":21507:21588   */\n      sstore\n        /* \"#utility.yul\":21376:21598   */\n      pop\n        /* \"#utility.yul\":20653:21598   */\n      jump(tag_411)\n        /* \"#utility.yul\":20683:21359   */\n    tag_412:\n        /* \"#utility.yul\":20735:20739   */\n      0x1f\n        /* \"#utility.yul\":20731:20740   */\n      not\n        /* \"#utility.yul\":20723:20729   */\n      dup5\n        /* \"#utility.yul\":20719:20741   */\n      and\n        /* \"#utility.yul\":20761:20801   */\n      tag_415\n        /* \"#utility.yul\":20797:20800   */\n      dup8\n        /* \"#utility.yul\":20761:20801   */\n      tag_205\n      jump\t// in\n    tag_415:\n        /* \"#utility.yul\":20754:20801   */\n      swap7\n      pop\n        /* \"#utility.yul\":20828:20865   */\n      tag_416\n        /* \"#utility.yul\":20860:20864   */\n      dup7\n        /* \"#utility.yul\":20828:20865   */\n      tag_186\n      jump\t// in\n    tag_416:\n        /* \"#utility.yul\":20887:20888   */\n      0x00\n        /* \"#utility.yul\":20901:21108   */\n    tag_417:\n        /* \"#utility.yul\":20915:20922   */\n      dup3\n        /* \"#utility.yul\":20912:20913   */\n      dup2\n        /* \"#utility.yul\":20909:20923   */\n      lt\n        /* \"#utility.yul\":20901:21108   */\n      iszero\n      tag_419\n      jumpi\n        /* \"#utility.yul\":20994:21003   */\n      dup5\n        /* \"#utility.yul\":20989:20992   */\n      dup10\n        /* \"#utility.yul\":20985:21004   */\n      add\n        /* \"#utility.yul\":20979:21005   */\n      sload\n        /* \"#utility.yul\":20971:20977   */\n      dup3\n        /* \"#utility.yul\":20964:21006   */\n      sstore\n        /* \"#utility.yul\":21045:21046   */\n      0x01\n        /* \"#utility.yul\":21037:21043   */\n      dup3\n        /* \"#utility.yul\":21033:21047   */\n      add\n        /* \"#utility.yul\":21023:21047   */\n      swap2\n      pop\n        /* \"#utility.yul\":21092:21093   */\n      0x01\n        /* \"#utility.yul\":21081:21090   */\n      dup6\n        /* \"#utility.yul\":21077:21094   */\n      add\n        /* \"#utility.yul\":21064:21094   */\n      swap5\n      pop\n        /* \"#utility.yul\":20938:20942   */\n      0x20\n        /* \"#utility.yul\":20935:20936   */\n      dup2\n        /* \"#utility.yul\":20931:20943   */\n      add\n        /* \"#utility.yul\":20926:20943   */\n      swap1\n      pop\n        /* \"#utility.yul\":20901:21108   */\n      jump(tag_417)\n    tag_419:\n        /* \"#utility.yul\":21136:21142   */\n      dup7\n        /* \"#utility.yul\":21127:21134   */\n      dup4\n        /* \"#utility.yul\":21124:21143   */\n      lt\n        /* \"#utility.yul\":21121:21300   */\n      iszero\n      tag_420\n      jumpi\n        /* \"#utility.yul\":21194:21203   */\n      dup5\n        /* \"#utility.yul\":21189:21192   */\n      dup10\n        /* \"#utility.yul\":21185:21204   */\n      add\n        /* \"#utility.yul\":21179:21205   */\n      sload\n        /* \"#utility.yul\":21237:21285   */\n      tag_421\n        /* \"#utility.yul\":21279:21283   */\n      0x1f\n        /* \"#utility.yul\":21271:21277   */\n      dup10\n        /* \"#utility.yul\":21267:21284   */\n      and\n        /* \"#utility.yul\":21256:21265   */\n      dup3\n        /* \"#utility.yul\":21237:21285   */\n      tag_200\n      jump\t// in\n    tag_421:\n        /* \"#utility.yul\":21229:21235   */\n      dup4\n        /* \"#utility.yul\":21222:21286   */\n      sstore\n        /* \"#utility.yul\":21144:21300   */\n      pop\n        /* \"#utility.yul\":21121:21300   */\n    tag_420:\n        /* \"#utility.yul\":21346:21347   */\n      0x01\n        /* \"#utility.yul\":21342:21343   */\n      0x02\n        /* \"#utility.yul\":21334:21340   */\n      dup9\n        /* \"#utility.yul\":21330:21344   */\n      mul\n        /* \"#utility.yul\":21326:21348   */\n      add\n        /* \"#utility.yul\":21320:21324   */\n      dup9\n        /* \"#utility.yul\":21313:21349   */\n      sstore\n        /* \"#utility.yul\":20690:21359   */\n      pop\n      pop\n      pop\n        /* \"#utility.yul\":20653:21598   */\n    tag_411:\n      pop\n        /* \"#utility.yul\":20234:21604   */\n      pop\n      pop\n      pop\n        /* \"#utility.yul\":20141:21604   */\n      pop\n      pop\n    tag_404:\n      jump\t// out\n\n    auxdata: 0xa264697066735822122058099b0893ca2cfa9adcf5b478c192b299cdc11f1ee256a2d36a96b9fc51738564736f6c63430008110033\n}\n",
				"bytecode": {
					"linkReferences": {},
					"object": "608060405234801561001057600080fd5b50336000806101000a81548173ffffffffffffffffffffffffffffffffffffffff021916908373ffffffffffffffffffffffffffffffffffffffff160217905550611e6a806100606000396000f3fe608060405234801561001057600080fd5b506004361061009e5760003560e01c8063875deaa111610066578063875deaa11461014657806394b4956314610162578063ad03352d14610192578063c07691e6146101ae578063c50ab8c4146101e15761009e565b806301fc9e9f146100a35780630956bd29146100bf57806311ce71c5146100db57806315101e02146100f75780631b2cad481461012a575b600080fd5b6100bd60048036038101906100b89190611255565b6101fd565b005b6100d960048036038101906100d49190611255565b6102e9565b005b6100f560048036038101906100f091906113c8565b6103d5565b005b610111600480360381019061010c9190611255565b610656565b60405161012194939291906114c7565b60405180910390f35b610144600480360381019061013f9190611255565b6108b9565b005b610160600480360381019061015b9190611513565b6109a4565b005b61017c600480360381019061017791906113c8565b610b07565b604051610189919061156f565b60405180910390f35b6101ac60048036038101906101a7919061158a565b610bce565b005b6101c860048036038101906101c391906113c8565b610e1d565b6040516101d89493929190611602565b60405180910390f35b6101fb60048036038101906101f69190611255565b6110f8565b005b60008054906101000a900473ffffffffffffffffffffffffffffffffffffffff1673ffffffffffffffffffffffffffffffffffffffff163373ffffffffffffffffffffffffffffffffffffffff161461028b576040517f08c379a0000000000000000000000000000000000000000000000000000000008152600401610282906116ce565b60405180910390fd5b6000600160008373ffffffffffffffffffffffffffffffffffffffff1673ffffffffffffffffffffffffffffffffffffffff16815260200190815260200160002060020160016101000a81548160ff02191690831515021790555050565b60008054906101000a900473ffffffffffffffffffffffffffffffffffffffff1673ffffffffffffffffffffffffffffffffffffffff163373ffffffffffffffffffffffffffffffffffffffff1614610377576040517f08c379a000000000000000000000000000000000000000000000000000000000815260040161036e906116ce565b60405180910390fd5b6000600160008373ffffffffffffffffffffffffffffffffffffffff1673ffffffffffffffffffffffffffffffffffffffff16815260200190815260200160002060020160026101000a81548160ff02191690831515021790555050565b60008054906101000a900473ffffffffffffffffffffffffffffffffffffffff1673ffffffffffffffffffffffffffffffffffffffff163373ffffffffffffffffffffffffffffffffffffffff1603610463576040517f08c379a000000000000000000000000000000000000000000000000000000000815260040161045a90611760565b60405180910390fd5b8060028160405161047491906117bc565b908152602001604051809103902060020160009054906101000a900473ffffffffffffffffffffffffffffffffffffffff1673ffffffffffffffffffffffffffffffffffffffff163373ffffffffffffffffffffffffffffffffffffffff1614610513576040517f08c379a000000000000000000000000000000000000000000000000000000000815260040161050a90611845565b60405180910390fd5b600160003373ffffffffffffffffffffffffffffffffffffffff1673ffffffffffffffffffffffffffffffffffffffff16815260200190815260200160002060020160029054906101000a900460ff166105a2576040517f08c379a0000000000000000000000000000000000000000000000000000000008152600401610599906118fd565b60405180910390fd5b60016002836040516105b491906117bc565b908152602001604051809103902060040160006101000a81548160ff02191690831515021790555060018060003373ffffffffffffffffffffffffffffffffffffffff1673ffffffffffffffffffffffffffffffffffffffff16815260200190815260200160002060020160008282829054906101000a900460ff1661063a919061194c565b92506101000a81548160ff021916908360ff1602179055505050565b606060008060008060009054906101000a900473ffffffffffffffffffffffffffffffffffffffff1673ffffffffffffffffffffffffffffffffffffffff163373ffffffffffffffffffffffffffffffffffffffff16146106ec576040517f08c379a00000000000000000000000000000000000000000000000000000000081526004016106e3906116ce565b60405180910390fd5b600160008673ffffffffffffffffffffffffffffffffffffffff1673ffffffffffffffffffffffffffffffffffffffff168152602001908152602001600020600101600160008773ffffffffffffffffffffffffffffffffffffffff1673ffffffffffffffffffffffffffffffffffffffff16815260200190815260200160002060020160009054906101000a900460ff16600160008873ffffffffffffffffffffffffffffffffffffffff1673ffffffffffffffffffffffffffffffffffffffff16815260200190815260200160002060020160019054906101000a900460ff16600160008973ffffffffffffffffffffffffffffffffffffffff1673ffffffffffffffffffffffffffffffffffffffff16815260200190815260200160002060020160029054906101000a900460ff1683805461082a906119b0565b80601f0160208091040260200160405190810160405280929190818152602001828054610856906119b0565b80156108a35780601f10610878576101008083540402835291602001916108a3565b820191906000526020600020905b81548152906001019060200180831161088657829003601f168201915b5050505050935093509350935093509193509193565b60008054906101000a900473ffffffffffffffffffffffffffffffffffffffff1673ffffffffffffffffffffffffffffffffffffffff163373ffffffffffffffffffffffffffffffffffffffff1614610947576040517f08c379a000000000000000000000000000000000000000000000000000000000815260040161093e906116ce565b60405180910390fd5b60018060008373ffffffffffffffffffffffffffffffffffffffff1673ffffffffffffffffffffffffffffffffffffffff16815260200190815260200160002060020160016101000a81548160ff02191690831515021790555050565b60008054906101000a900473ffffffffffffffffffffffffffffffffffffffff1673ffffffffffffffffffffffffffffffffffffffff163373ffffffffffffffffffffffffffffffffffffffff1614610a32576040517f08c379a0000000000000000000000000000000000000000000000000000000008152600401610a29906116ce565b60405180910390fd5b80600160008373ffffffffffffffffffffffffffffffffffffffff1673ffffffffffffffffffffffffffffffffffffffff16815260200190815260200160002060000160006101000a81548173ffffffffffffffffffffffffffffffffffffffff021916908373ffffffffffffffffffffffffffffffffffffffff16021790555081600160008373ffffffffffffffffffffffffffffffffffffffff1673ffffffffffffffffffffffffffffffffffffffff1681526020019081526020016000206001019081610b029190611b97565b505050565b60008060009054906101000a900473ffffffffffffffffffffffffffffffffffffffff1673ffffffffffffffffffffffffffffffffffffffff163373ffffffffffffffffffffffffffffffffffffffff1603610b98576040517f08c379a0000000000000000000000000000000000000000000000000000000008152600401610b8f90611760565b60405180910390fd5b600282604051610ba891906117bc565b908152602001604051809103902060040160009054906101000a900460ff169050919050565b60008054906101000a900473ffffffffffffffffffffffffffffffffffffffff1673ffffffffffffffffffffffffffffffffffffffff163373ffffffffffffffffffffffffffffffffffffffff1603610c5c576040517f08c379a0000000000000000000000000000000000000000000000000000000008152600401610c5390611760565b60405180910390fd5b600160003373ffffffffffffffffffffffffffffffffffffffff1673ffffffffffffffffffffffffffffffffffffffff16815260200190815260200160002060020160019054906101000a900460ff16610ceb576040517f08c379a0000000000000000000000000000000000000000000000000000000008152600401610ce290611d01565b60405180910390fd5b81600283604051610cfc91906117bc565b90815260200160405180910390206000019081610d199190611b97565b5080600283604051610d2b91906117bc565b90815260200160405180910390206001019081610d489190611b97565b5033600283604051610d5a91906117bc565b908152602001604051809103902060020160006101000a81548173ffffffffffffffffffffffffffffffffffffffff021916908373ffffffffffffffffffffffffffffffffffffffff160217905550600160003373ffffffffffffffffffffffffffffffffffffffff1673ffffffffffffffffffffffffffffffffffffffff168152602001908152602001600020600101600283604051610dfb91906117bc565b90815260200160405180910390206003019081610e189190611d4c565b505050565b606080606060008060009054906101000a900473ffffffffffffffffffffffffffffffffffffffff1673ffffffffffffffffffffffffffffffffffffffff163373ffffffffffffffffffffffffffffffffffffffff1603610eb3576040517f08c379a0000000000000000000000000000000000000000000000000000000008152600401610eaa90611760565b60405180910390fd5b600285604051610ec391906117bc565b9081526020016040518091039020600001600286604051610ee491906117bc565b9081526020016040518091039020600101600287604051610f0591906117bc565b9081526020016040518091039020600301600288604051610f2691906117bc565b908152602001604051809103902060040160009054906101000a900460ff16838054610f51906119b0565b80601f0160208091040260200160405190810160405280929190818152602001828054610f7d906119b0565b8015610fca5780601f10610f9f57610100808354040283529160200191610fca565b820191906000526020600020905b815481529060010190602001808311610fad57829003601f168201915b50505050509350828054610fdd906119b0565b80601f0160208091040260200160405190810160405280929190818152602001828054611009906119b0565b80156110565780601f1061102b57610100808354040283529160200191611056565b820191906000526020600020905b81548152906001019060200180831161103957829003601f168201915b50505050509250818054611069906119b0565b80601f0160208091040260200160405190810160405280929190818152602001828054611095906119b0565b80156110e25780601f106110b7576101008083540402835291602001916110e2565b820191906000526020600020905b8154815290600101906020018083116110c557829003601f168201915b5050505050915093509350935093509193509193565b60008054906101000a900473ffffffffffffffffffffffffffffffffffffffff1673ffffffffffffffffffffffffffffffffffffffff163373ffffffffffffffffffffffffffffffffffffffff1614611186576040517f08c379a000000000000000000000000000000000000000000000000000000000815260040161117d906116ce565b60405180910390fd5b60018060008373ffffffffffffffffffffffffffffffffffffffff1673ffffffffffffffffffffffffffffffffffffffff16815260200190815260200160002060020160026101000a81548160ff02191690831515021790555050565b6000604051905090565b600080fd5b600080fd5b600073ffffffffffffffffffffffffffffffffffffffff82169050919050565b6000611222826111f7565b9050919050565b61123281611217565b811461123d57600080fd5b50565b60008135905061124f81611229565b92915050565b60006020828403121561126b5761126a6111ed565b5b600061127984828501611240565b91505092915050565b600080fd5b600080fd5b6000601f19601f8301169050919050565b7f4e487b7100000000000000000000000000000000000000000000000000000000600052604160045260246000fd5b6112d58261128c565b810181811067ffffffffffffffff821117156112f4576112f361129d565b5b80604052505050565b60006113076111e3565b905061131382826112cc565b919050565b600067ffffffffffffffff8211156113335761133261129d565b5b61133c8261128c565b9050602081019050919050565b82818337600083830152505050565b600061136b61136684611318565b6112fd565b90508281526020810184848401111561138757611386611287565b5b611392848285611349565b509392505050565b600082601f8301126113af576113ae611282565b5b81356113bf848260208601611358565b91505092915050565b6000602082840312156113de576113dd6111ed565b5b600082013567ffffffffffffffff8111156113fc576113fb6111f2565b5b6114088482850161139a565b91505092915050565b600081519050919050565b600082825260208201905092915050565b60005b8381101561144b578082015181840152602081019050611430565b60008484015250505050565b600061146282611411565b61146c818561141c565b935061147c81856020860161142d565b6114858161128c565b840191505092915050565b600060ff82169050919050565b6114a681611490565b82525050565b60008115159050919050565b6114c1816114ac565b82525050565b600060808201905081810360008301526114e18187611457565b90506114f0602083018661149d565b6114fd60408301856114b8565b61150a60608301846114b8565b95945050505050565b6000806040838503121561152a576115296111ed565b5b600083013567ffffffffffffffff811115611548576115476111f2565b5b6115548582860161139a565b925050602061156585828601611240565b9150509250929050565b600060208201905061158460008301846114b8565b92915050565b600080604083850312156115a1576115a06111ed565b5b600083013567ffffffffffffffff8111156115bf576115be6111f2565b5b6115cb8582860161139a565b925050602083013567ffffffffffffffff8111156115ec576115eb6111f2565b5b6115f88582860161139a565b9150509250929050565b6000608082019050818103600083015261161c8187611457565b905081810360208301526116308186611457565b905081810360408301526116448185611457565b905061165360608301846114b8565b95945050505050565b7f4f6e6c792041444d494e2063616e20706572666f726d2074686973206163746960008201527f6f6e210000000000000000000000000000000000000000000000000000000000602082015250565b60006116b860238361141c565b91506116c38261165c565b604082019050919050565b600060208201905081810360008301526116e7816116ab565b9050919050565b7f4f6e6c792042616e6b2063616e20706572666f726d207468697320416374696f60008201527f6e21000000000000000000000000000000000000000000000000000000000000602082015250565b600061174a60228361141c565b9150611755826116ee565b604082019050919050565b600060208201905081810360008301526117798161173d565b9050919050565b600081905092915050565b600061179682611411565b6117a08185611780565b93506117b081856020860161142d565b80840191505092915050565b60006117c8828461178b565b915081905092915050565b7f437573746f6d657220646f65736e277420657869737420696e20796f7572206260008201527f616e6b2100000000000000000000000000000000000000000000000000000000602082015250565b600061182f60248361141c565b915061183a826117d3565b604082019050919050565b6000602082019050818103600083015261185e81611822565b9050919050565b7f596f7520646f6e27742068617665207065726d697373696f6e20746f2070657260008201527f666f726d20637573746f6d6572204b59432c20506c6561736520636f6e74616360208201527f7420746f205242492041444d494e210000000000000000000000000000000000604082015250565b60006118e7604f8361141c565b91506118f282611865565b606082019050919050565b60006020820190508181036000830152611916816118da565b9050919050565b7f4e487b7100000000000000000000000000000000000000000000000000000000600052601160045260246000fd5b600061195782611490565b915061196283611490565b9250828201905060ff81111561197b5761197a61191d565b5b92915050565b7f4e487b7100000000000000000000000000000000000000000000000000000000600052602260045260246000fd5b600060028204905060018216806119c857607f821691505b6020821081036119db576119da611981565b5b50919050565b60008190508160005260206000209050919050565b60006020601f8301049050919050565b600082821b905092915050565b600060088302611a437fffffffffffffffffffffffffffffffffffffffffffffffffffffffffffffffff82611a06565b611a4d8683611a06565b95508019841693508086168417925050509392505050565b6000819050919050565b6000819050919050565b6000611a94611a8f611a8a84611a65565b611a6f565b611a65565b9050919050565b6000819050919050565b611aae83611a79565b611ac2611aba82611a9b565b848454611a13565b825550505050565b600090565b611ad7611aca565b611ae2818484611aa5565b505050565b5b81811015611b0657611afb600082611acf565b600181019050611ae8565b5050565b601f821115611b4b57611b1c816119e1565b611b25846119f6565b81016020851015611b34578190505b611b48611b40856119f6565b830182611ae7565b50505b505050565b600082821c905092915050565b6000611b6e60001984600802611b50565b1980831691505092915050565b6000611b878383611b5d565b9150826002028217905092915050565b611ba082611411565b67ffffffffffffffff811115611bb957611bb861129d565b5b611bc382546119b0565b611bce828285611b0a565b600060209050601f831160018114611c015760008415611bef578287015190505b611bf98582611b7b565b865550611c61565b601f198416611c0f866119e1565b60005b82811015611c3757848901518255600182019150602085019450602081019050611c12565b86831015611c545784890151611c50601f891682611b5d565b8355505b6001600288020188555050505b505050505050565b7f596f7520646f6e27742068617665207065726d697373696f6e20746f2061646460008201527f206e657720637573746f6d6572732c20506c6561736520636f6e74616374207460208201527f6f205242492041444d494e210000000000000000000000000000000000000000604082015250565b6000611ceb604c8361141c565b9150611cf682611c69565b606082019050919050565b60006020820190508181036000830152611d1a81611cde565b9050919050565b600081549050611d30816119b0565b9050919050565b60008190508160005260206000209050919050565b818103611d5a575050611e32565b611d6382611d21565b67ffffffffffffffff811115611d7c57611d7b61129d565b5b611d8682546119b0565b611d91828285611b0a565b6000601f831160018114611dc05760008415611dae578287015490505b611db88582611b7b565b865550611e2b565b601f198416611dce87611d37565b9650611dd9866119e1565b60005b82811015611e0157848901548255600182019150600185019450602081019050611ddc565b86831015611e1e5784890154611e1a601f891682611b5d565b8355505b6001600288020188555050505b5050505050505b56fea264697066735822122058099b0893ca2cfa9adcf5b478c192b299cdc11f1ee256a2d36a96b9fc51738564736f6c63430008110033",
					"opcodes": "PUSH1 0x80 PUSH1 0x40 MSTORE CALLVALUE DUP1 ISZERO PUSH2 0x10 JUMPI PUSH1 0x0 DUP1 REVERT JUMPDEST POP CALLER PUSH1 0x0 DUP1 PUSH2 0x100 EXP DUP2 SLOAD DUP2 PUSH20 0xFFFFFFFFFFFFFFFFFFFFFFFFFFFFFFFFFFFFFFFF MUL NOT AND SWAP1 DUP4 PUSH20 0xFFFFFFFFFFFFFFFFFFFFFFFFFFFFFFFFFFFFFFFF AND MUL OR SWAP1 SSTORE POP PUSH2 0x1E6A DUP1 PUSH2 0x60 PUSH1 0x0 CODECOPY PUSH1 0x0 RETURN INVALID PUSH1 0x80 PUSH1 0x40 MSTORE CALLVALUE DUP1 ISZERO PUSH2 0x10 JUMPI PUSH1 0x0 DUP1 REVERT JUMPDEST POP PUSH1 0x4 CALLDATASIZE LT PUSH2 0x9E JUMPI PUSH1 0x0 CALLDATALOAD PUSH1 0xE0 SHR DUP1 PUSH4 0x875DEAA1 GT PUSH2 0x66 JUMPI DUP1 PUSH4 0x875DEAA1 EQ PUSH2 0x146 JUMPI DUP1 PUSH4 0x94B49563 EQ PUSH2 0x162 JUMPI DUP1 PUSH4 0xAD03352D EQ PUSH2 0x192 JUMPI DUP1 PUSH4 0xC07691E6 EQ PUSH2 0x1AE JUMPI DUP1 PUSH4 0xC50AB8C4 EQ PUSH2 0x1E1 JUMPI PUSH2 0x9E JUMP JUMPDEST DUP1 PUSH4 0x1FC9E9F EQ PUSH2 0xA3 JUMPI DUP1 PUSH4 0x956BD29 EQ PUSH2 0xBF JUMPI DUP1 PUSH4 0x11CE71C5 EQ PUSH2 0xDB JUMPI DUP1 PUSH4 0x15101E02 EQ PUSH2 0xF7 JUMPI DUP1 PUSH4 0x1B2CAD48 EQ PUSH2 0x12A JUMPI JUMPDEST PUSH1 0x0 DUP1 REVERT JUMPDEST PUSH2 0xBD PUSH1 0x4 DUP1 CALLDATASIZE SUB DUP2 ADD SWAP1 PUSH2 0xB8 SWAP2 SWAP1 PUSH2 0x1255 JUMP JUMPDEST PUSH2 0x1FD JUMP JUMPDEST STOP JUMPDEST PUSH2 0xD9 PUSH1 0x4 DUP1 CALLDATASIZE SUB DUP2 ADD SWAP1 PUSH2 0xD4 SWAP2 SWAP1 PUSH2 0x1255 JUMP JUMPDEST PUSH2 0x2E9 JUMP JUMPDEST STOP JUMPDEST PUSH2 0xF5 PUSH1 0x4 DUP1 CALLDATASIZE SUB DUP2 ADD SWAP1 PUSH2 0xF0 SWAP2 SWAP1 PUSH2 0x13C8 JUMP JUMPDEST PUSH2 0x3D5 JUMP JUMPDEST STOP JUMPDEST PUSH2 0x111 PUSH1 0x4 DUP1 CALLDATASIZE SUB DUP2 ADD SWAP1 PUSH2 0x10C SWAP2 SWAP1 PUSH2 0x1255 JUMP JUMPDEST PUSH2 0x656 JUMP JUMPDEST PUSH1 0x40 MLOAD PUSH2 0x121 SWAP5 SWAP4 SWAP3 SWAP2 SWAP1 PUSH2 0x14C7 JUMP JUMPDEST PUSH1 0x40 MLOAD DUP1 SWAP2 SUB SWAP1 RETURN JUMPDEST PUSH2 0x144 PUSH1 0x4 DUP1 CALLDATASIZE SUB DUP2 ADD SWAP1 PUSH2 0x13F SWAP2 SWAP1 PUSH2 0x1255 JUMP JUMPDEST PUSH2 0x8B9 JUMP JUMPDEST STOP JUMPDEST PUSH2 0x160 PUSH1 0x4 DUP1 CALLDATASIZE SUB DUP2 ADD SWAP1 PUSH2 0x15B SWAP2 SWAP1 PUSH2 0x1513 JUMP JUMPDEST PUSH2 0x9A4 JUMP JUMPDEST STOP JUMPDEST PUSH2 0x17C PUSH1 0x4 DUP1 CALLDATASIZE SUB DUP2 ADD SWAP1 PUSH2 0x177 SWAP2 SWAP1 PUSH2 0x13C8 JUMP JUMPDEST PUSH2 0xB07 JUMP JUMPDEST PUSH1 0x40 MLOAD PUSH2 0x189 SWAP2 SWAP1 PUSH2 0x156F JUMP JUMPDEST PUSH1 0x40 MLOAD DUP1 SWAP2 SUB SWAP1 RETURN JUMPDEST PUSH2 0x1AC PUSH1 0x4 DUP1 CALLDATASIZE SUB DUP2 ADD SWAP1 PUSH2 0x1A7 SWAP2 SWAP1 PUSH2 0x158A JUMP JUMPDEST PUSH2 0xBCE JUMP JUMPDEST STOP JUMPDEST PUSH2 0x1C8 PUSH1 0x4 DUP1 CALLDATASIZE SUB DUP2 ADD SWAP1 PUSH2 0x1C3 SWAP2 SWAP1 PUSH2 0x13C8 JUMP JUMPDEST PUSH2 0xE1D JUMP JUMPDEST PUSH1 0x40 MLOAD PUSH2 0x1D8 SWAP5 SWAP4 SWAP3 SWAP2 SWAP1 PUSH2 0x1602 JUMP JUMPDEST PUSH1 0x40 MLOAD DUP1 SWAP2 SUB SWAP1 RETURN JUMPDEST PUSH2 0x1FB PUSH1 0x4 DUP1 CALLDATASIZE SUB DUP2 ADD SWAP1 PUSH2 0x1F6 SWAP2 SWAP1 PUSH2 0x1255 JUMP JUMPDEST PUSH2 0x10F8 JUMP JUMPDEST STOP JUMPDEST PUSH1 0x0 DUP1 SLOAD SWAP1 PUSH2 0x100 EXP SWAP1 DIV PUSH20 0xFFFFFFFFFFFFFFFFFFFFFFFFFFFFFFFFFFFFFFFF AND PUSH20 0xFFFFFFFFFFFFFFFFFFFFFFFFFFFFFFFFFFFFFFFF AND CALLER PUSH20 0xFFFFFFFFFFFFFFFFFFFFFFFFFFFFFFFFFFFFFFFF AND EQ PUSH2 0x28B JUMPI PUSH1 0x40 MLOAD PUSH32 0x8C379A000000000000000000000000000000000000000000000000000000000 DUP2 MSTORE PUSH1 0x4 ADD PUSH2 0x282 SWAP1 PUSH2 0x16CE JUMP JUMPDEST PUSH1 0x40 MLOAD DUP1 SWAP2 SUB SWAP1 REVERT JUMPDEST PUSH1 0x0 PUSH1 0x1 PUSH1 0x0 DUP4 PUSH20 0xFFFFFFFFFFFFFFFFFFFFFFFFFFFFFFFFFFFFFFFF AND PUSH20 0xFFFFFFFFFFFFFFFFFFFFFFFFFFFFFFFFFFFFFFFF AND DUP2 MSTORE PUSH1 0x20 ADD SWAP1 DUP2 MSTORE PUSH1 0x20 ADD PUSH1 0x0 KECCAK256 PUSH1 0x2 ADD PUSH1 0x1 PUSH2 0x100 EXP DUP2 SLOAD DUP2 PUSH1 0xFF MUL NOT AND SWAP1 DUP4 ISZERO ISZERO MUL OR SWAP1 SSTORE POP POP JUMP JUMPDEST PUSH1 0x0 DUP1 SLOAD SWAP1 PUSH2 0x100 EXP SWAP1 DIV PUSH20 0xFFFFFFFFFFFFFFFFFFFFFFFFFFFFFFFFFFFFFFFF AND PUSH20 0xFFFFFFFFFFFFFFFFFFFFFFFFFFFFFFFFFFFFFFFF AND CALLER PUSH20 0xFFFFFFFFFFFFFFFFFFFFFFFFFFFFFFFFFFFFFFFF AND EQ PUSH2 0x377 JUMPI PUSH1 0x40 MLOAD PUSH32 0x8C379A000000000000000000000000000000000000000000000000000000000 DUP2 MSTORE PUSH1 0x4 ADD PUSH2 0x36E SWAP1 PUSH2 0x16CE JUMP JUMPDEST PUSH1 0x40 MLOAD DUP1 SWAP2 SUB SWAP1 REVERT JUMPDEST PUSH1 0x0 PUSH1 0x1 PUSH1 0x0 DUP4 PUSH20 0xFFFFFFFFFFFFFFFFFFFFFFFFFFFFFFFFFFFFFFFF AND PUSH20 0xFFFFFFFFFFFFFFFFFFFFFFFFFFFFFFFFFFFFFFFF AND DUP2 MSTORE PUSH1 0x20 ADD SWAP1 DUP2 MSTORE PUSH1 0x20 ADD PUSH1 0x0 KECCAK256 PUSH1 0x2 ADD PUSH1 0x2 PUSH2 0x100 EXP DUP2 SLOAD DUP2 PUSH1 0xFF MUL NOT AND SWAP1 DUP4 ISZERO ISZERO MUL OR SWAP1 SSTORE POP POP JUMP JUMPDEST PUSH1 0x0 DUP1 SLOAD SWAP1 PUSH2 0x100 EXP SWAP1 DIV PUSH20 0xFFFFFFFFFFFFFFFFFFFFFFFFFFFFFFFFFFFFFFFF AND PUSH20 0xFFFFFFFFFFFFFFFFFFFFFFFFFFFFFFFFFFFFFFFF AND CALLER PUSH20 0xFFFFFFFFFFFFFFFFFFFFFFFFFFFFFFFFFFFFFFFF AND SUB PUSH2 0x463 JUMPI PUSH1 0x40 MLOAD PUSH32 0x8C379A000000000000000000000000000000000000000000000000000000000 DUP2 MSTORE PUSH1 0x4 ADD PUSH2 0x45A SWAP1 PUSH2 0x1760 JUMP JUMPDEST PUSH1 0x40 MLOAD DUP1 SWAP2 SUB SWAP1 REVERT JUMPDEST DUP1 PUSH1 0x2 DUP2 PUSH1 0x40 MLOAD PUSH2 0x474 SWAP2 SWAP1 PUSH2 0x17BC JUMP JUMPDEST SWAP1 DUP2 MSTORE PUSH1 0x20 ADD PUSH1 0x40 MLOAD DUP1 SWAP2 SUB SWAP1 KECCAK256 PUSH1 0x2 ADD PUSH1 0x0 SWAP1 SLOAD SWAP1 PUSH2 0x100 EXP SWAP1 DIV PUSH20 0xFFFFFFFFFFFFFFFFFFFFFFFFFFFFFFFFFFFFFFFF AND PUSH20 0xFFFFFFFFFFFFFFFFFFFFFFFFFFFFFFFFFFFFFFFF AND CALLER PUSH20 0xFFFFFFFFFFFFFFFFFFFFFFFFFFFFFFFFFFFFFFFF AND EQ PUSH2 0x513 JUMPI PUSH1 0x40 MLOAD PUSH32 0x8C379A000000000000000000000000000000000000000000000000000000000 DUP2 MSTORE PUSH1 0x4 ADD PUSH2 0x50A SWAP1 PUSH2 0x1845 JUMP JUMPDEST PUSH1 0x40 MLOAD DUP1 SWAP2 SUB SWAP1 REVERT JUMPDEST PUSH1 0x1 PUSH1 0x0 CALLER PUSH20 0xFFFFFFFFFFFFFFFFFFFFFFFFFFFFFFFFFFFFFFFF AND PUSH20 0xFFFFFFFFFFFFFFFFFFFFFFFFFFFFFFFFFFFFFFFF AND DUP2 MSTORE PUSH1 0x20 ADD SWAP1 DUP2 MSTORE PUSH1 0x20 ADD PUSH1 0x0 KECCAK256 PUSH1 0x2 ADD PUSH1 0x2 SWAP1 SLOAD SWAP1 PUSH2 0x100 EXP SWAP1 DIV PUSH1 0xFF AND PUSH2 0x5A2 JUMPI PUSH1 0x40 MLOAD PUSH32 0x8C379A000000000000000000000000000000000000000000000000000000000 DUP2 MSTORE PUSH1 0x4 ADD PUSH2 0x599 SWAP1 PUSH2 0x18FD JUMP JUMPDEST PUSH1 0x40 MLOAD DUP1 SWAP2 SUB SWAP1 REVERT JUMPDEST PUSH1 0x1 PUSH1 0x2 DUP4 PUSH1 0x40 MLOAD PUSH2 0x5B4 SWAP2 SWAP1 PUSH2 0x17BC JUMP JUMPDEST SWAP1 DUP2 MSTORE PUSH1 0x20 ADD PUSH1 0x40 MLOAD DUP1 SWAP2 SUB SWAP1 KECCAK256 PUSH1 0x4 ADD PUSH1 0x0 PUSH2 0x100 EXP DUP2 SLOAD DUP2 PUSH1 0xFF MUL NOT AND SWAP1 DUP4 ISZERO ISZERO MUL OR SWAP1 SSTORE POP PUSH1 0x1 DUP1 PUSH1 0x0 CALLER PUSH20 0xFFFFFFFFFFFFFFFFFFFFFFFFFFFFFFFFFFFFFFFF AND PUSH20 0xFFFFFFFFFFFFFFFFFFFFFFFFFFFFFFFFFFFFFFFF AND DUP2 MSTORE PUSH1 0x20 ADD SWAP1 DUP2 MSTORE PUSH1 0x20 ADD PUSH1 0x0 KECCAK256 PUSH1 0x2 ADD PUSH1 0x0 DUP3 DUP3 DUP3 SWAP1 SLOAD SWAP1 PUSH2 0x100 EXP SWAP1 DIV PUSH1 0xFF AND PUSH2 0x63A SWAP2 SWAP1 PUSH2 0x194C JUMP JUMPDEST SWAP3 POP PUSH2 0x100 EXP DUP2 SLOAD DUP2 PUSH1 0xFF MUL NOT AND SWAP1 DUP4 PUSH1 0xFF AND MUL OR SWAP1 SSTORE POP POP POP JUMP JUMPDEST PUSH1 0x60 PUSH1 0x0 DUP1 PUSH1 0x0 DUP1 PUSH1 0x0 SWAP1 SLOAD SWAP1 PUSH2 0x100 EXP SWAP1 DIV PUSH20 0xFFFFFFFFFFFFFFFFFFFFFFFFFFFFFFFFFFFFFFFF AND PUSH20 0xFFFFFFFFFFFFFFFFFFFFFFFFFFFFFFFFFFFFFFFF AND CALLER PUSH20 0xFFFFFFFFFFFFFFFFFFFFFFFFFFFFFFFFFFFFFFFF AND EQ PUSH2 0x6EC JUMPI PUSH1 0x40 MLOAD PUSH32 0x8C379A000000000000000000000000000000000000000000000000000000000 DUP2 MSTORE PUSH1 0x4 ADD PUSH2 0x6E3 SWAP1 PUSH2 0x16CE JUMP JUMPDEST PUSH1 0x40 MLOAD DUP1 SWAP2 SUB SWAP1 REVERT JUMPDEST PUSH1 0x1 PUSH1 0x0 DUP7 PUSH20 0xFFFFFFFFFFFFFFFFFFFFFFFFFFFFFFFFFFFFFFFF AND PUSH20 0xFFFFFFFFFFFFFFFFFFFFFFFFFFFFFFFFFFFFFFFF AND DUP2 MSTORE PUSH1 0x20 ADD SWAP1 DUP2 MSTORE PUSH1 0x20 ADD PUSH1 0x0 KECCAK256 PUSH1 0x1 ADD PUSH1 0x1 PUSH1 0x0 DUP8 PUSH20 0xFFFFFFFFFFFFFFFFFFFFFFFFFFFFFFFFFFFFFFFF AND PUSH20 0xFFFFFFFFFFFFFFFFFFFFFFFFFFFFFFFFFFFFFFFF AND DUP2 MSTORE PUSH1 0x20 ADD SWAP1 DUP2 MSTORE PUSH1 0x20 ADD PUSH1 0x0 KECCAK256 PUSH1 0x2 ADD PUSH1 0x0 SWAP1 SLOAD SWAP1 PUSH2 0x100 EXP SWAP1 DIV PUSH1 0xFF AND PUSH1 0x1 PUSH1 0x0 DUP9 PUSH20 0xFFFFFFFFFFFFFFFFFFFFFFFFFFFFFFFFFFFFFFFF AND PUSH20 0xFFFFFFFFFFFFFFFFFFFFFFFFFFFFFFFFFFFFFFFF AND DUP2 MSTORE PUSH1 0x20 ADD SWAP1 DUP2 MSTORE PUSH1 0x20 ADD PUSH1 0x0 KECCAK256 PUSH1 0x2 ADD PUSH1 0x1 SWAP1 SLOAD SWAP1 PUSH2 0x100 EXP SWAP1 DIV PUSH1 0xFF AND PUSH1 0x1 PUSH1 0x0 DUP10 PUSH20 0xFFFFFFFFFFFFFFFFFFFFFFFFFFFFFFFFFFFFFFFF AND PUSH20 0xFFFFFFFFFFFFFFFFFFFFFFFFFFFFFFFFFFFFFFFF AND DUP2 MSTORE PUSH1 0x20 ADD SWAP1 DUP2 MSTORE PUSH1 0x20 ADD PUSH1 0x0 KECCAK256 PUSH1 0x2 ADD PUSH1 0x2 SWAP1 SLOAD SWAP1 PUSH2 0x100 EXP SWAP1 DIV PUSH1 0xFF AND DUP4 DUP1 SLOAD PUSH2 0x82A SWAP1 PUSH2 0x19B0 JUMP JUMPDEST DUP1 PUSH1 0x1F ADD PUSH1 0x20 DUP1 SWAP2 DIV MUL PUSH1 0x20 ADD PUSH1 0x40 MLOAD SWAP1 DUP2 ADD PUSH1 0x40 MSTORE DUP1 SWAP3 SWAP2 SWAP1 DUP2 DUP2 MSTORE PUSH1 0x20 ADD DUP3 DUP1 SLOAD PUSH2 0x856 SWAP1 PUSH2 0x19B0 JUMP JUMPDEST DUP1 ISZERO PUSH2 0x8A3 JUMPI DUP1 PUSH1 0x1F LT PUSH2 0x878 JUMPI PUSH2 0x100 DUP1 DUP4 SLOAD DIV MUL DUP4 MSTORE SWAP2 PUSH1 0x20 ADD SWAP2 PUSH2 0x8A3 JUMP JUMPDEST DUP3 ADD SWAP2 SWAP1 PUSH1 0x0 MSTORE PUSH1 0x20 PUSH1 0x0 KECCAK256 SWAP1 JUMPDEST DUP2 SLOAD DUP2 MSTORE SWAP1 PUSH1 0x1 ADD SWAP1 PUSH1 0x20 ADD DUP1 DUP4 GT PUSH2 0x886 JUMPI DUP3 SWAP1 SUB PUSH1 0x1F AND DUP3 ADD SWAP2 JUMPDEST POP POP POP POP POP SWAP4 POP SWAP4 POP SWAP4 POP SWAP4 POP SWAP4 POP SWAP2 SWAP4 POP SWAP2 SWAP4 JUMP JUMPDEST PUSH1 0x0 DUP1 SLOAD SWAP1 PUSH2 0x100 EXP SWAP1 DIV PUSH20 0xFFFFFFFFFFFFFFFFFFFFFFFFFFFFFFFFFFFFFFFF AND PUSH20 0xFFFFFFFFFFFFFFFFFFFFFFFFFFFFFFFFFFFFFFFF AND CALLER PUSH20 0xFFFFFFFFFFFFFFFFFFFFFFFFFFFFFFFFFFFFFFFF AND EQ PUSH2 0x947 JUMPI PUSH1 0x40 MLOAD PUSH32 0x8C379A000000000000000000000000000000000000000000000000000000000 DUP2 MSTORE PUSH1 0x4 ADD PUSH2 0x93E SWAP1 PUSH2 0x16CE JUMP JUMPDEST PUSH1 0x40 MLOAD DUP1 SWAP2 SUB SWAP1 REVERT JUMPDEST PUSH1 0x1 DUP1 PUSH1 0x0 DUP4 PUSH20 0xFFFFFFFFFFFFFFFFFFFFFFFFFFFFFFFFFFFFFFFF AND PUSH20 0xFFFFFFFFFFFFFFFFFFFFFFFFFFFFFFFFFFFFFFFF AND DUP2 MSTORE PUSH1 0x20 ADD SWAP1 DUP2 MSTORE PUSH1 0x20 ADD PUSH1 0x0 KECCAK256 PUSH1 0x2 ADD PUSH1 0x1 PUSH2 0x100 EXP DUP2 SLOAD DUP2 PUSH1 0xFF MUL NOT AND SWAP1 DUP4 ISZERO ISZERO MUL OR SWAP1 SSTORE POP POP JUMP JUMPDEST PUSH1 0x0 DUP1 SLOAD SWAP1 PUSH2 0x100 EXP SWAP1 DIV PUSH20 0xFFFFFFFFFFFFFFFFFFFFFFFFFFFFFFFFFFFFFFFF AND PUSH20 0xFFFFFFFFFFFFFFFFFFFFFFFFFFFFFFFFFFFFFFFF AND CALLER PUSH20 0xFFFFFFFFFFFFFFFFFFFFFFFFFFFFFFFFFFFFFFFF AND EQ PUSH2 0xA32 JUMPI PUSH1 0x40 MLOAD PUSH32 0x8C379A000000000000000000000000000000000000000000000000000000000 DUP2 MSTORE PUSH1 0x4 ADD PUSH2 0xA29 SWAP1 PUSH2 0x16CE JUMP JUMPDEST PUSH1 0x40 MLOAD DUP1 SWAP2 SUB SWAP1 REVERT JUMPDEST DUP1 PUSH1 0x1 PUSH1 0x0 DUP4 PUSH20 0xFFFFFFFFFFFFFFFFFFFFFFFFFFFFFFFFFFFFFFFF AND PUSH20 0xFFFFFFFFFFFFFFFFFFFFFFFFFFFFFFFFFFFFFFFF AND DUP2 MSTORE PUSH1 0x20 ADD SWAP1 DUP2 MSTORE PUSH1 0x20 ADD PUSH1 0x0 KECCAK256 PUSH1 0x0 ADD PUSH1 0x0 PUSH2 0x100 EXP DUP2 SLOAD DUP2 PUSH20 0xFFFFFFFFFFFFFFFFFFFFFFFFFFFFFFFFFFFFFFFF MUL NOT AND SWAP1 DUP4 PUSH20 0xFFFFFFFFFFFFFFFFFFFFFFFFFFFFFFFFFFFFFFFF AND MUL OR SWAP1 SSTORE POP DUP2 PUSH1 0x1 PUSH1 0x0 DUP4 PUSH20 0xFFFFFFFFFFFFFFFFFFFFFFFFFFFFFFFFFFFFFFFF AND PUSH20 0xFFFFFFFFFFFFFFFFFFFFFFFFFFFFFFFFFFFFFFFF AND DUP2 MSTORE PUSH1 0x20 ADD SWAP1 DUP2 MSTORE PUSH1 0x20 ADD PUSH1 0x0 KECCAK256 PUSH1 0x1 ADD SWAP1 DUP2 PUSH2 0xB02 SWAP2 SWAP1 PUSH2 0x1B97 JUMP JUMPDEST POP POP POP JUMP JUMPDEST PUSH1 0x0 DUP1 PUSH1 0x0 SWAP1 SLOAD SWAP1 PUSH2 0x100 EXP SWAP1 DIV PUSH20 0xFFFFFFFFFFFFFFFFFFFFFFFFFFFFFFFFFFFFFFFF AND PUSH20 0xFFFFFFFFFFFFFFFFFFFFFFFFFFFFFFFFFFFFFFFF AND CALLER PUSH20 0xFFFFFFFFFFFFFFFFFFFFFFFFFFFFFFFFFFFFFFFF AND SUB PUSH2 0xB98 JUMPI PUSH1 0x40 MLOAD PUSH32 0x8C379A000000000000000000000000000000000000000000000000000000000 DUP2 MSTORE PUSH1 0x4 ADD PUSH2 0xB8F SWAP1 PUSH2 0x1760 JUMP JUMPDEST PUSH1 0x40 MLOAD DUP1 SWAP2 SUB SWAP1 REVERT JUMPDEST PUSH1 0x2 DUP3 PUSH1 0x40 MLOAD PUSH2 0xBA8 SWAP2 SWAP1 PUSH2 0x17BC JUMP JUMPDEST SWAP1 DUP2 MSTORE PUSH1 0x20 ADD PUSH1 0x40 MLOAD DUP1 SWAP2 SUB SWAP1 KECCAK256 PUSH1 0x4 ADD PUSH1 0x0 SWAP1 SLOAD SWAP1 PUSH2 0x100 EXP SWAP1 DIV PUSH1 0xFF AND SWAP1 POP SWAP2 SWAP1 POP JUMP JUMPDEST PUSH1 0x0 DUP1 SLOAD SWAP1 PUSH2 0x100 EXP SWAP1 DIV PUSH20 0xFFFFFFFFFFFFFFFFFFFFFFFFFFFFFFFFFFFFFFFF AND PUSH20 0xFFFFFFFFFFFFFFFFFFFFFFFFFFFFFFFFFFFFFFFF AND CALLER PUSH20 0xFFFFFFFFFFFFFFFFFFFFFFFFFFFFFFFFFFFFFFFF AND SUB PUSH2 0xC5C JUMPI PUSH1 0x40 MLOAD PUSH32 0x8C379A000000000000000000000000000000000000000000000000000000000 DUP2 MSTORE PUSH1 0x4 ADD PUSH2 0xC53 SWAP1 PUSH2 0x1760 JUMP JUMPDEST PUSH1 0x40 MLOAD DUP1 SWAP2 SUB SWAP1 REVERT JUMPDEST PUSH1 0x1 PUSH1 0x0 CALLER PUSH20 0xFFFFFFFFFFFFFFFFFFFFFFFFFFFFFFFFFFFFFFFF AND PUSH20 0xFFFFFFFFFFFFFFFFFFFFFFFFFFFFFFFFFFFFFFFF AND DUP2 MSTORE PUSH1 0x20 ADD SWAP1 DUP2 MSTORE PUSH1 0x20 ADD PUSH1 0x0 KECCAK256 PUSH1 0x2 ADD PUSH1 0x1 SWAP1 SLOAD SWAP1 PUSH2 0x100 EXP SWAP1 DIV PUSH1 0xFF AND PUSH2 0xCEB JUMPI PUSH1 0x40 MLOAD PUSH32 0x8C379A000000000000000000000000000000000000000000000000000000000 DUP2 MSTORE PUSH1 0x4 ADD PUSH2 0xCE2 SWAP1 PUSH2 0x1D01 JUMP JUMPDEST PUSH1 0x40 MLOAD DUP1 SWAP2 SUB SWAP1 REVERT JUMPDEST DUP2 PUSH1 0x2 DUP4 PUSH1 0x40 MLOAD PUSH2 0xCFC SWAP2 SWAP1 PUSH2 0x17BC JUMP JUMPDEST SWAP1 DUP2 MSTORE PUSH1 0x20 ADD PUSH1 0x40 MLOAD DUP1 SWAP2 SUB SWAP1 KECCAK256 PUSH1 0x0 ADD SWAP1 DUP2 PUSH2 0xD19 SWAP2 SWAP1 PUSH2 0x1B97 JUMP JUMPDEST POP DUP1 PUSH1 0x2 DUP4 PUSH1 0x40 MLOAD PUSH2 0xD2B SWAP2 SWAP1 PUSH2 0x17BC JUMP JUMPDEST SWAP1 DUP2 MSTORE PUSH1 0x20 ADD PUSH1 0x40 MLOAD DUP1 SWAP2 SUB SWAP1 KECCAK256 PUSH1 0x1 ADD SWAP1 DUP2 PUSH2 0xD48 SWAP2 SWAP1 PUSH2 0x1B97 JUMP JUMPDEST POP CALLER PUSH1 0x2 DUP4 PUSH1 0x40 MLOAD PUSH2 0xD5A SWAP2 SWAP1 PUSH2 0x17BC JUMP JUMPDEST SWAP1 DUP2 MSTORE PUSH1 0x20 ADD PUSH1 0x40 MLOAD DUP1 SWAP2 SUB SWAP1 KECCAK256 PUSH1 0x2 ADD PUSH1 0x0 PUSH2 0x100 EXP DUP2 SLOAD DUP2 PUSH20 0xFFFFFFFFFFFFFFFFFFFFFFFFFFFFFFFFFFFFFFFF MUL NOT AND SWAP1 DUP4 PUSH20 0xFFFFFFFFFFFFFFFFFFFFFFFFFFFFFFFFFFFFFFFF AND MUL OR SWAP1 SSTORE POP PUSH1 0x1 PUSH1 0x0 CALLER PUSH20 0xFFFFFFFFFFFFFFFFFFFFFFFFFFFFFFFFFFFFFFFF AND PUSH20 0xFFFFFFFFFFFFFFFFFFFFFFFFFFFFFFFFFFFFFFFF AND DUP2 MSTORE PUSH1 0x20 ADD SWAP1 DUP2 MSTORE PUSH1 0x20 ADD PUSH1 0x0 KECCAK256 PUSH1 0x1 ADD PUSH1 0x2 DUP4 PUSH1 0x40 MLOAD PUSH2 0xDFB SWAP2 SWAP1 PUSH2 0x17BC JUMP JUMPDEST SWAP1 DUP2 MSTORE PUSH1 0x20 ADD PUSH1 0x40 MLOAD DUP1 SWAP2 SUB SWAP1 KECCAK256 PUSH1 0x3 ADD SWAP1 DUP2 PUSH2 0xE18 SWAP2 SWAP1 PUSH2 0x1D4C JUMP JUMPDEST POP POP POP JUMP JUMPDEST PUSH1 0x60 DUP1 PUSH1 0x60 PUSH1 0x0 DUP1 PUSH1 0x0 SWAP1 SLOAD SWAP1 PUSH2 0x100 EXP SWAP1 DIV PUSH20 0xFFFFFFFFFFFFFFFFFFFFFFFFFFFFFFFFFFFFFFFF AND PUSH20 0xFFFFFFFFFFFFFFFFFFFFFFFFFFFFFFFFFFFFFFFF AND CALLER PUSH20 0xFFFFFFFFFFFFFFFFFFFFFFFFFFFFFFFFFFFFFFFF AND SUB PUSH2 0xEB3 JUMPI PUSH1 0x40 MLOAD PUSH32 0x8C379A000000000000000000000000000000000000000000000000000000000 DUP2 MSTORE PUSH1 0x4 ADD PUSH2 0xEAA SWAP1 PUSH2 0x1760 JUMP JUMPDEST PUSH1 0x40 MLOAD DUP1 SWAP2 SUB SWAP1 REVERT JUMPDEST PUSH1 0x2 DUP6 PUSH1 0x40 MLOAD PUSH2 0xEC3 SWAP2 SWAP1 PUSH2 0x17BC JUMP JUMPDEST SWAP1 DUP2 MSTORE PUSH1 0x20 ADD PUSH1 0x40 MLOAD DUP1 SWAP2 SUB SWAP1 KECCAK256 PUSH1 0x0 ADD PUSH1 0x2 DUP7 PUSH1 0x40 MLOAD PUSH2 0xEE4 SWAP2 SWAP1 PUSH2 0x17BC JUMP JUMPDEST SWAP1 DUP2 MSTORE PUSH1 0x20 ADD PUSH1 0x40 MLOAD DUP1 SWAP2 SUB SWAP1 KECCAK256 PUSH1 0x1 ADD PUSH1 0x2 DUP8 PUSH1 0x40 MLOAD PUSH2 0xF05 SWAP2 SWAP1 PUSH2 0x17BC JUMP JUMPDEST SWAP1 DUP2 MSTORE PUSH1 0x20 ADD PUSH1 0x40 MLOAD DUP1 SWAP2 SUB SWAP1 KECCAK256 PUSH1 0x3 ADD PUSH1 0x2 DUP9 PUSH1 0x40 MLOAD PUSH2 0xF26 SWAP2 SWAP1 PUSH2 0x17BC JUMP JUMPDEST SWAP1 DUP2 MSTORE PUSH1 0x20 ADD PUSH1 0x40 MLOAD DUP1 SWAP2 SUB SWAP1 KECCAK256 PUSH1 0x4 ADD PUSH1 0x0 SWAP1 SLOAD SWAP1 PUSH2 0x100 EXP SWAP1 DIV PUSH1 0xFF AND DUP4 DUP1 SLOAD PUSH2 0xF51 SWAP1 PUSH2 0x19B0 JUMP JUMPDEST DUP1 PUSH1 0x1F ADD PUSH1 0x20 DUP1 SWAP2 DIV MUL PUSH1 0x20 ADD PUSH1 0x40 MLOAD SWAP1 DUP2 ADD PUSH1 0x40 MSTORE DUP1 SWAP3 SWAP2 SWAP1 DUP2 DUP2 MSTORE PUSH1 0x20 ADD DUP3 DUP1 SLOAD PUSH2 0xF7D SWAP1 PUSH2 0x19B0 JUMP JUMPDEST DUP1 ISZERO PUSH2 0xFCA JUMPI DUP1 PUSH1 0x1F LT PUSH2 0xF9F JUMPI PUSH2 0x100 DUP1 DUP4 SLOAD DIV MUL DUP4 MSTORE SWAP2 PUSH1 0x20 ADD SWAP2 PUSH2 0xFCA JUMP JUMPDEST DUP3 ADD SWAP2 SWAP1 PUSH1 0x0 MSTORE PUSH1 0x20 PUSH1 0x0 KECCAK256 SWAP1 JUMPDEST DUP2 SLOAD DUP2 MSTORE SWAP1 PUSH1 0x1 ADD SWAP1 PUSH1 0x20 ADD DUP1 DUP4 GT PUSH2 0xFAD JUMPI DUP3 SWAP1 SUB PUSH1 0x1F AND DUP3 ADD SWAP2 JUMPDEST POP POP POP POP POP SWAP4 POP DUP3 DUP1 SLOAD PUSH2 0xFDD SWAP1 PUSH2 0x19B0 JUMP JUMPDEST DUP1 PUSH1 0x1F ADD PUSH1 0x20 DUP1 SWAP2 DIV MUL PUSH1 0x20 ADD PUSH1 0x40 MLOAD SWAP1 DUP2 ADD PUSH1 0x40 MSTORE DUP1 SWAP3 SWAP2 SWAP1 DUP2 DUP2 MSTORE PUSH1 0x20 ADD DUP3 DUP1 SLOAD PUSH2 0x1009 SWAP1 PUSH2 0x19B0 JUMP JUMPDEST DUP1 ISZERO PUSH2 0x1056 JUMPI DUP1 PUSH1 0x1F LT PUSH2 0x102B JUMPI PUSH2 0x100 DUP1 DUP4 SLOAD DIV MUL DUP4 MSTORE SWAP2 PUSH1 0x20 ADD SWAP2 PUSH2 0x1056 JUMP JUMPDEST DUP3 ADD SWAP2 SWAP1 PUSH1 0x0 MSTORE PUSH1 0x20 PUSH1 0x0 KECCAK256 SWAP1 JUMPDEST DUP2 SLOAD DUP2 MSTORE SWAP1 PUSH1 0x1 ADD SWAP1 PUSH1 0x20 ADD DUP1 DUP4 GT PUSH2 0x1039 JUMPI DUP3 SWAP1 SUB PUSH1 0x1F AND DUP3 ADD SWAP2 JUMPDEST POP POP POP POP POP SWAP3 POP DUP2 DUP1 SLOAD PUSH2 0x1069 SWAP1 PUSH2 0x19B0 JUMP JUMPDEST DUP1 PUSH1 0x1F ADD PUSH1 0x20 DUP1 SWAP2 DIV MUL PUSH1 0x20 ADD PUSH1 0x40 MLOAD SWAP1 DUP2 ADD PUSH1 0x40 MSTORE DUP1 SWAP3 SWAP2 SWAP1 DUP2 DUP2 MSTORE PUSH1 0x20 ADD DUP3 DUP1 SLOAD PUSH2 0x1095 SWAP1 PUSH2 0x19B0 JUMP JUMPDEST DUP1 ISZERO PUSH2 0x10E2 JUMPI DUP1 PUSH1 0x1F LT PUSH2 0x10B7 JUMPI PUSH2 0x100 DUP1 DUP4 SLOAD DIV MUL DUP4 MSTORE SWAP2 PUSH1 0x20 ADD SWAP2 PUSH2 0x10E2 JUMP JUMPDEST DUP3 ADD SWAP2 SWAP1 PUSH1 0x0 MSTORE PUSH1 0x20 PUSH1 0x0 KECCAK256 SWAP1 JUMPDEST DUP2 SLOAD DUP2 MSTORE SWAP1 PUSH1 0x1 ADD SWAP1 PUSH1 0x20 ADD DUP1 DUP4 GT PUSH2 0x10C5 JUMPI DUP3 SWAP1 SUB PUSH1 0x1F AND DUP3 ADD SWAP2 JUMPDEST POP POP POP POP POP SWAP2 POP SWAP4 POP SWAP4 POP SWAP4 POP SWAP4 POP SWAP2 SWAP4 POP SWAP2 SWAP4 JUMP JUMPDEST PUSH1 0x0 DUP1 SLOAD SWAP1 PUSH2 0x100 EXP SWAP1 DIV PUSH20 0xFFFFFFFFFFFFFFFFFFFFFFFFFFFFFFFFFFFFFFFF AND PUSH20 0xFFFFFFFFFFFFFFFFFFFFFFFFFFFFFFFFFFFFFFFF AND CALLER PUSH20 0xFFFFFFFFFFFFFFFFFFFFFFFFFFFFFFFFFFFFFFFF AND EQ PUSH2 0x1186 JUMPI PUSH1 0x40 MLOAD PUSH32 0x8C379A000000000000000000000000000000000000000000000000000000000 DUP2 MSTORE PUSH1 0x4 ADD PUSH2 0x117D SWAP1 PUSH2 0x16CE JUMP JUMPDEST PUSH1 0x40 MLOAD DUP1 SWAP2 SUB SWAP1 REVERT JUMPDEST PUSH1 0x1 DUP1 PUSH1 0x0 DUP4 PUSH20 0xFFFFFFFFFFFFFFFFFFFFFFFFFFFFFFFFFFFFFFFF AND PUSH20 0xFFFFFFFFFFFFFFFFFFFFFFFFFFFFFFFFFFFFFFFF AND DUP2 MSTORE PUSH1 0x20 ADD SWAP1 DUP2 MSTORE PUSH1 0x20 ADD PUSH1 0x0 KECCAK256 PUSH1 0x2 ADD PUSH1 0x2 PUSH2 0x100 EXP DUP2 SLOAD DUP2 PUSH1 0xFF MUL NOT AND SWAP1 DUP4 ISZERO ISZERO MUL OR SWAP1 SSTORE POP POP JUMP JUMPDEST PUSH1 0x0 PUSH1 0x40 MLOAD SWAP1 POP SWAP1 JUMP JUMPDEST PUSH1 0x0 DUP1 REVERT JUMPDEST PUSH1 0x0 DUP1 REVERT JUMPDEST PUSH1 0x0 PUSH20 0xFFFFFFFFFFFFFFFFFFFFFFFFFFFFFFFFFFFFFFFF DUP3 AND SWAP1 POP SWAP2 SWAP1 POP JUMP JUMPDEST PUSH1 0x0 PUSH2 0x1222 DUP3 PUSH2 0x11F7 JUMP JUMPDEST SWAP1 POP SWAP2 SWAP1 POP JUMP JUMPDEST PUSH2 0x1232 DUP2 PUSH2 0x1217 JUMP JUMPDEST DUP2 EQ PUSH2 0x123D JUMPI PUSH1 0x0 DUP1 REVERT JUMPDEST POP JUMP JUMPDEST PUSH1 0x0 DUP2 CALLDATALOAD SWAP1 POP PUSH2 0x124F DUP2 PUSH2 0x1229 JUMP JUMPDEST SWAP3 SWAP2 POP POP JUMP JUMPDEST PUSH1 0x0 PUSH1 0x20 DUP3 DUP5 SUB SLT ISZERO PUSH2 0x126B JUMPI PUSH2 0x126A PUSH2 0x11ED JUMP JUMPDEST JUMPDEST PUSH1 0x0 PUSH2 0x1279 DUP5 DUP3 DUP6 ADD PUSH2 0x1240 JUMP JUMPDEST SWAP2 POP POP SWAP3 SWAP2 POP POP JUMP JUMPDEST PUSH1 0x0 DUP1 REVERT JUMPDEST PUSH1 0x0 DUP1 REVERT JUMPDEST PUSH1 0x0 PUSH1 0x1F NOT PUSH1 0x1F DUP4 ADD AND SWAP1 POP SWAP2 SWAP1 POP JUMP JUMPDEST PUSH32 0x4E487B7100000000000000000000000000000000000000000000000000000000 PUSH1 0x0 MSTORE PUSH1 0x41 PUSH1 0x4 MSTORE PUSH1 0x24 PUSH1 0x0 REVERT JUMPDEST PUSH2 0x12D5 DUP3 PUSH2 0x128C JUMP JUMPDEST DUP2 ADD DUP2 DUP2 LT PUSH8 0xFFFFFFFFFFFFFFFF DUP3 GT OR ISZERO PUSH2 0x12F4 JUMPI PUSH2 0x12F3 PUSH2 0x129D JUMP JUMPDEST JUMPDEST DUP1 PUSH1 0x40 MSTORE POP POP POP JUMP JUMPDEST PUSH1 0x0 PUSH2 0x1307 PUSH2 0x11E3 JUMP JUMPDEST SWAP1 POP PUSH2 0x1313 DUP3 DUP3 PUSH2 0x12CC JUMP JUMPDEST SWAP2 SWAP1 POP JUMP JUMPDEST PUSH1 0x0 PUSH8 0xFFFFFFFFFFFFFFFF DUP3 GT ISZERO PUSH2 0x1333 JUMPI PUSH2 0x1332 PUSH2 0x129D JUMP JUMPDEST JUMPDEST PUSH2 0x133C DUP3 PUSH2 0x128C JUMP JUMPDEST SWAP1 POP PUSH1 0x20 DUP2 ADD SWAP1 POP SWAP2 SWAP1 POP JUMP JUMPDEST DUP3 DUP2 DUP4 CALLDATACOPY PUSH1 0x0 DUP4 DUP4 ADD MSTORE POP POP POP JUMP JUMPDEST PUSH1 0x0 PUSH2 0x136B PUSH2 0x1366 DUP5 PUSH2 0x1318 JUMP JUMPDEST PUSH2 0x12FD JUMP JUMPDEST SWAP1 POP DUP3 DUP2 MSTORE PUSH1 0x20 DUP2 ADD DUP5 DUP5 DUP5 ADD GT ISZERO PUSH2 0x1387 JUMPI PUSH2 0x1386 PUSH2 0x1287 JUMP JUMPDEST JUMPDEST PUSH2 0x1392 DUP5 DUP3 DUP6 PUSH2 0x1349 JUMP JUMPDEST POP SWAP4 SWAP3 POP POP POP JUMP JUMPDEST PUSH1 0x0 DUP3 PUSH1 0x1F DUP4 ADD SLT PUSH2 0x13AF JUMPI PUSH2 0x13AE PUSH2 0x1282 JUMP JUMPDEST JUMPDEST DUP2 CALLDATALOAD PUSH2 0x13BF DUP5 DUP3 PUSH1 0x20 DUP7 ADD PUSH2 0x1358 JUMP JUMPDEST SWAP2 POP POP SWAP3 SWAP2 POP POP JUMP JUMPDEST PUSH1 0x0 PUSH1 0x20 DUP3 DUP5 SUB SLT ISZERO PUSH2 0x13DE JUMPI PUSH2 0x13DD PUSH2 0x11ED JUMP JUMPDEST JUMPDEST PUSH1 0x0 DUP3 ADD CALLDATALOAD PUSH8 0xFFFFFFFFFFFFFFFF DUP2 GT ISZERO PUSH2 0x13FC JUMPI PUSH2 0x13FB PUSH2 0x11F2 JUMP JUMPDEST JUMPDEST PUSH2 0x1408 DUP5 DUP3 DUP6 ADD PUSH2 0x139A JUMP JUMPDEST SWAP2 POP POP SWAP3 SWAP2 POP POP JUMP JUMPDEST PUSH1 0x0 DUP2 MLOAD SWAP1 POP SWAP2 SWAP1 POP JUMP JUMPDEST PUSH1 0x0 DUP3 DUP3 MSTORE PUSH1 0x20 DUP3 ADD SWAP1 POP SWAP3 SWAP2 POP POP JUMP JUMPDEST PUSH1 0x0 JUMPDEST DUP4 DUP2 LT ISZERO PUSH2 0x144B JUMPI DUP1 DUP3 ADD MLOAD DUP2 DUP5 ADD MSTORE PUSH1 0x20 DUP2 ADD SWAP1 POP PUSH2 0x1430 JUMP JUMPDEST PUSH1 0x0 DUP5 DUP5 ADD MSTORE POP POP POP POP JUMP JUMPDEST PUSH1 0x0 PUSH2 0x1462 DUP3 PUSH2 0x1411 JUMP JUMPDEST PUSH2 0x146C DUP2 DUP6 PUSH2 0x141C JUMP JUMPDEST SWAP4 POP PUSH2 0x147C DUP2 DUP6 PUSH1 0x20 DUP7 ADD PUSH2 0x142D JUMP JUMPDEST PUSH2 0x1485 DUP2 PUSH2 0x128C JUMP JUMPDEST DUP5 ADD SWAP2 POP POP SWAP3 SWAP2 POP POP JUMP JUMPDEST PUSH1 0x0 PUSH1 0xFF DUP3 AND SWAP1 POP SWAP2 SWAP1 POP JUMP JUMPDEST PUSH2 0x14A6 DUP2 PUSH2 0x1490 JUMP JUMPDEST DUP3 MSTORE POP POP JUMP JUMPDEST PUSH1 0x0 DUP2 ISZERO ISZERO SWAP1 POP SWAP2 SWAP1 POP JUMP JUMPDEST PUSH2 0x14C1 DUP2 PUSH2 0x14AC JUMP JUMPDEST DUP3 MSTORE POP POP JUMP JUMPDEST PUSH1 0x0 PUSH1 0x80 DUP3 ADD SWAP1 POP DUP2 DUP2 SUB PUSH1 0x0 DUP4 ADD MSTORE PUSH2 0x14E1 DUP2 DUP8 PUSH2 0x1457 JUMP JUMPDEST SWAP1 POP PUSH2 0x14F0 PUSH1 0x20 DUP4 ADD DUP7 PUSH2 0x149D JUMP JUMPDEST PUSH2 0x14FD PUSH1 0x40 DUP4 ADD DUP6 PUSH2 0x14B8 JUMP JUMPDEST PUSH2 0x150A PUSH1 0x60 DUP4 ADD DUP5 PUSH2 0x14B8 JUMP JUMPDEST SWAP6 SWAP5 POP POP POP POP POP JUMP JUMPDEST PUSH1 0x0 DUP1 PUSH1 0x40 DUP4 DUP6 SUB SLT ISZERO PUSH2 0x152A JUMPI PUSH2 0x1529 PUSH2 0x11ED JUMP JUMPDEST JUMPDEST PUSH1 0x0 DUP4 ADD CALLDATALOAD PUSH8 0xFFFFFFFFFFFFFFFF DUP2 GT ISZERO PUSH2 0x1548 JUMPI PUSH2 0x1547 PUSH2 0x11F2 JUMP JUMPDEST JUMPDEST PUSH2 0x1554 DUP6 DUP3 DUP7 ADD PUSH2 0x139A JUMP JUMPDEST SWAP3 POP POP PUSH1 0x20 PUSH2 0x1565 DUP6 DUP3 DUP7 ADD PUSH2 0x1240 JUMP JUMPDEST SWAP2 POP POP SWAP3 POP SWAP3 SWAP1 POP JUMP JUMPDEST PUSH1 0x0 PUSH1 0x20 DUP3 ADD SWAP1 POP PUSH2 0x1584 PUSH1 0x0 DUP4 ADD DUP5 PUSH2 0x14B8 JUMP JUMPDEST SWAP3 SWAP2 POP POP JUMP JUMPDEST PUSH1 0x0 DUP1 PUSH1 0x40 DUP4 DUP6 SUB SLT ISZERO PUSH2 0x15A1 JUMPI PUSH2 0x15A0 PUSH2 0x11ED JUMP JUMPDEST JUMPDEST PUSH1 0x0 DUP4 ADD CALLDATALOAD PUSH8 0xFFFFFFFFFFFFFFFF DUP2 GT ISZERO PUSH2 0x15BF JUMPI PUSH2 0x15BE PUSH2 0x11F2 JUMP JUMPDEST JUMPDEST PUSH2 0x15CB DUP6 DUP3 DUP7 ADD PUSH2 0x139A JUMP JUMPDEST SWAP3 POP POP PUSH1 0x20 DUP4 ADD CALLDATALOAD PUSH8 0xFFFFFFFFFFFFFFFF DUP2 GT ISZERO PUSH2 0x15EC JUMPI PUSH2 0x15EB PUSH2 0x11F2 JUMP JUMPDEST JUMPDEST PUSH2 0x15F8 DUP6 DUP3 DUP7 ADD PUSH2 0x139A JUMP JUMPDEST SWAP2 POP POP SWAP3 POP SWAP3 SWAP1 POP JUMP JUMPDEST PUSH1 0x0 PUSH1 0x80 DUP3 ADD SWAP1 POP DUP2 DUP2 SUB PUSH1 0x0 DUP4 ADD MSTORE PUSH2 0x161C DUP2 DUP8 PUSH2 0x1457 JUMP JUMPDEST SWAP1 POP DUP2 DUP2 SUB PUSH1 0x20 DUP4 ADD MSTORE PUSH2 0x1630 DUP2 DUP7 PUSH2 0x1457 JUMP JUMPDEST SWAP1 POP DUP2 DUP2 SUB PUSH1 0x40 DUP4 ADD MSTORE PUSH2 0x1644 DUP2 DUP6 PUSH2 0x1457 JUMP JUMPDEST SWAP1 POP PUSH2 0x1653 PUSH1 0x60 DUP4 ADD DUP5 PUSH2 0x14B8 JUMP JUMPDEST SWAP6 SWAP5 POP POP POP POP POP JUMP JUMPDEST PUSH32 0x4F6E6C792041444D494E2063616E20706572666F726D20746869732061637469 PUSH1 0x0 DUP3 ADD MSTORE PUSH32 0x6F6E210000000000000000000000000000000000000000000000000000000000 PUSH1 0x20 DUP3 ADD MSTORE POP JUMP JUMPDEST PUSH1 0x0 PUSH2 0x16B8 PUSH1 0x23 DUP4 PUSH2 0x141C JUMP JUMPDEST SWAP2 POP PUSH2 0x16C3 DUP3 PUSH2 0x165C JUMP JUMPDEST PUSH1 0x40 DUP3 ADD SWAP1 POP SWAP2 SWAP1 POP JUMP JUMPDEST PUSH1 0x0 PUSH1 0x20 DUP3 ADD SWAP1 POP DUP2 DUP2 SUB PUSH1 0x0 DUP4 ADD MSTORE PUSH2 0x16E7 DUP2 PUSH2 0x16AB JUMP JUMPDEST SWAP1 POP SWAP2 SWAP1 POP JUMP JUMPDEST PUSH32 0x4F6E6C792042616E6B2063616E20706572666F726D207468697320416374696F PUSH1 0x0 DUP3 ADD MSTORE PUSH32 0x6E21000000000000000000000000000000000000000000000000000000000000 PUSH1 0x20 DUP3 ADD MSTORE POP JUMP JUMPDEST PUSH1 0x0 PUSH2 0x174A PUSH1 0x22 DUP4 PUSH2 0x141C JUMP JUMPDEST SWAP2 POP PUSH2 0x1755 DUP3 PUSH2 0x16EE JUMP JUMPDEST PUSH1 0x40 DUP3 ADD SWAP1 POP SWAP2 SWAP1 POP JUMP JUMPDEST PUSH1 0x0 PUSH1 0x20 DUP3 ADD SWAP1 POP DUP2 DUP2 SUB PUSH1 0x0 DUP4 ADD MSTORE PUSH2 0x1779 DUP2 PUSH2 0x173D JUMP JUMPDEST SWAP1 POP SWAP2 SWAP1 POP JUMP JUMPDEST PUSH1 0x0 DUP2 SWAP1 POP SWAP3 SWAP2 POP POP JUMP JUMPDEST PUSH1 0x0 PUSH2 0x1796 DUP3 PUSH2 0x1411 JUMP JUMPDEST PUSH2 0x17A0 DUP2 DUP6 PUSH2 0x1780 JUMP JUMPDEST SWAP4 POP PUSH2 0x17B0 DUP2 DUP6 PUSH1 0x20 DUP7 ADD PUSH2 0x142D JUMP JUMPDEST DUP1 DUP5 ADD SWAP2 POP POP SWAP3 SWAP2 POP POP JUMP JUMPDEST PUSH1 0x0 PUSH2 0x17C8 DUP3 DUP5 PUSH2 0x178B JUMP JUMPDEST SWAP2 POP DUP2 SWAP1 POP SWAP3 SWAP2 POP POP JUMP JUMPDEST PUSH32 0x437573746F6D657220646F65736E277420657869737420696E20796F75722062 PUSH1 0x0 DUP3 ADD MSTORE PUSH32 0x616E6B2100000000000000000000000000000000000000000000000000000000 PUSH1 0x20 DUP3 ADD MSTORE POP JUMP JUMPDEST PUSH1 0x0 PUSH2 0x182F PUSH1 0x24 DUP4 PUSH2 0x141C JUMP JUMPDEST SWAP2 POP PUSH2 0x183A DUP3 PUSH2 0x17D3 JUMP JUMPDEST PUSH1 0x40 DUP3 ADD SWAP1 POP SWAP2 SWAP1 POP JUMP JUMPDEST PUSH1 0x0 PUSH1 0x20 DUP3 ADD SWAP1 POP DUP2 DUP2 SUB PUSH1 0x0 DUP4 ADD MSTORE PUSH2 0x185E DUP2 PUSH2 0x1822 JUMP JUMPDEST SWAP1 POP SWAP2 SWAP1 POP JUMP JUMPDEST PUSH32 0x596F7520646F6E27742068617665207065726D697373696F6E20746F20706572 PUSH1 0x0 DUP3 ADD MSTORE PUSH32 0x666F726D20637573746F6D6572204B59432C20506C6561736520636F6E746163 PUSH1 0x20 DUP3 ADD MSTORE PUSH32 0x7420746F205242492041444D494E210000000000000000000000000000000000 PUSH1 0x40 DUP3 ADD MSTORE POP JUMP JUMPDEST PUSH1 0x0 PUSH2 0x18E7 PUSH1 0x4F DUP4 PUSH2 0x141C JUMP JUMPDEST SWAP2 POP PUSH2 0x18F2 DUP3 PUSH2 0x1865 JUMP JUMPDEST PUSH1 0x60 DUP3 ADD SWAP1 POP SWAP2 SWAP1 POP JUMP JUMPDEST PUSH1 0x0 PUSH1 0x20 DUP3 ADD SWAP1 POP DUP2 DUP2 SUB PUSH1 0x0 DUP4 ADD MSTORE PUSH2 0x1916 DUP2 PUSH2 0x18DA JUMP JUMPDEST SWAP1 POP SWAP2 SWAP1 POP JUMP JUMPDEST PUSH32 0x4E487B7100000000000000000000000000000000000000000000000000000000 PUSH1 0x0 MSTORE PUSH1 0x11 PUSH1 0x4 MSTORE PUSH1 0x24 PUSH1 0x0 REVERT JUMPDEST PUSH1 0x0 PUSH2 0x1957 DUP3 PUSH2 0x1490 JUMP JUMPDEST SWAP2 POP PUSH2 0x1962 DUP4 PUSH2 0x1490 JUMP JUMPDEST SWAP3 POP DUP3 DUP3 ADD SWAP1 POP PUSH1 0xFF DUP2 GT ISZERO PUSH2 0x197B JUMPI PUSH2 0x197A PUSH2 0x191D JUMP JUMPDEST JUMPDEST SWAP3 SWAP2 POP POP JUMP JUMPDEST PUSH32 0x4E487B7100000000000000000000000000000000000000000000000000000000 PUSH1 0x0 MSTORE PUSH1 0x22 PUSH1 0x4 MSTORE PUSH1 0x24 PUSH1 0x0 REVERT JUMPDEST PUSH1 0x0 PUSH1 0x2 DUP3 DIV SWAP1 POP PUSH1 0x1 DUP3 AND DUP1 PUSH2 0x19C8 JUMPI PUSH1 0x7F DUP3 AND SWAP2 POP JUMPDEST PUSH1 0x20 DUP3 LT DUP2 SUB PUSH2 0x19DB JUMPI PUSH2 0x19DA PUSH2 0x1981 JUMP JUMPDEST JUMPDEST POP SWAP2 SWAP1 POP JUMP JUMPDEST PUSH1 0x0 DUP2 SWAP1 POP DUP2 PUSH1 0x0 MSTORE PUSH1 0x20 PUSH1 0x0 KECCAK256 SWAP1 POP SWAP2 SWAP1 POP JUMP JUMPDEST PUSH1 0x0 PUSH1 0x20 PUSH1 0x1F DUP4 ADD DIV SWAP1 POP SWAP2 SWAP1 POP JUMP JUMPDEST PUSH1 0x0 DUP3 DUP3 SHL SWAP1 POP SWAP3 SWAP2 POP POP JUMP JUMPDEST PUSH1 0x0 PUSH1 0x8 DUP4 MUL PUSH2 0x1A43 PUSH32 0xFFFFFFFFFFFFFFFFFFFFFFFFFFFFFFFFFFFFFFFFFFFFFFFFFFFFFFFFFFFFFFFF DUP3 PUSH2 0x1A06 JUMP JUMPDEST PUSH2 0x1A4D DUP7 DUP4 PUSH2 0x1A06 JUMP JUMPDEST SWAP6 POP DUP1 NOT DUP5 AND SWAP4 POP DUP1 DUP7 AND DUP5 OR SWAP3 POP POP POP SWAP4 SWAP3 POP POP POP JUMP JUMPDEST PUSH1 0x0 DUP2 SWAP1 POP SWAP2 SWAP1 POP JUMP JUMPDEST PUSH1 0x0 DUP2 SWAP1 POP SWAP2 SWAP1 POP JUMP JUMPDEST PUSH1 0x0 PUSH2 0x1A94 PUSH2 0x1A8F PUSH2 0x1A8A DUP5 PUSH2 0x1A65 JUMP JUMPDEST PUSH2 0x1A6F JUMP JUMPDEST PUSH2 0x1A65 JUMP JUMPDEST SWAP1 POP SWAP2 SWAP1 POP JUMP JUMPDEST PUSH1 0x0 DUP2 SWAP1 POP SWAP2 SWAP1 POP JUMP JUMPDEST PUSH2 0x1AAE DUP4 PUSH2 0x1A79 JUMP JUMPDEST PUSH2 0x1AC2 PUSH2 0x1ABA DUP3 PUSH2 0x1A9B JUMP JUMPDEST DUP5 DUP5 SLOAD PUSH2 0x1A13 JUMP JUMPDEST DUP3 SSTORE POP POP POP POP JUMP JUMPDEST PUSH1 0x0 SWAP1 JUMP JUMPDEST PUSH2 0x1AD7 PUSH2 0x1ACA JUMP JUMPDEST PUSH2 0x1AE2 DUP2 DUP5 DUP5 PUSH2 0x1AA5 JUMP JUMPDEST POP POP POP JUMP JUMPDEST JUMPDEST DUP2 DUP2 LT ISZERO PUSH2 0x1B06 JUMPI PUSH2 0x1AFB PUSH1 0x0 DUP3 PUSH2 0x1ACF JUMP JUMPDEST PUSH1 0x1 DUP2 ADD SWAP1 POP PUSH2 0x1AE8 JUMP JUMPDEST POP POP JUMP JUMPDEST PUSH1 0x1F DUP3 GT ISZERO PUSH2 0x1B4B JUMPI PUSH2 0x1B1C DUP2 PUSH2 0x19E1 JUMP JUMPDEST PUSH2 0x1B25 DUP5 PUSH2 0x19F6 JUMP JUMPDEST DUP2 ADD PUSH1 0x20 DUP6 LT ISZERO PUSH2 0x1B34 JUMPI DUP2 SWAP1 POP JUMPDEST PUSH2 0x1B48 PUSH2 0x1B40 DUP6 PUSH2 0x19F6 JUMP JUMPDEST DUP4 ADD DUP3 PUSH2 0x1AE7 JUMP JUMPDEST POP POP JUMPDEST POP POP POP JUMP JUMPDEST PUSH1 0x0 DUP3 DUP3 SHR SWAP1 POP SWAP3 SWAP2 POP POP JUMP JUMPDEST PUSH1 0x0 PUSH2 0x1B6E PUSH1 0x0 NOT DUP5 PUSH1 0x8 MUL PUSH2 0x1B50 JUMP JUMPDEST NOT DUP1 DUP4 AND SWAP2 POP POP SWAP3 SWAP2 POP POP JUMP JUMPDEST PUSH1 0x0 PUSH2 0x1B87 DUP4 DUP4 PUSH2 0x1B5D JUMP JUMPDEST SWAP2 POP DUP3 PUSH1 0x2 MUL DUP3 OR SWAP1 POP SWAP3 SWAP2 POP POP JUMP JUMPDEST PUSH2 0x1BA0 DUP3 PUSH2 0x1411 JUMP JUMPDEST PUSH8 0xFFFFFFFFFFFFFFFF DUP2 GT ISZERO PUSH2 0x1BB9 JUMPI PUSH2 0x1BB8 PUSH2 0x129D JUMP JUMPDEST JUMPDEST PUSH2 0x1BC3 DUP3 SLOAD PUSH2 0x19B0 JUMP JUMPDEST PUSH2 0x1BCE DUP3 DUP3 DUP6 PUSH2 0x1B0A JUMP JUMPDEST PUSH1 0x0 PUSH1 0x20 SWAP1 POP PUSH1 0x1F DUP4 GT PUSH1 0x1 DUP2 EQ PUSH2 0x1C01 JUMPI PUSH1 0x0 DUP5 ISZERO PUSH2 0x1BEF JUMPI DUP3 DUP8 ADD MLOAD SWAP1 POP JUMPDEST PUSH2 0x1BF9 DUP6 DUP3 PUSH2 0x1B7B JUMP JUMPDEST DUP7 SSTORE POP PUSH2 0x1C61 JUMP JUMPDEST PUSH1 0x1F NOT DUP5 AND PUSH2 0x1C0F DUP7 PUSH2 0x19E1 JUMP JUMPDEST PUSH1 0x0 JUMPDEST DUP3 DUP2 LT ISZERO PUSH2 0x1C37 JUMPI DUP5 DUP10 ADD MLOAD DUP3 SSTORE PUSH1 0x1 DUP3 ADD SWAP2 POP PUSH1 0x20 DUP6 ADD SWAP5 POP PUSH1 0x20 DUP2 ADD SWAP1 POP PUSH2 0x1C12 JUMP JUMPDEST DUP7 DUP4 LT ISZERO PUSH2 0x1C54 JUMPI DUP5 DUP10 ADD MLOAD PUSH2 0x1C50 PUSH1 0x1F DUP10 AND DUP3 PUSH2 0x1B5D JUMP JUMPDEST DUP4 SSTORE POP JUMPDEST PUSH1 0x1 PUSH1 0x2 DUP9 MUL ADD DUP9 SSTORE POP POP POP JUMPDEST POP POP POP POP POP POP JUMP JUMPDEST PUSH32 0x596F7520646F6E27742068617665207065726D697373696F6E20746F20616464 PUSH1 0x0 DUP3 ADD MSTORE PUSH32 0x206E657720637573746F6D6572732C20506C6561736520636F6E746163742074 PUSH1 0x20 DUP3 ADD MSTORE PUSH32 0x6F205242492041444D494E210000000000000000000000000000000000000000 PUSH1 0x40 DUP3 ADD MSTORE POP JUMP JUMPDEST PUSH1 0x0 PUSH2 0x1CEB PUSH1 0x4C DUP4 PUSH2 0x141C JUMP JUMPDEST SWAP2 POP PUSH2 0x1CF6 DUP3 PUSH2 0x1C69 JUMP JUMPDEST PUSH1 0x60 DUP3 ADD SWAP1 POP SWAP2 SWAP1 POP JUMP JUMPDEST PUSH1 0x0 PUSH1 0x20 DUP3 ADD SWAP1 POP DUP2 DUP2 SUB PUSH1 0x0 DUP4 ADD MSTORE PUSH2 0x1D1A DUP2 PUSH2 0x1CDE JUMP JUMPDEST SWAP1 POP SWAP2 SWAP1 POP JUMP JUMPDEST PUSH1 0x0 DUP2 SLOAD SWAP1 POP PUSH2 0x1D30 DUP2 PUSH2 0x19B0 JUMP JUMPDEST SWAP1 POP SWAP2 SWAP1 POP JUMP JUMPDEST PUSH1 0x0 DUP2 SWAP1 POP DUP2 PUSH1 0x0 MSTORE PUSH1 0x20 PUSH1 0x0 KECCAK256 SWAP1 POP SWAP2 SWAP1 POP JUMP JUMPDEST DUP2 DUP2 SUB PUSH2 0x1D5A JUMPI POP POP PUSH2 0x1E32 JUMP JUMPDEST PUSH2 0x1D63 DUP3 PUSH2 0x1D21 JUMP JUMPDEST PUSH8 0xFFFFFFFFFFFFFFFF DUP2 GT ISZERO PUSH2 0x1D7C JUMPI PUSH2 0x1D7B PUSH2 0x129D JUMP JUMPDEST JUMPDEST PUSH2 0x1D86 DUP3 SLOAD PUSH2 0x19B0 JUMP JUMPDEST PUSH2 0x1D91 DUP3 DUP3 DUP6 PUSH2 0x1B0A JUMP JUMPDEST PUSH1 0x0 PUSH1 0x1F DUP4 GT PUSH1 0x1 DUP2 EQ PUSH2 0x1DC0 JUMPI PUSH1 0x0 DUP5 ISZERO PUSH2 0x1DAE JUMPI DUP3 DUP8 ADD SLOAD SWAP1 POP JUMPDEST PUSH2 0x1DB8 DUP6 DUP3 PUSH2 0x1B7B JUMP JUMPDEST DUP7 SSTORE POP PUSH2 0x1E2B JUMP JUMPDEST PUSH1 0x1F NOT DUP5 AND PUSH2 0x1DCE DUP8 PUSH2 0x1D37 JUMP JUMPDEST SWAP7 POP PUSH2 0x1DD9 DUP7 PUSH2 0x19E1 JUMP JUMPDEST PUSH1 0x0 JUMPDEST DUP3 DUP2 LT ISZERO PUSH2 0x1E01 JUMPI DUP5 DUP10 ADD SLOAD DUP3 SSTORE PUSH1 0x1 DUP3 ADD SWAP2 POP PUSH1 0x1 DUP6 ADD SWAP5 POP PUSH1 0x20 DUP2 ADD SWAP1 POP PUSH2 0x1DDC JUMP JUMPDEST DUP7 DUP4 LT ISZERO PUSH2 0x1E1E JUMPI DUP5 DUP10 ADD SLOAD PUSH2 0x1E1A PUSH1 0x1F DUP10 AND DUP3 PUSH2 0x1B5D JUMP JUMPDEST DUP4 SSTORE POP JUMPDEST PUSH1 0x1 PUSH1 0x2 DUP9 MUL ADD DUP9 SSTORE POP POP POP JUMPDEST POP POP POP POP POP POP JUMPDEST JUMP INVALID LOG2 PUSH5 0x6970667358 0x22 SLT KECCAK256 PC MULMOD SWAP12 ADDMOD SWAP4 0xCA 0x2C STATICCALL SWAP11 0xDC CREATE2 0xB4 PUSH25 0xC192B299CDC11F1EE256A2D36A96B9FC51738564736F6C6343 STOP ADDMOD GT STOP CALLER "
				},
				"gasEstimates": {
					"creation": {
						"codeDepositCost": "1557200",
						"executionCost": "25897",
						"totalCost": "1583097"
					},
					"external": {
						"addNewCustomer(string,string)": "infinite",
						"addNewbank(string,address)": "infinite",
						"allowBankToAddNewCustomer(address)": "27124",
						"allowBankToPerformKyc(address)": "27123",
						"blockBankToAddNewCustomer(address)": "27036",
						"blockBankToPerformKyc(address)": "27058",
						"getBankDetails(address)": "infinite",
						"getCustomerData(string)": "infinite",
						"getKycStatus(string)": "infinite",
						"performKyc(string)": "infinite"
					}
				},
				"methodIdentifiers": {
					"addNewCustomer(string,string)": "ad03352d",
					"addNewbank(string,address)": "875deaa1",
					"allowBankToAddNewCustomer(address)": "1b2cad48",
					"allowBankToPerformKyc(address)": "c50ab8c4",
					"blockBankToAddNewCustomer(address)": "01fc9e9f",
					"blockBankToPerformKyc(address)": "0956bd29",
					"getBankDetails(address)": "15101e02",
					"getCustomerData(string)": "c07691e6",
					"getKycStatus(string)": "94b49563",
					"performKyc(string)": "11ce71c5"
				}
			},
			"storageLayout": {
				"storage": [
					{
						"astId": 3,
						"contract": "contracts/CustomerKYC.sol:CustomerKYC",
						"label": "rbiAddress",
						"offset": 0,
						"slot": "0",
						"type": "t_address"
					},
					{
						"astId": 106,
						"contract": "contracts/CustomerKYC.sol:CustomerKYC",
						"label": "banks",
						"offset": 0,
						"slot": "1",
						"type": "t_mapping(t_address,t_struct(Bank)90_storage)"
					},
					{
						"astId": 111,
						"contract": "contracts/CustomerKYC.sol:CustomerKYC",
						"label": "customers",
						"offset": 0,
						"slot": "2",
						"type": "t_mapping(t_string_memory_ptr,t_struct(Customer)101_storage)"
					}
				],
				"types": {
					"t_address": {
						"encoding": "inplace",
						"label": "address",
						"numberOfBytes": "20"
					},
					"t_bool": {
						"encoding": "inplace",
						"label": "bool",
						"numberOfBytes": "1"
					},
					"t_mapping(t_address,t_struct(Bank)90_storage)": {
						"encoding": "mapping",
						"key": "t_address",
						"label": "mapping(address => struct CustomerKYC.Bank)",
						"numberOfBytes": "32",
						"value": "t_struct(Bank)90_storage"
					},
					"t_mapping(t_string_memory_ptr,t_struct(Customer)101_storage)": {
						"encoding": "mapping",
						"key": "t_string_memory_ptr",
						"label": "mapping(string => struct CustomerKYC.Customer)",
						"numberOfBytes": "32",
						"value": "t_struct(Customer)101_storage"
					},
					"t_string_memory_ptr": {
						"encoding": "bytes",
						"label": "string",
						"numberOfBytes": "32"
					},
					"t_string_storage": {
						"encoding": "bytes",
						"label": "string",
						"numberOfBytes": "32"
					},
					"t_struct(Bank)90_storage": {
						"encoding": "inplace",
						"label": "struct CustomerKYC.Bank",
						"members": [
							{
								"astId": 81,
								"contract": "contracts/CustomerKYC.sol:CustomerKYC",
								"label": "bankAddress",
								"offset": 0,
								"slot": "0",
								"type": "t_address"
							},
							{
								"astId": 83,
								"contract": "contracts/CustomerKYC.sol:CustomerKYC",
								"label": "name",
								"offset": 0,
								"slot": "1",
								"type": "t_string_storage"
							},
							{
								"astId": 85,
								"contract": "contracts/CustomerKYC.sol:CustomerKYC",
								"label": "kycCount",
								"offset": 0,
								"slot": "2",
								"type": "t_uint8"
							},
							{
								"astId": 87,
								"contract": "contracts/CustomerKYC.sol:CustomerKYC",
								"label": "addCustomerPrivilege",
								"offset": 1,
								"slot": "2",
								"type": "t_bool"
							},
							{
								"astId": 89,
								"contract": "contracts/CustomerKYC.sol:CustomerKYC",
								"label": "kycPrivilege",
								"offset": 2,
								"slot": "2",
								"type": "t_bool"
							}
						],
						"numberOfBytes": "96"
					},
					"t_struct(Customer)101_storage": {
						"encoding": "inplace",
						"label": "struct CustomerKYC.Customer",
						"members": [
							{
								"astId": 92,
								"contract": "contracts/CustomerKYC.sol:CustomerKYC",
								"label": "name",
								"offset": 0,
								"slot": "0",
								"type": "t_string_storage"
							},
							{
								"astId": 94,
								"contract": "contracts/CustomerKYC.sol:CustomerKYC",
								"label": "data",
								"offset": 0,
								"slot": "1",
								"type": "t_string_storage"
							},
							{
								"astId": 96,
								"contract": "contracts/CustomerKYC.sol:CustomerKYC",
								"label": "bankAddress",
								"offset": 0,
								"slot": "2",
								"type": "t_address"
							},
							{
								"astId": 98,
								"contract": "contracts/CustomerKYC.sol:CustomerKYC",
								"label": "bankName",
								"offset": 0,
								"slot": "3",
								"type": "t_string_storage"
							},
							{
								"astId": 100,
								"contract": "contracts/CustomerKYC.sol:CustomerKYC",
								"label": "kycStatus",
								"offset": 0,
								"slot": "4",
								"type": "t_bool"
							}
						],
						"numberOfBytes": "160"
					},
					"t_uint8": {
						"encoding": "inplace",
						"label": "uint8",
						"numberOfBytes": "1"
					}
				}
			},
			"userdoc": {
				"kind": "user",
				"methods": {},
				"version": 1
			}
		}
	}
}