{
	"contracts/PropertyTransferApp.sol": {
		"PropertyTransferApp": {
			"abi": [
				{
					"inputs": [],
					"stateMutability": "nonpayable",
					"type": "constructor"
				},
				{
					"inputs": [
						{
							"internalType": "uint256",
							"name": "_propertyid",
							"type": "uint256"
						},
						{
							"internalType": "string",
							"name": "_name",
							"type": "string"
						},
						{
							"internalType": "string",
							"name": "_owner",
							"type": "string"
						},
						{
							"internalType": "uint256",
							"name": "_value",
							"type": "uint256"
						},
						{
							"internalType": "uint256",
							"name": "_area",
							"type": "uint256"
						}
					],
					"name": "addProperty",
					"outputs": [],
					"stateMutability": "nonpayable",
					"type": "function"
				},
				{
					"inputs": [],
					"name": "contractOwner",
					"outputs": [
						{
							"internalType": "address",
							"name": "",
							"type": "address"
						}
					],
					"stateMutability": "view",
					"type": "function"
				},
				{
					"inputs": [
						{
							"internalType": "uint256",
							"name": "",
							"type": "uint256"
						}
					],
					"name": "properties",
					"outputs": [
						{
							"internalType": "uint256",
							"name": "id",
							"type": "uint256"
						},
						{
							"internalType": "string",
							"name": "name",
							"type": "string"
						},
						{
							"internalType": "string",
							"name": "owner",
							"type": "string"
						},
						{
							"internalType": "uint256",
							"name": "value",
							"type": "uint256"
						},
						{
							"internalType": "uint256",
							"name": "area",
							"type": "uint256"
						}
					],
					"stateMutability": "view",
					"type": "function"
				},
				{
					"inputs": [
						{
							"internalType": "uint256",
							"name": "_propertyid",
							"type": "uint256"
						}
					],
					"name": "queryPropertyById",
					"outputs": [
						{
							"internalType": "string",
							"name": "name",
							"type": "string"
						},
						{
							"internalType": "string",
							"name": "owner",
							"type": "string"
						},
						{
							"internalType": "uint256",
							"name": "area",
							"type": "uint256"
						},
						{
							"internalType": "uint256",
							"name": "value",
							"type": "uint256"
						}
					],
					"stateMutability": "view",
					"type": "function"
				},
				{
					"inputs": [
						{
							"internalType": "uint256",
							"name": "_propertyid",
							"type": "uint256"
						},
						{
							"internalType": "string",
							"name": "_newOwner",
							"type": "string"
						}
					],
					"name": "transferPropertyOwnership",
					"outputs": [],
					"stateMutability": "nonpayable",
					"type": "function"
				}
			],
			"devdoc": {
				"kind": "dev",
				"methods": {},
				"version": 1
			},
			"evm": {
				"assembly": "    /* \"contracts/PropertyTransferApp.sol\":56:1810  contract PropertyTransferApp {... */\n  mstore(0x40, 0x80)\n    /* \"contracts/PropertyTransferApp.sol\":129:205  constructor() public {        ... */\n  callvalue\n  dup1\n  iszero\n  tag_1\n  jumpi\n  0x00\n  dup1\n  revert\ntag_1:\n  pop\n    /* \"contracts/PropertyTransferApp.sol\":184:194  msg.sender */\n  caller\n    /* \"contracts/PropertyTransferApp.sol\":168:181  contractOwner */\n  0x00\n  dup1\n    /* \"contracts/PropertyTransferApp.sol\":168:194  contractOwner = msg.sender */\n  0x0100\n  exp\n  dup2\n  sload\n  dup2\n  0xffffffffffffffffffffffffffffffffffffffff\n  mul\n  not\n  and\n  swap1\n  dup4\n  0xffffffffffffffffffffffffffffffffffffffff\n  and\n  mul\n  or\n  swap1\n  sstore\n  pop\n    /* \"contracts/PropertyTransferApp.sol\":56:1810  contract PropertyTransferApp {... */\n  dataSize(sub_0)\n  dup1\n  dataOffset(sub_0)\n  0x00\n  codecopy\n  0x00\n  return\nstop\n\nsub_0: assembly {\n        /* \"contracts/PropertyTransferApp.sol\":56:1810  contract PropertyTransferApp {... */\n      mstore(0x40, 0x80)\n      callvalue\n      dup1\n      iszero\n      tag_1\n      jumpi\n      0x00\n      dup1\n      revert\n    tag_1:\n      pop\n      jumpi(tag_2, lt(calldatasize, 0x04))\n      shr(0xe0, calldataload(0x00))\n      dup1\n      0x22f782bd\n      eq\n      tag_3\n      jumpi\n      dup1\n      0x5cdc648e\n      eq\n      tag_4\n      jumpi\n      dup1\n      0x7ae59b01\n      eq\n      tag_5\n      jumpi\n      dup1\n      0xce606ee0\n      eq\n      tag_6\n      jumpi\n      dup1\n      0xf7b10808\n      eq\n      tag_7\n      jumpi\n    tag_2:\n      0x00\n      dup1\n      revert\n        /* \"contracts/PropertyTransferApp.sol\":1037:1591  function queryPropertyById(uint256 _propertyid)        ... */\n    tag_3:\n      tag_8\n      0x04\n      dup1\n      calldatasize\n      sub\n      dup2\n      add\n      swap1\n      tag_9\n      swap2\n      swap1\n      tag_10\n      jump\t// in\n    tag_9:\n      tag_11\n      jump\t// in\n    tag_8:\n      mload(0x40)\n      tag_12\n      swap5\n      swap4\n      swap3\n      swap2\n      swap1\n      tag_13\n      jump\t// in\n    tag_12:\n      mload(0x40)\n      dup1\n      swap2\n      sub\n      swap1\n      return\n        /* \"contracts/PropertyTransferApp.sol\":573:1023  function addProperty(... */\n    tag_4:\n      tag_14\n      0x04\n      dup1\n      calldatasize\n      sub\n      dup2\n      add\n      swap1\n      tag_15\n      swap2\n      swap1\n      tag_16\n      jump\t// in\n    tag_15:\n      tag_17\n      jump\t// in\n    tag_14:\n      stop\n        /* \"contracts/PropertyTransferApp.sol\":1605:1804  function transferPropertyOwnership(        ... */\n    tag_5:\n      tag_18\n      0x04\n      dup1\n      calldatasize\n      sub\n      dup2\n      add\n      swap1\n      tag_19\n      swap2\n      swap1\n      tag_20\n      jump\t// in\n    tag_19:\n      tag_21\n      jump\t// in\n    tag_18:\n      stop\n        /* \"contracts/PropertyTransferApp.sol\":91:119  address public contractOwner */\n    tag_6:\n      tag_22\n      tag_23\n      jump\t// in\n    tag_22:\n      mload(0x40)\n      tag_24\n      swap2\n      swap1\n      tag_25\n      jump\t// in\n    tag_24:\n      mload(0x40)\n      dup1\n      swap2\n      sub\n      swap1\n      return\n        /* \"contracts/PropertyTransferApp.sol\":512:558  mapping(uint256 => Property) public properties */\n    tag_7:\n      tag_26\n      0x04\n      dup1\n      calldatasize\n      sub\n      dup2\n      add\n      swap1\n      tag_27\n      swap2\n      swap1\n      tag_10\n      jump\t// in\n    tag_27:\n      tag_28\n      jump\t// in\n    tag_26:\n      mload(0x40)\n      tag_29\n      swap6\n      swap5\n      swap4\n      swap3\n      swap2\n      swap1\n      tag_30\n      jump\t// in\n    tag_29:\n      mload(0x40)\n      dup1\n      swap2\n      sub\n      swap1\n      return\n        /* \"contracts/PropertyTransferApp.sol\":1037:1591  function queryPropertyById(uint256 _propertyid)        ... */\n    tag_11:\n        /* \"contracts/PropertyTransferApp.sol\":1147:1165  string memory name */\n      0x60\n        /* \"contracts/PropertyTransferApp.sol\":1191:1210  string memory owner */\n      dup1\n        /* \"contracts/PropertyTransferApp.sol\":1236:1248  uint256 area */\n      0x00\n        /* \"contracts/PropertyTransferApp.sol\":1274:1287  uint256 value */\n      dup1\n        /* \"contracts/PropertyTransferApp.sol\":1355:1365  properties */\n      0x01\n        /* \"contracts/PropertyTransferApp.sol\":1355:1378  properties[_propertyid] */\n      0x00\n        /* \"contracts/PropertyTransferApp.sol\":1366:1377  _propertyid */\n      dup7\n        /* \"contracts/PropertyTransferApp.sol\":1355:1378  properties[_propertyid] */\n      dup2\n      mstore\n      0x20\n      add\n      swap1\n      dup2\n      mstore\n      0x20\n      add\n      0x00\n      keccak256\n        /* \"contracts/PropertyTransferApp.sol\":1355:1383  properties[_propertyid].name */\n      0x01\n      add\n        /* \"contracts/PropertyTransferApp.sol\":1417:1427  properties */\n      0x01\n        /* \"contracts/PropertyTransferApp.sol\":1417:1440  properties[_propertyid] */\n      0x00\n        /* \"contracts/PropertyTransferApp.sol\":1428:1439  _propertyid */\n      dup8\n        /* \"contracts/PropertyTransferApp.sol\":1417:1440  properties[_propertyid] */\n      dup2\n      mstore\n      0x20\n      add\n      swap1\n      dup2\n      mstore\n      0x20\n      add\n      0x00\n      keccak256\n        /* \"contracts/PropertyTransferApp.sol\":1417:1446  properties[_propertyid].owner */\n      0x02\n      add\n        /* \"contracts/PropertyTransferApp.sol\":1480:1490  properties */\n      0x01\n        /* \"contracts/PropertyTransferApp.sol\":1480:1503  properties[_propertyid] */\n      0x00\n        /* \"contracts/PropertyTransferApp.sol\":1491:1502  _propertyid */\n      dup9\n        /* \"contracts/PropertyTransferApp.sol\":1480:1503  properties[_propertyid] */\n      dup2\n      mstore\n      0x20\n      add\n      swap1\n      dup2\n      mstore\n      0x20\n      add\n      0x00\n      keccak256\n        /* \"contracts/PropertyTransferApp.sol\":1480:1508  properties[_propertyid].area */\n      0x04\n      add\n      sload\n        /* \"contracts/PropertyTransferApp.sol\":1542:1552  properties */\n      0x01\n        /* \"contracts/PropertyTransferApp.sol\":1542:1565  properties[_propertyid] */\n      0x00\n        /* \"contracts/PropertyTransferApp.sol\":1553:1564  _propertyid */\n      dup10\n        /* \"contracts/PropertyTransferApp.sol\":1542:1565  properties[_propertyid] */\n      dup2\n      mstore\n      0x20\n      add\n      swap1\n      dup2\n      mstore\n      0x20\n      add\n      0x00\n      keccak256\n        /* \"contracts/PropertyTransferApp.sol\":1542:1571  properties[_propertyid].value */\n      0x03\n      add\n      sload\n        /* \"contracts/PropertyTransferApp.sol\":1314:1572  return (            ... */\n      dup4\n      dup1\n      sload\n      tag_32\n      swap1\n      tag_33\n      jump\t// in\n    tag_32:\n      dup1\n      0x1f\n      add\n      0x20\n      dup1\n      swap2\n      div\n      mul\n      0x20\n      add\n      mload(0x40)\n      swap1\n      dup2\n      add\n      0x40\n      mstore\n      dup1\n      swap3\n      swap2\n      swap1\n      dup2\n      dup2\n      mstore\n      0x20\n      add\n      dup3\n      dup1\n      sload\n      tag_34\n      swap1\n      tag_33\n      jump\t// in\n    tag_34:\n      dup1\n      iszero\n      tag_35\n      jumpi\n      dup1\n      0x1f\n      lt\n      tag_36\n      jumpi\n      0x0100\n      dup1\n      dup4\n      sload\n      div\n      mul\n      dup4\n      mstore\n      swap2\n      0x20\n      add\n      swap2\n      jump(tag_35)\n    tag_36:\n      dup3\n      add\n      swap2\n      swap1\n      0x00\n      mstore\n      keccak256(0x00, 0x20)\n      swap1\n    tag_37:\n      dup2\n      sload\n      dup2\n      mstore\n      swap1\n      0x01\n      add\n      swap1\n      0x20\n      add\n      dup1\n      dup4\n      gt\n      tag_37\n      jumpi\n      dup3\n      swap1\n      sub\n      0x1f\n      and\n      dup3\n      add\n      swap2\n    tag_35:\n      pop\n      pop\n      pop\n      pop\n      pop\n      swap4\n      pop\n      dup3\n      dup1\n      sload\n      tag_38\n      swap1\n      tag_33\n      jump\t// in\n    tag_38:\n      dup1\n      0x1f\n      add\n      0x20\n      dup1\n      swap2\n      div\n      mul\n      0x20\n      add\n      mload(0x40)\n      swap1\n      dup2\n      add\n      0x40\n      mstore\n      dup1\n      swap3\n      swap2\n      swap1\n      dup2\n      dup2\n      mstore\n      0x20\n      add\n      dup3\n      dup1\n      sload\n      tag_39\n      swap1\n      tag_33\n      jump\t// in\n    tag_39:\n      dup1\n      iszero\n      tag_40\n      jumpi\n      dup1\n      0x1f\n      lt\n      tag_41\n      jumpi\n      0x0100\n      dup1\n      dup4\n      sload\n      div\n      mul\n      dup4\n      mstore\n      swap2\n      0x20\n      add\n      swap2\n      jump(tag_40)\n    tag_41:\n      dup3\n      add\n      swap2\n      swap1\n      0x00\n      mstore\n      keccak256(0x00, 0x20)\n      swap1\n    tag_42:\n      dup2\n      sload\n      dup2\n      mstore\n      swap1\n      0x01\n      add\n      swap1\n      0x20\n      add\n      dup1\n      dup4\n      gt\n      tag_42\n      jumpi\n      dup3\n      swap1\n      sub\n      0x1f\n      and\n      dup3\n      add\n      swap2\n    tag_40:\n      pop\n      pop\n      pop\n      pop\n      pop\n      swap3\n      pop\n      swap4\n      pop\n      swap4\n      pop\n      swap4\n      pop\n      swap4\n      pop\n        /* \"contracts/PropertyTransferApp.sol\":1037:1591  function queryPropertyById(uint256 _propertyid)        ... */\n      swap2\n      swap4\n      pop\n      swap2\n      swap4\n      jump\t// out\n        /* \"contracts/PropertyTransferApp.sol\":573:1023  function addProperty(... */\n    tag_17:\n        /* \"contracts/PropertyTransferApp.sol\":275:288  contractOwner */\n      0x00\n      dup1\n      sload\n      swap1\n      0x0100\n      exp\n      swap1\n      div\n      0xffffffffffffffffffffffffffffffffffffffff\n      and\n        /* \"contracts/PropertyTransferApp.sol\":261:288  msg.sender == contractOwner */\n      0xffffffffffffffffffffffffffffffffffffffff\n      and\n        /* \"contracts/PropertyTransferApp.sol\":261:271  msg.sender */\n      caller\n        /* \"contracts/PropertyTransferApp.sol\":261:288  msg.sender == contractOwner */\n      0xffffffffffffffffffffffffffffffffffffffff\n      and\n      eq\n        /* \"contracts/PropertyTransferApp.sol\":253:289  require(msg.sender == contractOwner) */\n      tag_44\n      jumpi\n      0x00\n      dup1\n      revert\n    tag_44:\n        /* \"contracts/PropertyTransferApp.sol\":825:830  _name */\n      dup4\n        /* \"contracts/PropertyTransferApp.sol\":794:804  properties */\n      0x01\n        /* \"contracts/PropertyTransferApp.sol\":794:817  properties[_propertyid] */\n      0x00\n        /* \"contracts/PropertyTransferApp.sol\":805:816  _propertyid */\n      dup8\n        /* \"contracts/PropertyTransferApp.sol\":794:817  properties[_propertyid] */\n      dup2\n      mstore\n      0x20\n      add\n      swap1\n      dup2\n      mstore\n      0x20\n      add\n      0x00\n      keccak256\n        /* \"contracts/PropertyTransferApp.sol\":794:822  properties[_propertyid].name */\n      0x01\n      add\n        /* \"contracts/PropertyTransferApp.sol\":794:830  properties[_propertyid].name = _name */\n      swap1\n      dup1\n      mload\n      swap1\n      0x20\n      add\n      swap1\n      tag_46\n      swap3\n      swap2\n      swap1\n      tag_47\n      jump\t// in\n    tag_46:\n      pop\n        /* \"contracts/PropertyTransferApp.sol\":884:890  _owner */\n      dup3\n        /* \"contracts/PropertyTransferApp.sol\":852:862  properties */\n      0x01\n        /* \"contracts/PropertyTransferApp.sol\":852:875  properties[_propertyid] */\n      0x00\n        /* \"contracts/PropertyTransferApp.sol\":863:874  _propertyid */\n      dup8\n        /* \"contracts/PropertyTransferApp.sol\":852:875  properties[_propertyid] */\n      dup2\n      mstore\n      0x20\n      add\n      swap1\n      dup2\n      mstore\n      0x20\n      add\n      0x00\n      keccak256\n        /* \"contracts/PropertyTransferApp.sol\":852:881  properties[_propertyid].owner */\n      0x02\n      add\n        /* \"contracts/PropertyTransferApp.sol\":852:890  properties[_propertyid].owner = _owner */\n      swap1\n      dup1\n      mload\n      swap1\n      0x20\n      add\n      swap1\n      tag_48\n      swap3\n      swap2\n      swap1\n      tag_47\n      jump\t// in\n    tag_48:\n      pop\n        /* \"contracts/PropertyTransferApp.sol\":944:950  _value */\n      dup2\n        /* \"contracts/PropertyTransferApp.sol\":912:922  properties */\n      0x01\n        /* \"contracts/PropertyTransferApp.sol\":912:935  properties[_propertyid] */\n      0x00\n        /* \"contracts/PropertyTransferApp.sol\":923:934  _propertyid */\n      dup8\n        /* \"contracts/PropertyTransferApp.sol\":912:935  properties[_propertyid] */\n      dup2\n      mstore\n      0x20\n      add\n      swap1\n      dup2\n      mstore\n      0x20\n      add\n      0x00\n      keccak256\n        /* \"contracts/PropertyTransferApp.sol\":912:941  properties[_propertyid].value */\n      0x03\n      add\n        /* \"contracts/PropertyTransferApp.sol\":912:950  properties[_propertyid].value = _value */\n      dup2\n      swap1\n      sstore\n      pop\n        /* \"contracts/PropertyTransferApp.sol\":1003:1008  _area */\n      dup1\n        /* \"contracts/PropertyTransferApp.sol\":972:982  properties */\n      0x01\n        /* \"contracts/PropertyTransferApp.sol\":972:995  properties[_propertyid] */\n      0x00\n        /* \"contracts/PropertyTransferApp.sol\":983:994  _propertyid */\n      dup8\n        /* \"contracts/PropertyTransferApp.sol\":972:995  properties[_propertyid] */\n      dup2\n      mstore\n      0x20\n      add\n      swap1\n      dup2\n      mstore\n      0x20\n      add\n      0x00\n      keccak256\n        /* \"contracts/PropertyTransferApp.sol\":972:1000  properties[_propertyid].area */\n      0x04\n      add\n        /* \"contracts/PropertyTransferApp.sol\":972:1008  properties[_propertyid].area = _area */\n      dup2\n      swap1\n      sstore\n      pop\n        /* \"contracts/PropertyTransferApp.sol\":573:1023  function addProperty(... */\n      pop\n      pop\n      pop\n      pop\n      pop\n      jump\t// out\n        /* \"contracts/PropertyTransferApp.sol\":1605:1804  function transferPropertyOwnership(        ... */\n    tag_21:\n        /* \"contracts/PropertyTransferApp.sol\":1780:1789  _newOwner */\n      dup1\n        /* \"contracts/PropertyTransferApp.sol\":1748:1758  properties */\n      0x01\n        /* \"contracts/PropertyTransferApp.sol\":1748:1771  properties[_propertyid] */\n      0x00\n        /* \"contracts/PropertyTransferApp.sol\":1759:1770  _propertyid */\n      dup5\n        /* \"contracts/PropertyTransferApp.sol\":1748:1771  properties[_propertyid] */\n      dup2\n      mstore\n      0x20\n      add\n      swap1\n      dup2\n      mstore\n      0x20\n      add\n      0x00\n      keccak256\n        /* \"contracts/PropertyTransferApp.sol\":1748:1777  properties[_propertyid].owner */\n      0x02\n      add\n        /* \"contracts/PropertyTransferApp.sol\":1748:1789  properties[_propertyid].owner = _newOwner */\n      swap1\n      dup1\n      mload\n      swap1\n      0x20\n      add\n      swap1\n      tag_50\n      swap3\n      swap2\n      swap1\n      tag_47\n      jump\t// in\n    tag_50:\n      pop\n        /* \"contracts/PropertyTransferApp.sol\":1605:1804  function transferPropertyOwnership(        ... */\n      pop\n      pop\n      jump\t// out\n        /* \"contracts/PropertyTransferApp.sol\":91:119  address public contractOwner */\n    tag_23:\n      0x00\n      dup1\n      sload\n      swap1\n      0x0100\n      exp\n      swap1\n      div\n      0xffffffffffffffffffffffffffffffffffffffff\n      and\n      dup2\n      jump\t// out\n        /* \"contracts/PropertyTransferApp.sol\":512:558  mapping(uint256 => Property) public properties */\n    tag_28:\n      mstore(0x20, 0x01)\n      dup1\n      0x00\n      mstore\n      keccak256(0x00, 0x40)\n      0x00\n      swap2\n      pop\n      swap1\n      pop\n      dup1\n      0x00\n      add\n      sload\n      swap1\n      dup1\n      0x01\n      add\n      dup1\n      sload\n      tag_51\n      swap1\n      tag_33\n      jump\t// in\n    tag_51:\n      dup1\n      0x1f\n      add\n      0x20\n      dup1\n      swap2\n      div\n      mul\n      0x20\n      add\n      mload(0x40)\n      swap1\n      dup2\n      add\n      0x40\n      mstore\n      dup1\n      swap3\n      swap2\n      swap1\n      dup2\n      dup2\n      mstore\n      0x20\n      add\n      dup3\n      dup1\n      sload\n      tag_52\n      swap1\n      tag_33\n      jump\t// in\n    tag_52:\n      dup1\n      iszero\n      tag_53\n      jumpi\n      dup1\n      0x1f\n      lt\n      tag_54\n      jumpi\n      0x0100\n      dup1\n      dup4\n      sload\n      div\n      mul\n      dup4\n      mstore\n      swap2\n      0x20\n      add\n      swap2\n      jump(tag_53)\n    tag_54:\n      dup3\n      add\n      swap2\n      swap1\n      0x00\n      mstore\n      keccak256(0x00, 0x20)\n      swap1\n    tag_55:\n      dup2\n      sload\n      dup2\n      mstore\n      swap1\n      0x01\n      add\n      swap1\n      0x20\n      add\n      dup1\n      dup4\n      gt\n      tag_55\n      jumpi\n      dup3\n      swap1\n      sub\n      0x1f\n      and\n      dup3\n      add\n      swap2\n    tag_53:\n      pop\n      pop\n      pop\n      pop\n      pop\n      swap1\n      dup1\n      0x02\n      add\n      dup1\n      sload\n      tag_56\n      swap1\n      tag_33\n      jump\t// in\n    tag_56:\n      dup1\n      0x1f\n      add\n      0x20\n      dup1\n      swap2\n      div\n      mul\n      0x20\n      add\n      mload(0x40)\n      swap1\n      dup2\n      add\n      0x40\n      mstore\n      dup1\n      swap3\n      swap2\n      swap1\n      dup2\n      dup2\n      mstore\n      0x20\n      add\n      dup3\n      dup1\n      sload\n      tag_57\n      swap1\n      tag_33\n      jump\t// in\n    tag_57:\n      dup1\n      iszero\n      tag_58\n      jumpi\n      dup1\n      0x1f\n      lt\n      tag_59\n      jumpi\n      0x0100\n      dup1\n      dup4\n      sload\n      div\n      mul\n      dup4\n      mstore\n      swap2\n      0x20\n      add\n      swap2\n      jump(tag_58)\n    tag_59:\n      dup3\n      add\n      swap2\n      swap1\n      0x00\n      mstore\n      keccak256(0x00, 0x20)\n      swap1\n    tag_60:\n      dup2\n      sload\n      dup2\n      mstore\n      swap1\n      0x01\n      add\n      swap1\n      0x20\n      add\n      dup1\n      dup4\n      gt\n      tag_60\n      jumpi\n      dup3\n      swap1\n      sub\n      0x1f\n      and\n      dup3\n      add\n      swap2\n    tag_58:\n      pop\n      pop\n      pop\n      pop\n      pop\n      swap1\n      dup1\n      0x03\n      add\n      sload\n      swap1\n      dup1\n      0x04\n      add\n      sload\n      swap1\n      pop\n      dup6\n      jump\t// out\n    tag_47:\n      dup3\n      dup1\n      sload\n      tag_61\n      swap1\n      tag_33\n      jump\t// in\n    tag_61:\n      swap1\n      0x00\n      mstore\n      keccak256(0x00, 0x20)\n      swap1\n      0x1f\n      add\n      0x20\n      swap1\n      div\n      dup2\n      add\n      swap3\n      dup3\n      tag_63\n      jumpi\n      0x00\n      dup6\n      sstore\n      jump(tag_62)\n    tag_63:\n      dup3\n      0x1f\n      lt\n      tag_64\n      jumpi\n      dup1\n      mload\n      not(0xff)\n      and\n      dup4\n      dup1\n      add\n      or\n      dup6\n      sstore\n      jump(tag_62)\n    tag_64:\n      dup3\n      dup1\n      add\n      0x01\n      add\n      dup6\n      sstore\n      dup3\n      iszero\n      tag_62\n      jumpi\n      swap2\n      dup3\n      add\n    tag_65:\n      dup3\n      dup2\n      gt\n      iszero\n      tag_66\n      jumpi\n      dup3\n      mload\n      dup3\n      sstore\n      swap2\n      0x20\n      add\n      swap2\n      swap1\n      0x01\n      add\n      swap1\n      jump(tag_65)\n    tag_66:\n    tag_62:\n      pop\n      swap1\n      pop\n      tag_67\n      swap2\n      swap1\n      tag_68\n      jump\t// in\n    tag_67:\n      pop\n      swap1\n      jump\t// out\n    tag_68:\n    tag_69:\n      dup1\n      dup3\n      gt\n      iszero\n      tag_70\n      jumpi\n      0x00\n      dup2\n      0x00\n      swap1\n      sstore\n      pop\n      0x01\n      add\n      jump(tag_69)\n    tag_70:\n      pop\n      swap1\n      jump\t// out\n        /* \"#utility.yul\":7:419   */\n    tag_72:\n        /* \"#utility.yul\":85:90   */\n      0x00\n        /* \"#utility.yul\":110:176   */\n      tag_74\n        /* \"#utility.yul\":126:175   */\n      tag_75\n        /* \"#utility.yul\":168:174   */\n      dup5\n        /* \"#utility.yul\":126:175   */\n      tag_76\n      jump\t// in\n    tag_75:\n        /* \"#utility.yul\":110:176   */\n      tag_77\n      jump\t// in\n    tag_74:\n        /* \"#utility.yul\":101:176   */\n      swap1\n      pop\n        /* \"#utility.yul\":199:205   */\n      dup3\n        /* \"#utility.yul\":192:197   */\n      dup2\n        /* \"#utility.yul\":185:206   */\n      mstore\n        /* \"#utility.yul\":237:241   */\n      0x20\n        /* \"#utility.yul\":230:235   */\n      dup2\n        /* \"#utility.yul\":226:242   */\n      add\n        /* \"#utility.yul\":275:278   */\n      dup5\n        /* \"#utility.yul\":266:272   */\n      dup5\n        /* \"#utility.yul\":261:264   */\n      dup5\n        /* \"#utility.yul\":257:273   */\n      add\n        /* \"#utility.yul\":254:279   */\n      gt\n        /* \"#utility.yul\":251:363   */\n      iszero\n      tag_78\n      jumpi\n        /* \"#utility.yul\":282:361   */\n      tag_79\n      tag_80\n      jump\t// in\n    tag_79:\n        /* \"#utility.yul\":251:363   */\n    tag_78:\n        /* \"#utility.yul\":372:413   */\n      tag_81\n        /* \"#utility.yul\":406:412   */\n      dup5\n        /* \"#utility.yul\":401:404   */\n      dup3\n        /* \"#utility.yul\":396:399   */\n      dup6\n        /* \"#utility.yul\":372:413   */\n      tag_82\n      jump\t// in\n    tag_81:\n        /* \"#utility.yul\":91:419   */\n      pop\n        /* \"#utility.yul\":7:419   */\n      swap4\n      swap3\n      pop\n      pop\n      pop\n      jump\t// out\n        /* \"#utility.yul\":439:779   */\n    tag_83:\n        /* \"#utility.yul\":495:500   */\n      0x00\n        /* \"#utility.yul\":544:547   */\n      dup3\n        /* \"#utility.yul\":537:541   */\n      0x1f\n        /* \"#utility.yul\":529:535   */\n      dup4\n        /* \"#utility.yul\":525:542   */\n      add\n        /* \"#utility.yul\":521:548   */\n      slt\n        /* \"#utility.yul\":511:633   */\n      tag_85\n      jumpi\n        /* \"#utility.yul\":552:631   */\n      tag_86\n      tag_87\n      jump\t// in\n    tag_86:\n        /* \"#utility.yul\":511:633   */\n    tag_85:\n        /* \"#utility.yul\":669:675   */\n      dup2\n        /* \"#utility.yul\":656:676   */\n      calldataload\n        /* \"#utility.yul\":694:773   */\n      tag_88\n        /* \"#utility.yul\":769:772   */\n      dup5\n        /* \"#utility.yul\":761:767   */\n      dup3\n        /* \"#utility.yul\":754:758   */\n      0x20\n        /* \"#utility.yul\":746:752   */\n      dup7\n        /* \"#utility.yul\":742:759   */\n      add\n        /* \"#utility.yul\":694:773   */\n      tag_72\n      jump\t// in\n    tag_88:\n        /* \"#utility.yul\":685:773   */\n      swap2\n      pop\n        /* \"#utility.yul\":501:779   */\n      pop\n        /* \"#utility.yul\":439:779   */\n      swap3\n      swap2\n      pop\n      pop\n      jump\t// out\n        /* \"#utility.yul\":785:924   */\n    tag_89:\n        /* \"#utility.yul\":831:836   */\n      0x00\n        /* \"#utility.yul\":869:875   */\n      dup2\n        /* \"#utility.yul\":856:876   */\n      calldataload\n        /* \"#utility.yul\":847:876   */\n      swap1\n      pop\n        /* \"#utility.yul\":885:918   */\n      tag_91\n        /* \"#utility.yul\":912:917   */\n      dup2\n        /* \"#utility.yul\":885:918   */\n      tag_92\n      jump\t// in\n    tag_91:\n        /* \"#utility.yul\":785:924   */\n      swap3\n      swap2\n      pop\n      pop\n      jump\t// out\n        /* \"#utility.yul\":930:1259   */\n    tag_10:\n        /* \"#utility.yul\":989:995   */\n      0x00\n        /* \"#utility.yul\":1038:1040   */\n      0x20\n        /* \"#utility.yul\":1026:1035   */\n      dup3\n        /* \"#utility.yul\":1017:1024   */\n      dup5\n        /* \"#utility.yul\":1013:1036   */\n      sub\n        /* \"#utility.yul\":1009:1041   */\n      slt\n        /* \"#utility.yul\":1006:1125   */\n      iszero\n      tag_94\n      jumpi\n        /* \"#utility.yul\":1044:1123   */\n      tag_95\n      tag_96\n      jump\t// in\n    tag_95:\n        /* \"#utility.yul\":1006:1125   */\n    tag_94:\n        /* \"#utility.yul\":1164:1165   */\n      0x00\n        /* \"#utility.yul\":1189:1242   */\n      tag_97\n        /* \"#utility.yul\":1234:1241   */\n      dup5\n        /* \"#utility.yul\":1225:1231   */\n      dup3\n        /* \"#utility.yul\":1214:1223   */\n      dup6\n        /* \"#utility.yul\":1210:1232   */\n      add\n        /* \"#utility.yul\":1189:1242   */\n      tag_89\n      jump\t// in\n    tag_97:\n        /* \"#utility.yul\":1179:1242   */\n      swap2\n      pop\n        /* \"#utility.yul\":1135:1252   */\n      pop\n        /* \"#utility.yul\":930:1259   */\n      swap3\n      swap2\n      pop\n      pop\n      jump\t// out\n        /* \"#utility.yul\":1265:1919   */\n    tag_20:\n        /* \"#utility.yul\":1343:1349   */\n      0x00\n        /* \"#utility.yul\":1351:1357   */\n      dup1\n        /* \"#utility.yul\":1400:1402   */\n      0x40\n        /* \"#utility.yul\":1388:1397   */\n      dup4\n        /* \"#utility.yul\":1379:1386   */\n      dup6\n        /* \"#utility.yul\":1375:1398   */\n      sub\n        /* \"#utility.yul\":1371:1403   */\n      slt\n        /* \"#utility.yul\":1368:1487   */\n      iszero\n      tag_99\n      jumpi\n        /* \"#utility.yul\":1406:1485   */\n      tag_100\n      tag_96\n      jump\t// in\n    tag_100:\n        /* \"#utility.yul\":1368:1487   */\n    tag_99:\n        /* \"#utility.yul\":1526:1527   */\n      0x00\n        /* \"#utility.yul\":1551:1604   */\n      tag_101\n        /* \"#utility.yul\":1596:1603   */\n      dup6\n        /* \"#utility.yul\":1587:1593   */\n      dup3\n        /* \"#utility.yul\":1576:1585   */\n      dup7\n        /* \"#utility.yul\":1572:1594   */\n      add\n        /* \"#utility.yul\":1551:1604   */\n      tag_89\n      jump\t// in\n    tag_101:\n        /* \"#utility.yul\":1541:1604   */\n      swap3\n      pop\n        /* \"#utility.yul\":1497:1614   */\n      pop\n        /* \"#utility.yul\":1681:1683   */\n      0x20\n        /* \"#utility.yul\":1670:1679   */\n      dup4\n        /* \"#utility.yul\":1666:1684   */\n      add\n        /* \"#utility.yul\":1653:1685   */\n      calldataload\n        /* \"#utility.yul\":1712:1730   */\n      0xffffffffffffffff\n        /* \"#utility.yul\":1704:1710   */\n      dup2\n        /* \"#utility.yul\":1701:1731   */\n      gt\n        /* \"#utility.yul\":1698:1815   */\n      iszero\n      tag_102\n      jumpi\n        /* \"#utility.yul\":1734:1813   */\n      tag_103\n      tag_104\n      jump\t// in\n    tag_103:\n        /* \"#utility.yul\":1698:1815   */\n    tag_102:\n        /* \"#utility.yul\":1839:1902   */\n      tag_105\n        /* \"#utility.yul\":1894:1901   */\n      dup6\n        /* \"#utility.yul\":1885:1891   */\n      dup3\n        /* \"#utility.yul\":1874:1883   */\n      dup7\n        /* \"#utility.yul\":1870:1892   */\n      add\n        /* \"#utility.yul\":1839:1902   */\n      tag_83\n      jump\t// in\n    tag_105:\n        /* \"#utility.yul\":1829:1902   */\n      swap2\n      pop\n        /* \"#utility.yul\":1624:1912   */\n      pop\n        /* \"#utility.yul\":1265:1919   */\n      swap3\n      pop\n      swap3\n      swap1\n      pop\n      jump\t// out\n        /* \"#utility.yul\":1925:3196   */\n    tag_16:\n        /* \"#utility.yul\":2040:2046   */\n      0x00\n        /* \"#utility.yul\":2048:2054   */\n      dup1\n        /* \"#utility.yul\":2056:2062   */\n      0x00\n        /* \"#utility.yul\":2064:2070   */\n      dup1\n        /* \"#utility.yul\":2072:2078   */\n      0x00\n        /* \"#utility.yul\":2121:2124   */\n      0xa0\n        /* \"#utility.yul\":2109:2118   */\n      dup7\n        /* \"#utility.yul\":2100:2107   */\n      dup9\n        /* \"#utility.yul\":2096:2119   */\n      sub\n        /* \"#utility.yul\":2092:2125   */\n      slt\n        /* \"#utility.yul\":2089:2209   */\n      iszero\n      tag_107\n      jumpi\n        /* \"#utility.yul\":2128:2207   */\n      tag_108\n      tag_96\n      jump\t// in\n    tag_108:\n        /* \"#utility.yul\":2089:2209   */\n    tag_107:\n        /* \"#utility.yul\":2248:2249   */\n      0x00\n        /* \"#utility.yul\":2273:2326   */\n      tag_109\n        /* \"#utility.yul\":2318:2325   */\n      dup9\n        /* \"#utility.yul\":2309:2315   */\n      dup3\n        /* \"#utility.yul\":2298:2307   */\n      dup10\n        /* \"#utility.yul\":2294:2316   */\n      add\n        /* \"#utility.yul\":2273:2326   */\n      tag_89\n      jump\t// in\n    tag_109:\n        /* \"#utility.yul\":2263:2326   */\n      swap6\n      pop\n        /* \"#utility.yul\":2219:2336   */\n      pop\n        /* \"#utility.yul\":2403:2405   */\n      0x20\n        /* \"#utility.yul\":2392:2401   */\n      dup7\n        /* \"#utility.yul\":2388:2406   */\n      add\n        /* \"#utility.yul\":2375:2407   */\n      calldataload\n        /* \"#utility.yul\":2434:2452   */\n      0xffffffffffffffff\n        /* \"#utility.yul\":2426:2432   */\n      dup2\n        /* \"#utility.yul\":2423:2453   */\n      gt\n        /* \"#utility.yul\":2420:2537   */\n      iszero\n      tag_110\n      jumpi\n        /* \"#utility.yul\":2456:2535   */\n      tag_111\n      tag_104\n      jump\t// in\n    tag_111:\n        /* \"#utility.yul\":2420:2537   */\n    tag_110:\n        /* \"#utility.yul\":2561:2624   */\n      tag_112\n        /* \"#utility.yul\":2616:2623   */\n      dup9\n        /* \"#utility.yul\":2607:2613   */\n      dup3\n        /* \"#utility.yul\":2596:2605   */\n      dup10\n        /* \"#utility.yul\":2592:2614   */\n      add\n        /* \"#utility.yul\":2561:2624   */\n      tag_83\n      jump\t// in\n    tag_112:\n        /* \"#utility.yul\":2551:2624   */\n      swap5\n      pop\n        /* \"#utility.yul\":2346:2634   */\n      pop\n        /* \"#utility.yul\":2701:2703   */\n      0x40\n        /* \"#utility.yul\":2690:2699   */\n      dup7\n        /* \"#utility.yul\":2686:2704   */\n      add\n        /* \"#utility.yul\":2673:2705   */\n      calldataload\n        /* \"#utility.yul\":2732:2750   */\n      0xffffffffffffffff\n        /* \"#utility.yul\":2724:2730   */\n      dup2\n        /* \"#utility.yul\":2721:2751   */\n      gt\n        /* \"#utility.yul\":2718:2835   */\n      iszero\n      tag_113\n      jumpi\n        /* \"#utility.yul\":2754:2833   */\n      tag_114\n      tag_104\n      jump\t// in\n    tag_114:\n        /* \"#utility.yul\":2718:2835   */\n    tag_113:\n        /* \"#utility.yul\":2859:2922   */\n      tag_115\n        /* \"#utility.yul\":2914:2921   */\n      dup9\n        /* \"#utility.yul\":2905:2911   */\n      dup3\n        /* \"#utility.yul\":2894:2903   */\n      dup10\n        /* \"#utility.yul\":2890:2912   */\n      add\n        /* \"#utility.yul\":2859:2922   */\n      tag_83\n      jump\t// in\n    tag_115:\n        /* \"#utility.yul\":2849:2922   */\n      swap4\n      pop\n        /* \"#utility.yul\":2644:2932   */\n      pop\n        /* \"#utility.yul\":2971:2973   */\n      0x60\n        /* \"#utility.yul\":2997:3050   */\n      tag_116\n        /* \"#utility.yul\":3042:3049   */\n      dup9\n        /* \"#utility.yul\":3033:3039   */\n      dup3\n        /* \"#utility.yul\":3022:3031   */\n      dup10\n        /* \"#utility.yul\":3018:3040   */\n      add\n        /* \"#utility.yul\":2997:3050   */\n      tag_89\n      jump\t// in\n    tag_116:\n        /* \"#utility.yul\":2987:3050   */\n      swap3\n      pop\n        /* \"#utility.yul\":2942:3060   */\n      pop\n        /* \"#utility.yul\":3099:3102   */\n      0x80\n        /* \"#utility.yul\":3126:3179   */\n      tag_117\n        /* \"#utility.yul\":3171:3178   */\n      dup9\n        /* \"#utility.yul\":3162:3168   */\n      dup3\n        /* \"#utility.yul\":3151:3160   */\n      dup10\n        /* \"#utility.yul\":3147:3169   */\n      add\n        /* \"#utility.yul\":3126:3179   */\n      tag_89\n      jump\t// in\n    tag_117:\n        /* \"#utility.yul\":3116:3179   */\n      swap2\n      pop\n        /* \"#utility.yul\":3070:3189   */\n      pop\n        /* \"#utility.yul\":1925:3196   */\n      swap3\n      swap6\n      pop\n      swap3\n      swap6\n      swap1\n      swap4\n      pop\n      jump\t// out\n        /* \"#utility.yul\":3202:3320   */\n    tag_118:\n        /* \"#utility.yul\":3289:3313   */\n      tag_120\n        /* \"#utility.yul\":3307:3312   */\n      dup2\n        /* \"#utility.yul\":3289:3313   */\n      tag_121\n      jump\t// in\n    tag_120:\n        /* \"#utility.yul\":3284:3287   */\n      dup3\n        /* \"#utility.yul\":3277:3314   */\n      mstore\n        /* \"#utility.yul\":3202:3320   */\n      pop\n      pop\n      jump\t// out\n        /* \"#utility.yul\":3326:3690   */\n    tag_122:\n        /* \"#utility.yul\":3414:3417   */\n      0x00\n        /* \"#utility.yul\":3442:3481   */\n      tag_124\n        /* \"#utility.yul\":3475:3480   */\n      dup3\n        /* \"#utility.yul\":3442:3481   */\n      tag_125\n      jump\t// in\n    tag_124:\n        /* \"#utility.yul\":3497:3568   */\n      tag_126\n        /* \"#utility.yul\":3561:3567   */\n      dup2\n        /* \"#utility.yul\":3556:3559   */\n      dup6\n        /* \"#utility.yul\":3497:3568   */\n      tag_127\n      jump\t// in\n    tag_126:\n        /* \"#utility.yul\":3490:3568   */\n      swap4\n      pop\n        /* \"#utility.yul\":3577:3629   */\n      tag_128\n        /* \"#utility.yul\":3622:3628   */\n      dup2\n        /* \"#utility.yul\":3617:3620   */\n      dup6\n        /* \"#utility.yul\":3610:3614   */\n      0x20\n        /* \"#utility.yul\":3603:3608   */\n      dup7\n        /* \"#utility.yul\":3599:3615   */\n      add\n        /* \"#utility.yul\":3577:3629   */\n      tag_129\n      jump\t// in\n    tag_128:\n        /* \"#utility.yul\":3654:3683   */\n      tag_130\n        /* \"#utility.yul\":3676:3682   */\n      dup2\n        /* \"#utility.yul\":3654:3683   */\n      tag_131\n      jump\t// in\n    tag_130:\n        /* \"#utility.yul\":3649:3652   */\n      dup5\n        /* \"#utility.yul\":3645:3684   */\n      add\n        /* \"#utility.yul\":3638:3684   */\n      swap2\n      pop\n        /* \"#utility.yul\":3418:3690   */\n      pop\n        /* \"#utility.yul\":3326:3690   */\n      swap3\n      swap2\n      pop\n      pop\n      jump\t// out\n        /* \"#utility.yul\":3696:3814   */\n    tag_132:\n        /* \"#utility.yul\":3783:3807   */\n      tag_134\n        /* \"#utility.yul\":3801:3806   */\n      dup2\n        /* \"#utility.yul\":3783:3807   */\n      tag_135\n      jump\t// in\n    tag_134:\n        /* \"#utility.yul\":3778:3781   */\n      dup3\n        /* \"#utility.yul\":3771:3808   */\n      mstore\n        /* \"#utility.yul\":3696:3814   */\n      pop\n      pop\n      jump\t// out\n        /* \"#utility.yul\":3820:4042   */\n    tag_25:\n        /* \"#utility.yul\":3913:3917   */\n      0x00\n        /* \"#utility.yul\":3951:3953   */\n      0x20\n        /* \"#utility.yul\":3940:3949   */\n      dup3\n        /* \"#utility.yul\":3936:3954   */\n      add\n        /* \"#utility.yul\":3928:3954   */\n      swap1\n      pop\n        /* \"#utility.yul\":3964:4035   */\n      tag_137\n        /* \"#utility.yul\":4032:4033   */\n      0x00\n        /* \"#utility.yul\":4021:4030   */\n      dup4\n        /* \"#utility.yul\":4017:4034   */\n      add\n        /* \"#utility.yul\":4008:4014   */\n      dup5\n        /* \"#utility.yul\":3964:4035   */\n      tag_118\n      jump\t// in\n    tag_137:\n        /* \"#utility.yul\":3820:4042   */\n      swap3\n      swap2\n      pop\n      pop\n      jump\t// out\n        /* \"#utility.yul\":4048:4783   */\n    tag_13:\n        /* \"#utility.yul\":4265:4269   */\n      0x00\n        /* \"#utility.yul\":4303:4306   */\n      0x80\n        /* \"#utility.yul\":4292:4301   */\n      dup3\n        /* \"#utility.yul\":4288:4307   */\n      add\n        /* \"#utility.yul\":4280:4307   */\n      swap1\n      pop\n        /* \"#utility.yul\":4353:4362   */\n      dup2\n        /* \"#utility.yul\":4347:4351   */\n      dup2\n        /* \"#utility.yul\":4343:4363   */\n      sub\n        /* \"#utility.yul\":4339:4340   */\n      0x00\n        /* \"#utility.yul\":4328:4337   */\n      dup4\n        /* \"#utility.yul\":4324:4341   */\n      add\n        /* \"#utility.yul\":4317:4364   */\n      mstore\n        /* \"#utility.yul\":4381:4459   */\n      tag_139\n        /* \"#utility.yul\":4454:4458   */\n      dup2\n        /* \"#utility.yul\":4445:4451   */\n      dup8\n        /* \"#utility.yul\":4381:4459   */\n      tag_122\n      jump\t// in\n    tag_139:\n        /* \"#utility.yul\":4373:4459   */\n      swap1\n      pop\n        /* \"#utility.yul\":4506:4515   */\n      dup2\n        /* \"#utility.yul\":4500:4504   */\n      dup2\n        /* \"#utility.yul\":4496:4516   */\n      sub\n        /* \"#utility.yul\":4491:4493   */\n      0x20\n        /* \"#utility.yul\":4480:4489   */\n      dup4\n        /* \"#utility.yul\":4476:4494   */\n      add\n        /* \"#utility.yul\":4469:4517   */\n      mstore\n        /* \"#utility.yul\":4534:4612   */\n      tag_140\n        /* \"#utility.yul\":4607:4611   */\n      dup2\n        /* \"#utility.yul\":4598:4604   */\n      dup7\n        /* \"#utility.yul\":4534:4612   */\n      tag_122\n      jump\t// in\n    tag_140:\n        /* \"#utility.yul\":4526:4612   */\n      swap1\n      pop\n        /* \"#utility.yul\":4622:4694   */\n      tag_141\n        /* \"#utility.yul\":4690:4692   */\n      0x40\n        /* \"#utility.yul\":4679:4688   */\n      dup4\n        /* \"#utility.yul\":4675:4693   */\n      add\n        /* \"#utility.yul\":4666:4672   */\n      dup6\n        /* \"#utility.yul\":4622:4694   */\n      tag_132\n      jump\t// in\n    tag_141:\n        /* \"#utility.yul\":4704:4776   */\n      tag_142\n        /* \"#utility.yul\":4772:4774   */\n      0x60\n        /* \"#utility.yul\":4761:4770   */\n      dup4\n        /* \"#utility.yul\":4757:4775   */\n      add\n        /* \"#utility.yul\":4748:4754   */\n      dup5\n        /* \"#utility.yul\":4704:4776   */\n      tag_132\n      jump\t// in\n    tag_142:\n        /* \"#utility.yul\":4048:4783   */\n      swap6\n      swap5\n      pop\n      pop\n      pop\n      pop\n      pop\n      jump\t// out\n        /* \"#utility.yul\":4789:5635   */\n    tag_30:\n        /* \"#utility.yul\":5034:5038   */\n      0x00\n        /* \"#utility.yul\":5072:5075   */\n      0xa0\n        /* \"#utility.yul\":5061:5070   */\n      dup3\n        /* \"#utility.yul\":5057:5076   */\n      add\n        /* \"#utility.yul\":5049:5076   */\n      swap1\n      pop\n        /* \"#utility.yul\":5086:5157   */\n      tag_144\n        /* \"#utility.yul\":5154:5155   */\n      0x00\n        /* \"#utility.yul\":5143:5152   */\n      dup4\n        /* \"#utility.yul\":5139:5156   */\n      add\n        /* \"#utility.yul\":5130:5136   */\n      dup9\n        /* \"#utility.yul\":5086:5157   */\n      tag_132\n      jump\t// in\n    tag_144:\n        /* \"#utility.yul\":5204:5213   */\n      dup2\n        /* \"#utility.yul\":5198:5202   */\n      dup2\n        /* \"#utility.yul\":5194:5214   */\n      sub\n        /* \"#utility.yul\":5189:5191   */\n      0x20\n        /* \"#utility.yul\":5178:5187   */\n      dup4\n        /* \"#utility.yul\":5174:5192   */\n      add\n        /* \"#utility.yul\":5167:5215   */\n      mstore\n        /* \"#utility.yul\":5232:5310   */\n      tag_145\n        /* \"#utility.yul\":5305:5309   */\n      dup2\n        /* \"#utility.yul\":5296:5302   */\n      dup8\n        /* \"#utility.yul\":5232:5310   */\n      tag_122\n      jump\t// in\n    tag_145:\n        /* \"#utility.yul\":5224:5310   */\n      swap1\n      pop\n        /* \"#utility.yul\":5357:5366   */\n      dup2\n        /* \"#utility.yul\":5351:5355   */\n      dup2\n        /* \"#utility.yul\":5347:5367   */\n      sub\n        /* \"#utility.yul\":5342:5344   */\n      0x40\n        /* \"#utility.yul\":5331:5340   */\n      dup4\n        /* \"#utility.yul\":5327:5345   */\n      add\n        /* \"#utility.yul\":5320:5368   */\n      mstore\n        /* \"#utility.yul\":5385:5463   */\n      tag_146\n        /* \"#utility.yul\":5458:5462   */\n      dup2\n        /* \"#utility.yul\":5449:5455   */\n      dup7\n        /* \"#utility.yul\":5385:5463   */\n      tag_122\n      jump\t// in\n    tag_146:\n        /* \"#utility.yul\":5377:5463   */\n      swap1\n      pop\n        /* \"#utility.yul\":5473:5545   */\n      tag_147\n        /* \"#utility.yul\":5541:5543   */\n      0x60\n        /* \"#utility.yul\":5530:5539   */\n      dup4\n        /* \"#utility.yul\":5526:5544   */\n      add\n        /* \"#utility.yul\":5517:5523   */\n      dup6\n        /* \"#utility.yul\":5473:5545   */\n      tag_132\n      jump\t// in\n    tag_147:\n        /* \"#utility.yul\":5555:5628   */\n      tag_148\n        /* \"#utility.yul\":5623:5626   */\n      0x80\n        /* \"#utility.yul\":5612:5621   */\n      dup4\n        /* \"#utility.yul\":5608:5627   */\n      add\n        /* \"#utility.yul\":5599:5605   */\n      dup5\n        /* \"#utility.yul\":5555:5628   */\n      tag_132\n      jump\t// in\n    tag_148:\n        /* \"#utility.yul\":4789:5635   */\n      swap7\n      swap6\n      pop\n      pop\n      pop\n      pop\n      pop\n      pop\n      jump\t// out\n        /* \"#utility.yul\":5641:5770   */\n    tag_77:\n        /* \"#utility.yul\":5675:5681   */\n      0x00\n        /* \"#utility.yul\":5702:5722   */\n      tag_150\n      tag_151\n      jump\t// in\n    tag_150:\n        /* \"#utility.yul\":5692:5722   */\n      swap1\n      pop\n        /* \"#utility.yul\":5731:5764   */\n      tag_152\n        /* \"#utility.yul\":5759:5763   */\n      dup3\n        /* \"#utility.yul\":5751:5757   */\n      dup3\n        /* \"#utility.yul\":5731:5764   */\n      tag_153\n      jump\t// in\n    tag_152:\n        /* \"#utility.yul\":5641:5770   */\n      swap2\n      swap1\n      pop\n      jump\t// out\n        /* \"#utility.yul\":5776:5851   */\n    tag_151:\n        /* \"#utility.yul\":5809:5815   */\n      0x00\n        /* \"#utility.yul\":5842:5844   */\n      0x40\n        /* \"#utility.yul\":5836:5845   */\n      mload\n        /* \"#utility.yul\":5826:5845   */\n      swap1\n      pop\n        /* \"#utility.yul\":5776:5851   */\n      swap1\n      jump\t// out\n        /* \"#utility.yul\":5857:6165   */\n    tag_76:\n        /* \"#utility.yul\":5919:5923   */\n      0x00\n        /* \"#utility.yul\":6009:6027   */\n      0xffffffffffffffff\n        /* \"#utility.yul\":6001:6007   */\n      dup3\n        /* \"#utility.yul\":5998:6028   */\n      gt\n        /* \"#utility.yul\":5995:6051   */\n      iszero\n      tag_156\n      jumpi\n        /* \"#utility.yul\":6031:6049   */\n      tag_157\n      tag_158\n      jump\t// in\n    tag_157:\n        /* \"#utility.yul\":5995:6051   */\n    tag_156:\n        /* \"#utility.yul\":6069:6098   */\n      tag_159\n        /* \"#utility.yul\":6091:6097   */\n      dup3\n        /* \"#utility.yul\":6069:6098   */\n      tag_131\n      jump\t// in\n    tag_159:\n        /* \"#utility.yul\":6061:6098   */\n      swap1\n      pop\n        /* \"#utility.yul\":6153:6157   */\n      0x20\n        /* \"#utility.yul\":6147:6151   */\n      dup2\n        /* \"#utility.yul\":6143:6158   */\n      add\n        /* \"#utility.yul\":6135:6158   */\n      swap1\n      pop\n        /* \"#utility.yul\":5857:6165   */\n      swap2\n      swap1\n      pop\n      jump\t// out\n        /* \"#utility.yul\":6171:6270   */\n    tag_125:\n        /* \"#utility.yul\":6223:6229   */\n      0x00\n        /* \"#utility.yul\":6257:6262   */\n      dup2\n        /* \"#utility.yul\":6251:6263   */\n      mload\n        /* \"#utility.yul\":6241:6263   */\n      swap1\n      pop\n        /* \"#utility.yul\":6171:6270   */\n      swap2\n      swap1\n      pop\n      jump\t// out\n        /* \"#utility.yul\":6276:6445   */\n    tag_127:\n        /* \"#utility.yul\":6360:6371   */\n      0x00\n        /* \"#utility.yul\":6394:6400   */\n      dup3\n        /* \"#utility.yul\":6389:6392   */\n      dup3\n        /* \"#utility.yul\":6382:6401   */\n      mstore\n        /* \"#utility.yul\":6434:6438   */\n      0x20\n        /* \"#utility.yul\":6429:6432   */\n      dup3\n        /* \"#utility.yul\":6425:6439   */\n      add\n        /* \"#utility.yul\":6410:6439   */\n      swap1\n      pop\n        /* \"#utility.yul\":6276:6445   */\n      swap3\n      swap2\n      pop\n      pop\n      jump\t// out\n        /* \"#utility.yul\":6451:6547   */\n    tag_121:\n        /* \"#utility.yul\":6488:6495   */\n      0x00\n        /* \"#utility.yul\":6517:6541   */\n      tag_163\n        /* \"#utility.yul\":6535:6540   */\n      dup3\n        /* \"#utility.yul\":6517:6541   */\n      tag_164\n      jump\t// in\n    tag_163:\n        /* \"#utility.yul\":6506:6541   */\n      swap1\n      pop\n        /* \"#utility.yul\":6451:6547   */\n      swap2\n      swap1\n      pop\n      jump\t// out\n        /* \"#utility.yul\":6553:6679   */\n    tag_164:\n        /* \"#utility.yul\":6590:6597   */\n      0x00\n        /* \"#utility.yul\":6630:6672   */\n      0xffffffffffffffffffffffffffffffffffffffff\n        /* \"#utility.yul\":6623:6628   */\n      dup3\n        /* \"#utility.yul\":6619:6673   */\n      and\n        /* \"#utility.yul\":6608:6673   */\n      swap1\n      pop\n        /* \"#utility.yul\":6553:6679   */\n      swap2\n      swap1\n      pop\n      jump\t// out\n        /* \"#utility.yul\":6685:6762   */\n    tag_135:\n        /* \"#utility.yul\":6722:6729   */\n      0x00\n        /* \"#utility.yul\":6751:6756   */\n      dup2\n        /* \"#utility.yul\":6740:6756   */\n      swap1\n      pop\n        /* \"#utility.yul\":6685:6762   */\n      swap2\n      swap1\n      pop\n      jump\t// out\n        /* \"#utility.yul\":6768:6922   */\n    tag_82:\n        /* \"#utility.yul\":6852:6858   */\n      dup3\n        /* \"#utility.yul\":6847:6850   */\n      dup2\n        /* \"#utility.yul\":6842:6845   */\n      dup4\n        /* \"#utility.yul\":6829:6859   */\n      calldatacopy\n        /* \"#utility.yul\":6914:6915   */\n      0x00\n        /* \"#utility.yul\":6905:6911   */\n      dup4\n        /* \"#utility.yul\":6900:6903   */\n      dup4\n        /* \"#utility.yul\":6896:6912   */\n      add\n        /* \"#utility.yul\":6889:6916   */\n      mstore\n        /* \"#utility.yul\":6768:6922   */\n      pop\n      pop\n      pop\n      jump\t// out\n        /* \"#utility.yul\":6928:7235   */\n    tag_129:\n        /* \"#utility.yul\":6996:6997   */\n      0x00\n        /* \"#utility.yul\":7006:7119   */\n    tag_169:\n        /* \"#utility.yul\":7020:7026   */\n      dup4\n        /* \"#utility.yul\":7017:7018   */\n      dup2\n        /* \"#utility.yul\":7014:7027   */\n      lt\n        /* \"#utility.yul\":7006:7119   */\n      iszero\n      tag_171\n      jumpi\n        /* \"#utility.yul\":7105:7106   */\n      dup1\n        /* \"#utility.yul\":7100:7103   */\n      dup3\n        /* \"#utility.yul\":7096:7107   */\n      add\n        /* \"#utility.yul\":7090:7108   */\n      mload\n        /* \"#utility.yul\":7086:7087   */\n      dup2\n        /* \"#utility.yul\":7081:7084   */\n      dup5\n        /* \"#utility.yul\":7077:7088   */\n      add\n        /* \"#utility.yul\":7070:7109   */\n      mstore\n        /* \"#utility.yul\":7042:7044   */\n      0x20\n        /* \"#utility.yul\":7039:7040   */\n      dup2\n        /* \"#utility.yul\":7035:7045   */\n      add\n        /* \"#utility.yul\":7030:7045   */\n      swap1\n      pop\n        /* \"#utility.yul\":7006:7119   */\n      jump(tag_169)\n    tag_171:\n        /* \"#utility.yul\":7137:7143   */\n      dup4\n        /* \"#utility.yul\":7134:7135   */\n      dup2\n        /* \"#utility.yul\":7131:7144   */\n      gt\n        /* \"#utility.yul\":7128:7229   */\n      iszero\n      tag_172\n      jumpi\n        /* \"#utility.yul\":7217:7218   */\n      0x00\n        /* \"#utility.yul\":7208:7214   */\n      dup5\n        /* \"#utility.yul\":7203:7206   */\n      dup5\n        /* \"#utility.yul\":7199:7215   */\n      add\n        /* \"#utility.yul\":7192:7219   */\n      mstore\n        /* \"#utility.yul\":7128:7229   */\n    tag_172:\n        /* \"#utility.yul\":6977:7235   */\n      pop\n        /* \"#utility.yul\":6928:7235   */\n      pop\n      pop\n      pop\n      jump\t// out\n        /* \"#utility.yul\":7241:7561   */\n    tag_33:\n        /* \"#utility.yul\":7285:7291   */\n      0x00\n        /* \"#utility.yul\":7322:7323   */\n      0x02\n        /* \"#utility.yul\":7316:7320   */\n      dup3\n        /* \"#utility.yul\":7312:7324   */\n      div\n        /* \"#utility.yul\":7302:7324   */\n      swap1\n      pop\n        /* \"#utility.yul\":7369:7370   */\n      0x01\n        /* \"#utility.yul\":7363:7367   */\n      dup3\n        /* \"#utility.yul\":7359:7371   */\n      and\n        /* \"#utility.yul\":7390:7408   */\n      dup1\n        /* \"#utility.yul\":7380:7461   */\n      tag_174\n      jumpi\n        /* \"#utility.yul\":7446:7450   */\n      0x7f\n        /* \"#utility.yul\":7438:7444   */\n      dup3\n        /* \"#utility.yul\":7434:7451   */\n      and\n        /* \"#utility.yul\":7424:7451   */\n      swap2\n      pop\n        /* \"#utility.yul\":7380:7461   */\n    tag_174:\n        /* \"#utility.yul\":7508:7510   */\n      0x20\n        /* \"#utility.yul\":7500:7506   */\n      dup3\n        /* \"#utility.yul\":7497:7511   */\n      lt\n        /* \"#utility.yul\":7477:7495   */\n      dup2\n        /* \"#utility.yul\":7474:7512   */\n      eq\n        /* \"#utility.yul\":7471:7555   */\n      iszero\n      tag_175\n      jumpi\n        /* \"#utility.yul\":7527:7545   */\n      tag_176\n      tag_177\n      jump\t// in\n    tag_176:\n        /* \"#utility.yul\":7471:7555   */\n    tag_175:\n        /* \"#utility.yul\":7292:7561   */\n      pop\n        /* \"#utility.yul\":7241:7561   */\n      swap2\n      swap1\n      pop\n      jump\t// out\n        /* \"#utility.yul\":7567:7848   */\n    tag_153:\n        /* \"#utility.yul\":7650:7677   */\n      tag_179\n        /* \"#utility.yul\":7672:7676   */\n      dup3\n        /* \"#utility.yul\":7650:7677   */\n      tag_131\n      jump\t// in\n    tag_179:\n        /* \"#utility.yul\":7642:7648   */\n      dup2\n        /* \"#utility.yul\":7638:7678   */\n      add\n        /* \"#utility.yul\":7780:7786   */\n      dup2\n        /* \"#utility.yul\":7768:7778   */\n      dup2\n        /* \"#utility.yul\":7765:7787   */\n      lt\n        /* \"#utility.yul\":7744:7762   */\n      0xffffffffffffffff\n        /* \"#utility.yul\":7732:7742   */\n      dup3\n        /* \"#utility.yul\":7729:7763   */\n      gt\n        /* \"#utility.yul\":7726:7788   */\n      or\n        /* \"#utility.yul\":7723:7811   */\n      iszero\n      tag_180\n      jumpi\n        /* \"#utility.yul\":7791:7809   */\n      tag_181\n      tag_158\n      jump\t// in\n    tag_181:\n        /* \"#utility.yul\":7723:7811   */\n    tag_180:\n        /* \"#utility.yul\":7831:7841   */\n      dup1\n        /* \"#utility.yul\":7827:7829   */\n      0x40\n        /* \"#utility.yul\":7820:7842   */\n      mstore\n        /* \"#utility.yul\":7610:7848   */\n      pop\n        /* \"#utility.yul\":7567:7848   */\n      pop\n      pop\n      jump\t// out\n        /* \"#utility.yul\":7854:8034   */\n    tag_177:\n        /* \"#utility.yul\":7902:7979   */\n      0x4e487b7100000000000000000000000000000000000000000000000000000000\n        /* \"#utility.yul\":7899:7900   */\n      0x00\n        /* \"#utility.yul\":7892:7980   */\n      mstore\n        /* \"#utility.yul\":7999:8003   */\n      0x22\n        /* \"#utility.yul\":7996:7997   */\n      0x04\n        /* \"#utility.yul\":7989:8004   */\n      mstore\n        /* \"#utility.yul\":8023:8027   */\n      0x24\n        /* \"#utility.yul\":8020:8021   */\n      0x00\n        /* \"#utility.yul\":8013:8028   */\n      revert\n        /* \"#utility.yul\":8040:8220   */\n    tag_158:\n        /* \"#utility.yul\":8088:8165   */\n      0x4e487b7100000000000000000000000000000000000000000000000000000000\n        /* \"#utility.yul\":8085:8086   */\n      0x00\n        /* \"#utility.yul\":8078:8166   */\n      mstore\n        /* \"#utility.yul\":8185:8189   */\n      0x41\n        /* \"#utility.yul\":8182:8183   */\n      0x04\n        /* \"#utility.yul\":8175:8190   */\n      mstore\n        /* \"#utility.yul\":8209:8213   */\n      0x24\n        /* \"#utility.yul\":8206:8207   */\n      0x00\n        /* \"#utility.yul\":8199:8214   */\n      revert\n        /* \"#utility.yul\":8226:8343   */\n    tag_87:\n        /* \"#utility.yul\":8335:8336   */\n      0x00\n        /* \"#utility.yul\":8332:8333   */\n      dup1\n        /* \"#utility.yul\":8325:8337   */\n      revert\n        /* \"#utility.yul\":8349:8466   */\n    tag_80:\n        /* \"#utility.yul\":8458:8459   */\n      0x00\n        /* \"#utility.yul\":8455:8456   */\n      dup1\n        /* \"#utility.yul\":8448:8460   */\n      revert\n        /* \"#utility.yul\":8472:8589   */\n    tag_104:\n        /* \"#utility.yul\":8581:8582   */\n      0x00\n        /* \"#utility.yul\":8578:8579   */\n      dup1\n        /* \"#utility.yul\":8571:8583   */\n      revert\n        /* \"#utility.yul\":8595:8712   */\n    tag_96:\n        /* \"#utility.yul\":8704:8705   */\n      0x00\n        /* \"#utility.yul\":8701:8702   */\n      dup1\n        /* \"#utility.yul\":8694:8706   */\n      revert\n        /* \"#utility.yul\":8718:8820   */\n    tag_131:\n        /* \"#utility.yul\":8759:8765   */\n      0x00\n        /* \"#utility.yul\":8810:8812   */\n      0x1f\n        /* \"#utility.yul\":8806:8813   */\n      not\n        /* \"#utility.yul\":8801:8803   */\n      0x1f\n        /* \"#utility.yul\":8794:8799   */\n      dup4\n        /* \"#utility.yul\":8790:8804   */\n      add\n        /* \"#utility.yul\":8786:8814   */\n      and\n        /* \"#utility.yul\":8776:8814   */\n      swap1\n      pop\n        /* \"#utility.yul\":8718:8820   */\n      swap2\n      swap1\n      pop\n      jump\t// out\n        /* \"#utility.yul\":8826:8948   */\n    tag_92:\n        /* \"#utility.yul\":8899:8923   */\n      tag_190\n        /* \"#utility.yul\":8917:8922   */\n      dup2\n        /* \"#utility.yul\":8899:8923   */\n      tag_135\n      jump\t// in\n    tag_190:\n        /* \"#utility.yul\":8892:8897   */\n      dup2\n        /* \"#utility.yul\":8889:8924   */\n      eq\n        /* \"#utility.yul\":8879:8942   */\n      tag_191\n      jumpi\n        /* \"#utility.yul\":8938:8939   */\n      0x00\n        /* \"#utility.yul\":8935:8936   */\n      dup1\n        /* \"#utility.yul\":8928:8940   */\n      revert\n        /* \"#utility.yul\":8879:8942   */\n    tag_191:\n        /* \"#utility.yul\":8826:8948   */\n      pop\n      jump\t// out\n\n    auxdata: 0xa2646970667358221220e2806ddccf01498a9e61c810831e23ab3ddeee608d4f8165f6f50fccf2aca6a464736f6c63430008070033\n}\n",
				"bytecode": {
					"linkReferences": {},
					"object": "608060405234801561001057600080fd5b50336000806101000a81548173ffffffffffffffffffffffffffffffffffffffff021916908373ffffffffffffffffffffffffffffffffffffffff160217905550610ad1806100606000396000f3fe608060405234801561001057600080fd5b50600436106100575760003560e01c806322f782bd1461005c5780635cdc648e1461008f5780637ae59b01146100ab578063ce606ee0146100c7578063f7b10808146100e5575b600080fd5b6100766004803603810190610071919061064c565b610119565b60405161008694939291906107fa565b60405180910390f35b6100a960048036038101906100a491906106d5565b6102a0565b005b6100c560048036038101906100c09190610679565b61038b565b005b6100cf6103ba565b6040516100dc91906107df565b60405180910390f35b6100ff60048036038101906100fa919061064c565b6103de565b60405161011095949392919061084d565b60405180910390f35b6060806000806001600086815260200190815260200160002060010160016000878152602001908152602001600020600201600160008881526020019081526020016000206004015460016000898152602001908152602001600020600301548380546101859061099e565b80601f01602080910402602001604051908101604052809291908181526020018280546101b19061099e565b80156101fe5780601f106101d3576101008083540402835291602001916101fe565b820191906000526020600020905b8154815290600101906020018083116101e157829003601f168201915b505050505093508280546102119061099e565b80601f016020809104026020016040519081016040528092919081815260200182805461023d9061099e565b801561028a5780601f1061025f5761010080835404028352916020019161028a565b820191906000526020600020905b81548152906001019060200180831161026d57829003601f168201915b5050505050925093509350935093509193509193565b60008054906101000a900473ffffffffffffffffffffffffffffffffffffffff1673ffffffffffffffffffffffffffffffffffffffff163373ffffffffffffffffffffffffffffffffffffffff16146102f857600080fd5b83600160008781526020019081526020016000206001019080519060200190610322929190610524565b508260016000878152602001908152602001600020600201908051906020019061034d929190610524565b508160016000878152602001908152602001600020600301819055508060016000878152602001908152602001600020600401819055505050505050565b806001600084815260200190815260200160002060020190805190602001906103b5929190610524565b505050565b60008054906101000a900473ffffffffffffffffffffffffffffffffffffffff1681565b60016020528060005260406000206000915090508060000154908060010180546104079061099e565b80601f01602080910402602001604051908101604052809291908181526020018280546104339061099e565b80156104805780601f1061045557610100808354040283529160200191610480565b820191906000526020600020905b81548152906001019060200180831161046357829003601f168201915b5050505050908060020180546104959061099e565b80601f01602080910402602001604051908101604052809291908181526020018280546104c19061099e565b801561050e5780601f106104e35761010080835404028352916020019161050e565b820191906000526020600020905b8154815290600101906020018083116104f157829003601f168201915b5050505050908060030154908060040154905085565b8280546105309061099e565b90600052602060002090601f0160209004810192826105525760008555610599565b82601f1061056b57805160ff1916838001178555610599565b82800160010185558215610599579182015b8281111561059857825182559160200191906001019061057d565b5b5090506105a691906105aa565b5090565b5b808211156105c35760008160009055506001016105ab565b5090565b60006105da6105d5846108d3565b6108ae565b9050828152602081018484840111156105f6576105f5610a64565b5b61060184828561095c565b509392505050565b600082601f83011261061e5761061d610a5f565b5b813561062e8482602086016105c7565b91505092915050565b60008135905061064681610a84565b92915050565b60006020828403121561066257610661610a6e565b5b600061067084828501610637565b91505092915050565b600080604083850312156106905761068f610a6e565b5b600061069e85828601610637565b925050602083013567ffffffffffffffff8111156106bf576106be610a69565b5b6106cb85828601610609565b9150509250929050565b600080600080600060a086880312156106f1576106f0610a6e565b5b60006106ff88828901610637565b955050602086013567ffffffffffffffff8111156107205761071f610a69565b5b61072c88828901610609565b945050604086013567ffffffffffffffff81111561074d5761074c610a69565b5b61075988828901610609565b935050606061076a88828901610637565b925050608061077b88828901610637565b9150509295509295909350565b61079181610920565b82525050565b60006107a282610904565b6107ac818561090f565b93506107bc81856020860161096b565b6107c581610a73565b840191505092915050565b6107d981610952565b82525050565b60006020820190506107f46000830184610788565b92915050565b600060808201905081810360008301526108148187610797565b905081810360208301526108288186610797565b905061083760408301856107d0565b61084460608301846107d0565b95945050505050565b600060a08201905061086260008301886107d0565b81810360208301526108748187610797565b905081810360408301526108888186610797565b905061089760608301856107d0565b6108a460808301846107d0565b9695505050505050565b60006108b86108c9565b90506108c482826109d0565b919050565b6000604051905090565b600067ffffffffffffffff8211156108ee576108ed610a30565b5b6108f782610a73565b9050602081019050919050565b600081519050919050565b600082825260208201905092915050565b600061092b82610932565b9050919050565b600073ffffffffffffffffffffffffffffffffffffffff82169050919050565b6000819050919050565b82818337600083830152505050565b60005b8381101561098957808201518184015260208101905061096e565b83811115610998576000848401525b50505050565b600060028204905060018216806109b657607f821691505b602082108114156109ca576109c9610a01565b5b50919050565b6109d982610a73565b810181811067ffffffffffffffff821117156109f8576109f7610a30565b5b80604052505050565b7f4e487b7100000000000000000000000000000000000000000000000000000000600052602260045260246000fd5b7f4e487b7100000000000000000000000000000000000000000000000000000000600052604160045260246000fd5b600080fd5b600080fd5b600080fd5b600080fd5b6000601f19601f8301169050919050565b610a8d81610952565b8114610a9857600080fd5b5056fea2646970667358221220e2806ddccf01498a9e61c810831e23ab3ddeee608d4f8165f6f50fccf2aca6a464736f6c63430008070033",
					"opcodes": "PUSH1 0x80 PUSH1 0x40 MSTORE CALLVALUE DUP1 ISZERO PUSH2 0x10 JUMPI PUSH1 0x0 DUP1 REVERT JUMPDEST POP CALLER PUSH1 0x0 DUP1 PUSH2 0x100 EXP DUP2 SLOAD DUP2 PUSH20 0xFFFFFFFFFFFFFFFFFFFFFFFFFFFFFFFFFFFFFFFF MUL NOT AND SWAP1 DUP4 PUSH20 0xFFFFFFFFFFFFFFFFFFFFFFFFFFFFFFFFFFFFFFFF AND MUL OR SWAP1 SSTORE POP PUSH2 0xAD1 DUP1 PUSH2 0x60 PUSH1 0x0 CODECOPY PUSH1 0x0 RETURN INVALID PUSH1 0x80 PUSH1 0x40 MSTORE CALLVALUE DUP1 ISZERO PUSH2 0x10 JUMPI PUSH1 0x0 DUP1 REVERT JUMPDEST POP PUSH1 0x4 CALLDATASIZE LT PUSH2 0x57 JUMPI PUSH1 0x0 CALLDATALOAD PUSH1 0xE0 SHR DUP1 PUSH4 0x22F782BD EQ PUSH2 0x5C JUMPI DUP1 PUSH4 0x5CDC648E EQ PUSH2 0x8F JUMPI DUP1 PUSH4 0x7AE59B01 EQ PUSH2 0xAB JUMPI DUP1 PUSH4 0xCE606EE0 EQ PUSH2 0xC7 JUMPI DUP1 PUSH4 0xF7B10808 EQ PUSH2 0xE5 JUMPI JUMPDEST PUSH1 0x0 DUP1 REVERT JUMPDEST PUSH2 0x76 PUSH1 0x4 DUP1 CALLDATASIZE SUB DUP2 ADD SWAP1 PUSH2 0x71 SWAP2 SWAP1 PUSH2 0x64C JUMP JUMPDEST PUSH2 0x119 JUMP JUMPDEST PUSH1 0x40 MLOAD PUSH2 0x86 SWAP5 SWAP4 SWAP3 SWAP2 SWAP1 PUSH2 0x7FA JUMP JUMPDEST PUSH1 0x40 MLOAD DUP1 SWAP2 SUB SWAP1 RETURN JUMPDEST PUSH2 0xA9 PUSH1 0x4 DUP1 CALLDATASIZE SUB DUP2 ADD SWAP1 PUSH2 0xA4 SWAP2 SWAP1 PUSH2 0x6D5 JUMP JUMPDEST PUSH2 0x2A0 JUMP JUMPDEST STOP JUMPDEST PUSH2 0xC5 PUSH1 0x4 DUP1 CALLDATASIZE SUB DUP2 ADD SWAP1 PUSH2 0xC0 SWAP2 SWAP1 PUSH2 0x679 JUMP JUMPDEST PUSH2 0x38B JUMP JUMPDEST STOP JUMPDEST PUSH2 0xCF PUSH2 0x3BA JUMP JUMPDEST PUSH1 0x40 MLOAD PUSH2 0xDC SWAP2 SWAP1 PUSH2 0x7DF JUMP JUMPDEST PUSH1 0x40 MLOAD DUP1 SWAP2 SUB SWAP1 RETURN JUMPDEST PUSH2 0xFF PUSH1 0x4 DUP1 CALLDATASIZE SUB DUP2 ADD SWAP1 PUSH2 0xFA SWAP2 SWAP1 PUSH2 0x64C JUMP JUMPDEST PUSH2 0x3DE JUMP JUMPDEST PUSH1 0x40 MLOAD PUSH2 0x110 SWAP6 SWAP5 SWAP4 SWAP3 SWAP2 SWAP1 PUSH2 0x84D JUMP JUMPDEST PUSH1 0x40 MLOAD DUP1 SWAP2 SUB SWAP1 RETURN JUMPDEST PUSH1 0x60 DUP1 PUSH1 0x0 DUP1 PUSH1 0x1 PUSH1 0x0 DUP7 DUP2 MSTORE PUSH1 0x20 ADD SWAP1 DUP2 MSTORE PUSH1 0x20 ADD PUSH1 0x0 KECCAK256 PUSH1 0x1 ADD PUSH1 0x1 PUSH1 0x0 DUP8 DUP2 MSTORE PUSH1 0x20 ADD SWAP1 DUP2 MSTORE PUSH1 0x20 ADD PUSH1 0x0 KECCAK256 PUSH1 0x2 ADD PUSH1 0x1 PUSH1 0x0 DUP9 DUP2 MSTORE PUSH1 0x20 ADD SWAP1 DUP2 MSTORE PUSH1 0x20 ADD PUSH1 0x0 KECCAK256 PUSH1 0x4 ADD SLOAD PUSH1 0x1 PUSH1 0x0 DUP10 DUP2 MSTORE PUSH1 0x20 ADD SWAP1 DUP2 MSTORE PUSH1 0x20 ADD PUSH1 0x0 KECCAK256 PUSH1 0x3 ADD SLOAD DUP4 DUP1 SLOAD PUSH2 0x185 SWAP1 PUSH2 0x99E JUMP JUMPDEST DUP1 PUSH1 0x1F ADD PUSH1 0x20 DUP1 SWAP2 DIV MUL PUSH1 0x20 ADD PUSH1 0x40 MLOAD SWAP1 DUP2 ADD PUSH1 0x40 MSTORE DUP1 SWAP3 SWAP2 SWAP1 DUP2 DUP2 MSTORE PUSH1 0x20 ADD DUP3 DUP1 SLOAD PUSH2 0x1B1 SWAP1 PUSH2 0x99E JUMP JUMPDEST DUP1 ISZERO PUSH2 0x1FE JUMPI DUP1 PUSH1 0x1F LT PUSH2 0x1D3 JUMPI PUSH2 0x100 DUP1 DUP4 SLOAD DIV MUL DUP4 MSTORE SWAP2 PUSH1 0x20 ADD SWAP2 PUSH2 0x1FE JUMP JUMPDEST DUP3 ADD SWAP2 SWAP1 PUSH1 0x0 MSTORE PUSH1 0x20 PUSH1 0x0 KECCAK256 SWAP1 JUMPDEST DUP2 SLOAD DUP2 MSTORE SWAP1 PUSH1 0x1 ADD SWAP1 PUSH1 0x20 ADD DUP1 DUP4 GT PUSH2 0x1E1 JUMPI DUP3 SWAP1 SUB PUSH1 0x1F AND DUP3 ADD SWAP2 JUMPDEST POP POP POP POP POP SWAP4 POP DUP3 DUP1 SLOAD PUSH2 0x211 SWAP1 PUSH2 0x99E JUMP JUMPDEST DUP1 PUSH1 0x1F ADD PUSH1 0x20 DUP1 SWAP2 DIV MUL PUSH1 0x20 ADD PUSH1 0x40 MLOAD SWAP1 DUP2 ADD PUSH1 0x40 MSTORE DUP1 SWAP3 SWAP2 SWAP1 DUP2 DUP2 MSTORE PUSH1 0x20 ADD DUP3 DUP1 SLOAD PUSH2 0x23D SWAP1 PUSH2 0x99E JUMP JUMPDEST DUP1 ISZERO PUSH2 0x28A JUMPI DUP1 PUSH1 0x1F LT PUSH2 0x25F JUMPI PUSH2 0x100 DUP1 DUP4 SLOAD DIV MUL DUP4 MSTORE SWAP2 PUSH1 0x20 ADD SWAP2 PUSH2 0x28A JUMP JUMPDEST DUP3 ADD SWAP2 SWAP1 PUSH1 0x0 MSTORE PUSH1 0x20 PUSH1 0x0 KECCAK256 SWAP1 JUMPDEST DUP2 SLOAD DUP2 MSTORE SWAP1 PUSH1 0x1 ADD SWAP1 PUSH1 0x20 ADD DUP1 DUP4 GT PUSH2 0x26D JUMPI DUP3 SWAP1 SUB PUSH1 0x1F AND DUP3 ADD SWAP2 JUMPDEST POP POP POP POP POP SWAP3 POP SWAP4 POP SWAP4 POP SWAP4 POP SWAP4 POP SWAP2 SWAP4 POP SWAP2 SWAP4 JUMP JUMPDEST PUSH1 0x0 DUP1 SLOAD SWAP1 PUSH2 0x100 EXP SWAP1 DIV PUSH20 0xFFFFFFFFFFFFFFFFFFFFFFFFFFFFFFFFFFFFFFFF AND PUSH20 0xFFFFFFFFFFFFFFFFFFFFFFFFFFFFFFFFFFFFFFFF AND CALLER PUSH20 0xFFFFFFFFFFFFFFFFFFFFFFFFFFFFFFFFFFFFFFFF AND EQ PUSH2 0x2F8 JUMPI PUSH1 0x0 DUP1 REVERT JUMPDEST DUP4 PUSH1 0x1 PUSH1 0x0 DUP8 DUP2 MSTORE PUSH1 0x20 ADD SWAP1 DUP2 MSTORE PUSH1 0x20 ADD PUSH1 0x0 KECCAK256 PUSH1 0x1 ADD SWAP1 DUP1 MLOAD SWAP1 PUSH1 0x20 ADD SWAP1 PUSH2 0x322 SWAP3 SWAP2 SWAP1 PUSH2 0x524 JUMP JUMPDEST POP DUP3 PUSH1 0x1 PUSH1 0x0 DUP8 DUP2 MSTORE PUSH1 0x20 ADD SWAP1 DUP2 MSTORE PUSH1 0x20 ADD PUSH1 0x0 KECCAK256 PUSH1 0x2 ADD SWAP1 DUP1 MLOAD SWAP1 PUSH1 0x20 ADD SWAP1 PUSH2 0x34D SWAP3 SWAP2 SWAP1 PUSH2 0x524 JUMP JUMPDEST POP DUP2 PUSH1 0x1 PUSH1 0x0 DUP8 DUP2 MSTORE PUSH1 0x20 ADD SWAP1 DUP2 MSTORE PUSH1 0x20 ADD PUSH1 0x0 KECCAK256 PUSH1 0x3 ADD DUP2 SWAP1 SSTORE POP DUP1 PUSH1 0x1 PUSH1 0x0 DUP8 DUP2 MSTORE PUSH1 0x20 ADD SWAP1 DUP2 MSTORE PUSH1 0x20 ADD PUSH1 0x0 KECCAK256 PUSH1 0x4 ADD DUP2 SWAP1 SSTORE POP POP POP POP POP POP JUMP JUMPDEST DUP1 PUSH1 0x1 PUSH1 0x0 DUP5 DUP2 MSTORE PUSH1 0x20 ADD SWAP1 DUP2 MSTORE PUSH1 0x20 ADD PUSH1 0x0 KECCAK256 PUSH1 0x2 ADD SWAP1 DUP1 MLOAD SWAP1 PUSH1 0x20 ADD SWAP1 PUSH2 0x3B5 SWAP3 SWAP2 SWAP1 PUSH2 0x524 JUMP JUMPDEST POP POP POP JUMP JUMPDEST PUSH1 0x0 DUP1 SLOAD SWAP1 PUSH2 0x100 EXP SWAP1 DIV PUSH20 0xFFFFFFFFFFFFFFFFFFFFFFFFFFFFFFFFFFFFFFFF AND DUP2 JUMP JUMPDEST PUSH1 0x1 PUSH1 0x20 MSTORE DUP1 PUSH1 0x0 MSTORE PUSH1 0x40 PUSH1 0x0 KECCAK256 PUSH1 0x0 SWAP2 POP SWAP1 POP DUP1 PUSH1 0x0 ADD SLOAD SWAP1 DUP1 PUSH1 0x1 ADD DUP1 SLOAD PUSH2 0x407 SWAP1 PUSH2 0x99E JUMP JUMPDEST DUP1 PUSH1 0x1F ADD PUSH1 0x20 DUP1 SWAP2 DIV MUL PUSH1 0x20 ADD PUSH1 0x40 MLOAD SWAP1 DUP2 ADD PUSH1 0x40 MSTORE DUP1 SWAP3 SWAP2 SWAP1 DUP2 DUP2 MSTORE PUSH1 0x20 ADD DUP3 DUP1 SLOAD PUSH2 0x433 SWAP1 PUSH2 0x99E JUMP JUMPDEST DUP1 ISZERO PUSH2 0x480 JUMPI DUP1 PUSH1 0x1F LT PUSH2 0x455 JUMPI PUSH2 0x100 DUP1 DUP4 SLOAD DIV MUL DUP4 MSTORE SWAP2 PUSH1 0x20 ADD SWAP2 PUSH2 0x480 JUMP JUMPDEST DUP3 ADD SWAP2 SWAP1 PUSH1 0x0 MSTORE PUSH1 0x20 PUSH1 0x0 KECCAK256 SWAP1 JUMPDEST DUP2 SLOAD DUP2 MSTORE SWAP1 PUSH1 0x1 ADD SWAP1 PUSH1 0x20 ADD DUP1 DUP4 GT PUSH2 0x463 JUMPI DUP3 SWAP1 SUB PUSH1 0x1F AND DUP3 ADD SWAP2 JUMPDEST POP POP POP POP POP SWAP1 DUP1 PUSH1 0x2 ADD DUP1 SLOAD PUSH2 0x495 SWAP1 PUSH2 0x99E JUMP JUMPDEST DUP1 PUSH1 0x1F ADD PUSH1 0x20 DUP1 SWAP2 DIV MUL PUSH1 0x20 ADD PUSH1 0x40 MLOAD SWAP1 DUP2 ADD PUSH1 0x40 MSTORE DUP1 SWAP3 SWAP2 SWAP1 DUP2 DUP2 MSTORE PUSH1 0x20 ADD DUP3 DUP1 SLOAD PUSH2 0x4C1 SWAP1 PUSH2 0x99E JUMP JUMPDEST DUP1 ISZERO PUSH2 0x50E JUMPI DUP1 PUSH1 0x1F LT PUSH2 0x4E3 JUMPI PUSH2 0x100 DUP1 DUP4 SLOAD DIV MUL DUP4 MSTORE SWAP2 PUSH1 0x20 ADD SWAP2 PUSH2 0x50E JUMP JUMPDEST DUP3 ADD SWAP2 SWAP1 PUSH1 0x0 MSTORE PUSH1 0x20 PUSH1 0x0 KECCAK256 SWAP1 JUMPDEST DUP2 SLOAD DUP2 MSTORE SWAP1 PUSH1 0x1 ADD SWAP1 PUSH1 0x20 ADD DUP1 DUP4 GT PUSH2 0x4F1 JUMPI DUP3 SWAP1 SUB PUSH1 0x1F AND DUP3 ADD SWAP2 JUMPDEST POP POP POP POP POP SWAP1 DUP1 PUSH1 0x3 ADD SLOAD SWAP1 DUP1 PUSH1 0x4 ADD SLOAD SWAP1 POP DUP6 JUMP JUMPDEST DUP3 DUP1 SLOAD PUSH2 0x530 SWAP1 PUSH2 0x99E JUMP JUMPDEST SWAP1 PUSH1 0x0 MSTORE PUSH1 0x20 PUSH1 0x0 KECCAK256 SWAP1 PUSH1 0x1F ADD PUSH1 0x20 SWAP1 DIV DUP2 ADD SWAP3 DUP3 PUSH2 0x552 JUMPI PUSH1 0x0 DUP6 SSTORE PUSH2 0x599 JUMP JUMPDEST DUP3 PUSH1 0x1F LT PUSH2 0x56B JUMPI DUP1 MLOAD PUSH1 0xFF NOT AND DUP4 DUP1 ADD OR DUP6 SSTORE PUSH2 0x599 JUMP JUMPDEST DUP3 DUP1 ADD PUSH1 0x1 ADD DUP6 SSTORE DUP3 ISZERO PUSH2 0x599 JUMPI SWAP2 DUP3 ADD JUMPDEST DUP3 DUP2 GT ISZERO PUSH2 0x598 JUMPI DUP3 MLOAD DUP3 SSTORE SWAP2 PUSH1 0x20 ADD SWAP2 SWAP1 PUSH1 0x1 ADD SWAP1 PUSH2 0x57D JUMP JUMPDEST JUMPDEST POP SWAP1 POP PUSH2 0x5A6 SWAP2 SWAP1 PUSH2 0x5AA JUMP JUMPDEST POP SWAP1 JUMP JUMPDEST JUMPDEST DUP1 DUP3 GT ISZERO PUSH2 0x5C3 JUMPI PUSH1 0x0 DUP2 PUSH1 0x0 SWAP1 SSTORE POP PUSH1 0x1 ADD PUSH2 0x5AB JUMP JUMPDEST POP SWAP1 JUMP JUMPDEST PUSH1 0x0 PUSH2 0x5DA PUSH2 0x5D5 DUP5 PUSH2 0x8D3 JUMP JUMPDEST PUSH2 0x8AE JUMP JUMPDEST SWAP1 POP DUP3 DUP2 MSTORE PUSH1 0x20 DUP2 ADD DUP5 DUP5 DUP5 ADD GT ISZERO PUSH2 0x5F6 JUMPI PUSH2 0x5F5 PUSH2 0xA64 JUMP JUMPDEST JUMPDEST PUSH2 0x601 DUP5 DUP3 DUP6 PUSH2 0x95C JUMP JUMPDEST POP SWAP4 SWAP3 POP POP POP JUMP JUMPDEST PUSH1 0x0 DUP3 PUSH1 0x1F DUP4 ADD SLT PUSH2 0x61E JUMPI PUSH2 0x61D PUSH2 0xA5F JUMP JUMPDEST JUMPDEST DUP2 CALLDATALOAD PUSH2 0x62E DUP5 DUP3 PUSH1 0x20 DUP7 ADD PUSH2 0x5C7 JUMP JUMPDEST SWAP2 POP POP SWAP3 SWAP2 POP POP JUMP JUMPDEST PUSH1 0x0 DUP2 CALLDATALOAD SWAP1 POP PUSH2 0x646 DUP2 PUSH2 0xA84 JUMP JUMPDEST SWAP3 SWAP2 POP POP JUMP JUMPDEST PUSH1 0x0 PUSH1 0x20 DUP3 DUP5 SUB SLT ISZERO PUSH2 0x662 JUMPI PUSH2 0x661 PUSH2 0xA6E JUMP JUMPDEST JUMPDEST PUSH1 0x0 PUSH2 0x670 DUP5 DUP3 DUP6 ADD PUSH2 0x637 JUMP JUMPDEST SWAP2 POP POP SWAP3 SWAP2 POP POP JUMP JUMPDEST PUSH1 0x0 DUP1 PUSH1 0x40 DUP4 DUP6 SUB SLT ISZERO PUSH2 0x690 JUMPI PUSH2 0x68F PUSH2 0xA6E JUMP JUMPDEST JUMPDEST PUSH1 0x0 PUSH2 0x69E DUP6 DUP3 DUP7 ADD PUSH2 0x637 JUMP JUMPDEST SWAP3 POP POP PUSH1 0x20 DUP4 ADD CALLDATALOAD PUSH8 0xFFFFFFFFFFFFFFFF DUP2 GT ISZERO PUSH2 0x6BF JUMPI PUSH2 0x6BE PUSH2 0xA69 JUMP JUMPDEST JUMPDEST PUSH2 0x6CB DUP6 DUP3 DUP7 ADD PUSH2 0x609 JUMP JUMPDEST SWAP2 POP POP SWAP3 POP SWAP3 SWAP1 POP JUMP JUMPDEST PUSH1 0x0 DUP1 PUSH1 0x0 DUP1 PUSH1 0x0 PUSH1 0xA0 DUP7 DUP9 SUB SLT ISZERO PUSH2 0x6F1 JUMPI PUSH2 0x6F0 PUSH2 0xA6E JUMP JUMPDEST JUMPDEST PUSH1 0x0 PUSH2 0x6FF DUP9 DUP3 DUP10 ADD PUSH2 0x637 JUMP JUMPDEST SWAP6 POP POP PUSH1 0x20 DUP7 ADD CALLDATALOAD PUSH8 0xFFFFFFFFFFFFFFFF DUP2 GT ISZERO PUSH2 0x720 JUMPI PUSH2 0x71F PUSH2 0xA69 JUMP JUMPDEST JUMPDEST PUSH2 0x72C DUP9 DUP3 DUP10 ADD PUSH2 0x609 JUMP JUMPDEST SWAP5 POP POP PUSH1 0x40 DUP7 ADD CALLDATALOAD PUSH8 0xFFFFFFFFFFFFFFFF DUP2 GT ISZERO PUSH2 0x74D JUMPI PUSH2 0x74C PUSH2 0xA69 JUMP JUMPDEST JUMPDEST PUSH2 0x759 DUP9 DUP3 DUP10 ADD PUSH2 0x609 JUMP JUMPDEST SWAP4 POP POP PUSH1 0x60 PUSH2 0x76A DUP9 DUP3 DUP10 ADD PUSH2 0x637 JUMP JUMPDEST SWAP3 POP POP PUSH1 0x80 PUSH2 0x77B DUP9 DUP3 DUP10 ADD PUSH2 0x637 JUMP JUMPDEST SWAP2 POP POP SWAP3 SWAP6 POP SWAP3 SWAP6 SWAP1 SWAP4 POP JUMP JUMPDEST PUSH2 0x791 DUP2 PUSH2 0x920 JUMP JUMPDEST DUP3 MSTORE POP POP JUMP JUMPDEST PUSH1 0x0 PUSH2 0x7A2 DUP3 PUSH2 0x904 JUMP JUMPDEST PUSH2 0x7AC DUP2 DUP6 PUSH2 0x90F JUMP JUMPDEST SWAP4 POP PUSH2 0x7BC DUP2 DUP6 PUSH1 0x20 DUP7 ADD PUSH2 0x96B JUMP JUMPDEST PUSH2 0x7C5 DUP2 PUSH2 0xA73 JUMP JUMPDEST DUP5 ADD SWAP2 POP POP SWAP3 SWAP2 POP POP JUMP JUMPDEST PUSH2 0x7D9 DUP2 PUSH2 0x952 JUMP JUMPDEST DUP3 MSTORE POP POP JUMP JUMPDEST PUSH1 0x0 PUSH1 0x20 DUP3 ADD SWAP1 POP PUSH2 0x7F4 PUSH1 0x0 DUP4 ADD DUP5 PUSH2 0x788 JUMP JUMPDEST SWAP3 SWAP2 POP POP JUMP JUMPDEST PUSH1 0x0 PUSH1 0x80 DUP3 ADD SWAP1 POP DUP2 DUP2 SUB PUSH1 0x0 DUP4 ADD MSTORE PUSH2 0x814 DUP2 DUP8 PUSH2 0x797 JUMP JUMPDEST SWAP1 POP DUP2 DUP2 SUB PUSH1 0x20 DUP4 ADD MSTORE PUSH2 0x828 DUP2 DUP7 PUSH2 0x797 JUMP JUMPDEST SWAP1 POP PUSH2 0x837 PUSH1 0x40 DUP4 ADD DUP6 PUSH2 0x7D0 JUMP JUMPDEST PUSH2 0x844 PUSH1 0x60 DUP4 ADD DUP5 PUSH2 0x7D0 JUMP JUMPDEST SWAP6 SWAP5 POP POP POP POP POP JUMP JUMPDEST PUSH1 0x0 PUSH1 0xA0 DUP3 ADD SWAP1 POP PUSH2 0x862 PUSH1 0x0 DUP4 ADD DUP9 PUSH2 0x7D0 JUMP JUMPDEST DUP2 DUP2 SUB PUSH1 0x20 DUP4 ADD MSTORE PUSH2 0x874 DUP2 DUP8 PUSH2 0x797 JUMP JUMPDEST SWAP1 POP DUP2 DUP2 SUB PUSH1 0x40 DUP4 ADD MSTORE PUSH2 0x888 DUP2 DUP7 PUSH2 0x797 JUMP JUMPDEST SWAP1 POP PUSH2 0x897 PUSH1 0x60 DUP4 ADD DUP6 PUSH2 0x7D0 JUMP JUMPDEST PUSH2 0x8A4 PUSH1 0x80 DUP4 ADD DUP5 PUSH2 0x7D0 JUMP JUMPDEST SWAP7 SWAP6 POP POP POP POP POP POP JUMP JUMPDEST PUSH1 0x0 PUSH2 0x8B8 PUSH2 0x8C9 JUMP JUMPDEST SWAP1 POP PUSH2 0x8C4 DUP3 DUP3 PUSH2 0x9D0 JUMP JUMPDEST SWAP2 SWAP1 POP JUMP JUMPDEST PUSH1 0x0 PUSH1 0x40 MLOAD SWAP1 POP SWAP1 JUMP JUMPDEST PUSH1 0x0 PUSH8 0xFFFFFFFFFFFFFFFF DUP3 GT ISZERO PUSH2 0x8EE JUMPI PUSH2 0x8ED PUSH2 0xA30 JUMP JUMPDEST JUMPDEST PUSH2 0x8F7 DUP3 PUSH2 0xA73 JUMP JUMPDEST SWAP1 POP PUSH1 0x20 DUP2 ADD SWAP1 POP SWAP2 SWAP1 POP JUMP JUMPDEST PUSH1 0x0 DUP2 MLOAD SWAP1 POP SWAP2 SWAP1 POP JUMP JUMPDEST PUSH1 0x0 DUP3 DUP3 MSTORE PUSH1 0x20 DUP3 ADD SWAP1 POP SWAP3 SWAP2 POP POP JUMP JUMPDEST PUSH1 0x0 PUSH2 0x92B DUP3 PUSH2 0x932 JUMP JUMPDEST SWAP1 POP SWAP2 SWAP1 POP JUMP JUMPDEST PUSH1 0x0 PUSH20 0xFFFFFFFFFFFFFFFFFFFFFFFFFFFFFFFFFFFFFFFF DUP3 AND SWAP1 POP SWAP2 SWAP1 POP JUMP JUMPDEST PUSH1 0x0 DUP2 SWAP1 POP SWAP2 SWAP1 POP JUMP JUMPDEST DUP3 DUP2 DUP4 CALLDATACOPY PUSH1 0x0 DUP4 DUP4 ADD MSTORE POP POP POP JUMP JUMPDEST PUSH1 0x0 JUMPDEST DUP4 DUP2 LT ISZERO PUSH2 0x989 JUMPI DUP1 DUP3 ADD MLOAD DUP2 DUP5 ADD MSTORE PUSH1 0x20 DUP2 ADD SWAP1 POP PUSH2 0x96E JUMP JUMPDEST DUP4 DUP2 GT ISZERO PUSH2 0x998 JUMPI PUSH1 0x0 DUP5 DUP5 ADD MSTORE JUMPDEST POP POP POP POP JUMP JUMPDEST PUSH1 0x0 PUSH1 0x2 DUP3 DIV SWAP1 POP PUSH1 0x1 DUP3 AND DUP1 PUSH2 0x9B6 JUMPI PUSH1 0x7F DUP3 AND SWAP2 POP JUMPDEST PUSH1 0x20 DUP3 LT DUP2 EQ ISZERO PUSH2 0x9CA JUMPI PUSH2 0x9C9 PUSH2 0xA01 JUMP JUMPDEST JUMPDEST POP SWAP2 SWAP1 POP JUMP JUMPDEST PUSH2 0x9D9 DUP3 PUSH2 0xA73 JUMP JUMPDEST DUP2 ADD DUP2 DUP2 LT PUSH8 0xFFFFFFFFFFFFFFFF DUP3 GT OR ISZERO PUSH2 0x9F8 JUMPI PUSH2 0x9F7 PUSH2 0xA30 JUMP JUMPDEST JUMPDEST DUP1 PUSH1 0x40 MSTORE POP POP POP JUMP JUMPDEST PUSH32 0x4E487B7100000000000000000000000000000000000000000000000000000000 PUSH1 0x0 MSTORE PUSH1 0x22 PUSH1 0x4 MSTORE PUSH1 0x24 PUSH1 0x0 REVERT JUMPDEST PUSH32 0x4E487B7100000000000000000000000000000000000000000000000000000000 PUSH1 0x0 MSTORE PUSH1 0x41 PUSH1 0x4 MSTORE PUSH1 0x24 PUSH1 0x0 REVERT JUMPDEST PUSH1 0x0 DUP1 REVERT JUMPDEST PUSH1 0x0 DUP1 REVERT JUMPDEST PUSH1 0x0 DUP1 REVERT JUMPDEST PUSH1 0x0 DUP1 REVERT JUMPDEST PUSH1 0x0 PUSH1 0x1F NOT PUSH1 0x1F DUP4 ADD AND SWAP1 POP SWAP2 SWAP1 POP JUMP JUMPDEST PUSH2 0xA8D DUP2 PUSH2 0x952 JUMP JUMPDEST DUP2 EQ PUSH2 0xA98 JUMPI PUSH1 0x0 DUP1 REVERT JUMPDEST POP JUMP INVALID LOG2 PUSH5 0x6970667358 0x22 SLT KECCAK256 0xE2 DUP1 PUSH14 0xDCCF01498A9E61C810831E23AB3D 0xDE 0xEE PUSH1 0x8D 0x4F DUP2 PUSH6 0xF6F50FCCF2AC 0xA6 LOG4 PUSH5 0x736F6C6343 STOP ADDMOD SMOD STOP CALLER "
				},
				"gasEstimates": {
					"creation": {
						"codeDepositCost": "553800",
						"executionCost": "24853",
						"totalCost": "578653"
					},
					"external": {
						"addProperty(uint256,string,string,uint256,uint256)": "infinite",
						"contractOwner()": "2555",
						"properties(uint256)": "infinite",
						"queryPropertyById(uint256)": "infinite",
						"transferPropertyOwnership(uint256,string)": "infinite"
					}
				},
				"methodIdentifiers": {
					"addProperty(uint256,string,string,uint256,uint256)": "5cdc648e",
					"contractOwner()": "ce606ee0",
					"properties(uint256)": "f7b10808",
					"queryPropertyById(uint256)": "22f782bd",
					"transferPropertyOwnership(uint256,string)": "7ae59b01"
				}
			},
			"storageLayout": {
				"storage": [
					{
						"astId": 3,
						"contract": "contracts/PropertyTransferApp.sol:PropertyTransferApp",
						"label": "contractOwner",
						"offset": 0,
						"slot": "0",
						"type": "t_address"
					},
					{
						"astId": 39,
						"contract": "contracts/PropertyTransferApp.sol:PropertyTransferApp",
						"label": "properties",
						"offset": 0,
						"slot": "1",
						"type": "t_mapping(t_uint256,t_struct(Property)34_storage)"
					}
				],
				"types": {
					"t_address": {
						"encoding": "inplace",
						"label": "address",
						"numberOfBytes": "20"
					},
					"t_mapping(t_uint256,t_struct(Property)34_storage)": {
						"encoding": "mapping",
						"key": "t_uint256",
						"label": "mapping(uint256 => struct PropertyTransferApp.Property)",
						"numberOfBytes": "32",
						"value": "t_struct(Property)34_storage"
					},
					"t_string_storage": {
						"encoding": "bytes",
						"label": "string",
						"numberOfBytes": "32"
					},
					"t_struct(Property)34_storage": {
						"encoding": "inplace",
						"label": "struct PropertyTransferApp.Property",
						"members": [
							{
								"astId": 25,
								"contract": "contracts/PropertyTransferApp.sol:PropertyTransferApp",
								"label": "id",
								"offset": 0,
								"slot": "0",
								"type": "t_uint256"
							},
							{
								"astId": 27,
								"contract": "contracts/PropertyTransferApp.sol:PropertyTransferApp",
								"label": "name",
								"offset": 0,
								"slot": "1",
								"type": "t_string_storage"
							},
							{
								"astId": 29,
								"contract": "contracts/PropertyTransferApp.sol:PropertyTransferApp",
								"label": "owner",
								"offset": 0,
								"slot": "2",
								"type": "t_string_storage"
							},
							{
								"astId": 31,
								"contract": "contracts/PropertyTransferApp.sol:PropertyTransferApp",
								"label": "value",
								"offset": 0,
								"slot": "3",
								"type": "t_uint256"
							},
							{
								"astId": 33,
								"contract": "contracts/PropertyTransferApp.sol:PropertyTransferApp",
								"label": "area",
								"offset": 0,
								"slot": "4",
								"type": "t_uint256"
							}
						],
						"numberOfBytes": "160"
					},
					"t_uint256": {
						"encoding": "inplace",
						"label": "uint256",
						"numberOfBytes": "32"
					}
				}
			},
			"userdoc": {
				"kind": "user",
				"methods": {},
				"version": 1
			}
		}
	}
}