{
	"contracts/CollegeTracker.sol": {
		"COllegeTracker": {
			"abi": [
				{
					"inputs": [],
					"stateMutability": "nonpayable",
					"type": "constructor"
				},
				{
					"inputs": [
						{
							"internalType": "string",
							"name": "_collegeName",
							"type": "string"
						},
						{
							"internalType": "string",
							"name": "_regNo",
							"type": "string"
						},
						{
							"internalType": "address",
							"name": "_collegeAddress",
							"type": "address"
						}
					],
					"name": "addNewCollege",
					"outputs": [],
					"stateMutability": "nonpayable",
					"type": "function"
				},
				{
					"inputs": [
						{
							"internalType": "address",
							"name": "_collegeAddress",
							"type": "address"
						},
						{
							"internalType": "string",
							"name": "_studentName",
							"type": "string"
						},
						{
							"internalType": "string",
							"name": "_phoneNo",
							"type": "string"
						},
						{
							"internalType": "string",
							"name": "_courseName",
							"type": "string"
						}
					],
					"name": "addNewStudent",
					"outputs": [],
					"stateMutability": "nonpayable",
					"type": "function"
				},
				{
					"inputs": [
						{
							"internalType": "address",
							"name": "_collegeAddress",
							"type": "address"
						}
					],
					"name": "allowCollegeAddingNewStudents",
					"outputs": [],
					"stateMutability": "nonpayable",
					"type": "function"
				},
				{
					"inputs": [
						{
							"internalType": "address",
							"name": "_collegeAddress",
							"type": "address"
						}
					],
					"name": "blockCollegeAddingNewStudents",
					"outputs": [],
					"stateMutability": "nonpayable",
					"type": "function"
				},
				{
					"inputs": [
						{
							"internalType": "address",
							"name": "_collegeAddress",
							"type": "address"
						},
						{
							"internalType": "string",
							"name": "_studentName",
							"type": "string"
						},
						{
							"internalType": "string",
							"name": "_newCourseName",
							"type": "string"
						}
					],
					"name": "changeStudentCourse",
					"outputs": [],
					"stateMutability": "nonpayable",
					"type": "function"
				},
				{
					"inputs": [
						{
							"internalType": "address",
							"name": "_collegeAddress",
							"type": "address"
						}
					],
					"name": "getCollegeDetails",
					"outputs": [
						{
							"internalType": "string",
							"name": "collegeName",
							"type": "string"
						},
						{
							"internalType": "string",
							"name": "registrationNo",
							"type": "string"
						},
						{
							"internalType": "bool",
							"name": "addStudentPrivilege",
							"type": "bool"
						},
						{
							"internalType": "uint8",
							"name": "noOfStudents",
							"type": "uint8"
						}
					],
					"stateMutability": "view",
					"type": "function"
				},
				{
					"inputs": [
						{
							"internalType": "string",
							"name": "_studentName",
							"type": "string"
						}
					],
					"name": "getStudentDetails",
					"outputs": [
						{
							"internalType": "string",
							"name": "studentName",
							"type": "string"
						},
						{
							"internalType": "string",
							"name": "courseName",
							"type": "string"
						},
						{
							"internalType": "string",
							"name": "phoneNo",
							"type": "string"
						}
					],
					"stateMutability": "view",
					"type": "function"
				}
			],
			"devdoc": {
				"kind": "dev",
				"methods": {},
				"version": 1
			},
			"evm": {
				"assembly": "    /* \"contracts/CollegeTracker.sol\":57:4195  contract COllegeTracker{... */\n  mstore(0x40, 0x80)\n    /* \"contracts/CollegeTracker.sol\":118:179  constructor() {... */\n  callvalue\n  dup1\n  iszero\n  tag_1\n  jumpi\n  0x00\n  dup1\n  revert\ntag_1:\n  pop\n    /* \"contracts/CollegeTracker.sol\":162:172  msg.sender */\n  caller\n    /* \"contracts/CollegeTracker.sol\":142:159  universityAddress */\n  0x00\n  dup1\n    /* \"contracts/CollegeTracker.sol\":142:172  universityAddress = msg.sender */\n  0x0100\n  exp\n  dup2\n  sload\n  dup2\n  0xffffffffffffffffffffffffffffffffffffffff\n  mul\n  not\n  and\n  swap1\n  dup4\n  0xffffffffffffffffffffffffffffffffffffffff\n  and\n  mul\n  or\n  swap1\n  sstore\n  pop\n    /* \"contracts/CollegeTracker.sol\":57:4195  contract COllegeTracker{... */\n  dataSize(sub_0)\n  dup1\n  dataOffset(sub_0)\n  0x00\n  codecopy\n  0x00\n  return\nstop\n\nsub_0: assembly {\n        /* \"contracts/CollegeTracker.sol\":57:4195  contract COllegeTracker{... */\n      mstore(0x40, 0x80)\n      callvalue\n      dup1\n      iszero\n      tag_1\n      jumpi\n      0x00\n      dup1\n      revert\n    tag_1:\n      pop\n      jumpi(tag_2, lt(calldatasize, 0x04))\n      shr(0xe0, calldataload(0x00))\n      dup1\n      0x8805f0f4\n      gt\n      tag_10\n      jumpi\n      dup1\n      0x8805f0f4\n      eq\n      tag_6\n      jumpi\n      dup1\n      0xb6b8ab99\n      eq\n      tag_7\n      jumpi\n      dup1\n      0xe05cd31c\n      eq\n      tag_8\n      jumpi\n      dup1\n      0xf86b0b76\n      eq\n      tag_9\n      jumpi\n      jump(tag_2)\n    tag_10:\n      dup1\n      0x18ab022f\n      eq\n      tag_3\n      jumpi\n      dup1\n      0x52dc8f7c\n      eq\n      tag_4\n      jumpi\n      dup1\n      0x7f3e1e82\n      eq\n      tag_5\n      jumpi\n    tag_2:\n      0x00\n      dup1\n      revert\n        /* \"contracts/CollegeTracker.sol\":2389:2549  function blockCollegeAddingNewStudents(address _collegeAddress) public OnlyUniversityAdmin{... */\n    tag_3:\n      tag_11\n      0x04\n      dup1\n      calldatasize\n      sub\n      dup2\n      add\n      swap1\n      tag_12\n      swap2\n      swap1\n      tag_13\n      jump\t// in\n    tag_12:\n      tag_14\n      jump\t// in\n    tag_11:\n      stop\n        /* \"contracts/CollegeTracker.sol\":1893:2379  function getCollegeDetails(address _collegeAddress) ... */\n    tag_4:\n      tag_15\n      0x04\n      dup1\n      calldatasize\n      sub\n      dup2\n      add\n      swap1\n      tag_16\n      swap2\n      swap1\n      tag_13\n      jump\t// in\n    tag_16:\n      tag_17\n      jump\t// in\n    tag_15:\n      mload(0x40)\n      tag_18\n      swap5\n      swap4\n      swap3\n      swap2\n      swap1\n      tag_19\n      jump\t// in\n    tag_18:\n      mload(0x40)\n      dup1\n      swap2\n      sub\n      swap1\n      return\n        /* \"contracts/CollegeTracker.sol\":2721:3335  function addNewStudent(... */\n    tag_5:\n      tag_20\n      0x04\n      dup1\n      calldatasize\n      sub\n      dup2\n      add\n      swap1\n      tag_21\n      swap2\n      swap1\n      tag_22\n      jump\t// in\n    tag_21:\n      tag_23\n      jump\t// in\n    tag_20:\n      stop\n        /* \"contracts/CollegeTracker.sol\":3776:4193  function getStudentDetails(string memory _studentName) ... */\n    tag_6:\n      tag_24\n      0x04\n      dup1\n      calldatasize\n      sub\n      dup2\n      add\n      swap1\n      tag_25\n      swap2\n      swap1\n      tag_26\n      jump\t// in\n    tag_25:\n      tag_27\n      jump\t// in\n    tag_24:\n      mload(0x40)\n      tag_28\n      swap4\n      swap3\n      swap2\n      swap1\n      tag_29\n      jump\t// in\n    tag_28:\n      mload(0x40)\n      dup1\n      swap2\n      sub\n      swap1\n      return\n        /* \"contracts/CollegeTracker.sol\":2556:2715  function allowCollegeAddingNewStudents(address _collegeAddress) public OnlyUniversityAdmin{... */\n    tag_7:\n      tag_30\n      0x04\n      dup1\n      calldatasize\n      sub\n      dup2\n      add\n      swap1\n      tag_31\n      swap2\n      swap1\n      tag_13\n      jump\t// in\n    tag_31:\n      tag_32\n      jump\t// in\n    tag_30:\n      stop\n        /* \"contracts/CollegeTracker.sol\":1485:1887  function addNewCollege(... */\n    tag_8:\n      tag_33\n      0x04\n      dup1\n      calldatasize\n      sub\n      dup2\n      add\n      swap1\n      tag_34\n      swap2\n      swap1\n      tag_35\n      jump\t// in\n    tag_34:\n      tag_36\n      jump\t// in\n    tag_33:\n      stop\n        /* \"contracts/CollegeTracker.sol\":3341:3770  function changeStudentCourse(... */\n    tag_9:\n      tag_37\n      0x04\n      dup1\n      calldatasize\n      sub\n      dup2\n      add\n      swap1\n      tag_38\n      swap2\n      swap1\n      tag_39\n      jump\t// in\n    tag_38:\n      tag_40\n      jump\t// in\n    tag_37:\n      stop\n        /* \"contracts/CollegeTracker.sol\":2389:2549  function blockCollegeAddingNewStudents(address _collegeAddress) public OnlyUniversityAdmin{... */\n    tag_14:\n        /* \"contracts/CollegeTracker.sol\":670:687  universityAddress */\n      0x00\n      dup1\n      sload\n      swap1\n      0x0100\n      exp\n      swap1\n      div\n      0xffffffffffffffffffffffffffffffffffffffff\n      and\n        /* \"contracts/CollegeTracker.sol\":656:687  msg.sender == universityAddress */\n      0xffffffffffffffffffffffffffffffffffffffff\n      and\n        /* \"contracts/CollegeTracker.sol\":656:666  msg.sender */\n      caller\n        /* \"contracts/CollegeTracker.sol\":656:687  msg.sender == universityAddress */\n      0xffffffffffffffffffffffffffffffffffffffff\n      and\n      eq\n        /* \"contracts/CollegeTracker.sol\":635:759  require(... */\n      tag_42\n      jumpi\n      mload(0x40)\n      0x08c379a000000000000000000000000000000000000000000000000000000000\n      dup2\n      mstore\n      0x04\n      add\n      tag_43\n      swap1\n      tag_44\n      jump\t// in\n    tag_43:\n      mload(0x40)\n      dup1\n      swap2\n      sub\n      swap1\n      revert\n    tag_42:\n        /* \"contracts/CollegeTracker.sol\":2537:2542  false */\n      0x00\n        /* \"contracts/CollegeTracker.sol\":2489:2497  colleges */\n      0x01\n        /* \"contracts/CollegeTracker.sol\":2489:2514  colleges[_collegeAddress] */\n      0x00\n        /* \"contracts/CollegeTracker.sol\":2498:2513  _collegeAddress */\n      dup4\n        /* \"contracts/CollegeTracker.sol\":2489:2514  colleges[_collegeAddress] */\n      0xffffffffffffffffffffffffffffffffffffffff\n      and\n      0xffffffffffffffffffffffffffffffffffffffff\n      and\n      dup2\n      mstore\n      0x20\n      add\n      swap1\n      dup2\n      mstore\n      0x20\n      add\n      0x00\n      keccak256\n        /* \"contracts/CollegeTracker.sol\":2489:2534  colleges[_collegeAddress].addStudentPrivilege */\n      0x04\n      add\n      0x00\n        /* \"contracts/CollegeTracker.sol\":2489:2542  colleges[_collegeAddress].addStudentPrivilege = false */\n      0x0100\n      exp\n      dup2\n      sload\n      dup2\n      0xff\n      mul\n      not\n      and\n      swap1\n      dup4\n      iszero\n      iszero\n      mul\n      or\n      swap1\n      sstore\n      pop\n        /* \"contracts/CollegeTracker.sol\":2389:2549  function blockCollegeAddingNewStudents(address _collegeAddress) public OnlyUniversityAdmin{... */\n      pop\n      jump\t// out\n        /* \"contracts/CollegeTracker.sol\":1893:2379  function getCollegeDetails(address _collegeAddress) ... */\n    tag_17:\n        /* \"contracts/CollegeTracker.sol\":2043:2068  string memory collegeName */\n      0x60\n        /* \"contracts/CollegeTracker.sol\":2070:2098  string memory registrationNo */\n      dup1\n        /* \"contracts/CollegeTracker.sol\":2100:2124  bool addStudentPrivilege */\n      0x00\n        /* \"contracts/CollegeTracker.sol\":2126:2144  uint8 noOfStudents */\n      dup1\n        /* \"contracts/CollegeTracker.sol\":2010:2025  _collegeAddress */\n      dup5\n        /* \"contracts/CollegeTracker.sol\":1093:1108  _collegeAddress */\n      dup1\n        /* \"contracts/CollegeTracker.sol\":1079:1108  msg.sender == _collegeAddress */\n      0xffffffffffffffffffffffffffffffffffffffff\n      and\n        /* \"contracts/CollegeTracker.sol\":1079:1089  msg.sender */\n      caller\n        /* \"contracts/CollegeTracker.sol\":1079:1108  msg.sender == _collegeAddress */\n      0xffffffffffffffffffffffffffffffffffffffff\n      and\n      eq\n        /* \"contracts/CollegeTracker.sol\":1079:1143  msg.sender == _collegeAddress || universityAddress == msg.sender */\n      dup1\n      tag_47\n      jumpi\n      pop\n        /* \"contracts/CollegeTracker.sol\":1133:1143  msg.sender */\n      caller\n        /* \"contracts/CollegeTracker.sol\":1112:1143  universityAddress == msg.sender */\n      0xffffffffffffffffffffffffffffffffffffffff\n      and\n        /* \"contracts/CollegeTracker.sol\":1112:1129  universityAddress */\n      0x00\n      dup1\n      sload\n      swap1\n      0x0100\n      exp\n      swap1\n      div\n      0xffffffffffffffffffffffffffffffffffffffff\n      and\n        /* \"contracts/CollegeTracker.sol\":1112:1143  universityAddress == msg.sender */\n      0xffffffffffffffffffffffffffffffffffffffff\n      and\n      eq\n        /* \"contracts/CollegeTracker.sol\":1079:1143  msg.sender == _collegeAddress || universityAddress == msg.sender */\n    tag_47:\n        /* \"contracts/CollegeTracker.sol\":1058:1231  require(... */\n      tag_48\n      jumpi\n      mload(0x40)\n      0x08c379a000000000000000000000000000000000000000000000000000000000\n      dup2\n      mstore\n      0x04\n      add\n      tag_49\n      swap1\n      tag_50\n      jump\t// in\n    tag_49:\n      mload(0x40)\n      dup1\n      swap2\n      sub\n      swap1\n      revert\n    tag_48:\n        /* \"contracts/CollegeTracker.sol\":2176:2184  colleges */\n      0x01\n        /* \"contracts/CollegeTracker.sol\":2176:2201  colleges[_collegeAddress] */\n      0x00\n        /* \"contracts/CollegeTracker.sol\":2185:2200  _collegeAddress */\n      dup8\n        /* \"contracts/CollegeTracker.sol\":2176:2201  colleges[_collegeAddress] */\n      0xffffffffffffffffffffffffffffffffffffffff\n      and\n      0xffffffffffffffffffffffffffffffffffffffff\n      and\n      dup2\n      mstore\n      0x20\n      add\n      swap1\n      dup2\n      mstore\n      0x20\n      add\n      0x00\n      keccak256\n        /* \"contracts/CollegeTracker.sol\":2176:2206  colleges[_collegeAddress].name */\n      0x00\n      add\n        /* \"contracts/CollegeTracker.sol\":2220:2228  colleges */\n      0x01\n        /* \"contracts/CollegeTracker.sol\":2220:2245  colleges[_collegeAddress] */\n      0x00\n        /* \"contracts/CollegeTracker.sol\":2229:2244  _collegeAddress */\n      dup9\n        /* \"contracts/CollegeTracker.sol\":2220:2245  colleges[_collegeAddress] */\n      0xffffffffffffffffffffffffffffffffffffffff\n      and\n      0xffffffffffffffffffffffffffffffffffffffff\n      and\n      dup2\n      mstore\n      0x20\n      add\n      swap1\n      dup2\n      mstore\n      0x20\n      add\n      0x00\n      keccak256\n        /* \"contracts/CollegeTracker.sol\":2220:2251  colleges[_collegeAddress].regNo */\n      0x03\n      add\n        /* \"contracts/CollegeTracker.sol\":2265:2273  colleges */\n      0x01\n        /* \"contracts/CollegeTracker.sol\":2265:2290  colleges[_collegeAddress] */\n      0x00\n        /* \"contracts/CollegeTracker.sol\":2274:2289  _collegeAddress */\n      dup10\n        /* \"contracts/CollegeTracker.sol\":2265:2290  colleges[_collegeAddress] */\n      0xffffffffffffffffffffffffffffffffffffffff\n      and\n      0xffffffffffffffffffffffffffffffffffffffff\n      and\n      dup2\n      mstore\n      0x20\n      add\n      swap1\n      dup2\n      mstore\n      0x20\n      add\n      0x00\n      keccak256\n        /* \"contracts/CollegeTracker.sol\":2265:2310  colleges[_collegeAddress].addStudentPrivilege */\n      0x04\n      add\n      0x00\n      swap1\n      sload\n      swap1\n      0x0100\n      exp\n      swap1\n      div\n      0xff\n      and\n        /* \"contracts/CollegeTracker.sol\":2324:2332  colleges */\n      0x01\n        /* \"contracts/CollegeTracker.sol\":2324:2349  colleges[_collegeAddress] */\n      0x00\n        /* \"contracts/CollegeTracker.sol\":2333:2348  _collegeAddress */\n      dup11\n        /* \"contracts/CollegeTracker.sol\":2324:2349  colleges[_collegeAddress] */\n      0xffffffffffffffffffffffffffffffffffffffff\n      and\n      0xffffffffffffffffffffffffffffffffffffffff\n      and\n      dup2\n      mstore\n      0x20\n      add\n      swap1\n      dup2\n      mstore\n      0x20\n      add\n      0x00\n      keccak256\n        /* \"contracts/CollegeTracker.sol\":2324:2362  colleges[_collegeAddress].noOfStudents */\n      0x04\n      add\n      0x01\n      swap1\n      sload\n      swap1\n      0x0100\n      exp\n      swap1\n      div\n      0xff\n      and\n        /* \"contracts/CollegeTracker.sol\":2155:2372  return (... */\n      dup4\n      dup1\n      sload\n      tag_52\n      swap1\n      tag_53\n      jump\t// in\n    tag_52:\n      dup1\n      0x1f\n      add\n      0x20\n      dup1\n      swap2\n      div\n      mul\n      0x20\n      add\n      mload(0x40)\n      swap1\n      dup2\n      add\n      0x40\n      mstore\n      dup1\n      swap3\n      swap2\n      swap1\n      dup2\n      dup2\n      mstore\n      0x20\n      add\n      dup3\n      dup1\n      sload\n      tag_54\n      swap1\n      tag_53\n      jump\t// in\n    tag_54:\n      dup1\n      iszero\n      tag_55\n      jumpi\n      dup1\n      0x1f\n      lt\n      tag_56\n      jumpi\n      0x0100\n      dup1\n      dup4\n      sload\n      div\n      mul\n      dup4\n      mstore\n      swap2\n      0x20\n      add\n      swap2\n      jump(tag_55)\n    tag_56:\n      dup3\n      add\n      swap2\n      swap1\n      0x00\n      mstore\n      keccak256(0x00, 0x20)\n      swap1\n    tag_57:\n      dup2\n      sload\n      dup2\n      mstore\n      swap1\n      0x01\n      add\n      swap1\n      0x20\n      add\n      dup1\n      dup4\n      gt\n      tag_57\n      jumpi\n      dup3\n      swap1\n      sub\n      0x1f\n      and\n      dup3\n      add\n      swap2\n    tag_55:\n      pop\n      pop\n      pop\n      pop\n      pop\n      swap4\n      pop\n      dup3\n      dup1\n      sload\n      tag_58\n      swap1\n      tag_53\n      jump\t// in\n    tag_58:\n      dup1\n      0x1f\n      add\n      0x20\n      dup1\n      swap2\n      div\n      mul\n      0x20\n      add\n      mload(0x40)\n      swap1\n      dup2\n      add\n      0x40\n      mstore\n      dup1\n      swap3\n      swap2\n      swap1\n      dup2\n      dup2\n      mstore\n      0x20\n      add\n      dup3\n      dup1\n      sload\n      tag_59\n      swap1\n      tag_53\n      jump\t// in\n    tag_59:\n      dup1\n      iszero\n      tag_60\n      jumpi\n      dup1\n      0x1f\n      lt\n      tag_61\n      jumpi\n      0x0100\n      dup1\n      dup4\n      sload\n      div\n      mul\n      dup4\n      mstore\n      swap2\n      0x20\n      add\n      swap2\n      jump(tag_60)\n    tag_61:\n      dup3\n      add\n      swap2\n      swap1\n      0x00\n      mstore\n      keccak256(0x00, 0x20)\n      swap1\n    tag_62:\n      dup2\n      sload\n      dup2\n      mstore\n      swap1\n      0x01\n      add\n      swap1\n      0x20\n      add\n      dup1\n      dup4\n      gt\n      tag_62\n      jumpi\n      dup3\n      swap1\n      sub\n      0x1f\n      and\n      dup3\n      add\n      swap2\n    tag_60:\n      pop\n      pop\n      pop\n      pop\n      pop\n      swap3\n      pop\n      swap5\n      pop\n      swap5\n      pop\n      swap5\n      pop\n      swap5\n      pop\n        /* \"contracts/CollegeTracker.sol\":1893:2379  function getCollegeDetails(address _collegeAddress) ... */\n      pop\n      swap2\n      swap4\n      pop\n      swap2\n      swap4\n      jump\t// out\n        /* \"contracts/CollegeTracker.sol\":2721:3335  function addNewStudent(... */\n    tag_23:\n        /* \"contracts/CollegeTracker.sol\":2920:2935  _collegeAddress */\n      dup4\n        /* \"contracts/CollegeTracker.sol\":1093:1108  _collegeAddress */\n      dup1\n        /* \"contracts/CollegeTracker.sol\":1079:1108  msg.sender == _collegeAddress */\n      0xffffffffffffffffffffffffffffffffffffffff\n      and\n        /* \"contracts/CollegeTracker.sol\":1079:1089  msg.sender */\n      caller\n        /* \"contracts/CollegeTracker.sol\":1079:1108  msg.sender == _collegeAddress */\n      0xffffffffffffffffffffffffffffffffffffffff\n      and\n      eq\n        /* \"contracts/CollegeTracker.sol\":1079:1143  msg.sender == _collegeAddress || universityAddress == msg.sender */\n      dup1\n      tag_64\n      jumpi\n      pop\n        /* \"contracts/CollegeTracker.sol\":1133:1143  msg.sender */\n      caller\n        /* \"contracts/CollegeTracker.sol\":1112:1143  universityAddress == msg.sender */\n      0xffffffffffffffffffffffffffffffffffffffff\n      and\n        /* \"contracts/CollegeTracker.sol\":1112:1129  universityAddress */\n      0x00\n      dup1\n      sload\n      swap1\n      0x0100\n      exp\n      swap1\n      div\n      0xffffffffffffffffffffffffffffffffffffffff\n      and\n        /* \"contracts/CollegeTracker.sol\":1112:1143  universityAddress == msg.sender */\n      0xffffffffffffffffffffffffffffffffffffffff\n      and\n      eq\n        /* \"contracts/CollegeTracker.sol\":1079:1143  msg.sender == _collegeAddress || universityAddress == msg.sender */\n    tag_64:\n        /* \"contracts/CollegeTracker.sol\":1058:1231  require(... */\n      tag_65\n      jumpi\n      mload(0x40)\n      0x08c379a000000000000000000000000000000000000000000000000000000000\n      dup2\n      mstore\n      0x04\n      add\n      tag_66\n      swap1\n      tag_50\n      jump\t// in\n    tag_66:\n      mload(0x40)\n      dup1\n      swap2\n      sub\n      swap1\n      revert\n    tag_65:\n        /* \"contracts/CollegeTracker.sol\":2971:2986  _collegeAddress */\n      dup5\n        /* \"contracts/CollegeTracker.sol\":1345:1353  colleges */\n      0x01\n        /* \"contracts/CollegeTracker.sol\":1345:1370  colleges[_collegeAddress] */\n      0x00\n        /* \"contracts/CollegeTracker.sol\":1354:1369  _collegeAddress */\n      dup3\n        /* \"contracts/CollegeTracker.sol\":1345:1370  colleges[_collegeAddress] */\n      0xffffffffffffffffffffffffffffffffffffffff\n      and\n      0xffffffffffffffffffffffffffffffffffffffff\n      and\n      dup2\n      mstore\n      0x20\n      add\n      swap1\n      dup2\n      mstore\n      0x20\n      add\n      0x00\n      keccak256\n        /* \"contracts/CollegeTracker.sol\":1345:1390  colleges[_collegeAddress].addStudentPrivilege */\n      0x04\n      add\n      0x00\n      swap1\n      sload\n      swap1\n      0x0100\n      exp\n      swap1\n      div\n      0xff\n      and\n        /* \"contracts/CollegeTracker.sol\":1324:1461  require(... */\n      tag_68\n      jumpi\n      mload(0x40)\n      0x08c379a000000000000000000000000000000000000000000000000000000000\n      dup2\n      mstore\n      0x04\n      add\n      tag_69\n      swap1\n      tag_70\n      jump\t// in\n    tag_69:\n      mload(0x40)\n      dup1\n      swap2\n      sub\n      swap1\n      revert\n    tag_68:\n        /* \"contracts/CollegeTracker.sol\":3051:3063  _studentName */\n      dup5\n        /* \"contracts/CollegeTracker.sol\":3021:3029  students */\n      0x02\n        /* \"contracts/CollegeTracker.sol\":3030:3042  _studentName */\n      dup7\n        /* \"contracts/CollegeTracker.sol\":3021:3043  students[_studentName] */\n      mload(0x40)\n      tag_72\n      swap2\n      swap1\n      tag_73\n      jump\t// in\n    tag_72:\n      swap1\n      dup2\n      mstore\n      0x20\n      add\n      mload(0x40)\n      dup1\n      swap2\n      sub\n      swap1\n      keccak256\n        /* \"contracts/CollegeTracker.sol\":3021:3048  students[_studentName].name */\n      0x01\n      add\n        /* \"contracts/CollegeTracker.sol\":3021:3063  students[_studentName].name = _studentName */\n      swap1\n      dup2\n      tag_74\n      swap2\n      swap1\n      tag_75\n      jump\t// in\n    tag_74:\n      pop\n        /* \"contracts/CollegeTracker.sol\":3113:3128  _collegeAddress */\n      dup6\n        /* \"contracts/CollegeTracker.sol\":3073:3081  students */\n      0x02\n        /* \"contracts/CollegeTracker.sol\":3082:3094  _studentName */\n      dup7\n        /* \"contracts/CollegeTracker.sol\":3073:3095  students[_studentName] */\n      mload(0x40)\n      tag_76\n      swap2\n      swap1\n      tag_73\n      jump\t// in\n    tag_76:\n      swap1\n      dup2\n      mstore\n      0x20\n      add\n      mload(0x40)\n      dup1\n      swap2\n      sub\n      swap1\n      keccak256\n        /* \"contracts/CollegeTracker.sol\":3073:3110  students[_studentName].collegeAddress */\n      0x00\n      add\n      0x00\n        /* \"contracts/CollegeTracker.sol\":3073:3128  students[_studentName].collegeAddress = _collegeAddress */\n      0x0100\n      exp\n      dup2\n      sload\n      dup2\n      0xffffffffffffffffffffffffffffffffffffffff\n      mul\n      not\n      and\n      swap1\n      dup4\n      0xffffffffffffffffffffffffffffffffffffffff\n      and\n      mul\n      or\n      swap1\n      sstore\n      pop\n        /* \"contracts/CollegeTracker.sol\":3171:3179  _phoneNo */\n      dup4\n        /* \"contracts/CollegeTracker.sol\":3138:3146  students */\n      0x02\n        /* \"contracts/CollegeTracker.sol\":3147:3159  _studentName */\n      dup7\n        /* \"contracts/CollegeTracker.sol\":3138:3160  students[_studentName] */\n      mload(0x40)\n      tag_77\n      swap2\n      swap1\n      tag_73\n      jump\t// in\n    tag_77:\n      swap1\n      dup2\n      mstore\n      0x20\n      add\n      mload(0x40)\n      dup1\n      swap2\n      sub\n      swap1\n      keccak256\n        /* \"contracts/CollegeTracker.sol\":3138:3168  students[_studentName].phoneNo */\n      0x02\n      add\n        /* \"contracts/CollegeTracker.sol\":3138:3179  students[_studentName].phoneNo = _phoneNo */\n      swap1\n      dup2\n      tag_78\n      swap2\n      swap1\n      tag_75\n      jump\t// in\n    tag_78:\n      pop\n        /* \"contracts/CollegeTracker.sol\":3225:3236  _courseName */\n      dup3\n        /* \"contracts/CollegeTracker.sol\":3189:3197  students */\n      0x02\n        /* \"contracts/CollegeTracker.sol\":3198:3210  _studentName */\n      dup7\n        /* \"contracts/CollegeTracker.sol\":3189:3211  students[_studentName] */\n      mload(0x40)\n      tag_79\n      swap2\n      swap1\n      tag_73\n      jump\t// in\n    tag_79:\n      swap1\n      dup2\n      mstore\n      0x20\n      add\n      mload(0x40)\n      dup1\n      swap2\n      sub\n      swap1\n      keccak256\n        /* \"contracts/CollegeTracker.sol\":3189:3222  students[_studentName].courseName */\n      0x03\n      add\n        /* \"contracts/CollegeTracker.sol\":3189:3236  students[_studentName].courseName = _courseName */\n      swap1\n      dup2\n      tag_80\n      swap2\n      swap1\n      tag_75\n      jump\t// in\n    tag_80:\n      pop\n        /* \"contracts/CollegeTracker.sol\":3327:3328  1 */\n      0x01\n        /* \"contracts/CollegeTracker.sol\":3288:3296  colleges */\n      dup1\n        /* \"contracts/CollegeTracker.sol\":3288:3313  colleges[_collegeAddress] */\n      0x00\n        /* \"contracts/CollegeTracker.sol\":3297:3312  _collegeAddress */\n      dup9\n        /* \"contracts/CollegeTracker.sol\":3288:3313  colleges[_collegeAddress] */\n      0xffffffffffffffffffffffffffffffffffffffff\n      and\n      0xffffffffffffffffffffffffffffffffffffffff\n      and\n      dup2\n      mstore\n      0x20\n      add\n      swap1\n      dup2\n      mstore\n      0x20\n      add\n      0x00\n      keccak256\n        /* \"contracts/CollegeTracker.sol\":3288:3326  colleges[_collegeAddress].noOfStudents */\n      0x04\n      add\n      0x01\n      swap1\n      sload\n      swap1\n      0x0100\n      exp\n      swap1\n      div\n      0xff\n      and\n        /* \"contracts/CollegeTracker.sol\":3288:3328  colleges[_collegeAddress].noOfStudents+1 */\n      tag_81\n      swap2\n      swap1\n      tag_82\n      jump\t// in\n    tag_81:\n        /* \"contracts/CollegeTracker.sol\":3247:3255  colleges */\n      0x01\n        /* \"contracts/CollegeTracker.sol\":3247:3272  colleges[_collegeAddress] */\n      0x00\n        /* \"contracts/CollegeTracker.sol\":3256:3271  _collegeAddress */\n      dup9\n        /* \"contracts/CollegeTracker.sol\":3247:3272  colleges[_collegeAddress] */\n      0xffffffffffffffffffffffffffffffffffffffff\n      and\n      0xffffffffffffffffffffffffffffffffffffffff\n      and\n      dup2\n      mstore\n      0x20\n      add\n      swap1\n      dup2\n      mstore\n      0x20\n      add\n      0x00\n      keccak256\n        /* \"contracts/CollegeTracker.sol\":3247:3285  colleges[_collegeAddress].noOfStudents */\n      0x04\n      add\n      0x01\n        /* \"contracts/CollegeTracker.sol\":3247:3328  colleges[_collegeAddress].noOfStudents = colleges[_collegeAddress].noOfStudents+1 */\n      0x0100\n      exp\n      dup2\n      sload\n      dup2\n      0xff\n      mul\n      not\n      and\n      swap1\n      dup4\n      0xff\n      and\n      mul\n      or\n      swap1\n      sstore\n      pop\n        /* \"contracts/CollegeTracker.sol\":1241:1242  _ */\n      pop\n        /* \"contracts/CollegeTracker.sol\":2721:3335  function addNewStudent(... */\n      pop\n      pop\n      pop\n      pop\n      pop\n      jump\t// out\n        /* \"contracts/CollegeTracker.sol\":3776:4193  function getStudentDetails(string memory _studentName) ... */\n    tag_27:\n        /* \"contracts/CollegeTracker.sol\":3952:3977  string memory studentName */\n      0x60\n        /* \"contracts/CollegeTracker.sol\":3979:4003  string memory courseName */\n      dup1\n        /* \"contracts/CollegeTracker.sol\":4005:4026  string memory phoneNo */\n      0x60\n        /* \"contracts/CollegeTracker.sol\":3897:3905  students */\n      0x02\n        /* \"contracts/CollegeTracker.sol\":3906:3918  _studentName */\n      dup5\n        /* \"contracts/CollegeTracker.sol\":3897:3919  students[_studentName] */\n      mload(0x40)\n      tag_83\n      swap2\n      swap1\n      tag_73\n      jump\t// in\n    tag_83:\n      swap1\n      dup2\n      mstore\n      0x20\n      add\n      mload(0x40)\n      dup1\n      swap2\n      sub\n      swap1\n      keccak256\n        /* \"contracts/CollegeTracker.sol\":3897:3934  students[_studentName].collegeAddress */\n      0x00\n      add\n      0x00\n      swap1\n      sload\n      swap1\n      0x0100\n      exp\n      swap1\n      div\n      0xffffffffffffffffffffffffffffffffffffffff\n      and\n        /* \"contracts/CollegeTracker.sol\":1093:1108  _collegeAddress */\n      dup1\n        /* \"contracts/CollegeTracker.sol\":1079:1108  msg.sender == _collegeAddress */\n      0xffffffffffffffffffffffffffffffffffffffff\n      and\n        /* \"contracts/CollegeTracker.sol\":1079:1089  msg.sender */\n      caller\n        /* \"contracts/CollegeTracker.sol\":1079:1108  msg.sender == _collegeAddress */\n      0xffffffffffffffffffffffffffffffffffffffff\n      and\n      eq\n        /* \"contracts/CollegeTracker.sol\":1079:1143  msg.sender == _collegeAddress || universityAddress == msg.sender */\n      dup1\n      tag_85\n      jumpi\n      pop\n        /* \"contracts/CollegeTracker.sol\":1133:1143  msg.sender */\n      caller\n        /* \"contracts/CollegeTracker.sol\":1112:1143  universityAddress == msg.sender */\n      0xffffffffffffffffffffffffffffffffffffffff\n      and\n        /* \"contracts/CollegeTracker.sol\":1112:1129  universityAddress */\n      0x00\n      dup1\n      sload\n      swap1\n      0x0100\n      exp\n      swap1\n      div\n      0xffffffffffffffffffffffffffffffffffffffff\n      and\n        /* \"contracts/CollegeTracker.sol\":1112:1143  universityAddress == msg.sender */\n      0xffffffffffffffffffffffffffffffffffffffff\n      and\n      eq\n        /* \"contracts/CollegeTracker.sol\":1079:1143  msg.sender == _collegeAddress || universityAddress == msg.sender */\n    tag_85:\n        /* \"contracts/CollegeTracker.sol\":1058:1231  require(... */\n      tag_86\n      jumpi\n      mload(0x40)\n      0x08c379a000000000000000000000000000000000000000000000000000000000\n      dup2\n      mstore\n      0x04\n      add\n      tag_87\n      swap1\n      tag_50\n      jump\t// in\n    tag_87:\n      mload(0x40)\n      dup1\n      swap2\n      sub\n      swap1\n      revert\n    tag_86:\n        /* \"contracts/CollegeTracker.sol\":4058:4066  students */\n      0x02\n        /* \"contracts/CollegeTracker.sol\":4067:4079  _studentName */\n      dup6\n        /* \"contracts/CollegeTracker.sol\":4058:4080  students[_studentName] */\n      mload(0x40)\n      tag_89\n      swap2\n      swap1\n      tag_73\n      jump\t// in\n    tag_89:\n      swap1\n      dup2\n      mstore\n      0x20\n      add\n      mload(0x40)\n      dup1\n      swap2\n      sub\n      swap1\n      keccak256\n        /* \"contracts/CollegeTracker.sol\":4058:4085  students[_studentName].name */\n      0x01\n      add\n        /* \"contracts/CollegeTracker.sol\":4099:4107  students */\n      0x02\n        /* \"contracts/CollegeTracker.sol\":4108:4120  _studentName */\n      dup7\n        /* \"contracts/CollegeTracker.sol\":4099:4121  students[_studentName] */\n      mload(0x40)\n      tag_90\n      swap2\n      swap1\n      tag_73\n      jump\t// in\n    tag_90:\n      swap1\n      dup2\n      mstore\n      0x20\n      add\n      mload(0x40)\n      dup1\n      swap2\n      sub\n      swap1\n      keccak256\n        /* \"contracts/CollegeTracker.sol\":4099:4132  students[_studentName].courseName */\n      0x03\n      add\n        /* \"contracts/CollegeTracker.sol\":4146:4154  students */\n      0x02\n        /* \"contracts/CollegeTracker.sol\":4155:4167  _studentName */\n      dup8\n        /* \"contracts/CollegeTracker.sol\":4146:4168  students[_studentName] */\n      mload(0x40)\n      tag_91\n      swap2\n      swap1\n      tag_73\n      jump\t// in\n    tag_91:\n      swap1\n      dup2\n      mstore\n      0x20\n      add\n      mload(0x40)\n      dup1\n      swap2\n      sub\n      swap1\n      keccak256\n        /* \"contracts/CollegeTracker.sol\":4146:4176  students[_studentName].phoneNo */\n      0x02\n      add\n        /* \"contracts/CollegeTracker.sol\":4037:4186  return (... */\n      dup3\n      dup1\n      sload\n      tag_92\n      swap1\n      tag_53\n      jump\t// in\n    tag_92:\n      dup1\n      0x1f\n      add\n      0x20\n      dup1\n      swap2\n      div\n      mul\n      0x20\n      add\n      mload(0x40)\n      swap1\n      dup2\n      add\n      0x40\n      mstore\n      dup1\n      swap3\n      swap2\n      swap1\n      dup2\n      dup2\n      mstore\n      0x20\n      add\n      dup3\n      dup1\n      sload\n      tag_93\n      swap1\n      tag_53\n      jump\t// in\n    tag_93:\n      dup1\n      iszero\n      tag_94\n      jumpi\n      dup1\n      0x1f\n      lt\n      tag_95\n      jumpi\n      0x0100\n      dup1\n      dup4\n      sload\n      div\n      mul\n      dup4\n      mstore\n      swap2\n      0x20\n      add\n      swap2\n      jump(tag_94)\n    tag_95:\n      dup3\n      add\n      swap2\n      swap1\n      0x00\n      mstore\n      keccak256(0x00, 0x20)\n      swap1\n    tag_96:\n      dup2\n      sload\n      dup2\n      mstore\n      swap1\n      0x01\n      add\n      swap1\n      0x20\n      add\n      dup1\n      dup4\n      gt\n      tag_96\n      jumpi\n      dup3\n      swap1\n      sub\n      0x1f\n      and\n      dup3\n      add\n      swap2\n    tag_94:\n      pop\n      pop\n      pop\n      pop\n      pop\n      swap3\n      pop\n      dup2\n      dup1\n      sload\n      tag_97\n      swap1\n      tag_53\n      jump\t// in\n    tag_97:\n      dup1\n      0x1f\n      add\n      0x20\n      dup1\n      swap2\n      div\n      mul\n      0x20\n      add\n      mload(0x40)\n      swap1\n      dup2\n      add\n      0x40\n      mstore\n      dup1\n      swap3\n      swap2\n      swap1\n      dup2\n      dup2\n      mstore\n      0x20\n      add\n      dup3\n      dup1\n      sload\n      tag_98\n      swap1\n      tag_53\n      jump\t// in\n    tag_98:\n      dup1\n      iszero\n      tag_99\n      jumpi\n      dup1\n      0x1f\n      lt\n      tag_100\n      jumpi\n      0x0100\n      dup1\n      dup4\n      sload\n      div\n      mul\n      dup4\n      mstore\n      swap2\n      0x20\n      add\n      swap2\n      jump(tag_99)\n    tag_100:\n      dup3\n      add\n      swap2\n      swap1\n      0x00\n      mstore\n      keccak256(0x00, 0x20)\n      swap1\n    tag_101:\n      dup2\n      sload\n      dup2\n      mstore\n      swap1\n      0x01\n      add\n      swap1\n      0x20\n      add\n      dup1\n      dup4\n      gt\n      tag_101\n      jumpi\n      dup3\n      swap1\n      sub\n      0x1f\n      and\n      dup3\n      add\n      swap2\n    tag_99:\n      pop\n      pop\n      pop\n      pop\n      pop\n      swap2\n      pop\n      dup1\n      dup1\n      sload\n      tag_102\n      swap1\n      tag_53\n      jump\t// in\n    tag_102:\n      dup1\n      0x1f\n      add\n      0x20\n      dup1\n      swap2\n      div\n      mul\n      0x20\n      add\n      mload(0x40)\n      swap1\n      dup2\n      add\n      0x40\n      mstore\n      dup1\n      swap3\n      swap2\n      swap1\n      dup2\n      dup2\n      mstore\n      0x20\n      add\n      dup3\n      dup1\n      sload\n      tag_103\n      swap1\n      tag_53\n      jump\t// in\n    tag_103:\n      dup1\n      iszero\n      tag_104\n      jumpi\n      dup1\n      0x1f\n      lt\n      tag_105\n      jumpi\n      0x0100\n      dup1\n      dup4\n      sload\n      div\n      mul\n      dup4\n      mstore\n      swap2\n      0x20\n      add\n      swap2\n      jump(tag_104)\n    tag_105:\n      dup3\n      add\n      swap2\n      swap1\n      0x00\n      mstore\n      keccak256(0x00, 0x20)\n      swap1\n    tag_106:\n      dup2\n      sload\n      dup2\n      mstore\n      swap1\n      0x01\n      add\n      swap1\n      0x20\n      add\n      dup1\n      dup4\n      gt\n      tag_106\n      jumpi\n      dup3\n      swap1\n      sub\n      0x1f\n      and\n      dup3\n      add\n      swap2\n    tag_104:\n      pop\n      pop\n      pop\n      pop\n      pop\n      swap1\n      pop\n      swap4\n      pop\n      swap4\n      pop\n      swap4\n      pop\n        /* \"contracts/CollegeTracker.sol\":3776:4193  function getStudentDetails(string memory _studentName) ... */\n      pop\n      swap2\n      swap4\n      swap1\n      swap3\n      pop\n      jump\t// out\n        /* \"contracts/CollegeTracker.sol\":2556:2715  function allowCollegeAddingNewStudents(address _collegeAddress) public OnlyUniversityAdmin{... */\n    tag_32:\n        /* \"contracts/CollegeTracker.sol\":670:687  universityAddress */\n      0x00\n      dup1\n      sload\n      swap1\n      0x0100\n      exp\n      swap1\n      div\n      0xffffffffffffffffffffffffffffffffffffffff\n      and\n        /* \"contracts/CollegeTracker.sol\":656:687  msg.sender == universityAddress */\n      0xffffffffffffffffffffffffffffffffffffffff\n      and\n        /* \"contracts/CollegeTracker.sol\":656:666  msg.sender */\n      caller\n        /* \"contracts/CollegeTracker.sol\":656:687  msg.sender == universityAddress */\n      0xffffffffffffffffffffffffffffffffffffffff\n      and\n      eq\n        /* \"contracts/CollegeTracker.sol\":635:759  require(... */\n      tag_108\n      jumpi\n      mload(0x40)\n      0x08c379a000000000000000000000000000000000000000000000000000000000\n      dup2\n      mstore\n      0x04\n      add\n      tag_109\n      swap1\n      tag_44\n      jump\t// in\n    tag_109:\n      mload(0x40)\n      dup1\n      swap2\n      sub\n      swap1\n      revert\n    tag_108:\n        /* \"contracts/CollegeTracker.sol\":2704:2708  true */\n      0x01\n        /* \"contracts/CollegeTracker.sol\":2656:2664  colleges */\n      dup1\n        /* \"contracts/CollegeTracker.sol\":2656:2681  colleges[_collegeAddress] */\n      0x00\n        /* \"contracts/CollegeTracker.sol\":2665:2680  _collegeAddress */\n      dup4\n        /* \"contracts/CollegeTracker.sol\":2656:2681  colleges[_collegeAddress] */\n      0xffffffffffffffffffffffffffffffffffffffff\n      and\n      0xffffffffffffffffffffffffffffffffffffffff\n      and\n      dup2\n      mstore\n      0x20\n      add\n      swap1\n      dup2\n      mstore\n      0x20\n      add\n      0x00\n      keccak256\n        /* \"contracts/CollegeTracker.sol\":2656:2701  colleges[_collegeAddress].addStudentPrivilege */\n      0x04\n      add\n      0x00\n        /* \"contracts/CollegeTracker.sol\":2656:2708  colleges[_collegeAddress].addStudentPrivilege = true */\n      0x0100\n      exp\n      dup2\n      sload\n      dup2\n      0xff\n      mul\n      not\n      and\n      swap1\n      dup4\n      iszero\n      iszero\n      mul\n      or\n      swap1\n      sstore\n      pop\n        /* \"contracts/CollegeTracker.sol\":2556:2715  function allowCollegeAddingNewStudents(address _collegeAddress) public OnlyUniversityAdmin{... */\n      pop\n      jump\t// out\n        /* \"contracts/CollegeTracker.sol\":1485:1887  function addNewCollege(... */\n    tag_36:\n        /* \"contracts/CollegeTracker.sol\":670:687  universityAddress */\n      0x00\n      dup1\n      sload\n      swap1\n      0x0100\n      exp\n      swap1\n      div\n      0xffffffffffffffffffffffffffffffffffffffff\n      and\n        /* \"contracts/CollegeTracker.sol\":656:687  msg.sender == universityAddress */\n      0xffffffffffffffffffffffffffffffffffffffff\n      and\n        /* \"contracts/CollegeTracker.sol\":656:666  msg.sender */\n      caller\n        /* \"contracts/CollegeTracker.sol\":656:687  msg.sender == universityAddress */\n      0xffffffffffffffffffffffffffffffffffffffff\n      and\n      eq\n        /* \"contracts/CollegeTracker.sol\":635:759  require(... */\n      tag_112\n      jumpi\n      mload(0x40)\n      0x08c379a000000000000000000000000000000000000000000000000000000000\n      dup2\n      mstore\n      0x04\n      add\n      tag_113\n      swap1\n      tag_44\n      jump\t// in\n    tag_113:\n      mload(0x40)\n      dup1\n      swap2\n      sub\n      swap1\n      revert\n    tag_112:\n        /* \"contracts/CollegeTracker.sol\":1689:1701  _collegeName */\n      dup3\n        /* \"contracts/CollegeTracker.sol\":1656:1664  colleges */\n      0x01\n        /* \"contracts/CollegeTracker.sol\":1656:1681  colleges[_collegeAddress] */\n      0x00\n        /* \"contracts/CollegeTracker.sol\":1665:1680  _collegeAddress */\n      dup4\n        /* \"contracts/CollegeTracker.sol\":1656:1681  colleges[_collegeAddress] */\n      0xffffffffffffffffffffffffffffffffffffffff\n      and\n      0xffffffffffffffffffffffffffffffffffffffff\n      and\n      dup2\n      mstore\n      0x20\n      add\n      swap1\n      dup2\n      mstore\n      0x20\n      add\n      0x00\n      keccak256\n        /* \"contracts/CollegeTracker.sol\":1656:1686  colleges[_collegeAddress].name */\n      0x00\n      add\n        /* \"contracts/CollegeTracker.sol\":1656:1701  colleges[_collegeAddress].name = _collegeName */\n      swap1\n      dup2\n      tag_115\n      swap2\n      swap1\n      tag_75\n      jump\t// in\n    tag_115:\n      pop\n        /* \"contracts/CollegeTracker.sol\":1754:1769  _collegeAddress */\n      dup1\n        /* \"contracts/CollegeTracker.sol\":1711:1719  colleges */\n      0x01\n        /* \"contracts/CollegeTracker.sol\":1711:1736  colleges[_collegeAddress] */\n      0x00\n        /* \"contracts/CollegeTracker.sol\":1720:1735  _collegeAddress */\n      dup4\n        /* \"contracts/CollegeTracker.sol\":1711:1736  colleges[_collegeAddress] */\n      0xffffffffffffffffffffffffffffffffffffffff\n      and\n      0xffffffffffffffffffffffffffffffffffffffff\n      and\n      dup2\n      mstore\n      0x20\n      add\n      swap1\n      dup2\n      mstore\n      0x20\n      add\n      0x00\n      keccak256\n        /* \"contracts/CollegeTracker.sol\":1711:1751  colleges[_collegeAddress].collegeAddress */\n      0x01\n      add\n      0x00\n        /* \"contracts/CollegeTracker.sol\":1711:1769  colleges[_collegeAddress].collegeAddress = _collegeAddress */\n      0x0100\n      exp\n      dup2\n      sload\n      dup2\n      0xffffffffffffffffffffffffffffffffffffffff\n      mul\n      not\n      and\n      swap1\n      dup4\n      0xffffffffffffffffffffffffffffffffffffffff\n      and\n      mul\n      or\n      swap1\n      sstore\n      pop\n        /* \"contracts/CollegeTracker.sol\":1813:1819  _regNo */\n      dup2\n        /* \"contracts/CollegeTracker.sol\":1779:1787  colleges */\n      0x01\n        /* \"contracts/CollegeTracker.sol\":1779:1804  colleges[_collegeAddress] */\n      0x00\n        /* \"contracts/CollegeTracker.sol\":1788:1803  _collegeAddress */\n      dup4\n        /* \"contracts/CollegeTracker.sol\":1779:1804  colleges[_collegeAddress] */\n      0xffffffffffffffffffffffffffffffffffffffff\n      and\n      0xffffffffffffffffffffffffffffffffffffffff\n      and\n      dup2\n      mstore\n      0x20\n      add\n      swap1\n      dup2\n      mstore\n      0x20\n      add\n      0x00\n      keccak256\n        /* \"contracts/CollegeTracker.sol\":1779:1810  colleges[_collegeAddress].regNo */\n      0x03\n      add\n        /* \"contracts/CollegeTracker.sol\":1779:1819  colleges[_collegeAddress].regNo = _regNo */\n      swap1\n      dup2\n      tag_116\n      swap2\n      swap1\n      tag_75\n      jump\t// in\n    tag_116:\n      pop\n        /* \"contracts/CollegeTracker.sol\":1870:1880  msg.sender */\n      caller\n        /* \"contracts/CollegeTracker.sol\":1829:1837  colleges */\n      0x01\n        /* \"contracts/CollegeTracker.sol\":1829:1854  colleges[_collegeAddress] */\n      0x00\n        /* \"contracts/CollegeTracker.sol\":1838:1853  _collegeAddress */\n      dup4\n        /* \"contracts/CollegeTracker.sol\":1829:1854  colleges[_collegeAddress] */\n      0xffffffffffffffffffffffffffffffffffffffff\n      and\n      0xffffffffffffffffffffffffffffffffffffffff\n      and\n      dup2\n      mstore\n      0x20\n      add\n      swap1\n      dup2\n      mstore\n      0x20\n      add\n      0x00\n      keccak256\n        /* \"contracts/CollegeTracker.sol\":1829:1867  colleges[_collegeAddress].collegeAdmin */\n      0x02\n      add\n      0x00\n        /* \"contracts/CollegeTracker.sol\":1829:1880  colleges[_collegeAddress].collegeAdmin = msg.sender */\n      0x0100\n      exp\n      dup2\n      sload\n      dup2\n      0xffffffffffffffffffffffffffffffffffffffff\n      mul\n      not\n      and\n      swap1\n      dup4\n      0xffffffffffffffffffffffffffffffffffffffff\n      and\n      mul\n      or\n      swap1\n      sstore\n      pop\n        /* \"contracts/CollegeTracker.sol\":1485:1887  function addNewCollege(... */\n      pop\n      pop\n      pop\n      jump\t// out\n        /* \"contracts/CollegeTracker.sol\":3341:3770  function changeStudentCourse(... */\n    tag_40:\n        /* \"contracts/CollegeTracker.sol\":3516:3531  _collegeAddress */\n      dup3\n        /* \"contracts/CollegeTracker.sol\":1093:1108  _collegeAddress */\n      dup1\n        /* \"contracts/CollegeTracker.sol\":1079:1108  msg.sender == _collegeAddress */\n      0xffffffffffffffffffffffffffffffffffffffff\n      and\n        /* \"contracts/CollegeTracker.sol\":1079:1089  msg.sender */\n      caller\n        /* \"contracts/CollegeTracker.sol\":1079:1108  msg.sender == _collegeAddress */\n      0xffffffffffffffffffffffffffffffffffffffff\n      and\n      eq\n        /* \"contracts/CollegeTracker.sol\":1079:1143  msg.sender == _collegeAddress || universityAddress == msg.sender */\n      dup1\n      tag_118\n      jumpi\n      pop\n        /* \"contracts/CollegeTracker.sol\":1133:1143  msg.sender */\n      caller\n        /* \"contracts/CollegeTracker.sol\":1112:1143  universityAddress == msg.sender */\n      0xffffffffffffffffffffffffffffffffffffffff\n      and\n        /* \"contracts/CollegeTracker.sol\":1112:1129  universityAddress */\n      0x00\n      dup1\n      sload\n      swap1\n      0x0100\n      exp\n      swap1\n      div\n      0xffffffffffffffffffffffffffffffffffffffff\n      and\n        /* \"contracts/CollegeTracker.sol\":1112:1143  universityAddress == msg.sender */\n      0xffffffffffffffffffffffffffffffffffffffff\n      and\n      eq\n        /* \"contracts/CollegeTracker.sol\":1079:1143  msg.sender == _collegeAddress || universityAddress == msg.sender */\n    tag_118:\n        /* \"contracts/CollegeTracker.sol\":1058:1231  require(... */\n      tag_119\n      jumpi\n      mload(0x40)\n      0x08c379a000000000000000000000000000000000000000000000000000000000\n      dup2\n      mstore\n      0x04\n      add\n      tag_120\n      swap1\n      tag_50\n      jump\t// in\n    tag_120:\n      mload(0x40)\n      dup1\n      swap2\n      sub\n      swap1\n      revert\n    tag_119:\n        /* \"contracts/CollegeTracker.sol\":3597:3612  _collegeAddress */\n      dup4\n        /* \"contracts/CollegeTracker.sol\":3557:3565  students */\n      0x02\n        /* \"contracts/CollegeTracker.sol\":3566:3578  _studentName */\n      dup5\n        /* \"contracts/CollegeTracker.sol\":3557:3579  students[_studentName] */\n      mload(0x40)\n      tag_122\n      swap2\n      swap1\n      tag_73\n      jump\t// in\n    tag_122:\n      swap1\n      dup2\n      mstore\n      0x20\n      add\n      mload(0x40)\n      dup1\n      swap2\n      sub\n      swap1\n      keccak256\n        /* \"contracts/CollegeTracker.sol\":3557:3594  students[_studentName].collegeAddress */\n      0x00\n      add\n      0x00\n        /* \"contracts/CollegeTracker.sol\":3557:3612  students[_studentName].collegeAddress = _collegeAddress */\n      0x0100\n      exp\n      dup2\n      sload\n      dup2\n      0xffffffffffffffffffffffffffffffffffffffff\n      mul\n      not\n      and\n      swap1\n      dup4\n      0xffffffffffffffffffffffffffffffffffffffff\n      and\n      mul\n      or\n      swap1\n      sstore\n      pop\n        /* \"contracts/CollegeTracker.sol\":3658:3672  _newCourseName */\n      dup2\n        /* \"contracts/CollegeTracker.sol\":3622:3630  students */\n      0x02\n        /* \"contracts/CollegeTracker.sol\":3631:3643  _studentName */\n      dup5\n        /* \"contracts/CollegeTracker.sol\":3622:3644  students[_studentName] */\n      mload(0x40)\n      tag_123\n      swap2\n      swap1\n      tag_73\n      jump\t// in\n    tag_123:\n      swap1\n      dup2\n      mstore\n      0x20\n      add\n      mload(0x40)\n      dup1\n      swap2\n      sub\n      swap1\n      keccak256\n        /* \"contracts/CollegeTracker.sol\":3622:3655  students[_studentName].courseName */\n      0x03\n      add\n        /* \"contracts/CollegeTracker.sol\":3622:3672  students[_studentName].courseName = _newCourseName */\n      swap1\n      dup2\n      tag_124\n      swap2\n      swap1\n      tag_75\n      jump\t// in\n    tag_124:\n      pop\n        /* \"contracts/CollegeTracker.sol\":3762:3763  1 */\n      0x01\n        /* \"contracts/CollegeTracker.sol\":3723:3731  colleges */\n      dup1\n        /* \"contracts/CollegeTracker.sol\":3723:3748  colleges[_collegeAddress] */\n      0x00\n        /* \"contracts/CollegeTracker.sol\":3732:3747  _collegeAddress */\n      dup7\n        /* \"contracts/CollegeTracker.sol\":3723:3748  colleges[_collegeAddress] */\n      0xffffffffffffffffffffffffffffffffffffffff\n      and\n      0xffffffffffffffffffffffffffffffffffffffff\n      and\n      dup2\n      mstore\n      0x20\n      add\n      swap1\n      dup2\n      mstore\n      0x20\n      add\n      0x00\n      keccak256\n        /* \"contracts/CollegeTracker.sol\":3723:3761  colleges[_collegeAddress].noOfStudents */\n      0x04\n      add\n      0x01\n      swap1\n      sload\n      swap1\n      0x0100\n      exp\n      swap1\n      div\n      0xff\n      and\n        /* \"contracts/CollegeTracker.sol\":3723:3763  colleges[_collegeAddress].noOfStudents+1 */\n      tag_125\n      swap2\n      swap1\n      tag_82\n      jump\t// in\n    tag_125:\n        /* \"contracts/CollegeTracker.sol\":3682:3690  colleges */\n      0x01\n        /* \"contracts/CollegeTracker.sol\":3682:3707  colleges[_collegeAddress] */\n      0x00\n        /* \"contracts/CollegeTracker.sol\":3691:3706  _collegeAddress */\n      dup7\n        /* \"contracts/CollegeTracker.sol\":3682:3707  colleges[_collegeAddress] */\n      0xffffffffffffffffffffffffffffffffffffffff\n      and\n      0xffffffffffffffffffffffffffffffffffffffff\n      and\n      dup2\n      mstore\n      0x20\n      add\n      swap1\n      dup2\n      mstore\n      0x20\n      add\n      0x00\n      keccak256\n        /* \"contracts/CollegeTracker.sol\":3682:3720  colleges[_collegeAddress].noOfStudents */\n      0x04\n      add\n      0x01\n        /* \"contracts/CollegeTracker.sol\":3682:3763  colleges[_collegeAddress].noOfStudents = colleges[_collegeAddress].noOfStudents+1 */\n      0x0100\n      exp\n      dup2\n      sload\n      dup2\n      0xff\n      mul\n      not\n      and\n      swap1\n      dup4\n      0xff\n      and\n      mul\n      or\n      swap1\n      sstore\n      pop\n        /* \"contracts/CollegeTracker.sol\":3341:3770  function changeStudentCourse(... */\n      pop\n      pop\n      pop\n      pop\n      jump\t// out\n        /* \"#utility.yul\":7:82   */\n    tag_126:\n        /* \"#utility.yul\":40:46   */\n      0x00\n        /* \"#utility.yul\":73:75   */\n      0x40\n        /* \"#utility.yul\":67:76   */\n      mload\n        /* \"#utility.yul\":57:76   */\n      swap1\n      pop\n        /* \"#utility.yul\":7:82   */\n      swap1\n      jump\t// out\n        /* \"#utility.yul\":88:205   */\n    tag_127:\n        /* \"#utility.yul\":197:198   */\n      0x00\n        /* \"#utility.yul\":194:195   */\n      dup1\n        /* \"#utility.yul\":187:199   */\n      revert\n        /* \"#utility.yul\":211:328   */\n    tag_128:\n        /* \"#utility.yul\":320:321   */\n      0x00\n        /* \"#utility.yul\":317:318   */\n      dup1\n        /* \"#utility.yul\":310:322   */\n      revert\n        /* \"#utility.yul\":334:460   */\n    tag_129:\n        /* \"#utility.yul\":371:378   */\n      0x00\n        /* \"#utility.yul\":411:453   */\n      0xffffffffffffffffffffffffffffffffffffffff\n        /* \"#utility.yul\":404:409   */\n      dup3\n        /* \"#utility.yul\":400:454   */\n      and\n        /* \"#utility.yul\":389:454   */\n      swap1\n      pop\n        /* \"#utility.yul\":334:460   */\n      swap2\n      swap1\n      pop\n      jump\t// out\n        /* \"#utility.yul\":466:562   */\n    tag_130:\n        /* \"#utility.yul\":503:510   */\n      0x00\n        /* \"#utility.yul\":532:556   */\n      tag_183\n        /* \"#utility.yul\":550:555   */\n      dup3\n        /* \"#utility.yul\":532:556   */\n      tag_129\n      jump\t// in\n    tag_183:\n        /* \"#utility.yul\":521:556   */\n      swap1\n      pop\n        /* \"#utility.yul\":466:562   */\n      swap2\n      swap1\n      pop\n      jump\t// out\n        /* \"#utility.yul\":568:690   */\n    tag_131:\n        /* \"#utility.yul\":641:665   */\n      tag_185\n        /* \"#utility.yul\":659:664   */\n      dup2\n        /* \"#utility.yul\":641:665   */\n      tag_130\n      jump\t// in\n    tag_185:\n        /* \"#utility.yul\":634:639   */\n      dup2\n        /* \"#utility.yul\":631:666   */\n      eq\n        /* \"#utility.yul\":621:684   */\n      tag_186\n      jumpi\n        /* \"#utility.yul\":680:681   */\n      0x00\n        /* \"#utility.yul\":677:678   */\n      dup1\n        /* \"#utility.yul\":670:682   */\n      revert\n        /* \"#utility.yul\":621:684   */\n    tag_186:\n        /* \"#utility.yul\":568:690   */\n      pop\n      jump\t// out\n        /* \"#utility.yul\":696:835   */\n    tag_132:\n        /* \"#utility.yul\":742:747   */\n      0x00\n        /* \"#utility.yul\":780:786   */\n      dup2\n        /* \"#utility.yul\":767:787   */\n      calldataload\n        /* \"#utility.yul\":758:787   */\n      swap1\n      pop\n        /* \"#utility.yul\":796:829   */\n      tag_188\n        /* \"#utility.yul\":823:828   */\n      dup2\n        /* \"#utility.yul\":796:829   */\n      tag_131\n      jump\t// in\n    tag_188:\n        /* \"#utility.yul\":696:835   */\n      swap3\n      swap2\n      pop\n      pop\n      jump\t// out\n        /* \"#utility.yul\":841:1170   */\n    tag_13:\n        /* \"#utility.yul\":900:906   */\n      0x00\n        /* \"#utility.yul\":949:951   */\n      0x20\n        /* \"#utility.yul\":937:946   */\n      dup3\n        /* \"#utility.yul\":928:935   */\n      dup5\n        /* \"#utility.yul\":924:947   */\n      sub\n        /* \"#utility.yul\":920:952   */\n      slt\n        /* \"#utility.yul\":917:1036   */\n      iszero\n      tag_190\n      jumpi\n        /* \"#utility.yul\":955:1034   */\n      tag_191\n      tag_127\n      jump\t// in\n    tag_191:\n        /* \"#utility.yul\":917:1036   */\n    tag_190:\n        /* \"#utility.yul\":1075:1076   */\n      0x00\n        /* \"#utility.yul\":1100:1153   */\n      tag_192\n        /* \"#utility.yul\":1145:1152   */\n      dup5\n        /* \"#utility.yul\":1136:1142   */\n      dup3\n        /* \"#utility.yul\":1125:1134   */\n      dup6\n        /* \"#utility.yul\":1121:1143   */\n      add\n        /* \"#utility.yul\":1100:1153   */\n      tag_132\n      jump\t// in\n    tag_192:\n        /* \"#utility.yul\":1090:1153   */\n      swap2\n      pop\n        /* \"#utility.yul\":1046:1163   */\n      pop\n        /* \"#utility.yul\":841:1170   */\n      swap3\n      swap2\n      pop\n      pop\n      jump\t// out\n        /* \"#utility.yul\":1176:1275   */\n    tag_133:\n        /* \"#utility.yul\":1228:1234   */\n      0x00\n        /* \"#utility.yul\":1262:1267   */\n      dup2\n        /* \"#utility.yul\":1256:1268   */\n      mload\n        /* \"#utility.yul\":1246:1268   */\n      swap1\n      pop\n        /* \"#utility.yul\":1176:1275   */\n      swap2\n      swap1\n      pop\n      jump\t// out\n        /* \"#utility.yul\":1281:1450   */\n    tag_134:\n        /* \"#utility.yul\":1365:1376   */\n      0x00\n        /* \"#utility.yul\":1399:1405   */\n      dup3\n        /* \"#utility.yul\":1394:1397   */\n      dup3\n        /* \"#utility.yul\":1387:1406   */\n      mstore\n        /* \"#utility.yul\":1439:1443   */\n      0x20\n        /* \"#utility.yul\":1434:1437   */\n      dup3\n        /* \"#utility.yul\":1430:1444   */\n      add\n        /* \"#utility.yul\":1415:1444   */\n      swap1\n      pop\n        /* \"#utility.yul\":1281:1450   */\n      swap3\n      swap2\n      pop\n      pop\n      jump\t// out\n        /* \"#utility.yul\":1456:1702   */\n    tag_135:\n        /* \"#utility.yul\":1537:1538   */\n      0x00\n        /* \"#utility.yul\":1547:1660   */\n    tag_196:\n        /* \"#utility.yul\":1561:1567   */\n      dup4\n        /* \"#utility.yul\":1558:1559   */\n      dup2\n        /* \"#utility.yul\":1555:1568   */\n      lt\n        /* \"#utility.yul\":1547:1660   */\n      iszero\n      tag_198\n      jumpi\n        /* \"#utility.yul\":1646:1647   */\n      dup1\n        /* \"#utility.yul\":1641:1644   */\n      dup3\n        /* \"#utility.yul\":1637:1648   */\n      add\n        /* \"#utility.yul\":1631:1649   */\n      mload\n        /* \"#utility.yul\":1627:1628   */\n      dup2\n        /* \"#utility.yul\":1622:1625   */\n      dup5\n        /* \"#utility.yul\":1618:1629   */\n      add\n        /* \"#utility.yul\":1611:1650   */\n      mstore\n        /* \"#utility.yul\":1583:1585   */\n      0x20\n        /* \"#utility.yul\":1580:1581   */\n      dup2\n        /* \"#utility.yul\":1576:1586   */\n      add\n        /* \"#utility.yul\":1571:1586   */\n      swap1\n      pop\n        /* \"#utility.yul\":1547:1660   */\n      jump(tag_196)\n    tag_198:\n        /* \"#utility.yul\":1694:1695   */\n      0x00\n        /* \"#utility.yul\":1685:1691   */\n      dup5\n        /* \"#utility.yul\":1680:1683   */\n      dup5\n        /* \"#utility.yul\":1676:1692   */\n      add\n        /* \"#utility.yul\":1669:1696   */\n      mstore\n        /* \"#utility.yul\":1518:1702   */\n      pop\n        /* \"#utility.yul\":1456:1702   */\n      pop\n      pop\n      pop\n      jump\t// out\n        /* \"#utility.yul\":1708:1810   */\n    tag_136:\n        /* \"#utility.yul\":1749:1755   */\n      0x00\n        /* \"#utility.yul\":1800:1802   */\n      0x1f\n        /* \"#utility.yul\":1796:1803   */\n      not\n        /* \"#utility.yul\":1791:1793   */\n      0x1f\n        /* \"#utility.yul\":1784:1789   */\n      dup4\n        /* \"#utility.yul\":1780:1794   */\n      add\n        /* \"#utility.yul\":1776:1804   */\n      and\n        /* \"#utility.yul\":1766:1804   */\n      swap1\n      pop\n        /* \"#utility.yul\":1708:1810   */\n      swap2\n      swap1\n      pop\n      jump\t// out\n        /* \"#utility.yul\":1816:2193   */\n    tag_137:\n        /* \"#utility.yul\":1904:1907   */\n      0x00\n        /* \"#utility.yul\":1932:1971   */\n      tag_201\n        /* \"#utility.yul\":1965:1970   */\n      dup3\n        /* \"#utility.yul\":1932:1971   */\n      tag_133\n      jump\t// in\n    tag_201:\n        /* \"#utility.yul\":1987:2058   */\n      tag_202\n        /* \"#utility.yul\":2051:2057   */\n      dup2\n        /* \"#utility.yul\":2046:2049   */\n      dup6\n        /* \"#utility.yul\":1987:2058   */\n      tag_134\n      jump\t// in\n    tag_202:\n        /* \"#utility.yul\":1980:2058   */\n      swap4\n      pop\n        /* \"#utility.yul\":2067:2132   */\n      tag_203\n        /* \"#utility.yul\":2125:2131   */\n      dup2\n        /* \"#utility.yul\":2120:2123   */\n      dup6\n        /* \"#utility.yul\":2113:2117   */\n      0x20\n        /* \"#utility.yul\":2106:2111   */\n      dup7\n        /* \"#utility.yul\":2102:2118   */\n      add\n        /* \"#utility.yul\":2067:2132   */\n      tag_135\n      jump\t// in\n    tag_203:\n        /* \"#utility.yul\":2157:2186   */\n      tag_204\n        /* \"#utility.yul\":2179:2185   */\n      dup2\n        /* \"#utility.yul\":2157:2186   */\n      tag_136\n      jump\t// in\n    tag_204:\n        /* \"#utility.yul\":2152:2155   */\n      dup5\n        /* \"#utility.yul\":2148:2187   */\n      add\n        /* \"#utility.yul\":2141:2187   */\n      swap2\n      pop\n        /* \"#utility.yul\":1908:2193   */\n      pop\n        /* \"#utility.yul\":1816:2193   */\n      swap3\n      swap2\n      pop\n      pop\n      jump\t// out\n        /* \"#utility.yul\":2199:2289   */\n    tag_138:\n        /* \"#utility.yul\":2233:2240   */\n      0x00\n        /* \"#utility.yul\":2276:2281   */\n      dup2\n        /* \"#utility.yul\":2269:2282   */\n      iszero\n        /* \"#utility.yul\":2262:2283   */\n      iszero\n        /* \"#utility.yul\":2251:2283   */\n      swap1\n      pop\n        /* \"#utility.yul\":2199:2289   */\n      swap2\n      swap1\n      pop\n      jump\t// out\n        /* \"#utility.yul\":2295:2404   */\n    tag_139:\n        /* \"#utility.yul\":2376:2397   */\n      tag_207\n        /* \"#utility.yul\":2391:2396   */\n      dup2\n        /* \"#utility.yul\":2376:2397   */\n      tag_138\n      jump\t// in\n    tag_207:\n        /* \"#utility.yul\":2371:2374   */\n      dup3\n        /* \"#utility.yul\":2364:2398   */\n      mstore\n        /* \"#utility.yul\":2295:2404   */\n      pop\n      pop\n      jump\t// out\n        /* \"#utility.yul\":2410:2496   */\n    tag_140:\n        /* \"#utility.yul\":2445:2452   */\n      0x00\n        /* \"#utility.yul\":2485:2489   */\n      0xff\n        /* \"#utility.yul\":2478:2483   */\n      dup3\n        /* \"#utility.yul\":2474:2490   */\n      and\n        /* \"#utility.yul\":2463:2490   */\n      swap1\n      pop\n        /* \"#utility.yul\":2410:2496   */\n      swap2\n      swap1\n      pop\n      jump\t// out\n        /* \"#utility.yul\":2502:2614   */\n    tag_141:\n        /* \"#utility.yul\":2585:2607   */\n      tag_210\n        /* \"#utility.yul\":2601:2606   */\n      dup2\n        /* \"#utility.yul\":2585:2607   */\n      tag_140\n      jump\t// in\n    tag_210:\n        /* \"#utility.yul\":2580:2583   */\n      dup3\n        /* \"#utility.yul\":2573:2608   */\n      mstore\n        /* \"#utility.yul\":2502:2614   */\n      pop\n      pop\n      jump\t// out\n        /* \"#utility.yul\":2620:3335   */\n    tag_19:\n        /* \"#utility.yul\":2827:2831   */\n      0x00\n        /* \"#utility.yul\":2865:2868   */\n      0x80\n        /* \"#utility.yul\":2854:2863   */\n      dup3\n        /* \"#utility.yul\":2850:2869   */\n      add\n        /* \"#utility.yul\":2842:2869   */\n      swap1\n      pop\n        /* \"#utility.yul\":2915:2924   */\n      dup2\n        /* \"#utility.yul\":2909:2913   */\n      dup2\n        /* \"#utility.yul\":2905:2925   */\n      sub\n        /* \"#utility.yul\":2901:2902   */\n      0x00\n        /* \"#utility.yul\":2890:2899   */\n      dup4\n        /* \"#utility.yul\":2886:2903   */\n      add\n        /* \"#utility.yul\":2879:2926   */\n      mstore\n        /* \"#utility.yul\":2943:3021   */\n      tag_212\n        /* \"#utility.yul\":3016:3020   */\n      dup2\n        /* \"#utility.yul\":3007:3013   */\n      dup8\n        /* \"#utility.yul\":2943:3021   */\n      tag_137\n      jump\t// in\n    tag_212:\n        /* \"#utility.yul\":2935:3021   */\n      swap1\n      pop\n        /* \"#utility.yul\":3068:3077   */\n      dup2\n        /* \"#utility.yul\":3062:3066   */\n      dup2\n        /* \"#utility.yul\":3058:3078   */\n      sub\n        /* \"#utility.yul\":3053:3055   */\n      0x20\n        /* \"#utility.yul\":3042:3051   */\n      dup4\n        /* \"#utility.yul\":3038:3056   */\n      add\n        /* \"#utility.yul\":3031:3079   */\n      mstore\n        /* \"#utility.yul\":3096:3174   */\n      tag_213\n        /* \"#utility.yul\":3169:3173   */\n      dup2\n        /* \"#utility.yul\":3160:3166   */\n      dup7\n        /* \"#utility.yul\":3096:3174   */\n      tag_137\n      jump\t// in\n    tag_213:\n        /* \"#utility.yul\":3088:3174   */\n      swap1\n      pop\n        /* \"#utility.yul\":3184:3250   */\n      tag_214\n        /* \"#utility.yul\":3246:3248   */\n      0x40\n        /* \"#utility.yul\":3235:3244   */\n      dup4\n        /* \"#utility.yul\":3231:3249   */\n      add\n        /* \"#utility.yul\":3222:3228   */\n      dup6\n        /* \"#utility.yul\":3184:3250   */\n      tag_139\n      jump\t// in\n    tag_214:\n        /* \"#utility.yul\":3260:3328   */\n      tag_215\n        /* \"#utility.yul\":3324:3326   */\n      0x60\n        /* \"#utility.yul\":3313:3322   */\n      dup4\n        /* \"#utility.yul\":3309:3327   */\n      add\n        /* \"#utility.yul\":3300:3306   */\n      dup5\n        /* \"#utility.yul\":3260:3328   */\n      tag_141\n      jump\t// in\n    tag_215:\n        /* \"#utility.yul\":2620:3335   */\n      swap6\n      swap5\n      pop\n      pop\n      pop\n      pop\n      pop\n      jump\t// out\n        /* \"#utility.yul\":3341:3458   */\n    tag_142:\n        /* \"#utility.yul\":3450:3451   */\n      0x00\n        /* \"#utility.yul\":3447:3448   */\n      dup1\n        /* \"#utility.yul\":3440:3452   */\n      revert\n        /* \"#utility.yul\":3464:3581   */\n    tag_143:\n        /* \"#utility.yul\":3573:3574   */\n      0x00\n        /* \"#utility.yul\":3570:3571   */\n      dup1\n        /* \"#utility.yul\":3563:3575   */\n      revert\n        /* \"#utility.yul\":3587:3767   */\n    tag_144:\n        /* \"#utility.yul\":3635:3712   */\n      0x4e487b7100000000000000000000000000000000000000000000000000000000\n        /* \"#utility.yul\":3632:3633   */\n      0x00\n        /* \"#utility.yul\":3625:3713   */\n      mstore\n        /* \"#utility.yul\":3732:3736   */\n      0x41\n        /* \"#utility.yul\":3729:3730   */\n      0x04\n        /* \"#utility.yul\":3722:3737   */\n      mstore\n        /* \"#utility.yul\":3756:3760   */\n      0x24\n        /* \"#utility.yul\":3753:3754   */\n      0x00\n        /* \"#utility.yul\":3746:3761   */\n      revert\n        /* \"#utility.yul\":3773:4054   */\n    tag_145:\n        /* \"#utility.yul\":3856:3883   */\n      tag_220\n        /* \"#utility.yul\":3878:3882   */\n      dup3\n        /* \"#utility.yul\":3856:3883   */\n      tag_136\n      jump\t// in\n    tag_220:\n        /* \"#utility.yul\":3848:3854   */\n      dup2\n        /* \"#utility.yul\":3844:3884   */\n      add\n        /* \"#utility.yul\":3986:3992   */\n      dup2\n        /* \"#utility.yul\":3974:3984   */\n      dup2\n        /* \"#utility.yul\":3971:3993   */\n      lt\n        /* \"#utility.yul\":3950:3968   */\n      0xffffffffffffffff\n        /* \"#utility.yul\":3938:3948   */\n      dup3\n        /* \"#utility.yul\":3935:3969   */\n      gt\n        /* \"#utility.yul\":3932:3994   */\n      or\n        /* \"#utility.yul\":3929:4017   */\n      iszero\n      tag_221\n      jumpi\n        /* \"#utility.yul\":3997:4015   */\n      tag_222\n      tag_144\n      jump\t// in\n    tag_222:\n        /* \"#utility.yul\":3929:4017   */\n    tag_221:\n        /* \"#utility.yul\":4037:4047   */\n      dup1\n        /* \"#utility.yul\":4033:4035   */\n      0x40\n        /* \"#utility.yul\":4026:4048   */\n      mstore\n        /* \"#utility.yul\":3816:4054   */\n      pop\n        /* \"#utility.yul\":3773:4054   */\n      pop\n      pop\n      jump\t// out\n        /* \"#utility.yul\":4060:4189   */\n    tag_146:\n        /* \"#utility.yul\":4094:4100   */\n      0x00\n        /* \"#utility.yul\":4121:4141   */\n      tag_224\n      tag_126\n      jump\t// in\n    tag_224:\n        /* \"#utility.yul\":4111:4141   */\n      swap1\n      pop\n        /* \"#utility.yul\":4150:4183   */\n      tag_225\n        /* \"#utility.yul\":4178:4182   */\n      dup3\n        /* \"#utility.yul\":4170:4176   */\n      dup3\n        /* \"#utility.yul\":4150:4183   */\n      tag_145\n      jump\t// in\n    tag_225:\n        /* \"#utility.yul\":4060:4189   */\n      swap2\n      swap1\n      pop\n      jump\t// out\n        /* \"#utility.yul\":4195:4503   */\n    tag_147:\n        /* \"#utility.yul\":4257:4261   */\n      0x00\n        /* \"#utility.yul\":4347:4365   */\n      0xffffffffffffffff\n        /* \"#utility.yul\":4339:4345   */\n      dup3\n        /* \"#utility.yul\":4336:4366   */\n      gt\n        /* \"#utility.yul\":4333:4389   */\n      iszero\n      tag_227\n      jumpi\n        /* \"#utility.yul\":4369:4387   */\n      tag_228\n      tag_144\n      jump\t// in\n    tag_228:\n        /* \"#utility.yul\":4333:4389   */\n    tag_227:\n        /* \"#utility.yul\":4407:4436   */\n      tag_229\n        /* \"#utility.yul\":4429:4435   */\n      dup3\n        /* \"#utility.yul\":4407:4436   */\n      tag_136\n      jump\t// in\n    tag_229:\n        /* \"#utility.yul\":4399:4436   */\n      swap1\n      pop\n        /* \"#utility.yul\":4491:4495   */\n      0x20\n        /* \"#utility.yul\":4485:4489   */\n      dup2\n        /* \"#utility.yul\":4481:4496   */\n      add\n        /* \"#utility.yul\":4473:4496   */\n      swap1\n      pop\n        /* \"#utility.yul\":4195:4503   */\n      swap2\n      swap1\n      pop\n      jump\t// out\n        /* \"#utility.yul\":4509:4655   */\n    tag_148:\n        /* \"#utility.yul\":4606:4612   */\n      dup3\n        /* \"#utility.yul\":4601:4604   */\n      dup2\n        /* \"#utility.yul\":4596:4599   */\n      dup4\n        /* \"#utility.yul\":4583:4613   */\n      calldatacopy\n        /* \"#utility.yul\":4647:4648   */\n      0x00\n        /* \"#utility.yul\":4638:4644   */\n      dup4\n        /* \"#utility.yul\":4633:4636   */\n      dup4\n        /* \"#utility.yul\":4629:4645   */\n      add\n        /* \"#utility.yul\":4622:4649   */\n      mstore\n        /* \"#utility.yul\":4509:4655   */\n      pop\n      pop\n      pop\n      jump\t// out\n        /* \"#utility.yul\":4661:5086   */\n    tag_149:\n        /* \"#utility.yul\":4739:4744   */\n      0x00\n        /* \"#utility.yul\":4764:4830   */\n      tag_232\n        /* \"#utility.yul\":4780:4829   */\n      tag_233\n        /* \"#utility.yul\":4822:4828   */\n      dup5\n        /* \"#utility.yul\":4780:4829   */\n      tag_147\n      jump\t// in\n    tag_233:\n        /* \"#utility.yul\":4764:4830   */\n      tag_146\n      jump\t// in\n    tag_232:\n        /* \"#utility.yul\":4755:4830   */\n      swap1\n      pop\n        /* \"#utility.yul\":4853:4859   */\n      dup3\n        /* \"#utility.yul\":4846:4851   */\n      dup2\n        /* \"#utility.yul\":4839:4860   */\n      mstore\n        /* \"#utility.yul\":4891:4895   */\n      0x20\n        /* \"#utility.yul\":4884:4889   */\n      dup2\n        /* \"#utility.yul\":4880:4896   */\n      add\n        /* \"#utility.yul\":4929:4932   */\n      dup5\n        /* \"#utility.yul\":4920:4926   */\n      dup5\n        /* \"#utility.yul\":4915:4918   */\n      dup5\n        /* \"#utility.yul\":4911:4927   */\n      add\n        /* \"#utility.yul\":4908:4933   */\n      gt\n        /* \"#utility.yul\":4905:5017   */\n      iszero\n      tag_234\n      jumpi\n        /* \"#utility.yul\":4936:5015   */\n      tag_235\n      tag_143\n      jump\t// in\n    tag_235:\n        /* \"#utility.yul\":4905:5017   */\n    tag_234:\n        /* \"#utility.yul\":5026:5080   */\n      tag_236\n        /* \"#utility.yul\":5073:5079   */\n      dup5\n        /* \"#utility.yul\":5068:5071   */\n      dup3\n        /* \"#utility.yul\":5063:5066   */\n      dup6\n        /* \"#utility.yul\":5026:5080   */\n      tag_148\n      jump\t// in\n    tag_236:\n        /* \"#utility.yul\":4745:5086   */\n      pop\n        /* \"#utility.yul\":4661:5086   */\n      swap4\n      swap3\n      pop\n      pop\n      pop\n      jump\t// out\n        /* \"#utility.yul\":5106:5446   */\n    tag_150:\n        /* \"#utility.yul\":5162:5167   */\n      0x00\n        /* \"#utility.yul\":5211:5214   */\n      dup3\n        /* \"#utility.yul\":5204:5208   */\n      0x1f\n        /* \"#utility.yul\":5196:5202   */\n      dup4\n        /* \"#utility.yul\":5192:5209   */\n      add\n        /* \"#utility.yul\":5188:5215   */\n      slt\n        /* \"#utility.yul\":5178:5300   */\n      tag_238\n      jumpi\n        /* \"#utility.yul\":5219:5298   */\n      tag_239\n      tag_142\n      jump\t// in\n    tag_239:\n        /* \"#utility.yul\":5178:5300   */\n    tag_238:\n        /* \"#utility.yul\":5336:5342   */\n      dup2\n        /* \"#utility.yul\":5323:5343   */\n      calldataload\n        /* \"#utility.yul\":5361:5440   */\n      tag_240\n        /* \"#utility.yul\":5436:5439   */\n      dup5\n        /* \"#utility.yul\":5428:5434   */\n      dup3\n        /* \"#utility.yul\":5421:5425   */\n      0x20\n        /* \"#utility.yul\":5413:5419   */\n      dup7\n        /* \"#utility.yul\":5409:5426   */\n      add\n        /* \"#utility.yul\":5361:5440   */\n      tag_149\n      jump\t// in\n    tag_240:\n        /* \"#utility.yul\":5352:5440   */\n      swap2\n      pop\n        /* \"#utility.yul\":5168:5446   */\n      pop\n        /* \"#utility.yul\":5106:5446   */\n      swap3\n      swap2\n      pop\n      pop\n      jump\t// out\n        /* \"#utility.yul\":5452:6757   */\n    tag_22:\n        /* \"#utility.yul\":5568:5574   */\n      0x00\n        /* \"#utility.yul\":5576:5582   */\n      dup1\n        /* \"#utility.yul\":5584:5590   */\n      0x00\n        /* \"#utility.yul\":5592:5598   */\n      dup1\n        /* \"#utility.yul\":5641:5644   */\n      0x80\n        /* \"#utility.yul\":5629:5638   */\n      dup6\n        /* \"#utility.yul\":5620:5627   */\n      dup8\n        /* \"#utility.yul\":5616:5639   */\n      sub\n        /* \"#utility.yul\":5612:5645   */\n      slt\n        /* \"#utility.yul\":5609:5729   */\n      iszero\n      tag_242\n      jumpi\n        /* \"#utility.yul\":5648:5727   */\n      tag_243\n      tag_127\n      jump\t// in\n    tag_243:\n        /* \"#utility.yul\":5609:5729   */\n    tag_242:\n        /* \"#utility.yul\":5768:5769   */\n      0x00\n        /* \"#utility.yul\":5793:5846   */\n      tag_244\n        /* \"#utility.yul\":5838:5845   */\n      dup8\n        /* \"#utility.yul\":5829:5835   */\n      dup3\n        /* \"#utility.yul\":5818:5827   */\n      dup9\n        /* \"#utility.yul\":5814:5836   */\n      add\n        /* \"#utility.yul\":5793:5846   */\n      tag_132\n      jump\t// in\n    tag_244:\n        /* \"#utility.yul\":5783:5846   */\n      swap5\n      pop\n        /* \"#utility.yul\":5739:5856   */\n      pop\n        /* \"#utility.yul\":5923:5925   */\n      0x20\n        /* \"#utility.yul\":5912:5921   */\n      dup6\n        /* \"#utility.yul\":5908:5926   */\n      add\n        /* \"#utility.yul\":5895:5927   */\n      calldataload\n        /* \"#utility.yul\":5954:5972   */\n      0xffffffffffffffff\n        /* \"#utility.yul\":5946:5952   */\n      dup2\n        /* \"#utility.yul\":5943:5973   */\n      gt\n        /* \"#utility.yul\":5940:6057   */\n      iszero\n      tag_245\n      jumpi\n        /* \"#utility.yul\":5976:6055   */\n      tag_246\n      tag_128\n      jump\t// in\n    tag_246:\n        /* \"#utility.yul\":5940:6057   */\n    tag_245:\n        /* \"#utility.yul\":6081:6144   */\n      tag_247\n        /* \"#utility.yul\":6136:6143   */\n      dup8\n        /* \"#utility.yul\":6127:6133   */\n      dup3\n        /* \"#utility.yul\":6116:6125   */\n      dup9\n        /* \"#utility.yul\":6112:6134   */\n      add\n        /* \"#utility.yul\":6081:6144   */\n      tag_150\n      jump\t// in\n    tag_247:\n        /* \"#utility.yul\":6071:6144   */\n      swap4\n      pop\n        /* \"#utility.yul\":5866:6154   */\n      pop\n        /* \"#utility.yul\":6221:6223   */\n      0x40\n        /* \"#utility.yul\":6210:6219   */\n      dup6\n        /* \"#utility.yul\":6206:6224   */\n      add\n        /* \"#utility.yul\":6193:6225   */\n      calldataload\n        /* \"#utility.yul\":6252:6270   */\n      0xffffffffffffffff\n        /* \"#utility.yul\":6244:6250   */\n      dup2\n        /* \"#utility.yul\":6241:6271   */\n      gt\n        /* \"#utility.yul\":6238:6355   */\n      iszero\n      tag_248\n      jumpi\n        /* \"#utility.yul\":6274:6353   */\n      tag_249\n      tag_128\n      jump\t// in\n    tag_249:\n        /* \"#utility.yul\":6238:6355   */\n    tag_248:\n        /* \"#utility.yul\":6379:6442   */\n      tag_250\n        /* \"#utility.yul\":6434:6441   */\n      dup8\n        /* \"#utility.yul\":6425:6431   */\n      dup3\n        /* \"#utility.yul\":6414:6423   */\n      dup9\n        /* \"#utility.yul\":6410:6432   */\n      add\n        /* \"#utility.yul\":6379:6442   */\n      tag_150\n      jump\t// in\n    tag_250:\n        /* \"#utility.yul\":6369:6442   */\n      swap3\n      pop\n        /* \"#utility.yul\":6164:6452   */\n      pop\n        /* \"#utility.yul\":6519:6521   */\n      0x60\n        /* \"#utility.yul\":6508:6517   */\n      dup6\n        /* \"#utility.yul\":6504:6522   */\n      add\n        /* \"#utility.yul\":6491:6523   */\n      calldataload\n        /* \"#utility.yul\":6550:6568   */\n      0xffffffffffffffff\n        /* \"#utility.yul\":6542:6548   */\n      dup2\n        /* \"#utility.yul\":6539:6569   */\n      gt\n        /* \"#utility.yul\":6536:6653   */\n      iszero\n      tag_251\n      jumpi\n        /* \"#utility.yul\":6572:6651   */\n      tag_252\n      tag_128\n      jump\t// in\n    tag_252:\n        /* \"#utility.yul\":6536:6653   */\n    tag_251:\n        /* \"#utility.yul\":6677:6740   */\n      tag_253\n        /* \"#utility.yul\":6732:6739   */\n      dup8\n        /* \"#utility.yul\":6723:6729   */\n      dup3\n        /* \"#utility.yul\":6712:6721   */\n      dup9\n        /* \"#utility.yul\":6708:6730   */\n      add\n        /* \"#utility.yul\":6677:6740   */\n      tag_150\n      jump\t// in\n    tag_253:\n        /* \"#utility.yul\":6667:6740   */\n      swap2\n      pop\n        /* \"#utility.yul\":6462:6750   */\n      pop\n        /* \"#utility.yul\":5452:6757   */\n      swap3\n      swap6\n      swap2\n      swap5\n      pop\n      swap3\n      pop\n      jump\t// out\n        /* \"#utility.yul\":6763:7272   */\n    tag_26:\n        /* \"#utility.yul\":6832:6838   */\n      0x00\n        /* \"#utility.yul\":6881:6883   */\n      0x20\n        /* \"#utility.yul\":6869:6878   */\n      dup3\n        /* \"#utility.yul\":6860:6867   */\n      dup5\n        /* \"#utility.yul\":6856:6879   */\n      sub\n        /* \"#utility.yul\":6852:6884   */\n      slt\n        /* \"#utility.yul\":6849:6968   */\n      iszero\n      tag_255\n      jumpi\n        /* \"#utility.yul\":6887:6966   */\n      tag_256\n      tag_127\n      jump\t// in\n    tag_256:\n        /* \"#utility.yul\":6849:6968   */\n    tag_255:\n        /* \"#utility.yul\":7035:7036   */\n      0x00\n        /* \"#utility.yul\":7024:7033   */\n      dup3\n        /* \"#utility.yul\":7020:7037   */\n      add\n        /* \"#utility.yul\":7007:7038   */\n      calldataload\n        /* \"#utility.yul\":7065:7083   */\n      0xffffffffffffffff\n        /* \"#utility.yul\":7057:7063   */\n      dup2\n        /* \"#utility.yul\":7054:7084   */\n      gt\n        /* \"#utility.yul\":7051:7168   */\n      iszero\n      tag_257\n      jumpi\n        /* \"#utility.yul\":7087:7166   */\n      tag_258\n      tag_128\n      jump\t// in\n    tag_258:\n        /* \"#utility.yul\":7051:7168   */\n    tag_257:\n        /* \"#utility.yul\":7192:7255   */\n      tag_259\n        /* \"#utility.yul\":7247:7254   */\n      dup5\n        /* \"#utility.yul\":7238:7244   */\n      dup3\n        /* \"#utility.yul\":7227:7236   */\n      dup6\n        /* \"#utility.yul\":7223:7245   */\n      add\n        /* \"#utility.yul\":7192:7255   */\n      tag_150\n      jump\t// in\n    tag_259:\n        /* \"#utility.yul\":7182:7255   */\n      swap2\n      pop\n        /* \"#utility.yul\":6978:7265   */\n      pop\n        /* \"#utility.yul\":6763:7272   */\n      swap3\n      swap2\n      pop\n      pop\n      jump\t// out\n        /* \"#utility.yul\":7278:7993   */\n    tag_29:\n        /* \"#utility.yul\":7487:7491   */\n      0x00\n        /* \"#utility.yul\":7525:7527   */\n      0x60\n        /* \"#utility.yul\":7514:7523   */\n      dup3\n        /* \"#utility.yul\":7510:7528   */\n      add\n        /* \"#utility.yul\":7502:7528   */\n      swap1\n      pop\n        /* \"#utility.yul\":7574:7583   */\n      dup2\n        /* \"#utility.yul\":7568:7572   */\n      dup2\n        /* \"#utility.yul\":7564:7584   */\n      sub\n        /* \"#utility.yul\":7560:7561   */\n      0x00\n        /* \"#utility.yul\":7549:7558   */\n      dup4\n        /* \"#utility.yul\":7545:7562   */\n      add\n        /* \"#utility.yul\":7538:7585   */\n      mstore\n        /* \"#utility.yul\":7602:7680   */\n      tag_261\n        /* \"#utility.yul\":7675:7679   */\n      dup2\n        /* \"#utility.yul\":7666:7672   */\n      dup7\n        /* \"#utility.yul\":7602:7680   */\n      tag_137\n      jump\t// in\n    tag_261:\n        /* \"#utility.yul\":7594:7680   */\n      swap1\n      pop\n        /* \"#utility.yul\":7727:7736   */\n      dup2\n        /* \"#utility.yul\":7721:7725   */\n      dup2\n        /* \"#utility.yul\":7717:7737   */\n      sub\n        /* \"#utility.yul\":7712:7714   */\n      0x20\n        /* \"#utility.yul\":7701:7710   */\n      dup4\n        /* \"#utility.yul\":7697:7715   */\n      add\n        /* \"#utility.yul\":7690:7738   */\n      mstore\n        /* \"#utility.yul\":7755:7833   */\n      tag_262\n        /* \"#utility.yul\":7828:7832   */\n      dup2\n        /* \"#utility.yul\":7819:7825   */\n      dup6\n        /* \"#utility.yul\":7755:7833   */\n      tag_137\n      jump\t// in\n    tag_262:\n        /* \"#utility.yul\":7747:7833   */\n      swap1\n      pop\n        /* \"#utility.yul\":7880:7889   */\n      dup2\n        /* \"#utility.yul\":7874:7878   */\n      dup2\n        /* \"#utility.yul\":7870:7890   */\n      sub\n        /* \"#utility.yul\":7865:7867   */\n      0x40\n        /* \"#utility.yul\":7854:7863   */\n      dup4\n        /* \"#utility.yul\":7850:7868   */\n      add\n        /* \"#utility.yul\":7843:7891   */\n      mstore\n        /* \"#utility.yul\":7908:7986   */\n      tag_263\n        /* \"#utility.yul\":7981:7985   */\n      dup2\n        /* \"#utility.yul\":7972:7978   */\n      dup5\n        /* \"#utility.yul\":7908:7986   */\n      tag_137\n      jump\t// in\n    tag_263:\n        /* \"#utility.yul\":7900:7986   */\n      swap1\n      pop\n        /* \"#utility.yul\":7278:7993   */\n      swap5\n      swap4\n      pop\n      pop\n      pop\n      pop\n      jump\t// out\n        /* \"#utility.yul\":7999:8978   */\n    tag_35:\n        /* \"#utility.yul\":8096:8102   */\n      0x00\n        /* \"#utility.yul\":8104:8110   */\n      dup1\n        /* \"#utility.yul\":8112:8118   */\n      0x00\n        /* \"#utility.yul\":8161:8163   */\n      0x60\n        /* \"#utility.yul\":8149:8158   */\n      dup5\n        /* \"#utility.yul\":8140:8147   */\n      dup7\n        /* \"#utility.yul\":8136:8159   */\n      sub\n        /* \"#utility.yul\":8132:8164   */\n      slt\n        /* \"#utility.yul\":8129:8248   */\n      iszero\n      tag_265\n      jumpi\n        /* \"#utility.yul\":8167:8246   */\n      tag_266\n      tag_127\n      jump\t// in\n    tag_266:\n        /* \"#utility.yul\":8129:8248   */\n    tag_265:\n        /* \"#utility.yul\":8315:8316   */\n      0x00\n        /* \"#utility.yul\":8304:8313   */\n      dup5\n        /* \"#utility.yul\":8300:8317   */\n      add\n        /* \"#utility.yul\":8287:8318   */\n      calldataload\n        /* \"#utility.yul\":8345:8363   */\n      0xffffffffffffffff\n        /* \"#utility.yul\":8337:8343   */\n      dup2\n        /* \"#utility.yul\":8334:8364   */\n      gt\n        /* \"#utility.yul\":8331:8448   */\n      iszero\n      tag_267\n      jumpi\n        /* \"#utility.yul\":8367:8446   */\n      tag_268\n      tag_128\n      jump\t// in\n    tag_268:\n        /* \"#utility.yul\":8331:8448   */\n    tag_267:\n        /* \"#utility.yul\":8472:8535   */\n      tag_269\n        /* \"#utility.yul\":8527:8534   */\n      dup7\n        /* \"#utility.yul\":8518:8524   */\n      dup3\n        /* \"#utility.yul\":8507:8516   */\n      dup8\n        /* \"#utility.yul\":8503:8525   */\n      add\n        /* \"#utility.yul\":8472:8535   */\n      tag_150\n      jump\t// in\n    tag_269:\n        /* \"#utility.yul\":8462:8535   */\n      swap4\n      pop\n        /* \"#utility.yul\":8258:8545   */\n      pop\n        /* \"#utility.yul\":8612:8614   */\n      0x20\n        /* \"#utility.yul\":8601:8610   */\n      dup5\n        /* \"#utility.yul\":8597:8615   */\n      add\n        /* \"#utility.yul\":8584:8616   */\n      calldataload\n        /* \"#utility.yul\":8643:8661   */\n      0xffffffffffffffff\n        /* \"#utility.yul\":8635:8641   */\n      dup2\n        /* \"#utility.yul\":8632:8662   */\n      gt\n        /* \"#utility.yul\":8629:8746   */\n      iszero\n      tag_270\n      jumpi\n        /* \"#utility.yul\":8665:8744   */\n      tag_271\n      tag_128\n      jump\t// in\n    tag_271:\n        /* \"#utility.yul\":8629:8746   */\n    tag_270:\n        /* \"#utility.yul\":8770:8833   */\n      tag_272\n        /* \"#utility.yul\":8825:8832   */\n      dup7\n        /* \"#utility.yul\":8816:8822   */\n      dup3\n        /* \"#utility.yul\":8805:8814   */\n      dup8\n        /* \"#utility.yul\":8801:8823   */\n      add\n        /* \"#utility.yul\":8770:8833   */\n      tag_150\n      jump\t// in\n    tag_272:\n        /* \"#utility.yul\":8760:8833   */\n      swap3\n      pop\n        /* \"#utility.yul\":8555:8843   */\n      pop\n        /* \"#utility.yul\":8882:8884   */\n      0x40\n        /* \"#utility.yul\":8908:8961   */\n      tag_273\n        /* \"#utility.yul\":8953:8960   */\n      dup7\n        /* \"#utility.yul\":8944:8950   */\n      dup3\n        /* \"#utility.yul\":8933:8942   */\n      dup8\n        /* \"#utility.yul\":8929:8951   */\n      add\n        /* \"#utility.yul\":8908:8961   */\n      tag_132\n      jump\t// in\n    tag_273:\n        /* \"#utility.yul\":8898:8961   */\n      swap2\n      pop\n        /* \"#utility.yul\":8853:8971   */\n      pop\n        /* \"#utility.yul\":7999:8978   */\n      swap3\n      pop\n      swap3\n      pop\n      swap3\n      jump\t// out\n        /* \"#utility.yul\":8984:9963   */\n    tag_39:\n        /* \"#utility.yul\":9081:9087   */\n      0x00\n        /* \"#utility.yul\":9089:9095   */\n      dup1\n        /* \"#utility.yul\":9097:9103   */\n      0x00\n        /* \"#utility.yul\":9146:9148   */\n      0x60\n        /* \"#utility.yul\":9134:9143   */\n      dup5\n        /* \"#utility.yul\":9125:9132   */\n      dup7\n        /* \"#utility.yul\":9121:9144   */\n      sub\n        /* \"#utility.yul\":9117:9149   */\n      slt\n        /* \"#utility.yul\":9114:9233   */\n      iszero\n      tag_275\n      jumpi\n        /* \"#utility.yul\":9152:9231   */\n      tag_276\n      tag_127\n      jump\t// in\n    tag_276:\n        /* \"#utility.yul\":9114:9233   */\n    tag_275:\n        /* \"#utility.yul\":9272:9273   */\n      0x00\n        /* \"#utility.yul\":9297:9350   */\n      tag_277\n        /* \"#utility.yul\":9342:9349   */\n      dup7\n        /* \"#utility.yul\":9333:9339   */\n      dup3\n        /* \"#utility.yul\":9322:9331   */\n      dup8\n        /* \"#utility.yul\":9318:9340   */\n      add\n        /* \"#utility.yul\":9297:9350   */\n      tag_132\n      jump\t// in\n    tag_277:\n        /* \"#utility.yul\":9287:9350   */\n      swap4\n      pop\n        /* \"#utility.yul\":9243:9360   */\n      pop\n        /* \"#utility.yul\":9427:9429   */\n      0x20\n        /* \"#utility.yul\":9416:9425   */\n      dup5\n        /* \"#utility.yul\":9412:9430   */\n      add\n        /* \"#utility.yul\":9399:9431   */\n      calldataload\n        /* \"#utility.yul\":9458:9476   */\n      0xffffffffffffffff\n        /* \"#utility.yul\":9450:9456   */\n      dup2\n        /* \"#utility.yul\":9447:9477   */\n      gt\n        /* \"#utility.yul\":9444:9561   */\n      iszero\n      tag_278\n      jumpi\n        /* \"#utility.yul\":9480:9559   */\n      tag_279\n      tag_128\n      jump\t// in\n    tag_279:\n        /* \"#utility.yul\":9444:9561   */\n    tag_278:\n        /* \"#utility.yul\":9585:9648   */\n      tag_280\n        /* \"#utility.yul\":9640:9647   */\n      dup7\n        /* \"#utility.yul\":9631:9637   */\n      dup3\n        /* \"#utility.yul\":9620:9629   */\n      dup8\n        /* \"#utility.yul\":9616:9638   */\n      add\n        /* \"#utility.yul\":9585:9648   */\n      tag_150\n      jump\t// in\n    tag_280:\n        /* \"#utility.yul\":9575:9648   */\n      swap3\n      pop\n        /* \"#utility.yul\":9370:9658   */\n      pop\n        /* \"#utility.yul\":9725:9727   */\n      0x40\n        /* \"#utility.yul\":9714:9723   */\n      dup5\n        /* \"#utility.yul\":9710:9728   */\n      add\n        /* \"#utility.yul\":9697:9729   */\n      calldataload\n        /* \"#utility.yul\":9756:9774   */\n      0xffffffffffffffff\n        /* \"#utility.yul\":9748:9754   */\n      dup2\n        /* \"#utility.yul\":9745:9775   */\n      gt\n        /* \"#utility.yul\":9742:9859   */\n      iszero\n      tag_281\n      jumpi\n        /* \"#utility.yul\":9778:9857   */\n      tag_282\n      tag_128\n      jump\t// in\n    tag_282:\n        /* \"#utility.yul\":9742:9859   */\n    tag_281:\n        /* \"#utility.yul\":9883:9946   */\n      tag_283\n        /* \"#utility.yul\":9938:9945   */\n      dup7\n        /* \"#utility.yul\":9929:9935   */\n      dup3\n        /* \"#utility.yul\":9918:9927   */\n      dup8\n        /* \"#utility.yul\":9914:9936   */\n      add\n        /* \"#utility.yul\":9883:9946   */\n      tag_150\n      jump\t// in\n    tag_283:\n        /* \"#utility.yul\":9873:9946   */\n      swap2\n      pop\n        /* \"#utility.yul\":9668:9956   */\n      pop\n        /* \"#utility.yul\":8984:9963   */\n      swap3\n      pop\n      swap3\n      pop\n      swap3\n      jump\t// out\n        /* \"#utility.yul\":9969:10202   */\n    tag_151:\n        /* \"#utility.yul\":10109:10143   */\n      0x4f6e6c7920556e69766572736974792041444d494e2063616e20706572666f72\n        /* \"#utility.yul\":10105:10106   */\n      0x00\n        /* \"#utility.yul\":10097:10103   */\n      dup3\n        /* \"#utility.yul\":10093:10107   */\n      add\n        /* \"#utility.yul\":10086:10144   */\n      mstore\n        /* \"#utility.yul\":10178:10194   */\n      0x6d207468697320616374696f6e21000000000000000000000000000000000000\n        /* \"#utility.yul\":10173:10175   */\n      0x20\n        /* \"#utility.yul\":10165:10171   */\n      dup3\n        /* \"#utility.yul\":10161:10176   */\n      add\n        /* \"#utility.yul\":10154:10195   */\n      mstore\n        /* \"#utility.yul\":9969:10202   */\n      pop\n      jump\t// out\n        /* \"#utility.yul\":10208:10574   */\n    tag_152:\n        /* \"#utility.yul\":10350:10353   */\n      0x00\n        /* \"#utility.yul\":10371:10438   */\n      tag_286\n        /* \"#utility.yul\":10435:10437   */\n      0x2e\n        /* \"#utility.yul\":10430:10433   */\n      dup4\n        /* \"#utility.yul\":10371:10438   */\n      tag_134\n      jump\t// in\n    tag_286:\n        /* \"#utility.yul\":10364:10438   */\n      swap2\n      pop\n        /* \"#utility.yul\":10447:10540   */\n      tag_287\n        /* \"#utility.yul\":10536:10539   */\n      dup3\n        /* \"#utility.yul\":10447:10540   */\n      tag_151\n      jump\t// in\n    tag_287:\n        /* \"#utility.yul\":10565:10567   */\n      0x40\n        /* \"#utility.yul\":10560:10563   */\n      dup3\n        /* \"#utility.yul\":10556:10568   */\n      add\n        /* \"#utility.yul\":10549:10568   */\n      swap1\n      pop\n        /* \"#utility.yul\":10208:10574   */\n      swap2\n      swap1\n      pop\n      jump\t// out\n        /* \"#utility.yul\":10580:10999   */\n    tag_44:\n        /* \"#utility.yul\":10746:10750   */\n      0x00\n        /* \"#utility.yul\":10784:10786   */\n      0x20\n        /* \"#utility.yul\":10773:10782   */\n      dup3\n        /* \"#utility.yul\":10769:10787   */\n      add\n        /* \"#utility.yul\":10761:10787   */\n      swap1\n      pop\n        /* \"#utility.yul\":10833:10842   */\n      dup2\n        /* \"#utility.yul\":10827:10831   */\n      dup2\n        /* \"#utility.yul\":10823:10843   */\n      sub\n        /* \"#utility.yul\":10819:10820   */\n      0x00\n        /* \"#utility.yul\":10808:10817   */\n      dup4\n        /* \"#utility.yul\":10804:10821   */\n      add\n        /* \"#utility.yul\":10797:10844   */\n      mstore\n        /* \"#utility.yul\":10861:10992   */\n      tag_289\n        /* \"#utility.yul\":10987:10991   */\n      dup2\n        /* \"#utility.yul\":10861:10992   */\n      tag_152\n      jump\t// in\n    tag_289:\n        /* \"#utility.yul\":10853:10992   */\n      swap1\n      pop\n        /* \"#utility.yul\":10580:10999   */\n      swap2\n      swap1\n      pop\n      jump\t// out\n        /* \"#utility.yul\":11005:11254   */\n    tag_153:\n        /* \"#utility.yul\":11145:11179   */\n      0x4f6e6c7920556e6976657273697479206f722053616d6520636f6c6c65676520\n        /* \"#utility.yul\":11141:11142   */\n      0x00\n        /* \"#utility.yul\":11133:11139   */\n      dup3\n        /* \"#utility.yul\":11129:11143   */\n      add\n        /* \"#utility.yul\":11122:11180   */\n      mstore\n        /* \"#utility.yul\":11214:11246   */\n      0x41444d494e2063616e20706572666f726d207468697320616374696f6e210000\n        /* \"#utility.yul\":11209:11211   */\n      0x20\n        /* \"#utility.yul\":11201:11207   */\n      dup3\n        /* \"#utility.yul\":11197:11212   */\n      add\n        /* \"#utility.yul\":11190:11247   */\n      mstore\n        /* \"#utility.yul\":11005:11254   */\n      pop\n      jump\t// out\n        /* \"#utility.yul\":11260:11626   */\n    tag_154:\n        /* \"#utility.yul\":11402:11405   */\n      0x00\n        /* \"#utility.yul\":11423:11490   */\n      tag_292\n        /* \"#utility.yul\":11487:11489   */\n      0x3e\n        /* \"#utility.yul\":11482:11485   */\n      dup4\n        /* \"#utility.yul\":11423:11490   */\n      tag_134\n      jump\t// in\n    tag_292:\n        /* \"#utility.yul\":11416:11490   */\n      swap2\n      pop\n        /* \"#utility.yul\":11499:11592   */\n      tag_293\n        /* \"#utility.yul\":11588:11591   */\n      dup3\n        /* \"#utility.yul\":11499:11592   */\n      tag_153\n      jump\t// in\n    tag_293:\n        /* \"#utility.yul\":11617:11619   */\n      0x40\n        /* \"#utility.yul\":11612:11615   */\n      dup3\n        /* \"#utility.yul\":11608:11620   */\n      add\n        /* \"#utility.yul\":11601:11620   */\n      swap1\n      pop\n        /* \"#utility.yul\":11260:11626   */\n      swap2\n      swap1\n      pop\n      jump\t// out\n        /* \"#utility.yul\":11632:12051   */\n    tag_50:\n        /* \"#utility.yul\":11798:11802   */\n      0x00\n        /* \"#utility.yul\":11836:11838   */\n      0x20\n        /* \"#utility.yul\":11825:11834   */\n      dup3\n        /* \"#utility.yul\":11821:11839   */\n      add\n        /* \"#utility.yul\":11813:11839   */\n      swap1\n      pop\n        /* \"#utility.yul\":11885:11894   */\n      dup2\n        /* \"#utility.yul\":11879:11883   */\n      dup2\n        /* \"#utility.yul\":11875:11895   */\n      sub\n        /* \"#utility.yul\":11871:11872   */\n      0x00\n        /* \"#utility.yul\":11860:11869   */\n      dup4\n        /* \"#utility.yul\":11856:11873   */\n      add\n        /* \"#utility.yul\":11849:11896   */\n      mstore\n        /* \"#utility.yul\":11913:12044   */\n      tag_295\n        /* \"#utility.yul\":12039:12043   */\n      dup2\n        /* \"#utility.yul\":11913:12044   */\n      tag_154\n      jump\t// in\n    tag_295:\n        /* \"#utility.yul\":11905:12044   */\n      swap1\n      pop\n        /* \"#utility.yul\":11632:12051   */\n      swap2\n      swap1\n      pop\n      jump\t// out\n        /* \"#utility.yul\":12057:12237   */\n    tag_155:\n        /* \"#utility.yul\":12105:12182   */\n      0x4e487b7100000000000000000000000000000000000000000000000000000000\n        /* \"#utility.yul\":12102:12103   */\n      0x00\n        /* \"#utility.yul\":12095:12183   */\n      mstore\n        /* \"#utility.yul\":12202:12206   */\n      0x22\n        /* \"#utility.yul\":12199:12200   */\n      0x04\n        /* \"#utility.yul\":12192:12207   */\n      mstore\n        /* \"#utility.yul\":12226:12230   */\n      0x24\n        /* \"#utility.yul\":12223:12224   */\n      0x00\n        /* \"#utility.yul\":12216:12231   */\n      revert\n        /* \"#utility.yul\":12243:12563   */\n    tag_53:\n        /* \"#utility.yul\":12287:12293   */\n      0x00\n        /* \"#utility.yul\":12324:12325   */\n      0x02\n        /* \"#utility.yul\":12318:12322   */\n      dup3\n        /* \"#utility.yul\":12314:12326   */\n      div\n        /* \"#utility.yul\":12304:12326   */\n      swap1\n      pop\n        /* \"#utility.yul\":12371:12372   */\n      0x01\n        /* \"#utility.yul\":12365:12369   */\n      dup3\n        /* \"#utility.yul\":12361:12373   */\n      and\n        /* \"#utility.yul\":12392:12410   */\n      dup1\n        /* \"#utility.yul\":12382:12463   */\n      tag_298\n      jumpi\n        /* \"#utility.yul\":12448:12452   */\n      0x7f\n        /* \"#utility.yul\":12440:12446   */\n      dup3\n        /* \"#utility.yul\":12436:12453   */\n      and\n        /* \"#utility.yul\":12426:12453   */\n      swap2\n      pop\n        /* \"#utility.yul\":12382:12463   */\n    tag_298:\n        /* \"#utility.yul\":12510:12512   */\n      0x20\n        /* \"#utility.yul\":12502:12508   */\n      dup3\n        /* \"#utility.yul\":12499:12513   */\n      lt\n        /* \"#utility.yul\":12479:12497   */\n      dup2\n        /* \"#utility.yul\":12476:12514   */\n      sub\n        /* \"#utility.yul\":12473:12557   */\n      tag_299\n      jumpi\n        /* \"#utility.yul\":12529:12547   */\n      tag_300\n      tag_155\n      jump\t// in\n    tag_300:\n        /* \"#utility.yul\":12473:12557   */\n    tag_299:\n        /* \"#utility.yul\":12294:12563   */\n      pop\n        /* \"#utility.yul\":12243:12563   */\n      swap2\n      swap1\n      pop\n      jump\t// out\n        /* \"#utility.yul\":12569:12801   */\n    tag_156:\n        /* \"#utility.yul\":12709:12743   */\n      0x436f6c6c656765206973206e6f7420617574686f72697a656420746f20616464\n        /* \"#utility.yul\":12705:12706   */\n      0x00\n        /* \"#utility.yul\":12697:12703   */\n      dup3\n        /* \"#utility.yul\":12693:12707   */\n      add\n        /* \"#utility.yul\":12686:12744   */\n      mstore\n        /* \"#utility.yul\":12778:12793   */\n      0x206e65772053747564656e742100000000000000000000000000000000000000\n        /* \"#utility.yul\":12773:12775   */\n      0x20\n        /* \"#utility.yul\":12765:12771   */\n      dup3\n        /* \"#utility.yul\":12761:12776   */\n      add\n        /* \"#utility.yul\":12754:12794   */\n      mstore\n        /* \"#utility.yul\":12569:12801   */\n      pop\n      jump\t// out\n        /* \"#utility.yul\":12807:13173   */\n    tag_157:\n        /* \"#utility.yul\":12949:12952   */\n      0x00\n        /* \"#utility.yul\":12970:13037   */\n      tag_303\n        /* \"#utility.yul\":13034:13036   */\n      0x2d\n        /* \"#utility.yul\":13029:13032   */\n      dup4\n        /* \"#utility.yul\":12970:13037   */\n      tag_134\n      jump\t// in\n    tag_303:\n        /* \"#utility.yul\":12963:13037   */\n      swap2\n      pop\n        /* \"#utility.yul\":13046:13139   */\n      tag_304\n        /* \"#utility.yul\":13135:13138   */\n      dup3\n        /* \"#utility.yul\":13046:13139   */\n      tag_156\n      jump\t// in\n    tag_304:\n        /* \"#utility.yul\":13164:13166   */\n      0x40\n        /* \"#utility.yul\":13159:13162   */\n      dup3\n        /* \"#utility.yul\":13155:13167   */\n      add\n        /* \"#utility.yul\":13148:13167   */\n      swap1\n      pop\n        /* \"#utility.yul\":12807:13173   */\n      swap2\n      swap1\n      pop\n      jump\t// out\n        /* \"#utility.yul\":13179:13598   */\n    tag_70:\n        /* \"#utility.yul\":13345:13349   */\n      0x00\n        /* \"#utility.yul\":13383:13385   */\n      0x20\n        /* \"#utility.yul\":13372:13381   */\n      dup3\n        /* \"#utility.yul\":13368:13386   */\n      add\n        /* \"#utility.yul\":13360:13386   */\n      swap1\n      pop\n        /* \"#utility.yul\":13432:13441   */\n      dup2\n        /* \"#utility.yul\":13426:13430   */\n      dup2\n        /* \"#utility.yul\":13422:13442   */\n      sub\n        /* \"#utility.yul\":13418:13419   */\n      0x00\n        /* \"#utility.yul\":13407:13416   */\n      dup4\n        /* \"#utility.yul\":13403:13420   */\n      add\n        /* \"#utility.yul\":13396:13443   */\n      mstore\n        /* \"#utility.yul\":13460:13591   */\n      tag_306\n        /* \"#utility.yul\":13586:13590   */\n      dup2\n        /* \"#utility.yul\":13460:13591   */\n      tag_157\n      jump\t// in\n    tag_306:\n        /* \"#utility.yul\":13452:13591   */\n      swap1\n      pop\n        /* \"#utility.yul\":13179:13598   */\n      swap2\n      swap1\n      pop\n      jump\t// out\n        /* \"#utility.yul\":13604:13752   */\n    tag_158:\n        /* \"#utility.yul\":13706:13717   */\n      0x00\n        /* \"#utility.yul\":13743:13746   */\n      dup2\n        /* \"#utility.yul\":13728:13746   */\n      swap1\n      pop\n        /* \"#utility.yul\":13604:13752   */\n      swap3\n      swap2\n      pop\n      pop\n      jump\t// out\n        /* \"#utility.yul\":13758:14148   */\n    tag_159:\n        /* \"#utility.yul\":13864:13867   */\n      0x00\n        /* \"#utility.yul\":13892:13931   */\n      tag_309\n        /* \"#utility.yul\":13925:13930   */\n      dup3\n        /* \"#utility.yul\":13892:13931   */\n      tag_133\n      jump\t// in\n    tag_309:\n        /* \"#utility.yul\":13947:14036   */\n      tag_310\n        /* \"#utility.yul\":14029:14035   */\n      dup2\n        /* \"#utility.yul\":14024:14027   */\n      dup6\n        /* \"#utility.yul\":13947:14036   */\n      tag_158\n      jump\t// in\n    tag_310:\n        /* \"#utility.yul\":13940:14036   */\n      swap4\n      pop\n        /* \"#utility.yul\":14045:14110   */\n      tag_311\n        /* \"#utility.yul\":14103:14109   */\n      dup2\n        /* \"#utility.yul\":14098:14101   */\n      dup6\n        /* \"#utility.yul\":14091:14095   */\n      0x20\n        /* \"#utility.yul\":14084:14089   */\n      dup7\n        /* \"#utility.yul\":14080:14096   */\n      add\n        /* \"#utility.yul\":14045:14110   */\n      tag_135\n      jump\t// in\n    tag_311:\n        /* \"#utility.yul\":14135:14141   */\n      dup1\n        /* \"#utility.yul\":14130:14133   */\n      dup5\n        /* \"#utility.yul\":14126:14142   */\n      add\n        /* \"#utility.yul\":14119:14142   */\n      swap2\n      pop\n        /* \"#utility.yul\":13868:14148   */\n      pop\n        /* \"#utility.yul\":13758:14148   */\n      swap3\n      swap2\n      pop\n      pop\n      jump\t// out\n        /* \"#utility.yul\":14154:14429   */\n    tag_73:\n        /* \"#utility.yul\":14286:14289   */\n      0x00\n        /* \"#utility.yul\":14308:14403   */\n      tag_313\n        /* \"#utility.yul\":14399:14402   */\n      dup3\n        /* \"#utility.yul\":14390:14396   */\n      dup5\n        /* \"#utility.yul\":14308:14403   */\n      tag_159\n      jump\t// in\n    tag_313:\n        /* \"#utility.yul\":14301:14403   */\n      swap2\n      pop\n        /* \"#utility.yul\":14420:14423   */\n      dup2\n        /* \"#utility.yul\":14413:14423   */\n      swap1\n      pop\n        /* \"#utility.yul\":14154:14429   */\n      swap3\n      swap2\n      pop\n      pop\n      jump\t// out\n        /* \"#utility.yul\":14435:14576   */\n    tag_160:\n        /* \"#utility.yul\":14484:14488   */\n      0x00\n        /* \"#utility.yul\":14507:14510   */\n      dup2\n        /* \"#utility.yul\":14499:14510   */\n      swap1\n      pop\n        /* \"#utility.yul\":14530:14533   */\n      dup2\n        /* \"#utility.yul\":14527:14528   */\n      0x00\n        /* \"#utility.yul\":14520:14534   */\n      mstore\n        /* \"#utility.yul\":14564:14568   */\n      0x20\n        /* \"#utility.yul\":14561:14562   */\n      0x00\n        /* \"#utility.yul\":14551:14569   */\n      keccak256\n        /* \"#utility.yul\":14543:14569   */\n      swap1\n      pop\n        /* \"#utility.yul\":14435:14576   */\n      swap2\n      swap1\n      pop\n      jump\t// out\n        /* \"#utility.yul\":14582:14675   */\n    tag_161:\n        /* \"#utility.yul\":14619:14625   */\n      0x00\n        /* \"#utility.yul\":14666:14668   */\n      0x20\n        /* \"#utility.yul\":14661:14663   */\n      0x1f\n        /* \"#utility.yul\":14654:14659   */\n      dup4\n        /* \"#utility.yul\":14650:14664   */\n      add\n        /* \"#utility.yul\":14646:14669   */\n      div\n        /* \"#utility.yul\":14636:14669   */\n      swap1\n      pop\n        /* \"#utility.yul\":14582:14675   */\n      swap2\n      swap1\n      pop\n      jump\t// out\n        /* \"#utility.yul\":14681:14788   */\n    tag_162:\n        /* \"#utility.yul\":14725:14733   */\n      0x00\n        /* \"#utility.yul\":14775:14780   */\n      dup3\n        /* \"#utility.yul\":14769:14773   */\n      dup3\n        /* \"#utility.yul\":14765:14781   */\n      shl\n        /* \"#utility.yul\":14744:14781   */\n      swap1\n      pop\n        /* \"#utility.yul\":14681:14788   */\n      swap3\n      swap2\n      pop\n      pop\n      jump\t// out\n        /* \"#utility.yul\":14794:15187   */\n    tag_163:\n        /* \"#utility.yul\":14863:14869   */\n      0x00\n        /* \"#utility.yul\":14913:14914   */\n      0x08\n        /* \"#utility.yul\":14901:14911   */\n      dup4\n        /* \"#utility.yul\":14897:14915   */\n      mul\n        /* \"#utility.yul\":14936:15033   */\n      tag_318\n        /* \"#utility.yul\":14966:15032   */\n      0xffffffffffffffffffffffffffffffffffffffffffffffffffffffffffffffff\n        /* \"#utility.yul\":14955:14964   */\n      dup3\n        /* \"#utility.yul\":14936:15033   */\n      tag_162\n      jump\t// in\n    tag_318:\n        /* \"#utility.yul\":15054:15093   */\n      tag_319\n        /* \"#utility.yul\":15084:15092   */\n      dup7\n        /* \"#utility.yul\":15073:15082   */\n      dup4\n        /* \"#utility.yul\":15054:15093   */\n      tag_162\n      jump\t// in\n    tag_319:\n        /* \"#utility.yul\":15042:15093   */\n      swap6\n      pop\n        /* \"#utility.yul\":15126:15130   */\n      dup1\n        /* \"#utility.yul\":15122:15131   */\n      not\n        /* \"#utility.yul\":15115:15120   */\n      dup5\n        /* \"#utility.yul\":15111:15132   */\n      and\n        /* \"#utility.yul\":15102:15132   */\n      swap4\n      pop\n        /* \"#utility.yul\":15175:15179   */\n      dup1\n        /* \"#utility.yul\":15165:15173   */\n      dup7\n        /* \"#utility.yul\":15161:15180   */\n      and\n        /* \"#utility.yul\":15154:15159   */\n      dup5\n        /* \"#utility.yul\":15151:15181   */\n      or\n        /* \"#utility.yul\":15141:15181   */\n      swap3\n      pop\n        /* \"#utility.yul\":14870:15187   */\n      pop\n      pop\n        /* \"#utility.yul\":14794:15187   */\n      swap4\n      swap3\n      pop\n      pop\n      pop\n      jump\t// out\n        /* \"#utility.yul\":15193:15270   */\n    tag_164:\n        /* \"#utility.yul\":15230:15237   */\n      0x00\n        /* \"#utility.yul\":15259:15264   */\n      dup2\n        /* \"#utility.yul\":15248:15264   */\n      swap1\n      pop\n        /* \"#utility.yul\":15193:15270   */\n      swap2\n      swap1\n      pop\n      jump\t// out\n        /* \"#utility.yul\":15276:15336   */\n    tag_165:\n        /* \"#utility.yul\":15304:15307   */\n      0x00\n        /* \"#utility.yul\":15325:15330   */\n      dup2\n        /* \"#utility.yul\":15318:15330   */\n      swap1\n      pop\n        /* \"#utility.yul\":15276:15336   */\n      swap2\n      swap1\n      pop\n      jump\t// out\n        /* \"#utility.yul\":15342:15484   */\n    tag_166:\n        /* \"#utility.yul\":15392:15401   */\n      0x00\n        /* \"#utility.yul\":15425:15478   */\n      tag_323\n        /* \"#utility.yul\":15443:15477   */\n      tag_324\n        /* \"#utility.yul\":15452:15476   */\n      tag_325\n        /* \"#utility.yul\":15470:15475   */\n      dup5\n        /* \"#utility.yul\":15452:15476   */\n      tag_164\n      jump\t// in\n    tag_325:\n        /* \"#utility.yul\":15443:15477   */\n      tag_165\n      jump\t// in\n    tag_324:\n        /* \"#utility.yul\":15425:15478   */\n      tag_164\n      jump\t// in\n    tag_323:\n        /* \"#utility.yul\":15412:15478   */\n      swap1\n      pop\n        /* \"#utility.yul\":15342:15484   */\n      swap2\n      swap1\n      pop\n      jump\t// out\n        /* \"#utility.yul\":15490:15565   */\n    tag_167:\n        /* \"#utility.yul\":15533:15536   */\n      0x00\n        /* \"#utility.yul\":15554:15559   */\n      dup2\n        /* \"#utility.yul\":15547:15559   */\n      swap1\n      pop\n        /* \"#utility.yul\":15490:15565   */\n      swap2\n      swap1\n      pop\n      jump\t// out\n        /* \"#utility.yul\":15571:15840   */\n    tag_168:\n        /* \"#utility.yul\":15681:15720   */\n      tag_328\n        /* \"#utility.yul\":15712:15719   */\n      dup4\n        /* \"#utility.yul\":15681:15720   */\n      tag_166\n      jump\t// in\n    tag_328:\n        /* \"#utility.yul\":15742:15833   */\n      tag_329\n        /* \"#utility.yul\":15791:15832   */\n      tag_330\n        /* \"#utility.yul\":15815:15831   */\n      dup3\n        /* \"#utility.yul\":15791:15832   */\n      tag_167\n      jump\t// in\n    tag_330:\n        /* \"#utility.yul\":15783:15789   */\n      dup5\n        /* \"#utility.yul\":15776:15780   */\n      dup5\n        /* \"#utility.yul\":15770:15781   */\n      sload\n        /* \"#utility.yul\":15742:15833   */\n      tag_163\n      jump\t// in\n    tag_329:\n        /* \"#utility.yul\":15736:15740   */\n      dup3\n        /* \"#utility.yul\":15729:15834   */\n      sstore\n        /* \"#utility.yul\":15647:15840   */\n      pop\n        /* \"#utility.yul\":15571:15840   */\n      pop\n      pop\n      pop\n      jump\t// out\n        /* \"#utility.yul\":15846:15919   */\n    tag_169:\n        /* \"#utility.yul\":15891:15894   */\n      0x00\n        /* \"#utility.yul\":15846:15919   */\n      swap1\n      jump\t// out\n        /* \"#utility.yul\":15925:16114   */\n    tag_170:\n        /* \"#utility.yul\":16002:16034   */\n      tag_333\n      tag_169\n      jump\t// in\n    tag_333:\n        /* \"#utility.yul\":16043:16108   */\n      tag_334\n        /* \"#utility.yul\":16101:16107   */\n      dup2\n        /* \"#utility.yul\":16093:16099   */\n      dup5\n        /* \"#utility.yul\":16087:16091   */\n      dup5\n        /* \"#utility.yul\":16043:16108   */\n      tag_168\n      jump\t// in\n    tag_334:\n        /* \"#utility.yul\":15978:16114   */\n      pop\n        /* \"#utility.yul\":15925:16114   */\n      pop\n      pop\n      jump\t// out\n        /* \"#utility.yul\":16120:16306   */\n    tag_171:\n        /* \"#utility.yul\":16180:16300   */\n    tag_336:\n        /* \"#utility.yul\":16197:16200   */\n      dup2\n        /* \"#utility.yul\":16190:16195   */\n      dup2\n        /* \"#utility.yul\":16187:16201   */\n      lt\n        /* \"#utility.yul\":16180:16300   */\n      iszero\n      tag_338\n      jumpi\n        /* \"#utility.yul\":16251:16290   */\n      tag_339\n        /* \"#utility.yul\":16288:16289   */\n      0x00\n        /* \"#utility.yul\":16281:16286   */\n      dup3\n        /* \"#utility.yul\":16251:16290   */\n      tag_170\n      jump\t// in\n    tag_339:\n        /* \"#utility.yul\":16224:16225   */\n      0x01\n        /* \"#utility.yul\":16217:16222   */\n      dup2\n        /* \"#utility.yul\":16213:16226   */\n      add\n        /* \"#utility.yul\":16204:16226   */\n      swap1\n      pop\n        /* \"#utility.yul\":16180:16300   */\n      jump(tag_336)\n    tag_338:\n        /* \"#utility.yul\":16120:16306   */\n      pop\n      pop\n      jump\t// out\n        /* \"#utility.yul\":16312:16855   */\n    tag_172:\n        /* \"#utility.yul\":16413:16415   */\n      0x1f\n        /* \"#utility.yul\":16408:16411   */\n      dup3\n        /* \"#utility.yul\":16405:16416   */\n      gt\n        /* \"#utility.yul\":16402:16848   */\n      iszero\n      tag_341\n      jumpi\n        /* \"#utility.yul\":16447:16485   */\n      tag_342\n        /* \"#utility.yul\":16479:16484   */\n      dup2\n        /* \"#utility.yul\":16447:16485   */\n      tag_160\n      jump\t// in\n    tag_342:\n        /* \"#utility.yul\":16531:16560   */\n      tag_343\n        /* \"#utility.yul\":16549:16559   */\n      dup5\n        /* \"#utility.yul\":16531:16560   */\n      tag_161\n      jump\t// in\n    tag_343:\n        /* \"#utility.yul\":16521:16529   */\n      dup2\n        /* \"#utility.yul\":16517:16561   */\n      add\n        /* \"#utility.yul\":16714:16716   */\n      0x20\n        /* \"#utility.yul\":16702:16712   */\n      dup6\n        /* \"#utility.yul\":16699:16717   */\n      lt\n        /* \"#utility.yul\":16696:16745   */\n      iszero\n      tag_344\n      jumpi\n        /* \"#utility.yul\":16735:16743   */\n      dup2\n        /* \"#utility.yul\":16720:16743   */\n      swap1\n      pop\n        /* \"#utility.yul\":16696:16745   */\n    tag_344:\n        /* \"#utility.yul\":16758:16838   */\n      tag_345\n        /* \"#utility.yul\":16814:16836   */\n      tag_346\n        /* \"#utility.yul\":16832:16835   */\n      dup6\n        /* \"#utility.yul\":16814:16836   */\n      tag_161\n      jump\t// in\n    tag_346:\n        /* \"#utility.yul\":16804:16812   */\n      dup4\n        /* \"#utility.yul\":16800:16837   */\n      add\n        /* \"#utility.yul\":16787:16798   */\n      dup3\n        /* \"#utility.yul\":16758:16838   */\n      tag_171\n      jump\t// in\n    tag_345:\n        /* \"#utility.yul\":16417:16848   */\n      pop\n      pop\n        /* \"#utility.yul\":16402:16848   */\n    tag_341:\n        /* \"#utility.yul\":16312:16855   */\n      pop\n      pop\n      pop\n      jump\t// out\n        /* \"#utility.yul\":16861:16978   */\n    tag_173:\n        /* \"#utility.yul\":16915:16923   */\n      0x00\n        /* \"#utility.yul\":16965:16970   */\n      dup3\n        /* \"#utility.yul\":16959:16963   */\n      dup3\n        /* \"#utility.yul\":16955:16971   */\n      shr\n        /* \"#utility.yul\":16934:16971   */\n      swap1\n      pop\n        /* \"#utility.yul\":16861:16978   */\n      swap3\n      swap2\n      pop\n      pop\n      jump\t// out\n        /* \"#utility.yul\":16984:17153   */\n    tag_174:\n        /* \"#utility.yul\":17028:17034   */\n      0x00\n        /* \"#utility.yul\":17061:17112   */\n      tag_349\n        /* \"#utility.yul\":17109:17110   */\n      0x00\n        /* \"#utility.yul\":17105:17111   */\n      not\n        /* \"#utility.yul\":17097:17102   */\n      dup5\n        /* \"#utility.yul\":17094:17095   */\n      0x08\n        /* \"#utility.yul\":17090:17103   */\n      mul\n        /* \"#utility.yul\":17061:17112   */\n      tag_173\n      jump\t// in\n    tag_349:\n        /* \"#utility.yul\":17057:17113   */\n      not\n        /* \"#utility.yul\":17142:17146   */\n      dup1\n        /* \"#utility.yul\":17136:17140   */\n      dup4\n        /* \"#utility.yul\":17132:17147   */\n      and\n        /* \"#utility.yul\":17122:17147   */\n      swap2\n      pop\n        /* \"#utility.yul\":17035:17153   */\n      pop\n        /* \"#utility.yul\":16984:17153   */\n      swap3\n      swap2\n      pop\n      pop\n      jump\t// out\n        /* \"#utility.yul\":17158:17453   */\n    tag_175:\n        /* \"#utility.yul\":17234:17238   */\n      0x00\n        /* \"#utility.yul\":17380:17409   */\n      tag_351\n        /* \"#utility.yul\":17405:17408   */\n      dup4\n        /* \"#utility.yul\":17399:17403   */\n      dup4\n        /* \"#utility.yul\":17380:17409   */\n      tag_174\n      jump\t// in\n    tag_351:\n        /* \"#utility.yul\":17372:17409   */\n      swap2\n      pop\n        /* \"#utility.yul\":17442:17445   */\n      dup3\n        /* \"#utility.yul\":17439:17440   */\n      0x02\n        /* \"#utility.yul\":17435:17446   */\n      mul\n        /* \"#utility.yul\":17429:17433   */\n      dup3\n        /* \"#utility.yul\":17426:17447   */\n      or\n        /* \"#utility.yul\":17418:17447   */\n      swap1\n      pop\n        /* \"#utility.yul\":17158:17453   */\n      swap3\n      swap2\n      pop\n      pop\n      jump\t// out\n        /* \"#utility.yul\":17458:18853   */\n    tag_75:\n        /* \"#utility.yul\":17575:17612   */\n      tag_353\n        /* \"#utility.yul\":17608:17611   */\n      dup3\n        /* \"#utility.yul\":17575:17612   */\n      tag_133\n      jump\t// in\n    tag_353:\n        /* \"#utility.yul\":17677:17695   */\n      0xffffffffffffffff\n        /* \"#utility.yul\":17669:17675   */\n      dup2\n        /* \"#utility.yul\":17666:17696   */\n      gt\n        /* \"#utility.yul\":17663:17719   */\n      iszero\n      tag_354\n      jumpi\n        /* \"#utility.yul\":17699:17717   */\n      tag_355\n      tag_144\n      jump\t// in\n    tag_355:\n        /* \"#utility.yul\":17663:17719   */\n    tag_354:\n        /* \"#utility.yul\":17743:17781   */\n      tag_356\n        /* \"#utility.yul\":17775:17779   */\n      dup3\n        /* \"#utility.yul\":17769:17780   */\n      sload\n        /* \"#utility.yul\":17743:17781   */\n      tag_53\n      jump\t// in\n    tag_356:\n        /* \"#utility.yul\":17828:17895   */\n      tag_357\n        /* \"#utility.yul\":17888:17894   */\n      dup3\n        /* \"#utility.yul\":17880:17886   */\n      dup3\n        /* \"#utility.yul\":17874:17878   */\n      dup6\n        /* \"#utility.yul\":17828:17895   */\n      tag_172\n      jump\t// in\n    tag_357:\n        /* \"#utility.yul\":17922:17923   */\n      0x00\n        /* \"#utility.yul\":17946:17950   */\n      0x20\n        /* \"#utility.yul\":17933:17950   */\n      swap1\n      pop\n        /* \"#utility.yul\":17978:17980   */\n      0x1f\n        /* \"#utility.yul\":17970:17976   */\n      dup4\n        /* \"#utility.yul\":17967:17981   */\n      gt\n        /* \"#utility.yul\":17995:17996   */\n      0x01\n        /* \"#utility.yul\":17990:18608   */\n      dup2\n      eq\n      tag_359\n      jumpi\n        /* \"#utility.yul\":18652:18653   */\n      0x00\n        /* \"#utility.yul\":18669:18675   */\n      dup5\n        /* \"#utility.yul\":18666:18743   */\n      iszero\n      tag_360\n      jumpi\n        /* \"#utility.yul\":18718:18727   */\n      dup3\n        /* \"#utility.yul\":18713:18716   */\n      dup8\n        /* \"#utility.yul\":18709:18728   */\n      add\n        /* \"#utility.yul\":18703:18729   */\n      mload\n        /* \"#utility.yul\":18694:18729   */\n      swap1\n      pop\n        /* \"#utility.yul\":18666:18743   */\n    tag_360:\n        /* \"#utility.yul\":18769:18836   */\n      tag_361\n        /* \"#utility.yul\":18829:18835   */\n      dup6\n        /* \"#utility.yul\":18822:18827   */\n      dup3\n        /* \"#utility.yul\":18769:18836   */\n      tag_175\n      jump\t// in\n    tag_361:\n        /* \"#utility.yul\":18763:18767   */\n      dup7\n        /* \"#utility.yul\":18756:18837   */\n      sstore\n        /* \"#utility.yul\":18625:18847   */\n      pop\n        /* \"#utility.yul\":17960:18847   */\n      jump(tag_358)\n        /* \"#utility.yul\":17990:18608   */\n    tag_359:\n        /* \"#utility.yul\":18042:18046   */\n      0x1f\n        /* \"#utility.yul\":18038:18047   */\n      not\n        /* \"#utility.yul\":18030:18036   */\n      dup5\n        /* \"#utility.yul\":18026:18048   */\n      and\n        /* \"#utility.yul\":18076:18113   */\n      tag_362\n        /* \"#utility.yul\":18108:18112   */\n      dup7\n        /* \"#utility.yul\":18076:18113   */\n      tag_160\n      jump\t// in\n    tag_362:\n        /* \"#utility.yul\":18135:18136   */\n      0x00\n        /* \"#utility.yul\":18149:18357   */\n    tag_363:\n        /* \"#utility.yul\":18163:18170   */\n      dup3\n        /* \"#utility.yul\":18160:18161   */\n      dup2\n        /* \"#utility.yul\":18157:18171   */\n      lt\n        /* \"#utility.yul\":18149:18357   */\n      iszero\n      tag_365\n      jumpi\n        /* \"#utility.yul\":18242:18251   */\n      dup5\n        /* \"#utility.yul\":18237:18240   */\n      dup10\n        /* \"#utility.yul\":18233:18252   */\n      add\n        /* \"#utility.yul\":18227:18253   */\n      mload\n        /* \"#utility.yul\":18219:18225   */\n      dup3\n        /* \"#utility.yul\":18212:18254   */\n      sstore\n        /* \"#utility.yul\":18293:18294   */\n      0x01\n        /* \"#utility.yul\":18285:18291   */\n      dup3\n        /* \"#utility.yul\":18281:18295   */\n      add\n        /* \"#utility.yul\":18271:18295   */\n      swap2\n      pop\n        /* \"#utility.yul\":18340:18342   */\n      0x20\n        /* \"#utility.yul\":18329:18338   */\n      dup6\n        /* \"#utility.yul\":18325:18343   */\n      add\n        /* \"#utility.yul\":18312:18343   */\n      swap5\n      pop\n        /* \"#utility.yul\":18186:18190   */\n      0x20\n        /* \"#utility.yul\":18183:18184   */\n      dup2\n        /* \"#utility.yul\":18179:18191   */\n      add\n        /* \"#utility.yul\":18174:18191   */\n      swap1\n      pop\n        /* \"#utility.yul\":18149:18357   */\n      jump(tag_363)\n    tag_365:\n        /* \"#utility.yul\":18385:18391   */\n      dup7\n        /* \"#utility.yul\":18376:18383   */\n      dup4\n        /* \"#utility.yul\":18373:18392   */\n      lt\n        /* \"#utility.yul\":18370:18549   */\n      iszero\n      tag_366\n      jumpi\n        /* \"#utility.yul\":18443:18452   */\n      dup5\n        /* \"#utility.yul\":18438:18441   */\n      dup10\n        /* \"#utility.yul\":18434:18453   */\n      add\n        /* \"#utility.yul\":18428:18454   */\n      mload\n        /* \"#utility.yul\":18486:18534   */\n      tag_367\n        /* \"#utility.yul\":18528:18532   */\n      0x1f\n        /* \"#utility.yul\":18520:18526   */\n      dup10\n        /* \"#utility.yul\":18516:18533   */\n      and\n        /* \"#utility.yul\":18505:18514   */\n      dup3\n        /* \"#utility.yul\":18486:18534   */\n      tag_174\n      jump\t// in\n    tag_367:\n        /* \"#utility.yul\":18478:18484   */\n      dup4\n        /* \"#utility.yul\":18471:18535   */\n      sstore\n        /* \"#utility.yul\":18393:18549   */\n      pop\n        /* \"#utility.yul\":18370:18549   */\n    tag_366:\n        /* \"#utility.yul\":18595:18596   */\n      0x01\n        /* \"#utility.yul\":18591:18592   */\n      0x02\n        /* \"#utility.yul\":18583:18589   */\n      dup9\n        /* \"#utility.yul\":18579:18593   */\n      mul\n        /* \"#utility.yul\":18575:18597   */\n      add\n        /* \"#utility.yul\":18569:18573   */\n      dup9\n        /* \"#utility.yul\":18562:18598   */\n      sstore\n        /* \"#utility.yul\":17997:18608   */\n      pop\n      pop\n      pop\n        /* \"#utility.yul\":17960:18847   */\n    tag_358:\n      pop\n        /* \"#utility.yul\":17550:18853   */\n      pop\n      pop\n      pop\n        /* \"#utility.yul\":17458:18853   */\n      pop\n      pop\n      jump\t// out\n        /* \"#utility.yul\":18859:19039   */\n    tag_176:\n        /* \"#utility.yul\":18907:18984   */\n      0x4e487b7100000000000000000000000000000000000000000000000000000000\n        /* \"#utility.yul\":18904:18905   */\n      0x00\n        /* \"#utility.yul\":18897:18985   */\n      mstore\n        /* \"#utility.yul\":19004:19008   */\n      0x11\n        /* \"#utility.yul\":19001:19002   */\n      0x04\n        /* \"#utility.yul\":18994:19009   */\n      mstore\n        /* \"#utility.yul\":19028:19032   */\n      0x24\n        /* \"#utility.yul\":19025:19026   */\n      0x00\n        /* \"#utility.yul\":19018:19033   */\n      revert\n        /* \"#utility.yul\":19045:19233   */\n    tag_82:\n        /* \"#utility.yul\":19083:19086   */\n      0x00\n        /* \"#utility.yul\":19102:19120   */\n      tag_370\n        /* \"#utility.yul\":19118:19119   */\n      dup3\n        /* \"#utility.yul\":19102:19120   */\n      tag_140\n      jump\t// in\n    tag_370:\n        /* \"#utility.yul\":19097:19120   */\n      swap2\n      pop\n        /* \"#utility.yul\":19134:19152   */\n      tag_371\n        /* \"#utility.yul\":19150:19151   */\n      dup4\n        /* \"#utility.yul\":19134:19152   */\n      tag_140\n      jump\t// in\n    tag_371:\n        /* \"#utility.yul\":19129:19152   */\n      swap3\n      pop\n        /* \"#utility.yul\":19175:19176   */\n      dup3\n        /* \"#utility.yul\":19172:19173   */\n      dup3\n        /* \"#utility.yul\":19168:19177   */\n      add\n        /* \"#utility.yul\":19161:19177   */\n      swap1\n      pop\n        /* \"#utility.yul\":19198:19202   */\n      0xff\n        /* \"#utility.yul\":19193:19196   */\n      dup2\n        /* \"#utility.yul\":19190:19203   */\n      gt\n        /* \"#utility.yul\":19187:19226   */\n      iszero\n      tag_372\n      jumpi\n        /* \"#utility.yul\":19206:19224   */\n      tag_373\n      tag_176\n      jump\t// in\n    tag_373:\n        /* \"#utility.yul\":19187:19226   */\n    tag_372:\n        /* \"#utility.yul\":19045:19233   */\n      swap3\n      swap2\n      pop\n      pop\n      jump\t// out\n\n    auxdata: 0xa26469706673582212201e54b7c0db335f2017db003c44ed32c89b10a5634a162bfc7b9dee975a3bb66764736f6c63430008110033\n}\n",
				"bytecode": {
					"linkReferences": {},
					"object": "608060405234801561001057600080fd5b50336000806101000a81548173ffffffffffffffffffffffffffffffffffffffff021916908373ffffffffffffffffffffffffffffffffffffffff160217905550611ba3806100606000396000f3fe608060405234801561001057600080fd5b506004361061007d5760003560e01c80638805f0f41161005b5780638805f0f4146100ed578063b6b8ab991461011f578063e05cd31c1461013b578063f86b0b76146101575761007d565b806318ab022f1461008257806352dc8f7c1461009e5780637f3e1e82146100d1575b600080fd5b61009c60048036038101906100979190611136565b610173565b005b6100b860048036038101906100b39190611136565b61025f565b6040516100c8949392919061122a565b60405180910390f35b6100eb60048036038101906100e691906113b2565b610576565b005b6101076004803603810190610102919061146d565b610875565b604051610116939291906114b6565b60405180910390f35b61013960048036038101906101349190611136565b610b95565b005b61015560048036038101906101509190611502565b610c80565b005b610171600480360381019061016c919061158d565b610eb5565b005b60008054906101000a900473ffffffffffffffffffffffffffffffffffffffff1673ffffffffffffffffffffffffffffffffffffffff163373ffffffffffffffffffffffffffffffffffffffff1614610201576040517f08c379a00000000000000000000000000000000000000000000000000000000081526004016101f89061168a565b60405180910390fd5b6000600160008373ffffffffffffffffffffffffffffffffffffffff1673ffffffffffffffffffffffffffffffffffffffff16815260200190815260200160002060040160006101000a81548160ff02191690831515021790555050565b606080600080848073ffffffffffffffffffffffffffffffffffffffff163373ffffffffffffffffffffffffffffffffffffffff1614806102eb57503373ffffffffffffffffffffffffffffffffffffffff1660008054906101000a900473ffffffffffffffffffffffffffffffffffffffff1673ffffffffffffffffffffffffffffffffffffffff16145b61032a576040517f08c379a00000000000000000000000000000000000000000000000000000000081526004016103219061171c565b60405180910390fd5b600160008773ffffffffffffffffffffffffffffffffffffffff1673ffffffffffffffffffffffffffffffffffffffff168152602001908152602001600020600001600160008873ffffffffffffffffffffffffffffffffffffffff1673ffffffffffffffffffffffffffffffffffffffff168152602001908152602001600020600301600160008973ffffffffffffffffffffffffffffffffffffffff1673ffffffffffffffffffffffffffffffffffffffff16815260200190815260200160002060040160009054906101000a900460ff16600160008a73ffffffffffffffffffffffffffffffffffffffff1673ffffffffffffffffffffffffffffffffffffffff16815260200190815260200160002060040160019054906101000a900460ff1683805461045a9061176b565b80601f01602080910402602001604051908101604052809291908181526020018280546104869061176b565b80156104d35780601f106104a8576101008083540402835291602001916104d3565b820191906000526020600020905b8154815290600101906020018083116104b657829003601f168201915b505050505093508280546104e69061176b565b80601f01602080910402602001604051908101604052809291908181526020018280546105129061176b565b801561055f5780601f106105345761010080835404028352916020019161055f565b820191906000526020600020905b81548152906001019060200180831161054257829003601f168201915b505050505092509450945094509450509193509193565b838073ffffffffffffffffffffffffffffffffffffffff163373ffffffffffffffffffffffffffffffffffffffff1614806105fc57503373ffffffffffffffffffffffffffffffffffffffff1660008054906101000a900473ffffffffffffffffffffffffffffffffffffffff1673ffffffffffffffffffffffffffffffffffffffff16145b61063b576040517f08c379a00000000000000000000000000000000000000000000000000000000081526004016106329061171c565b60405180910390fd5b84600160008273ffffffffffffffffffffffffffffffffffffffff1673ffffffffffffffffffffffffffffffffffffffff16815260200190815260200160002060040160009054906101000a900460ff166106cb576040517f08c379a00000000000000000000000000000000000000000000000000000000081526004016106c29061180e565b60405180910390fd5b846002866040516106dc919061186a565b908152602001604051809103902060010190816106f99190611a37565b508560028660405161070b919061186a565b908152602001604051809103902060000160006101000a81548173ffffffffffffffffffffffffffffffffffffffff021916908373ffffffffffffffffffffffffffffffffffffffff1602179055508360028660405161076b919061186a565b908152602001604051809103902060020190816107889190611a37565b508260028660405161079a919061186a565b908152602001604051809103902060030190816107b79190611a37565b5060018060008873ffffffffffffffffffffffffffffffffffffffff1673ffffffffffffffffffffffffffffffffffffffff16815260200190815260200160002060040160019054906101000a900460ff166108139190611b38565b600160008873ffffffffffffffffffffffffffffffffffffffff1673ffffffffffffffffffffffffffffffffffffffff16815260200190815260200160002060040160016101000a81548160ff021916908360ff160217905550505050505050565b606080606060028460405161088a919061186a565b908152602001604051809103902060000160009054906101000a900473ffffffffffffffffffffffffffffffffffffffff168073ffffffffffffffffffffffffffffffffffffffff163373ffffffffffffffffffffffffffffffffffffffff16148061094157503373ffffffffffffffffffffffffffffffffffffffff1660008054906101000a900473ffffffffffffffffffffffffffffffffffffffff1673ffffffffffffffffffffffffffffffffffffffff16145b610980576040517f08c379a00000000000000000000000000000000000000000000000000000000081526004016109779061171c565b60405180910390fd5b600285604051610990919061186a565b90815260200160405180910390206001016002866040516109b1919061186a565b90815260200160405180910390206003016002876040516109d2919061186a565b90815260200160405180910390206002018280546109ef9061176b565b80601f0160208091040260200160405190810160405280929190818152602001828054610a1b9061176b565b8015610a685780601f10610a3d57610100808354040283529160200191610a68565b820191906000526020600020905b815481529060010190602001808311610a4b57829003601f168201915b50505050509250818054610a7b9061176b565b80601f0160208091040260200160405190810160405280929190818152602001828054610aa79061176b565b8015610af45780601f10610ac957610100808354040283529160200191610af4565b820191906000526020600020905b815481529060010190602001808311610ad757829003601f168201915b50505050509150808054610b079061176b565b80601f0160208091040260200160405190810160405280929190818152602001828054610b339061176b565b8015610b805780601f10610b5557610100808354040283529160200191610b80565b820191906000526020600020905b815481529060010190602001808311610b6357829003601f168201915b50505050509050935093509350509193909250565b60008054906101000a900473ffffffffffffffffffffffffffffffffffffffff1673ffffffffffffffffffffffffffffffffffffffff163373ffffffffffffffffffffffffffffffffffffffff1614610c23576040517f08c379a0000000000000000000000000000000000000000000000000000000008152600401610c1a9061168a565b60405180910390fd5b60018060008373ffffffffffffffffffffffffffffffffffffffff1673ffffffffffffffffffffffffffffffffffffffff16815260200190815260200160002060040160006101000a81548160ff02191690831515021790555050565b60008054906101000a900473ffffffffffffffffffffffffffffffffffffffff1673ffffffffffffffffffffffffffffffffffffffff163373ffffffffffffffffffffffffffffffffffffffff1614610d0e576040517f08c379a0000000000000000000000000000000000000000000000000000000008152600401610d059061168a565b60405180910390fd5b82600160008373ffffffffffffffffffffffffffffffffffffffff1673ffffffffffffffffffffffffffffffffffffffff1681526020019081526020016000206000019081610d5d9190611a37565b5080600160008373ffffffffffffffffffffffffffffffffffffffff1673ffffffffffffffffffffffffffffffffffffffff16815260200190815260200160002060010160006101000a81548173ffffffffffffffffffffffffffffffffffffffff021916908373ffffffffffffffffffffffffffffffffffffffff16021790555081600160008373ffffffffffffffffffffffffffffffffffffffff1673ffffffffffffffffffffffffffffffffffffffff1681526020019081526020016000206003019081610e2e9190611a37565b5033600160008373ffffffffffffffffffffffffffffffffffffffff1673ffffffffffffffffffffffffffffffffffffffff16815260200190815260200160002060020160006101000a81548173ffffffffffffffffffffffffffffffffffffffff021916908373ffffffffffffffffffffffffffffffffffffffff160217905550505050565b828073ffffffffffffffffffffffffffffffffffffffff163373ffffffffffffffffffffffffffffffffffffffff161480610f3b57503373ffffffffffffffffffffffffffffffffffffffff1660008054906101000a900473ffffffffffffffffffffffffffffffffffffffff1673ffffffffffffffffffffffffffffffffffffffff16145b610f7a576040517f08c379a0000000000000000000000000000000000000000000000000000000008152600401610f719061171c565b60405180910390fd5b83600284604051610f8b919061186a565b908152602001604051809103902060000160006101000a81548173ffffffffffffffffffffffffffffffffffffffff021916908373ffffffffffffffffffffffffffffffffffffffff16021790555081600284604051610feb919061186a565b908152602001604051809103902060030190816110089190611a37565b5060018060008673ffffffffffffffffffffffffffffffffffffffff1673ffffffffffffffffffffffffffffffffffffffff16815260200190815260200160002060040160019054906101000a900460ff166110649190611b38565b600160008673ffffffffffffffffffffffffffffffffffffffff1673ffffffffffffffffffffffffffffffffffffffff16815260200190815260200160002060040160016101000a81548160ff021916908360ff16021790555050505050565b6000604051905090565b600080fd5b600080fd5b600073ffffffffffffffffffffffffffffffffffffffff82169050919050565b6000611103826110d8565b9050919050565b611113816110f8565b811461111e57600080fd5b50565b6000813590506111308161110a565b92915050565b60006020828403121561114c5761114b6110ce565b5b600061115a84828501611121565b91505092915050565b600081519050919050565b600082825260208201905092915050565b60005b8381101561119d578082015181840152602081019050611182565b60008484015250505050565b6000601f19601f8301169050919050565b60006111c582611163565b6111cf818561116e565b93506111df81856020860161117f565b6111e8816111a9565b840191505092915050565b60008115159050919050565b611208816111f3565b82525050565b600060ff82169050919050565b6112248161120e565b82525050565b6000608082019050818103600083015261124481876111ba565b9050818103602083015261125881866111ba565b905061126760408301856111ff565b611274606083018461121b565b95945050505050565b600080fd5b600080fd5b7f4e487b7100000000000000000000000000000000000000000000000000000000600052604160045260246000fd5b6112bf826111a9565b810181811067ffffffffffffffff821117156112de576112dd611287565b5b80604052505050565b60006112f16110c4565b90506112fd82826112b6565b919050565b600067ffffffffffffffff82111561131d5761131c611287565b5b611326826111a9565b9050602081019050919050565b82818337600083830152505050565b600061135561135084611302565b6112e7565b90508281526020810184848401111561137157611370611282565b5b61137c848285611333565b509392505050565b600082601f8301126113995761139861127d565b5b81356113a9848260208601611342565b91505092915050565b600080600080608085870312156113cc576113cb6110ce565b5b60006113da87828801611121565b945050602085013567ffffffffffffffff8111156113fb576113fa6110d3565b5b61140787828801611384565b935050604085013567ffffffffffffffff811115611428576114276110d3565b5b61143487828801611384565b925050606085013567ffffffffffffffff811115611455576114546110d3565b5b61146187828801611384565b91505092959194509250565b600060208284031215611483576114826110ce565b5b600082013567ffffffffffffffff8111156114a1576114a06110d3565b5b6114ad84828501611384565b91505092915050565b600060608201905081810360008301526114d081866111ba565b905081810360208301526114e481856111ba565b905081810360408301526114f881846111ba565b9050949350505050565b60008060006060848603121561151b5761151a6110ce565b5b600084013567ffffffffffffffff811115611539576115386110d3565b5b61154586828701611384565b935050602084013567ffffffffffffffff811115611566576115656110d3565b5b61157286828701611384565b925050604061158386828701611121565b9150509250925092565b6000806000606084860312156115a6576115a56110ce565b5b60006115b486828701611121565b935050602084013567ffffffffffffffff8111156115d5576115d46110d3565b5b6115e186828701611384565b925050604084013567ffffffffffffffff811115611602576116016110d3565b5b61160e86828701611384565b9150509250925092565b7f4f6e6c7920556e69766572736974792041444d494e2063616e20706572666f7260008201527f6d207468697320616374696f6e21000000000000000000000000000000000000602082015250565b6000611674602e8361116e565b915061167f82611618565b604082019050919050565b600060208201905081810360008301526116a381611667565b9050919050565b7f4f6e6c7920556e6976657273697479206f722053616d6520636f6c6c6567652060008201527f41444d494e2063616e20706572666f726d207468697320616374696f6e210000602082015250565b6000611706603e8361116e565b9150611711826116aa565b604082019050919050565b60006020820190508181036000830152611735816116f9565b9050919050565b7f4e487b7100000000000000000000000000000000000000000000000000000000600052602260045260246000fd5b6000600282049050600182168061178357607f821691505b6020821081036117965761179561173c565b5b50919050565b7f436f6c6c656765206973206e6f7420617574686f72697a656420746f2061646460008201527f206e65772053747564656e742100000000000000000000000000000000000000602082015250565b60006117f8602d8361116e565b91506118038261179c565b604082019050919050565b60006020820190508181036000830152611827816117eb565b9050919050565b600081905092915050565b600061184482611163565b61184e818561182e565b935061185e81856020860161117f565b80840191505092915050565b60006118768284611839565b915081905092915050565b60008190508160005260206000209050919050565b60006020601f8301049050919050565b600082821b905092915050565b6000600883026118e37fffffffffffffffffffffffffffffffffffffffffffffffffffffffffffffffff826118a6565b6118ed86836118a6565b95508019841693508086168417925050509392505050565b6000819050919050565b6000819050919050565b600061193461192f61192a84611905565b61190f565b611905565b9050919050565b6000819050919050565b61194e83611919565b61196261195a8261193b565b8484546118b3565b825550505050565b600090565b61197761196a565b611982818484611945565b505050565b5b818110156119a65761199b60008261196f565b600181019050611988565b5050565b601f8211156119eb576119bc81611881565b6119c584611896565b810160208510156119d4578190505b6119e86119e085611896565b830182611987565b50505b505050565b600082821c905092915050565b6000611a0e600019846008026119f0565b1980831691505092915050565b6000611a2783836119fd565b9150826002028217905092915050565b611a4082611163565b67ffffffffffffffff811115611a5957611a58611287565b5b611a63825461176b565b611a6e8282856119aa565b600060209050601f831160018114611aa15760008415611a8f578287015190505b611a998582611a1b565b865550611b01565b601f198416611aaf86611881565b60005b82811015611ad757848901518255600182019150602085019450602081019050611ab2565b86831015611af45784890151611af0601f8916826119fd565b8355505b6001600288020188555050505b505050505050565b7f4e487b7100000000000000000000000000000000000000000000000000000000600052601160045260246000fd5b6000611b438261120e565b9150611b4e8361120e565b9250828201905060ff811115611b6757611b66611b09565b5b9291505056fea26469706673582212201e54b7c0db335f2017db003c44ed32c89b10a5634a162bfc7b9dee975a3bb66764736f6c63430008110033",
					"opcodes": "PUSH1 0x80 PUSH1 0x40 MSTORE CALLVALUE DUP1 ISZERO PUSH2 0x10 JUMPI PUSH1 0x0 DUP1 REVERT JUMPDEST POP CALLER PUSH1 0x0 DUP1 PUSH2 0x100 EXP DUP2 SLOAD DUP2 PUSH20 0xFFFFFFFFFFFFFFFFFFFFFFFFFFFFFFFFFFFFFFFF MUL NOT AND SWAP1 DUP4 PUSH20 0xFFFFFFFFFFFFFFFFFFFFFFFFFFFFFFFFFFFFFFFF AND MUL OR SWAP1 SSTORE POP PUSH2 0x1BA3 DUP1 PUSH2 0x60 PUSH1 0x0 CODECOPY PUSH1 0x0 RETURN INVALID PUSH1 0x80 PUSH1 0x40 MSTORE CALLVALUE DUP1 ISZERO PUSH2 0x10 JUMPI PUSH1 0x0 DUP1 REVERT JUMPDEST POP PUSH1 0x4 CALLDATASIZE LT PUSH2 0x7D JUMPI PUSH1 0x0 CALLDATALOAD PUSH1 0xE0 SHR DUP1 PUSH4 0x8805F0F4 GT PUSH2 0x5B JUMPI DUP1 PUSH4 0x8805F0F4 EQ PUSH2 0xED JUMPI DUP1 PUSH4 0xB6B8AB99 EQ PUSH2 0x11F JUMPI DUP1 PUSH4 0xE05CD31C EQ PUSH2 0x13B JUMPI DUP1 PUSH4 0xF86B0B76 EQ PUSH2 0x157 JUMPI PUSH2 0x7D JUMP JUMPDEST DUP1 PUSH4 0x18AB022F EQ PUSH2 0x82 JUMPI DUP1 PUSH4 0x52DC8F7C EQ PUSH2 0x9E JUMPI DUP1 PUSH4 0x7F3E1E82 EQ PUSH2 0xD1 JUMPI JUMPDEST PUSH1 0x0 DUP1 REVERT JUMPDEST PUSH2 0x9C PUSH1 0x4 DUP1 CALLDATASIZE SUB DUP2 ADD SWAP1 PUSH2 0x97 SWAP2 SWAP1 PUSH2 0x1136 JUMP JUMPDEST PUSH2 0x173 JUMP JUMPDEST STOP JUMPDEST PUSH2 0xB8 PUSH1 0x4 DUP1 CALLDATASIZE SUB DUP2 ADD SWAP1 PUSH2 0xB3 SWAP2 SWAP1 PUSH2 0x1136 JUMP JUMPDEST PUSH2 0x25F JUMP JUMPDEST PUSH1 0x40 MLOAD PUSH2 0xC8 SWAP5 SWAP4 SWAP3 SWAP2 SWAP1 PUSH2 0x122A JUMP JUMPDEST PUSH1 0x40 MLOAD DUP1 SWAP2 SUB SWAP1 RETURN JUMPDEST PUSH2 0xEB PUSH1 0x4 DUP1 CALLDATASIZE SUB DUP2 ADD SWAP1 PUSH2 0xE6 SWAP2 SWAP1 PUSH2 0x13B2 JUMP JUMPDEST PUSH2 0x576 JUMP JUMPDEST STOP JUMPDEST PUSH2 0x107 PUSH1 0x4 DUP1 CALLDATASIZE SUB DUP2 ADD SWAP1 PUSH2 0x102 SWAP2 SWAP1 PUSH2 0x146D JUMP JUMPDEST PUSH2 0x875 JUMP JUMPDEST PUSH1 0x40 MLOAD PUSH2 0x116 SWAP4 SWAP3 SWAP2 SWAP1 PUSH2 0x14B6 JUMP JUMPDEST PUSH1 0x40 MLOAD DUP1 SWAP2 SUB SWAP1 RETURN JUMPDEST PUSH2 0x139 PUSH1 0x4 DUP1 CALLDATASIZE SUB DUP2 ADD SWAP1 PUSH2 0x134 SWAP2 SWAP1 PUSH2 0x1136 JUMP JUMPDEST PUSH2 0xB95 JUMP JUMPDEST STOP JUMPDEST PUSH2 0x155 PUSH1 0x4 DUP1 CALLDATASIZE SUB DUP2 ADD SWAP1 PUSH2 0x150 SWAP2 SWAP1 PUSH2 0x1502 JUMP JUMPDEST PUSH2 0xC80 JUMP JUMPDEST STOP JUMPDEST PUSH2 0x171 PUSH1 0x4 DUP1 CALLDATASIZE SUB DUP2 ADD SWAP1 PUSH2 0x16C SWAP2 SWAP1 PUSH2 0x158D JUMP JUMPDEST PUSH2 0xEB5 JUMP JUMPDEST STOP JUMPDEST PUSH1 0x0 DUP1 SLOAD SWAP1 PUSH2 0x100 EXP SWAP1 DIV PUSH20 0xFFFFFFFFFFFFFFFFFFFFFFFFFFFFFFFFFFFFFFFF AND PUSH20 0xFFFFFFFFFFFFFFFFFFFFFFFFFFFFFFFFFFFFFFFF AND CALLER PUSH20 0xFFFFFFFFFFFFFFFFFFFFFFFFFFFFFFFFFFFFFFFF AND EQ PUSH2 0x201 JUMPI PUSH1 0x40 MLOAD PUSH32 0x8C379A000000000000000000000000000000000000000000000000000000000 DUP2 MSTORE PUSH1 0x4 ADD PUSH2 0x1F8 SWAP1 PUSH2 0x168A JUMP JUMPDEST PUSH1 0x40 MLOAD DUP1 SWAP2 SUB SWAP1 REVERT JUMPDEST PUSH1 0x0 PUSH1 0x1 PUSH1 0x0 DUP4 PUSH20 0xFFFFFFFFFFFFFFFFFFFFFFFFFFFFFFFFFFFFFFFF AND PUSH20 0xFFFFFFFFFFFFFFFFFFFFFFFFFFFFFFFFFFFFFFFF AND DUP2 MSTORE PUSH1 0x20 ADD SWAP1 DUP2 MSTORE PUSH1 0x20 ADD PUSH1 0x0 KECCAK256 PUSH1 0x4 ADD PUSH1 0x0 PUSH2 0x100 EXP DUP2 SLOAD DUP2 PUSH1 0xFF MUL NOT AND SWAP1 DUP4 ISZERO ISZERO MUL OR SWAP1 SSTORE POP POP JUMP JUMPDEST PUSH1 0x60 DUP1 PUSH1 0x0 DUP1 DUP5 DUP1 PUSH20 0xFFFFFFFFFFFFFFFFFFFFFFFFFFFFFFFFFFFFFFFF AND CALLER PUSH20 0xFFFFFFFFFFFFFFFFFFFFFFFFFFFFFFFFFFFFFFFF AND EQ DUP1 PUSH2 0x2EB JUMPI POP CALLER PUSH20 0xFFFFFFFFFFFFFFFFFFFFFFFFFFFFFFFFFFFFFFFF AND PUSH1 0x0 DUP1 SLOAD SWAP1 PUSH2 0x100 EXP SWAP1 DIV PUSH20 0xFFFFFFFFFFFFFFFFFFFFFFFFFFFFFFFFFFFFFFFF AND PUSH20 0xFFFFFFFFFFFFFFFFFFFFFFFFFFFFFFFFFFFFFFFF AND EQ JUMPDEST PUSH2 0x32A JUMPI PUSH1 0x40 MLOAD PUSH32 0x8C379A000000000000000000000000000000000000000000000000000000000 DUP2 MSTORE PUSH1 0x4 ADD PUSH2 0x321 SWAP1 PUSH2 0x171C JUMP JUMPDEST PUSH1 0x40 MLOAD DUP1 SWAP2 SUB SWAP1 REVERT JUMPDEST PUSH1 0x1 PUSH1 0x0 DUP8 PUSH20 0xFFFFFFFFFFFFFFFFFFFFFFFFFFFFFFFFFFFFFFFF AND PUSH20 0xFFFFFFFFFFFFFFFFFFFFFFFFFFFFFFFFFFFFFFFF AND DUP2 MSTORE PUSH1 0x20 ADD SWAP1 DUP2 MSTORE PUSH1 0x20 ADD PUSH1 0x0 KECCAK256 PUSH1 0x0 ADD PUSH1 0x1 PUSH1 0x0 DUP9 PUSH20 0xFFFFFFFFFFFFFFFFFFFFFFFFFFFFFFFFFFFFFFFF AND PUSH20 0xFFFFFFFFFFFFFFFFFFFFFFFFFFFFFFFFFFFFFFFF AND DUP2 MSTORE PUSH1 0x20 ADD SWAP1 DUP2 MSTORE PUSH1 0x20 ADD PUSH1 0x0 KECCAK256 PUSH1 0x3 ADD PUSH1 0x1 PUSH1 0x0 DUP10 PUSH20 0xFFFFFFFFFFFFFFFFFFFFFFFFFFFFFFFFFFFFFFFF AND PUSH20 0xFFFFFFFFFFFFFFFFFFFFFFFFFFFFFFFFFFFFFFFF AND DUP2 MSTORE PUSH1 0x20 ADD SWAP1 DUP2 MSTORE PUSH1 0x20 ADD PUSH1 0x0 KECCAK256 PUSH1 0x4 ADD PUSH1 0x0 SWAP1 SLOAD SWAP1 PUSH2 0x100 EXP SWAP1 DIV PUSH1 0xFF AND PUSH1 0x1 PUSH1 0x0 DUP11 PUSH20 0xFFFFFFFFFFFFFFFFFFFFFFFFFFFFFFFFFFFFFFFF AND PUSH20 0xFFFFFFFFFFFFFFFFFFFFFFFFFFFFFFFFFFFFFFFF AND DUP2 MSTORE PUSH1 0x20 ADD SWAP1 DUP2 MSTORE PUSH1 0x20 ADD PUSH1 0x0 KECCAK256 PUSH1 0x4 ADD PUSH1 0x1 SWAP1 SLOAD SWAP1 PUSH2 0x100 EXP SWAP1 DIV PUSH1 0xFF AND DUP4 DUP1 SLOAD PUSH2 0x45A SWAP1 PUSH2 0x176B JUMP JUMPDEST DUP1 PUSH1 0x1F ADD PUSH1 0x20 DUP1 SWAP2 DIV MUL PUSH1 0x20 ADD PUSH1 0x40 MLOAD SWAP1 DUP2 ADD PUSH1 0x40 MSTORE DUP1 SWAP3 SWAP2 SWAP1 DUP2 DUP2 MSTORE PUSH1 0x20 ADD DUP3 DUP1 SLOAD PUSH2 0x486 SWAP1 PUSH2 0x176B JUMP JUMPDEST DUP1 ISZERO PUSH2 0x4D3 JUMPI DUP1 PUSH1 0x1F LT PUSH2 0x4A8 JUMPI PUSH2 0x100 DUP1 DUP4 SLOAD DIV MUL DUP4 MSTORE SWAP2 PUSH1 0x20 ADD SWAP2 PUSH2 0x4D3 JUMP JUMPDEST DUP3 ADD SWAP2 SWAP1 PUSH1 0x0 MSTORE PUSH1 0x20 PUSH1 0x0 KECCAK256 SWAP1 JUMPDEST DUP2 SLOAD DUP2 MSTORE SWAP1 PUSH1 0x1 ADD SWAP1 PUSH1 0x20 ADD DUP1 DUP4 GT PUSH2 0x4B6 JUMPI DUP3 SWAP1 SUB PUSH1 0x1F AND DUP3 ADD SWAP2 JUMPDEST POP POP POP POP POP SWAP4 POP DUP3 DUP1 SLOAD PUSH2 0x4E6 SWAP1 PUSH2 0x176B JUMP JUMPDEST DUP1 PUSH1 0x1F ADD PUSH1 0x20 DUP1 SWAP2 DIV MUL PUSH1 0x20 ADD PUSH1 0x40 MLOAD SWAP1 DUP2 ADD PUSH1 0x40 MSTORE DUP1 SWAP3 SWAP2 SWAP1 DUP2 DUP2 MSTORE PUSH1 0x20 ADD DUP3 DUP1 SLOAD PUSH2 0x512 SWAP1 PUSH2 0x176B JUMP JUMPDEST DUP1 ISZERO PUSH2 0x55F JUMPI DUP1 PUSH1 0x1F LT PUSH2 0x534 JUMPI PUSH2 0x100 DUP1 DUP4 SLOAD DIV MUL DUP4 MSTORE SWAP2 PUSH1 0x20 ADD SWAP2 PUSH2 0x55F JUMP JUMPDEST DUP3 ADD SWAP2 SWAP1 PUSH1 0x0 MSTORE PUSH1 0x20 PUSH1 0x0 KECCAK256 SWAP1 JUMPDEST DUP2 SLOAD DUP2 MSTORE SWAP1 PUSH1 0x1 ADD SWAP1 PUSH1 0x20 ADD DUP1 DUP4 GT PUSH2 0x542 JUMPI DUP3 SWAP1 SUB PUSH1 0x1F AND DUP3 ADD SWAP2 JUMPDEST POP POP POP POP POP SWAP3 POP SWAP5 POP SWAP5 POP SWAP5 POP SWAP5 POP POP SWAP2 SWAP4 POP SWAP2 SWAP4 JUMP JUMPDEST DUP4 DUP1 PUSH20 0xFFFFFFFFFFFFFFFFFFFFFFFFFFFFFFFFFFFFFFFF AND CALLER PUSH20 0xFFFFFFFFFFFFFFFFFFFFFFFFFFFFFFFFFFFFFFFF AND EQ DUP1 PUSH2 0x5FC JUMPI POP CALLER PUSH20 0xFFFFFFFFFFFFFFFFFFFFFFFFFFFFFFFFFFFFFFFF AND PUSH1 0x0 DUP1 SLOAD SWAP1 PUSH2 0x100 EXP SWAP1 DIV PUSH20 0xFFFFFFFFFFFFFFFFFFFFFFFFFFFFFFFFFFFFFFFF AND PUSH20 0xFFFFFFFFFFFFFFFFFFFFFFFFFFFFFFFFFFFFFFFF AND EQ JUMPDEST PUSH2 0x63B JUMPI PUSH1 0x40 MLOAD PUSH32 0x8C379A000000000000000000000000000000000000000000000000000000000 DUP2 MSTORE PUSH1 0x4 ADD PUSH2 0x632 SWAP1 PUSH2 0x171C JUMP JUMPDEST PUSH1 0x40 MLOAD DUP1 SWAP2 SUB SWAP1 REVERT JUMPDEST DUP5 PUSH1 0x1 PUSH1 0x0 DUP3 PUSH20 0xFFFFFFFFFFFFFFFFFFFFFFFFFFFFFFFFFFFFFFFF AND PUSH20 0xFFFFFFFFFFFFFFFFFFFFFFFFFFFFFFFFFFFFFFFF AND DUP2 MSTORE PUSH1 0x20 ADD SWAP1 DUP2 MSTORE PUSH1 0x20 ADD PUSH1 0x0 KECCAK256 PUSH1 0x4 ADD PUSH1 0x0 SWAP1 SLOAD SWAP1 PUSH2 0x100 EXP SWAP1 DIV PUSH1 0xFF AND PUSH2 0x6CB JUMPI PUSH1 0x40 MLOAD PUSH32 0x8C379A000000000000000000000000000000000000000000000000000000000 DUP2 MSTORE PUSH1 0x4 ADD PUSH2 0x6C2 SWAP1 PUSH2 0x180E JUMP JUMPDEST PUSH1 0x40 MLOAD DUP1 SWAP2 SUB SWAP1 REVERT JUMPDEST DUP5 PUSH1 0x2 DUP7 PUSH1 0x40 MLOAD PUSH2 0x6DC SWAP2 SWAP1 PUSH2 0x186A JUMP JUMPDEST SWAP1 DUP2 MSTORE PUSH1 0x20 ADD PUSH1 0x40 MLOAD DUP1 SWAP2 SUB SWAP1 KECCAK256 PUSH1 0x1 ADD SWAP1 DUP2 PUSH2 0x6F9 SWAP2 SWAP1 PUSH2 0x1A37 JUMP JUMPDEST POP DUP6 PUSH1 0x2 DUP7 PUSH1 0x40 MLOAD PUSH2 0x70B SWAP2 SWAP1 PUSH2 0x186A JUMP JUMPDEST SWAP1 DUP2 MSTORE PUSH1 0x20 ADD PUSH1 0x40 MLOAD DUP1 SWAP2 SUB SWAP1 KECCAK256 PUSH1 0x0 ADD PUSH1 0x0 PUSH2 0x100 EXP DUP2 SLOAD DUP2 PUSH20 0xFFFFFFFFFFFFFFFFFFFFFFFFFFFFFFFFFFFFFFFF MUL NOT AND SWAP1 DUP4 PUSH20 0xFFFFFFFFFFFFFFFFFFFFFFFFFFFFFFFFFFFFFFFF AND MUL OR SWAP1 SSTORE POP DUP4 PUSH1 0x2 DUP7 PUSH1 0x40 MLOAD PUSH2 0x76B SWAP2 SWAP1 PUSH2 0x186A JUMP JUMPDEST SWAP1 DUP2 MSTORE PUSH1 0x20 ADD PUSH1 0x40 MLOAD DUP1 SWAP2 SUB SWAP1 KECCAK256 PUSH1 0x2 ADD SWAP1 DUP2 PUSH2 0x788 SWAP2 SWAP1 PUSH2 0x1A37 JUMP JUMPDEST POP DUP3 PUSH1 0x2 DUP7 PUSH1 0x40 MLOAD PUSH2 0x79A SWAP2 SWAP1 PUSH2 0x186A JUMP JUMPDEST SWAP1 DUP2 MSTORE PUSH1 0x20 ADD PUSH1 0x40 MLOAD DUP1 SWAP2 SUB SWAP1 KECCAK256 PUSH1 0x3 ADD SWAP1 DUP2 PUSH2 0x7B7 SWAP2 SWAP1 PUSH2 0x1A37 JUMP JUMPDEST POP PUSH1 0x1 DUP1 PUSH1 0x0 DUP9 PUSH20 0xFFFFFFFFFFFFFFFFFFFFFFFFFFFFFFFFFFFFFFFF AND PUSH20 0xFFFFFFFFFFFFFFFFFFFFFFFFFFFFFFFFFFFFFFFF AND DUP2 MSTORE PUSH1 0x20 ADD SWAP1 DUP2 MSTORE PUSH1 0x20 ADD PUSH1 0x0 KECCAK256 PUSH1 0x4 ADD PUSH1 0x1 SWAP1 SLOAD SWAP1 PUSH2 0x100 EXP SWAP1 DIV PUSH1 0xFF AND PUSH2 0x813 SWAP2 SWAP1 PUSH2 0x1B38 JUMP JUMPDEST PUSH1 0x1 PUSH1 0x0 DUP9 PUSH20 0xFFFFFFFFFFFFFFFFFFFFFFFFFFFFFFFFFFFFFFFF AND PUSH20 0xFFFFFFFFFFFFFFFFFFFFFFFFFFFFFFFFFFFFFFFF AND DUP2 MSTORE PUSH1 0x20 ADD SWAP1 DUP2 MSTORE PUSH1 0x20 ADD PUSH1 0x0 KECCAK256 PUSH1 0x4 ADD PUSH1 0x1 PUSH2 0x100 EXP DUP2 SLOAD DUP2 PUSH1 0xFF MUL NOT AND SWAP1 DUP4 PUSH1 0xFF AND MUL OR SWAP1 SSTORE POP POP POP POP POP POP POP JUMP JUMPDEST PUSH1 0x60 DUP1 PUSH1 0x60 PUSH1 0x2 DUP5 PUSH1 0x40 MLOAD PUSH2 0x88A SWAP2 SWAP1 PUSH2 0x186A JUMP JUMPDEST SWAP1 DUP2 MSTORE PUSH1 0x20 ADD PUSH1 0x40 MLOAD DUP1 SWAP2 SUB SWAP1 KECCAK256 PUSH1 0x0 ADD PUSH1 0x0 SWAP1 SLOAD SWAP1 PUSH2 0x100 EXP SWAP1 DIV PUSH20 0xFFFFFFFFFFFFFFFFFFFFFFFFFFFFFFFFFFFFFFFF AND DUP1 PUSH20 0xFFFFFFFFFFFFFFFFFFFFFFFFFFFFFFFFFFFFFFFF AND CALLER PUSH20 0xFFFFFFFFFFFFFFFFFFFFFFFFFFFFFFFFFFFFFFFF AND EQ DUP1 PUSH2 0x941 JUMPI POP CALLER PUSH20 0xFFFFFFFFFFFFFFFFFFFFFFFFFFFFFFFFFFFFFFFF AND PUSH1 0x0 DUP1 SLOAD SWAP1 PUSH2 0x100 EXP SWAP1 DIV PUSH20 0xFFFFFFFFFFFFFFFFFFFFFFFFFFFFFFFFFFFFFFFF AND PUSH20 0xFFFFFFFFFFFFFFFFFFFFFFFFFFFFFFFFFFFFFFFF AND EQ JUMPDEST PUSH2 0x980 JUMPI PUSH1 0x40 MLOAD PUSH32 0x8C379A000000000000000000000000000000000000000000000000000000000 DUP2 MSTORE PUSH1 0x4 ADD PUSH2 0x977 SWAP1 PUSH2 0x171C JUMP JUMPDEST PUSH1 0x40 MLOAD DUP1 SWAP2 SUB SWAP1 REVERT JUMPDEST PUSH1 0x2 DUP6 PUSH1 0x40 MLOAD PUSH2 0x990 SWAP2 SWAP1 PUSH2 0x186A JUMP JUMPDEST SWAP1 DUP2 MSTORE PUSH1 0x20 ADD PUSH1 0x40 MLOAD DUP1 SWAP2 SUB SWAP1 KECCAK256 PUSH1 0x1 ADD PUSH1 0x2 DUP7 PUSH1 0x40 MLOAD PUSH2 0x9B1 SWAP2 SWAP1 PUSH2 0x186A JUMP JUMPDEST SWAP1 DUP2 MSTORE PUSH1 0x20 ADD PUSH1 0x40 MLOAD DUP1 SWAP2 SUB SWAP1 KECCAK256 PUSH1 0x3 ADD PUSH1 0x2 DUP8 PUSH1 0x40 MLOAD PUSH2 0x9D2 SWAP2 SWAP1 PUSH2 0x186A JUMP JUMPDEST SWAP1 DUP2 MSTORE PUSH1 0x20 ADD PUSH1 0x40 MLOAD DUP1 SWAP2 SUB SWAP1 KECCAK256 PUSH1 0x2 ADD DUP3 DUP1 SLOAD PUSH2 0x9EF SWAP1 PUSH2 0x176B JUMP JUMPDEST DUP1 PUSH1 0x1F ADD PUSH1 0x20 DUP1 SWAP2 DIV MUL PUSH1 0x20 ADD PUSH1 0x40 MLOAD SWAP1 DUP2 ADD PUSH1 0x40 MSTORE DUP1 SWAP3 SWAP2 SWAP1 DUP2 DUP2 MSTORE PUSH1 0x20 ADD DUP3 DUP1 SLOAD PUSH2 0xA1B SWAP1 PUSH2 0x176B JUMP JUMPDEST DUP1 ISZERO PUSH2 0xA68 JUMPI DUP1 PUSH1 0x1F LT PUSH2 0xA3D JUMPI PUSH2 0x100 DUP1 DUP4 SLOAD DIV MUL DUP4 MSTORE SWAP2 PUSH1 0x20 ADD SWAP2 PUSH2 0xA68 JUMP JUMPDEST DUP3 ADD SWAP2 SWAP1 PUSH1 0x0 MSTORE PUSH1 0x20 PUSH1 0x0 KECCAK256 SWAP1 JUMPDEST DUP2 SLOAD DUP2 MSTORE SWAP1 PUSH1 0x1 ADD SWAP1 PUSH1 0x20 ADD DUP1 DUP4 GT PUSH2 0xA4B JUMPI DUP3 SWAP1 SUB PUSH1 0x1F AND DUP3 ADD SWAP2 JUMPDEST POP POP POP POP POP SWAP3 POP DUP2 DUP1 SLOAD PUSH2 0xA7B SWAP1 PUSH2 0x176B JUMP JUMPDEST DUP1 PUSH1 0x1F ADD PUSH1 0x20 DUP1 SWAP2 DIV MUL PUSH1 0x20 ADD PUSH1 0x40 MLOAD SWAP1 DUP2 ADD PUSH1 0x40 MSTORE DUP1 SWAP3 SWAP2 SWAP1 DUP2 DUP2 MSTORE PUSH1 0x20 ADD DUP3 DUP1 SLOAD PUSH2 0xAA7 SWAP1 PUSH2 0x176B JUMP JUMPDEST DUP1 ISZERO PUSH2 0xAF4 JUMPI DUP1 PUSH1 0x1F LT PUSH2 0xAC9 JUMPI PUSH2 0x100 DUP1 DUP4 SLOAD DIV MUL DUP4 MSTORE SWAP2 PUSH1 0x20 ADD SWAP2 PUSH2 0xAF4 JUMP JUMPDEST DUP3 ADD SWAP2 SWAP1 PUSH1 0x0 MSTORE PUSH1 0x20 PUSH1 0x0 KECCAK256 SWAP1 JUMPDEST DUP2 SLOAD DUP2 MSTORE SWAP1 PUSH1 0x1 ADD SWAP1 PUSH1 0x20 ADD DUP1 DUP4 GT PUSH2 0xAD7 JUMPI DUP3 SWAP1 SUB PUSH1 0x1F AND DUP3 ADD SWAP2 JUMPDEST POP POP POP POP POP SWAP2 POP DUP1 DUP1 SLOAD PUSH2 0xB07 SWAP1 PUSH2 0x176B JUMP JUMPDEST DUP1 PUSH1 0x1F ADD PUSH1 0x20 DUP1 SWAP2 DIV MUL PUSH1 0x20 ADD PUSH1 0x40 MLOAD SWAP1 DUP2 ADD PUSH1 0x40 MSTORE DUP1 SWAP3 SWAP2 SWAP1 DUP2 DUP2 MSTORE PUSH1 0x20 ADD DUP3 DUP1 SLOAD PUSH2 0xB33 SWAP1 PUSH2 0x176B JUMP JUMPDEST DUP1 ISZERO PUSH2 0xB80 JUMPI DUP1 PUSH1 0x1F LT PUSH2 0xB55 JUMPI PUSH2 0x100 DUP1 DUP4 SLOAD DIV MUL DUP4 MSTORE SWAP2 PUSH1 0x20 ADD SWAP2 PUSH2 0xB80 JUMP JUMPDEST DUP3 ADD SWAP2 SWAP1 PUSH1 0x0 MSTORE PUSH1 0x20 PUSH1 0x0 KECCAK256 SWAP1 JUMPDEST DUP2 SLOAD DUP2 MSTORE SWAP1 PUSH1 0x1 ADD SWAP1 PUSH1 0x20 ADD DUP1 DUP4 GT PUSH2 0xB63 JUMPI DUP3 SWAP1 SUB PUSH1 0x1F AND DUP3 ADD SWAP2 JUMPDEST POP POP POP POP POP SWAP1 POP SWAP4 POP SWAP4 POP SWAP4 POP POP SWAP2 SWAP4 SWAP1 SWAP3 POP JUMP JUMPDEST PUSH1 0x0 DUP1 SLOAD SWAP1 PUSH2 0x100 EXP SWAP1 DIV PUSH20 0xFFFFFFFFFFFFFFFFFFFFFFFFFFFFFFFFFFFFFFFF AND PUSH20 0xFFFFFFFFFFFFFFFFFFFFFFFFFFFFFFFFFFFFFFFF AND CALLER PUSH20 0xFFFFFFFFFFFFFFFFFFFFFFFFFFFFFFFFFFFFFFFF AND EQ PUSH2 0xC23 JUMPI PUSH1 0x40 MLOAD PUSH32 0x8C379A000000000000000000000000000000000000000000000000000000000 DUP2 MSTORE PUSH1 0x4 ADD PUSH2 0xC1A SWAP1 PUSH2 0x168A JUMP JUMPDEST PUSH1 0x40 MLOAD DUP1 SWAP2 SUB SWAP1 REVERT JUMPDEST PUSH1 0x1 DUP1 PUSH1 0x0 DUP4 PUSH20 0xFFFFFFFFFFFFFFFFFFFFFFFFFFFFFFFFFFFFFFFF AND PUSH20 0xFFFFFFFFFFFFFFFFFFFFFFFFFFFFFFFFFFFFFFFF AND DUP2 MSTORE PUSH1 0x20 ADD SWAP1 DUP2 MSTORE PUSH1 0x20 ADD PUSH1 0x0 KECCAK256 PUSH1 0x4 ADD PUSH1 0x0 PUSH2 0x100 EXP DUP2 SLOAD DUP2 PUSH1 0xFF MUL NOT AND SWAP1 DUP4 ISZERO ISZERO MUL OR SWAP1 SSTORE POP POP JUMP JUMPDEST PUSH1 0x0 DUP1 SLOAD SWAP1 PUSH2 0x100 EXP SWAP1 DIV PUSH20 0xFFFFFFFFFFFFFFFFFFFFFFFFFFFFFFFFFFFFFFFF AND PUSH20 0xFFFFFFFFFFFFFFFFFFFFFFFFFFFFFFFFFFFFFFFF AND CALLER PUSH20 0xFFFFFFFFFFFFFFFFFFFFFFFFFFFFFFFFFFFFFFFF AND EQ PUSH2 0xD0E JUMPI PUSH1 0x40 MLOAD PUSH32 0x8C379A000000000000000000000000000000000000000000000000000000000 DUP2 MSTORE PUSH1 0x4 ADD PUSH2 0xD05 SWAP1 PUSH2 0x168A JUMP JUMPDEST PUSH1 0x40 MLOAD DUP1 SWAP2 SUB SWAP1 REVERT JUMPDEST DUP3 PUSH1 0x1 PUSH1 0x0 DUP4 PUSH20 0xFFFFFFFFFFFFFFFFFFFFFFFFFFFFFFFFFFFFFFFF AND PUSH20 0xFFFFFFFFFFFFFFFFFFFFFFFFFFFFFFFFFFFFFFFF AND DUP2 MSTORE PUSH1 0x20 ADD SWAP1 DUP2 MSTORE PUSH1 0x20 ADD PUSH1 0x0 KECCAK256 PUSH1 0x0 ADD SWAP1 DUP2 PUSH2 0xD5D SWAP2 SWAP1 PUSH2 0x1A37 JUMP JUMPDEST POP DUP1 PUSH1 0x1 PUSH1 0x0 DUP4 PUSH20 0xFFFFFFFFFFFFFFFFFFFFFFFFFFFFFFFFFFFFFFFF AND PUSH20 0xFFFFFFFFFFFFFFFFFFFFFFFFFFFFFFFFFFFFFFFF AND DUP2 MSTORE PUSH1 0x20 ADD SWAP1 DUP2 MSTORE PUSH1 0x20 ADD PUSH1 0x0 KECCAK256 PUSH1 0x1 ADD PUSH1 0x0 PUSH2 0x100 EXP DUP2 SLOAD DUP2 PUSH20 0xFFFFFFFFFFFFFFFFFFFFFFFFFFFFFFFFFFFFFFFF MUL NOT AND SWAP1 DUP4 PUSH20 0xFFFFFFFFFFFFFFFFFFFFFFFFFFFFFFFFFFFFFFFF AND MUL OR SWAP1 SSTORE POP DUP2 PUSH1 0x1 PUSH1 0x0 DUP4 PUSH20 0xFFFFFFFFFFFFFFFFFFFFFFFFFFFFFFFFFFFFFFFF AND PUSH20 0xFFFFFFFFFFFFFFFFFFFFFFFFFFFFFFFFFFFFFFFF AND DUP2 MSTORE PUSH1 0x20 ADD SWAP1 DUP2 MSTORE PUSH1 0x20 ADD PUSH1 0x0 KECCAK256 PUSH1 0x3 ADD SWAP1 DUP2 PUSH2 0xE2E SWAP2 SWAP1 PUSH2 0x1A37 JUMP JUMPDEST POP CALLER PUSH1 0x1 PUSH1 0x0 DUP4 PUSH20 0xFFFFFFFFFFFFFFFFFFFFFFFFFFFFFFFFFFFFFFFF AND PUSH20 0xFFFFFFFFFFFFFFFFFFFFFFFFFFFFFFFFFFFFFFFF AND DUP2 MSTORE PUSH1 0x20 ADD SWAP1 DUP2 MSTORE PUSH1 0x20 ADD PUSH1 0x0 KECCAK256 PUSH1 0x2 ADD PUSH1 0x0 PUSH2 0x100 EXP DUP2 SLOAD DUP2 PUSH20 0xFFFFFFFFFFFFFFFFFFFFFFFFFFFFFFFFFFFFFFFF MUL NOT AND SWAP1 DUP4 PUSH20 0xFFFFFFFFFFFFFFFFFFFFFFFFFFFFFFFFFFFFFFFF AND MUL OR SWAP1 SSTORE POP POP POP POP JUMP JUMPDEST DUP3 DUP1 PUSH20 0xFFFFFFFFFFFFFFFFFFFFFFFFFFFFFFFFFFFFFFFF AND CALLER PUSH20 0xFFFFFFFFFFFFFFFFFFFFFFFFFFFFFFFFFFFFFFFF AND EQ DUP1 PUSH2 0xF3B JUMPI POP CALLER PUSH20 0xFFFFFFFFFFFFFFFFFFFFFFFFFFFFFFFFFFFFFFFF AND PUSH1 0x0 DUP1 SLOAD SWAP1 PUSH2 0x100 EXP SWAP1 DIV PUSH20 0xFFFFFFFFFFFFFFFFFFFFFFFFFFFFFFFFFFFFFFFF AND PUSH20 0xFFFFFFFFFFFFFFFFFFFFFFFFFFFFFFFFFFFFFFFF AND EQ JUMPDEST PUSH2 0xF7A JUMPI PUSH1 0x40 MLOAD PUSH32 0x8C379A000000000000000000000000000000000000000000000000000000000 DUP2 MSTORE PUSH1 0x4 ADD PUSH2 0xF71 SWAP1 PUSH2 0x171C JUMP JUMPDEST PUSH1 0x40 MLOAD DUP1 SWAP2 SUB SWAP1 REVERT JUMPDEST DUP4 PUSH1 0x2 DUP5 PUSH1 0x40 MLOAD PUSH2 0xF8B SWAP2 SWAP1 PUSH2 0x186A JUMP JUMPDEST SWAP1 DUP2 MSTORE PUSH1 0x20 ADD PUSH1 0x40 MLOAD DUP1 SWAP2 SUB SWAP1 KECCAK256 PUSH1 0x0 ADD PUSH1 0x0 PUSH2 0x100 EXP DUP2 SLOAD DUP2 PUSH20 0xFFFFFFFFFFFFFFFFFFFFFFFFFFFFFFFFFFFFFFFF MUL NOT AND SWAP1 DUP4 PUSH20 0xFFFFFFFFFFFFFFFFFFFFFFFFFFFFFFFFFFFFFFFF AND MUL OR SWAP1 SSTORE POP DUP2 PUSH1 0x2 DUP5 PUSH1 0x40 MLOAD PUSH2 0xFEB SWAP2 SWAP1 PUSH2 0x186A JUMP JUMPDEST SWAP1 DUP2 MSTORE PUSH1 0x20 ADD PUSH1 0x40 MLOAD DUP1 SWAP2 SUB SWAP1 KECCAK256 PUSH1 0x3 ADD SWAP1 DUP2 PUSH2 0x1008 SWAP2 SWAP1 PUSH2 0x1A37 JUMP JUMPDEST POP PUSH1 0x1 DUP1 PUSH1 0x0 DUP7 PUSH20 0xFFFFFFFFFFFFFFFFFFFFFFFFFFFFFFFFFFFFFFFF AND PUSH20 0xFFFFFFFFFFFFFFFFFFFFFFFFFFFFFFFFFFFFFFFF AND DUP2 MSTORE PUSH1 0x20 ADD SWAP1 DUP2 MSTORE PUSH1 0x20 ADD PUSH1 0x0 KECCAK256 PUSH1 0x4 ADD PUSH1 0x1 SWAP1 SLOAD SWAP1 PUSH2 0x100 EXP SWAP1 DIV PUSH1 0xFF AND PUSH2 0x1064 SWAP2 SWAP1 PUSH2 0x1B38 JUMP JUMPDEST PUSH1 0x1 PUSH1 0x0 DUP7 PUSH20 0xFFFFFFFFFFFFFFFFFFFFFFFFFFFFFFFFFFFFFFFF AND PUSH20 0xFFFFFFFFFFFFFFFFFFFFFFFFFFFFFFFFFFFFFFFF AND DUP2 MSTORE PUSH1 0x20 ADD SWAP1 DUP2 MSTORE PUSH1 0x20 ADD PUSH1 0x0 KECCAK256 PUSH1 0x4 ADD PUSH1 0x1 PUSH2 0x100 EXP DUP2 SLOAD DUP2 PUSH1 0xFF MUL NOT AND SWAP1 DUP4 PUSH1 0xFF AND MUL OR SWAP1 SSTORE POP POP POP POP POP JUMP JUMPDEST PUSH1 0x0 PUSH1 0x40 MLOAD SWAP1 POP SWAP1 JUMP JUMPDEST PUSH1 0x0 DUP1 REVERT JUMPDEST PUSH1 0x0 DUP1 REVERT JUMPDEST PUSH1 0x0 PUSH20 0xFFFFFFFFFFFFFFFFFFFFFFFFFFFFFFFFFFFFFFFF DUP3 AND SWAP1 POP SWAP2 SWAP1 POP JUMP JUMPDEST PUSH1 0x0 PUSH2 0x1103 DUP3 PUSH2 0x10D8 JUMP JUMPDEST SWAP1 POP SWAP2 SWAP1 POP JUMP JUMPDEST PUSH2 0x1113 DUP2 PUSH2 0x10F8 JUMP JUMPDEST DUP2 EQ PUSH2 0x111E JUMPI PUSH1 0x0 DUP1 REVERT JUMPDEST POP JUMP JUMPDEST PUSH1 0x0 DUP2 CALLDATALOAD SWAP1 POP PUSH2 0x1130 DUP2 PUSH2 0x110A JUMP JUMPDEST SWAP3 SWAP2 POP POP JUMP JUMPDEST PUSH1 0x0 PUSH1 0x20 DUP3 DUP5 SUB SLT ISZERO PUSH2 0x114C JUMPI PUSH2 0x114B PUSH2 0x10CE JUMP JUMPDEST JUMPDEST PUSH1 0x0 PUSH2 0x115A DUP5 DUP3 DUP6 ADD PUSH2 0x1121 JUMP JUMPDEST SWAP2 POP POP SWAP3 SWAP2 POP POP JUMP JUMPDEST PUSH1 0x0 DUP2 MLOAD SWAP1 POP SWAP2 SWAP1 POP JUMP JUMPDEST PUSH1 0x0 DUP3 DUP3 MSTORE PUSH1 0x20 DUP3 ADD SWAP1 POP SWAP3 SWAP2 POP POP JUMP JUMPDEST PUSH1 0x0 JUMPDEST DUP4 DUP2 LT ISZERO PUSH2 0x119D JUMPI DUP1 DUP3 ADD MLOAD DUP2 DUP5 ADD MSTORE PUSH1 0x20 DUP2 ADD SWAP1 POP PUSH2 0x1182 JUMP JUMPDEST PUSH1 0x0 DUP5 DUP5 ADD MSTORE POP POP POP POP JUMP JUMPDEST PUSH1 0x0 PUSH1 0x1F NOT PUSH1 0x1F DUP4 ADD AND SWAP1 POP SWAP2 SWAP1 POP JUMP JUMPDEST PUSH1 0x0 PUSH2 0x11C5 DUP3 PUSH2 0x1163 JUMP JUMPDEST PUSH2 0x11CF DUP2 DUP6 PUSH2 0x116E JUMP JUMPDEST SWAP4 POP PUSH2 0x11DF DUP2 DUP6 PUSH1 0x20 DUP7 ADD PUSH2 0x117F JUMP JUMPDEST PUSH2 0x11E8 DUP2 PUSH2 0x11A9 JUMP JUMPDEST DUP5 ADD SWAP2 POP POP SWAP3 SWAP2 POP POP JUMP JUMPDEST PUSH1 0x0 DUP2 ISZERO ISZERO SWAP1 POP SWAP2 SWAP1 POP JUMP JUMPDEST PUSH2 0x1208 DUP2 PUSH2 0x11F3 JUMP JUMPDEST DUP3 MSTORE POP POP JUMP JUMPDEST PUSH1 0x0 PUSH1 0xFF DUP3 AND SWAP1 POP SWAP2 SWAP1 POP JUMP JUMPDEST PUSH2 0x1224 DUP2 PUSH2 0x120E JUMP JUMPDEST DUP3 MSTORE POP POP JUMP JUMPDEST PUSH1 0x0 PUSH1 0x80 DUP3 ADD SWAP1 POP DUP2 DUP2 SUB PUSH1 0x0 DUP4 ADD MSTORE PUSH2 0x1244 DUP2 DUP8 PUSH2 0x11BA JUMP JUMPDEST SWAP1 POP DUP2 DUP2 SUB PUSH1 0x20 DUP4 ADD MSTORE PUSH2 0x1258 DUP2 DUP7 PUSH2 0x11BA JUMP JUMPDEST SWAP1 POP PUSH2 0x1267 PUSH1 0x40 DUP4 ADD DUP6 PUSH2 0x11FF JUMP JUMPDEST PUSH2 0x1274 PUSH1 0x60 DUP4 ADD DUP5 PUSH2 0x121B JUMP JUMPDEST SWAP6 SWAP5 POP POP POP POP POP JUMP JUMPDEST PUSH1 0x0 DUP1 REVERT JUMPDEST PUSH1 0x0 DUP1 REVERT JUMPDEST PUSH32 0x4E487B7100000000000000000000000000000000000000000000000000000000 PUSH1 0x0 MSTORE PUSH1 0x41 PUSH1 0x4 MSTORE PUSH1 0x24 PUSH1 0x0 REVERT JUMPDEST PUSH2 0x12BF DUP3 PUSH2 0x11A9 JUMP JUMPDEST DUP2 ADD DUP2 DUP2 LT PUSH8 0xFFFFFFFFFFFFFFFF DUP3 GT OR ISZERO PUSH2 0x12DE JUMPI PUSH2 0x12DD PUSH2 0x1287 JUMP JUMPDEST JUMPDEST DUP1 PUSH1 0x40 MSTORE POP POP POP JUMP JUMPDEST PUSH1 0x0 PUSH2 0x12F1 PUSH2 0x10C4 JUMP JUMPDEST SWAP1 POP PUSH2 0x12FD DUP3 DUP3 PUSH2 0x12B6 JUMP JUMPDEST SWAP2 SWAP1 POP JUMP JUMPDEST PUSH1 0x0 PUSH8 0xFFFFFFFFFFFFFFFF DUP3 GT ISZERO PUSH2 0x131D JUMPI PUSH2 0x131C PUSH2 0x1287 JUMP JUMPDEST JUMPDEST PUSH2 0x1326 DUP3 PUSH2 0x11A9 JUMP JUMPDEST SWAP1 POP PUSH1 0x20 DUP2 ADD SWAP1 POP SWAP2 SWAP1 POP JUMP JUMPDEST DUP3 DUP2 DUP4 CALLDATACOPY PUSH1 0x0 DUP4 DUP4 ADD MSTORE POP POP POP JUMP JUMPDEST PUSH1 0x0 PUSH2 0x1355 PUSH2 0x1350 DUP5 PUSH2 0x1302 JUMP JUMPDEST PUSH2 0x12E7 JUMP JUMPDEST SWAP1 POP DUP3 DUP2 MSTORE PUSH1 0x20 DUP2 ADD DUP5 DUP5 DUP5 ADD GT ISZERO PUSH2 0x1371 JUMPI PUSH2 0x1370 PUSH2 0x1282 JUMP JUMPDEST JUMPDEST PUSH2 0x137C DUP5 DUP3 DUP6 PUSH2 0x1333 JUMP JUMPDEST POP SWAP4 SWAP3 POP POP POP JUMP JUMPDEST PUSH1 0x0 DUP3 PUSH1 0x1F DUP4 ADD SLT PUSH2 0x1399 JUMPI PUSH2 0x1398 PUSH2 0x127D JUMP JUMPDEST JUMPDEST DUP2 CALLDATALOAD PUSH2 0x13A9 DUP5 DUP3 PUSH1 0x20 DUP7 ADD PUSH2 0x1342 JUMP JUMPDEST SWAP2 POP POP SWAP3 SWAP2 POP POP JUMP JUMPDEST PUSH1 0x0 DUP1 PUSH1 0x0 DUP1 PUSH1 0x80 DUP6 DUP8 SUB SLT ISZERO PUSH2 0x13CC JUMPI PUSH2 0x13CB PUSH2 0x10CE JUMP JUMPDEST JUMPDEST PUSH1 0x0 PUSH2 0x13DA DUP8 DUP3 DUP9 ADD PUSH2 0x1121 JUMP JUMPDEST SWAP5 POP POP PUSH1 0x20 DUP6 ADD CALLDATALOAD PUSH8 0xFFFFFFFFFFFFFFFF DUP2 GT ISZERO PUSH2 0x13FB JUMPI PUSH2 0x13FA PUSH2 0x10D3 JUMP JUMPDEST JUMPDEST PUSH2 0x1407 DUP8 DUP3 DUP9 ADD PUSH2 0x1384 JUMP JUMPDEST SWAP4 POP POP PUSH1 0x40 DUP6 ADD CALLDATALOAD PUSH8 0xFFFFFFFFFFFFFFFF DUP2 GT ISZERO PUSH2 0x1428 JUMPI PUSH2 0x1427 PUSH2 0x10D3 JUMP JUMPDEST JUMPDEST PUSH2 0x1434 DUP8 DUP3 DUP9 ADD PUSH2 0x1384 JUMP JUMPDEST SWAP3 POP POP PUSH1 0x60 DUP6 ADD CALLDATALOAD PUSH8 0xFFFFFFFFFFFFFFFF DUP2 GT ISZERO PUSH2 0x1455 JUMPI PUSH2 0x1454 PUSH2 0x10D3 JUMP JUMPDEST JUMPDEST PUSH2 0x1461 DUP8 DUP3 DUP9 ADD PUSH2 0x1384 JUMP JUMPDEST SWAP2 POP POP SWAP3 SWAP6 SWAP2 SWAP5 POP SWAP3 POP JUMP JUMPDEST PUSH1 0x0 PUSH1 0x20 DUP3 DUP5 SUB SLT ISZERO PUSH2 0x1483 JUMPI PUSH2 0x1482 PUSH2 0x10CE JUMP JUMPDEST JUMPDEST PUSH1 0x0 DUP3 ADD CALLDATALOAD PUSH8 0xFFFFFFFFFFFFFFFF DUP2 GT ISZERO PUSH2 0x14A1 JUMPI PUSH2 0x14A0 PUSH2 0x10D3 JUMP JUMPDEST JUMPDEST PUSH2 0x14AD DUP5 DUP3 DUP6 ADD PUSH2 0x1384 JUMP JUMPDEST SWAP2 POP POP SWAP3 SWAP2 POP POP JUMP JUMPDEST PUSH1 0x0 PUSH1 0x60 DUP3 ADD SWAP1 POP DUP2 DUP2 SUB PUSH1 0x0 DUP4 ADD MSTORE PUSH2 0x14D0 DUP2 DUP7 PUSH2 0x11BA JUMP JUMPDEST SWAP1 POP DUP2 DUP2 SUB PUSH1 0x20 DUP4 ADD MSTORE PUSH2 0x14E4 DUP2 DUP6 PUSH2 0x11BA JUMP JUMPDEST SWAP1 POP DUP2 DUP2 SUB PUSH1 0x40 DUP4 ADD MSTORE PUSH2 0x14F8 DUP2 DUP5 PUSH2 0x11BA JUMP JUMPDEST SWAP1 POP SWAP5 SWAP4 POP POP POP POP JUMP JUMPDEST PUSH1 0x0 DUP1 PUSH1 0x0 PUSH1 0x60 DUP5 DUP7 SUB SLT ISZERO PUSH2 0x151B JUMPI PUSH2 0x151A PUSH2 0x10CE JUMP JUMPDEST JUMPDEST PUSH1 0x0 DUP5 ADD CALLDATALOAD PUSH8 0xFFFFFFFFFFFFFFFF DUP2 GT ISZERO PUSH2 0x1539 JUMPI PUSH2 0x1538 PUSH2 0x10D3 JUMP JUMPDEST JUMPDEST PUSH2 0x1545 DUP7 DUP3 DUP8 ADD PUSH2 0x1384 JUMP JUMPDEST SWAP4 POP POP PUSH1 0x20 DUP5 ADD CALLDATALOAD PUSH8 0xFFFFFFFFFFFFFFFF DUP2 GT ISZERO PUSH2 0x1566 JUMPI PUSH2 0x1565 PUSH2 0x10D3 JUMP JUMPDEST JUMPDEST PUSH2 0x1572 DUP7 DUP3 DUP8 ADD PUSH2 0x1384 JUMP JUMPDEST SWAP3 POP POP PUSH1 0x40 PUSH2 0x1583 DUP7 DUP3 DUP8 ADD PUSH2 0x1121 JUMP JUMPDEST SWAP2 POP POP SWAP3 POP SWAP3 POP SWAP3 JUMP JUMPDEST PUSH1 0x0 DUP1 PUSH1 0x0 PUSH1 0x60 DUP5 DUP7 SUB SLT ISZERO PUSH2 0x15A6 JUMPI PUSH2 0x15A5 PUSH2 0x10CE JUMP JUMPDEST JUMPDEST PUSH1 0x0 PUSH2 0x15B4 DUP7 DUP3 DUP8 ADD PUSH2 0x1121 JUMP JUMPDEST SWAP4 POP POP PUSH1 0x20 DUP5 ADD CALLDATALOAD PUSH8 0xFFFFFFFFFFFFFFFF DUP2 GT ISZERO PUSH2 0x15D5 JUMPI PUSH2 0x15D4 PUSH2 0x10D3 JUMP JUMPDEST JUMPDEST PUSH2 0x15E1 DUP7 DUP3 DUP8 ADD PUSH2 0x1384 JUMP JUMPDEST SWAP3 POP POP PUSH1 0x40 DUP5 ADD CALLDATALOAD PUSH8 0xFFFFFFFFFFFFFFFF DUP2 GT ISZERO PUSH2 0x1602 JUMPI PUSH2 0x1601 PUSH2 0x10D3 JUMP JUMPDEST JUMPDEST PUSH2 0x160E DUP7 DUP3 DUP8 ADD PUSH2 0x1384 JUMP JUMPDEST SWAP2 POP POP SWAP3 POP SWAP3 POP SWAP3 JUMP JUMPDEST PUSH32 0x4F6E6C7920556E69766572736974792041444D494E2063616E20706572666F72 PUSH1 0x0 DUP3 ADD MSTORE PUSH32 0x6D207468697320616374696F6E21000000000000000000000000000000000000 PUSH1 0x20 DUP3 ADD MSTORE POP JUMP JUMPDEST PUSH1 0x0 PUSH2 0x1674 PUSH1 0x2E DUP4 PUSH2 0x116E JUMP JUMPDEST SWAP2 POP PUSH2 0x167F DUP3 PUSH2 0x1618 JUMP JUMPDEST PUSH1 0x40 DUP3 ADD SWAP1 POP SWAP2 SWAP1 POP JUMP JUMPDEST PUSH1 0x0 PUSH1 0x20 DUP3 ADD SWAP1 POP DUP2 DUP2 SUB PUSH1 0x0 DUP4 ADD MSTORE PUSH2 0x16A3 DUP2 PUSH2 0x1667 JUMP JUMPDEST SWAP1 POP SWAP2 SWAP1 POP JUMP JUMPDEST PUSH32 0x4F6E6C7920556E6976657273697479206F722053616D6520636F6C6C65676520 PUSH1 0x0 DUP3 ADD MSTORE PUSH32 0x41444D494E2063616E20706572666F726D207468697320616374696F6E210000 PUSH1 0x20 DUP3 ADD MSTORE POP JUMP JUMPDEST PUSH1 0x0 PUSH2 0x1706 PUSH1 0x3E DUP4 PUSH2 0x116E JUMP JUMPDEST SWAP2 POP PUSH2 0x1711 DUP3 PUSH2 0x16AA JUMP JUMPDEST PUSH1 0x40 DUP3 ADD SWAP1 POP SWAP2 SWAP1 POP JUMP JUMPDEST PUSH1 0x0 PUSH1 0x20 DUP3 ADD SWAP1 POP DUP2 DUP2 SUB PUSH1 0x0 DUP4 ADD MSTORE PUSH2 0x1735 DUP2 PUSH2 0x16F9 JUMP JUMPDEST SWAP1 POP SWAP2 SWAP1 POP JUMP JUMPDEST PUSH32 0x4E487B7100000000000000000000000000000000000000000000000000000000 PUSH1 0x0 MSTORE PUSH1 0x22 PUSH1 0x4 MSTORE PUSH1 0x24 PUSH1 0x0 REVERT JUMPDEST PUSH1 0x0 PUSH1 0x2 DUP3 DIV SWAP1 POP PUSH1 0x1 DUP3 AND DUP1 PUSH2 0x1783 JUMPI PUSH1 0x7F DUP3 AND SWAP2 POP JUMPDEST PUSH1 0x20 DUP3 LT DUP2 SUB PUSH2 0x1796 JUMPI PUSH2 0x1795 PUSH2 0x173C JUMP JUMPDEST JUMPDEST POP SWAP2 SWAP1 POP JUMP JUMPDEST PUSH32 0x436F6C6C656765206973206E6F7420617574686F72697A656420746F20616464 PUSH1 0x0 DUP3 ADD MSTORE PUSH32 0x206E65772053747564656E742100000000000000000000000000000000000000 PUSH1 0x20 DUP3 ADD MSTORE POP JUMP JUMPDEST PUSH1 0x0 PUSH2 0x17F8 PUSH1 0x2D DUP4 PUSH2 0x116E JUMP JUMPDEST SWAP2 POP PUSH2 0x1803 DUP3 PUSH2 0x179C JUMP JUMPDEST PUSH1 0x40 DUP3 ADD SWAP1 POP SWAP2 SWAP1 POP JUMP JUMPDEST PUSH1 0x0 PUSH1 0x20 DUP3 ADD SWAP1 POP DUP2 DUP2 SUB PUSH1 0x0 DUP4 ADD MSTORE PUSH2 0x1827 DUP2 PUSH2 0x17EB JUMP JUMPDEST SWAP1 POP SWAP2 SWAP1 POP JUMP JUMPDEST PUSH1 0x0 DUP2 SWAP1 POP SWAP3 SWAP2 POP POP JUMP JUMPDEST PUSH1 0x0 PUSH2 0x1844 DUP3 PUSH2 0x1163 JUMP JUMPDEST PUSH2 0x184E DUP2 DUP6 PUSH2 0x182E JUMP JUMPDEST SWAP4 POP PUSH2 0x185E DUP2 DUP6 PUSH1 0x20 DUP7 ADD PUSH2 0x117F JUMP JUMPDEST DUP1 DUP5 ADD SWAP2 POP POP SWAP3 SWAP2 POP POP JUMP JUMPDEST PUSH1 0x0 PUSH2 0x1876 DUP3 DUP5 PUSH2 0x1839 JUMP JUMPDEST SWAP2 POP DUP2 SWAP1 POP SWAP3 SWAP2 POP POP JUMP JUMPDEST PUSH1 0x0 DUP2 SWAP1 POP DUP2 PUSH1 0x0 MSTORE PUSH1 0x20 PUSH1 0x0 KECCAK256 SWAP1 POP SWAP2 SWAP1 POP JUMP JUMPDEST PUSH1 0x0 PUSH1 0x20 PUSH1 0x1F DUP4 ADD DIV SWAP1 POP SWAP2 SWAP1 POP JUMP JUMPDEST PUSH1 0x0 DUP3 DUP3 SHL SWAP1 POP SWAP3 SWAP2 POP POP JUMP JUMPDEST PUSH1 0x0 PUSH1 0x8 DUP4 MUL PUSH2 0x18E3 PUSH32 0xFFFFFFFFFFFFFFFFFFFFFFFFFFFFFFFFFFFFFFFFFFFFFFFFFFFFFFFFFFFFFFFF DUP3 PUSH2 0x18A6 JUMP JUMPDEST PUSH2 0x18ED DUP7 DUP4 PUSH2 0x18A6 JUMP JUMPDEST SWAP6 POP DUP1 NOT DUP5 AND SWAP4 POP DUP1 DUP7 AND DUP5 OR SWAP3 POP POP POP SWAP4 SWAP3 POP POP POP JUMP JUMPDEST PUSH1 0x0 DUP2 SWAP1 POP SWAP2 SWAP1 POP JUMP JUMPDEST PUSH1 0x0 DUP2 SWAP1 POP SWAP2 SWAP1 POP JUMP JUMPDEST PUSH1 0x0 PUSH2 0x1934 PUSH2 0x192F PUSH2 0x192A DUP5 PUSH2 0x1905 JUMP JUMPDEST PUSH2 0x190F JUMP JUMPDEST PUSH2 0x1905 JUMP JUMPDEST SWAP1 POP SWAP2 SWAP1 POP JUMP JUMPDEST PUSH1 0x0 DUP2 SWAP1 POP SWAP2 SWAP1 POP JUMP JUMPDEST PUSH2 0x194E DUP4 PUSH2 0x1919 JUMP JUMPDEST PUSH2 0x1962 PUSH2 0x195A DUP3 PUSH2 0x193B JUMP JUMPDEST DUP5 DUP5 SLOAD PUSH2 0x18B3 JUMP JUMPDEST DUP3 SSTORE POP POP POP POP JUMP JUMPDEST PUSH1 0x0 SWAP1 JUMP JUMPDEST PUSH2 0x1977 PUSH2 0x196A JUMP JUMPDEST PUSH2 0x1982 DUP2 DUP5 DUP5 PUSH2 0x1945 JUMP JUMPDEST POP POP POP JUMP JUMPDEST JUMPDEST DUP2 DUP2 LT ISZERO PUSH2 0x19A6 JUMPI PUSH2 0x199B PUSH1 0x0 DUP3 PUSH2 0x196F JUMP JUMPDEST PUSH1 0x1 DUP2 ADD SWAP1 POP PUSH2 0x1988 JUMP JUMPDEST POP POP JUMP JUMPDEST PUSH1 0x1F DUP3 GT ISZERO PUSH2 0x19EB JUMPI PUSH2 0x19BC DUP2 PUSH2 0x1881 JUMP JUMPDEST PUSH2 0x19C5 DUP5 PUSH2 0x1896 JUMP JUMPDEST DUP2 ADD PUSH1 0x20 DUP6 LT ISZERO PUSH2 0x19D4 JUMPI DUP2 SWAP1 POP JUMPDEST PUSH2 0x19E8 PUSH2 0x19E0 DUP6 PUSH2 0x1896 JUMP JUMPDEST DUP4 ADD DUP3 PUSH2 0x1987 JUMP JUMPDEST POP POP JUMPDEST POP POP POP JUMP JUMPDEST PUSH1 0x0 DUP3 DUP3 SHR SWAP1 POP SWAP3 SWAP2 POP POP JUMP JUMPDEST PUSH1 0x0 PUSH2 0x1A0E PUSH1 0x0 NOT DUP5 PUSH1 0x8 MUL PUSH2 0x19F0 JUMP JUMPDEST NOT DUP1 DUP4 AND SWAP2 POP POP SWAP3 SWAP2 POP POP JUMP JUMPDEST PUSH1 0x0 PUSH2 0x1A27 DUP4 DUP4 PUSH2 0x19FD JUMP JUMPDEST SWAP2 POP DUP3 PUSH1 0x2 MUL DUP3 OR SWAP1 POP SWAP3 SWAP2 POP POP JUMP JUMPDEST PUSH2 0x1A40 DUP3 PUSH2 0x1163 JUMP JUMPDEST PUSH8 0xFFFFFFFFFFFFFFFF DUP2 GT ISZERO PUSH2 0x1A59 JUMPI PUSH2 0x1A58 PUSH2 0x1287 JUMP JUMPDEST JUMPDEST PUSH2 0x1A63 DUP3 SLOAD PUSH2 0x176B JUMP JUMPDEST PUSH2 0x1A6E DUP3 DUP3 DUP6 PUSH2 0x19AA JUMP JUMPDEST PUSH1 0x0 PUSH1 0x20 SWAP1 POP PUSH1 0x1F DUP4 GT PUSH1 0x1 DUP2 EQ PUSH2 0x1AA1 JUMPI PUSH1 0x0 DUP5 ISZERO PUSH2 0x1A8F JUMPI DUP3 DUP8 ADD MLOAD SWAP1 POP JUMPDEST PUSH2 0x1A99 DUP6 DUP3 PUSH2 0x1A1B JUMP JUMPDEST DUP7 SSTORE POP PUSH2 0x1B01 JUMP JUMPDEST PUSH1 0x1F NOT DUP5 AND PUSH2 0x1AAF DUP7 PUSH2 0x1881 JUMP JUMPDEST PUSH1 0x0 JUMPDEST DUP3 DUP2 LT ISZERO PUSH2 0x1AD7 JUMPI DUP5 DUP10 ADD MLOAD DUP3 SSTORE PUSH1 0x1 DUP3 ADD SWAP2 POP PUSH1 0x20 DUP6 ADD SWAP5 POP PUSH1 0x20 DUP2 ADD SWAP1 POP PUSH2 0x1AB2 JUMP JUMPDEST DUP7 DUP4 LT ISZERO PUSH2 0x1AF4 JUMPI DUP5 DUP10 ADD MLOAD PUSH2 0x1AF0 PUSH1 0x1F DUP10 AND DUP3 PUSH2 0x19FD JUMP JUMPDEST DUP4 SSTORE POP JUMPDEST PUSH1 0x1 PUSH1 0x2 DUP9 MUL ADD DUP9 SSTORE POP POP POP JUMPDEST POP POP POP POP POP POP JUMP JUMPDEST PUSH32 0x4E487B7100000000000000000000000000000000000000000000000000000000 PUSH1 0x0 MSTORE PUSH1 0x11 PUSH1 0x4 MSTORE PUSH1 0x24 PUSH1 0x0 REVERT JUMPDEST PUSH1 0x0 PUSH2 0x1B43 DUP3 PUSH2 0x120E JUMP JUMPDEST SWAP2 POP PUSH2 0x1B4E DUP4 PUSH2 0x120E JUMP JUMPDEST SWAP3 POP DUP3 DUP3 ADD SWAP1 POP PUSH1 0xFF DUP2 GT ISZERO PUSH2 0x1B67 JUMPI PUSH2 0x1B66 PUSH2 0x1B09 JUMP JUMPDEST JUMPDEST SWAP3 SWAP2 POP POP JUMP INVALID LOG2 PUSH5 0x6970667358 0x22 SLT KECCAK256 0x1E SLOAD 0xB7 0xC0 0xDB CALLER 0x5F KECCAK256 OR 0xDB STOP EXTCODECOPY DIFFICULTY 0xED ORIGIN 0xC8 SWAP12 LT 0xA5 PUSH4 0x4A162BFC PUSH28 0x9DEE975A3BB66764736F6C6343000811003300000000000000000000 "
				},
				"gasEstimates": {
					"creation": {
						"codeDepositCost": "1415000",
						"executionCost": "25745",
						"totalCost": "1440745"
					},
					"external": {
						"addNewCollege(string,string,address)": "infinite",
						"addNewStudent(address,string,string,string)": "infinite",
						"allowCollegeAddingNewStudents(address)": "27007",
						"blockCollegeAddingNewStudents(address)": "26986",
						"changeStudentCourse(address,string,string)": "infinite",
						"getCollegeDetails(address)": "infinite",
						"getStudentDetails(string)": "infinite"
					}
				},
				"methodIdentifiers": {
					"addNewCollege(string,string,address)": "e05cd31c",
					"addNewStudent(address,string,string,string)": "7f3e1e82",
					"allowCollegeAddingNewStudents(address)": "b6b8ab99",
					"blockCollegeAddingNewStudents(address)": "18ab022f",
					"changeStudentCourse(address,string,string)": "f86b0b76",
					"getCollegeDetails(address)": "52dc8f7c",
					"getStudentDetails(string)": "8805f0f4"
				}
			},
			"storageLayout": {
				"storage": [
					{
						"astId": 3,
						"contract": "contracts/CollegeTracker.sol:COllegeTracker",
						"label": "universityAddress",
						"offset": 0,
						"slot": "0",
						"type": "t_address"
					},
					{
						"astId": 39,
						"contract": "contracts/CollegeTracker.sol:COllegeTracker",
						"label": "colleges",
						"offset": 0,
						"slot": "1",
						"type": "t_mapping(t_address,t_struct(College)25_storage)"
					},
					{
						"astId": 44,
						"contract": "contracts/CollegeTracker.sol:COllegeTracker",
						"label": "students",
						"offset": 0,
						"slot": "2",
						"type": "t_mapping(t_string_memory_ptr,t_struct(Student)34_storage)"
					}
				],
				"types": {
					"t_address": {
						"encoding": "inplace",
						"label": "address",
						"numberOfBytes": "20"
					},
					"t_bool": {
						"encoding": "inplace",
						"label": "bool",
						"numberOfBytes": "1"
					},
					"t_mapping(t_address,t_struct(College)25_storage)": {
						"encoding": "mapping",
						"key": "t_address",
						"label": "mapping(address => struct COllegeTracker.College)",
						"numberOfBytes": "32",
						"value": "t_struct(College)25_storage"
					},
					"t_mapping(t_string_memory_ptr,t_struct(Student)34_storage)": {
						"encoding": "mapping",
						"key": "t_string_memory_ptr",
						"label": "mapping(string => struct COllegeTracker.Student)",
						"numberOfBytes": "32",
						"value": "t_struct(Student)34_storage"
					},
					"t_string_memory_ptr": {
						"encoding": "bytes",
						"label": "string",
						"numberOfBytes": "32"
					},
					"t_string_storage": {
						"encoding": "bytes",
						"label": "string",
						"numberOfBytes": "32"
					},
					"t_struct(College)25_storage": {
						"encoding": "inplace",
						"label": "struct COllegeTracker.College",
						"members": [
							{
								"astId": 14,
								"contract": "contracts/CollegeTracker.sol:COllegeTracker",
								"label": "name",
								"offset": 0,
								"slot": "0",
								"type": "t_string_storage"
							},
							{
								"astId": 16,
								"contract": "contracts/CollegeTracker.sol:COllegeTracker",
								"label": "collegeAddress",
								"offset": 0,
								"slot": "1",
								"type": "t_address"
							},
							{
								"astId": 18,
								"contract": "contracts/CollegeTracker.sol:COllegeTracker",
								"label": "collegeAdmin",
								"offset": 0,
								"slot": "2",
								"type": "t_address"
							},
							{
								"astId": 20,
								"contract": "contracts/CollegeTracker.sol:COllegeTracker",
								"label": "regNo",
								"offset": 0,
								"slot": "3",
								"type": "t_string_storage"
							},
							{
								"astId": 22,
								"contract": "contracts/CollegeTracker.sol:COllegeTracker",
								"label": "addStudentPrivilege",
								"offset": 0,
								"slot": "4",
								"type": "t_bool"
							},
							{
								"astId": 24,
								"contract": "contracts/CollegeTracker.sol:COllegeTracker",
								"label": "noOfStudents",
								"offset": 1,
								"slot": "4",
								"type": "t_uint8"
							}
						],
						"numberOfBytes": "160"
					},
					"t_struct(Student)34_storage": {
						"encoding": "inplace",
						"label": "struct COllegeTracker.Student",
						"members": [
							{
								"astId": 27,
								"contract": "contracts/CollegeTracker.sol:COllegeTracker",
								"label": "collegeAddress",
								"offset": 0,
								"slot": "0",
								"type": "t_address"
							},
							{
								"astId": 29,
								"contract": "contracts/CollegeTracker.sol:COllegeTracker",
								"label": "name",
								"offset": 0,
								"slot": "1",
								"type": "t_string_storage"
							},
							{
								"astId": 31,
								"contract": "contracts/CollegeTracker.sol:COllegeTracker",
								"label": "phoneNo",
								"offset": 0,
								"slot": "2",
								"type": "t_string_storage"
							},
							{
								"astId": 33,
								"contract": "contracts/CollegeTracker.sol:COllegeTracker",
								"label": "courseName",
								"offset": 0,
								"slot": "3",
								"type": "t_string_storage"
							}
						],
						"numberOfBytes": "128"
					},
					"t_uint8": {
						"encoding": "inplace",
						"label": "uint8",
						"numberOfBytes": "1"
					}
				}
			},
			"userdoc": {
				"kind": "user",
				"methods": {},
				"version": 1
			}
		}
	}
}