{
	"contracts/ArrayDemo.sol": {
		"ArrayDemo": {
			"abi": [
				{
					"inputs": [
						{
							"internalType": "uint8",
							"name": "_index",
							"type": "uint8"
						}
					],
					"name": "readData",
					"outputs": [
						{
							"internalType": "uint8",
							"name": "",
							"type": "uint8"
						}
					],
					"stateMutability": "view",
					"type": "function"
				},
				{
					"inputs": [
						{
							"internalType": "uint8",
							"name": "_index",
							"type": "uint8"
						}
					],
					"name": "readPhoneNo",
					"outputs": [
						{
							"internalType": "uint256",
							"name": "",
							"type": "uint256"
						}
					],
					"stateMutability": "view",
					"type": "function"
				},
				{
					"inputs": [
						{
							"internalType": "uint8",
							"name": "_index",
							"type": "uint8"
						},
						{
							"internalType": "uint8",
							"name": "_value",
							"type": "uint8"
						}
					],
					"name": "setData",
					"outputs": [],
					"stateMutability": "nonpayable",
					"type": "function"
				},
				{
					"inputs": [
						{
							"internalType": "uint256",
							"name": "_phoneNo",
							"type": "uint256"
						}
					],
					"name": "setPhoneData",
					"outputs": [],
					"stateMutability": "nonpayable",
					"type": "function"
				}
			],
			"devdoc": {
				"kind": "dev",
				"methods": {},
				"version": 1
			},
			"evm": {
				"assembly": "    /* \"contracts/ArrayDemo.sol\":56:594  contract ArrayDemo{... */\n  mstore(0x40, 0x80)\n  callvalue\n  dup1\n  iszero\n  tag_1\n  jumpi\n  0x00\n  dup1\n  revert\ntag_1:\n  pop\n  dataSize(sub_0)\n  dup1\n  dataOffset(sub_0)\n  0x00\n  codecopy\n  0x00\n  return\nstop\n\nsub_0: assembly {\n        /* \"contracts/ArrayDemo.sol\":56:594  contract ArrayDemo{... */\n      mstore(0x40, 0x80)\n      callvalue\n      dup1\n      iszero\n      tag_1\n      jumpi\n      0x00\n      dup1\n      revert\n    tag_1:\n      pop\n      jumpi(tag_2, lt(calldatasize, 0x04))\n      shr(0xe0, calldataload(0x00))\n      dup1\n      0x1e3d73a1\n      eq\n      tag_3\n      jumpi\n      dup1\n      0x451d76c3\n      eq\n      tag_4\n      jumpi\n      dup1\n      0x7cf7a4dd\n      eq\n      tag_5\n      jumpi\n      dup1\n      0xa45581fb\n      eq\n      tag_6\n      jumpi\n    tag_2:\n      0x00\n      dup1\n      revert\n        /* \"contracts/ArrayDemo.sol\":162:252  function setData(uint8 _index, uint8 _value) public {... */\n    tag_3:\n      tag_7\n      0x04\n      dup1\n      calldatasize\n      sub\n      dup2\n      add\n      swap1\n      tag_8\n      swap2\n      swap1\n      tag_9\n      jump\t// in\n    tag_8:\n      tag_10\n      jump\t// in\n    tag_7:\n      stop\n        /* \"contracts/ArrayDemo.sol\":402:486  function setPhoneData(uint _phoneNo) public {... */\n    tag_4:\n      tag_11\n      0x04\n      dup1\n      calldatasize\n      sub\n      dup2\n      add\n      swap1\n      tag_12\n      swap2\n      swap1\n      tag_13\n      jump\t// in\n    tag_12:\n      tag_14\n      jump\t// in\n    tag_11:\n      stop\n        /* \"contracts/ArrayDemo.sol\":258:352  function readData(uint8 _index) public view returns(uint8){... */\n    tag_5:\n      tag_15\n      0x04\n      dup1\n      calldatasize\n      sub\n      dup2\n      add\n      swap1\n      tag_16\n      swap2\n      swap1\n      tag_17\n      jump\t// in\n    tag_16:\n      tag_18\n      jump\t// in\n    tag_15:\n      mload(0x40)\n      tag_19\n      swap2\n      swap1\n      tag_20\n      jump\t// in\n    tag_19:\n      mload(0x40)\n      dup1\n      swap2\n      sub\n      swap1\n      return\n        /* \"contracts/ArrayDemo.sol\":492:592  function readPhoneNo(uint8 _index) public view returns(uint){... */\n    tag_6:\n      tag_21\n      0x04\n      dup1\n      calldatasize\n      sub\n      dup2\n      add\n      swap1\n      tag_22\n      swap2\n      swap1\n      tag_17\n      jump\t// in\n    tag_22:\n      tag_23\n      jump\t// in\n    tag_21:\n      mload(0x40)\n      tag_24\n      swap2\n      swap1\n      tag_25\n      jump\t// in\n    tag_24:\n      mload(0x40)\n      dup1\n      swap2\n      sub\n      swap1\n      return\n        /* \"contracts/ArrayDemo.sol\":162:252  function setData(uint8 _index, uint8 _value) public {... */\n    tag_10:\n        /* \"contracts/ArrayDemo.sol\":239:245  _value */\n      dup1\n        /* \"contracts/ArrayDemo.sol\":224:228  ages */\n      0x00\n        /* \"contracts/ArrayDemo.sol\":229:235  _index */\n      dup4\n        /* \"contracts/ArrayDemo.sol\":224:236  ages[_index] */\n      0xff\n      and\n      0x32\n      dup2\n      lt\n      tag_27\n      jumpi\n      tag_28\n      tag_29\n      jump\t// in\n    tag_28:\n    tag_27:\n      0x20\n      swap2\n      dup3\n      dup3\n      div\n      add\n      swap2\n      swap1\n      mod\n        /* \"contracts/ArrayDemo.sol\":224:245  ages[_index] = _value */\n      0x0100\n      exp\n      dup2\n      sload\n      dup2\n      0xff\n      mul\n      not\n      and\n      swap1\n      dup4\n      0xff\n      and\n      mul\n      or\n      swap1\n      sstore\n      pop\n        /* \"contracts/ArrayDemo.sol\":162:252  function setData(uint8 _index, uint8 _value) public {... */\n      pop\n      pop\n      jump\t// out\n        /* \"contracts/ArrayDemo.sol\":402:486  function setPhoneData(uint _phoneNo) public {... */\n    tag_14:\n        /* \"contracts/ArrayDemo.sol\":456:464  phoneNos */\n      0x02\n        /* \"contracts/ArrayDemo.sol\":470:478  _phoneNo */\n      dup2\n        /* \"contracts/ArrayDemo.sol\":456:479  phoneNos.push(_phoneNo) */\n      swap1\n      dup1\n      0x01\n      dup2\n      sload\n      add\n      dup1\n      dup3\n      sstore\n      dup1\n      swap2\n      pop\n      pop\n      0x01\n      swap1\n      sub\n      swap1\n      0x00\n      mstore\n      keccak256(0x00, 0x20)\n      add\n      0x00\n      swap1\n      swap2\n      swap1\n      swap2\n      swap1\n      swap2\n      pop\n      sstore\n        /* \"contracts/ArrayDemo.sol\":402:486  function setPhoneData(uint _phoneNo) public {... */\n      pop\n      jump\t// out\n        /* \"contracts/ArrayDemo.sol\":258:352  function readData(uint8 _index) public view returns(uint8){... */\n    tag_18:\n        /* \"contracts/ArrayDemo.sol\":310:315  uint8 */\n      0x00\n        /* \"contracts/ArrayDemo.sol\":333:337  ages */\n      dup1\n        /* \"contracts/ArrayDemo.sol\":338:344  _index */\n      dup3\n        /* \"contracts/ArrayDemo.sol\":333:345  ages[_index] */\n      0xff\n      and\n      0x32\n      dup2\n      lt\n      tag_34\n      jumpi\n      tag_35\n      tag_29\n      jump\t// in\n    tag_35:\n    tag_34:\n      0x20\n      swap2\n      dup3\n      dup3\n      div\n      add\n      swap2\n      swap1\n      mod\n      swap1\n      sload\n      swap1\n      0x0100\n      exp\n      swap1\n      div\n      0xff\n      and\n        /* \"contracts/ArrayDemo.sol\":326:345  return ages[_index] */\n      swap1\n      pop\n        /* \"contracts/ArrayDemo.sol\":258:352  function readData(uint8 _index) public view returns(uint8){... */\n      swap2\n      swap1\n      pop\n      jump\t// out\n        /* \"contracts/ArrayDemo.sol\":492:592  function readPhoneNo(uint8 _index) public view returns(uint){... */\n    tag_23:\n        /* \"contracts/ArrayDemo.sol\":547:551  uint */\n      0x00\n        /* \"contracts/ArrayDemo.sol\":569:577  phoneNos */\n      0x02\n        /* \"contracts/ArrayDemo.sol\":578:584  _index */\n      dup3\n        /* \"contracts/ArrayDemo.sol\":569:585  phoneNos[_index] */\n      0xff\n      and\n      dup2\n      sload\n      dup2\n      lt\n      tag_38\n      jumpi\n      tag_39\n      tag_29\n      jump\t// in\n    tag_39:\n    tag_38:\n      swap1\n      0x00\n      mstore\n      keccak256(0x00, 0x20)\n      add\n      sload\n        /* \"contracts/ArrayDemo.sol\":562:585  return phoneNos[_index] */\n      swap1\n      pop\n        /* \"contracts/ArrayDemo.sol\":492:592  function readPhoneNo(uint8 _index) public view returns(uint){... */\n      swap2\n      swap1\n      pop\n      jump\t// out\n        /* \"#utility.yul\":7:146   */\n    tag_42:\n        /* \"#utility.yul\":53:58   */\n      0x00\n        /* \"#utility.yul\":91:97   */\n      dup2\n        /* \"#utility.yul\":78:98   */\n      calldataload\n        /* \"#utility.yul\":69:98   */\n      swap1\n      pop\n        /* \"#utility.yul\":107:140   */\n      tag_44\n        /* \"#utility.yul\":134:139   */\n      dup2\n        /* \"#utility.yul\":107:140   */\n      tag_45\n      jump\t// in\n    tag_44:\n        /* \"#utility.yul\":7:146   */\n      swap3\n      swap2\n      pop\n      pop\n      jump\t// out\n        /* \"#utility.yul\":152:287   */\n    tag_46:\n        /* \"#utility.yul\":196:201   */\n      0x00\n        /* \"#utility.yul\":234:240   */\n      dup2\n        /* \"#utility.yul\":221:241   */\n      calldataload\n        /* \"#utility.yul\":212:241   */\n      swap1\n      pop\n        /* \"#utility.yul\":250:281   */\n      tag_48\n        /* \"#utility.yul\":275:280   */\n      dup2\n        /* \"#utility.yul\":250:281   */\n      tag_49\n      jump\t// in\n    tag_48:\n        /* \"#utility.yul\":152:287   */\n      swap3\n      swap2\n      pop\n      pop\n      jump\t// out\n        /* \"#utility.yul\":293:622   */\n    tag_13:\n        /* \"#utility.yul\":352:358   */\n      0x00\n        /* \"#utility.yul\":401:403   */\n      0x20\n        /* \"#utility.yul\":389:398   */\n      dup3\n        /* \"#utility.yul\":380:387   */\n      dup5\n        /* \"#utility.yul\":376:399   */\n      sub\n        /* \"#utility.yul\":372:404   */\n      slt\n        /* \"#utility.yul\":369:488   */\n      iszero\n      tag_51\n      jumpi\n        /* \"#utility.yul\":407:486   */\n      tag_52\n      tag_53\n      jump\t// in\n    tag_52:\n        /* \"#utility.yul\":369:488   */\n    tag_51:\n        /* \"#utility.yul\":527:528   */\n      0x00\n        /* \"#utility.yul\":552:605   */\n      tag_54\n        /* \"#utility.yul\":597:604   */\n      dup5\n        /* \"#utility.yul\":588:594   */\n      dup3\n        /* \"#utility.yul\":577:586   */\n      dup6\n        /* \"#utility.yul\":573:595   */\n      add\n        /* \"#utility.yul\":552:605   */\n      tag_42\n      jump\t// in\n    tag_54:\n        /* \"#utility.yul\":542:605   */\n      swap2\n      pop\n        /* \"#utility.yul\":498:615   */\n      pop\n        /* \"#utility.yul\":293:622   */\n      swap3\n      swap2\n      pop\n      pop\n      jump\t// out\n        /* \"#utility.yul\":628:953   */\n    tag_17:\n        /* \"#utility.yul\":685:691   */\n      0x00\n        /* \"#utility.yul\":734:736   */\n      0x20\n        /* \"#utility.yul\":722:731   */\n      dup3\n        /* \"#utility.yul\":713:720   */\n      dup5\n        /* \"#utility.yul\":709:732   */\n      sub\n        /* \"#utility.yul\":705:737   */\n      slt\n        /* \"#utility.yul\":702:821   */\n      iszero\n      tag_56\n      jumpi\n        /* \"#utility.yul\":740:819   */\n      tag_57\n      tag_53\n      jump\t// in\n    tag_57:\n        /* \"#utility.yul\":702:821   */\n    tag_56:\n        /* \"#utility.yul\":860:861   */\n      0x00\n        /* \"#utility.yul\":885:936   */\n      tag_58\n        /* \"#utility.yul\":928:935   */\n      dup5\n        /* \"#utility.yul\":919:925   */\n      dup3\n        /* \"#utility.yul\":908:917   */\n      dup6\n        /* \"#utility.yul\":904:926   */\n      add\n        /* \"#utility.yul\":885:936   */\n      tag_46\n      jump\t// in\n    tag_58:\n        /* \"#utility.yul\":875:936   */\n      swap2\n      pop\n        /* \"#utility.yul\":831:946   */\n      pop\n        /* \"#utility.yul\":628:953   */\n      swap3\n      swap2\n      pop\n      pop\n      jump\t// out\n        /* \"#utility.yul\":959:1425   */\n    tag_9:\n        /* \"#utility.yul\":1023:1029   */\n      0x00\n        /* \"#utility.yul\":1031:1037   */\n      dup1\n        /* \"#utility.yul\":1080:1082   */\n      0x40\n        /* \"#utility.yul\":1068:1077   */\n      dup4\n        /* \"#utility.yul\":1059:1066   */\n      dup6\n        /* \"#utility.yul\":1055:1078   */\n      sub\n        /* \"#utility.yul\":1051:1083   */\n      slt\n        /* \"#utility.yul\":1048:1167   */\n      iszero\n      tag_60\n      jumpi\n        /* \"#utility.yul\":1086:1165   */\n      tag_61\n      tag_53\n      jump\t// in\n    tag_61:\n        /* \"#utility.yul\":1048:1167   */\n    tag_60:\n        /* \"#utility.yul\":1206:1207   */\n      0x00\n        /* \"#utility.yul\":1231:1282   */\n      tag_62\n        /* \"#utility.yul\":1274:1281   */\n      dup6\n        /* \"#utility.yul\":1265:1271   */\n      dup3\n        /* \"#utility.yul\":1254:1263   */\n      dup7\n        /* \"#utility.yul\":1250:1272   */\n      add\n        /* \"#utility.yul\":1231:1282   */\n      tag_46\n      jump\t// in\n    tag_62:\n        /* \"#utility.yul\":1221:1282   */\n      swap3\n      pop\n        /* \"#utility.yul\":1177:1292   */\n      pop\n        /* \"#utility.yul\":1331:1333   */\n      0x20\n        /* \"#utility.yul\":1357:1408   */\n      tag_63\n        /* \"#utility.yul\":1400:1407   */\n      dup6\n        /* \"#utility.yul\":1391:1397   */\n      dup3\n        /* \"#utility.yul\":1380:1389   */\n      dup7\n        /* \"#utility.yul\":1376:1398   */\n      add\n        /* \"#utility.yul\":1357:1408   */\n      tag_46\n      jump\t// in\n    tag_63:\n        /* \"#utility.yul\":1347:1408   */\n      swap2\n      pop\n        /* \"#utility.yul\":1302:1418   */\n      pop\n        /* \"#utility.yul\":959:1425   */\n      swap3\n      pop\n      swap3\n      swap1\n      pop\n      jump\t// out\n        /* \"#utility.yul\":1431:1549   */\n    tag_64:\n        /* \"#utility.yul\":1518:1542   */\n      tag_66\n        /* \"#utility.yul\":1536:1541   */\n      dup2\n        /* \"#utility.yul\":1518:1542   */\n      tag_67\n      jump\t// in\n    tag_66:\n        /* \"#utility.yul\":1513:1516   */\n      dup3\n        /* \"#utility.yul\":1506:1543   */\n      mstore\n        /* \"#utility.yul\":1431:1549   */\n      pop\n      pop\n      jump\t// out\n        /* \"#utility.yul\":1555:1667   */\n    tag_68:\n        /* \"#utility.yul\":1638:1660   */\n      tag_70\n        /* \"#utility.yul\":1654:1659   */\n      dup2\n        /* \"#utility.yul\":1638:1660   */\n      tag_71\n      jump\t// in\n    tag_70:\n        /* \"#utility.yul\":1633:1636   */\n      dup3\n        /* \"#utility.yul\":1626:1661   */\n      mstore\n        /* \"#utility.yul\":1555:1667   */\n      pop\n      pop\n      jump\t// out\n        /* \"#utility.yul\":1673:1895   */\n    tag_25:\n        /* \"#utility.yul\":1766:1770   */\n      0x00\n        /* \"#utility.yul\":1804:1806   */\n      0x20\n        /* \"#utility.yul\":1793:1802   */\n      dup3\n        /* \"#utility.yul\":1789:1807   */\n      add\n        /* \"#utility.yul\":1781:1807   */\n      swap1\n      pop\n        /* \"#utility.yul\":1817:1888   */\n      tag_73\n        /* \"#utility.yul\":1885:1886   */\n      0x00\n        /* \"#utility.yul\":1874:1883   */\n      dup4\n        /* \"#utility.yul\":1870:1887   */\n      add\n        /* \"#utility.yul\":1861:1867   */\n      dup5\n        /* \"#utility.yul\":1817:1888   */\n      tag_64\n      jump\t// in\n    tag_73:\n        /* \"#utility.yul\":1673:1895   */\n      swap3\n      swap2\n      pop\n      pop\n      jump\t// out\n        /* \"#utility.yul\":1901:2115   */\n    tag_20:\n        /* \"#utility.yul\":1990:1994   */\n      0x00\n        /* \"#utility.yul\":2028:2030   */\n      0x20\n        /* \"#utility.yul\":2017:2026   */\n      dup3\n        /* \"#utility.yul\":2013:2031   */\n      add\n        /* \"#utility.yul\":2005:2031   */\n      swap1\n      pop\n        /* \"#utility.yul\":2041:2108   */\n      tag_75\n        /* \"#utility.yul\":2105:2106   */\n      0x00\n        /* \"#utility.yul\":2094:2103   */\n      dup4\n        /* \"#utility.yul\":2090:2107   */\n      add\n        /* \"#utility.yul\":2081:2087   */\n      dup5\n        /* \"#utility.yul\":2041:2108   */\n      tag_68\n      jump\t// in\n    tag_75:\n        /* \"#utility.yul\":1901:2115   */\n      swap3\n      swap2\n      pop\n      pop\n      jump\t// out\n        /* \"#utility.yul\":2202:2279   */\n    tag_67:\n        /* \"#utility.yul\":2239:2246   */\n      0x00\n        /* \"#utility.yul\":2268:2273   */\n      dup2\n        /* \"#utility.yul\":2257:2273   */\n      swap1\n      pop\n        /* \"#utility.yul\":2202:2279   */\n      swap2\n      swap1\n      pop\n      jump\t// out\n        /* \"#utility.yul\":2285:2371   */\n    tag_71:\n        /* \"#utility.yul\":2320:2327   */\n      0x00\n        /* \"#utility.yul\":2360:2364   */\n      0xff\n        /* \"#utility.yul\":2353:2358   */\n      dup3\n        /* \"#utility.yul\":2349:2365   */\n      and\n        /* \"#utility.yul\":2338:2365   */\n      swap1\n      pop\n        /* \"#utility.yul\":2285:2371   */\n      swap2\n      swap1\n      pop\n      jump\t// out\n        /* \"#utility.yul\":2377:2557   */\n    tag_29:\n        /* \"#utility.yul\":2425:2502   */\n      0x4e487b7100000000000000000000000000000000000000000000000000000000\n        /* \"#utility.yul\":2422:2423   */\n      0x00\n        /* \"#utility.yul\":2415:2503   */\n      mstore\n        /* \"#utility.yul\":2522:2526   */\n      0x32\n        /* \"#utility.yul\":2519:2520   */\n      0x04\n        /* \"#utility.yul\":2512:2527   */\n      mstore\n        /* \"#utility.yul\":2546:2550   */\n      0x24\n        /* \"#utility.yul\":2543:2544   */\n      0x00\n        /* \"#utility.yul\":2536:2551   */\n      revert\n        /* \"#utility.yul\":2686:2803   */\n    tag_53:\n        /* \"#utility.yul\":2795:2796   */\n      0x00\n        /* \"#utility.yul\":2792:2793   */\n      dup1\n        /* \"#utility.yul\":2785:2797   */\n      revert\n        /* \"#utility.yul\":2809:2931   */\n    tag_45:\n        /* \"#utility.yul\":2882:2906   */\n      tag_85\n        /* \"#utility.yul\":2900:2905   */\n      dup2\n        /* \"#utility.yul\":2882:2906   */\n      tag_67\n      jump\t// in\n    tag_85:\n        /* \"#utility.yul\":2875:2880   */\n      dup2\n        /* \"#utility.yul\":2872:2907   */\n      eq\n        /* \"#utility.yul\":2862:2925   */\n      tag_86\n      jumpi\n        /* \"#utility.yul\":2921:2922   */\n      0x00\n        /* \"#utility.yul\":2918:2919   */\n      dup1\n        /* \"#utility.yul\":2911:2923   */\n      revert\n        /* \"#utility.yul\":2862:2925   */\n    tag_86:\n        /* \"#utility.yul\":2809:2931   */\n      pop\n      jump\t// out\n        /* \"#utility.yul\":2937:3055   */\n    tag_49:\n        /* \"#utility.yul\":3008:3030   */\n      tag_88\n        /* \"#utility.yul\":3024:3029   */\n      dup2\n        /* \"#utility.yul\":3008:3030   */\n      tag_71\n      jump\t// in\n    tag_88:\n        /* \"#utility.yul\":3001:3006   */\n      dup2\n        /* \"#utility.yul\":2998:3031   */\n      eq\n        /* \"#utility.yul\":2988:3049   */\n      tag_89\n      jumpi\n        /* \"#utility.yul\":3045:3046   */\n      0x00\n        /* \"#utility.yul\":3042:3043   */\n      dup1\n        /* \"#utility.yul\":3035:3047   */\n      revert\n        /* \"#utility.yul\":2988:3049   */\n    tag_89:\n        /* \"#utility.yul\":2937:3055   */\n      pop\n      jump\t// out\n\n    auxdata: 0xa26469706673582212209ef1b72e0aeb19a79ad700e139e0c5eb48b5d801464268b25c6b7c98fbd4622964736f6c63430008070033\n}\n",
				"bytecode": {
					"linkReferences": {},
					"object": "608060405234801561001057600080fd5b50610378806100206000396000f3fe608060405234801561001057600080fd5b506004361061004c5760003560e01c80631e3d73a114610051578063451d76c31461006d5780637cf7a4dd14610089578063a45581fb146100b9575b600080fd5b61006b60048036038101906100669190610235565b6100e9565b005b610087600480360381019061008291906101db565b610125565b005b6100a3600480360381019061009e9190610208565b610151565b6040516100b091906102ae565b60405180910390f35b6100d360048036038101906100ce9190610208565b610186565b6040516100e09190610293565b60405180910390f35b8060008360ff1660328110610101576101006102e0565b5b602091828204019190066101000a81548160ff021916908360ff1602179055505050565b600281908060018154018082558091505060019003906000526020600020016000909190919091505550565b6000808260ff1660328110610169576101686102e0565b5b602091828204019190069054906101000a900460ff169050919050565b600060028260ff168154811061019f5761019e6102e0565b5b90600052602060002001549050919050565b6000813590506101c081610314565b92915050565b6000813590506101d58161032b565b92915050565b6000602082840312156101f1576101f061030f565b5b60006101ff848285016101b1565b91505092915050565b60006020828403121561021e5761021d61030f565b5b600061022c848285016101c6565b91505092915050565b6000806040838503121561024c5761024b61030f565b5b600061025a858286016101c6565b925050602061026b858286016101c6565b9150509250929050565b61027e816102c9565b82525050565b61028d816102d3565b82525050565b60006020820190506102a86000830184610275565b92915050565b60006020820190506102c36000830184610284565b92915050565b6000819050919050565b600060ff82169050919050565b7f4e487b7100000000000000000000000000000000000000000000000000000000600052603260045260246000fd5b600080fd5b61031d816102c9565b811461032857600080fd5b50565b610334816102d3565b811461033f57600080fd5b5056fea26469706673582212209ef1b72e0aeb19a79ad700e139e0c5eb48b5d801464268b25c6b7c98fbd4622964736f6c63430008070033",
					"opcodes": "PUSH1 0x80 PUSH1 0x40 MSTORE CALLVALUE DUP1 ISZERO PUSH2 0x10 JUMPI PUSH1 0x0 DUP1 REVERT JUMPDEST POP PUSH2 0x378 DUP1 PUSH2 0x20 PUSH1 0x0 CODECOPY PUSH1 0x0 RETURN INVALID PUSH1 0x80 PUSH1 0x40 MSTORE CALLVALUE DUP1 ISZERO PUSH2 0x10 JUMPI PUSH1 0x0 DUP1 REVERT JUMPDEST POP PUSH1 0x4 CALLDATASIZE LT PUSH2 0x4C JUMPI PUSH1 0x0 CALLDATALOAD PUSH1 0xE0 SHR DUP1 PUSH4 0x1E3D73A1 EQ PUSH2 0x51 JUMPI DUP1 PUSH4 0x451D76C3 EQ PUSH2 0x6D JUMPI DUP1 PUSH4 0x7CF7A4DD EQ PUSH2 0x89 JUMPI DUP1 PUSH4 0xA45581FB EQ PUSH2 0xB9 JUMPI JUMPDEST PUSH1 0x0 DUP1 REVERT JUMPDEST PUSH2 0x6B PUSH1 0x4 DUP1 CALLDATASIZE SUB DUP2 ADD SWAP1 PUSH2 0x66 SWAP2 SWAP1 PUSH2 0x235 JUMP JUMPDEST PUSH2 0xE9 JUMP JUMPDEST STOP JUMPDEST PUSH2 0x87 PUSH1 0x4 DUP1 CALLDATASIZE SUB DUP2 ADD SWAP1 PUSH2 0x82 SWAP2 SWAP1 PUSH2 0x1DB JUMP JUMPDEST PUSH2 0x125 JUMP JUMPDEST STOP JUMPDEST PUSH2 0xA3 PUSH1 0x4 DUP1 CALLDATASIZE SUB DUP2 ADD SWAP1 PUSH2 0x9E SWAP2 SWAP1 PUSH2 0x208 JUMP JUMPDEST PUSH2 0x151 JUMP JUMPDEST PUSH1 0x40 MLOAD PUSH2 0xB0 SWAP2 SWAP1 PUSH2 0x2AE JUMP JUMPDEST PUSH1 0x40 MLOAD DUP1 SWAP2 SUB SWAP1 RETURN JUMPDEST PUSH2 0xD3 PUSH1 0x4 DUP1 CALLDATASIZE SUB DUP2 ADD SWAP1 PUSH2 0xCE SWAP2 SWAP1 PUSH2 0x208 JUMP JUMPDEST PUSH2 0x186 JUMP JUMPDEST PUSH1 0x40 MLOAD PUSH2 0xE0 SWAP2 SWAP1 PUSH2 0x293 JUMP JUMPDEST PUSH1 0x40 MLOAD DUP1 SWAP2 SUB SWAP1 RETURN JUMPDEST DUP1 PUSH1 0x0 DUP4 PUSH1 0xFF AND PUSH1 0x32 DUP2 LT PUSH2 0x101 JUMPI PUSH2 0x100 PUSH2 0x2E0 JUMP JUMPDEST JUMPDEST PUSH1 0x20 SWAP2 DUP3 DUP3 DIV ADD SWAP2 SWAP1 MOD PUSH2 0x100 EXP DUP2 SLOAD DUP2 PUSH1 0xFF MUL NOT AND SWAP1 DUP4 PUSH1 0xFF AND MUL OR SWAP1 SSTORE POP POP POP JUMP JUMPDEST PUSH1 0x2 DUP2 SWAP1 DUP1 PUSH1 0x1 DUP2 SLOAD ADD DUP1 DUP3 SSTORE DUP1 SWAP2 POP POP PUSH1 0x1 SWAP1 SUB SWAP1 PUSH1 0x0 MSTORE PUSH1 0x20 PUSH1 0x0 KECCAK256 ADD PUSH1 0x0 SWAP1 SWAP2 SWAP1 SWAP2 SWAP1 SWAP2 POP SSTORE POP JUMP JUMPDEST PUSH1 0x0 DUP1 DUP3 PUSH1 0xFF AND PUSH1 0x32 DUP2 LT PUSH2 0x169 JUMPI PUSH2 0x168 PUSH2 0x2E0 JUMP JUMPDEST JUMPDEST PUSH1 0x20 SWAP2 DUP3 DUP3 DIV ADD SWAP2 SWAP1 MOD SWAP1 SLOAD SWAP1 PUSH2 0x100 EXP SWAP1 DIV PUSH1 0xFF AND SWAP1 POP SWAP2 SWAP1 POP JUMP JUMPDEST PUSH1 0x0 PUSH1 0x2 DUP3 PUSH1 0xFF AND DUP2 SLOAD DUP2 LT PUSH2 0x19F JUMPI PUSH2 0x19E PUSH2 0x2E0 JUMP JUMPDEST JUMPDEST SWAP1 PUSH1 0x0 MSTORE PUSH1 0x20 PUSH1 0x0 KECCAK256 ADD SLOAD SWAP1 POP SWAP2 SWAP1 POP JUMP JUMPDEST PUSH1 0x0 DUP2 CALLDATALOAD SWAP1 POP PUSH2 0x1C0 DUP2 PUSH2 0x314 JUMP JUMPDEST SWAP3 SWAP2 POP POP JUMP JUMPDEST PUSH1 0x0 DUP2 CALLDATALOAD SWAP1 POP PUSH2 0x1D5 DUP2 PUSH2 0x32B JUMP JUMPDEST SWAP3 SWAP2 POP POP JUMP JUMPDEST PUSH1 0x0 PUSH1 0x20 DUP3 DUP5 SUB SLT ISZERO PUSH2 0x1F1 JUMPI PUSH2 0x1F0 PUSH2 0x30F JUMP JUMPDEST JUMPDEST PUSH1 0x0 PUSH2 0x1FF DUP5 DUP3 DUP6 ADD PUSH2 0x1B1 JUMP JUMPDEST SWAP2 POP POP SWAP3 SWAP2 POP POP JUMP JUMPDEST PUSH1 0x0 PUSH1 0x20 DUP3 DUP5 SUB SLT ISZERO PUSH2 0x21E JUMPI PUSH2 0x21D PUSH2 0x30F JUMP JUMPDEST JUMPDEST PUSH1 0x0 PUSH2 0x22C DUP5 DUP3 DUP6 ADD PUSH2 0x1C6 JUMP JUMPDEST SWAP2 POP POP SWAP3 SWAP2 POP POP JUMP JUMPDEST PUSH1 0x0 DUP1 PUSH1 0x40 DUP4 DUP6 SUB SLT ISZERO PUSH2 0x24C JUMPI PUSH2 0x24B PUSH2 0x30F JUMP JUMPDEST JUMPDEST PUSH1 0x0 PUSH2 0x25A DUP6 DUP3 DUP7 ADD PUSH2 0x1C6 JUMP JUMPDEST SWAP3 POP POP PUSH1 0x20 PUSH2 0x26B DUP6 DUP3 DUP7 ADD PUSH2 0x1C6 JUMP JUMPDEST SWAP2 POP POP SWAP3 POP SWAP3 SWAP1 POP JUMP JUMPDEST PUSH2 0x27E DUP2 PUSH2 0x2C9 JUMP JUMPDEST DUP3 MSTORE POP POP JUMP JUMPDEST PUSH2 0x28D DUP2 PUSH2 0x2D3 JUMP JUMPDEST DUP3 MSTORE POP POP JUMP JUMPDEST PUSH1 0x0 PUSH1 0x20 DUP3 ADD SWAP1 POP PUSH2 0x2A8 PUSH1 0x0 DUP4 ADD DUP5 PUSH2 0x275 JUMP JUMPDEST SWAP3 SWAP2 POP POP JUMP JUMPDEST PUSH1 0x0 PUSH1 0x20 DUP3 ADD SWAP1 POP PUSH2 0x2C3 PUSH1 0x0 DUP4 ADD DUP5 PUSH2 0x284 JUMP JUMPDEST SWAP3 SWAP2 POP POP JUMP JUMPDEST PUSH1 0x0 DUP2 SWAP1 POP SWAP2 SWAP1 POP JUMP JUMPDEST PUSH1 0x0 PUSH1 0xFF DUP3 AND SWAP1 POP SWAP2 SWAP1 POP JUMP JUMPDEST PUSH32 0x4E487B7100000000000000000000000000000000000000000000000000000000 PUSH1 0x0 MSTORE PUSH1 0x32 PUSH1 0x4 MSTORE PUSH1 0x24 PUSH1 0x0 REVERT JUMPDEST PUSH1 0x0 DUP1 REVERT JUMPDEST PUSH2 0x31D DUP2 PUSH2 0x2C9 JUMP JUMPDEST DUP2 EQ PUSH2 0x328 JUMPI PUSH1 0x0 DUP1 REVERT JUMPDEST POP JUMP JUMPDEST PUSH2 0x334 DUP2 PUSH2 0x2D3 JUMP JUMPDEST DUP2 EQ PUSH2 0x33F JUMPI PUSH1 0x0 DUP1 REVERT JUMPDEST POP JUMP INVALID LOG2 PUSH5 0x6970667358 0x22 SLT KECCAK256 SWAP15 CALL 0xB7 0x2E EXP 0xEB NOT 0xA7 SWAP11 0xD7 STOP 0xE1 CODECOPY 0xE0 0xC5 0xEB BASEFEE 0xB5 0xD8 ADD CHAINID TIMESTAMP PUSH9 0xB25C6B7C98FBD46229 PUSH5 0x736F6C6343 STOP ADDMOD SMOD STOP CALLER "
				},
				"gasEstimates": {
					"creation": {
						"codeDepositCost": "177600",
						"executionCost": "220",
						"totalCost": "177820"
					},
					"external": {
						"readData(uint8)": "infinite",
						"readPhoneNo(uint8)": "4938",
						"setData(uint8,uint8)": "infinite",
						"setPhoneData(uint256)": "46829"
					}
				},
				"methodIdentifiers": {
					"readData(uint8)": "7cf7a4dd",
					"readPhoneNo(uint8)": "a45581fb",
					"setData(uint8,uint8)": "1e3d73a1",
					"setPhoneData(uint256)": "451d76c3"
				}
			},
			"storageLayout": {
				"storage": [
					{
						"astId": 5,
						"contract": "contracts/ArrayDemo.sol:ArrayDemo",
						"label": "ages",
						"offset": 0,
						"slot": "0",
						"type": "t_array(t_uint8)50_storage"
					},
					{
						"astId": 34,
						"contract": "contracts/ArrayDemo.sol:ArrayDemo",
						"label": "phoneNos",
						"offset": 0,
						"slot": "2",
						"type": "t_array(t_uint256)dyn_storage"
					}
				],
				"types": {
					"t_array(t_uint256)dyn_storage": {
						"base": "t_uint256",
						"encoding": "dynamic_array",
						"label": "uint256[]",
						"numberOfBytes": "32"
					},
					"t_array(t_uint8)50_storage": {
						"base": "t_uint8",
						"encoding": "inplace",
						"label": "uint8[50]",
						"numberOfBytes": "64"
					},
					"t_uint256": {
						"encoding": "inplace",
						"label": "uint256",
						"numberOfBytes": "32"
					},
					"t_uint8": {
						"encoding": "inplace",
						"label": "uint8",
						"numberOfBytes": "1"
					}
				}
			},
			"userdoc": {
				"kind": "user",
				"methods": {},
				"version": 1
			}
		}
	}
}