{
	"data": {
		"bytecode": {
			"linkReferences": {},
			"object": "608060405234801561001057600080fd5b506105fe806100206000396000f3fe608060405234801561001057600080fd5b50600436106100365760003560e01c806315ef194e1461003b578063174d39f614610057575b600080fd5b61005560048036038101906100509190610323565b610088565b005b610071600480360381019061006c91906102f6565b6100f1565b60405161007f9291906103da565b60405180910390f35b816000808560ff1660ff16815260200190815260200160002060000190805190602001906100b79291906101ce565b50806000808560ff1660ff16815260200190815260200160002060010160006101000a81548160ff021916908360ff160217905550505050565b606060008060008460ff1660ff1681526020019081526020016000206000016000808560ff1660ff16815260200190815260200160002060010160009054906101000a900460ff16818054610145906104cb565b80601f0160208091040260200160405190810160405280929190818152602001828054610171906104cb565b80156101be5780601f10610193576101008083540402835291602001916101be565b820191906000526020600020905b8154815290600101906020018083116101a157829003601f168201915b5050505050915091509150915091565b8280546101da906104cb565b90600052602060002090601f0160209004810192826101fc5760008555610243565b82601f1061021557805160ff1916838001178555610243565b82800160010185558215610243579182015b82811115610242578251825591602001919060010190610227565b5b5090506102509190610254565b5090565b5b8082111561026d576000816000905550600101610255565b5090565b600061028461027f8461042f565b61040a565b9050828152602081018484840111156102a05761029f610591565b5b6102ab848285610489565b509392505050565b600082601f8301126102c8576102c761058c565b5b81356102d8848260208601610271565b91505092915050565b6000813590506102f0816105b1565b92915050565b60006020828403121561030c5761030b61059b565b5b600061031a848285016102e1565b91505092915050565b60008060006060848603121561033c5761033b61059b565b5b600061034a868287016102e1565b935050602084013567ffffffffffffffff81111561036b5761036a610596565b5b610377868287016102b3565b9250506040610388868287016102e1565b9150509250925092565b600061039d82610460565b6103a7818561046b565b93506103b7818560208601610498565b6103c0816105a0565b840191505092915050565b6103d48161047c565b82525050565b600060408201905081810360008301526103f48185610392565b905061040360208301846103cb565b9392505050565b6000610414610425565b905061042082826104fd565b919050565b6000604051905090565b600067ffffffffffffffff82111561044a5761044961055d565b5b610453826105a0565b9050602081019050919050565b600081519050919050565b600082825260208201905092915050565b600060ff82169050919050565b82818337600083830152505050565b60005b838110156104b657808201518184015260208101905061049b565b838111156104c5576000848401525b50505050565b600060028204905060018216806104e357607f821691505b602082108114156104f7576104f661052e565b5b50919050565b610506826105a0565b810181811067ffffffffffffffff821117156105255761052461055d565b5b80604052505050565b7f4e487b7100000000000000000000000000000000000000000000000000000000600052602260045260246000fd5b7f4e487b7100000000000000000000000000000000000000000000000000000000600052604160045260246000fd5b600080fd5b600080fd5b600080fd5b600080fd5b6000601f19601f8301169050919050565b6105ba8161047c565b81146105c557600080fd5b5056fea264697066735822122005179f9811b67104001b9107a7fb4954495c3c77c940274bd54cf357c3a0946064736f6c63430008070033",
			"opcodes": "PUSH1 0x80 PUSH1 0x40 MSTORE CALLVALUE DUP1 ISZERO PUSH2 0x10 JUMPI PUSH1 0x0 DUP1 REVERT JUMPDEST POP PUSH2 0x5FE DUP1 PUSH2 0x20 PUSH1 0x0 CODECOPY PUSH1 0x0 RETURN INVALID PUSH1 0x80 PUSH1 0x40 MSTORE CALLVALUE DUP1 ISZERO PUSH2 0x10 JUMPI PUSH1 0x0 DUP1 REVERT JUMPDEST POP PUSH1 0x4 CALLDATASIZE LT PUSH2 0x36 JUMPI PUSH1 0x0 CALLDATALOAD PUSH1 0xE0 SHR DUP1 PUSH4 0x15EF194E EQ PUSH2 0x3B JUMPI DUP1 PUSH4 0x174D39F6 EQ PUSH2 0x57 JUMPI JUMPDEST PUSH1 0x0 DUP1 REVERT JUMPDEST PUSH2 0x55 PUSH1 0x4 DUP1 CALLDATASIZE SUB DUP2 ADD SWAP1 PUSH2 0x50 SWAP2 SWAP1 PUSH2 0x323 JUMP JUMPDEST PUSH2 0x88 JUMP JUMPDEST STOP JUMPDEST PUSH2 0x71 PUSH1 0x4 DUP1 CALLDATASIZE SUB DUP2 ADD SWAP1 PUSH2 0x6C SWAP2 SWAP1 PUSH2 0x2F6 JUMP JUMPDEST PUSH2 0xF1 JUMP JUMPDEST PUSH1 0x40 MLOAD PUSH2 0x7F SWAP3 SWAP2 SWAP1 PUSH2 0x3DA JUMP JUMPDEST PUSH1 0x40 MLOAD DUP1 SWAP2 SUB SWAP1 RETURN JUMPDEST DUP2 PUSH1 0x0 DUP1 DUP6 PUSH1 0xFF AND PUSH1 0xFF AND DUP2 MSTORE PUSH1 0x20 ADD SWAP1 DUP2 MSTORE PUSH1 0x20 ADD PUSH1 0x0 KECCAK256 PUSH1 0x0 ADD SWAP1 DUP1 MLOAD SWAP1 PUSH1 0x20 ADD SWAP1 PUSH2 0xB7 SWAP3 SWAP2 SWAP1 PUSH2 0x1CE JUMP JUMPDEST POP DUP1 PUSH1 0x0 DUP1 DUP6 PUSH1 0xFF AND PUSH1 0xFF AND DUP2 MSTORE PUSH1 0x20 ADD SWAP1 DUP2 MSTORE PUSH1 0x20 ADD PUSH1 0x0 KECCAK256 PUSH1 0x1 ADD PUSH1 0x0 PUSH2 0x100 EXP DUP2 SLOAD DUP2 PUSH1 0xFF MUL NOT AND SWAP1 DUP4 PUSH1 0xFF AND MUL OR SWAP1 SSTORE POP POP POP POP JUMP JUMPDEST PUSH1 0x60 PUSH1 0x0 DUP1 PUSH1 0x0 DUP5 PUSH1 0xFF AND PUSH1 0xFF AND DUP2 MSTORE PUSH1 0x20 ADD SWAP1 DUP2 MSTORE PUSH1 0x20 ADD PUSH1 0x0 KECCAK256 PUSH1 0x0 ADD PUSH1 0x0 DUP1 DUP6 PUSH1 0xFF AND PUSH1 0xFF AND DUP2 MSTORE PUSH1 0x20 ADD SWAP1 DUP2 MSTORE PUSH1 0x20 ADD PUSH1 0x0 KECCAK256 PUSH1 0x1 ADD PUSH1 0x0 SWAP1 SLOAD SWAP1 PUSH2 0x100 EXP SWAP1 DIV PUSH1 0xFF AND DUP2 DUP1 SLOAD PUSH2 0x145 SWAP1 PUSH2 0x4CB JUMP JUMPDEST DUP1 PUSH1 0x1F ADD PUSH1 0x20 DUP1 SWAP2 DIV MUL PUSH1 0x20 ADD PUSH1 0x40 MLOAD SWAP1 DUP2 ADD PUSH1 0x40 MSTORE DUP1 SWAP3 SWAP2 SWAP1 DUP2 DUP2 MSTORE PUSH1 0x20 ADD DUP3 DUP1 SLOAD PUSH2 0x171 SWAP1 PUSH2 0x4CB JUMP JUMPDEST DUP1 ISZERO PUSH2 0x1BE JUMPI DUP1 PUSH1 0x1F LT PUSH2 0x193 JUMPI PUSH2 0x100 DUP1 DUP4 SLOAD DIV MUL DUP4 MSTORE SWAP2 PUSH1 0x20 ADD SWAP2 PUSH2 0x1BE JUMP JUMPDEST DUP3 ADD SWAP2 SWAP1 PUSH1 0x0 MSTORE PUSH1 0x20 PUSH1 0x0 KECCAK256 SWAP1 JUMPDEST DUP2 SLOAD DUP2 MSTORE SWAP1 PUSH1 0x1 ADD SWAP1 PUSH1 0x20 ADD DUP1 DUP4 GT PUSH2 0x1A1 JUMPI DUP3 SWAP1 SUB PUSH1 0x1F AND DUP3 ADD SWAP2 JUMPDEST POP POP POP POP POP SWAP2 POP SWAP2 POP SWAP2 POP SWAP2 POP SWAP2 JUMP JUMPDEST DUP3 DUP1 SLOAD PUSH2 0x1DA SWAP1 PUSH2 0x4CB JUMP JUMPDEST SWAP1 PUSH1 0x0 MSTORE PUSH1 0x20 PUSH1 0x0 KECCAK256 SWAP1 PUSH1 0x1F ADD PUSH1 0x20 SWAP1 DIV DUP2 ADD SWAP3 DUP3 PUSH2 0x1FC JUMPI PUSH1 0x0 DUP6 SSTORE PUSH2 0x243 JUMP JUMPDEST DUP3 PUSH1 0x1F LT PUSH2 0x215 JUMPI DUP1 MLOAD PUSH1 0xFF NOT AND DUP4 DUP1 ADD OR DUP6 SSTORE PUSH2 0x243 JUMP JUMPDEST DUP3 DUP1 ADD PUSH1 0x1 ADD DUP6 SSTORE DUP3 ISZERO PUSH2 0x243 JUMPI SWAP2 DUP3 ADD JUMPDEST DUP3 DUP2 GT ISZERO PUSH2 0x242 JUMPI DUP3 MLOAD DUP3 SSTORE SWAP2 PUSH1 0x20 ADD SWAP2 SWAP1 PUSH1 0x1 ADD SWAP1 PUSH2 0x227 JUMP JUMPDEST JUMPDEST POP SWAP1 POP PUSH2 0x250 SWAP2 SWAP1 PUSH2 0x254 JUMP JUMPDEST POP SWAP1 JUMP JUMPDEST JUMPDEST DUP1 DUP3 GT ISZERO PUSH2 0x26D JUMPI PUSH1 0x0 DUP2 PUSH1 0x0 SWAP1 SSTORE POP PUSH1 0x1 ADD PUSH2 0x255 JUMP JUMPDEST POP SWAP1 JUMP JUMPDEST PUSH1 0x0 PUSH2 0x284 PUSH2 0x27F DUP5 PUSH2 0x42F JUMP JUMPDEST PUSH2 0x40A JUMP JUMPDEST SWAP1 POP DUP3 DUP2 MSTORE PUSH1 0x20 DUP2 ADD DUP5 DUP5 DUP5 ADD GT ISZERO PUSH2 0x2A0 JUMPI PUSH2 0x29F PUSH2 0x591 JUMP JUMPDEST JUMPDEST PUSH2 0x2AB DUP5 DUP3 DUP6 PUSH2 0x489 JUMP JUMPDEST POP SWAP4 SWAP3 POP POP POP JUMP JUMPDEST PUSH1 0x0 DUP3 PUSH1 0x1F DUP4 ADD SLT PUSH2 0x2C8 JUMPI PUSH2 0x2C7 PUSH2 0x58C JUMP JUMPDEST JUMPDEST DUP2 CALLDATALOAD PUSH2 0x2D8 DUP5 DUP3 PUSH1 0x20 DUP7 ADD PUSH2 0x271 JUMP JUMPDEST SWAP2 POP POP SWAP3 SWAP2 POP POP JUMP JUMPDEST PUSH1 0x0 DUP2 CALLDATALOAD SWAP1 POP PUSH2 0x2F0 DUP2 PUSH2 0x5B1 JUMP JUMPDEST SWAP3 SWAP2 POP POP JUMP JUMPDEST PUSH1 0x0 PUSH1 0x20 DUP3 DUP5 SUB SLT ISZERO PUSH2 0x30C JUMPI PUSH2 0x30B PUSH2 0x59B JUMP JUMPDEST JUMPDEST PUSH1 0x0 PUSH2 0x31A DUP5 DUP3 DUP6 ADD PUSH2 0x2E1 JUMP JUMPDEST SWAP2 POP POP SWAP3 SWAP2 POP POP JUMP JUMPDEST PUSH1 0x0 DUP1 PUSH1 0x0 PUSH1 0x60 DUP5 DUP7 SUB SLT ISZERO PUSH2 0x33C JUMPI PUSH2 0x33B PUSH2 0x59B JUMP JUMPDEST JUMPDEST PUSH1 0x0 PUSH2 0x34A DUP7 DUP3 DUP8 ADD PUSH2 0x2E1 JUMP JUMPDEST SWAP4 POP POP PUSH1 0x20 DUP5 ADD CALLDATALOAD PUSH8 0xFFFFFFFFFFFFFFFF DUP2 GT ISZERO PUSH2 0x36B JUMPI PUSH2 0x36A PUSH2 0x596 JUMP JUMPDEST JUMPDEST PUSH2 0x377 DUP7 DUP3 DUP8 ADD PUSH2 0x2B3 JUMP JUMPDEST SWAP3 POP POP PUSH1 0x40 PUSH2 0x388 DUP7 DUP3 DUP8 ADD PUSH2 0x2E1 JUMP JUMPDEST SWAP2 POP POP SWAP3 POP SWAP3 POP SWAP3 JUMP JUMPDEST PUSH1 0x0 PUSH2 0x39D DUP3 PUSH2 0x460 JUMP JUMPDEST PUSH2 0x3A7 DUP2 DUP6 PUSH2 0x46B JUMP JUMPDEST SWAP4 POP PUSH2 0x3B7 DUP2 DUP6 PUSH1 0x20 DUP7 ADD PUSH2 0x498 JUMP JUMPDEST PUSH2 0x3C0 DUP2 PUSH2 0x5A0 JUMP JUMPDEST DUP5 ADD SWAP2 POP POP SWAP3 SWAP2 POP POP JUMP JUMPDEST PUSH2 0x3D4 DUP2 PUSH2 0x47C JUMP JUMPDEST DUP3 MSTORE POP POP JUMP JUMPDEST PUSH1 0x0 PUSH1 0x40 DUP3 ADD SWAP1 POP DUP2 DUP2 SUB PUSH1 0x0 DUP4 ADD MSTORE PUSH2 0x3F4 DUP2 DUP6 PUSH2 0x392 JUMP JUMPDEST SWAP1 POP PUSH2 0x403 PUSH1 0x20 DUP4 ADD DUP5 PUSH2 0x3CB JUMP JUMPDEST SWAP4 SWAP3 POP POP POP JUMP JUMPDEST PUSH1 0x0 PUSH2 0x414 PUSH2 0x425 JUMP JUMPDEST SWAP1 POP PUSH2 0x420 DUP3 DUP3 PUSH2 0x4FD JUMP JUMPDEST SWAP2 SWAP1 POP JUMP JUMPDEST PUSH1 0x0 PUSH1 0x40 MLOAD SWAP1 POP SWAP1 JUMP JUMPDEST PUSH1 0x0 PUSH8 0xFFFFFFFFFFFFFFFF DUP3 GT ISZERO PUSH2 0x44A JUMPI PUSH2 0x449 PUSH2 0x55D JUMP JUMPDEST JUMPDEST PUSH2 0x453 DUP3 PUSH2 0x5A0 JUMP JUMPDEST SWAP1 POP PUSH1 0x20 DUP2 ADD SWAP1 POP SWAP2 SWAP1 POP JUMP JUMPDEST PUSH1 0x0 DUP2 MLOAD SWAP1 POP SWAP2 SWAP1 POP JUMP JUMPDEST PUSH1 0x0 DUP3 DUP3 MSTORE PUSH1 0x20 DUP3 ADD SWAP1 POP SWAP3 SWAP2 POP POP JUMP JUMPDEST PUSH1 0x0 PUSH1 0xFF DUP3 AND SWAP1 POP SWAP2 SWAP1 POP JUMP JUMPDEST DUP3 DUP2 DUP4 CALLDATACOPY PUSH1 0x0 DUP4 DUP4 ADD MSTORE POP POP POP JUMP JUMPDEST PUSH1 0x0 JUMPDEST DUP4 DUP2 LT ISZERO PUSH2 0x4B6 JUMPI DUP1 DUP3 ADD MLOAD DUP2 DUP5 ADD MSTORE PUSH1 0x20 DUP2 ADD SWAP1 POP PUSH2 0x49B JUMP JUMPDEST DUP4 DUP2 GT ISZERO PUSH2 0x4C5 JUMPI PUSH1 0x0 DUP5 DUP5 ADD MSTORE JUMPDEST POP POP POP POP JUMP JUMPDEST PUSH1 0x0 PUSH1 0x2 DUP3 DIV SWAP1 POP PUSH1 0x1 DUP3 AND DUP1 PUSH2 0x4E3 JUMPI PUSH1 0x7F DUP3 AND SWAP2 POP JUMPDEST PUSH1 0x20 DUP3 LT DUP2 EQ ISZERO PUSH2 0x4F7 JUMPI PUSH2 0x4F6 PUSH2 0x52E JUMP JUMPDEST JUMPDEST POP SWAP2 SWAP1 POP JUMP JUMPDEST PUSH2 0x506 DUP3 PUSH2 0x5A0 JUMP JUMPDEST DUP2 ADD DUP2 DUP2 LT PUSH8 0xFFFFFFFFFFFFFFFF DUP3 GT OR ISZERO PUSH2 0x525 JUMPI PUSH2 0x524 PUSH2 0x55D JUMP JUMPDEST JUMPDEST DUP1 PUSH1 0x40 MSTORE POP POP POP JUMP JUMPDEST PUSH32 0x4E487B7100000000000000000000000000000000000000000000000000000000 PUSH1 0x0 MSTORE PUSH1 0x22 PUSH1 0x4 MSTORE PUSH1 0x24 PUSH1 0x0 REVERT JUMPDEST PUSH32 0x4E487B7100000000000000000000000000000000000000000000000000000000 PUSH1 0x0 MSTORE PUSH1 0x41 PUSH1 0x4 MSTORE PUSH1 0x24 PUSH1 0x0 REVERT JUMPDEST PUSH1 0x0 DUP1 REVERT JUMPDEST PUSH1 0x0 DUP1 REVERT JUMPDEST PUSH1 0x0 DUP1 REVERT JUMPDEST PUSH1 0x0 DUP1 REVERT JUMPDEST PUSH1 0x0 PUSH1 0x1F NOT PUSH1 0x1F DUP4 ADD AND SWAP1 POP SWAP2 SWAP1 POP JUMP JUMPDEST PUSH2 0x5BA DUP2 PUSH2 0x47C JUMP JUMPDEST DUP2 EQ PUSH2 0x5C5 JUMPI PUSH1 0x0 DUP1 REVERT JUMPDEST POP JUMP INVALID LOG2 PUSH5 0x6970667358 0x22 SLT KECCAK256 SDIV OR SWAP16 SWAP9 GT 0xB6 PUSH18 0x4001B9107A7FB4954495C3C77C940274BD5 0x4C RETURN JUMPI 0xC3 LOG0 SWAP5 PUSH1 0x64 PUSH20 0x6F6C634300080700330000000000000000000000 "
		},
		"gasEstimates": {
			"creation": {
				"codeDepositCost": "306800",
				"executionCost": "343",
				"totalCost": "307143"
			},
			"external": {
				"getLearner(uint8)": "infinite",
				"setLearner(uint8,string,uint8)": "infinite"
			}
		},
		"methodIdentifiers": {
			"getLearner(uint8)": "174d39f6",
			"setLearner(uint8,string,uint8)": "15ef194e"
		}
	},
	"abi": [
		{
			"inputs": [
				{
					"internalType": "uint8",
					"name": "_key",
					"type": "uint8"
				}
			],
			"name": "getLearner",
			"outputs": [
				{
					"internalType": "string",
					"name": "",
					"type": "string"
				},
				{
					"internalType": "uint8",
					"name": "",
					"type": "uint8"
				}
			],
			"stateMutability": "view",
			"type": "function"
		},
		{
			"inputs": [
				{
					"internalType": "uint8",
					"name": "_key",
					"type": "uint8"
				},
				{
					"internalType": "string",
					"name": "_name",
					"type": "string"
				},
				{
					"internalType": "uint8",
					"name": "_age",
					"type": "uint8"
				}
			],
			"name": "setLearner",
			"outputs": [],
			"stateMutability": "nonpayable",
			"type": "function"
		}
	]
}